{
  "_format": "hh-sol-artifact-1",
  "contractName": "Crowdfunding",
  "sourceName": "contracts/Crowdfunding.sol",
  "abi": [
    {
      "anonymous": false,
      "inputs": [
        {
          "indexed": false,
          "internalType": "address",
          "name": "projectAddress",
          "type": "address"
        },
        {
          "indexed": false,
          "internalType": "uint256",
          "name": "contributedAmount",
          "type": "uint256"
        },
        {
          "indexed": true,
          "internalType": "address",
          "name": "contributor",
          "type": "address"
        }
      ],
      "name": "ContributionReceived",
      "type": "event"
    },
    {
      "anonymous": false,
      "inputs": [
        {
          "indexed": true,
          "internalType": "address",
          "name": "previousOwner",
          "type": "address"
        },
        {
          "indexed": true,
          "internalType": "address",
          "name": "newOwner",
          "type": "address"
        }
      ],
      "name": "OwnershipTransferred",
      "type": "event"
    },
    {
      "anonymous": false,
      "inputs": [
        {
          "indexed": false,
          "internalType": "address",
          "name": "projectContractAddress",
          "type": "address"
        },
        {
          "indexed": false,
          "internalType": "address",
          "name": "creator",
          "type": "address"
        },
        {
          "indexed": false,
          "internalType": "uint256",
          "name": "minContribution",
          "type": "uint256"
        },
        {
          "indexed": false,
          "internalType": "uint256",
          "name": "projectDeadline",
          "type": "uint256"
        },
        {
          "indexed": false,
          "internalType": "uint256",
          "name": "goalAmount",
          "type": "uint256"
        },
        {
          "indexed": false,
          "internalType": "uint256",
          "name": "currentAmount",
          "type": "uint256"
        },
        {
          "indexed": false,
          "internalType": "uint256",
          "name": "noOfContributors",
          "type": "uint256"
        },
        {
          "indexed": false,
          "internalType": "string",
          "name": "title",
          "type": "string"
        },
        {
          "indexed": false,
          "internalType": "string",
          "name": "desc",
          "type": "string"
        },
        {
          "indexed": false,
          "internalType": "uint256",
          "name": "currentState",
          "type": "uint256"
        },
        {
          "indexed": false,
          "internalType": "string",
          "name": "websiteUrl",
          "type": "string"
        },
        {
          "indexed": false,
          "internalType": "string",
          "name": "socialUrl",
          "type": "string"
        },
        {
          "indexed": false,
          "internalType": "string",
          "name": "projectCoverUrl",
          "type": "string"
        },
        {
          "indexed": false,
          "internalType": "string",
          "name": "filterTags",
          "type": "string"
        }
      ],
      "name": "ProjectStarted",
      "type": "event"
    },
    {
      "stateMutability": "payable",
      "type": "fallback"
    },
    {
      "inputs": [
        {
          "internalType": "contract IERC20",
          "name": "",
          "type": "address"
        }
      ],
      "name": "acceptedTokens",
      "outputs": [
        {
          "internalType": "bool",
          "name": "",
          "type": "bool"
        }
      ],
      "stateMutability": "view",
      "type": "function"
    },
    {
      "inputs": [
        {
          "internalType": "contract IERC20",
          "name": "tokenAddress",
          "type": "address"
        }
      ],
      "name": "addAcceptedContributionToken",
      "outputs": [],
      "stateMutability": "nonpayable",
      "type": "function"
    },
    {
      "inputs": [
        {
          "internalType": "contract IERC20",
          "name": "tokenAddress",
          "type": "address"
        }
      ],
      "name": "addRewardTokenAddress",
      "outputs": [],
      "stateMutability": "nonpayable",
      "type": "function"
    },
    {
      "inputs": [
        {
          "internalType": "contract IERC20",
          "name": "tokenAddress",
          "type": "address"
        },
        {
          "internalType": "uint256[4]",
          "name": "rewardTiers",
          "type": "uint256[4]"
        }
      ],
      "name": "addRewardTokenTier",
      "outputs": [],
      "stateMutability": "nonpayable",
      "type": "function"
    },
    {
      "inputs": [
        {
          "internalType": "address",
          "name": "_projectAddress",
          "type": "address"
        },
        {
          "internalType": "contract IERC20",
          "name": "token",
          "type": "address"
        },
        {
          "internalType": "uint256",
          "name": "amount",
          "type": "uint256"
        }
      ],
      "name": "contribute",
      "outputs": [],
      "stateMutability": "nonpayable",
      "type": "function"
    },
    {
      "inputs": [
        {
          "internalType": "uint256",
          "name": "minimumContribution",
          "type": "uint256"
        },
        {
          "internalType": "uint256",
          "name": "deadline",
          "type": "uint256"
        },
        {
          "internalType": "uint256",
          "name": "targetContribution",
          "type": "uint256"
        },
        {
          "internalType": "string",
          "name": "projectTitle",
          "type": "string"
        },
        {
          "internalType": "string",
          "name": "projectDesc",
          "type": "string"
        },
        {
          "internalType": "string",
          "name": "websiteUrl",
          "type": "string"
        },
        {
          "internalType": "string",
          "name": "socialUrl",
          "type": "string"
        },
        {
          "internalType": "string",
          "name": "githubUrl",
          "type": "string"
        },
        {
          "internalType": "string",
          "name": "projectCoverUrl",
          "type": "string"
        },
        {
          "internalType": "string",
          "name": "filterTags",
          "type": "string"
        },
        {
          "internalType": "address",
          "name": "usdt",
          "type": "address"
        },
        {
          "internalType": "address",
          "name": "usdc",
          "type": "address"
        }
      ],
      "name": "createProject",
      "outputs": [],
      "stateMutability": "nonpayable",
      "type": "function"
    },
    {
      "inputs": [],
      "name": "owner",
      "outputs": [
        {
          "internalType": "address",
          "name": "",
          "type": "address"
        }
      ],
      "stateMutability": "view",
      "type": "function"
    },
    {
      "inputs": [
        {
          "internalType": "contract IERC20",
          "name": "tokenAddress",
          "type": "address"
        }
      ],
      "name": "removeAcceptedContributionToken",
      "outputs": [],
      "stateMutability": "nonpayable",
      "type": "function"
    },
    {
      "inputs": [
        {
          "internalType": "uint256",
          "name": "rewardTokenAddressesIndex",
          "type": "uint256"
        }
      ],
      "name": "removeRewardTokenAddress",
      "outputs": [],
      "stateMutability": "nonpayable",
      "type": "function"
    },
    {
      "inputs": [],
      "name": "renounceOwnership",
      "outputs": [],
      "stateMutability": "nonpayable",
      "type": "function"
    },
    {
      "inputs": [],
      "name": "returnAllProjects",
      "outputs": [
        {
          "internalType": "contract Project[]",
          "name": "",
          "type": "address[]"
        }
      ],
      "stateMutability": "view",
      "type": "function"
    },
    {
      "inputs": [
        {
          "internalType": "uint256",
          "name": "",
          "type": "uint256"
        }
      ],
      "name": "rewardTokenAddresses",
      "outputs": [
        {
          "internalType": "contract IERC20",
          "name": "",
          "type": "address"
        }
      ],
      "stateMutability": "view",
      "type": "function"
    },
    {
      "inputs": [
        {
          "internalType": "contract IERC20",
          "name": "",
          "type": "address"
        },
        {
          "internalType": "uint256",
          "name": "",
          "type": "uint256"
        }
      ],
      "name": "rewardTokensTiers",
      "outputs": [
        {
          "internalType": "uint256",
          "name": "",
          "type": "uint256"
        }
      ],
      "stateMutability": "view",
      "type": "function"
    },
    {
      "inputs": [
        {
          "internalType": "address",
          "name": "",
          "type": "address"
        }
      ],
      "name": "rewards",
      "outputs": [
        {
          "internalType": "uint256",
          "name": "",
          "type": "uint256"
        }
      ],
      "stateMutability": "view",
      "type": "function"
    },
    {
      "inputs": [
        {
          "internalType": "address",
          "name": "contributor",
          "type": "address"
        }
      ],
      "name": "showRewardUser",
      "outputs": [
        {
          "internalType": "uint256",
          "name": "",
          "type": "uint256"
        }
      ],
      "stateMutability": "view",
      "type": "function"
    },
    {
      "inputs": [
        {
          "internalType": "address",
          "name": "contributor",
          "type": "address"
        }
      ],
      "name": "showTotalRewardUser",
      "outputs": [
        {
          "internalType": "uint256",
          "name": "",
          "type": "uint256"
        }
      ],
      "stateMutability": "view",
      "type": "function"
    },
    {
      "inputs": [
        {
          "internalType": "address",
          "name": "",
          "type": "address"
        }
      ],
      "name": "totalRewards",
      "outputs": [
        {
          "internalType": "uint256",
          "name": "",
          "type": "uint256"
        }
      ],
      "stateMutability": "view",
      "type": "function"
    },
    {
      "inputs": [
        {
          "internalType": "address",
          "name": "newOwner",
          "type": "address"
        }
      ],
      "name": "transferOwnership",
      "outputs": [],
      "stateMutability": "nonpayable",
      "type": "function"
    },
    {
      "inputs": [
        {
          "internalType": "uint256",
          "name": "amount",
          "type": "uint256"
        },
        {
          "internalType": "address",
          "name": "recipientAddress",
          "type": "address"
        },
        {
          "internalType": "contract IERC20",
          "name": "tokenAddress",
          "type": "address"
        }
      ],
      "name": "withdrawPooledRewards",
      "outputs": [],
      "stateMutability": "nonpayable",
      "type": "function"
    },
    {
      "inputs": [
        {
          "internalType": "uint256",
          "name": "amount",
          "type": "uint256"
        }
      ],
      "name": "withdrawUserRewards",
      "outputs": [],
      "stateMutability": "nonpayable",
      "type": "function"
    }
  ],
  "bytecode": "0x6080604052346200002657620000146200002b565b604051614bb2620001268239614bb290f35b600080fd5b6200003562000037565b565b6200003533620000c3565b62000054905b6001600160a01b031690565b90565b62000054905462000042565b620000549062000048906001600160a01b031682565b620000549062000063565b620000549062000079565b90620000a362000054620000bf9262000084565b82546001600160a01b0319166001600160a01b03919091161790565b9055565b620000cf600062000057565b90620000dd8160006200008f565b620001146200010d7f8be0079c531659141344cd1fd0a4f28419497f9722a3daafe3b4186f6b6457e09362000084565b9162000084565b916200011f60405190565b600090a356fe608060405260043610156200001057005b60003560e01c80630700037d146200017957806318202d0714620001735780631ed2eb4b146200016d57806325f0fc2d146200016757806343746a371462000161578063606266f5146200015b578063715018a614620001555780637b2d9b2c146200014f57806382dc4a05146200014957806385b6e28e14620001435780638d472709146200013d5780638da5cb5b1462000137578063945bbdcd14620001315780639dd2764a146200012b578063a3df77791462000125578063ab7573dd146200011f578063bb7252d81462000119578063eca389891462000113578063f2653b0e146200010d5763f2fde38b146200010757005b62000aa9565b62000a8c565b62000a6e565b62000a16565b620009f5565b620009c3565b620009a6565b62000985565b62000941565b62000923565b620008be565b6200080e565b620007a8565b62000709565b620006e0565b620006ac565b62000673565b620005c4565b620004ca565b6200024f565b6001600160a01b031690565b90565b6001600160a01b0381165b03620001a157565b600080fd5b90503590620001b5826200018e565b565b90602082820312620001a1576200018b91620001a6565b6200017f6200018b6200018b926001600160a01b031690565b6200018b90620001ce565b6200018b90620001e7565b906200020990620001f2565b600052602052604060002090565b6200018b916008021c81565b906200018b915462000217565b6200018b9062000245600191600092620001fd565b62000223565b9052565b34620001a15762000280620002706200026a366004620001b7565b62000230565b6040519182918290815260200190565b0390f35b8062000199565b90503590620001b58262000284565b634e487b7160e01b600052604160045260246000fd5b90601f01601f1916810190811067ffffffffffffffff821117620002d357604052565b6200029a565b90620001b5620002e860405190565b9283620002b0565b67ffffffffffffffff8111620002d357602090601f01601f19160190565b0190565b90826000939282370152565b90929192620003376200033182620002f0565b620002d9565b93818552602085019082840111620001a157620001b59262000312565b9080601f83011215620001a1578160206200018b933591016200031e565b909161018082840312620001a1576200038c83836200028b565b926200039c81602085016200028b565b92620003ac82604083016200028b565b92606082013567ffffffffffffffff8111620001a15783620003d091840162000354565b92608083013567ffffffffffffffff8111620001a15781620003f491850162000354565b9260a081013567ffffffffffffffff8111620001a157826200041891830162000354565b9260c082013567ffffffffffffffff8111620001a157836200043c91840162000354565b9260e083013567ffffffffffffffff8111620001a157816200046091850162000354565b9261010081013567ffffffffffffffff8111620001a157826200048591830162000354565b9261012082013567ffffffffffffffff8111620001a157620004ae846200018b92850162000354565b93620004bf816101408601620001a6565b9361016001620001a6565b34620001a157620004f7620004e136600462000372565b9a99909998919897929796939695949562000fed565b604051005b6001600160a01b03811662000199565b90503590620001b582620004fc565b67ffffffffffffffff8111620002d35760200290565b909291926200054462000331826200051b565b936020859202830192818411620001a157915b838310620005655750505050565b602080916200057584866200028b565b81520192019162000557565b9080601f83011215620001a1576200018b9160049062000531565b919060a083820312620001a1576200018b90620005ba81856200050c565b9360200162000581565b34620001a157620004f7620005db3660046200059c565b90620013e0565b9190604083820312620001a1576200018b906200060081856200050c565b936020016200028b565b634e487b7160e01b600052603260045260246000fd5b600482101562000637576001905b91020190600090565b6200060a565b6200064d600591600092620001fd565b9060048310156200067057506200018b91620006699162000620565b9062000223565b80fd5b34620001a15762000280620002706200068e366004620005e2565b906200063d565b90602082820312620001a1576200018b916200028b565b34620001a157620004f7620006c336600462000695565b620011d7565b90602082820312620001a1576200018b916200050c565b34620001a157620004f7620006f7366004620006c9565b62001191565b6000910312620001a157565b34620001a1576200071c366004620006fd565b620004f762000b0b565b805482101562000637576200062e600191600052602060002090565b6200018b916008021c6200017f565b906200018b915462000742565b600460006200076b825490565b8310156200067057506200018b91620007849162000726565b9062000751565b6200024b90620001f2565b602081019291620001b591906200078b565b34620001a15762000280620007c9620007c336600462000695565b6200075e565b6040519182918262000796565b6200018b916008021c5b60ff1690565b906200018b9154620007d6565b6200018b9062000808600391600092620001fd565b620007e6565b34620001a157620002806200082f62000829366004620006c9565b620007f3565b60405191829182901515815260200190565b906200030e816020936200078b565b90620008736200086c62000862845190565b8084529260200190565b9260200190565b9060005b818110620008855750505090565b909192620008a26200089b600192865162000841565b9460200190565b92910162000877565b60208082526200018b9291019062000850565b34620001a157620008d1366004620006fd565b62000280620008df62001285565b60405191829182620008ab565b9091606082840312620001a1576200018b620009098484620001a6565b936200091981602086016200050c565b936040016200028b565b34620001a157620004f76200093a366004620008ec565b91620019df565b34620001a15762000954366004620006fd565b620002806200096b6000546001600160a01b031690565b604051918291826001600160a01b03909116815260200190565b34620001a1576200028062000270620009a0366004620001b7565b62001421565b34620001a157620004f7620009bd366004620006c9565b6200116a565b34620001a157620004f7620009da366004620006c9565b6200113c565b6200018b9062000245600291600092620001fd565b34620001a157620002806200027062000a10366004620001b7565b620009e0565b34620001a157620002806200027062000a31366004620001b7565b62001400565b9091606082840312620001a1576200018b62000a5484846200028b565b9362000a648160208601620001a6565b936040016200050c565b34620001a157620004f762000a8536600462000a37565b916200181c565b34620001a157620004f762000aa336600462000695565b6200155d565b34620001a157620004f762000ac0366004620001b7565b62000c58565b62000ad062000b6b565b620001b562000af5565b6200017f6200018b6200018b9290565b6200018b9062000ada565b620001b562000b05600062000aea565b62000c98565b620001b562000ac6565b1562000b1d57565b60405162461bcd60e51b81528062000b67600482016020808252818101527f4f776e61626c653a2063616c6c6572206973206e6f7420746865206f776e6572604082015260600190565b0390fd5b620001b562000b826000546001600160a01b031690565b62000b9e62000b91336200017f565b916001600160a01b031690565b1462000b15565b620001b59062000bb462000b6b565b62000c2d565b1562000bc257565b60405162461bcd60e51b815260206004820152602660248201527f4f776e61626c653a206e6577206f776e657220697320746865207a65726f206160448201527f64647265737300000000000000000000000000000000000000000000000000006064820152608490fd5b620001b59062000b0562000c466200017f600062000aea565b6001600160a01b038316141562000bba565b620001b59062000ba5565b906001600160a01b03905b9181191691161790565b9062000c8c6200018b62000c9492620001f2565b825462000c63565b9055565b6000546001600160a01b03169062000cb281600062000c78565b62000ce962000ce27f8be0079c531659141344cd1fd0a4f28419497f9722a3daafe3b4186f6b6457e093620001f2565b91620001f2565b9162000cf460405190565b600090a3565b60005b83811062000d0e5750506000910152565b818101518382015260200162000cfd565b62000d4462000d4e6020936200030e9362000d38815190565b80835293849260200190565b9586910162000cfa565b601f01601f191690565b809e9d9c9b9a999896949297959391976101e08201986000830162000d84916001600160a01b03169052565b6001600160a01b0316602082015260400162000da7916001600160a01b03169052565b6001600160a01b031660608d01526001600160a01b031660808c015260a08b015260c08a015260e089015287810361010089015262000de69162000d1f565b86810361012088015262000dfa9162000d1f565b85810361014087015262000e0e9162000d1f565b84810361016086015262000e229162000d1f565b83810361018085015262000e369162000d1f565b8281036101a084015262000e4a9162000d1f565b90808203906101c001526200018b9162000d1f565b6040513d6000823e3d90fd5b9190600862000c6e91029162000e876001600160a01b03841b90565b921b90565b919062000ea16200018b62000c9493620001f2565b90835462000e6b565b9081549168010000000000000000831015620002d3578262000ed6916001620001b59501815562000726565b9062000e8c565b6200018b6200018b6200018b9290565b6200024b9062000edd565b9c9b9a999897969492909593918d6101c08101976000820162000f22916001600160a01b03169052565b60200162000f37916001600160a01b03169052565b60408d015260608c015260808b015260a08a0162000f559162000eed565b60c0890162000f649162000eed565b87810360e089015262000f779162000d1f565b86810361010088015262000f8b9162000d1f565b90610120860162000f9c9162000eed565b84810361014086015262000fb09162000d1f565b83810361016085015262000fc49162000d1f565b82810361018084015262000fd89162000d1f565b90808203906101a001526200018b9162000d1f565b999a909a989691929897959493976200100e6000546001600160a01b031690565b906200101a30620001f2565b926200102560405190565b94612dbb86019286841067ffffffffffffffff851117620002d3578f8f8f8f918f97938f97918f96928f96938f949d8f9e8f9e6200106f9f612dbb9062001dc29039339162000d58565b03906000f0958615620010e2576200109f8762001099620010dd9962001093600690565b62000eaa565b620001f2565b9760008080947f5805d9bd5f1e6c3f4d4d42a9bcb6031d92e538ddb55d7301d22c794171f26f339d620010d160405190565b9d8e809e339162000ef8565b0390a1565b62000e5f565b620001b590620010f762000b6b565b62001122565b9060ff9062000c6e565b906200111a6200018b62000c9492151590565b8254620010fd565b620001b590620011366001916003620001fd565b62001107565b620001b590620010e8565b620001b5906200115662000b6b565b620001b590620011366000916003620001fd565b620001b59062001147565b620001b5906200118462000b6b565b620001b590600462000eaa565b620001b59062001175565b620001b590620011ab62000b6b565b620011bf565b620001b59160009162000e8c565b620011d0620001b591600462000726565b90620011b1565b620001b5906200119c565b9062001200620011f462000862845490565b92600052602060002090565b9060005b818110620012125750505090565b9091926200123f620012386001926200123287546001600160a01b031690565b62000841565b9460010190565b92910162001204565b906200018b91620011e2565b90620001b562001272926200126860405190565b9384809262001248565b0383620002b0565b6200018b9062001254565b6200018b60066200127a565b90620001b591620012a162000b6b565b620013c8565b634e487b7160e01b600052601160045260246000fd5b9190600862000c6e91029162000e87600019841b90565b9190620012e96200018b62000c949362000edd565b908354620012bd565b620001b591600091620012d4565b8181106200130c575050565b806200131c6000600193620012f2565b0162001300565b90918281106200133257505050565b620001b592909162001343565b9290565b908101910162001300565b90680100000000000000008111620002d357620001b59160049062001323565b600491620013886200133f6001926200018b86866200134e565b92049160005b8381106200139c5750505050565b6001906020620013ae6200018b865190565b94019381840155016200138e565b90620001b5916200136e565b90620013da620001b5926005620001fd565b620013bc565b90620001b59162001291565b6200018b9081565b6200018b9054620013ec565b6200141b6200018b9162001412600090565b506001620001fd565b620013f4565b6200141b6200018b9162001433600090565b506002620001fd565b156200144457565b60405162461bcd60e51b815260206004820152602f60248201527f496e73756666696369656e742062616c616e636520696e20706f6f6c20746f2060448201527f706179206f7574207265776172647300000000000000000000000000000000006064820152608490fd5b15620014b757565b60405162461bcd60e51b815260206004820152602a60248201527f496e73756666696369656e742062616c616e636520746f20776974686472617760448201527f2066726f6d20706f6f6c000000000000000000000000000000000000000000006064820152608490fd5b919082039182116200153057565b620012a7565b906000199062000c6e565b90620015556200018b62000c949262000edd565b825462001536565b620015816200156c30620001f2565b82903162001579565b9190565b10156200143c565b60019033620015a2620015996200141b8386620001fd565b831115620014af565b600080808085620015b76200109987620001f2565b828215620015f4575bf115620010e257620015db620015ed91620001b594620001fd565b91620015e783620013f4565b62001522565b9062001541565b506108fc620015c0565b90620001b592916200160f62000b6b565b62001702565b90505190620001b58262000284565b90602082820312620001a1576200018b9162001615565b156200164357565b60405162461bcd60e51b815260206004820152603060248201527f496e73756666696369656e742062616c616e636520696e20706f6f6c20746f2060448201527f77697468647261772072657761726473000000000000000000000000000000006064820152608490fd5b80151562000199565b90505190620001b582620016ae565b90602082820312620001a1576200018b91620016b7565b6001600160a01b03918216815291166020820152606081019291620001b59160400152565b90916200170f90620001f2565b6370a08231906200172030620001f2565b91620017366200172f60405190565b9160e01b90565b81526001600160a01b0383166004820152602081602481855afa8015620010e2576020946200177860009262001799948491620017e8575b508211156200163b565b620017a56323b872dd916200178c60405190565b9889978896879560e01b90565b855260048501620016dd565b03925af18015620010e257620017b85750565b620017dd9060203d8111620017e0575b620017d48183620002b0565b810190620016c6565b50565b503d620017c8565b6200180d9150883d811162001814575b620018048183620002b0565b81019062001624565b386200176e565b503d620017f8565b90620001b59291620015fe565b60031115620001a157565b90505190620001b58262001829565b90602082820312620001a1576200018b9162001834565b634e487b7160e01b600052602160045260246000fd5b600311156200187b57565b6200185a565b90620001b58262001870565b156200189557565b60405162461bcd60e51b815260206004820152600d60248201527f496e76616c6964207374617465000000000000000000000000000000000000006044820152606490fd5b15620018e257565b60405162461bcd60e51b81528062000b67600482016020808252818101527f436f6e747269627574696f6e20616d6f756e7420697320746f6f206c6f772021604082015260600190565b6200018b90620007e0565b6200018b90546200192c565b156200194b57565b60405162461bcd60e51b815260206004820152601260248201527f546f6b656e206e6f7420616363657074656400000000000000000000000000006044820152606490fd5b6001600160a01b039091168152606081019392620001b5929091604091620019b9906020830152565b01906200078b565b6001600160a01b039091168152604081019291620001b59160200152565b91620019ef6200109984620001f2565b9163937e09b19062001a0b62001a0460405190565b9260e01b90565b8252602082600481875afa918215620010e25760009262001bd7575b5063c19d93fb9162001a4362001a3c60405190565b9360e01b90565b8352602083600481885afa928315620010e25760009362001b96575b5062001a8d62001a96916200018b60009562001a8662001a7f8862001881565b9162001881565b146200188d565b841015620018da565b62001ab762001ab162001aab836003620001fd565b62001937565b62001943565b634cbc1553913394803b15620001a15762001ae193829162001ad860405190565b95869260e01b90565b825281838162001af7888b8d6004850162001990565b03925af1928315620010e25762001b189362001b62575b5050828462001c0a565b62001b447f0829c5c9dc5d14e41b11cfca0f01f76eba69b648ddcf9f84afba16ba8a76bf1c92620001f2565b9262001b5d62001b5360405190565b92839283620019c1565b0390a2565b8162001b8692903d1062001b8e575b62001b7d8183620002b0565b810190620006fd565b388062001b0e565b503d62001b71565b62001a9691935062001bc662001a8d9160203d811162001bcf575b62001bbd8183620002b0565b81019062001843565b93915062001a5f565b503d62001bb1565b62001bf491925060203d81116200181457620018048183620002b0565b903862001a27565b919082018092116200153057565b9062001c3e62001c56620001b594620015ed9362001c5062001c2d838362001c5f565b620015ed62001c3e896001620001fd565b9162001c4a83620013f4565b62001bfc565b62001c5f565b926002620001fd565b62001c726729a2241af62c000062000edd565b8110158062001da4575b62001d855762001c94674563918244f4000062000edd565b81118062001d68575b62001d495762001cb5678ac7230489e8000062000edd565b81118062001d2b575b62001d0c5762001cdb620015756802b5e3af16b188000062000edd565b1162001cee57506200018b600062000edd565b6200066962001d036200018b926005620001fd565b60039062000620565b506200066962001d226200018b926005620001fd565b60029062000620565b5062001d406802b5e3af16b188000062000edd565b81111562001cbe565b506200066962001d5f6200018b926005620001fd565b60019062000620565b5062001d7c678ac7230489e8000062000edd565b81111562001c9d565b506200066962001d9b6200018b926005620001fd565b60009062000620565b5062001db8674563918244f4000062000edd565b81111562001c7c56fe60806040523462000043576200003162000018620002f5565b9d9c909c9b919b9a929a999399989498979597620006cc565b60405161239c62000a1f823961239c90f35b600080fd5b634e487b7160e01b600052604160045260246000fd5b90601f01601f191681019081106001600160401b038211176200008057604052565b62000048565b906200009d6200009560405190565b92836200005e565b565b6001600160a01b031690565b90565b6001600160a01b0381165b036200004357565b905051906200009d82620000ae565b80620000b9565b905051906200009d82620000d0565b6001600160401b0381116200008057602090601f01601f19160190565b0190565b60005b8381106200011b5750506000910152565b81810151838201526020016200010a565b90929192620001456200013f82620000e6565b62000086565b9381855260208501908284011162000043576200009d9262000107565b9080601f8301121562000043578151620000ab926020016200012c565b916101e0838303126200004357620001988284620000c1565b92620001a88360208301620000c1565b926040620001b982828501620000c1565b93620001c98360608601620000c1565b93620001d98460808301620000c1565b93620001e98160a08401620000d7565b93620001f98260c08501620000d7565b93620002098360e08601620000d7565b93610100810151600180851b0381116200004357846200022b91830162000162565b93610120820151600180861b0381116200004357816200024d91840162000162565b93610140830151600180831b0381116200004357826200026f91850162000162565b93610160840151600180841b0381116200004357836200029191860162000162565b93610180810151600180851b038111620000435784620002b391830162000162565b936101a0820151600180861b038111620000435781620002d591840162000162565b936001806101c0850151921b0381116200004357620000ab920162000162565b6200031862002dbb803803806200030c8162000086565b9283398101906200017f565b909192939495969798999a9b9c9d9e565b620000ab906200009f906001600160a01b031682565b620000ab9062000329565b620000ab906200033f565b906001600160a01b03905b9181191691161790565b906200037e620000ab62000386926200034a565b825462000355565b9055565b906000199062000360565b620000ab620000ab620000ab9290565b90620003b9620000ab620003869262000395565b82546200038a565b9060ff9062000360565b634e487b7160e01b600052602160045260246000fd5b60031115620003ec57565b620003cb565b906200009d82620003e1565b620000ab90620003f2565b906200041d620000ab6200038692620003fe565b8254620003c1565b9061ff009060081b62000360565b9062000446620000ab6200038692151590565b825462000425565b9062ff00009060101b62000360565b9062000470620000ab6200038692151590565b82546200044e565b634e487b7160e01b600052602260045260246000fd5b9060016002830492168015620004b1575b6020831014620004ab57565b62000478565b91607f16916200049f565b9160001960089290920291821b911b62000360565b9190620004e6620000ab620003869362000395565b908354620004bc565b6200009d91600091620004d1565b81811062000509575050565b80620005196000600193620004ef565b01620004fd565b9190601f81116200053057505050565b620005446200009d93600052602060002090565b906020601f84018190048301931062000568575b6020601f909101040190620004fd565b909150819062000558565b906200057d815190565b906001600160401b0382116200008057620005a5826200059e85546200048e565b8562000520565b602090601f8311600114620005e45762000386929160009183620005d8575b5050600019600883021c1916906002021790565b015190503880620005c4565b601f19831691620005fa85600052602060002090565b9260005b8181106200063b5750916002939185600196941062000621575b50505002019055565b01516000196008601f8516021c1916905538808062000618565b91936020600181928787015181550195019201620005fe565b906200009d9162000573565b801515620000b9565b905051906200009d8262000660565b906020828203126200004357620000ab9162000669565b9052565b6200068f9062000395565b6001600160a01b0390911681526040810192916200009d916020019062000693565b6040513d6000823e3d90fd5b819d9a96929e99959e9c98949b9793919c730811029baf786c77f1adba0c0dc29952d012c37b620006fd906200034a565b6200070a9060026200036a565b6200071a62bc614e6003620003a5565b60009e8f926200072c84600f62000409565b6200073984600f62000433565b6200074684600f6200045d565b62000753846017620003a5565b6200075e8d620009ba565b62000769906200034a565b620007769060016200036a565b62000781906200034a565b6200078e9060046200036a565b62000799906200034a565b620007a4916200036a565b620007af906200034a565b99620007bd8b60056200036a565b620007c8906200034a565b9c620007d68e60066200036a565b620007e3906007620003a5565b620007f0906008620003a5565b620007fd906009620003a5565b6200080a90600d62000654565b6200081790600e62000654565b620008228862000395565b6200082f90600b620003a5565b6200083c90601062000654565b6200084990601162000654565b6200085690601262000654565b6200086390601462000654565b6200087090601362000654565b6200087b906200034a565b9063095ea7b3610102946200088f60405190565b936200089b8360e01b90565b85528480620008af8987600484016200069e565b0381885a94602095f19384156200094857620008db620008f79287926020976200094e575b506200034a565b9262000903620008ea60405190565b9889968795869460e01b90565b8452600484016200069e565b03925af1908115620009485750620009185750565b6200093d9060203d811162000940575b6200093481836200005e565b81019062000678565b50565b503d62000928565b620006c0565b6200096890883d811162000940576200093481836200005e565b620008d4565b620009936200099d602093620001039362000987815190565b80835293849260200190565b9586910162000107565b601f01601f191690565b6020808252620000ab929101906200096e565b620009eb620009fb6200009d92620009d160405190565b63104c13eb60e21b602082015292839160248301620009a7565b602082018103825203826200005e565b6000809162000a126a636f6e736f6c652e6c6f6790565b602082519201905afa5056fe60a0604052600436101561001257600080fd5b60003560e01c80630203d0021461023257806302d05d3f1461022d57806303c29d581461022857806307d94e4a146102235780630a7713701461021e57806318aa9f1e1461021957806324274ee914610214578063263a58aa1461020f57806328c30c071461020a57806329dcb0cf1461020557806343ab265f146102005780634c4cea5a146101fb5780634cbc1553146101f65780634e695a37146101f157806354214f69146101ec5780635eb32936146101e757806362d809a6146101e257806380007e83146101dd578063937e09b1146101d8578063992a7dfb146101d3578063a278a485146101ce578063abb5ca09146101c9578063b40141bf146101c4578063b82c86d6146101bf578063b9bb6e30146101ba578063c19d93fb146101b5578063c3e20c9f146101b0578063c59ee1dc146101ab578063ca4b208b146101a6578063d1707551146101a1578063d5cef1331461019c578063d688cf5314610197578063e9d1edde146101925763ff3a9c7e0361023757610e13565b610d1a565b610d02565b610ce7565b610ccc565b610ca5565b610c7e565b610c57565b610c24565b610bab565b610aaa565b610a83565b610a5c565b610a35565b6109f5565b6108c7565b6108a0565b61087b565b61083d565b610804565b6107c6565b6107ad565b610762565b61073b565b610720565b6106f7565b6106b3565b61068c565b610665565b61063e565b610576565b61054f565b6103a5565b610334565b600080fd5b805b0361023757565b905035906102528261023c565b565b906020828203126102375761026891610245565b90565b60005b83811061027e5750506000910152565b818101518382015260200161026e565b6102af6102b86020936102c2936102a3815190565b80835293849260200190565b9586910161026b565b601f01601f191690565b0190565b6001600160a01b031690565b9052565b959391989796949290610100870187810360008901526102f59161028e565b6001600160a01b03909916602087015260408601526060850152608084015260a0830152151560c082015260e001610252916001600160a01b03169052565b346102375761036b61034f61034a366004610254565b6122cc565b9461036298969894919493929360405190565b988998896102d6565b0390f35b600091031261023757565b610268916008021c6001600160a01b031690565b90610268915461037a565b6102686000600461038e565b34610237576103b536600461036f565b61036b6103c0610399565b604051918291826001600160a01b03909116815260200190565b634e487b7160e01b600052600060045260246000fd5b634e487b7160e01b600052602260045260246000fd5b9060016002830492168015610426575b602083101461042157565b6103f0565b91607f1691610416565b8054600093929161044d61044383610406565b8085529360200190565b916001811690811561049f575060011461046657505050565b6104799192939450600052602060002090565b916000925b81841061048b5750500190565b80548484015260209093019260010161047e565b92949550505060ff1916825215156020020190565b9061026891610430565b634e487b7160e01b600052604160045260246000fd5b90601f01601f1916810190811067ffffffffffffffff8211176104f657604052565b6104be565b906102526105159261050c60405190565b938480926104b4565b03836104d4565b9060001061052d57610268906104fb565b6103da565b6102686000600e61051c565b60208082526102689291019061028e565b346102375761055f36600461036f565b61036b61056a610532565b6040519182918261053e565b346102375761058636600461036f565b61036b61059161148e565b6040519182918290815260200190565b6001600160a01b03811661023e565b90503590610252826105a1565b9060208282031261023757610268916105b0565b6102c6610268610268926001600160a01b031690565b610268906105d1565b610268906105e7565b90610603906105f0565b600052602052604060002090565b610268916008021c81565b906102689154610611565b610268906106396015916000926105f9565b61061c565b346102375761036b6105916106543660046105bd565b610627565b6102686000601261051c565b346102375761067536600461036f565b61036b61056a610659565b6102686000600c61061c565b346102375761069c36600461036f565b61036b610591610680565b6102686000600361061c565b34610237576106c336600461036f565b61036b6105916106a7565b80151561023e565b90503590610252826106ce565b9060208282031261023757610268916106d6565b346102375761070f61070a3660046106e3565b610fa4565b604051005b6102686000600861061c565b346102375761073036600461036f565b61036b610591610714565b346102375761036b6105916107513660046105bd565b61149b565b6102686000600a61061c565b346102375761077236600461036f565b61036b610591610756565b90916060828403126102375761026861079684846105b0565b936107a48160208601610245565b936040016105b0565b346102375761070f6107c036600461077d565b91611405565b346102375761070f6107d9366004610254565b611b90565b610268916008021c5b60ff1690565b9061026891546107de565b6102686001600f6107ed565b346102375761081436600461036f565b61036b61081f6107f8565b60405191829182901515815260200190565b6102686000601361051c565b346102375761084d36600461036f565b61036b61056a610831565b919060408382031261023757610268906108728185610245565b936020016105b0565b346102375761070f61088e366004610858565b906121f5565b6102686002600f6107ed565b34610237576108b036600461036f565b61036b61081f610894565b6102686000600761061c565b34610237576108d736600461036f565b61036b6105916108bb565b6102686102686102689290565b90610603906108e2565b6102689081565b61026890546108f9565b610268906107e7565b610268905461090a565b6102689060081c6102c6565b610268905461091d565b61093e9060166108ef565b90610948826104fb565b9161095d60018201546001600160a01b031690565b9161096a60028301610900565b9161097760038201610900565b916102686005610988818501610913565b9301610929565b91969593946109dd610252966109d660a0966109cf6109bd6109e69760c08a01908a820360008c015261028e565b6001600160a01b03909d166020890152565b6040870152565b6060850152565b15156080830152565b01906001600160a01b03169052565b346102375761036b610a10610a0b366004610254565b610933565b92610a2096949692919260405190565b9687968761098f565b6102686000601461051c565b3461023757610a4536600461036f565b61036b61056a610a29565b6102686000601061051c565b3461023757610a6c36600461036f565b61036b61056a610a50565b6102686000601761061c565b3461023757610a9336600461036f565b61036b610591610a77565b6102686000600961061c565b3461023757610aba36600461036f565b61036b610591610a9e565b90610252610ad260405190565b92836104d4565b67ffffffffffffffff81116104f657602090601f01601f19160190565b90826000939282370152565b90929192610b17610b1282610ad9565b610ac5565b938185526020850190828401116102375761025292610af6565b9080601f830112156102375781602061026893359101610b02565b919060a08382031261023757823567ffffffffffffffff81116102375781610b75918501610b31565b92610b838260208301610245565b92610268610b9484604085016105b0565b93610ba281606086016105b0565b93608001610245565b346102375761070f610bbe366004610b4c565b93929092611ace565b6102686000600f6107ed565b634e487b7160e01b600052602160045260246000fd5b60031115610bf357565b610bd3565b9061025282610be9565b61026890610bf8565b6102d290610c02565b6020810192916102529190610c0b565b3461023757610c3436600461036f565b61036b610c3f610bc7565b60405191829182610c14565b6102686000600d61051c565b3461023757610c6736600461036f565b61036b61056a610c4b565b6102686000600b61061c565b3461023757610c8e36600461036f565b61036b610591610c72565b6102686000600261038e565b3461023757610cb536600461036f565b61036b6103c0610c99565b6102686000601161051c565b3461023757610cdc36600461036f565b61036b61056a610cc0565b3461023757610cf736600461036f565b61036b61081f6116f2565b346102375761070f610d15366004610254565b610f47565b346102375761070f610d2d3660046106e3565b611002565b9e9d9c9b999897959391928f9197959361020083019860008401610d5d916001600160a01b03169052565b6001600160a01b031660208301526001600160a01b031660408201526060015260808d015260a08c015260c08b015260e08a01528881036101008a0152610da39161028e565b878103610120890152610db59161028e565b916101408701610dc491610c0b565b610160860152848103610180860152610ddc9161028e565b8381036101a0850152610dee9161028e565b8281036101c0840152610e009161028e565b90808203906101e001526102689161028e565b3461023757610e2336600461036f565b610e58610e2e612208565b9e610e4d9e919e9d929d9c939c9b949b9a959a99969998979860405190565b608052608051610d32565b6080519003608051f35b15610e6957565b60405162461bcd60e51b815260206004820152603660248201527f596f7520646f6e7420686176652061646d696e2061636365737320746f20706560448201527f72666f726d2074686973206f7065726174696f6e2021000000000000000000006064820152608490fd5b61025290610f0c33610f06610ef9610ef46001546001600160a01b031690565b6105f0565b916001600160a01b031690565b14610e62565b610f3c565b90600019905b9181191691161790565b90610f31610268610f38926108e2565b8254610f11565b9055565b610252906003610f21565b61025290610ed4565b61025290610f7033610f06610ef9610ef46001546001600160a01b031690565b610f99565b9061ff009060081b610f17565b90610f92610268610f3892151590565b8254610f75565b61025290600f610f82565b61025290610f50565b61025290610fcd33610f06610ef9610ef46001546001600160a01b031690565b610ff7565b9062ff00009060101b610f17565b90610ff0610268610f3892151590565b8254610fd2565b61025290600f610fe0565b61025290610fad565b6102689060101c6107e7565b610268905461100b565b1561102857565b60405162461bcd60e51b815260206004820152601860248201527f50726f6a656374206d75737420626520766572696669656400000000000000006044820152606490fd5b906102529291611092611080600f611017565b61108c60015b91151590565b14611021565b611109565b1561109e57565b60405162461bcd60e51b815260206004820152603c60248201527f596f7520646f206e6f74206861766520746865206d617374657220726967687460448201527f7320746f20706572666f726d2074686973206f7065726174696f6e21000000006064820152608490fd5b9061025292916111313361112b610ef9610ef46000546001600160a01b031690565b14611097565b611230565b634e487b7160e01b600052601160045260246000fd5b600019811461115b5760010190565b611136565b9190820180921161115b57565b905051906102528261023c565b90602082820312610237576102689161116d565b6001600160a01b039091168152604081019291610252916020906109e6565b6040513d6000823e3d90fd5b1561023757565b90505190610252826106ce565b9060208282031261023757610268916111c0565b6001600160a01b039182168152911660208201526060810192916102529160400152565b0152565b6001600160a01b039091168152606081019392610252929091604091611205906020830152565b9161129e60159161128661126e8661125061124b82886105f9565b610900565b95600096611264611260896108e2565b9190565b146113e4576105f9565b6112808661127b83610900565b611160565b90610f21565b610ef46112978561127b600b610900565b600b610f21565b9063dd62ed3e916112ae306105f0565b6112c16112ba60405190565b9460e01b90565b8452602084806112d5848a6004840161118e565b0381855afa9182156113b2576112f9602093879686916113b7575b508611156111b9565b61131b846323b872dd61132761130e60405190565b9889968795869460e01b90565b84528c600485016111e1565b03925af19081156113b25750611386575b50611343600b610900565b9161137b7f5cdc4ab8d637538ead6cc1904d4160343656c8c82bd266635cfd31ac008fffe09361137260405190565b93849384611209565b0390a1610252611430565b6113a69060203d81116113ab575b61139e81836104d4565b8101906111cd565b611338565b503d611394565b6111ad565b6113d79150853d81116113dd575b6113cf81836104d4565b81019061117a565b386112f0565b503d6113c5565b6114006113f96113f4600c610900565b61114c565b600c610f21565b6105f9565b90610252929161106d565b9060ff90610f17565b90611429610268610f3892610c02565b8254611410565b61143a600b610900565b61144a6112606102686009610900565b106114665761145b6002600f611419565b61025242600a610f21565b426114776112606102686008610900565b111561145b576114896001600f611419565b61145b565b611497306105f0565b3190565b60206114b26114f2926114ac600090565b506105f0565b6370a08231906114db6114c4306105f0565b926114ce60405190565b9586948593849360e01b90565b83526001600160a01b031660048301526024820190565b03915afa9081156113b257600091611508575090565b610268915060203d81116113dd576113cf81836104d4565b1561152757565b60405162461bcd60e51b815260206004820152600d60248201527f496e76616c6964207374617465000000000000000000000000000000000000006044820152606490fd5b1561157357565b60405162461bcd60e51b815260206004820152601560248201527f446561646c696e652068617320706173736564202100000000000000000000006044820152606490fd5b610268906115e360016115dd6115d76115d1600f610913565b92610bf8565b91610bf8565b14611520565b6115fd426115f76112606102686008610900565b1061156c565b611674565b1561160957565b60405162461bcd60e51b815260206004820152602660248201527f596f7520646f6e74206861766520616e7920636f6e747269627574656420616d60448201527f6f756e74202100000000000000000000000000000000000000000000000000006064820152608490fd5b5033601561168561124b83836105f9565b61169d600091611697611260846108e2565b11611602565b808080806116ad610ef4886105f0565b6116ba61124b89896105f9565b908282156116e9575bf1156113b2576116e4926116d96116df926108e2565b926105f9565b610f21565b600190565b506108fc6116c3565b61026860006115b8565b1561170357565b60405162461bcd60e51b815260206004820152603860248201527f596f7520646f6e7420686176652063726561746f722061636365737320746f2060448201527f706572666f726d2074686973206f7065726174696f6e202100000000000000006064820152608490fd5b906102529493929161179833611792610ef9610ef46004546001600160a01b031690565b146116fc565b90610252949392916117b560026115dd6115d76115d1600f610913565b6117c9426115f76112606102686008610900565b611a23565b91906008610f179102916117e3600019841b90565b921b90565b91906117f9610268610f38936108e2565b9083546117ce565b610252916000916117e8565b818110611818575050565b806118266000600193611801565b0161180d565b9190601f811161183b57505050565b61184d61025293600052602060002090565b906020601f84018190048301931061186f575b6020601f90910104019061180d565b9091508190611860565b90611882815190565b9067ffffffffffffffff82116104f6576118a6826118a08554610406565b8561182c565b602090601f83116001146118e157610f389291600091836118d6575b5050600019600883021c1916906002021790565b0151905038806118c2565b601f198316916118f685600052602060002090565b9260005b8181106119345750916002939185600196941061191b575b50505002019055565b01516000196008601f8516021c19169055388080611912565b919360206001819287870151815501950192016118fa565b9061025291611879565b906001600160a01b0390610f17565b90611975610268610f38926105f0565b8254611956565b90611429610268610f3892151590565b9074ffffffffffffffffffffffffffffffffffffffff009060081b610f17565b906119bc610268610f38926105f0565b825461198c565b6102d2906108e2565b6102d2906105f0565b91946109dd60a094989795611a12611a0a611a1c956102529a6119fd60c08a019260008b0152565b88820360208a015261028e565b9a6040870152565b60608501906119c3565b01906119cc565b9291611a4e611a3a610268611ac9949760166108ef565b93611a45868661194c565b60018501611965565b611a5b8560028501610f21565b611a89816005600095611a79611a70886108e2565b60038301610f21565b01611a84868261197c565b6119ac565b611a936017610900565b92807f9883a4e4f8698e4cc93bafb8d0d2376cb8c51dd322cb9fd80d02c691fcdea50396611ac060405190565b968796876119d5565b0390a1565b906102529493929161176e565b15611ae257565b60405162461bcd60e51b815260206004820152601b60248201527f4f6e6c7920636f6e7472696275746f722063616e20766f7465202100000000006044820152606490fd5b15611b2e57565b60405162461bcd60e51b815260206004820152601360248201527f596f7520616c726561647920766f7465642021000000000000000000000000006044820152606490fd5b6001600160a01b0390911681526040810192916102529160200152565b3390611c2d9061124b611c276003611c1b86611c16611bd7610268611bb7888560156105f9565b98611bd060009a611bca6112608d6108e2565b11611adb565b60166108ef565b96611c046004890191611bfe611086611bf8611bf388876105f9565b610913565b92151590565b14611b27565b611c1160019384926105f9565b61197c565b6108e2565b93019261127b84610900565b82610f21565b7fa2925e4595bf873fa82c22a1a89809777347023bf2b502d32710157a5eb8199c91611ac9611c5b60405190565b92839283611b73565b9061025291611c8533611792610ef9610ef46004546001600160a01b031690565b9061025291611c9f60026115dd6115d76115d1600f610913565b611cb3426115f76112606102686008610900565b611eac565b15611cbf57565b60405162461bcd60e51b815260206004820152601960248201527f5265717565737420616c726561647920636f6d706c65746564000000000000006044820152606490fd5b634e487b7160e01b600052601260045260246000fd5b8115611d24570490565b611d04565b15611d3057565b60405162461bcd60e51b815260206004820152603660248201527f4174206c656173742032302520636f6e7472696275746f72206e65656420746f60448201527f20766f746520666f7220746869732072657175657374000000000000000000006064820152608490fd5b15611da257565b60405162461bcd60e51b815260206004820152603960248201527f50726f6a65637420636f6e747261637420646f6573206e6f742068617665206560448201527f6e6f7567682062616c616e636520746f206469736275727365000000000000006064820152608490fd5b8181029291811591840414171561115b57565b6001600160a01b0390911681526060810193926102529290916040916112059060208301906119cc565b92979694611ea390611e9c60c096611e95611e836102529b96611a1c98611e7660e08c019260008d0152565b8a820360208c0152610430565b6001600160a01b03909d166040890152565b6060870152565b6080850152565b151560a0830152565b611eba6102688260166108ef565b90611ec760058301610913565b600090611edd90611ed783611086565b14611cb8565b60038301611eea81610900565b91611f1b611ef8600c610900565b93611f14611260610268600597611f0e896108e2565b90611d1a565b1015611d29565b6002850195611f32611f2c88610900565b916105f0565b6370a08231611f40306105f0565b92611f54611f4d60405190565b9260e01b90565b82526001600160a01b0384166004830152602082602481865afa80156113b257611260611f8991611f90948891611508575090565b1115611d9b565b6323b872dd94870191611fa283610929565b611fab8a610900565b6020611fe489611ff0611fd6611fc6603296611f0e886108e2565b611fd060316108e2565b90611e0d565b604051968794859460e01b90565b84528860048501611e20565b038189885af19182156113b2578b926121d9575b50426120166112606102686003610900565b1161217b5750506001546001600160a01b0316916120338a610900565b6020611fe48961205961204b606495611f0e876108e2565b604051988994859460e01b90565b038189865af19081156113b2578b986120bc6120a189936020986120b196612160575b50611f0e61209b6120956002546001600160a01b031690565b9e610900565b916108e2565b6040519b8c978896879560e01b90565b855260048501611e20565b03925af19384156113b257611ac994612144575b505b61210f6121096121036120fd600180966120ec828861197c565b8b019a01546001600160a01b031690565b99610900565b94610900565b91610929565b927f4b318eefdd7bb107016b6a285ad8d255001224edad6fe9a0dd934ee9f3e911c59761213b60405190565b97889788611e4a565b61215b9060203d81116113ab5761139e81836104d4565b6120d0565b612176908a3d81116113ab5761139e81836104d4565b61207c565b8560209492986121a36120a16120b194611f0e61209b6120956001546001600160a01b031690565b03925af19384156113b257611ac9946121bd575b506120d2565b6121d49060203d81116113ab5761139e81836104d4565b6121b7565b6121f09060203d81116113ab5761139e81836104d4565b612004565b9061025291611c64565b610268906104fb565b6004546001600160a01b03169061221f6007610900565b9061222a6008610900565b916122356009610900565b92612240600a610900565b9361224b600b610900565b94612256600d6121ff565b95612261600e6121ff565b9661226c600f610913565b97612276306105f0565b319861228260106121ff565b9961228d60116121ff565b9a61229860126121ff565b9b6122a360136121ff565b9c6122b66005546001600160a01b031690565b9d6122c96006546001600160a01b031690565b9d565b6102686122e3916122db606090565b5060166108ef565b906122ee600c610900565b809261231b612309600383019361230485610900565b611d1a565b611fd068056bc75e2d631000006108e2565b612324826121ff565b9461233960018401546001600160a01b031690565b94600561235161234b60028701610900565b96610900565b94019061026861236083610913565b9261092956fea264697066735822122035729e29810daef7c27c57b5ab062bfa6964fe41b6e3f9684f86a7015014066364736f6c63430008120033a26469706673582212207be008738151ff6354f10f5e0886162519cb2ad3d2c6061e41a9d11077df502964736f6c63430008120033",
  "linkReferences": {},
  "deployedLinkReferences": {}
}