{
  "_format": "hh-sol-artifact-1",
  "contractName": "Crowdfunding",
  "sourceName": "contracts/Crowdfunding.sol",
  "abi": [
    {
      "anonymous": false,
      "inputs": [
        {
          "indexed": false,
          "internalType": "address",
          "name": "projectAddress",
          "type": "address"
        },
        {
          "indexed": false,
          "internalType": "uint256",
          "name": "contributedAmount",
          "type": "uint256"
        },
        {
          "indexed": true,
          "internalType": "address",
          "name": "contributor",
          "type": "address"
        }
      ],
      "name": "ContributionReceived",
      "type": "event"
    },
    {
      "anonymous": false,
      "inputs": [
        {
          "indexed": true,
          "internalType": "address",
          "name": "previousOwner",
          "type": "address"
        },
        {
          "indexed": true,
          "internalType": "address",
          "name": "newOwner",
          "type": "address"
        }
      ],
      "name": "OwnershipTransferred",
      "type": "event"
    },
    {
      "anonymous": false,
      "inputs": [
        {
          "indexed": false,
          "internalType": "address",
          "name": "projectContractAddress",
          "type": "address"
        },
        {
          "indexed": false,
          "internalType": "address",
          "name": "creator",
          "type": "address"
        },
        {
          "indexed": false,
          "internalType": "uint256",
          "name": "projectDeadline",
          "type": "uint256"
        },
        {
          "indexed": false,
          "internalType": "uint256",
          "name": "goalAmount",
          "type": "uint256"
        },
        {
          "indexed": false,
          "internalType": "uint256",
          "name": "currentAmount",
          "type": "uint256"
        },
        {
          "indexed": false,
          "internalType": "uint256",
          "name": "noOfContributors",
          "type": "uint256"
        },
        {
          "indexed": false,
          "internalType": "string",
          "name": "title",
          "type": "string"
        },
        {
          "indexed": false,
          "internalType": "string",
          "name": "desc",
          "type": "string"
        },
        {
          "indexed": false,
          "internalType": "uint256",
          "name": "currentState",
          "type": "uint256"
        },
        {
          "indexed": false,
          "internalType": "string",
          "name": "websiteUrl",
          "type": "string"
        },
        {
          "indexed": false,
          "internalType": "string",
          "name": "socialUrl",
          "type": "string"
        },
        {
          "indexed": false,
          "internalType": "string",
          "name": "projectCoverUrl",
          "type": "string"
        },
        {
          "indexed": false,
          "internalType": "string",
          "name": "filterTags",
          "type": "string"
        }
      ],
      "name": "ProjectStarted",
      "type": "event"
    },
    {
      "stateMutability": "payable",
      "type": "fallback"
    },
    {
      "inputs": [
        {
          "internalType": "contract IERC20",
          "name": "",
          "type": "address"
        }
      ],
      "name": "acceptedTokens",
      "outputs": [
        {
          "internalType": "bool",
          "name": "",
          "type": "bool"
        }
      ],
      "stateMutability": "view",
      "type": "function"
    },
    {
      "inputs": [
        {
          "internalType": "contract IERC20",
          "name": "tokenAddress",
          "type": "address"
        }
      ],
      "name": "addAcceptedContributionToken",
      "outputs": [],
      "stateMutability": "nonpayable",
      "type": "function"
    },
    {
      "inputs": [
        {
          "internalType": "contract IERC20",
          "name": "tokenAddress",
          "type": "address"
        }
      ],
      "name": "addRewardTokenAddress",
      "outputs": [],
      "stateMutability": "nonpayable",
      "type": "function"
    },
    {
      "inputs": [
        {
          "internalType": "contract IERC20",
          "name": "tokenAddress",
          "type": "address"
        },
        {
          "internalType": "uint256[2][4]",
          "name": "rewardTiers",
          "type": "uint256[2][4]"
        }
      ],
      "name": "addRewardTokenTier",
      "outputs": [],
      "stateMutability": "nonpayable",
      "type": "function"
    },
    {
      "inputs": [],
      "name": "buildPointAddress",
      "outputs": [
        {
          "internalType": "contract IERC20",
          "name": "",
          "type": "address"
        }
      ],
      "stateMutability": "view",
      "type": "function"
    },
    {
      "inputs": [
        {
          "internalType": "address",
          "name": "_projectAddress",
          "type": "address"
        },
        {
          "internalType": "contract IERC20",
          "name": "token",
          "type": "address"
        },
        {
          "internalType": "uint256",
          "name": "amount",
          "type": "uint256"
        }
      ],
      "name": "contribute",
      "outputs": [],
      "stateMutability": "nonpayable",
      "type": "function"
    },
    {
      "inputs": [
        {
          "internalType": "uint256",
          "name": "deadline",
          "type": "uint256"
        },
        {
          "internalType": "uint256",
          "name": "targetContribution",
          "type": "uint256"
        },
        {
          "internalType": "string",
          "name": "projectTitle",
          "type": "string"
        },
        {
          "internalType": "string",
          "name": "projectDesc",
          "type": "string"
        },
        {
          "internalType": "string",
          "name": "websiteUrl",
          "type": "string"
        },
        {
          "internalType": "string",
          "name": "socialUrl",
          "type": "string"
        },
        {
          "internalType": "string",
          "name": "githubUrl",
          "type": "string"
        },
        {
          "internalType": "string",
          "name": "projectCoverUrl",
          "type": "string"
        },
        {
          "internalType": "string",
          "name": "filterTags",
          "type": "string"
        },
        {
          "internalType": "address",
          "name": "usdt",
          "type": "address"
        },
        {
          "internalType": "address",
          "name": "usdc",
          "type": "address"
        }
      ],
      "name": "createProject",
      "outputs": [],
      "stateMutability": "nonpayable",
      "type": "function"
    },
    {
      "inputs": [],
      "name": "emergencyWithdrawBNB",
      "outputs": [],
      "stateMutability": "nonpayable",
      "type": "function"
    },
    {
      "inputs": [
        {
          "internalType": "contract IERC20",
          "name": "_tokenAddress",
          "type": "address"
        }
      ],
      "name": "emergencyWithdrawERC20",
      "outputs": [],
      "stateMutability": "nonpayable",
      "type": "function"
    },
    {
      "inputs": [],
      "name": "getContributedProject",
      "outputs": [
        {
          "components": [
            {
              "internalType": "address",
              "name": "projectAddress",
              "type": "address"
            },
            {
              "internalType": "string",
              "name": "title",
              "type": "string"
            },
            {
              "internalType": "string",
              "name": "descriptions",
              "type": "string"
            },
            {
              "internalType": "uint256",
              "name": "contributedAmount",
              "type": "uint256"
            }
          ],
          "internalType": "struct Crowdfunding.ProjectArray[]",
          "name": "",
          "type": "tuple[]"
        }
      ],
      "stateMutability": "view",
      "type": "function"
    },
    {
      "inputs": [],
      "name": "owner",
      "outputs": [
        {
          "internalType": "address",
          "name": "",
          "type": "address"
        }
      ],
      "stateMutability": "view",
      "type": "function"
    },
    {
      "inputs": [
        {
          "internalType": "contract IERC20",
          "name": "tokenAddress",
          "type": "address"
        }
      ],
      "name": "removeAcceptedContributionToken",
      "outputs": [],
      "stateMutability": "nonpayable",
      "type": "function"
    },
    {
      "inputs": [
        {
          "internalType": "uint256",
          "name": "rewardTokenAddressesIndex",
          "type": "uint256"
        }
      ],
      "name": "removeRewardTokenAddress",
      "outputs": [],
      "stateMutability": "nonpayable",
      "type": "function"
    },
    {
      "inputs": [],
      "name": "renounceOwnership",
      "outputs": [],
      "stateMutability": "nonpayable",
      "type": "function"
    },
    {
      "inputs": [],
      "name": "returnAllProjects",
      "outputs": [
        {
          "internalType": "contract Project[]",
          "name": "",
          "type": "address[]"
        }
      ],
      "stateMutability": "view",
      "type": "function"
    },
    {
      "inputs": [
        {
          "internalType": "uint256",
          "name": "",
          "type": "uint256"
        }
      ],
      "name": "rewardTokenAddresses",
      "outputs": [
        {
          "internalType": "contract IERC20",
          "name": "",
          "type": "address"
        }
      ],
      "stateMutability": "view",
      "type": "function"
    },
    {
      "inputs": [
        {
          "internalType": "contract IERC20",
          "name": "",
          "type": "address"
        },
        {
          "internalType": "uint256",
          "name": "",
          "type": "uint256"
        },
        {
          "internalType": "uint256",
          "name": "",
          "type": "uint256"
        }
      ],
      "name": "rewardTokensTiers",
      "outputs": [
        {
          "internalType": "uint256",
          "name": "",
          "type": "uint256"
        }
      ],
      "stateMutability": "view",
      "type": "function"
    },
    {
      "inputs": [
        {
          "internalType": "address",
          "name": "",
          "type": "address"
        },
        {
          "internalType": "uint256",
          "name": "",
          "type": "uint256"
        }
      ],
      "name": "rewards",
      "outputs": [
        {
          "internalType": "uint256",
          "name": "",
          "type": "uint256"
        }
      ],
      "stateMutability": "view",
      "type": "function"
    },
    {
      "inputs": [
        {
          "internalType": "contract IERC20",
          "name": "tokenAddress",
          "type": "address"
        }
      ],
      "name": "setBuildPointAddress",
      "outputs": [],
      "stateMutability": "nonpayable",
      "type": "function"
    },
    {
      "inputs": [
        {
          "internalType": "address",
          "name": "contributor",
          "type": "address"
        }
      ],
      "name": "showRewardUser",
      "outputs": [
        {
          "internalType": "uint256[2]",
          "name": "",
          "type": "uint256[2]"
        }
      ],
      "stateMutability": "view",
      "type": "function"
    },
    {
      "inputs": [
        {
          "internalType": "address",
          "name": "contributor",
          "type": "address"
        }
      ],
      "name": "showTotalRewardUser",
      "outputs": [
        {
          "internalType": "uint256[2]",
          "name": "",
          "type": "uint256[2]"
        }
      ],
      "stateMutability": "view",
      "type": "function"
    },
    {
      "inputs": [
        {
          "internalType": "address",
          "name": "",
          "type": "address"
        },
        {
          "internalType": "uint256",
          "name": "",
          "type": "uint256"
        }
      ],
      "name": "totalRewards",
      "outputs": [
        {
          "internalType": "uint256",
          "name": "",
          "type": "uint256"
        }
      ],
      "stateMutability": "view",
      "type": "function"
    },
    {
      "inputs": [
        {
          "internalType": "address",
          "name": "newOwner",
          "type": "address"
        }
      ],
      "name": "transferOwnership",
      "outputs": [],
      "stateMutability": "nonpayable",
      "type": "function"
    },
    {
      "inputs": [],
      "name": "withdrawUserRewards",
      "outputs": [],
      "stateMutability": "nonpayable",
      "type": "function"
    }
  ],
  "bytecode": "0x6080604052346200002657620000146200002b565b60405161565a62000126823961565a90f35b600080fd5b6200003562000037565b565b6200003533620000c3565b62000054905b6001600160a01b031690565b90565b62000054905462000042565b620000549062000048906001600160a01b031682565b620000549062000063565b620000549062000079565b90620000a362000054620000bf9262000084565b82546001600160a01b0319166001600160a01b03919091161790565b9055565b620000cf600062000057565b90620000dd8160006200008f565b620001146200010d7f8be0079c531659141344cd1fd0a4f28419497f9722a3daafe3b4186f6b6457e09362000084565b9162000084565b916200011f60405190565b600090a356fe608060405260043610156200001057005b60003560e01c80630e345a1614620001c157806340c442de14620001bb57806343746a3714620001b557806357568eca14620001af578063606266f514620001a9578063715018a614620001a3578063773bbb17146200019d5780637b2d9b2c146200019757806382dc4a05146200019157806385b6e28e146200018b57806389f7d66414620001855780638d472709146200017f5780638da5cb5b14620001795780638e4182df1462000173578063945bbdcd146200016d5780639dd2764a1462000167578063a3df77791462000161578063ac0946d9146200015b578063b661e0b21462000155578063b933ceac146200014f578063bb7252d81462000149578063df4f28ff1462000143578063f26b854f146200013d5763f2fde38b146200013757005b62000db8565b62000d9b565b62000d7a565b62000d4b565b62000d29565b62000cfc565b62000cdf565b62000cc2565b62000ca5565b62000c77565b62000be1565b620009fc565b620009cc565b6200097d565b620008e1565b62000831565b620007cb565b6200071b565b620005a7565b6200057e565b6200054c565b62000402565b620003ce565b62000390565b6001600160a01b031690565b90565b620001d390620001c7565b620001ec81620001d6565b03620001f457565b600080fd5b905035906200020882620001e1565b565b634e487b7160e01b600052604160045260246000fd5b90601f01601f191681019081106001600160401b038211176200024257604052565b6200020a565b90620002086200025760405190565b928362000220565b6001600160401b038111620002425760200290565b80620001ec565b90503590620002088262000274565b90929192620002a36200029d826200025f565b62000248565b936020859202830192818411620001f457915b838310620002c45750505050565b60208091620002d484866200027b565b815201920191620002b6565b9080601f83011215620001f457620001d3916002906200028a565b909291926200030e6200029d826200025f565b936040859202830192818411620001f457915b8383106200032f5750505050565b6020604091620003408486620002e0565b81520192019162000321565b9080601f83011215620001f457620001d391600490620002fb565b919061012083820312620001f457620001d390620003868185620001f9565b936020016200034c565b34620001f457620003ae620003a736600462000367565b9062001686565b604051005b0390f35b90602082820312620001f457620001d391620001f9565b34620001f457620003ae620003e5366004620003b7565b62001f70565b90602082820312620001f457620001d3916200027b565b34620001f457620003ae62000419366004620003eb565b62001471565b9091606082840312620001f457620001d36200043c8484620001f9565b936200044c81602086016200027b565b936040016200027b565b620001d390620001c7906001600160a01b031682565b620001d39062000456565b620001d3906200046c565b906200048e9062000477565b600052602052604060002090565b634e487b7160e01b600052603260045260246000fd5b6004821015620004c9576002905b91020190600090565b6200049c565b6002821015620004c957600190620004c0565b620001d3916008021c81565b90620001d39154620004e2565b6200050b60059160009262000482565b906004831015620005455750906200052391620004b2565b506002821015620001f457620001d3916200053e91620004cf565b90620004ee565b80fd5b9052565b34620001f457620003b36200056e620005673660046200041f565b91620004fb565b6040519182918290815260200190565b34620001f457620003ae62000595366004620003b7565b6200142b565b6000910312620001f457565b34620001f457620005ba3660046200059b565b620003ae62000e32565b6200054890620001c7565b60005b838110620005e35750506000910152565b8181015183820152602001620005d2565b62000619620006236020936200062d936200060d815190565b80835293849260200190565b95869101620005cf565b601f01601f191690565b0190565b90620001d390606080620006806200066d608085016200065a60008901516000880190620005c4565b60208801518682036020880152620005f4565b60408701518582036040870152620005f4565b940151910152565b90620001d39162000631565b90620006ac620006a2835190565b8083529160200190565b9081620006bf6020830284019460200190565b926000915b838310620006d457505050505090565b90919293946020620006fa620006f38385600195038752895162000688565b9760200190565b9301930191939290620006c4565b6020808252620001d39291019062000694565b34620001f4576200072e3660046200059b565b620003b36200073c6200192a565b6040519182918262000708565b8054821015620004c957620004c0600191600052602060002090565b620001d3916008021c620001c7565b90620001d3915462000765565b600460006200078e825490565b831015620005455750620001d391620007a79162000749565b9062000774565b620005489062000477565b602081019291620002089190620007ae565b34620001f457620003b3620007ec620007e6366004620003eb565b62000781565b60405191829182620007b9565b620001d3916008021c5b60ff1690565b90620001d39154620007f9565b620001d3906200082b60039160009262000482565b62000809565b34620001f457620003b3620008526200084c366004620003b7565b62000816565b60405191829182901515815260200190565b906200062d81602093620007ae565b90620008966200088f62000885845190565b8084529260200190565b9260200190565b9060005b818110620008a85750505090565b909192620008c5620008be600192865162000864565b9460200190565b9291016200089a565b6020808252620001d39291019062000873565b34620001f457620008f43660046200059b565b620003b36200090262001518565b60405191829182620008ce565b620001ec81620001c7565b9050359062000208826200090f565b9190604083820312620001f457620001d3906200094781856200091a565b936020016200027b565b6200096160029160009262000482565b906002831015620005455750620001d3916200053e91620004cf565b34620001f457620003b36200056e6200099836600462000929565b9062000951565b9091606082840312620001f457620001d3620009bc84846200091a565b936200044c8160208601620001f9565b34620001f457620003ae620009e33660046200099f565b91620020a8565b602081019291620002089190620005c4565b34620001f45762000a0f3660046200059b565b620003b362000a1d62000de1565b60405191829182620009ea565b6001600160401b0381116200024257602090601f01601f19160190565b90826000939282370152565b9092919262000a666200029d8262000a2a565b93818552602085019082840111620001f457620002089262000a47565b9080601f83011215620001f457816020620001d39335910162000a53565b919061016083820312620001f45762000abb81846200027b565b9262000acb82602083016200027b565b9260408201356001600160401b038111620001f4578362000aee91840162000a83565b9260608301356001600160401b038111620001f4578162000b1191850162000a83565b9260808101356001600160401b038111620001f4578262000b3491830162000a83565b9260a08201356001600160401b038111620001f4578362000b5791840162000a83565b9260c08301356001600160401b038111620001f4578162000b7a91850162000a83565b9260e08101356001600160401b038111620001f4578262000b9d91830162000a83565b926101008201356001600160401b038111620001f45762000bc584620001d392850162000a83565b9362000bd68161012086016200091a565b93610140016200091a565b34620001f457620003ae62000bf836600462000aa1565b9998909897919796929695939562001270565b90602082820312620001f457620001d3916200091a565b62000c3462000c3060029390565b9190565b6000915b83831062000c465750505050565b62000c5b6200088f6001928451815260200190565b9201919062000c38565b60408101929162000208919062000c22565b34620001f457620003b362000c9862000c9236600462000c0b565b62001791565b6040519182918262000c65565b34620001f457620003ae62000cbc366004620003b7565b62001404565b34620001f457620003ae62000cd9366004620003b7565b620013d6565b34620001f457620003ae62000cf6366004620003b7565b62001377565b34620001f45762000d0f3660046200059b565b620003ae62001b99565b6200096160019160009262000482565b34620001f457620003b36200056e62000d4436600462000929565b9062000d19565b34620001f457620003b362000c9862000d6636600462000c0b565b6200176f565b620001d36000600662000774565b34620001f45762000d8d3660046200059b565b620003b3620007ec62000d6c565b34620001f45762000dae3660046200059b565b620003ae62001ed1565b34620001f457620003ae62000dcf36600462000c0b565b62000f60565b620001d39054620001d6565b620001d3600062000dd5565b62000df762000e92565b6200020862000e1c565b620001c7620001d3620001d39290565b620001d39062000e01565b6200020862000e2c600062000e11565b62000fa0565b6200020862000ded565b1562000e4457565b60405162461bcd60e51b81528062000e8e600482016020808252818101527f4f776e61626c653a2063616c6c6572206973206e6f7420746865206f776e6572604082015260600190565b0390fd5b6200020862000ea062000de1565b62000ebc62000eb533620001c7565b620001c7565b91620001c7565b1462000e3c565b620002089062000ed262000e92565b62000f34565b1562000ee057565b60405162461bcd60e51b815260206004820152602660248201527f4f776e61626c653a206e6577206f776e657220697320746865207a65726f206160448201526564647265737360d01b6064820152608490fd5b620002089062000e2c62000f4d62000eaf600062000e11565b62000f5883620001c7565b141562000ed8565b620002089062000ec3565b906001600160a01b03905b9181191691161790565b9062000f94620001d362000f9c9262000477565b825462000f6b565b9055565b62000fac600062000dd5565b9062000fba81600062000f80565b62000ff162000fea7f8be0079c531659141344cd1fd0a4f28419497f9722a3daafe3b4186f6b6457e09362000477565b9162000477565b9162000ffc60405190565b600090a3565b9c9b9a999897969492909593918d6101c0810197600082016200102591620005c4565b6020016200103391620005c4565b60408d016200104291620005c4565b60608c016200105191620005c4565b60808b016200106091620005c4565b60a08a015260c089015287810360e08901526200107d91620005f4565b8681036101008801526200109191620005f4565b858103610120870152620010a591620005f4565b848103610140860152620010b991620005f4565b838103610160850152620010cd91620005f4565b828103610180840152620010e191620005f4565b90808203906101a00152620001d391620005f4565b6040513d6000823e3d90fd5b916001600160a01b0360089290920291821b911b62000f76565b919062001131620001d362000f9c9362000477565b90835462001102565b80549190600160401b83101562000242578262001161916001620002089501815562000749565b906200111c565b620001d3620001d3620001d39290565b620005489062001168565b9b9894620012509891620001d39e9c988e62001207620012409a620012609f996200121596620011f1620011fc92620011ea620012319d620011e3620012249e620011d86101a08c019d60008d0190620005c4565b60208b0190620005c4565b6040890152565b6060870152565b608085019062001178565b60a083019062001178565b60c0818403910152620005f4565b8c810360e08e015290620005f4565b926101008b019062001178565b8882036101208a0152620005f4565b90868203610140880152620005f4565b90848203610160860152620005f4565b91610180818403910152620005f4565b9998979590919796949392966200128662000de1565b90339a620012943062000477565b916200129f60405190565b946131218601936001600160401b0385118786101762000242578f8f8f8f918f97938f97948f96958f968f948f9e8f9e620012e49f6131219062002504903962001002565b03906000f0958615620013555762001314876200130e620013509962001308600790565b6200113a565b62000477565b9760008080947f0135f4d92213cf889e4f1ef4d560f39fdbd0b0fb274d3e0104201939d6bc2be09d6200134660405190565b9d8e9d8e62001183565b0390a1565b620010f6565b62000208906200136a62000e92565b6200020890600662000f80565b62000208906200135b565b62000208906200139162000e92565b620013bc565b9060ff9062000f76565b90620013b4620001d362000f9c92151590565b825462001397565b6200020890620013d0600191600362000482565b620013a1565b620002089062001382565b6200020890620013f062000e92565b6200020890620013d0600091600362000482565b6200020890620013e1565b62000208906200141e62000e92565b620002089060046200113a565b62000208906200140f565b62000208906200144562000e92565b62001459565b62000208916000916200111c565b6200146a6200020891600462000749565b906200144b565b620002089062001436565b906200149a6200148e62000885845490565b92600052602060002090565b9060005b818110620014ac5750505090565b909192620014d2620014cb600192620014c58762000dd5565b62000864565b9460010190565b9291016200149e565b90620001d3916200147c565b90620002086200150592620014fb60405190565b93848092620014db565b038362000220565b620001d390620014e7565b620001d360076200150d565b9062000208916200153462000e92565b620015b5565b634e487b7160e01b600052601160045260246000fd5b6000198114620015605760010190565b6200153a565b9060045b811015620004c9576020020190565b9060026200156a565b9160001960089290920291821b911b62000f76565b9190620015ac620001d362000f9c9362001168565b90835462001582565b90600090620015c48262001168565b805b620015d2600462001168565b8110156200167f5780620016738662001634620016086200160487620015fd62001679988b62001566565b5162001579565b5190565b6200162d896200162687620016206005978862000482565b620004b2565b50620004cf565b9062001597565b6200162d62001644848862001566565b516200162685620016208c6200166c62001604600196620016658862001168565b9062001579565b9662000482565b62001550565b620015c6565b5050505050565b90620002089162001524565b6200029d620001d3916200025f565b369037565b9062000208620016c1620016ba8462001692565b936200025f565b83620016a1565b620001d36002620016a6565b620001d39081565b620001d39054620016d4565b620016f662000c3060029390565b6000915b838310620017085750505050565b6200172d620017266001926200171e85620016dc565b815260200190565b9260010190565b92019190620016fa565b906200062d81604093620016e8565b906200020862001505926200175a60405190565b9384809262001737565b620001d39062001746565b6200178b620001d39162001782620016c8565b50600162000482565b62001764565b6200178b620001d391620017a4620016c8565b50600262000482565b6001600160401b038111620002425760208091020190565b90620017d56200029d83620017ad565b918252565b620001d3608062000248565b620017f0620017da565b60008082526060602083018190526040830181905282015290565b620001d3620017e6565b60005b8281106200182557505050565b602090620018326200180b565b818401520162001818565b9062000208620018586200185184620017c5565b93620017ad565b601f19016020840162001815565b90505190620002088262000274565b90602082820312620001f457620001d39162001866565b909291926200189f6200029d8262000a2a565b93818552602085019082840111620001f4576200020892620005cf565b9080601f83011215620001f4578151620001d3926020016200188c565b90602082820312620001f45781516001600160401b038111620001f457620001d39201620018bc565b906200054890620001c7565b9062001918825190565b811015620004c9576020809102010190565b60076200193f62001939825490565b6200183d565b9060006200194d8162001168565b90815b6200195d620001d3855490565b81101562001b8457620019ae60206200197f6200130e620007a7858962000749565b630a77137090620019a233926200199560405190565b9586948593849360e01b90565b835260048301620009ea565b03915afa9081156200135557839162001b4f575b50620019ce8362001168565b8111620019e8575b50620019e29062001550565b62001950565b819362001a026200130e620007a762001a30958962000749565b8462001a176200130e620007a7898b62000749565b63c3e20c9f9062001a2760405190565b96879260e01b90565b825260049082905afa8015620013555762001a7c94869162001b31575b508562001a636200130e620007a78a8c62000749565b6303c29d589062001a7360405190565b97889260e01b90565b825260049082905afa938415620013555762001ad462001afb9562001adb93620019e2988a9262001b03575b5062001acd9062001ac662001abc620017da565b978c890162001902565b6020870152565b6040850152565b6060830152565b62001ae782896200190e565b5262001af481886200190e565b5062001550565b9290620019d6565b62001acd91925062001b29903d808d833e62001b20818362000220565b810190620018d9565b919062001aa8565b62001b4891503d8088833e62001b20818362000220565b3862001a4d565b62001b75915060203d811162001b7c575b62001b6c818362000220565b81019062001875565b38620019c2565b503d62001b60565b5050505090565b919082039182116200156057565b620002083362001c0662001bf1600162001c0d62001bb8858362000482565b62001c0662001bf162001bd26200053e60008095620004cf565b9262001bdf848a62001cab565b62001beb898762000482565b620004cf565b91909262001c008385620004ee565b62001b8b565b9162001597565b62001beb62001c266200053e8362001beb888262000482565b9462001c3f868262001c39600662000dd5565b62001daf565b8262000482565b1562001c4e57565b60405162461bcd60e51b815260206004820152602f60248201527f496e73756666696369656e742062616c616e636520696e20706f6f6c20746f2060448201526e706179206f7574207265776172647360881b6064820152608490fd5b600080809362001cd46200130e83956200130e62001cc93062000477565b859031101562001c46565b82821562001ce6575bf1156200135557565b506108fc62001cdd565b1562001cf857565b60405162461bcd60e51b815260206004820152603860248201527f496e73756666696369656e7420746f6b656e2062616c616e636520696e20706f60448201527737b6103a37903830bc9037baba103932bbb0b932399034b760411b6064820152608490fd5b801515620001ec565b90505190620002088262001d5e565b90602082820312620001f457620001d39162001d67565b9160206200020892949362001dab60408201966000830190620005c4565b0152565b62001dba9062000477565b906370a08231916020620019a262001dd23062000477565b9462001dec62001de160405190565b968793849360e01b90565b0381845afa928315620013555760209362001e149160009162001e89575b5085111562001cf0565b62001e3a600063a9059cbb62001e4662001e2d60405190565b9788968795869460e01b90565b84526004840162001d8d565b03925af18015620013555762001e595750565b62001e7e9060203d811162001e81575b62001e75818362000220565b81019062001d76565b50565b503d62001e69565b62001ea49150853d811162001b7c5762001b6c818362000220565b3862001e0a565b62001eb562000e92565b62000208620002083362001ec93062000477565b319062001cab565b6200020862001eab565b620002089062001eea62000e92565b62001f2a9033602062001efd8362000477565b6370a0823190620019a262001f123062000477565b9262001f1d60405190565b9788948593849360e01b90565b03915afa9182156200135557620002089360009362001f4b575b5062001daf565b62001f6891935060203d811162001b7c5762001b6c818362000220565b913862001f44565b620002089062001edb565b60031115620001f457565b90505190620002088262001f7b565b90602082820312620001f457620001d39162001f86565b634e487b7160e01b600052602160045260246000fd5b6003111562001fcd57565b62001fac565b90620002088262001fc2565b1562001fe757565b60405162461bcd60e51b815260206004820152600d60248201526c496e76616c696420737461746560981b6044820152606490fd5b620001d39062000803565b620001d390546200201c565b156200203b57565b60405162461bcd60e51b8152602060048201526012602482015271151bdad95b881b9bdd081858d8d95c1d195960721b6044820152606490fd5b604090620020a06200020894969593966200209960608401986000850190620005c4565b6020830152565b0190620007ae565b91620020b86200130e8462000477565b9163c19d93fb90620020d4620020cd60405190565b9260e01b90565b8252602082600481875afa918215620013555760009262002215575b50620021156000926200210e620021078562001fd3565b9162001fd3565b1462001fdf565b62002136620021306200212a83600362000482565b62002027565b62002033565b634cbc1553913394803b15620001f457620021609382916200215760405190565b95869260e01b90565b825281838162002176888b8d6004850162002075565b03925af192831562001355576200219793620021e1575b505082846200225a565b620021c37f0829c5c9dc5d14e41b11cfca0f01f76eba69b648ddcf9f84afba16ba8a76bf1c9262000477565b92620021dc620021d260405190565b9283928362001d8d565b0390a2565b816200220592903d106200220d575b620021fc818362000220565b8101906200059b565b38806200218d565b503d620021f0565b6200223c91925060203d811162002244575b62002233818362000220565b81019062001f95565b9038620020f0565b503d62002227565b919082018092116200156057565b620022fe62001c069162002281620002089562001beb956200227a600090565b5062002313565b9490916001926200230d62002297838662000482565b91620022c1620022aa60008095620004cf565b62001c0684620022bb8385620004ee565b6200224c565b620022e7620022d68762001beb878262000482565b62001c068c620022bb8385620004ee565b62001c06620022fe60029462001beb878762000482565b919092620022bb8385620004ee565b62000482565b620023266729a2241af62c000062001168565b81101580620024e6575b620024ad5762002348674563918244f4000062001168565b81118062002490575b6200244f5762002369678ac7230489e8000062001168565b81118062002431575b620023f9576200238f62000c306802b5e3af16b188000062001168565b11620023a75750620023a2600062001168565b908190565b90620001d36200053e620023ef60059462001620620023c7828862000482565b91620023e86200053e620023de60038096620004b2565b50600090620004cf565b9762000482565b50600190620004cf565b5090620001d36200053e620023ef600594620016206200241a828862000482565b91620023e86200053e620023de60028096620004b2565b50620024466802b5e3af16b188000062001168565b81111562002372565b5090620001d36200053e620023de620016266005956200162062002474828962000482565b91620024896200053e600196878096620004b2565b9862000482565b50620024a4678ac7230489e8000062001168565b81111562002351565b5090620001d36200053e620023ef6200162662001620600596620023e86200053e620024da838b62000482565b600095868092620004b2565b50620024fa674563918244f4000062001168565b8111156200233056fe60806040523462000043576200003162000018620002e7565b9c9b909b9a919a99929998939897949796959662000726565b60405161249662000c8b823961249690f35b600080fd5b634e487b7160e01b600052604160045260246000fd5b90601f01601f191681019081106001600160401b038211176200008057604052565b62000048565b906200009d6200009560405190565b92836200005e565b565b6001600160a01b031690565b90565b620000b9816200009f565b036200004357565b905051906200009d82620000ae565b80620000b9565b905051906200009d82620000d0565b6001600160401b0381116200008057602090601f01601f19160190565b0190565b60005b8381106200011b5750506000910152565b81810151838201526020016200010a565b90929192620001456200013f82620000e6565b62000086565b9381855260208501908284011162000043576200009d9262000107565b9080601f8301121562000043578151620000ab926020016200012c565b9190916101c08184031262000043576200019a8382620000c1565b92620001aa8160208401620000c1565b92604090620001bc83838601620000c1565b93620001cc8460608301620000c1565b93620001dc8160808401620000c1565b93620001ec8260a08501620000d7565b93620001fc8360c08601620000d7565b9360e0810151600180851b0381116200004357846200021d91830162000162565b93610100820151600180861b0381116200004357816200023f91840162000162565b93610120830151600180831b0381116200004357826200026191850162000162565b93610140840151600180841b0381116200004357836200028391860162000162565b93610160810151600180851b038111620000435784620002a591830162000162565b93610180820151600180861b038111620000435781620002c791840162000162565b936001806101a0850151921b0381116200004357620000ab920162000162565b6200030a6200312180380380620002fe8162000086565b9283398101906200017f565b909192939495969798999a9b9c9d565b620000ab906200009f906001600160a01b031682565b620000ab906200031a565b620000ab9062000330565b906001600160a01b03905b9181191691161790565b906200036f620000ab62000377926200033b565b825462000346565b9055565b906000199062000351565b620000ab620000ab620000ab9290565b90620003aa620000ab620003779262000386565b82546200037b565b9060ff9062000351565b634e487b7160e01b600052602160045260246000fd5b60031115620003dd57565b620003bc565b906200009d82620003d2565b620000ab90620003e3565b906200040e620000ab6200037792620003ef565b8254620003b2565b9061ff009060081b62000351565b9062000437620000ab6200037792151590565b825462000416565b9062ff00009060101b62000351565b9062000461620000ab6200037792151590565b82546200043f565b634e487b7160e01b600052602260045260246000fd5b9060016002830492168015620004a2575b60208310146200049c57565b62000469565b91607f169162000490565b9160001960089290920291821b911b62000351565b9190620004d7620000ab620003779362000386565b908354620004ad565b6200009d91600091620004c2565b818110620004fa575050565b806200050a6000600193620004e0565b01620004ee565b9190601f81116200052157505050565b620005356200009d93600052602060002090565b906020601f84018190048301931062000559575b6020601f909101040190620004ee565b909150819062000549565b9060001960089091021c191690565b816200057f9162000564565b906002021790565b9062000591815190565b906001600160401b0382116200008057620005b982620005b285546200047f565b8562000511565b602090601f8311600114620005ec5762000377929160009183620005e0575b505062000573565b015190503880620005d8565b601f198316916200060285600052602060002090565b9260005b818110620006465750916002939185600196941062000629575b50505002019055565b6200063b910151601f84169062000564565b905538808062000620565b9193602060018192878701518155019501920162000606565b906200009d9162000587565b801515620000b9565b905051906200009d826200066b565b906020828203126200004357620000ab9162000674565b620006a5906200009f565b9052565b620006a59062000386565b9160206200009d929493620006d2604082019660008301906200069a565b0190620006a9565b6040513d6000823e3d90fd5b620000ab906200009f565b620000ab9054620006e6565b620006a5906200033b565b9160206200009d929493620006d260408201966000830190620006fd565b9a959099949c96919b97929893987375bf6c63f2941ed31a908b976b5e39954561517b62000754906200033b565b620007619060026200035b565b6200077162bc614e600362000396565b6000809d6200078282600e620003fa565b6200078f82600e62000424565b6200079c82600e6200044e565b620007a982601662000396565b8d620007b58b62000c26565b620007c0906200033b565b620007cd9060016200035b565b620007d88d6200033b565b620007e59060046200035b565b620007f0906200033b565b620007fb916200035b565b62000806906200033b565b98620008148a60056200035b565b6200081f906200033b565b9c6200082d8e60066200035b565b6200083a90600762000396565b6200084790600862000396565b6200085490600c6200065f565b6200086190600d6200065f565b6200086c8962000386565b6200087990600a62000396565b6200088690600f6200065f565b620008939060106200065f565b620008a09060116200065f565b620008ad9060136200065f565b620008ba9060126200065f565b620008c5906200033b565b9063095ea7b392600160811b95620008dc60405190565b90620008e88660e01b90565b8252848280620008fd8b8860048401620006b4565b03818a5a94602095f191821562000af057620009296020928a92620009509562000bba575b506200033b565b946200093460405190565b9384928392620009448b60e01b90565b845260048401620006b4565b038189875af1801562000af05762000b99575b50604051620009728560e01b90565b815260208180620009888a8660048401620006b4565b038189885af1801562000af057620009b992602092899262000b79575b506040519384928392620009448a60e01b90565b038188865af1801562000af05762000b58575b50620009ff602086620009e06002620006f1565b6040519384928392620009f38a60e01b90565b84526004840162000708565b038188875af1801562000af05762000b37575b5062000a26602086620009e06002620006f1565b038188865af1801562000af05762000b16575b5062000a45306200033b565b91602062000a5260405190565b809262000a5f8760e01b90565b825281888162000a748c8a60048401620006b4565b03925af1801562000af0576020946200094492879262000af6575b5062000aab62000a9e60405190565b9889968795869460e01b90565b03925af190811562000af0575062000ac05750565b62000ae59060203d811162000ae8575b62000adc81836200005e565b81019062000683565b50565b503d62000ad0565b620006da565b62000b1090873d811162000ae85762000adc81836200005e565b62000a8f565b62000b319060203d811162000ae85762000adc81836200005e565b62000a39565b62000b529060203d811162000ae85762000adc81836200005e565b62000a12565b62000b739060203d811162000ae85762000adc81836200005e565b620009cc565b62000b9390843d811162000ae85762000adc81836200005e565b620009a5565b62000bb49060203d811162000ae85762000adc81836200005e565b62000963565b62000bd490853d811162000ae85762000adc81836200005e565b62000922565b62000bff62000c09602093620001039362000bf3815190565b80835293849260200190565b9586910162000107565b601f01601f191690565b6020808252620000ab9291019062000bda565b62000c5762000c676200009d9262000c3d60405190565b63104c13eb60e21b60208201529283916024830162000c13565b602082018103825203826200005e565b6000809162000c7e6a636f6e736f6c652e6c6f6790565b602082519201905afa5056fe60a0604052600436101561001257600080fd5b60003560e01c80630203d0021461022257806302d05d3f1461021d57806303c29d581461021857806307d94e4a146102135780630a7713701461020e5780630add6b731461020957806318aa9f1e1461020457806324274ee9146101ff578063263a58aa146101fa57806328c30c07146101f557806329dcb0cf146101f057806343ab265f146101eb5780634c4cea5a146101e65780634cbc1553146101e15780634e695a37146101dc57806354214f69146101d75780635eb32936146101d257806380007e83146101cd578063992a7dfb146101c8578063a278a485146101c3578063abb5ca09146101be578063b40141bf146101b9578063b82c86d6146101b4578063c19d93fb146101af578063c3e20c9f146101aa578063c59ee1dc146101a5578063ca4b208b146101a0578063d17075511461019b578063d5cef13314610196578063d688cf5314610191578063d8abe8be1461018c578063e9d1edde146101875763ff3a9c7e0361022757610de7565b610cf8565b610cdc565b610be0565b610bc5565b610baa565b610b83565b610b5c565b610b35565b610b02565b610a8a565b610a63565b610a3c565b610a15565b6109d5565b6108c8565b6108a1565b610868565b61082a565b610811565b6107cf565b6107a8565b610779565b610755565b610711565b6106ea565b6106c3565b610699565b61062f565b61056f565b610548565b6103ad565b61032f565b600080fd5b805b0361022757565b905035906102428261022c565b565b906020828203126102275761025891610235565b90565b60005b83811061026e5750506000910152565b818101518382015260200161025e565b61029f6102a86020936102b293610293815190565b80835293849260200190565b9586910161025b565b601f01601f191690565b0190565b9052565b6001600160a01b031690565b6102b6906102ba565b926103289298979561031860c09661031161031f9461030a6103026102429d9860e08c01908c600081840391015261027e565b9e60208b0152565b6040890152565b6060870152565b6080850152565b151560a0830152565b01906102c6565b346102275761036361034a610345366004610244565b6123d6565b9361035a97959793919360405190565b978897886102cf565b0390f35b600091031261022757565b610258916008021c6001600160a01b031690565b906102589154610372565b61025860006004610386565b60208101929161024291906102c6565b34610227576103bd366004610367565b6103636103c8610391565b6040519182918261039d565b634e487b7160e01b600052600060045260246000fd5b634e487b7160e01b600052602260045260246000fd5b9060016002830492168015610420575b602083101461041b57565b6103ea565b91607f1691610410565b8054600093929161044761043d83610400565b8085529360200190565b9160018116908115610499575060011461046057505050565b6104739192939450600052602060002090565b916000925b8184106104855750500190565b805484840152602090930192600101610478565b92949550505060ff1916825215156020020190565b906102589161042a565b634e487b7160e01b600052604160045260246000fd5b90601f01601f191681019081106001600160401b038211176104ef57604052565b6104b8565b9061024261050e9261050560405190565b938480926104ae565b03836104ce565b9060001061052657610258906104f4565b6103d4565b6102586000600d610515565b60208082526102589291019061027e565b3461022757610558366004610367565b61036361056361052b565b60405191829182610537565b346102275761057f366004610367565b61036361058a61143a565b6040519182918290815260200190565b61022e816102ba565b905035906102428261059a565b9060208282031261022757610258916105a3565b610258906102ba906001600160a01b031682565b610258906105c4565b610258906105d8565b906105f4906105e1565b600052602052604060002090565b610258916008021c81565b906102589154610602565b6102589061062a6014916000926105ea565b61060d565b346102275761036361058a6106453660046105b0565b610618565b610258906102ba565b61022e8161064a565b9050359061024282610653565b9091606082840312610227576102586106828484610235565b93610690816020860161065c565b9360400161065c565b34610227576106b26106ac366004610669565b91612310565b604051005b61025860006011610515565b34610227576106d3366004610367565b6103636105636106b7565b6102586000600b61060d565b34610227576106fa366004610367565b61036361058a6106de565b6102586000600361060d565b3461022757610721366004610367565b61036361058a610705565b80151561022e565b905035906102428261072c565b906020828203126102275761025891610734565b34610227576106b2610768366004610741565b610f64565b6102586000600761060d565b3461022757610789366004610367565b61036361058a61076d565b90602082820312610227576102589161065c565b346102275761036361058a6107be366004610794565b611447565b6102586000600961060d565b34610227576107df366004610367565b61036361058a6107c3565b90916060828403126102275761025861080384846105a3565b936106908160208601610235565b34610227576106b26108243660046107ea565b916113b1565b34610227576106b261083d366004610244565b611abf565b610258916008021c5b60ff1690565b906102589154610842565b6102586001600e610851565b3461022757610878366004610367565b61036361088361085c565b60405191829182901515815260200190565b61025860006012610515565b34610227576108b1366004610367565b610363610563610895565b6102586002600e610851565b34610227576108d8366004610367565b6103636108836108bc565b6102586102586102589290565b906105f4906108e3565b6102589081565b61025890546108fa565b6102589061084b565b610258905461090b565b6102589060081c6102ba565b610258905461091e565b61093f9060156108f0565b90610949826104f4565b9161095660018201610901565b9161096360028301610901565b9161097060038201610901565b916102586005610981818501610914565b930161092a565b91969593946109cc610242966109c560a0966109be6109b66103289760c08a01908a820360008c015261027e565b9c6020890152565b6040870152565b6060850152565b15156080830152565b34610227576103636109f06109eb366004610244565b610934565b92610a0096949692919260405190565b96879687610988565b61025860006013610515565b3461022757610a25366004610367565b610363610563610a09565b6102586000600f610515565b3461022757610a4c366004610367565b610363610563610a30565b6102586000601661060d565b3461022757610a73366004610367565b61036361058a610a57565b6102586000600861060d565b3461022757610a9a366004610367565b61036361058a610a7e565b6102586000600e610851565b634e487b7160e01b600052602160045260246000fd5b60031115610ad157565b610ab1565b9061024282610ac7565b61025890610ad6565b6102b690610ae0565b6020810192916102429190610ae9565b3461022757610b12366004610367565b610363610b1d610aa5565b60405191829182610af2565b6102586000600c610515565b3461022757610b45366004610367565b610363610563610b29565b6102586000600a61060d565b3461022757610b6c366004610367565b61036361058a610b50565b61025860006002610386565b3461022757610b93366004610367565b6103636103c8610b77565b61025860006010610515565b3461022757610bba366004610367565b610363610563610b9e565b3461022757610bd5366004610367565b610363610883611663565b34610227576106b2610bf3366004610244565b610f0f565b90610242610c0560405190565b92836104ce565b6001600160401b0381116104ef57602090601f01601f19160190565b90826000939282370152565b90929192610c49610c4482610c0c565b610bf8565b938185526020850190828401116102275761024292610c28565b9080601f830112156102275781602061025893359101610c34565b919060a0838203126102275782356001600160401b0381116102275781610ca6918501610c63565b92610cb482602083016105a3565b92610258610cc58460408501610235565b93610cd38160608601610235565b93608001610235565b34610227576106b2610cef366004610c7e565b93929092611a0b565b34610227576106b2610d0b366004610741565b610fba565b9e9d9c9b999897959391928f9197959361020083019860008401610d33916102c6565b60208301610d40916102c6565b60408201610d4d916102c6565b6060015260808d015260a08c015260c08b015260e08a01528881036101008a0152610d779161027e565b878103610120890152610d899161027e565b916101408701610d9891610ae9565b610160860152848103610180860152610db09161027e565b8381036101a0850152610dc29161027e565b8281036101c0840152610dd49161027e565b90808203906101e001526102589161027e565b3461022757610df7366004610367565b610e2c610e02612324565b9e610e219e919e9d929d9c939c9b949b9a959a99969998979860405190565b608052608051610d10565b6080519003608051f35b610258905461064a565b15610e4757565b60405162461bcd60e51b815260206004820152603660248201527f596f7520646f6e7420686176652061646d696e2061636365737320746f20706560448201527572666f726d2074686973206f7065726174696f6e202160501b6064820152608490fd5b61024290610ed433610ece610ec8610ec36001610e36565b6105e1565b916102ba565b14610e40565b610f04565b90600019905b9181191691161790565b90610ef9610258610f00926108e3565b8254610ed9565b9055565b610242906003610ee9565b61024290610eab565b61024290610f3033610ece610ec8610ec36001610e36565b610f59565b9061ff009060081b610edf565b90610f52610258610f0092151590565b8254610f35565b61024290600e610f42565b61024290610f18565b61024290610f8533610ece610ec8610ec36001610e36565b610faf565b9062ff00009060101b610edf565b90610fa8610258610f0092151590565b8254610f8a565b61024290600e610f98565b61024290610f6d565b6102589060101c61084b565b6102589054610fc3565b15610fe057565b60405162461bcd60e51b8152602060048201526018602482015277141c9bda9958dd081b5d5cdd081899481d995c9a599a595960421b6044820152606490fd5b906102429291611045611033600e610fcf565b61103f60015b91151590565b14610fd9565b6110bb565b1561105157565b60405162461bcd60e51b815260206004820152603c60248201527f596f7520646f206e6f74206861766520746865206d617374657220726967687460448201527b7320746f20706572666f726d2074686973206f7065726174696f6e2160201b6064820152608490fd5b9061024292916110db336110d5610ec8610ec36000610e36565b1461104a565b6111dc565b634e487b7160e01b600052601160045260246000fd5b60001981146111055760010190565b6110e0565b9190820180921161110557565b905051906102428261022c565b906020828203126102275761025891611117565b916020610242929493610328604082019660008301906102c6565b6040513d6000823e3d90fd5b1561022757565b905051906102428261072c565b906020828203126102275761025891611166565b6040906111b161024294969593966111a7606084019860008501906102c6565b60208301906102c6565b0152565b6040906111b161024294969593966111d5606084019860008501906102c6565b6020830152565b9161124a60149161123261121a866111fc6111f782886105ea565b610901565b9560009661121061120c896108e3565b9190565b14611390576105ea565b61122c8661122783610901565b61110a565b90610ee9565b610ec361124385611227600a610901565b600a610ee9565b9063dd62ed3e9161125a306105e1565b61126d61126660405190565b9460e01b90565b845260208480611281848a60048401611138565b0381855afa91821561135e576112a560209387968691611363575b5086111561115f565b6112c7846323b872dd6112d36112ba60405190565b9889968795869460e01b90565b84528c60048501611187565b03925af190811561135e5750611332575b506112ef600a610901565b916113277f5cdc4ab8d637538ead6cc1904d4160343656c8c82bd266635cfd31ac008fffe09361131e60405190565b938493846111b5565b0390a16102426113dc565b6113529060203d8111611357575b61134a81836104ce565b810190611173565b6112e4565b503d611340565b611153565b6113839150853d8111611389575b61137b81836104ce565b810190611124565b3861129c565b503d611371565b6113ac6113a56113a0600b610901565b6110f6565b600b610ee9565b6105ea565b906102429291611020565b9060ff90610edf565b906113d5610258610f0092610ae0565b82546113bc565b6113e6600a610901565b6113f661120c6102586008610901565b10611412576114076002600e6113c5565b610242426009610ee9565b4261142361120c6102586007610901565b1115611407576114356001600e6113c5565b611407565b611443306105e1565b3190565b602061145e61149292611458600090565b506105e1565b6370a0823190611487611470306105e1565b9261147a60405190565b9586948593849360e01b90565b83526004830161039d565b03915afa90811561135e576000916114a8575090565b610258915060203d81116113895761137b81836104ce565b156114c757565b60405162461bcd60e51b815260206004820152600d60248201526c496e76616c696420737461746560981b6044820152606490fd5b1561150357565b60405162461bcd60e51b8152602060048201526015602482015274446561646c696e652068617320706173736564202160581b6044820152606490fd5b6102589061156b600161156561155f611559600e610914565b92610ad6565b91610ad6565b146114c0565b6115854261157f61120c6102586007610901565b106114fc565b6115e5565b1561159157565b60405162461bcd60e51b815260206004820152602660248201527f596f7520646f6e74206861766520616e7920636f6e747269627574656420616d6044820152656f756e74202160d01b6064820152608490fd5b503360146115f66111f783836105ea565b61160e60009161160861120c846108e3565b1161158a565b8080808061161e610ec3886105e1565b61162b6111f789896105ea565b9082821561165a575bf11561135e576116559261164a611650926108e3565b926105ea565b610ee9565b600190565b506108fc611634565b6102586000611540565b1561167457565b60405162461bcd60e51b815260206004820152603860248201527f596f7520646f6e7420686176652063726561746f722061636365737320746f20604482015277706572666f726d2074686973206f7065726174696f6e202160401b6064820152608490fd5b90610242949392916116fc336116f6610ec8610ec36004610e36565b1461166d565b9061024294939291611719600261156561155f611559600e610914565b61172d4261157f61120c6102586007610901565b611966565b9160001960089290920291821b911b610edf565b9190611757610258610f00936108e3565b908354611732565b61024291600091611746565b818110611776575050565b80611784600060019361175f565b0161176b565b9190601f811161179957505050565b6117ab61024293600052602060002090565b906020601f8401819004830193106117cd575b6020601f90910104019061176b565b90915081906117be565b9060001960089091021c191690565b816117f0916117d7565b906002021790565b90611801815190565b906001600160401b0382116104ef576118248261181e8554610400565b8561178a565b602090601f831160011461185257610f00929160009183611847575b50506117e6565b015190503880611840565b601f1983169161186785600052602060002090565b9260005b8181106118a65750916002939185600196941061188c575b50505002019055565b61189c910151601f8416906117d7565b9055388080611883565b9193602060018192878701518155019501920161186b565b90610242916117f8565b906113d5610258610f0092151590565b90610100600160a81b039060081b610edf565b906118fb610258610f00926105e1565b82546118d8565b6102b6906108e3565b6102b6906105e1565b9297969461031f9061195560c09661031161194d6102429b9661195f9861194060e08c019260008d0152565b8a820360208c015261027e565b9c6040890152565b6080850190611902565b019061190b565b92906005611a069295939561197f6102588660156108f0565b9061198a87836118be565b6119978860018401610ee9565b6119a48160028401610ee9565b6119d28460009485946119c26119b9876108e3565b60038301610ee9565b016119cd85826118c8565b6118eb565b7f3009567e0613f3581563a052fea56298aca1363831103cf6f1cbb8bf5ae122f3976119fd60405190565b97889788611914565b0390a1565b90610242949392916116da565b15611a1f57565b60405162461bcd60e51b815260206004820152601b60248201527a4f6e6c7920636f6e7472696275746f722063616e20766f7465202160281b6044820152606490fd5b15611a6957565b60405162461bcd60e51b8152602060048201526013602482015272596f7520616c726561647920766f746564202160681b6044820152606490fd5b9160206102429294936111b1604082019660008301906102c6565b3390611b5c906111f7611b566003611b4a86611b45611b06610258611ae6888560146105ea565b98611aff60009a611af961120c8d6108e3565b11611a18565b60156108f0565b96611b336004890191611b2d611039611b27611b2288876105ea565b610914565b92151590565b14611a62565b611b4060019384926105ea565b6118c8565b6108e3565b93019261122784610901565b82610ee9565b7fa2925e4595bf873fa82c22a1a89809777347023bf2b502d32710157a5eb8199c91611a06611b8a60405190565b92839283611aa4565b906102429291611bad336116f6610ec8610ec36004610e36565b906102429291611bc8600261156561155f611559600e610914565b611bdc4261157f61120c6102586007610901565b611def565b15611be857565b60405162461bcd60e51b815260206004820152601960248201527814995c5d595cdd08185b1c9958591e4818dbdb5c1b195d1959603a1b6044820152606490fd5b634e487b7160e01b600052601260045260246000fd5b8115611c49570490565b611c29565b15611c5557565b60405162461bcd60e51b815260206004820152603660248201527f4174206c656173742032302520636f6e7472696275746f72206e65656420746f604482015275081d9bdd1948199bdc881d1a1a5cc81c995c5d595cdd60521b6064820152608490fd5b15611cc057565b60405162461bcd60e51b815260206004820152603e602482015260008051602061244183398151915260448201527f6e6f75676820555344542062616c616e636520746f20646973627572736500006064820152608490fd5b15611d2057565b60405162461bcd60e51b815260206004820152603e602482015260008051602061244183398151915260448201527f6e6f75676820555344432062616c616e636520746f20646973627572736500006064820152608490fd5b8181029291811591840414171561110557565b6040906111b16102429496959396611dac606084019860008501906102c6565b602083019061190b565b9297969461031f9061031860c09661031161194d6102429b9661195f98611de260e08c019260008d0152565b8a820360208c015261042a565b919091611e006102588260156108f0565b91611e20611e1060058501610914565b611e1a6000611039565b14611be1565b611e2c60038401610901565b90611e5d611e3a600b610901565b92611e5661120c610258600596611e50886108e3565b90611c3f565b1015611c4e565b611e72611e6c60018601610901565b956105e1565b916370a08231611e81306105e1565b96611e8b60405190565b90611e968360e01b90565b825260208280611ea98c6004830161039d565b0381895afa801561135e5761120c611eca91611ed1946000916114a8575090565b1115611cb9565b611ee6611ee060028801610901565b936105e1565b92611efa611ef360405190565b9260e01b90565b825260208280611f0d8b6004830161039d565b0381875afa801561135e5761120c611f2e91611f35946000916114a8575090565b1115611d19565b840194611f966020611f468861092a565b611f72611f62611f5860018b01610901565b611e5060326108e3565b611f6c60316108e3565b90611d79565b90611f7c60405190565b93849283926323b872dd60e01b5b84528760048501611d8c565b03816000885af1801561135e576122f4575b50611fc96020611fb78861092a565b611f72611f62611f5860028b01610901565b03816000875af1801561135e576122d8575b5042611fed61120c6102586003610901565b11612239576120379260206120026001610e36565b61201b61201160018a01610901565b611e5060646108e3565b9061202560405190565b96879283926323b872dd60e01b611f8a565b03816000855af190811561135e576120989460209261221e575b5061205c6002610e36565b9061206c61201160018a01610901565b91600061207860405190565b80988195829461208c6323b872dd60e01b90565b84528960048501611d8c565b03925af192831561135e576120eb93612202575b5060206120b96001610e36565b6120c861201160028901610901565b906120d260405190565b95869283926323b872dd60e01b84528660048501611d8c565b03816000865af191821561135e57612145936020936121e7575b506121106002610e36565b600061212161201160028a01610901565b9361212b60405190565b968795869485936323b872dd60e01b855260048501611d8c565b03925af1801561135e576121cb575b505b611a0660019261216684866118c8565b60008101938082019561219661219060036121896121838b610901565b9a610901565b9501610901565b9161092a565b927f7a5218350187d3ab901ae3c2001a4348ce5a2089ac30ce35d2fc55b53feac2a5976121c260405190565b97889788611db6565b6121e29060203d81116113575761134a81836104ce565b612154565b6121fd90843d81116113575761134a81836104ce565b612105565b6122199060203d81116113575761134a81836104ce565b6120ac565b61223490833d81116113575761134a81836104ce565b612051565b6020612259936122496001610e36565b9061206c611f5860018a01610901565b03925af191821561135e5761228c936020936122bd575b5061227b6001610e36565b6000612121611f5860028a01610901565b03925af1801561135e576122a1575b50612156565b6122b89060203d81116113575761134a81836104ce565b61229b565b6122d390843d81116113575761134a81836104ce565b612270565b6122ef9060203d81116113575761134a81836104ce565b611fdb565b61230b9060203d81116113575761134a81836104ce565b611fa8565b906102429291611b93565b610258906104f4565b61232e6004610e36565b906123396007610901565b906123446008610901565b9161234f6009610901565b9261235a600a610901565b92612365600c61231b565b94612370600d61231b565b9461237b600e610914565b96612385306105e1565b3196612391600f61231b565b9861239c601061231b565b986123a7601161231b565b9a6123b2601261231b565b9a6123bd6005610e36565b9c6123c86006610e36565b9c6123d3600b610901565b9a565b6102586123ed916123e5606090565b5060156108f0565b906123f8600b610901565b906124028361231b565b9261240f60018201610901565b9261241c60028301610901565b92600561242b60038501610901565b93019061025861243a83610914565b9261092a56fe50726f6a65637420636f6e747261637420646f6573206e6f7420686176652065a2646970667358221220da22e96ac77f8f2326cbe92b87773324aca253ebcae95dcd2dac7fa1e39387da64736f6c63430008120033a26469706673582212207dd2b9bb70827402d82b6d76a9e6e149be6f40cc35d2b4f3f42889a82e89851c64736f6c63430008120033",
  "linkReferences": {},
  "deployedLinkReferences": {}
}