{
  "_format": "hh-sol-artifact-1",
  "contractName": "Crowdfunding",
  "sourceName": "contracts/Crowdfunding.sol",
  "abi": [
    {
      "anonymous": false,
      "inputs": [
        {
          "indexed": false,
          "internalType": "address",
          "name": "projectAddress",
          "type": "address"
        },
        {
          "indexed": false,
          "internalType": "uint256",
          "name": "contributedAmount",
          "type": "uint256"
        },
        {
          "indexed": true,
          "internalType": "address",
          "name": "contributor",
          "type": "address"
        }
      ],
      "name": "ContributionReceived",
      "type": "event"
    },
    {
      "anonymous": false,
      "inputs": [
        {
          "indexed": true,
          "internalType": "address",
          "name": "previousOwner",
          "type": "address"
        },
        {
          "indexed": true,
          "internalType": "address",
          "name": "newOwner",
          "type": "address"
        }
      ],
      "name": "OwnershipTransferred",
      "type": "event"
    },
    {
      "anonymous": false,
      "inputs": [
        {
          "indexed": false,
          "internalType": "address",
          "name": "projectContractAddress",
          "type": "address"
        },
        {
          "indexed": false,
          "internalType": "address",
          "name": "creator",
          "type": "address"
        },
        {
          "indexed": false,
          "internalType": "uint256",
          "name": "projectDeadline",
          "type": "uint256"
        },
        {
          "indexed": false,
          "internalType": "uint256",
          "name": "goalAmount",
          "type": "uint256"
        },
        {
          "indexed": false,
          "internalType": "uint256",
          "name": "currentAmount",
          "type": "uint256"
        },
        {
          "indexed": false,
          "internalType": "uint256",
          "name": "noOfContributors",
          "type": "uint256"
        },
        {
          "indexed": false,
          "internalType": "string",
          "name": "title",
          "type": "string"
        },
        {
          "indexed": false,
          "internalType": "string",
          "name": "desc",
          "type": "string"
        },
        {
          "indexed": false,
          "internalType": "uint256",
          "name": "currentState",
          "type": "uint256"
        },
        {
          "indexed": false,
          "internalType": "string",
          "name": "websiteUrl",
          "type": "string"
        },
        {
          "indexed": false,
          "internalType": "string",
          "name": "socialUrl",
          "type": "string"
        },
        {
          "indexed": false,
          "internalType": "string",
          "name": "projectCoverUrl",
          "type": "string"
        },
        {
          "indexed": false,
          "internalType": "string",
          "name": "filterTags",
          "type": "string"
        }
      ],
      "name": "ProjectStarted",
      "type": "event"
    },
    {
      "stateMutability": "payable",
      "type": "fallback"
    },
    {
      "inputs": [
        {
          "internalType": "contract IERC20",
          "name": "",
          "type": "address"
        }
      ],
      "name": "acceptedTokens",
      "outputs": [
        {
          "internalType": "bool",
          "name": "",
          "type": "bool"
        }
      ],
      "stateMutability": "view",
      "type": "function"
    },
    {
      "inputs": [
        {
          "internalType": "contract IERC20",
          "name": "tokenAddress",
          "type": "address"
        }
      ],
      "name": "addAcceptedContributionToken",
      "outputs": [],
      "stateMutability": "nonpayable",
      "type": "function"
    },
    {
      "inputs": [
        {
          "internalType": "contract IERC20",
          "name": "tokenAddress",
          "type": "address"
        }
      ],
      "name": "addRewardTokenAddress",
      "outputs": [],
      "stateMutability": "nonpayable",
      "type": "function"
    },
    {
      "inputs": [
        {
          "internalType": "contract IERC20",
          "name": "tokenAddress",
          "type": "address"
        },
        {
          "internalType": "uint256[4]",
          "name": "rewardTiers",
          "type": "uint256[4]"
        }
      ],
      "name": "addRewardTokenTier",
      "outputs": [],
      "stateMutability": "nonpayable",
      "type": "function"
    },
    {
      "inputs": [
        {
          "internalType": "address",
          "name": "_projectAddress",
          "type": "address"
        },
        {
          "internalType": "contract IERC20",
          "name": "token",
          "type": "address"
        },
        {
          "internalType": "uint256",
          "name": "amount",
          "type": "uint256"
        }
      ],
      "name": "contribute",
      "outputs": [],
      "stateMutability": "nonpayable",
      "type": "function"
    },
    {
      "inputs": [
        {
          "internalType": "uint256",
          "name": "deadline",
          "type": "uint256"
        },
        {
          "internalType": "uint256",
          "name": "targetContribution",
          "type": "uint256"
        },
        {
          "internalType": "string",
          "name": "projectTitle",
          "type": "string"
        },
        {
          "internalType": "string",
          "name": "projectDesc",
          "type": "string"
        },
        {
          "internalType": "string",
          "name": "websiteUrl",
          "type": "string"
        },
        {
          "internalType": "string",
          "name": "socialUrl",
          "type": "string"
        },
        {
          "internalType": "string",
          "name": "githubUrl",
          "type": "string"
        },
        {
          "internalType": "string",
          "name": "projectCoverUrl",
          "type": "string"
        },
        {
          "internalType": "string",
          "name": "filterTags",
          "type": "string"
        },
        {
          "internalType": "address",
          "name": "usdt",
          "type": "address"
        },
        {
          "internalType": "address",
          "name": "usdc",
          "type": "address"
        }
      ],
      "name": "createProject",
      "outputs": [],
      "stateMutability": "nonpayable",
      "type": "function"
    },
    {
      "inputs": [],
      "name": "getContributedProject",
      "outputs": [
        {
          "components": [
            {
              "internalType": "address",
              "name": "projectAddress",
              "type": "address"
            },
            {
              "internalType": "string",
              "name": "title",
              "type": "string"
            },
            {
              "internalType": "string",
              "name": "descriptions",
              "type": "string"
            },
            {
              "internalType": "uint256",
              "name": "contributedAmount",
              "type": "uint256"
            }
          ],
          "internalType": "struct Crowdfunding.ProjectArray[]",
          "name": "",
          "type": "tuple[]"
        }
      ],
      "stateMutability": "view",
      "type": "function"
    },
    {
      "inputs": [],
      "name": "owner",
      "outputs": [
        {
          "internalType": "address",
          "name": "",
          "type": "address"
        }
      ],
      "stateMutability": "view",
      "type": "function"
    },
    {
      "inputs": [
        {
          "internalType": "contract IERC20",
          "name": "tokenAddress",
          "type": "address"
        }
      ],
      "name": "removeAcceptedContributionToken",
      "outputs": [],
      "stateMutability": "nonpayable",
      "type": "function"
    },
    {
      "inputs": [
        {
          "internalType": "uint256",
          "name": "rewardTokenAddressesIndex",
          "type": "uint256"
        }
      ],
      "name": "removeRewardTokenAddress",
      "outputs": [],
      "stateMutability": "nonpayable",
      "type": "function"
    },
    {
      "inputs": [],
      "name": "renounceOwnership",
      "outputs": [],
      "stateMutability": "nonpayable",
      "type": "function"
    },
    {
      "inputs": [],
      "name": "returnAllProjects",
      "outputs": [
        {
          "internalType": "contract Project[]",
          "name": "",
          "type": "address[]"
        }
      ],
      "stateMutability": "view",
      "type": "function"
    },
    {
      "inputs": [
        {
          "internalType": "uint256",
          "name": "",
          "type": "uint256"
        }
      ],
      "name": "rewardTokenAddresses",
      "outputs": [
        {
          "internalType": "contract IERC20",
          "name": "",
          "type": "address"
        }
      ],
      "stateMutability": "view",
      "type": "function"
    },
    {
      "inputs": [
        {
          "internalType": "contract IERC20",
          "name": "",
          "type": "address"
        },
        {
          "internalType": "uint256",
          "name": "",
          "type": "uint256"
        }
      ],
      "name": "rewardTokensTiers",
      "outputs": [
        {
          "internalType": "uint256",
          "name": "",
          "type": "uint256"
        }
      ],
      "stateMutability": "view",
      "type": "function"
    },
    {
      "inputs": [
        {
          "internalType": "address",
          "name": "",
          "type": "address"
        }
      ],
      "name": "rewards",
      "outputs": [
        {
          "internalType": "uint256",
          "name": "",
          "type": "uint256"
        }
      ],
      "stateMutability": "view",
      "type": "function"
    },
    {
      "inputs": [
        {
          "internalType": "address",
          "name": "contributor",
          "type": "address"
        }
      ],
      "name": "showRewardUser",
      "outputs": [
        {
          "internalType": "uint256",
          "name": "",
          "type": "uint256"
        }
      ],
      "stateMutability": "view",
      "type": "function"
    },
    {
      "inputs": [
        {
          "internalType": "address",
          "name": "contributor",
          "type": "address"
        }
      ],
      "name": "showTotalRewardUser",
      "outputs": [
        {
          "internalType": "uint256",
          "name": "",
          "type": "uint256"
        }
      ],
      "stateMutability": "view",
      "type": "function"
    },
    {
      "inputs": [
        {
          "internalType": "address",
          "name": "",
          "type": "address"
        }
      ],
      "name": "totalRewards",
      "outputs": [
        {
          "internalType": "uint256",
          "name": "",
          "type": "uint256"
        }
      ],
      "stateMutability": "view",
      "type": "function"
    },
    {
      "inputs": [
        {
          "internalType": "address",
          "name": "newOwner",
          "type": "address"
        }
      ],
      "name": "transferOwnership",
      "outputs": [],
      "stateMutability": "nonpayable",
      "type": "function"
    },
    {
      "inputs": [
        {
          "internalType": "uint256",
          "name": "amount",
          "type": "uint256"
        },
        {
          "internalType": "address",
          "name": "recipientAddress",
          "type": "address"
        },
        {
          "internalType": "contract IERC20",
          "name": "tokenAddress",
          "type": "address"
        }
      ],
      "name": "withdrawPooledRewards",
      "outputs": [],
      "stateMutability": "nonpayable",
      "type": "function"
    },
    {
      "inputs": [
        {
          "internalType": "uint256",
          "name": "amount",
          "type": "uint256"
        }
      ],
      "name": "withdrawUserRewards",
      "outputs": [],
      "stateMutability": "nonpayable",
      "type": "function"
    }
  ],
  "bytecode": "0x6080604052346200002657620000146200002b565b604051614f9e620001268239614f9e90f35b600080fd5b6200003562000037565b565b6200003533620000c3565b62000054905b6001600160a01b031690565b90565b62000054905462000042565b620000549062000048906001600160a01b031682565b620000549062000063565b620000549062000079565b90620000a362000054620000bf9262000084565b82546001600160a01b0319166001600160a01b03919091161790565b9055565b620000cf600062000057565b90620000dd8160006200008f565b620001146200010d7f8be0079c531659141344cd1fd0a4f28419497f9722a3daafe3b4186f6b6457e09362000084565b9162000084565b916200011f60405190565b600090a356fe608060405260043610156200001057005b60003560e01c80630700037d146200018b5780631ed2eb4b146200018557806325f0fc2d146200017f57806343746a371462000179578063606266f51462000173578063715018a6146200016d578063773bbb1714620001675780637b2d9b2c146200016157806382dc4a05146200015b57806385b6e28e14620001555780638d472709146200014f5780638da5cb5b14620001495780638e4182df1462000143578063945bbdcd146200013d5780639dd2764a1462000137578063a3df77791462000131578063ab7573dd146200012b578063bb7252d81462000125578063eca38989146200011f578063f2653b0e14620001195763f2fde38b146200011357005b62000c16565b62000bf9565b62000bdb565b62000b83565b62000b62565b62000b30565b62000b13565b62000af2565b62000ac8565b620008c5565b620008a7565b62000842565b62000792565b6200072c565b6200067c565b6200051a565b620004f1565b620004bd565b62000484565b620003d0565b62000261565b6001600160a01b031690565b90565b6001600160a01b0381165b03620001b357565b600080fd5b90503590620001c782620001a0565b565b90602082820312620001b3576200019d91620001b8565b620001916200019d6200019d926001600160a01b031690565b6200019d90620001e0565b6200019d90620001f9565b906200021b9062000204565b600052602052604060002090565b6200019d916008021c81565b906200019d915462000229565b6200019d90620002576001916000926200020f565b62000235565b9052565b34620001b35762000292620002826200027c366004620001c9565b62000242565b6040519182918290815260200190565b0390f35b6001600160a01b038116620001ab565b90503590620001c78262000296565b634e487b7160e01b600052604160045260246000fd5b90601f01601f1916810190811067ffffffffffffffff821117620002ee57604052565b620002b5565b90620001c76200030360405190565b9283620002cb565b67ffffffffffffffff8111620002ee5760200290565b80620001ab565b90503590620001c78262000321565b90929192620003506200034a826200030b565b620002f4565b936020859202830192818411620001b357915b838310620003715750505050565b6020809162000381848662000328565b81520192019162000363565b9080601f83011215620001b3576200019d9160049062000337565b919060a083820312620001b3576200019d90620003c68185620002a6565b936020016200038d565b34620001b357620003ee620003e7366004620003a8565b90620014e5565b604051005b9190604083820312620001b3576200019d90620004118185620002a6565b9360200162000328565b634e487b7160e01b600052603260045260246000fd5b600482101562000448576001905b91020190600090565b6200041b565b6200045e6005916000926200020f565b9060048310156200048157506200019d916200047a9162000431565b9062000235565b80fd5b34620001b35762000292620002826200049f366004620003f3565b906200044e565b90602082820312620001b3576200019d9162000328565b34620001b357620003ee620004d4366004620004a6565b620012dc565b90602082820312620001b3576200019d91620002a6565b34620001b357620003ee62000508366004620004da565b62001296565b6000910312620001b357565b34620001b3576200052d3660046200050e565b620003ee62000c78565b60005b8381106200054b5750506000910152565b81810151838201526020016200053a565b620005816200058b602093620005959362000575815190565b80835293849260200190565b9586910162000537565b601f01601f191690565b0190565b80516001600160a01b03168252906200019d90606080620005e1620005ce60808501602088015186820360208801526200055c565b604087015185820360408701526200055c565b940151910152565b906200019d9162000599565b906200060d62000603835190565b8083529160200190565b9081620006206020830284019460200190565b926000915b8383106200063557505050505090565b909192939460206200065b6200065483856001950387528951620005e9565b9760200190565b930193019193929062000625565b60208082526200019d92910190620005f5565b34620001b3576200068f3660046200050e565b620002926200069d620016ca565b6040519182918262000669565b805482101562000448576200043f600191600052602060002090565b6200019d916008021c62000191565b906200019d9154620006c6565b60046000620006ef825490565b8310156200048157506200019d916200070891620006aa565b90620006d5565b6200025d9062000204565b602081019291620001c791906200070f565b34620001b357620002926200074d62000747366004620004a6565b620006e2565b604051918291826200071a565b6200019d916008021c5b60ff1690565b906200019d91546200075a565b6200019d906200078c6003916000926200020f565b6200076a565b34620001b35762000292620007b3620007ad366004620004da565b62000777565b60405191829182901515815260200190565b9062000595816020936200070f565b90620007f7620007f0620007e6845190565b8084529260200190565b9260200190565b9060005b818110620008095750505090565b909192620008266200081f6001928651620007c5565b9460200190565b929101620007fb565b60208082526200019d92910190620007d4565b34620001b357620008553660046200050e565b62000292620008636200138a565b604051918291826200082f565b9091606082840312620001b3576200019d6200088d8484620001b8565b936200089d8160208601620002a6565b9360400162000328565b34620001b357620003ee620008be36600462000870565b9162001e50565b34620001b357620008d83660046200050e565b62000292620008ef6000546001600160a01b031690565b604051918291826001600160a01b03909116815260200190565b67ffffffffffffffff8111620002ee57602090601f01601f19160190565b90826000939282370152565b90929192620009466200034a8262000909565b93818552602085019082840111620001b357620001c79262000927565b9080601f83011215620001b3578160206200019d9335910162000933565b919061016083820312620001b3576200099b818462000328565b92620009ab826020830162000328565b92604082013567ffffffffffffffff8111620001b35783620009cf91840162000963565b92606083013567ffffffffffffffff8111620001b35781620009f391850162000963565b92608081013567ffffffffffffffff8111620001b3578262000a1791830162000963565b9260a082013567ffffffffffffffff8111620001b3578362000a3b91840162000963565b9260c083013567ffffffffffffffff8111620001b3578162000a5f91850162000963565b9260e081013567ffffffffffffffff8111620001b3578262000a8391830162000963565b9261010082013567ffffffffffffffff8111620001b35762000aac846200019d92850162000963565b9362000abd816101208601620001b8565b9361014001620001b8565b34620001b357620003ee62000adf36600462000981565b99989098979197969296959395620010f8565b34620001b357620002926200028262000b0d366004620001c9565b62001526565b34620001b357620003ee62000b2a366004620004da565b6200126f565b34620001b357620003ee62000b47366004620004da565b62001241565b6200019d90620002576002916000926200020f565b34620001b357620002926200028262000b7d366004620001c9565b62000b4d565b34620001b357620002926200028262000b9e366004620001c9565b62001505565b9091606082840312620001b3576200019d62000bc1848462000328565b9362000bd18160208601620001b8565b93604001620002a6565b34620001b357620003ee62000bf236600462000ba4565b9162001cdf565b34620001b357620003ee62000c10366004620004a6565b62001a58565b34620001b357620003ee62000c2d366004620001c9565b62000dc5565b62000c3d62000cd8565b620001c762000c62565b620001916200019d6200019d9290565b6200019d9062000c47565b620001c762000c72600062000c57565b62000e05565b620001c762000c33565b1562000c8a57565b60405162461bcd60e51b81528062000cd4600482016020808252818101527f4f776e61626c653a2063616c6c6572206973206e6f7420746865206f776e6572604082015260600190565b0390fd5b620001c762000cef6000546001600160a01b031690565b62000d0b62000cfe3362000191565b916001600160a01b031690565b1462000c82565b620001c79062000d2162000cd8565b62000d9a565b1562000d2f57565b60405162461bcd60e51b815260206004820152602660248201527f4f776e61626c653a206e6577206f776e657220697320746865207a65726f206160448201527f64647265737300000000000000000000000000000000000000000000000000006064820152608490fd5b620001c79062000c7262000db362000191600062000c57565b6001600160a01b038316141562000d27565b620001c79062000d12565b906001600160a01b03905b9181191691161790565b9062000df96200019d62000e019262000204565b825462000dd0565b9055565b6000546001600160a01b03169062000e1f81600062000de5565b62000e5662000e4f7f8be0079c531659141344cd1fd0a4f28419497f9722a3daafe3b4186f6b6457e09362000204565b9162000204565b9162000e6160405190565b600090a3565b9c9b9a999897969492909593918d6101c08101976000820162000e91916001600160a01b03169052565b60200162000ea6916001600160a01b03169052565b6001600160a01b031660408d01526001600160a01b031660608c01526001600160a01b031660808b015260a08a015260c089015287810360e089015262000eed916200055c565b86810361010088015262000f01916200055c565b85810361012087015262000f15916200055c565b84810361014086015262000f29916200055c565b83810361016085015262000f3d916200055c565b82810361018084015262000f51916200055c565b90808203906101a001526200019d916200055c565b6040513d6000823e3d90fd5b9190600862000ddb91029162000f8e6001600160a01b03841b90565b921b90565b919062000fa86200019d62000e019362000204565b90835462000f72565b9081549168010000000000000000831015620002ee578262000fdd916001620001c795018155620006aa565b9062000f93565b6200019d6200019d6200019d9290565b6200025d9062000fe4565b9b9894620010d898916200019d9e9c988e6200108f620010c89a620010e89f996200109d9662001079620010849262001072620010b99d6200106b620010ac9e6200105b6101a08c019d60008d01906001600160a01b03169052565b6001600160a01b031660208b0152565b6040890152565b6060870152565b608085019062000ff4565b60a083019062000ff4565b60c08184039101526200055c565b8c810360e08e0152906200055c565b926101008b019062000ff4565b8882036101208a01526200055c565b908682036101408801526200055c565b908482036101608601526200055c565b916101808184039101526200055c565b999897959091979694939296620011176000546001600160a01b031690565b90339a620011253062000204565b916200113060405190565b94612daf86019386851067ffffffffffffffff861117620002ee578f8f8f8f918f97938f97948f96958f968f948f9e8f9e620011769f612daf90620021ba903962000e67565b03906000f0958615620011e757620011a687620011a0620011e2996200119a600690565b62000fb1565b62000204565b9760008080947f0135f4d92213cf889e4f1ef4d560f39fdbd0b0fb274d3e0104201939d6bc2be09d620011d860405190565b9d8e9d8e62000fff565b0390a1565b62000f66565b620001c790620011fc62000cd8565b62001227565b9060ff9062000ddb565b906200121f6200019d62000e0192151590565b825462001202565b620001c7906200123b60019160036200020f565b6200120c565b620001c790620011ed565b620001c7906200125b62000cd8565b620001c7906200123b60009160036200020f565b620001c7906200124c565b620001c7906200128962000cd8565b620001c790600462000fb1565b620001c7906200127a565b620001c790620012b062000cd8565b620012c4565b620001c79160009162000f93565b620012d5620001c7916004620006aa565b90620012b6565b620001c790620012a1565b9062001305620012f9620007e6845490565b92600052602060002090565b9060005b818110620013175750505090565b909192620013446200133d6001926200133787546001600160a01b031690565b620007c5565b9460010190565b92910162001309565b906200019d91620012e7565b90620001c762001377926200136d60405190565b938480926200134d565b0383620002cb565b6200019d9062001359565b6200019d60066200137f565b90620001c791620013a662000cd8565b620014cd565b634e487b7160e01b600052601160045260246000fd5b9190600862000ddb91029162000f8e600019841b90565b9190620013ee6200019d62000e019362000fe4565b908354620013c2565b620001c791600091620013d9565b81811062001411575050565b80620014216000600193620013f7565b0162001405565b90918281106200143757505050565b620001c792909162001448565b9290565b908101910162001405565b90680100000000000000008111620002ee57620001c79160049062001428565b6004916200148d620014446001926200019d868662001453565b92049160005b838110620014a15750505050565b6001906020620014b36200019d865190565b940193818401550162001493565b90620001c79162001473565b90620014df620001c79260056200020f565b620014c1565b90620001c79162001396565b6200019d9081565b6200019d9054620014f1565b620015206200019d9162001517600090565b5060016200020f565b620014f9565b620015206200019d9162001538600090565b5060026200020f565b67ffffffffffffffff8111620002ee5760208091020190565b906200156a6200034a8362001541565b918252565b6200019d6080620002f4565b620015856200156f565b60008082526060602083018190526040830181905282015290565b6200019d6200157b565b60005b828110620015ba57505050565b602090620015c7620015a0565b8184015201620015ad565b90620001c7620015ed620015e6846200155a565b9362001541565b601f190160208401620015aa565b60001981146200160b5760010190565b620013ac565b90505190620001c78262000321565b90602082820312620001b3576200019d9162001611565b909291926200164a6200034a8262000909565b93818552602085019082840111620001b357620001c79262000537565b9080601f83011215620001b35781516200019d9260200162001637565b90602082820312620001b357815167ffffffffffffffff8111620001b3576200019d920162001667565b90620016b8825190565b81101562000448576020809102010190565b6006620016df620016d9825490565b620015d2565b906000620016ed8162000fe4565b90815b620016fd6200019d855490565b81101562001936576200175960206200171f620011a0620007088589620006aa565b630a771370906200174233926200173560405190565b9586948593849360e01b90565b83526001600160a01b031660048301526024820190565b03915afa908115620011e757839162001901575b50620017798362000fe4565b811162001793575b506200178d90620015fb565b620016f0565b8193620017ad620011a062000708620017db9589620006aa565b84620017c2620011a062000708898b620006aa565b63c3e20c9f90620017d260405190565b96879260e01b90565b825260049082905afa8015620011e75762001827948691620018e3575b50856200180e620011a0620007088a8c620006aa565b6303c29d58906200181e60405190565b97889260e01b90565b825260049082905afa938415620011e75762001886620018ad956200188d936200178d988a92620018b5575b506200187f9062001878620018676200156f565b6001600160a01b039098168c890152565b6020870152565b6040850152565b6060830152565b620018998289620016ae565b52620018a68188620016ae565b50620015fb565b929062001781565b6200187f919250620018db903d808d833e620018d28183620002cb565b81019062001684565b919062001853565b620018fa91503d8088833e620018d28183620002cb565b38620017f8565b62001927915060203d81116200192e575b6200191e8183620002cb565b81019062001620565b386200176d565b503d62001912565b5050505090565b156200194557565b60405162461bcd60e51b815260206004820152602f60248201527f496e73756666696369656e742062616c616e636520696e20706f6f6c20746f2060448201527f706179206f7574207265776172647300000000000000000000000000000000006064820152608490fd5b15620019b857565b60405162461bcd60e51b815260206004820152602a60248201527f496e73756666696369656e742062616c616e636520746f20776974686472617760448201527f2066726f6d20706f6f6c000000000000000000000000000000000000000000006064820152608490fd5b919082039182116200160b57565b906000199062000ddb565b9062001a506200019d62000e019262000fe4565b825462001a31565b62001a7c62001a673062000204565b82903162001a74565b9190565b10156200193d565b6001903362001a9d62001a946200152083866200020f565b831115620019b0565b60008080808562001ab2620011a08762000204565b82821562001aef575bf115620011e75762001ad662001ae891620001c7946200020f565b9162001ae283620014f9565b62001a23565b9062001a3c565b506108fc62001abb565b90620001c7929162001b0a62000cd8565b62001bd7565b1562001b1857565b60405162461bcd60e51b815260206004820152603060248201527f496e73756666696369656e742062616c616e636520696e20706f6f6c20746f2060448201527f77697468647261772072657761726473000000000000000000000000000000006064820152608490fd5b801515620001ab565b90505190620001c78262001b83565b90602082820312620001b3576200019d9162001b8c565b6001600160a01b03918216815291166020820152606081019291620001c79160400152565b909162001be49062000204565b6370a082319062001bf53062000204565b9162001c0b62001c0460405190565b9160e01b90565b81526001600160a01b0383166004820152602081602481855afa8015620011e75760209462001c4d60009262001c6e94849162001cbd575b5082111562001b10565b62001c7a6323b872dd9162001c6160405190565b9889978896879560e01b90565b85526004850162001bb2565b03925af18015620011e75762001c8d5750565b62001cb29060203d811162001cb5575b62001ca98183620002cb565b81019062001b9b565b50565b503d62001c9d565b62001cd89150883d81116200192e576200191e8183620002cb565b3862001c43565b90620001c7929162001af9565b60031115620001b357565b90505190620001c78262001cec565b90602082820312620001b3576200019d9162001cf7565b634e487b7160e01b600052602160045260246000fd5b6003111562001d3e57565b62001d1d565b90620001c78262001d33565b1562001d5857565b60405162461bcd60e51b815260206004820152600d60248201527f496e76616c6964207374617465000000000000000000000000000000000000006044820152606490fd5b6200019d9062000764565b6200019d905462001d9d565b1562001dbc57565b60405162461bcd60e51b815260206004820152601260248201527f546f6b656e206e6f7420616363657074656400000000000000000000000000006044820152606490fd5b6001600160a01b039091168152606081019392620001c792909160409162001e2a906020830152565b01906200070f565b6001600160a01b039091168152604081019291620001c79160200152565b9162001e60620011a08462000204565b9163c19d93fb9062001e7c62001e7560405190565b9260e01b90565b8252602082600481875afa918215620011e75760009262001fbd575b5062001ebd60009262001eb662001eaf8562001d44565b9162001d44565b1462001d50565b62001ede62001ed862001ed28360036200020f565b62001da8565b62001db4565b634cbc1553913394803b15620001b35762001f0893829162001eff60405190565b95869260e01b90565b825281838162001f1e888b8d6004850162001e01565b03925af1928315620011e75762001f3f9362001f89575b5050828462002002565b62001f6b7f0829c5c9dc5d14e41b11cfca0f01f76eba69b648ddcf9f84afba16ba8a76bf1c9262000204565b9262001f8462001f7a60405190565b9283928362001e32565b0390a2565b8162001fad92903d1062001fb5575b62001fa48183620002cb565b8101906200050e565b388062001f35565b503d62001f98565b62001fe491925060203d811162001fec575b62001fdb8183620002cb565b81019062001d06565b903862001e98565b503d62001fcf565b919082018092116200160b57565b90620020366200204e620001c79462001ae8936200204862002025838362002057565b62001ae8620020368960016200020f565b916200204283620014f9565b62001ff4565b62002057565b9260026200020f565b6200206a6729a2241af62c000062000fe4565b811015806200219c575b6200217d576200208c674563918244f4000062000fe4565b81118062002160575b6200214157620020ad678ac7230489e8000062000fe4565b81118062002123575b6200210457620020d362001a706802b5e3af16b188000062000fe4565b11620020e657506200019d600062000fe4565b6200047a620020fb6200019d9260056200020f565b60039062000431565b506200047a6200211a6200019d9260056200020f565b60029062000431565b50620021386802b5e3af16b188000062000fe4565b811115620020b6565b506200047a620021576200019d9260056200020f565b60019062000431565b5062002174678ac7230489e8000062000fe4565b81111562002095565b506200047a620021936200019d9260056200020f565b60009062000431565b50620021b0674563918244f4000062000fe4565b8111156200207456fe60806040523462000043576200003162000018620002e7565b9c9b909b9a919a999299989398979497969596620006bd565b6040516123ac62000a0382396123ac90f35b600080fd5b634e487b7160e01b600052604160045260246000fd5b90601f01601f191681019081106001600160401b038211176200008057604052565b62000048565b906200009d6200009560405190565b92836200005e565b565b6001600160a01b031690565b90565b6001600160a01b0381165b036200004357565b905051906200009d82620000ae565b80620000b9565b905051906200009d82620000d0565b6001600160401b0381116200008057602090601f01601f19160190565b0190565b60005b8381106200011b5750506000910152565b81810151838201526020016200010a565b90929192620001456200013f82620000e6565b62000086565b9381855260208501908284011162000043576200009d9262000107565b9080601f8301121562000043578151620000ab926020016200012c565b9190916101c08184031262000043576200019a8382620000c1565b92620001aa8160208401620000c1565b92604090620001bc83838601620000c1565b93620001cc8460608301620000c1565b93620001dc8160808401620000c1565b93620001ec8260a08501620000d7565b93620001fc8360c08601620000d7565b9360e0810151600180851b0381116200004357846200021d91830162000162565b93610100820151600180861b0381116200004357816200023f91840162000162565b93610120830151600180831b0381116200004357826200026191850162000162565b93610140840151600180841b0381116200004357836200028391860162000162565b93610160810151600180851b038111620000435784620002a591830162000162565b93610180820151600180861b038111620000435781620002c791840162000162565b936001806101a0850151921b0381116200004357620000ab920162000162565b6200030a62002daf80380380620002fe8162000086565b9283398101906200017f565b909192939495969798999a9b9c9d565b620000ab906200009f906001600160a01b031682565b620000ab906200031a565b620000ab9062000330565b906001600160a01b03905b9181191691161790565b906200036f620000ab62000377926200033b565b825462000346565b9055565b906000199062000351565b620000ab620000ab620000ab9290565b90620003aa620000ab620003779262000386565b82546200037b565b9060ff9062000351565b634e487b7160e01b600052602160045260246000fd5b60031115620003dd57565b620003bc565b906200009d82620003d2565b620000ab90620003e3565b906200040e620000ab6200037792620003ef565b8254620003b2565b9061ff009060081b62000351565b9062000437620000ab6200037792151590565b825462000416565b9062ff00009060101b62000351565b9062000461620000ab6200037792151590565b82546200043f565b634e487b7160e01b600052602260045260246000fd5b9060016002830492168015620004a2575b60208310146200049c57565b62000469565b91607f169162000490565b9160001960089290920291821b911b62000351565b9190620004d7620000ab620003779362000386565b908354620004ad565b6200009d91600091620004c2565b818110620004fa575050565b806200050a6000600193620004e0565b01620004ee565b9190601f81116200052157505050565b620005356200009d93600052602060002090565b906020601f84018190048301931062000559575b6020601f909101040190620004ee565b909150819062000549565b906200056e815190565b906001600160401b038211620000805762000596826200058f85546200047f565b8562000511565b602090601f8311600114620005d55762000377929160009183620005c9575b5050600019600883021c1916906002021790565b015190503880620005b5565b601f19831691620005eb85600052602060002090565b9260005b8181106200062c5750916002939185600196941062000612575b50505002019055565b01516000196008601f8516021c1916905538808062000609565b91936020600181928787015181550195019201620005ef565b906200009d9162000564565b801515620000b9565b905051906200009d8262000651565b906020828203126200004357620000ab916200065a565b9052565b620006809062000386565b6001600160a01b0390911681526040810192916200009d916020019062000684565b6040513d6000823e3d90fd5b9b98949c97939995919a9692909a730811029baf786c77f1adba0c0dc29952d012c37b620006eb906200033b565b620006f89060026200035b565b6200070862bc614e600362000396565b60009c8d6200071981600e620003fa565b6200072690600e62000424565b8d6200073481600e6200044e565b6200074190601662000396565b6200074c8a6200099e565b62000757906200033b565b620007649060016200035b565b6200076f8c6200033b565b6200077c9060046200035b565b62000787906200033b565b62000793908d6200035b565b6200079e906200033b565b98620007ac8a60056200035b565b620007b7906200033b565b9b620007c58d60066200035b565b620007d290600762000396565b620007df90600862000396565b620007ec90600c62000645565b620007f990600d62000645565b620008048862000386565b6200081190600a62000396565b6200081e90600f62000645565b6200082b90601062000645565b6200083890601162000645565b6200084590601362000645565b6200085290601262000645565b6200085d906200033b565b9063095ea7b3600160ff1b946200087360405190565b936200087f8360e01b90565b85528480620008938987600484016200068f565b0381885a94602095f19384156200092c57620008bf620008db92879260209762000932575b506200033b565b92620008e7620008ce60405190565b9889968795869460e01b90565b8452600484016200068f565b03925af19081156200092c5750620008fc5750565b620009219060203d811162000924575b6200091881836200005e565b81019062000669565b50565b503d6200090c565b620006b1565b6200094c90883d811162000924576200091881836200005e565b620008b8565b620009776200098160209362000103936200096b815190565b80835293849260200190565b9586910162000107565b601f01601f191690565b6020808252620000ab9291019062000952565b620009cf620009df6200009d92620009b560405190565b63104c13eb60e21b6020820152928391602483016200098b565b602082018103825203826200005e565b60008091620009f66a636f6e736f6c652e6c6f6790565b602082519201905afa5056fe60a0604052600436101561001257600080fd5b60003560e01c80630203d0021461022257806302d05d3f1461021d57806303c29d581461021857806307d94e4a146102135780630a7713701461020e57806318aa9f1e1461020957806324274ee914610204578063263a58aa146101ff57806328c30c07146101fa57806329dcb0cf146101f557806343ab265f146101f05780634c4cea5a146101eb5780634cbc1553146101e65780634e695a37146101e157806354214f69146101dc5780635eb32936146101d757806362d809a6146101d257806380007e83146101cd578063992a7dfb146101c8578063a278a485146101c3578063abb5ca09146101be578063b35a7dd4146101b9578063b40141bf146101b4578063b82c86d6146101af578063c19d93fb146101aa578063c3e20c9f146101a5578063c59ee1dc146101a0578063ca4b208b1461019b578063d170755114610196578063d5cef13314610191578063d688cf531461018c578063e9d1edde146101875763ff3a9c7e0361022757610e37565b610d3e565b610d26565b610d0b565b610cf0565b610cc9565b610ca2565b610c7b565b610c48565b610bd0565b610ba9565b610b7e565b610a5b565b610a34565b6109f4565b6108b6565b610891565b610853565b61081a565b6107dc565b6107c3565b610778565b610751565b610736565b61070d565b6106c9565b6106a2565b61067b565b610654565b61058c565b610565565b6103bb565b61034a565b600080fd5b805b0361022757565b905035906102428261022c565b565b906020828203126102275761025891610235565b90565b60005b83811061026e5750506000910152565b818101518382015260200161025e565b61029f6102a86020936102b293610293815190565b80835293849260200190565b9586910161025b565b601f01601f191690565b0190565b6001600160a01b031690565b9052565b9398979561032b60e09661032461031c6102429b9661033b9861030f6102fd8c6103329a610100820191600081840391015261027e565b6001600160a01b0390931660208d0152565b8a820360408c015261027e565b9c6060890152565b6080870152565b60a0850152565b151560c0830152565b01906001600160a01b03169052565b3461022757610381610365610360366004610244565b6122f8565b9461037898969894919493929360405190565b988998896102c6565b0390f35b600091031261022757565b610258916008021c6001600160a01b031690565b906102589154610390565b610258600060046103a4565b34610227576103cb366004610385565b6103816103d66103af565b604051918291826001600160a01b03909116815260200190565b634e487b7160e01b600052600060045260246000fd5b634e487b7160e01b600052602260045260246000fd5b906001600283049216801561043c575b602083101461043757565b610406565b91607f169161042c565b805460009392916104636104598361041c565b8085529360200190565b91600181169081156104b5575060011461047c57505050565b61048f9192939450600052602060002090565b916000925b8184106104a15750500190565b805484840152602090930192600101610494565b92949550505060ff1916825215156020020190565b9061025891610446565b634e487b7160e01b600052604160045260246000fd5b90601f01601f1916810190811067ffffffffffffffff82111761050c57604052565b6104d4565b9061024261052b9261052260405190565b938480926104ca565b03836104ea565b906000106105435761025890610511565b6103f0565b6102586000600d610532565b60208082526102589291019061027e565b3461022757610575366004610385565b610381610580610548565b60405191829182610554565b346102275761059c366004610385565b6103816105a76114b2565b6040519182918290815260200190565b6001600160a01b03811661022e565b90503590610242826105b7565b9060208282031261022757610258916105c6565b6102b6610258610258926001600160a01b031690565b610258906105e7565b610258906105fd565b9061061990610606565b600052602052604060002090565b610258916008021c81565b906102589154610627565b6102589061064f60149160009261060f565b610632565b34610227576103816105a761066a3660046105d3565b61063d565b61025860006011610532565b346102275761068b366004610385565b61038161058061066f565b6102586000600b610632565b34610227576106b2366004610385565b6103816105a7610696565b61025860006003610632565b34610227576106d9366004610385565b6103816105a76106bd565b80151561022e565b90503590610242826106e4565b9060208282031261022757610258916106ec565b34610227576107256107203660046106f9565b610fc8565b604051005b61025860006007610632565b3461022757610746366004610385565b6103816105a761072a565b34610227576103816105a76107673660046105d3565b6114bf565b61025860006009610632565b3461022757610788366004610385565b6103816105a761076c565b9091606082840312610227576102586107ac84846105c6565b936107ba8160208601610235565b936040016105c6565b34610227576107256107d6366004610793565b91611429565b34610227576107256107ef366004610244565b611bd0565b610258916008021c5b60ff1690565b9061025891546107f4565b6102586001600e610803565b346102275761082a366004610385565b61038161083561080e565b60405191829182901515815260200190565b61025860006012610532565b3461022757610863366004610385565b610381610580610847565b919060408382031261022757610258906108888185610235565b936020016105c6565b34610227576107256108a436600461086e565b90612221565b6102586002600e610803565b34610227576108c6366004610385565b6103816108356108aa565b6102586102586102589290565b90610619906108d1565b6102589081565b61025890546108e8565b610258906107fd565b61025890546108f9565b6102589060081c6102b6565b610258905461090c565b61092d9060156108de565b61093681610511565b9161094b60018301546001600160a01b031690565b9161095860028201610511565b91610965600383016108ef565b91610972600482016108ef565b916102586006610983818501610902565b9301610918565b9260c0949897956109e46109dc61033b956109eb946109cf6109bd6102429d9860e08c01908c600081840391015261027e565b6001600160a01b0390931660208b0152565b88820360408a015261027e565b9a6060870152565b6080850152565b151560a0830152565b3461022757610381610a0f610a0a366004610244565b610922565b93610a1f97959793919360405190565b9788978861098a565b61025860006013610532565b3461022757610a44366004610385565b610381610580610a28565b6102586000600f610532565b3461022757610a6b366004610385565b610381610580610a4f565b90610242610a8360405190565b92836104ea565b67ffffffffffffffff811161050c57602090601f01601f19160190565b90826000939282370152565b90929192610ac8610ac382610a8a565b610a76565b938185526020850190828401116102275761024292610aa7565b9080601f830112156102275781602061025893359101610ab3565b909160c08284031261022757813567ffffffffffffffff81116102275783610b26918401610ae2565b92610b348160208501610235565b92610b4282604083016105c6565b92610b5083606084016105c6565b9260808301359067ffffffffffffffff821161022757610b7581610258938601610ae2565b9360a001610235565b3461022757610725610b91366004610afd565b94939093929192611b0d565b61025860006016610632565b3461022757610bb9366004610385565b6103816105a7610b9d565b61025860006008610632565b3461022757610be0366004610385565b6103816105a7610bc4565b6102586000600e610803565b634e487b7160e01b600052602160045260246000fd5b60031115610c1757565b610bf7565b9061024282610c0d565b61025890610c1c565b6102c290610c26565b6020810192916102429190610c2f565b3461022757610c58366004610385565b610381610c63610beb565b60405191829182610c38565b6102586000600c610532565b3461022757610c8b366004610385565b610381610580610c6f565b6102586000600a610632565b3461022757610cb2366004610385565b6103816105a7610c96565b610258600060026103a4565b3461022757610cd9366004610385565b6103816103d6610cbd565b61025860006010610532565b3461022757610d00366004610385565b610381610580610ce4565b3461022757610d1b366004610385565b610381610835611716565b3461022757610725610d39366004610244565b610f6b565b3461022757610725610d513660046106f9565b611026565b9e9d9c9b999897959391928f9197959361020083019860008401610d81916001600160a01b03169052565b6001600160a01b031660208301526001600160a01b031660408201526060015260808d015260a08c015260c08b015260e08a01528881036101008a0152610dc79161027e565b878103610120890152610dd99161027e565b916101408701610de891610c2f565b610160860152848103610180860152610e009161027e565b8381036101a0850152610e129161027e565b8281036101c0840152610e249161027e565b90808203906101e001526102589161027e565b3461022757610e47366004610385565b610e7c610e52612234565b9e610e719e919e9d929d9c939c9b949b9a959a99969998979860405190565b608052608051610d56565b6080519003608051f35b15610e8d57565b60405162461bcd60e51b815260206004820152603660248201527f596f7520646f6e7420686176652061646d696e2061636365737320746f20706560448201527f72666f726d2074686973206f7065726174696f6e2021000000000000000000006064820152608490fd5b61024290610f3033610f2a610f1d610f186001546001600160a01b031690565b610606565b916001600160a01b031690565b14610e86565b610f60565b90600019905b9181191691161790565b90610f55610258610f5c926108d1565b8254610f35565b9055565b610242906003610f45565b61024290610ef8565b61024290610f9433610f2a610f1d610f186001546001600160a01b031690565b610fbd565b9061ff009060081b610f3b565b90610fb6610258610f5c92151590565b8254610f99565b61024290600e610fa6565b61024290610f74565b61024290610ff133610f2a610f1d610f186001546001600160a01b031690565b61101b565b9062ff00009060101b610f3b565b90611014610258610f5c92151590565b8254610ff6565b61024290600e611004565b61024290610fd1565b6102589060101c6107fd565b610258905461102f565b1561104c57565b60405162461bcd60e51b815260206004820152601860248201527f50726f6a656374206d75737420626520766572696669656400000000000000006044820152606490fd5b9061024292916110b66110a4600e61103b565b6110b060015b91151590565b14611045565b61112d565b156110c257565b60405162461bcd60e51b815260206004820152603c60248201527f596f7520646f206e6f74206861766520746865206d617374657220726967687460448201527f7320746f20706572666f726d2074686973206f7065726174696f6e21000000006064820152608490fd5b9061024292916111553361114f610f1d610f186000546001600160a01b031690565b146110bb565b611254565b634e487b7160e01b600052601160045260246000fd5b600019811461117f5760010190565b61115a565b9190820180921161117f57565b905051906102428261022c565b906020828203126102275761025891611191565b6001600160a01b0390911681526040810192916102429160209061033b565b6040513d6000823e3d90fd5b1561022757565b90505190610242826106e4565b9060208282031261022757610258916111e4565b6001600160a01b039182168152911660208201526060810192916102429160400152565b0152565b6001600160a01b039091168152606081019392610242929091604091611229906020830152565b916112c26014916112aa6112928661127461126f828861060f565b6108ef565b95600096611288611284896108d1565b9190565b146114085761060f565b6112a48661129f836108ef565b611184565b90610f45565b610f186112bb8561129f600a6108ef565b600a610f45565b9063dd62ed3e916112d230610606565b6112e56112de60405190565b9460e01b90565b8452602084806112f9848a600484016111b2565b0381855afa9182156113d65761131d602093879686916113db575b508611156111dd565b61133f846323b872dd61134b61133260405190565b9889968795869460e01b90565b84528c60048501611205565b03925af19081156113d657506113aa575b50611367600a6108ef565b9161139f7f5cdc4ab8d637538ead6cc1904d4160343656c8c82bd266635cfd31ac008fffe09361139660405190565b9384938461122d565b0390a1610242611454565b6113ca9060203d81116113cf575b6113c281836104ea565b8101906111f1565b61135c565b503d6113b8565b6111d1565b6113fb9150853d8111611401575b6113f381836104ea565b81019061119e565b38611314565b503d6113e9565b61142461141d611418600b6108ef565b611170565b600b610f45565b61060f565b906102429291611091565b9060ff90610f3b565b9061144d610258610f5c92610c26565b8254611434565b61145e600a6108ef565b61146e61128461025860086108ef565b1061148a5761147f6002600e61143d565b610242426009610f45565b4261149b61128461025860076108ef565b111561147f576114ad6001600e61143d565b61147f565b6114bb30610606565b3190565b60206114d6611516926114d0600090565b50610606565b6370a08231906114ff6114e830610606565b926114f260405190565b9586948593849360e01b90565b83526001600160a01b031660048301526024820190565b03915afa9081156113d65760009161152c575090565b610258915060203d8111611401576113f381836104ea565b1561154b57565b60405162461bcd60e51b815260206004820152600d60248201527f496e76616c6964207374617465000000000000000000000000000000000000006044820152606490fd5b1561159757565b60405162461bcd60e51b815260206004820152601560248201527f446561646c696e652068617320706173736564202100000000000000000000006044820152606490fd5b6102589061160760016116016115fb6115f5600e610902565b92610c1c565b91610c1c565b14611544565b6116214261161b61128461025860076108ef565b10611590565b611698565b1561162d57565b60405162461bcd60e51b815260206004820152602660248201527f596f7520646f6e74206861766520616e7920636f6e747269627574656420616d60448201527f6f756e74202100000000000000000000000000000000000000000000000000006064820152608490fd5b503360146116a961126f838361060f565b6116c16000916116bb611284846108d1565b11611626565b808080806116d1610f1888610606565b6116de61126f898961060f565b9082821561170d575bf1156113d657611708926116fd611703926108d1565b9261060f565b610f45565b600190565b506108fc6116e7565b61025860006115dc565b1561172757565b60405162461bcd60e51b815260206004820152603860248201527f596f7520646f6e7420686176652063726561746f722061636365737320746f2060448201527f706572666f726d2074686973206f7065726174696f6e202100000000000000006064820152608490fd5b9061024295949392916117bd336117b7610f1d610f186004546001600160a01b031690565b14611720565b9061024295949392916117db60026116016115fb6115f5600e610902565b6117ef4261161b61128461025860076108ef565b611a53565b91906008610f3b910291611809600019841b90565b921b90565b919061181f610258610f5c936108d1565b9083546117f4565b6102429160009161180e565b81811061183e575050565b8061184c6000600193611827565b01611833565b9190601f811161186157505050565b61187361024293600052602060002090565b906020601f840181900483019310611895575b6020601f909101040190611833565b9091508190611886565b906118a8815190565b9067ffffffffffffffff821161050c576118cc826118c6855461041c565b85611852565b602090601f831160011461190757610f5c9291600091836118fc575b5050600019600883021c1916906002021790565b0151905038806118e8565b601f1983169161191c85600052602060002090565b9260005b81811061195a57509160029391856001969410611941575b50505002019055565b01516000196008601f8516021c19169055388080611938565b91936020600181928787015181550195019201611920565b906102429161189f565b906001600160a01b0390610f3b565b9061199b610258610f5c92610606565b825461197c565b9061144d610258610f5c92151590565b9074ffffffffffffffffffffffffffffffffffffffff009060081b610f3b565b906119e2610258610f5c92610606565b82546119b2565b6102c2906108d1565b6102c290610606565b9260c094989795611a426109dc6109eb93611a346102429b96611a4c98611a2760e08c019260008d0152565b8a820360208c015261027e565b9088820360408a015261027e565b60808501906119e9565b01906119f2565b939492611a80611a6c610258611b0895949660156108de565b91611a778784611972565b6001830161198b565b611a8d8660028301611972565b611a9a8460038301610f45565b611ac8826006600093611ab8611aaf866108d1565b60048301610f45565b01611ac384826119a2565b6119d2565b80611ad360166108ef565b947f4155121c72ca95297a55d3963daac6d430e184f4fc497ce898b36ee9a834eec197611aff60405190565b978897886119fb565b0390a1565b906102429594939291611792565b15611b2257565b60405162461bcd60e51b815260206004820152601b60248201527f4f6e6c7920636f6e7472696275746f722063616e20766f7465202100000000006044820152606490fd5b15611b6e57565b60405162461bcd60e51b815260206004820152601360248201527f596f7520616c726561647920766f7465642021000000000000000000000000006044820152606490fd5b6001600160a01b0390911681526040810192916102429160200152565b3390611c6d9061126f611c676004611c5b86611c56611c17610258611bf78885601461060f565b98611c1060009a611c0a6112848d6108d1565b11611b1b565b60156108de565b96611c446005890191611c3e6110aa611c38611c33888761060f565b610902565b92151590565b14611b67565b611c51600193849261060f565b6119a2565b6108d1565b93019261129f846108ef565b82610f45565b7fa2925e4595bf873fa82c22a1a89809777347023bf2b502d32710157a5eb8199c91611b08611c9b60405190565b92839283611bb3565b9061024291611cc5336117b7610f1d610f186004546001600160a01b031690565b9061024291611cdf60026116016115fb6115f5600e610902565b611cf34261161b61128461025860076108ef565b611edc565b15611cff57565b60405162461bcd60e51b815260206004820152601960248201527f5265717565737420616c726561647920636f6d706c65746564000000000000006044820152606490fd5b634e487b7160e01b600052601260045260246000fd5b8115611d64570490565b611d44565b15611d7057565b60405162461bcd60e51b815260206004820152603660248201527f4174206c656173742032302520636f6e7472696275746f72206e65656420746f60448201527f20766f746520666f7220746869732072657175657374000000000000000000006064820152608490fd5b15611de257565b60405162461bcd60e51b815260206004820152603960248201527f50726f6a65637420636f6e747261637420646f6573206e6f742068617665206560448201527f6e6f7567682062616c616e636520746f206469736275727365000000000000006064820152608490fd5b8181029291811591840414171561117f57565b6001600160a01b0390911681526060810193926102429290916040916112299060208301906119f2565b929796946109eb906109e460c096611ed5611ec36102429b96611a4c98611eb660e08c019260008d0152565b8a820360208c0152610446565b6001600160a01b03909d166040890152565b6060870152565b611eea6102588260156108de565b906006820192611ef984610902565b600090611f0f90611f09836110aa565b14611cf8565b6004840190611f4a611f20836108ef565b611f43611284610258611f33600b6108ef565b611f3d60056108d1565b90611d5a565b1015611d69565b6003850195611f61611f5b886108ef565b94610606565b6370a08231611f6f30610606565b95611f83611f7c60405190565b9260e01b90565b82526001600160a01b0387166004830152602082602481865afa80156113d657611284611fb891611fbf94889161152c575090565b1115611ddb565b6323b872dd94611fce83610918565b611fd78a6108ef565b60206120108961201c612002611ff2603296611f3d886108d1565b611ffc60316108d1565b90611e4d565b604051968794859460e01b90565b84528860048501611e60565b038189885af19182156113d6578b92612205575b504261204261128461025860036108ef565b116121a75750506001546001600160a01b03169161205f8a6108ef565b602061201089612085612077606495611f3d876108d1565b604051988994859460e01b90565b038189865af19081156113d6578b986120e86120cd89936020986120dd9661218c575b50611f3d6120c76120c16002546001600160a01b031690565b9e6108ef565b916108d1565b6040519b8c978896879560e01b90565b855260048501611e60565b03925af19384156113d657611b0894612170575b505b61213b61213561212f6121296001809661211882886119a2565b8b019a01546001600160a01b031690565b996108ef565b946108ef565b91610918565b927f4b318eefdd7bb107016b6a285ad8d255001224edad6fe9a0dd934ee9f3e911c59761216760405190565b97889788611e8a565b6121879060203d81116113cf576113c281836104ea565b6120fc565b6121a2908a3d81116113cf576113c281836104ea565b6120a8565b8560209492986121cf6120cd6120dd94611f3d6120c76120c16001546001600160a01b031690565b03925af19384156113d657611b08946121e9575b506120fe565b6122009060203d81116113cf576113c281836104ea565b6121e3565b61221c9060203d81116113cf576113c281836104ea565b612030565b9061024291611ca4565b61025890610511565b6004546001600160a01b03169061224b60076108ef565b9061225660086108ef565b9161226160096108ef565b9261226c600a6108ef565b92612277600c61222b565b94612282600d61222b565b9461228d600e610902565b9661229730610606565b31966122a3600f61222b565b986122ae601061222b565b986122b9601161222b565b9a6122c4601261222b565b9a6122d76005546001600160a01b031690565b9c6122ea6006546001600160a01b031690565b9c6122f5600b6108ef565b9a565b61025861230f91612307606090565b5060156108de565b612319600b6108ef565b906123238161222b565b926123306002830161222b565b9161234560018201546001600160a01b031690565b93612352600383016108ef565b926006612361600485016108ef565b93019061025861237083610902565b9261091856fea2646970667358221220bfc124648f4c5db7f199553462fb7ed2f8410e4de8219b601c3f6780ed3f877864736f6c63430008120033a2646970667358221220d3c0db377806a1bead8c97d722523a2cd7abe87dafbbd752db525f4a92a11ffe64736f6c63430008120033",
  "linkReferences": {},
  "deployedLinkReferences": {}
}