{
  "_format": "hh-sol-artifact-1",
  "contractName": "Crowdfunding",
  "sourceName": "contracts/Crowdfunding.sol",
  "abi": [
    {
      "anonymous": false,
      "inputs": [
        {
          "indexed": false,
          "internalType": "address",
          "name": "projectAddress",
          "type": "address"
        },
        {
          "indexed": false,
          "internalType": "uint256",
          "name": "contributedAmount",
          "type": "uint256"
        },
        {
          "indexed": true,
          "internalType": "address",
          "name": "contributor",
          "type": "address"
        }
      ],
      "name": "ContributionReceived",
      "type": "event"
    },
    {
      "anonymous": false,
      "inputs": [
        {
          "indexed": true,
          "internalType": "address",
          "name": "previousOwner",
          "type": "address"
        },
        {
          "indexed": true,
          "internalType": "address",
          "name": "newOwner",
          "type": "address"
        }
      ],
      "name": "OwnershipTransferred",
      "type": "event"
    },
    {
      "anonymous": false,
      "inputs": [
        {
          "indexed": false,
          "internalType": "address",
          "name": "projectContractAddress",
          "type": "address"
        },
        {
          "indexed": false,
          "internalType": "address",
          "name": "creator",
          "type": "address"
        },
        {
          "indexed": false,
          "internalType": "uint256",
          "name": "projectDeadline",
          "type": "uint256"
        },
        {
          "indexed": false,
          "internalType": "uint256",
          "name": "goalAmount",
          "type": "uint256"
        },
        {
          "indexed": false,
          "internalType": "uint256",
          "name": "currentAmount",
          "type": "uint256"
        },
        {
          "indexed": false,
          "internalType": "uint256",
          "name": "noOfContributors",
          "type": "uint256"
        },
        {
          "indexed": false,
          "internalType": "string",
          "name": "title",
          "type": "string"
        },
        {
          "indexed": false,
          "internalType": "string",
          "name": "desc",
          "type": "string"
        },
        {
          "indexed": false,
          "internalType": "uint256",
          "name": "currentState",
          "type": "uint256"
        },
        {
          "indexed": false,
          "internalType": "string",
          "name": "websiteUrl",
          "type": "string"
        },
        {
          "indexed": false,
          "internalType": "string",
          "name": "socialUrl",
          "type": "string"
        },
        {
          "indexed": false,
          "internalType": "string",
          "name": "projectCoverUrl",
          "type": "string"
        },
        {
          "indexed": false,
          "internalType": "string",
          "name": "filterTags",
          "type": "string"
        }
      ],
      "name": "ProjectStarted",
      "type": "event"
    },
    {
      "stateMutability": "payable",
      "type": "fallback"
    },
    {
      "inputs": [
        {
          "internalType": "contract IERC20",
          "name": "",
          "type": "address"
        }
      ],
      "name": "acceptedTokens",
      "outputs": [
        {
          "internalType": "bool",
          "name": "",
          "type": "bool"
        }
      ],
      "stateMutability": "view",
      "type": "function"
    },
    {
      "inputs": [
        {
          "internalType": "contract IERC20",
          "name": "tokenAddress",
          "type": "address"
        }
      ],
      "name": "addAcceptedContributionToken",
      "outputs": [],
      "stateMutability": "nonpayable",
      "type": "function"
    },
    {
      "inputs": [
        {
          "internalType": "contract IERC20",
          "name": "tokenAddress",
          "type": "address"
        }
      ],
      "name": "addRewardTokenAddress",
      "outputs": [],
      "stateMutability": "nonpayable",
      "type": "function"
    },
    {
      "inputs": [
        {
          "internalType": "contract IERC20",
          "name": "tokenAddress",
          "type": "address"
        },
        {
          "internalType": "uint256[4]",
          "name": "rewardTiers",
          "type": "uint256[4]"
        }
      ],
      "name": "addRewardTokenTier",
      "outputs": [],
      "stateMutability": "nonpayable",
      "type": "function"
    },
    {
      "inputs": [
        {
          "internalType": "address",
          "name": "_projectAddress",
          "type": "address"
        },
        {
          "internalType": "contract IERC20",
          "name": "token",
          "type": "address"
        },
        {
          "internalType": "uint256",
          "name": "amount",
          "type": "uint256"
        }
      ],
      "name": "contribute",
      "outputs": [],
      "stateMutability": "nonpayable",
      "type": "function"
    },
    {
      "inputs": [
        {
          "internalType": "uint256",
          "name": "deadline",
          "type": "uint256"
        },
        {
          "internalType": "uint256",
          "name": "targetContribution",
          "type": "uint256"
        },
        {
          "internalType": "string",
          "name": "projectTitle",
          "type": "string"
        },
        {
          "internalType": "string",
          "name": "projectDesc",
          "type": "string"
        },
        {
          "internalType": "string",
          "name": "websiteUrl",
          "type": "string"
        },
        {
          "internalType": "string",
          "name": "socialUrl",
          "type": "string"
        },
        {
          "internalType": "string",
          "name": "githubUrl",
          "type": "string"
        },
        {
          "internalType": "string",
          "name": "projectCoverUrl",
          "type": "string"
        },
        {
          "internalType": "string",
          "name": "filterTags",
          "type": "string"
        },
        {
          "internalType": "address",
          "name": "usdt",
          "type": "address"
        },
        {
          "internalType": "address",
          "name": "usdc",
          "type": "address"
        }
      ],
      "name": "createProject",
      "outputs": [],
      "stateMutability": "nonpayable",
      "type": "function"
    },
    {
      "inputs": [],
      "name": "getContributedProject",
      "outputs": [
        {
          "components": [
            {
              "internalType": "address",
              "name": "projectAddress",
              "type": "address"
            },
            {
              "internalType": "string",
              "name": "title",
              "type": "string"
            },
            {
              "internalType": "string",
              "name": "descriptions",
              "type": "string"
            },
            {
              "internalType": "uint256",
              "name": "contributedAmount",
              "type": "uint256"
            }
          ],
          "internalType": "struct Crowdfunding.ProjectArray[]",
          "name": "",
          "type": "tuple[]"
        }
      ],
      "stateMutability": "view",
      "type": "function"
    },
    {
      "inputs": [],
      "name": "owner",
      "outputs": [
        {
          "internalType": "address",
          "name": "",
          "type": "address"
        }
      ],
      "stateMutability": "view",
      "type": "function"
    },
    {
      "inputs": [
        {
          "internalType": "contract IERC20",
          "name": "tokenAddress",
          "type": "address"
        }
      ],
      "name": "removeAcceptedContributionToken",
      "outputs": [],
      "stateMutability": "nonpayable",
      "type": "function"
    },
    {
      "inputs": [
        {
          "internalType": "uint256",
          "name": "rewardTokenAddressesIndex",
          "type": "uint256"
        }
      ],
      "name": "removeRewardTokenAddress",
      "outputs": [],
      "stateMutability": "nonpayable",
      "type": "function"
    },
    {
      "inputs": [],
      "name": "renounceOwnership",
      "outputs": [],
      "stateMutability": "nonpayable",
      "type": "function"
    },
    {
      "inputs": [],
      "name": "returnAllProjects",
      "outputs": [
        {
          "internalType": "contract Project[]",
          "name": "",
          "type": "address[]"
        }
      ],
      "stateMutability": "view",
      "type": "function"
    },
    {
      "inputs": [
        {
          "internalType": "uint256",
          "name": "",
          "type": "uint256"
        }
      ],
      "name": "rewardTokenAddresses",
      "outputs": [
        {
          "internalType": "contract IERC20",
          "name": "",
          "type": "address"
        }
      ],
      "stateMutability": "view",
      "type": "function"
    },
    {
      "inputs": [
        {
          "internalType": "contract IERC20",
          "name": "",
          "type": "address"
        },
        {
          "internalType": "uint256",
          "name": "",
          "type": "uint256"
        }
      ],
      "name": "rewardTokensTiers",
      "outputs": [
        {
          "internalType": "uint256",
          "name": "",
          "type": "uint256"
        }
      ],
      "stateMutability": "view",
      "type": "function"
    },
    {
      "inputs": [
        {
          "internalType": "address",
          "name": "",
          "type": "address"
        }
      ],
      "name": "rewards",
      "outputs": [
        {
          "internalType": "uint256",
          "name": "",
          "type": "uint256"
        }
      ],
      "stateMutability": "view",
      "type": "function"
    },
    {
      "inputs": [
        {
          "internalType": "address",
          "name": "contributor",
          "type": "address"
        }
      ],
      "name": "showRewardUser",
      "outputs": [
        {
          "internalType": "uint256",
          "name": "",
          "type": "uint256"
        }
      ],
      "stateMutability": "view",
      "type": "function"
    },
    {
      "inputs": [
        {
          "internalType": "address",
          "name": "contributor",
          "type": "address"
        }
      ],
      "name": "showTotalRewardUser",
      "outputs": [
        {
          "internalType": "uint256",
          "name": "",
          "type": "uint256"
        }
      ],
      "stateMutability": "view",
      "type": "function"
    },
    {
      "inputs": [
        {
          "internalType": "address",
          "name": "",
          "type": "address"
        }
      ],
      "name": "totalRewards",
      "outputs": [
        {
          "internalType": "uint256",
          "name": "",
          "type": "uint256"
        }
      ],
      "stateMutability": "view",
      "type": "function"
    },
    {
      "inputs": [
        {
          "internalType": "address",
          "name": "newOwner",
          "type": "address"
        }
      ],
      "name": "transferOwnership",
      "outputs": [],
      "stateMutability": "nonpayable",
      "type": "function"
    },
    {
      "inputs": [
        {
          "internalType": "uint256",
          "name": "amount",
          "type": "uint256"
        },
        {
          "internalType": "address",
          "name": "recipientAddress",
          "type": "address"
        },
        {
          "internalType": "contract IERC20",
          "name": "tokenAddress",
          "type": "address"
        }
      ],
      "name": "withdrawPooledRewards",
      "outputs": [],
      "stateMutability": "nonpayable",
      "type": "function"
    },
    {
      "inputs": [
        {
          "internalType": "uint256",
          "name": "amount",
          "type": "uint256"
        }
      ],
      "name": "withdrawUserRewards",
      "outputs": [],
      "stateMutability": "nonpayable",
      "type": "function"
    }
  ],
  "bytecode": "0x6080604052346200002657620000146200002b565b60405161539062000126823961539090f35b600080fd5b6200003562000037565b565b6200003533620000c3565b62000054905b6001600160a01b031690565b90565b62000054905462000042565b620000549062000048906001600160a01b031682565b620000549062000063565b620000549062000079565b90620000a362000054620000bf9262000084565b82546001600160a01b0319166001600160a01b03919091161790565b9055565b620000cf600062000057565b90620000dd8160006200008f565b620001146200010d7f8be0079c531659141344cd1fd0a4f28419497f9722a3daafe3b4186f6b6457e09362000084565b9162000084565b916200011f60405190565b600090a356fe608060405260043610156200001057005b60003560e01c80630700037d146200018b5780631ed2eb4b146200018557806325f0fc2d146200017f57806343746a371462000179578063606266f51462000173578063715018a6146200016d578063773bbb1714620001675780637b2d9b2c146200016157806382dc4a05146200015b57806385b6e28e14620001555780638d472709146200014f5780638da5cb5b14620001495780638e4182df1462000143578063945bbdcd146200013d5780639dd2764a1462000137578063a3df77791462000131578063ab7573dd146200012b578063bb7252d81462000125578063eca38989146200011f578063f2653b0e14620001195763f2fde38b146200011357005b62000c16565b62000bf9565b62000bdb565b62000b83565b62000b62565b62000b30565b62000b13565b62000af2565b62000ac8565b620008c5565b620008a7565b62000842565b62000792565b6200072c565b6200067c565b6200051a565b620004f1565b620004bd565b62000484565b620003d0565b62000261565b6001600160a01b031690565b90565b6001600160a01b0381165b03620001b357565b600080fd5b90503590620001c782620001a0565b565b90602082820312620001b3576200019d91620001b8565b620001916200019d6200019d926001600160a01b031690565b6200019d90620001e0565b6200019d90620001f9565b906200021b9062000204565b600052602052604060002090565b6200019d916008021c81565b906200019d915462000229565b6200019d90620002576001916000926200020f565b62000235565b9052565b34620001b35762000292620002826200027c366004620001c9565b62000242565b6040519182918290815260200190565b0390f35b6001600160a01b038116620001ab565b90503590620001c78262000296565b634e487b7160e01b600052604160045260246000fd5b90601f01601f1916810190811067ffffffffffffffff821117620002ee57604052565b620002b5565b90620001c76200030360405190565b9283620002cb565b67ffffffffffffffff8111620002ee5760200290565b80620001ab565b90503590620001c78262000321565b90929192620003506200034a826200030b565b620002f4565b936020859202830192818411620001b357915b838310620003715750505050565b6020809162000381848662000328565b81520192019162000363565b9080601f83011215620001b3576200019d9160049062000337565b919060a083820312620001b3576200019d90620003c68185620002a6565b936020016200038d565b34620001b357620003ee620003e7366004620003a8565b90620014e5565b604051005b9190604083820312620001b3576200019d90620004118185620002a6565b9360200162000328565b634e487b7160e01b600052603260045260246000fd5b600482101562000448576001905b91020190600090565b6200041b565b6200045e6005916000926200020f565b9060048310156200048157506200019d916200047a9162000431565b9062000235565b80fd5b34620001b35762000292620002826200049f366004620003f3565b906200044e565b90602082820312620001b3576200019d9162000328565b34620001b357620003ee620004d4366004620004a6565b620012dc565b90602082820312620001b3576200019d91620002a6565b34620001b357620003ee62000508366004620004da565b62001296565b6000910312620001b357565b34620001b3576200052d3660046200050e565b620003ee62000c78565b60005b8381106200054b5750506000910152565b81810151838201526020016200053a565b620005816200058b602093620005959362000575815190565b80835293849260200190565b9586910162000537565b601f01601f191690565b0190565b80516001600160a01b03168252906200019d90606080620005e1620005ce60808501602088015186820360208801526200055c565b604087015185820360408701526200055c565b940151910152565b906200019d9162000599565b906200060d62000603835190565b8083529160200190565b9081620006206020830284019460200190565b926000915b8383106200063557505050505090565b909192939460206200065b6200065483856001950387528951620005e9565b9760200190565b930193019193929062000625565b60208082526200019d92910190620005f5565b34620001b3576200068f3660046200050e565b620002926200069d620016ca565b6040519182918262000669565b805482101562000448576200043f600191600052602060002090565b6200019d916008021c62000191565b906200019d9154620006c6565b60046000620006ef825490565b8310156200048157506200019d916200070891620006aa565b90620006d5565b6200025d9062000204565b602081019291620001c791906200070f565b34620001b357620002926200074d62000747366004620004a6565b620006e2565b604051918291826200071a565b6200019d916008021c5b60ff1690565b906200019d91546200075a565b6200019d906200078c6003916000926200020f565b6200076a565b34620001b35762000292620007b3620007ad366004620004da565b62000777565b60405191829182901515815260200190565b9062000595816020936200070f565b90620007f7620007f0620007e6845190565b8084529260200190565b9260200190565b9060005b818110620008095750505090565b909192620008266200081f6001928651620007c5565b9460200190565b929101620007fb565b60208082526200019d92910190620007d4565b34620001b357620008553660046200050e565b62000292620008636200138a565b604051918291826200082f565b9091606082840312620001b3576200019d6200088d8484620001b8565b936200089d8160208601620002a6565b9360400162000328565b34620001b357620003ee620008be36600462000870565b9162001e50565b34620001b357620008d83660046200050e565b62000292620008ef6000546001600160a01b031690565b604051918291826001600160a01b03909116815260200190565b67ffffffffffffffff8111620002ee57602090601f01601f19160190565b90826000939282370152565b90929192620009466200034a8262000909565b93818552602085019082840111620001b357620001c79262000927565b9080601f83011215620001b3578160206200019d9335910162000933565b919061016083820312620001b3576200099b818462000328565b92620009ab826020830162000328565b92604082013567ffffffffffffffff8111620001b35783620009cf91840162000963565b92606083013567ffffffffffffffff8111620001b35781620009f391850162000963565b92608081013567ffffffffffffffff8111620001b3578262000a1791830162000963565b9260a082013567ffffffffffffffff8111620001b3578362000a3b91840162000963565b9260c083013567ffffffffffffffff8111620001b3578162000a5f91850162000963565b9260e081013567ffffffffffffffff8111620001b3578262000a8391830162000963565b9261010082013567ffffffffffffffff8111620001b35762000aac846200019d92850162000963565b9362000abd816101208601620001b8565b9361014001620001b8565b34620001b357620003ee62000adf36600462000981565b99989098979197969296959395620010f8565b34620001b357620002926200028262000b0d366004620001c9565b62001526565b34620001b357620003ee62000b2a366004620004da565b6200126f565b34620001b357620003ee62000b47366004620004da565b62001241565b6200019d90620002576002916000926200020f565b34620001b357620002926200028262000b7d366004620001c9565b62000b4d565b34620001b357620002926200028262000b9e366004620001c9565b62001505565b9091606082840312620001b3576200019d62000bc1848462000328565b9362000bd18160208601620001b8565b93604001620002a6565b34620001b357620003ee62000bf236600462000ba4565b9162001cdf565b34620001b357620003ee62000c10366004620004a6565b62001a58565b34620001b357620003ee62000c2d366004620001c9565b62000dc5565b62000c3d62000cd8565b620001c762000c62565b620001916200019d6200019d9290565b6200019d9062000c47565b620001c762000c72600062000c57565b62000e05565b620001c762000c33565b1562000c8a57565b60405162461bcd60e51b81528062000cd4600482016020808252818101527f4f776e61626c653a2063616c6c6572206973206e6f7420746865206f776e6572604082015260600190565b0390fd5b620001c762000cef6000546001600160a01b031690565b62000d0b62000cfe3362000191565b916001600160a01b031690565b1462000c82565b620001c79062000d2162000cd8565b62000d9a565b1562000d2f57565b60405162461bcd60e51b815260206004820152602660248201527f4f776e61626c653a206e6577206f776e657220697320746865207a65726f206160448201527f64647265737300000000000000000000000000000000000000000000000000006064820152608490fd5b620001c79062000c7262000db362000191600062000c57565b6001600160a01b038316141562000d27565b620001c79062000d12565b906001600160a01b03905b9181191691161790565b9062000df96200019d62000e019262000204565b825462000dd0565b9055565b6000546001600160a01b03169062000e1f81600062000de5565b62000e5662000e4f7f8be0079c531659141344cd1fd0a4f28419497f9722a3daafe3b4186f6b6457e09362000204565b9162000204565b9162000e6160405190565b600090a3565b9c9b9a999897969492909593918d6101c08101976000820162000e91916001600160a01b03169052565b60200162000ea6916001600160a01b03169052565b6001600160a01b031660408d01526001600160a01b031660608c01526001600160a01b031660808b015260a08a015260c089015287810360e089015262000eed916200055c565b86810361010088015262000f01916200055c565b85810361012087015262000f15916200055c565b84810361014086015262000f29916200055c565b83810361016085015262000f3d916200055c565b82810361018084015262000f51916200055c565b90808203906101a001526200019d916200055c565b6040513d6000823e3d90fd5b9190600862000ddb91029162000f8e6001600160a01b03841b90565b921b90565b919062000fa86200019d62000e019362000204565b90835462000f72565b9081549168010000000000000000831015620002ee578262000fdd916001620001c795018155620006aa565b9062000f93565b6200019d6200019d6200019d9290565b6200025d9062000fe4565b9b9894620010d898916200019d9e9c988e6200108f620010c89a620010e89f996200109d9662001079620010849262001072620010b99d6200106b620010ac9e6200105b6101a08c019d60008d01906001600160a01b03169052565b6001600160a01b031660208b0152565b6040890152565b6060870152565b608085019062000ff4565b60a083019062000ff4565b60c08184039101526200055c565b8c810360e08e0152906200055c565b926101008b019062000ff4565b8882036101208a01526200055c565b908682036101408801526200055c565b908482036101608601526200055c565b916101808184039101526200055c565b999897959091979694939296620011176000546001600160a01b031690565b90339a620011253062000204565b916200113060405190565b946131a186019386851067ffffffffffffffff861117620002ee578f8f8f8f918f97938f97948f96958f968f948f9e8f9e620011769f6131a190620021ba903962000e67565b03906000f0958615620011e757620011a687620011a0620011e2996200119a600690565b62000fb1565b62000204565b9760008080947f0135f4d92213cf889e4f1ef4d560f39fdbd0b0fb274d3e0104201939d6bc2be09d620011d860405190565b9d8e9d8e62000fff565b0390a1565b62000f66565b620001c790620011fc62000cd8565b62001227565b9060ff9062000ddb565b906200121f6200019d62000e0192151590565b825462001202565b620001c7906200123b60019160036200020f565b6200120c565b620001c790620011ed565b620001c7906200125b62000cd8565b620001c7906200123b60009160036200020f565b620001c7906200124c565b620001c7906200128962000cd8565b620001c790600462000fb1565b620001c7906200127a565b620001c790620012b062000cd8565b620012c4565b620001c79160009162000f93565b620012d5620001c7916004620006aa565b90620012b6565b620001c790620012a1565b9062001305620012f9620007e6845490565b92600052602060002090565b9060005b818110620013175750505090565b909192620013446200133d6001926200133787546001600160a01b031690565b620007c5565b9460010190565b92910162001309565b906200019d91620012e7565b90620001c762001377926200136d60405190565b938480926200134d565b0383620002cb565b6200019d9062001359565b6200019d60066200137f565b90620001c791620013a662000cd8565b620014cd565b634e487b7160e01b600052601160045260246000fd5b9190600862000ddb91029162000f8e600019841b90565b9190620013ee6200019d62000e019362000fe4565b908354620013c2565b620001c791600091620013d9565b81811062001411575050565b80620014216000600193620013f7565b0162001405565b90918281106200143757505050565b620001c792909162001448565b9290565b908101910162001405565b90680100000000000000008111620002ee57620001c79160049062001428565b6004916200148d620014446001926200019d868662001453565b92049160005b838110620014a15750505050565b6001906020620014b36200019d865190565b940193818401550162001493565b90620001c79162001473565b90620014df620001c79260056200020f565b620014c1565b90620001c79162001396565b6200019d9081565b6200019d9054620014f1565b620015206200019d9162001517600090565b5060016200020f565b620014f9565b620015206200019d9162001538600090565b5060026200020f565b67ffffffffffffffff8111620002ee5760208091020190565b906200156a6200034a8362001541565b918252565b6200019d6080620002f4565b620015856200156f565b60008082526060602083018190526040830181905282015290565b6200019d6200157b565b60005b828110620015ba57505050565b602090620015c7620015a0565b8184015201620015ad565b90620001c7620015ed620015e6846200155a565b9362001541565b601f190160208401620015aa565b60001981146200160b5760010190565b620013ac565b90505190620001c78262000321565b90602082820312620001b3576200019d9162001611565b909291926200164a6200034a8262000909565b93818552602085019082840111620001b357620001c79262000537565b9080601f83011215620001b35781516200019d9260200162001637565b90602082820312620001b357815167ffffffffffffffff8111620001b3576200019d920162001667565b90620016b8825190565b81101562000448576020809102010190565b6006620016df620016d9825490565b620015d2565b906000620016ed8162000fe4565b90815b620016fd6200019d855490565b81101562001936576200175960206200171f620011a0620007088589620006aa565b630a771370906200174233926200173560405190565b9586948593849360e01b90565b83526001600160a01b031660048301526024820190565b03915afa908115620011e757839162001901575b50620017798362000fe4565b811162001793575b506200178d90620015fb565b620016f0565b8193620017ad620011a062000708620017db9589620006aa565b84620017c2620011a062000708898b620006aa565b63c3e20c9f90620017d260405190565b96879260e01b90565b825260049082905afa8015620011e75762001827948691620018e3575b50856200180e620011a0620007088a8c620006aa565b6303c29d58906200181e60405190565b97889260e01b90565b825260049082905afa938415620011e75762001886620018ad956200188d936200178d988a92620018b5575b506200187f9062001878620018676200156f565b6001600160a01b039098168c890152565b6020870152565b6040850152565b6060830152565b620018998289620016ae565b52620018a68188620016ae565b50620015fb565b929062001781565b6200187f919250620018db903d808d833e620018d28183620002cb565b81019062001684565b919062001853565b620018fa91503d8088833e620018d28183620002cb565b38620017f8565b62001927915060203d81116200192e575b6200191e8183620002cb565b81019062001620565b386200176d565b503d62001912565b5050505090565b156200194557565b60405162461bcd60e51b815260206004820152602f60248201527f496e73756666696369656e742062616c616e636520696e20706f6f6c20746f2060448201527f706179206f7574207265776172647300000000000000000000000000000000006064820152608490fd5b15620019b857565b60405162461bcd60e51b815260206004820152602a60248201527f496e73756666696369656e742062616c616e636520746f20776974686472617760448201527f2066726f6d20706f6f6c000000000000000000000000000000000000000000006064820152608490fd5b919082039182116200160b57565b906000199062000ddb565b9062001a506200019d62000e019262000fe4565b825462001a31565b62001a7c62001a673062000204565b82903162001a74565b9190565b10156200193d565b6001903362001a9d62001a946200152083866200020f565b831115620019b0565b60008080808562001ab2620011a08762000204565b82821562001aef575bf115620011e75762001ad662001ae891620001c7946200020f565b9162001ae283620014f9565b62001a23565b9062001a3c565b506108fc62001abb565b90620001c7929162001b0a62000cd8565b62001bd7565b1562001b1857565b60405162461bcd60e51b815260206004820152603060248201527f496e73756666696369656e742062616c616e636520696e20706f6f6c20746f2060448201527f77697468647261772072657761726473000000000000000000000000000000006064820152608490fd5b801515620001ab565b90505190620001c78262001b83565b90602082820312620001b3576200019d9162001b8c565b6001600160a01b03918216815291166020820152606081019291620001c79160400152565b909162001be49062000204565b6370a082319062001bf53062000204565b9162001c0b62001c0460405190565b9160e01b90565b81526001600160a01b0383166004820152602081602481855afa8015620011e75760209462001c4d60009262001c6e94849162001cbd575b5082111562001b10565b62001c7a6323b872dd9162001c6160405190565b9889978896879560e01b90565b85526004850162001bb2565b03925af18015620011e75762001c8d5750565b62001cb29060203d811162001cb5575b62001ca98183620002cb565b81019062001b9b565b50565b503d62001c9d565b62001cd89150883d81116200192e576200191e8183620002cb565b3862001c43565b90620001c7929162001af9565b60031115620001b357565b90505190620001c78262001cec565b90602082820312620001b3576200019d9162001cf7565b634e487b7160e01b600052602160045260246000fd5b6003111562001d3e57565b62001d1d565b90620001c78262001d33565b1562001d5857565b60405162461bcd60e51b815260206004820152600d60248201527f496e76616c6964207374617465000000000000000000000000000000000000006044820152606490fd5b6200019d9062000764565b6200019d905462001d9d565b1562001dbc57565b60405162461bcd60e51b815260206004820152601260248201527f546f6b656e206e6f7420616363657074656400000000000000000000000000006044820152606490fd5b6001600160a01b039091168152606081019392620001c792909160409162001e2a906020830152565b01906200070f565b6001600160a01b039091168152604081019291620001c79160200152565b9162001e60620011a08462000204565b9163c19d93fb9062001e7c62001e7560405190565b9260e01b90565b8252602082600481875afa918215620011e75760009262001fbd575b5062001ebd60009262001eb662001eaf8562001d44565b9162001d44565b1462001d50565b62001ede62001ed862001ed28360036200020f565b62001da8565b62001db4565b634cbc1553913394803b15620001b35762001f0893829162001eff60405190565b95869260e01b90565b825281838162001f1e888b8d6004850162001e01565b03925af1928315620011e75762001f3f9362001f89575b5050828462002002565b62001f6b7f0829c5c9dc5d14e41b11cfca0f01f76eba69b648ddcf9f84afba16ba8a76bf1c9262000204565b9262001f8462001f7a60405190565b9283928362001e32565b0390a2565b8162001fad92903d1062001fb5575b62001fa48183620002cb565b8101906200050e565b388062001f35565b503d62001f98565b62001fe491925060203d811162001fec575b62001fdb8183620002cb565b81019062001d06565b903862001e98565b503d62001fcf565b919082018092116200160b57565b90620020366200204e620001c79462001ae8936200204862002025838362002057565b62001ae8620020368960016200020f565b916200204283620014f9565b62001ff4565b62002057565b9260026200020f565b6200206a6729a2241af62c000062000fe4565b811015806200219c575b6200217d576200208c674563918244f4000062000fe4565b81118062002160575b6200214157620020ad678ac7230489e8000062000fe4565b81118062002123575b6200210457620020d362001a706802b5e3af16b188000062000fe4565b11620020e657506200019d600062000fe4565b6200047a620020fb6200019d9260056200020f565b60039062000431565b506200047a6200211a6200019d9260056200020f565b60029062000431565b50620021386802b5e3af16b188000062000fe4565b811115620020b6565b506200047a620021576200019d9260056200020f565b60019062000431565b5062002174678ac7230489e8000062000fe4565b81111562002095565b506200047a620021936200019d9260056200020f565b60009062000431565b50620021b0674563918244f4000062000fe4565b8111156200207456fe60806040523462000043576200003162000018620002e7565b9c9b909b9a919a999299989398979497969596620006ff565b60405161253d62000c64823961253d90f35b600080fd5b634e487b7160e01b600052604160045260246000fd5b90601f01601f191681019081106001600160401b038211176200008057604052565b62000048565b906200009d6200009560405190565b92836200005e565b565b6001600160a01b031690565b90565b6001600160a01b0381165b036200004357565b905051906200009d82620000ae565b80620000b9565b905051906200009d82620000d0565b6001600160401b0381116200008057602090601f01601f19160190565b0190565b60005b8381106200011b5750506000910152565b81810151838201526020016200010a565b90929192620001456200013f82620000e6565b62000086565b9381855260208501908284011162000043576200009d9262000107565b9080601f8301121562000043578151620000ab926020016200012c565b9190916101c08184031262000043576200019a8382620000c1565b92620001aa8160208401620000c1565b92604090620001bc83838601620000c1565b93620001cc8460608301620000c1565b93620001dc8160808401620000c1565b93620001ec8260a08501620000d7565b93620001fc8360c08601620000d7565b9360e0810151600180851b0381116200004357846200021d91830162000162565b93610100820151600180861b0381116200004357816200023f91840162000162565b93610120830151600180831b0381116200004357826200026191850162000162565b93610140840151600180841b0381116200004357836200028391860162000162565b93610160810151600180851b038111620000435784620002a591830162000162565b93610180820151600180861b038111620000435781620002c791840162000162565b936001806101a0850151921b0381116200004357620000ab920162000162565b6200030a620031a180380380620002fe8162000086565b9283398101906200017f565b909192939495969798999a9b9c9d565b620000ab906200009f906001600160a01b031682565b620000ab906200031a565b620000ab9062000330565b906001600160a01b03905b9181191691161790565b906200036f620000ab62000377926200033b565b825462000346565b9055565b906000199062000351565b620000ab620000ab620000ab9290565b90620003aa620000ab620003779262000386565b82546200037b565b9060ff9062000351565b634e487b7160e01b600052602160045260246000fd5b60031115620003dd57565b620003bc565b906200009d82620003d2565b620000ab90620003e3565b906200040e620000ab6200037792620003ef565b8254620003b2565b9061ff009060081b62000351565b9062000437620000ab6200037792151590565b825462000416565b9062ff00009060101b62000351565b9062000461620000ab6200037792151590565b82546200043f565b634e487b7160e01b600052602260045260246000fd5b9060016002830492168015620004a2575b60208310146200049c57565b62000469565b91607f169162000490565b9160001960089290920291821b911b62000351565b9190620004d7620000ab620003779362000386565b908354620004ad565b6200009d91600091620004c2565b818110620004fa575050565b806200050a6000600193620004e0565b01620004ee565b9190601f81116200052157505050565b620005356200009d93600052602060002090565b906020601f84018190048301931062000559575b6020601f909101040190620004ee565b909150819062000549565b906200056e815190565b906001600160401b038211620000805762000596826200058f85546200047f565b8562000511565b602090601f8311600114620005d55762000377929160009183620005c9575b5050600019600883021c1916906002021790565b015190503880620005b5565b601f19831691620005eb85600052602060002090565b9260005b8181106200062c5750916002939185600196941062000612575b50505002019055565b01516000196008601f8516021c1916905538808062000609565b91936020600181928787015181550195019201620005ef565b906200009d9162000564565b801515620000b9565b905051906200009d8262000651565b906020828203126200004357620000ab916200065a565b9052565b620006809062000386565b6001600160a01b0390911681526040810192916200009d916020905b019062000684565b6040513d6000823e3d90fd5b620000ab906200009f565b620000ab9054620006bf565b62000680906200033b565b9160206200009d929493620006ab60408201966000830190620006d6565b9a959099949c96919b97929893987375bf6c63f2941ed31a908b976b5e39954561517b6200072d906200033b565b6200073a9060026200035b565b6200074a62bc614e600362000396565b6000809d6200075b82600e620003fa565b6200076882600e62000424565b6200077582600e6200044e565b6200078282601662000396565b8d6200078e8b62000bff565b62000799906200033b565b620007a69060016200035b565b620007b18d6200033b565b620007be9060046200035b565b620007c9906200033b565b620007d4916200035b565b620007df906200033b565b98620007ed8a60056200035b565b620007f8906200033b565b9c620008068e60066200035b565b6200081390600762000396565b6200082090600862000396565b6200082d90600c62000645565b6200083a90600d62000645565b620008458962000386565b6200085290600a62000396565b6200085f90600f62000645565b6200086c90601062000645565b6200087990601162000645565b6200088690601362000645565b6200089390601262000645565b6200089e906200033b565b9063095ea7b392600160811b95620008b560405190565b90620008c18660e01b90565b8252848280620008d68b88600484016200068f565b03818a5a94602095f191821562000ac957620009026020928a92620009299562000b93575b506200033b565b946200090d60405190565b93849283926200091d8b60e01b90565b8452600484016200068f565b038189875af1801562000ac95762000b72575b506040516200094b8560e01b90565b815260208180620009618a86600484016200068f565b038189885af1801562000ac9576200099292602092899262000b52575b5060405193849283926200091d8a60e01b90565b038188865af1801562000ac95762000b31575b50620009d8602086620009b96002620006ca565b6040519384928392620009cc8a60e01b90565b845260048401620006e1565b038188875af1801562000ac95762000b10575b50620009ff602086620009b96002620006ca565b038188865af1801562000ac95762000aef575b5062000a1e306200033b565b91602062000a2b60405190565b809262000a388760e01b90565b825281888162000a4d8c8a600484016200068f565b03925af1801562000ac9576020946200091d92879262000acf575b5062000a8462000a7760405190565b9889968795869460e01b90565b03925af190811562000ac9575062000a995750565b62000abe9060203d811162000ac1575b62000ab581836200005e565b81019062000669565b50565b503d62000aa9565b620006b3565b62000ae990873d811162000ac15762000ab581836200005e565b62000a68565b62000b0a9060203d811162000ac15762000ab581836200005e565b62000a12565b62000b2b9060203d811162000ac15762000ab581836200005e565b620009eb565b62000b4c9060203d811162000ac15762000ab581836200005e565b620009a5565b62000b6c90843d811162000ac15762000ab581836200005e565b6200097e565b62000b8d9060203d811162000ac15762000ab581836200005e565b6200093c565b62000bad90853d811162000ac15762000ab581836200005e565b620008fb565b62000bd862000be2602093620001039362000bcc815190565b80835293849260200190565b9586910162000107565b601f01601f191690565b6020808252620000ab9291019062000bb3565b62000c3062000c406200009d9262000c1660405190565b63104c13eb60e21b60208201529283916024830162000bec565b602082018103825203826200005e565b6000809162000c576a636f6e736f6c652e6c6f6790565b602082519201905afa5056fe60a0604052600436101561001257600080fd5b60003560e01c80630203d0021461022257806302d05d3f1461021d57806303c29d581461021857806307d94e4a146102135780630a7713701461020e5780630add6b731461020957806318aa9f1e1461020457806324274ee9146101ff578063263a58aa146101fa57806328c30c07146101f557806329dcb0cf146101f057806343ab265f146101eb5780634c4cea5a146101e65780634cbc1553146101e15780634e695a37146101dc57806354214f69146101d75780635eb32936146101d257806380007e83146101cd578063992a7dfb146101c8578063a278a485146101c3578063abb5ca09146101be578063b40141bf146101b9578063b82c86d6146101b4578063c19d93fb146101af578063c3e20c9f146101aa578063c59ee1dc146101a5578063ca4b208b146101a0578063d17075511461019b578063d5cef13314610196578063d688cf5314610191578063d8abe8be1461018c578063e9d1edde146101875763ff3a9c7e0361022757610dc6565b610ccd565b610cb1565b610bb3565b610b98565b610b7d565b610b56565b610b2f565b610b08565b610ad5565b610a5d565b610a36565b610a0f565b6109e8565b6109a8565b61089b565b610874565b61083b565b6107fd565b6107e4565b6107a2565b61077b565b610760565b61073c565b6106f8565b6106d1565b6106aa565b610680565b610635565b61056d565b610546565b61039c565b61032e565b600080fd5b805b0361022757565b905035906102428261022c565b565b906020828203126102275761025891610235565b90565b60005b83811061026e5750506000910152565b818101518382015260200161025e565b61029f6102a86020936102b293610293815190565b80835293849260200190565b9586910161025b565b601f01601f191690565b0190565b9052565b6001600160a01b031690565b9261031f9298979561030f60c096610308610316946103016102f96102429d9860e08c01908c600081840391015261027e565b9e60208b0152565b6040890152565b6060870152565b6080850152565b151560a0830152565b01906001600160a01b03169052565b3461022757610362610349610344366004610244565b61249d565b9361035997959793919360405190565b978897886102c6565b0390f35b600091031261022757565b610258916008021c6001600160a01b031690565b906102589154610371565b61025860006004610385565b34610227576103ac366004610366565b6103626103b7610390565b604051918291826001600160a01b03909116815260200190565b634e487b7160e01b600052600060045260246000fd5b634e487b7160e01b600052602260045260246000fd5b906001600283049216801561041d575b602083101461041857565b6103e7565b91607f169161040d565b8054600093929161044461043a836103fd565b8085529360200190565b9160018116908115610496575060011461045d57505050565b6104709192939450600052602060002090565b916000925b8184106104825750500190565b805484840152602090930192600101610475565b92949550505060ff1916825215156020020190565b9061025891610427565b634e487b7160e01b600052604160045260246000fd5b90601f01601f1916810190811067ffffffffffffffff8211176104ed57604052565b6104b5565b9061024261050c9261050360405190565b938480926104ab565b03836104cb565b9060001061052457610258906104f2565b6103d1565b6102586000600d610513565b60208082526102589291019061027e565b3461022757610556366004610366565b610362610561610529565b60405191829182610535565b346102275761057d366004610366565b610362610588611441565b6040519182918290815260200190565b6001600160a01b03811661022e565b9050359061024282610598565b9060208282031261022757610258916105a7565b6102ba610258610258926001600160a01b031690565b610258906105c8565b610258906105de565b906105fa906105e7565b600052602052604060002090565b610258916008021c81565b906102589154610608565b610258906106306014916000926105f0565b610613565b346102275761036261058861064b3660046105b4565b61061e565b9091606082840312610227576102586106698484610235565b9361067781602086016105a7565b936040016105a7565b3461022757610699610693366004610650565b916123c5565b604051005b61025860006011610513565b34610227576106ba366004610366565b61036261056161069e565b6102586000600b610613565b34610227576106e1366004610366565b6103626105886106c5565b61025860006003610613565b3461022757610708366004610366565b6103626105886106ec565b80151561022e565b9050359061024282610713565b90602082820312610227576102589161071b565b346102275761069961074f366004610728565b610f57565b61025860006007610613565b3461022757610770366004610366565b610362610588610754565b34610227576103626105886107913660046105b4565b61144e565b61025860006009610613565b34610227576107b2366004610366565b610362610588610796565b9091606082840312610227576102586107d684846105a7565b936106778160208601610235565b34610227576106996107f73660046107bd565b916113b8565b3461022757610699610810366004610244565b611b1b565b610258916008021c5b60ff1690565b906102589154610815565b6102586001600e610824565b346102275761084b366004610366565b61036261085661082f565b60405191829182901515815260200190565b61025860006012610513565b3461022757610884366004610366565b610362610561610868565b6102586002600e610824565b34610227576108ab366004610366565b61036261085661088f565b6102586102586102589290565b906105fa906108b6565b6102589081565b61025890546108cd565b6102589061081e565b61025890546108de565b6102589060081c6102ba565b61025890546108f1565b6109129060156108c3565b9061091c826104f2565b91610929600182016108d4565b91610936600283016108d4565b91610943600382016108d4565b9161025860056109548185016108e7565b93016108fd565b919695939461099f6102429661099860a09661099161098961031f9760c08a01908a820360008c015261027e565b9c6020890152565b6040870152565b6060850152565b15156080830152565b34610227576103626109c36109be366004610244565b610907565b926109d396949692919260405190565b9687968761095b565b61025860006013610513565b34610227576109f8366004610366565b6103626105616109dc565b6102586000600f610513565b3461022757610a1f366004610366565b610362610561610a03565b61025860006016610613565b3461022757610a46366004610366565b610362610588610a2a565b61025860006008610613565b3461022757610a6d366004610366565b610362610588610a51565b6102586000600e610824565b634e487b7160e01b600052602160045260246000fd5b60031115610aa457565b610a84565b9061024282610a9a565b61025890610aa9565b6102b690610ab3565b6020810192916102429190610abc565b3461022757610ae5366004610366565b610362610af0610a78565b60405191829182610ac5565b6102586000600c610513565b3461022757610b18366004610366565b610362610561610afc565b6102586000600a610613565b3461022757610b3f366004610366565b610362610588610b23565b61025860006002610385565b3461022757610b66366004610366565b6103626103b7610b4a565b61025860006010610513565b3461022757610b8d366004610366565b610362610561610b71565b3461022757610ba8366004610366565b6103626108566116a5565b3461022757610699610bc6366004610244565b610efa565b90610242610bd860405190565b92836104cb565b67ffffffffffffffff81116104ed57602090601f01601f19160190565b90826000939282370152565b90929192610c1d610c1882610bdf565b610bcb565b938185526020850190828401116102275761024292610bfc565b9080601f830112156102275781602061025893359101610c08565b919060a08382031261022757823567ffffffffffffffff81116102275781610c7b918501610c37565b92610c8982602083016105a7565b92610258610c9a8460408501610235565b93610ca88160608601610235565b93608001610235565b3461022757610699610cc4366004610c52565b93929092611a59565b3461022757610699610ce0366004610728565b610fb5565b9e9d9c9b999897959391928f9197959361020083019860008401610d10916001600160a01b03169052565b6001600160a01b031660208301526001600160a01b031660408201526060015260808d015260a08c015260c08b015260e08a01528881036101008a0152610d569161027e565b878103610120890152610d689161027e565b916101408701610d7791610abc565b610160860152848103610180860152610d8f9161027e565b8381036101a0850152610da19161027e565b8281036101c0840152610db39161027e565b90808203906101e001526102589161027e565b3461022757610dd6366004610366565b610e0b610de16123d9565b9e610e009e919e9d929d9c939c9b949b9a959a99969998979860405190565b608052608051610ce5565b6080519003608051f35b15610e1c57565b60405162461bcd60e51b815260206004820152603660248201527f596f7520646f6e7420686176652061646d696e2061636365737320746f20706560448201527f72666f726d2074686973206f7065726174696f6e2021000000000000000000006064820152608490fd5b61024290610ebf33610eb9610eac610ea76001546001600160a01b031690565b6105e7565b916001600160a01b031690565b14610e15565b610eef565b90600019905b9181191691161790565b90610ee4610258610eeb926108b6565b8254610ec4565b9055565b610242906003610ed4565b61024290610e87565b61024290610f2333610eb9610eac610ea76001546001600160a01b031690565b610f4c565b9061ff009060081b610eca565b90610f45610258610eeb92151590565b8254610f28565b61024290600e610f35565b61024290610f03565b61024290610f8033610eb9610eac610ea76001546001600160a01b031690565b610faa565b9062ff00009060101b610eca565b90610fa3610258610eeb92151590565b8254610f85565b61024290600e610f93565b61024290610f60565b6102589060101c61081e565b6102589054610fbe565b15610fdb57565b60405162461bcd60e51b815260206004820152601860248201527f50726f6a656374206d75737420626520766572696669656400000000000000006044820152606490fd5b906102429291611045611033600e610fca565b61103f60015b91151590565b14610fd4565b6110bc565b1561105157565b60405162461bcd60e51b815260206004820152603c60248201527f596f7520646f206e6f74206861766520746865206d617374657220726967687460448201527f7320746f20706572666f726d2074686973206f7065726174696f6e21000000006064820152608490fd5b9061024292916110e4336110de610eac610ea76000546001600160a01b031690565b1461104a565b6111e3565b634e487b7160e01b600052601160045260246000fd5b600019811461110e5760010190565b6110e9565b9190820180921161110e57565b905051906102428261022c565b906020828203126102275761025891611120565b6001600160a01b0390911681526040810192916102429160209061031f565b6040513d6000823e3d90fd5b1561022757565b9050519061024282610713565b906020828203126102275761025891611173565b6001600160a01b039182168152911660208201526060810192916102429160400152565b0152565b6001600160a01b0390911681526060810193926102429290916040916111b8906020830152565b91611251601491611239611221866112036111fe82886105f0565b6108d4565b95600096611217611213896108b6565b9190565b14611397576105f0565b6112338661122e836108d4565b611113565b90610ed4565b610ea761124a8561122e600a6108d4565b600a610ed4565b9063dd62ed3e91611261306105e7565b61127461126d60405190565b9460e01b90565b845260208480611288848a60048401611141565b0381855afa918215611365576112ac6020938796869161136a575b5086111561116c565b6112ce846323b872dd6112da6112c160405190565b9889968795869460e01b90565b84528c60048501611194565b03925af19081156113655750611339575b506112f6600a6108d4565b9161132e7f5cdc4ab8d637538ead6cc1904d4160343656c8c82bd266635cfd31ac008fffe09361132560405190565b938493846111bc565b0390a16102426113e3565b6113599060203d811161135e575b61135181836104cb565b810190611180565b6112eb565b503d611347565b611160565b61138a9150853d8111611390575b61138281836104cb565b81019061112d565b386112a3565b503d611378565b6113b36113ac6113a7600b6108d4565b6110ff565b600b610ed4565b6105f0565b906102429291611020565b9060ff90610eca565b906113dc610258610eeb92610ab3565b82546113c3565b6113ed600a6108d4565b6113fd61121361025860086108d4565b106114195761140e6002600e6113cc565b610242426009610ed4565b4261142a61121361025860076108d4565b111561140e5761143c6001600e6113cc565b61140e565b61144a306105e7565b3190565b60206114656114a59261145f600090565b506105e7565b6370a082319061148e611477306105e7565b9261148160405190565b9586948593849360e01b90565b83526001600160a01b031660048301526024820190565b03915afa908115611365576000916114bb575090565b610258915060203d81116113905761138281836104cb565b156114da57565b60405162461bcd60e51b815260206004820152600d60248201527f496e76616c6964207374617465000000000000000000000000000000000000006044820152606490fd5b1561152657565b60405162461bcd60e51b815260206004820152601560248201527f446561646c696e652068617320706173736564202100000000000000000000006044820152606490fd5b61025890611596600161159061158a611584600e6108e7565b92610aa9565b91610aa9565b146114d3565b6115b0426115aa61121361025860076108d4565b1061151f565b611627565b156115bc57565b60405162461bcd60e51b815260206004820152602660248201527f596f7520646f6e74206861766520616e7920636f6e747269627574656420616d60448201527f6f756e74202100000000000000000000000000000000000000000000000000006064820152608490fd5b503360146116386111fe83836105f0565b61165060009161164a611213846108b6565b116115b5565b80808080611660610ea7886105e7565b61166d6111fe89896105f0565b9082821561169c575bf115611365576116979261168c611692926108b6565b926105f0565b610ed4565b600190565b506108fc611676565b610258600061156b565b156116b657565b60405162461bcd60e51b815260206004820152603860248201527f596f7520646f6e7420686176652063726561746f722061636365737320746f2060448201527f706572666f726d2074686973206f7065726174696f6e202100000000000000006064820152608490fd5b906102429493929161174b33611745610eac610ea76004546001600160a01b031690565b146116af565b9061024294939291611768600261159061158a611584600e6108e7565b61177c426115aa61121361025860076108d4565b6119b4565b91906008610eca910291611796600019841b90565b921b90565b91906117ac610258610eeb936108b6565b908354611781565b6102429160009161179b565b8181106117cb575050565b806117d960006001936117b4565b016117c0565b9190601f81116117ee57505050565b61180061024293600052602060002090565b906020601f840181900483019310611822575b6020601f9091010401906117c0565b9091508190611813565b90611835815190565b9067ffffffffffffffff82116104ed576118598261185385546103fd565b856117df565b602090601f831160011461189457610eeb929160009183611889575b5050600019600883021c1916906002021790565b015190503880611875565b601f198316916118a985600052602060002090565b9260005b8181106118e7575091600293918560019694106118ce575b50505002019055565b01516000196008601f8516021c191690553880806118c5565b919360206001819287870151815501950192016118ad565b906102429161182c565b906113dc610258610eeb92151590565b9074ffffffffffffffffffffffffffffffffffffffff009060081b610eca565b90611949610258610eeb926105e7565b8254611919565b6102b6906108b6565b6102b6906105e7565b92979694610316906119a360c09661030861199b6102429b966119ad9861198e60e08c019260008d0152565b8a820360208c015261027e565b9c6040890152565b6080850190611950565b0190611959565b92906005611a54929593956119cd6102588660156108c3565b906119d887836118ff565b6119e58860018401610ed4565b6119f28160028401610ed4565b611a20846000948594611a10611a07876108b6565b60038301610ed4565b01611a1b8582611909565b611939565b7f3009567e0613f3581563a052fea56298aca1363831103cf6f1cbb8bf5ae122f397611a4b60405190565b97889788611962565b0390a1565b9061024294939291611721565b15611a6d57565b60405162461bcd60e51b815260206004820152601b60248201527f4f6e6c7920636f6e7472696275746f722063616e20766f7465202100000000006044820152606490fd5b15611ab957565b60405162461bcd60e51b815260206004820152601360248201527f596f7520616c726561647920766f7465642021000000000000000000000000006044820152606490fd5b6001600160a01b0390911681526040810192916102429160200152565b3390611bb8906111fe611bb26003611ba686611ba1611b62610258611b42888560146105f0565b98611b5b60009a611b556112138d6108b6565b11611a66565b60156108c3565b96611b8f6004890191611b89611039611b83611b7e88876105f0565b6108e7565b92151590565b14611ab2565b611b9c60019384926105f0565b611909565b6108b6565b93019261122e846108d4565b82610ed4565b7fa2925e4595bf873fa82c22a1a89809777347023bf2b502d32710157a5eb8199c91611a54611be660405190565b92839283611afe565b906102429291611c1133611745610eac610ea76004546001600160a01b031690565b906102429291611c2c600261159061158a611584600e6108e7565b611c40426115aa61121361025860076108d4565b611e82565b15611c4c57565b60405162461bcd60e51b815260206004820152601960248201527f5265717565737420616c726561647920636f6d706c65746564000000000000006044820152606490fd5b634e487b7160e01b600052601260045260246000fd5b8115611cb1570490565b611c91565b15611cbd57565b60405162461bcd60e51b815260206004820152603660248201527f4174206c656173742032302520636f6e7472696275746f72206e65656420746f60448201527f20766f746520666f7220746869732072657175657374000000000000000000006064820152608490fd5b15611d2f57565b60405162461bcd60e51b815260206004820152603e60248201527f50726f6a65637420636f6e747261637420646f6573206e6f742068617665206560448201527f6e6f75676820555344542062616c616e636520746f20646973627572736500006064820152608490fd5b15611da157565b60405162461bcd60e51b815260206004820152603e60248201527f50726f6a65637420636f6e747261637420646f6573206e6f742068617665206560448201527f6e6f75676820555344432062616c616e636520746f20646973627572736500006064820152608490fd5b8181029291811591840414171561110e57565b6001600160a01b0390911681526060810193926102429290916040916111b8906020830190611959565b929796946103169061030f60c09661030861199b6102429b966119ad98611e7560e08c019260008d0152565b8a820360208c0152610427565b919091611e936102588260156108c3565b91611eb3611ea3600585016108e7565b611ead6000611039565b14611c45565b611ebf600384016108d4565b90611ef0611ecd600b6108d4565b92611ee9611213610258600596611ee3886108b6565b90611ca7565b1015611cb6565b611f05611eff600186016108d4565b956105e7565b916370a08231611f14306105e7565b96611f1e60405190565b90611f298360e01b90565b82526001600160a01b0389166004830152602082602481895afa801561136557611213611f5f91611f66946000916114bb575090565b1115611d28565b611f7b611f75600288016108d4565b936105e7565b92611f8f611f8860405190565b9260e01b90565b82526001600160a01b0388166004830152602082602481875afa801561136557611213611fc591611fcc946000916114bb575090565b1115611d9a565b84019461202d6020611fdd886108fd565b612009611ff9611fef60018b016108d4565b611ee360326108b6565b61200360316108b6565b90611e0c565b9061201360405190565b93849283926323b872dd60e01b5b84528760048501611e1f565b03816000885af18015611365576123a9575b50612060602061204e886108fd565b612009611ff9611fef60028b016108d4565b03816000875af180156113655761238d575b504261208461121361025860036108d4565b116122e4576120d69260206120a16001546001600160a01b031690565b6120ba6120b060018a016108d4565b611ee360646108b6565b906120c460405190565b96879283926323b872dd60e01b612021565b03816000855af190811561136557612139946020926122c9575b506002546001600160a01b03169061210d6120b060018a016108d4565b91600061211960405190565b80988195829461212d6323b872dd60e01b90565b84528960048501611e1f565b03925af192831561136557612194936122ad575b5060206121626001546001600160a01b031690565b6121716120b0600289016108d4565b9061217b60405190565b95869283926323b872dd60e01b84528660048501611e1f565b03816000865af1918215611365576121f093602093612292575b506002546001600160a01b031660006121cc6120b060028a016108d4565b936121d660405190565b968795869485936323b872dd60e01b855260048501611e1f565b03925af1801561136557612276575b505b611a546001926122118486611909565b60008101938082019561224161223b600361223461222e8b6108d4565b9a6108d4565b95016108d4565b916108fd565b927f7a5218350187d3ab901ae3c2001a4348ce5a2089ac30ce35d2fc55b53feac2a59761226d60405190565b97889788611e49565b61228d9060203d811161135e5761135181836104cb565b6121ff565b6122a890843d811161135e5761135181836104cb565b6121ae565b6122c49060203d811161135e5761135181836104cb565b61214d565b6122df90833d811161135e5761135181836104cb565b6120f0565b602061230c936122fc6001546001600160a01b031690565b9061210d611fef60018a016108d4565b03925af19182156113655761234193602093612372575b506001546001600160a01b031660006121cc611fef60028a016108d4565b03925af1801561136557612356575b50612201565b61236d9060203d811161135e5761135181836104cb565b612350565b61238890843d811161135e5761135181836104cb565b612323565b6123a49060203d811161135e5761135181836104cb565b612072565b6123c09060203d811161135e5761135181836104cb565b61203f565b906102429291611bef565b610258906104f2565b6004546001600160a01b0316906123f060076108d4565b906123fb60086108d4565b9161240660096108d4565b92612411600a6108d4565b9261241c600c6123d0565b94612427600d6123d0565b94612432600e6108e7565b9661243c306105e7565b3196612448600f6123d0565b9861245360106123d0565b9861245e60116123d0565b9a61246960126123d0565b9a61247c6005546001600160a01b031690565b9c61248f6006546001600160a01b031690565b9c61249a600b6108d4565b9a565b6102586124b4916124ac606090565b5060156108c3565b906124bf600b6108d4565b906124c9836123d0565b926124d6600182016108d4565b926124e3600283016108d4565b9260056124f2600385016108d4565b930190610258612501836108e7565b926108fd56fea26469706673582212206dfc673c5602b7f8f01a684dbf2faa8dd2239c8ba71d24c1c31840e3d25c347e64736f6c63430008120033a26469706673582212203e77aa5ea5f1e1bfc03835a87abbd6790ae0e1b0068b86da28619d5b86fc1e5664736f6c63430008120033",
  "linkReferences": {},
  "deployedLinkReferences": {}
}