{
  "_format": "hh-sol-artifact-1",
  "contractName": "BuildPoints",
  "sourceName": "contracts/BuildPoint.sol",
  "abi": [
    {
      "inputs": [],
      "stateMutability": "nonpayable",
      "type": "constructor"
    },
    {
      "anonymous": false,
      "inputs": [
        {
          "indexed": true,
          "internalType": "address",
          "name": "_owner",
          "type": "address"
        },
        {
          "indexed": true,
          "internalType": "address",
          "name": "_spender",
          "type": "address"
        },
        {
          "indexed": false,
          "internalType": "uint256",
          "name": "_value",
          "type": "uint256"
        }
      ],
      "name": "Approval",
      "type": "event"
    },
    {
      "anonymous": false,
      "inputs": [
        {
          "indexed": true,
          "internalType": "address",
          "name": "from",
          "type": "address"
        },
        {
          "indexed": false,
          "internalType": "uint256",
          "name": "value",
          "type": "uint256"
        }
      ],
      "name": "Burn",
      "type": "event"
    },
    {
      "anonymous": false,
      "inputs": [
        {
          "indexed": true,
          "internalType": "address",
          "name": "from",
          "type": "address"
        },
        {
          "indexed": true,
          "internalType": "address",
          "name": "to",
          "type": "address"
        },
        {
          "indexed": false,
          "internalType": "uint256",
          "name": "value",
          "type": "uint256"
        }
      ],
      "name": "Transfer",
      "type": "event"
    },
    {
      "inputs": [
        {
          "internalType": "address",
          "name": "_whitelist",
          "type": "address"
        }
      ],
      "name": "addToWhitelist",
      "outputs": [],
      "stateMutability": "nonpayable",
      "type": "function"
    },
    {
      "inputs": [
        {
          "internalType": "address",
          "name": "",
          "type": "address"
        },
        {
          "internalType": "address",
          "name": "",
          "type": "address"
        }
      ],
      "name": "allowance",
      "outputs": [
        {
          "internalType": "uint256",
          "name": "",
          "type": "uint256"
        }
      ],
      "stateMutability": "view",
      "type": "function"
    },
    {
      "inputs": [
        {
          "internalType": "address",
          "name": "_spender",
          "type": "address"
        },
        {
          "internalType": "uint256",
          "name": "_value",
          "type": "uint256"
        }
      ],
      "name": "approve",
      "outputs": [
        {
          "internalType": "bool",
          "name": "success",
          "type": "bool"
        }
      ],
      "stateMutability": "nonpayable",
      "type": "function"
    },
    {
      "inputs": [
        {
          "internalType": "address",
          "name": "_spender",
          "type": "address"
        },
        {
          "internalType": "uint256",
          "name": "_value",
          "type": "uint256"
        },
        {
          "internalType": "bytes",
          "name": "_extraData",
          "type": "bytes"
        }
      ],
      "name": "approveAndCall",
      "outputs": [
        {
          "internalType": "bool",
          "name": "success",
          "type": "bool"
        }
      ],
      "stateMutability": "nonpayable",
      "type": "function"
    },
    {
      "inputs": [
        {
          "internalType": "address",
          "name": "",
          "type": "address"
        }
      ],
      "name": "balanceOf",
      "outputs": [
        {
          "internalType": "uint256",
          "name": "",
          "type": "uint256"
        }
      ],
      "stateMutability": "view",
      "type": "function"
    },
    {
      "inputs": [
        {
          "internalType": "uint256",
          "name": "_value",
          "type": "uint256"
        }
      ],
      "name": "burn",
      "outputs": [
        {
          "internalType": "bool",
          "name": "success",
          "type": "bool"
        }
      ],
      "stateMutability": "nonpayable",
      "type": "function"
    },
    {
      "inputs": [
        {
          "internalType": "address",
          "name": "_from",
          "type": "address"
        },
        {
          "internalType": "uint256",
          "name": "_value",
          "type": "uint256"
        }
      ],
      "name": "burnFrom",
      "outputs": [
        {
          "internalType": "bool",
          "name": "success",
          "type": "bool"
        }
      ],
      "stateMutability": "nonpayable",
      "type": "function"
    },
    {
      "inputs": [],
      "name": "decimals",
      "outputs": [
        {
          "internalType": "uint8",
          "name": "",
          "type": "uint8"
        }
      ],
      "stateMutability": "view",
      "type": "function"
    },
    {
      "inputs": [],
      "name": "name",
      "outputs": [
        {
          "internalType": "string",
          "name": "",
          "type": "string"
        }
      ],
      "stateMutability": "view",
      "type": "function"
    },
    {
      "inputs": [],
      "name": "owner",
      "outputs": [
        {
          "internalType": "address",
          "name": "",
          "type": "address"
        }
      ],
      "stateMutability": "view",
      "type": "function"
    },
    {
      "inputs": [
        {
          "internalType": "address",
          "name": "_blacklist",
          "type": "address"
        }
      ],
      "name": "removeFromWhitelist",
      "outputs": [],
      "stateMutability": "nonpayable",
      "type": "function"
    },
    {
      "inputs": [],
      "name": "symbol",
      "outputs": [
        {
          "internalType": "string",
          "name": "",
          "type": "string"
        }
      ],
      "stateMutability": "view",
      "type": "function"
    },
    {
      "inputs": [],
      "name": "totalSupply",
      "outputs": [
        {
          "internalType": "uint256",
          "name": "",
          "type": "uint256"
        }
      ],
      "stateMutability": "view",
      "type": "function"
    },
    {
      "inputs": [
        {
          "internalType": "address",
          "name": "_to",
          "type": "address"
        },
        {
          "internalType": "uint256",
          "name": "_value",
          "type": "uint256"
        }
      ],
      "name": "transfer",
      "outputs": [
        {
          "internalType": "bool",
          "name": "success",
          "type": "bool"
        }
      ],
      "stateMutability": "nonpayable",
      "type": "function"
    },
    {
      "inputs": [
        {
          "internalType": "address",
          "name": "_from",
          "type": "address"
        },
        {
          "internalType": "address",
          "name": "_to",
          "type": "address"
        },
        {
          "internalType": "uint256",
          "name": "_value",
          "type": "uint256"
        }
      ],
      "name": "transferFrom",
      "outputs": [
        {
          "internalType": "bool",
          "name": "success",
          "type": "bool"
        }
      ],
      "stateMutability": "nonpayable",
      "type": "function"
    },
    {
      "inputs": [
        {
          "internalType": "address",
          "name": "",
          "type": "address"
        }
      ],
      "name": "whitelisted",
      "outputs": [
        {
          "internalType": "bool",
          "name": "",
          "type": "bool"
        }
      ],
      "stateMutability": "view",
      "type": "function"
    },
    {
      "inputs": [
        {
          "internalType": "uint256",
          "name": "amount",
          "type": "uint256"
        }
      ],
      "name": "withdrawBNB",
      "outputs": [],
      "stateMutability": "nonpayable",
      "type": "function"
    },
    {
      "inputs": [
        {
          "internalType": "address",
          "name": "tokenAddress",
          "type": "address"
        },
        {
          "internalType": "uint256",
          "name": "amount",
          "type": "uint256"
        }
      ],
      "name": "withdrawTokens",
      "outputs": [],
      "stateMutability": "nonpayable",
      "type": "function"
    }
  ],
  "bytecode": "0x60806040523462000026576200001462000346565b6040516110a8620003fe82396110a890f35b600080fd5b634e487b7160e01b600052602260045260246000fd5b906001600283049216801562000064575b60208310146200005e57565b6200002b565b91607f169162000052565b9160001960089290920291821b911b5b9181191691161790565b6200009962000099620000999290565b90565b9190620000b162000099620000ba9362000089565b9083546200006f565b9055565b620000cc916000916200009c565b565b818110620000da575050565b80620000ea6000600193620000be565b01620000ce565b9190601f81116200010157505050565b62000115620000cc93600052602060002090565b906020601f84018190048301931062000139575b6020601f909101040190620000ce565b909150819062000129565b6200015d600b62000156835462000041565b83620000f1565b7f427569646c506f696e74730000000000000000000000000000000000000000169055565b620000cc9062000144565b6200019f600b62000156835462000041565b7f425549444c504f494e54530000000000000000000000000000000000000000169055565b620000cc906200018d565b9060ff906200007f565b620001e962000099620000999290565b60ff1690565b906200020362000099620000ba92620001d9565b8254620001cf565b6200009990620001e9565b6200009990546200020b565b6200009962000099620000999260ff1690565b634e487b7160e01b600052601160045260246000fd5b604d81116200025a57600a0a90565b62000235565b818102929181159184041417156200025a57565b90600019906200007f565b906200029362000099620000ba9262000089565b825462000274565b620000999081565b6200009990546200029b565b6200009990620002c5906001600160a01b031682565b6001600160a01b031690565b6200009990620002af565b6200009990620002d1565b90620002f390620002dc565b600052602052604060002090565b151590565b906200020362000099620000ba9262000301565b906001600160a01b03906200007f565b906200033e62000099620000ba92620002dc565b82546200031a565b62000352600062000182565b6200035e6001620001c4565b6200036c60126002620001ef565b620003b2620003aa633b9aca00620003a46200039d6200039762000391600262000216565b62000222565b6200024b565b9162000089565b62000260565b60036200027f565b620000cc620003c26003620002a3565b620003dc600491620003d6338094620002e7565b6200027f565b620003f56001620003ef836006620002e7565b62000306565b60076200032a56fe6080604052600436101561001257600080fd5b60003560e01c806306b091f91461013257806306fdde031461012d578063095ea7b314610128578063127f4b2e1461012357806318160ddd1461011e57806323b872dd14610119578063313ce5671461011457806342966c681461010f57806370a082311461010a57806379cc6790146101055780638ab1d681146101005780638da5cb5b146100fb57806395d89b41146100f6578063a9059cbb146100f1578063cae9ca51146100ec578063d936547e146100e7578063dd62ed3e146100e25763e43252d703610137576107f7565b6107db565b610783565b610750565b61066d565b610652565b61061f565b6105ca565b6105ae565b610593565b61050f565b6104e0565b61049e565b610442565b610408565b6103c6565b61039b565b6101a0565b600080fd5b6001600160a01b031690565b90565b6101548161013c565b0361013757565b905035906101688261014b565b565b80610154565b905035906101688261016a565b91906040838203126101375761014890610197818561015b565b93602001610170565b34610137576101b96101b336600461017d565b90610fa9565b604051005b0390f35b600091031261013757565b634e487b7160e01b600052600060045260246000fd5b634e487b7160e01b600052602260045260246000fd5b9060016002830492168015610219575b602083101461021457565b6101e3565b91607f1691610209565b80546000939291610240610236836101f9565b8085529360200190565b9160018116908115610292575060011461025957505050565b61026c9192939450600052602060002090565b916000925b81841061027e5750500190565b805484840152602090930192600101610271565b92949550505060ff1916825215156020020190565b9061014891610223565b634e487b7160e01b600052604160045260246000fd5b90601f01601f191681019081106001600160401b038211176102e857604052565b6102b1565b90610168610307926102fe60405190565b938480926102a7565b03836102c7565b9060001061031f57610148906102ed565b6101cd565b61014860008061030e565b60005b8381106103425750506000910152565b8181015183820152602001610332565b61037361037c60209361038693610367815190565b80835293849260200190565b9586910161032f565b601f01601f191690565b0190565b602080825261014892910190610352565b34610137576103ab3660046101c2565b6101be6103b6610324565b6040519182918261038a565b9052565b34610137576101be6103e26103dc36600461017d565b90610c4f565b60405191829182901515815260200190565b906020828203126101375761014891610170565b34610137576101b961041b3660046103f4565b611069565b610148916008021c81565b906101489154610420565b6101486000600361042b565b34610137576104523660046101c2565b6101be61045d610436565b6040515b9182918290815260200190565b909160608284031261013757610148610487848461015b565b93610495816020860161015b565b93604001610170565b34610137576101be6103e26104b436600461046e565b91610c42565b610148916008021c5b60ff1690565b9061014891546104ba565b610148600060026104c9565b34610137576104f03660046101c2565b6101be6104fb6104d4565b6040519182918260ff909116815260200190565b34610137576101be6103e26105253660046103f4565b610e39565b90602082820312610137576101489161015b565b6101489061013c906001600160a01b031682565b6101489061053e565b61014890610552565b9061056e9061055b565b600052602052604060002090565b6101489061058e600491600092610564565b61042b565b34610137576101be61045d6105a936600461052a565b61057c565b34610137576101be6103e26105c436600461017d565b90610eb8565b34610137576101b96105dd36600461052a565b61091d565b610148916008021c61013c565b9061014891546105e2565b610148600060076105ef565b6103c29061013c565b6020810192916101689190610606565b346101375761062f3660046101c2565b6101be61063a6105fa565b6040519182918261060f565b6101486000600161030e565b34610137576106623660046101c2565b6101be6103b6610646565b34610137576101be6103e261068336600461017d565b906109cb565b9061016861069660405190565b92836102c7565b6001600160401b0381116102e857602090601f01601f19160190565b90826000939282370152565b909291926106da6106d58261069d565b610689565b9381855260208501908284011161013757610168926106b9565b9080601f8301121561013757816020610148933591016106c5565b9160608383031261013757610724828461015b565b926107328360208301610170565b9260408201356001600160401b0381116101375761014892016106f4565b34610137576101be6103e261076636600461070f565b91610cf0565b6101489061077e600691600092610564565b6104c9565b34610137576101be6103e261079936600461052a565b61076c565b919060408382031261013757610148906107b8818561015b565b9360200161015b565b61058e610148926107d6600593600094610564565b610564565b34610137576101be61045d6107f136600461079e565b906107c1565b34610137576101b961080a36600461052a565b6108eb565b6101489061013c565b610148905461080f565b1561082957565b60405162461bcd60e51b815260206004820152602660248201527f4f6e6c7920746865206f776e65722063616e20706572666f726d20746869732060448201526530b1ba34b7b760d11b6064820152608490fd5b610168906108a6336108a061089a6108956007610818565b61013c565b9161013c565b14610822565b6108d5565b9060ff905b9181191691161790565b906108ca6101486108d192151590565b82546108ab565b9055565b610168906108e66001916006610564565b6108ba565b6101689061087d565b6101689061090c336108a061089a6108956007610818565b610168906108e66000916006610564565b610168906108f4565b610148906104c3565b6101489054610926565b1561094057565b60405162461bcd60e51b815260206004820152602660248201527f4f6e6c792077686974656c6973742063616e20706572666f726d20746869732060448201526530b1ba34b7b760d11b6064820152608490fd5b6101489291906109ba6109b06109ab336006610564565b61092f565b1515600114610939565b506109c6919033610a93565b600190565b61014891906000610994565b61013c6101486101489290565b610148906109d7565b1561013757565b6101489081565b61014890546109f4565b634e487b7160e01b600052601160045260246000fd5b9190610a26565b9290565b8201809211610a3157565b610a05565b91908203918211610a3157565b90600019906108b0565b6101486101486101489290565b90610a6a6101486108d192610a4d565b8254610a43565b634e487b7160e01b600052600160045260246000fd5b15610a8e57565b610a71565b610aed610a22610bd792610b41610ae86101689796610ac8610ab861089560006109e4565b610ac18361013c565b14156109ed565b610bd1610ae8600495610af88b610af1610aed610a22610ae8868d610564565b6109fb565b9190565b10156109ed565b610b24610b118c610b0c610ae8888c610564565b610a1b565b610af1610aed610148610ae8898d610564565b610b47610b34610ae8838a610564565b610b41610ae8878b610564565b90610a1b565b9a610b6d610b55838a610564565b610b6783610b62836109fb565b610a36565b90610a5a565b610b87610b7a868a610564565b610b6783610b0c836109fb565b7fddf252ad1be2c89b69c2b068fc378daa952ba7f163c4a11628f55a4df523b3ef610bb18361055b565b90610bc8610bbe8861055b565b9361046160405190565b0390a386610564565b93610564565b14610a87565b61014893929190610bf56109b06109ab336006610564565b506109c6929190610c3d610c3060056107d684610c128184610564565b926107d6610c27610148610ae8338098610564565b8a5b11156109ed565b610b6785610b62836109fb565b610a93565b6101489291906000610bdd565b33610c6883610c63846107d6856005610564565b610a5a565b610c9e610bbe610c987f8c5be1e5ebec7d5bd14f71427d1e84f3dd0314c0f7b2291e5b200ac8c7c3b9259361055b565b9361055b565b0390a3600190565b9092610cd790610ccd6101489694610cc660808601976000870190610606565b6020850152565b6040830190610606565b6060818403910152610352565b6040513d6000823e3d90fd5b9291600093610d0883610d028361055b565b92610c4f565b610d1157505050565b610d1e919293945061055b565b90638f4ffcb1913391610d303061055b565b90823b1561013757600094610d658692610d5a94610d4d60405190565b998a988997889660e01b90565b865260048601610ca6565b03925af18015610d9857610d7a575b50600190565b610d92906000610d8a81836102c7565b8101906101c2565b38610d74565b610ce4565b6101489190610db36109b06109ab336006610564565b5033610de2610dd58260046107d6610dce610ae88484610564565b8790610af1565b610b6784610b62836109fb565b610dfa610df383610b6260036109fb565b6003610a5a565b610e31610e277fcc16f5dbb4873280815c1ee09dbd06736cffcc184412cf7a71a0fdb75d397ca59261055b565b9261046160405190565b0390a2600190565b610148906000610d9d565b610148929190610e5b6109b06109ab336006610564565b50610de2610dd56004610e7b610e74610ae88684610564565b8690610af1565b6107d68460056107d6610eab83610e928185610564565b966107d68c610c29610aed610148610ae833809e610564565b610b678a610b62836109fb565b61014891906000610e44565b9061016891610edd336108a061089a6108956007610818565b610f2a565b801515610154565b9050519061016882610ee2565b906020828203126101375761014891610eea565b916020610168929493610f2660408201966000830190610606565b0152565b610f3d610f3860209261055b565b61055b565b63a9059cbb90610f6360003393610f6e610f5660405190565b9788968795869460e01b90565b845260048401610f0b565b03925af18015610d9857610f7f5750565b610f9f9060203d8111610fa2575b610f9781836102c7565b810190610ef7565b50565b503d610f8d565b9061016891610ec4565b61016890610fcb336108a061089a6108956007610818565b611042565b90610fdd6106d58361069d565b918252565b3d15610ffc57610ff13d610fd0565b903d6000602084013e565b606090565b1561100857565b60405162461bcd60e51b81526020600482015260126024820152712330b4b632b2103a379039b2b7321021272160711b6044820152606490fd5b60008061016892339061105460405190565b90818003925af1611063610fe2565b50611001565b61016890610fb356fea2646970667358221220066b1341ba95ce637ff55ca31a2eb00b7fe97e8e6e929b00301e528102c3e1d764736f6c63430008120033",
  "linkReferences": {},
  "deployedLinkReferences": {}
}