{"contracts/Crowdfunding.sol":{"Crowdfunding":{"abi":[{"anonymous":false,"inputs":[{"indexed":false,"internalType":"address","name":"projectAddress","type":"address"},{"indexed":false,"internalType":"uint256","name":"contributedAmount","type":"uint256"},{"indexed":true,"internalType":"address","name":"contributor","type":"address"}],"name":"ContributionReceived","type":"event"},{"anonymous":false,"inputs":[{"indexed":true,"internalType":"address","name":"previousOwner","type":"address"},{"indexed":true,"internalType":"address","name":"newOwner","type":"address"}],"name":"OwnershipTransferred","type":"event"},{"anonymous":false,"inputs":[{"indexed":false,"internalType":"address","name":"projectContractAddress","type":"address"},{"indexed":false,"internalType":"address","name":"creator","type":"address"},{"indexed":false,"internalType":"uint256","name":"projectDeadline","type":"uint256"},{"indexed":false,"internalType":"uint256","name":"goalAmount","type":"uint256"},{"indexed":false,"internalType":"uint256","name":"currentAmount","type":"uint256"},{"indexed":false,"internalType":"uint256","name":"noOfContributors","type":"uint256"},{"indexed":false,"internalType":"string","name":"title","type":"string"},{"indexed":false,"internalType":"string","name":"desc","type":"string"},{"indexed":false,"internalType":"uint256","name":"currentState","type":"uint256"},{"indexed":false,"internalType":"string","name":"websiteUrl","type":"string"},{"indexed":false,"internalType":"string","name":"socialUrl","type":"string"},{"indexed":false,"internalType":"string","name":"projectCoverUrl","type":"string"},{"indexed":false,"internalType":"string","name":"filterTags","type":"string"}],"name":"ProjectStarted","type":"event"},{"stateMutability":"payable","type":"fallback"},{"inputs":[{"internalType":"contract IERC20","name":"","type":"address"}],"name":"acceptedTokens","outputs":[{"internalType":"bool","name":"","type":"bool"}],"stateMutability":"view","type":"function"},{"inputs":[{"internalType":"contract IERC20","name":"tokenAddress","type":"address"}],"name":"addAcceptedContributionToken","outputs":[],"stateMutability":"nonpayable","type":"function"},{"inputs":[{"internalType":"contract IERC20","name":"tokenAddress","type":"address"}],"name":"addRewardTokenAddress","outputs":[],"stateMutability":"nonpayable","type":"function"},{"inputs":[{"internalType":"contract IERC20","name":"tokenAddress","type":"address"},{"internalType":"uint256[2][4]","name":"rewardTiers","type":"uint256[2][4]"}],"name":"addRewardTokenTier","outputs":[],"stateMutability":"nonpayable","type":"function"},{"inputs":[],"name":"buildPointAddress","outputs":[{"internalType":"contract IERC20","name":"","type":"address"}],"stateMutability":"view","type":"function"},{"inputs":[{"internalType":"address","name":"_projectAddress","type":"address"},{"internalType":"contract IERC20","name":"token","type":"address"},{"internalType":"uint256","name":"amount","type":"uint256"}],"name":"contribute","outputs":[],"stateMutability":"nonpayable","type":"function"},{"inputs":[{"internalType":"uint256","name":"deadline","type":"uint256"},{"internalType":"uint256","name":"targetContribution","type":"uint256"},{"internalType":"string","name":"projectTitle","type":"string"},{"internalType":"string","name":"projectDesc","type":"string"},{"internalType":"string","name":"websiteUrl","type":"string"},{"internalType":"string","name":"socialUrl","type":"string"},{"internalType":"string","name":"githubUrl","type":"string"},{"internalType":"string","name":"projectCoverUrl","type":"string"},{"internalType":"string","name":"filterTags","type":"string"},{"internalType":"address","name":"usdt","type":"address"},{"internalType":"address","name":"usdc","type":"address"}],"name":"createProject","outputs":[],"stateMutability":"nonpayable","type":"function"},{"inputs":[],"name":"emergencyWithdrawBNB","outputs":[],"stateMutability":"nonpayable","type":"function"},{"inputs":[{"internalType":"contract IERC20","name":"_tokenAddress","type":"address"}],"name":"emergencyWithdrawERC20","outputs":[],"stateMutability":"nonpayable","type":"function"},{"inputs":[],"name":"getContributedProject","outputs":[{"components":[{"internalType":"address","name":"projectAddress","type":"address"},{"internalType":"string","name":"title","type":"string"},{"internalType":"string","name":"descriptions","type":"string"},{"internalType":"uint256","name":"contributedAmount","type":"uint256"}],"internalType":"struct Crowdfunding.ProjectArray[]","name":"","type":"tuple[]"}],"stateMutability":"view","type":"function"},{"inputs":[],"name":"owner","outputs":[{"internalType":"address","name":"","type":"address"}],"stateMutability":"view","type":"function"},{"inputs":[{"internalType":"contract IERC20","name":"tokenAddress","type":"address"}],"name":"removeAcceptedContributionToken","outputs":[],"stateMutability":"nonpayable","type":"function"},{"inputs":[{"internalType":"uint256","name":"rewardTokenAddressesIndex","type":"uint256"}],"name":"removeRewardTokenAddress","outputs":[],"stateMutability":"nonpayable","type":"function"},{"inputs":[],"name":"renounceOwnership","outputs":[],"stateMutability":"nonpayable","type":"function"},{"inputs":[],"name":"returnAllProjects","outputs":[{"internalType":"contract Project[]","name":"","type":"address[]"}],"stateMutability":"view","type":"function"},{"inputs":[{"internalType":"uint256","name":"","type":"uint256"}],"name":"rewardTokenAddresses","outputs":[{"internalType":"contract IERC20","name":"","type":"address"}],"stateMutability":"view","type":"function"},{"inputs":[{"internalType":"contract IERC20","name":"","type":"address"},{"internalType":"uint256","name":"","type":"uint256"},{"internalType":"uint256","name":"","type":"uint256"}],"name":"rewardTokensTiers","outputs":[{"internalType":"uint256","name":"","type":"uint256"}],"stateMutability":"view","type":"function"},{"inputs":[{"internalType":"address","name":"","type":"address"},{"internalType":"uint256","name":"","type":"uint256"}],"name":"rewards","outputs":[{"internalType":"uint256","name":"","type":"uint256"}],"stateMutability":"view","type":"function"},{"inputs":[{"internalType":"contract IERC20","name":"tokenAddress","type":"address"}],"name":"setBuildPointAddress","outputs":[],"stateMutability":"nonpayable","type":"function"},{"inputs":[{"internalType":"address","name":"contributor","type":"address"}],"name":"showRewardUser","outputs":[{"internalType":"uint256[2]","name":"","type":"uint256[2]"}],"stateMutability":"view","type":"function"},{"inputs":[{"internalType":"address","name":"contributor","type":"address"}],"name":"showTotalRewardUser","outputs":[{"internalType":"uint256[2]","name":"","type":"uint256[2]"}],"stateMutability":"view","type":"function"},{"inputs":[{"internalType":"address","name":"","type":"address"},{"internalType":"uint256","name":"","type":"uint256"}],"name":"totalRewards","outputs":[{"internalType":"uint256","name":"","type":"uint256"}],"stateMutability":"view","type":"function"},{"inputs":[{"internalType":"address","name":"newOwner","type":"address"}],"name":"transferOwnership","outputs":[],"stateMutability":"nonpayable","type":"function"},{"inputs":[],"name":"withdrawUserRewards","outputs":[],"stateMutability":"nonpayable","type":"function"}],"evm":{"bytecode":{"linkReferences":{},"object":"6080604052346200002657620000146200002b565b60405161565a62000126823961565a90f35b600080fd5b6200003562000037565b565b6200003533620000c3565b62000054905b6001600160a01b031690565b90565b62000054905462000042565b620000549062000048906001600160a01b031682565b620000549062000063565b620000549062000079565b90620000a362000054620000bf9262000084565b82546001600160a01b0319166001600160a01b03919091161790565b9055565b620000cf600062000057565b90620000dd8160006200008f565b620001146200010d7f8be0079c531659141344cd1fd0a4f28419497f9722a3daafe3b4186f6b6457e09362000084565b9162000084565b916200011f60405190565b600090a356fe608060405260043610156200001057005b60003560e01c80630e345a1614620001c157806340c442de14620001bb57806343746a3714620001b557806357568eca14620001af578063606266f514620001a9578063715018a614620001a3578063773bbb17146200019d5780637b2d9b2c146200019757806382dc4a05146200019157806385b6e28e146200018b57806389f7d66414620001855780638d472709146200017f5780638da5cb5b14620001795780638e4182df1462000173578063945bbdcd146200016d5780639dd2764a1462000167578063a3df77791462000161578063ac0946d9146200015b578063b661e0b21462000155578063b933ceac146200014f578063bb7252d81462000149578063df4f28ff1462000143578063f26b854f146200013d5763f2fde38b146200013757005b62000db8565b62000d9b565b62000d7a565b62000d4b565b62000d29565b62000cfc565b62000cdf565b62000cc2565b62000ca5565b62000c77565b62000be1565b620009fc565b620009cc565b6200097d565b620008e1565b62000831565b620007cb565b6200071b565b620005a7565b6200057e565b6200054c565b62000402565b620003ce565b62000390565b6001600160a01b031690565b90565b620001d390620001c7565b620001ec81620001d6565b03620001f457565b600080fd5b905035906200020882620001e1565b565b634e487b7160e01b600052604160045260246000fd5b90601f01601f191681019081106001600160401b038211176200024257604052565b6200020a565b90620002086200025760405190565b928362000220565b6001600160401b038111620002425760200290565b80620001ec565b90503590620002088262000274565b90929192620002a36200029d826200025f565b62000248565b936020859202830192818411620001f457915b838310620002c45750505050565b60208091620002d484866200027b565b815201920191620002b6565b9080601f83011215620001f457620001d3916002906200028a565b909291926200030e6200029d826200025f565b936040859202830192818411620001f457915b8383106200032f5750505050565b6020604091620003408486620002e0565b81520192019162000321565b9080601f83011215620001f457620001d391600490620002fb565b919061012083820312620001f457620001d390620003868185620001f9565b936020016200034c565b34620001f457620003ae620003a736600462000367565b9062001686565b604051005b0390f35b90602082820312620001f457620001d391620001f9565b34620001f457620003ae620003e5366004620003b7565b62001f70565b90602082820312620001f457620001d3916200027b565b34620001f457620003ae62000419366004620003eb565b62001471565b9091606082840312620001f457620001d36200043c8484620001f9565b936200044c81602086016200027b565b936040016200027b565b620001d390620001c7906001600160a01b031682565b620001d39062000456565b620001d3906200046c565b906200048e9062000477565b600052602052604060002090565b634e487b7160e01b600052603260045260246000fd5b6004821015620004c9576002905b91020190600090565b6200049c565b6002821015620004c957600190620004c0565b620001d3916008021c81565b90620001d39154620004e2565b6200050b60059160009262000482565b906004831015620005455750906200052391620004b2565b506002821015620001f457620001d3916200053e91620004cf565b90620004ee565b80fd5b9052565b34620001f457620003b36200056e620005673660046200041f565b91620004fb565b6040519182918290815260200190565b34620001f457620003ae62000595366004620003b7565b6200142b565b6000910312620001f457565b34620001f457620005ba3660046200059b565b620003ae62000e32565b6200054890620001c7565b60005b838110620005e35750506000910152565b8181015183820152602001620005d2565b62000619620006236020936200062d936200060d815190565b80835293849260200190565b95869101620005cf565b601f01601f191690565b0190565b90620001d390606080620006806200066d608085016200065a60008901516000880190620005c4565b60208801518682036020880152620005f4565b60408701518582036040870152620005f4565b940151910152565b90620001d39162000631565b90620006ac620006a2835190565b8083529160200190565b9081620006bf6020830284019460200190565b926000915b838310620006d457505050505090565b90919293946020620006fa620006f38385600195038752895162000688565b9760200190565b9301930191939290620006c4565b6020808252620001d39291019062000694565b34620001f4576200072e3660046200059b565b620003b36200073c6200192a565b6040519182918262000708565b8054821015620004c957620004c0600191600052602060002090565b620001d3916008021c620001c7565b90620001d3915462000765565b600460006200078e825490565b831015620005455750620001d391620007a79162000749565b9062000774565b620005489062000477565b602081019291620002089190620007ae565b34620001f457620003b3620007ec620007e6366004620003eb565b62000781565b60405191829182620007b9565b620001d3916008021c5b60ff1690565b90620001d39154620007f9565b620001d3906200082b60039160009262000482565b62000809565b34620001f457620003b3620008526200084c366004620003b7565b62000816565b60405191829182901515815260200190565b906200062d81602093620007ae565b90620008966200088f62000885845190565b8084529260200190565b9260200190565b9060005b818110620008a85750505090565b909192620008c5620008be600192865162000864565b9460200190565b9291016200089a565b6020808252620001d39291019062000873565b34620001f457620008f43660046200059b565b620003b36200090262001518565b60405191829182620008ce565b620001ec81620001c7565b9050359062000208826200090f565b9190604083820312620001f457620001d3906200094781856200091a565b936020016200027b565b6200096160029160009262000482565b906002831015620005455750620001d3916200053e91620004cf565b34620001f457620003b36200056e6200099836600462000929565b9062000951565b9091606082840312620001f457620001d3620009bc84846200091a565b936200044c8160208601620001f9565b34620001f457620003ae620009e33660046200099f565b91620020a8565b602081019291620002089190620005c4565b34620001f45762000a0f3660046200059b565b620003b362000a1d62000de1565b60405191829182620009ea565b6001600160401b0381116200024257602090601f01601f19160190565b90826000939282370152565b9092919262000a666200029d8262000a2a565b93818552602085019082840111620001f457620002089262000a47565b9080601f83011215620001f457816020620001d39335910162000a53565b919061016083820312620001f45762000abb81846200027b565b9262000acb82602083016200027b565b9260408201356001600160401b038111620001f4578362000aee91840162000a83565b9260608301356001600160401b038111620001f4578162000b1191850162000a83565b9260808101356001600160401b038111620001f4578262000b3491830162000a83565b9260a08201356001600160401b038111620001f4578362000b5791840162000a83565b9260c08301356001600160401b038111620001f4578162000b7a91850162000a83565b9260e08101356001600160401b038111620001f4578262000b9d91830162000a83565b926101008201356001600160401b038111620001f45762000bc584620001d392850162000a83565b9362000bd68161012086016200091a565b93610140016200091a565b34620001f457620003ae62000bf836600462000aa1565b9998909897919796929695939562001270565b90602082820312620001f457620001d3916200091a565b62000c3462000c3060029390565b9190565b6000915b83831062000c465750505050565b62000c5b6200088f6001928451815260200190565b9201919062000c38565b60408101929162000208919062000c22565b34620001f457620003b362000c9862000c9236600462000c0b565b62001791565b6040519182918262000c65565b34620001f457620003ae62000cbc366004620003b7565b62001404565b34620001f457620003ae62000cd9366004620003b7565b620013d6565b34620001f457620003ae62000cf6366004620003b7565b62001377565b34620001f45762000d0f3660046200059b565b620003ae62001b99565b6200096160019160009262000482565b34620001f457620003b36200056e62000d4436600462000929565b9062000d19565b34620001f457620003b362000c9862000d6636600462000c0b565b6200176f565b620001d36000600662000774565b34620001f45762000d8d3660046200059b565b620003b3620007ec62000d6c565b34620001f45762000dae3660046200059b565b620003ae62001ed1565b34620001f457620003ae62000dcf36600462000c0b565b62000f60565b620001d39054620001d6565b620001d3600062000dd5565b62000df762000e92565b6200020862000e1c565b620001c7620001d3620001d39290565b620001d39062000e01565b6200020862000e2c600062000e11565b62000fa0565b6200020862000ded565b1562000e4457565b60405162461bcd60e51b81528062000e8e600482016020808252818101527f4f776e61626c653a2063616c6c6572206973206e6f7420746865206f776e6572604082015260600190565b0390fd5b6200020862000ea062000de1565b62000ebc62000eb533620001c7565b620001c7565b91620001c7565b1462000e3c565b620002089062000ed262000e92565b62000f34565b1562000ee057565b60405162461bcd60e51b815260206004820152602660248201527f4f776e61626c653a206e6577206f776e657220697320746865207a65726f206160448201526564647265737360d01b6064820152608490fd5b620002089062000e2c62000f4d62000eaf600062000e11565b62000f5883620001c7565b141562000ed8565b620002089062000ec3565b906001600160a01b03905b9181191691161790565b9062000f94620001d362000f9c9262000477565b825462000f6b565b9055565b62000fac600062000dd5565b9062000fba81600062000f80565b62000ff162000fea7f8be0079c531659141344cd1fd0a4f28419497f9722a3daafe3b4186f6b6457e09362000477565b9162000477565b9162000ffc60405190565b600090a3565b9c9b9a999897969492909593918d6101c0810197600082016200102591620005c4565b6020016200103391620005c4565b60408d016200104291620005c4565b60608c016200105191620005c4565b60808b016200106091620005c4565b60a08a015260c089015287810360e08901526200107d91620005f4565b8681036101008801526200109191620005f4565b858103610120870152620010a591620005f4565b848103610140860152620010b991620005f4565b838103610160850152620010cd91620005f4565b828103610180840152620010e191620005f4565b90808203906101a00152620001d391620005f4565b6040513d6000823e3d90fd5b916001600160a01b0360089290920291821b911b62000f76565b919062001131620001d362000f9c9362000477565b90835462001102565b80549190600160401b83101562000242578262001161916001620002089501815562000749565b906200111c565b620001d3620001d3620001d39290565b620005489062001168565b9b9894620012509891620001d39e9c988e62001207620012409a620012609f996200121596620011f1620011fc92620011ea620012319d620011e3620012249e620011d86101a08c019d60008d0190620005c4565b60208b0190620005c4565b6040890152565b6060870152565b608085019062001178565b60a083019062001178565b60c0818403910152620005f4565b8c810360e08e015290620005f4565b926101008b019062001178565b8882036101208a0152620005f4565b90868203610140880152620005f4565b90848203610160860152620005f4565b91610180818403910152620005f4565b9998979590919796949392966200128662000de1565b90339a620012943062000477565b916200129f60405190565b946131218601936001600160401b0385118786101762000242578f8f8f8f918f97938f97948f96958f968f948f9e8f9e620012e49f6131219062002504903962001002565b03906000f0958615620013555762001314876200130e620013509962001308600790565b6200113a565b62000477565b9760008080947f0135f4d92213cf889e4f1ef4d560f39fdbd0b0fb274d3e0104201939d6bc2be09d6200134660405190565b9d8e9d8e62001183565b0390a1565b620010f6565b62000208906200136a62000e92565b6200020890600662000f80565b62000208906200135b565b62000208906200139162000e92565b620013bc565b9060ff9062000f76565b90620013b4620001d362000f9c92151590565b825462001397565b6200020890620013d0600191600362000482565b620013a1565b620002089062001382565b6200020890620013f062000e92565b6200020890620013d0600091600362000482565b6200020890620013e1565b62000208906200141e62000e92565b620002089060046200113a565b62000208906200140f565b62000208906200144562000e92565b62001459565b62000208916000916200111c565b6200146a6200020891600462000749565b906200144b565b620002089062001436565b906200149a6200148e62000885845490565b92600052602060002090565b9060005b818110620014ac5750505090565b909192620014d2620014cb600192620014c58762000dd5565b62000864565b9460010190565b9291016200149e565b90620001d3916200147c565b90620002086200150592620014fb60405190565b93848092620014db565b038362000220565b620001d390620014e7565b620001d360076200150d565b9062000208916200153462000e92565b620015b5565b634e487b7160e01b600052601160045260246000fd5b6000198114620015605760010190565b6200153a565b9060045b811015620004c9576020020190565b9060026200156a565b9160001960089290920291821b911b62000f76565b9190620015ac620001d362000f9c9362001168565b90835462001582565b90600090620015c48262001168565b805b620015d2600462001168565b8110156200167f5780620016738662001634620016086200160487620015fd62001679988b62001566565b5162001579565b5190565b6200162d896200162687620016206005978862000482565b620004b2565b50620004cf565b9062001597565b6200162d62001644848862001566565b516200162685620016208c6200166c62001604600196620016658862001168565b9062001579565b9662000482565b62001550565b620015c6565b5050505050565b90620002089162001524565b6200029d620001d3916200025f565b369037565b9062000208620016c1620016ba8462001692565b936200025f565b83620016a1565b620001d36002620016a6565b620001d39081565b620001d39054620016d4565b620016f662000c3060029390565b6000915b838310620017085750505050565b6200172d620017266001926200171e85620016dc565b815260200190565b9260010190565b92019190620016fa565b906200062d81604093620016e8565b906200020862001505926200175a60405190565b9384809262001737565b620001d39062001746565b6200178b620001d39162001782620016c8565b50600162000482565b62001764565b6200178b620001d391620017a4620016c8565b50600262000482565b6001600160401b038111620002425760208091020190565b90620017d56200029d83620017ad565b918252565b620001d3608062000248565b620017f0620017da565b60008082526060602083018190526040830181905282015290565b620001d3620017e6565b60005b8281106200182557505050565b602090620018326200180b565b818401520162001818565b9062000208620018586200185184620017c5565b93620017ad565b601f19016020840162001815565b90505190620002088262000274565b90602082820312620001f457620001d39162001866565b909291926200189f6200029d8262000a2a565b93818552602085019082840111620001f4576200020892620005cf565b9080601f83011215620001f4578151620001d3926020016200188c565b90602082820312620001f45781516001600160401b038111620001f457620001d39201620018bc565b906200054890620001c7565b9062001918825190565b811015620004c9576020809102010190565b60076200193f62001939825490565b6200183d565b9060006200194d8162001168565b90815b6200195d620001d3855490565b81101562001b8457620019ae60206200197f6200130e620007a7858962000749565b630a77137090620019a233926200199560405190565b9586948593849360e01b90565b835260048301620009ea565b03915afa9081156200135557839162001b4f575b50620019ce8362001168565b8111620019e8575b50620019e29062001550565b62001950565b819362001a026200130e620007a762001a30958962000749565b8462001a176200130e620007a7898b62000749565b63c3e20c9f9062001a2760405190565b96879260e01b90565b825260049082905afa8015620013555762001a7c94869162001b31575b508562001a636200130e620007a78a8c62000749565b6303c29d589062001a7360405190565b97889260e01b90565b825260049082905afa938415620013555762001ad462001afb9562001adb93620019e2988a9262001b03575b5062001acd9062001ac662001abc620017da565b978c890162001902565b6020870152565b6040850152565b6060830152565b62001ae782896200190e565b5262001af481886200190e565b5062001550565b9290620019d6565b62001acd91925062001b29903d808d833e62001b20818362000220565b810190620018d9565b919062001aa8565b62001b4891503d8088833e62001b20818362000220565b3862001a4d565b62001b75915060203d811162001b7c575b62001b6c818362000220565b81019062001875565b38620019c2565b503d62001b60565b5050505090565b919082039182116200156057565b620002083362001c0662001bf1600162001c0d62001bb8858362000482565b62001c0662001bf162001bd26200053e60008095620004cf565b9262001bdf848a62001cab565b62001beb898762000482565b620004cf565b91909262001c008385620004ee565b62001b8b565b9162001597565b62001beb62001c266200053e8362001beb888262000482565b9462001c3f868262001c39600662000dd5565b62001daf565b8262000482565b1562001c4e57565b60405162461bcd60e51b815260206004820152602f60248201527f496e73756666696369656e742062616c616e636520696e20706f6f6c20746f2060448201526e706179206f7574207265776172647360881b6064820152608490fd5b600080809362001cd46200130e83956200130e62001cc93062000477565b859031101562001c46565b82821562001ce6575bf1156200135557565b506108fc62001cdd565b1562001cf857565b60405162461bcd60e51b815260206004820152603860248201527f496e73756666696369656e7420746f6b656e2062616c616e636520696e20706f60448201527737b6103a37903830bc9037baba103932bbb0b932399034b760411b6064820152608490fd5b801515620001ec565b90505190620002088262001d5e565b90602082820312620001f457620001d39162001d67565b9160206200020892949362001dab60408201966000830190620005c4565b0152565b62001dba9062000477565b906370a08231916020620019a262001dd23062000477565b9462001dec62001de160405190565b968793849360e01b90565b0381845afa928315620013555760209362001e149160009162001e89575b5085111562001cf0565b62001e3a600063a9059cbb62001e4662001e2d60405190565b9788968795869460e01b90565b84526004840162001d8d565b03925af18015620013555762001e595750565b62001e7e9060203d811162001e81575b62001e75818362000220565b81019062001d76565b50565b503d62001e69565b62001ea49150853d811162001b7c5762001b6c818362000220565b3862001e0a565b62001eb562000e92565b62000208620002083362001ec93062000477565b319062001cab565b6200020862001eab565b620002089062001eea62000e92565b62001f2a9033602062001efd8362000477565b6370a0823190620019a262001f123062000477565b9262001f1d60405190565b9788948593849360e01b90565b03915afa9182156200135557620002089360009362001f4b575b5062001daf565b62001f6891935060203d811162001b7c5762001b6c818362000220565b913862001f44565b620002089062001edb565b60031115620001f457565b90505190620002088262001f7b565b90602082820312620001f457620001d39162001f86565b634e487b7160e01b600052602160045260246000fd5b6003111562001fcd57565b62001fac565b90620002088262001fc2565b1562001fe757565b60405162461bcd60e51b815260206004820152600d60248201526c496e76616c696420737461746560981b6044820152606490fd5b620001d39062000803565b620001d390546200201c565b156200203b57565b60405162461bcd60e51b8152602060048201526012602482015271151bdad95b881b9bdd081858d8d95c1d195960721b6044820152606490fd5b604090620020a06200020894969593966200209960608401986000850190620005c4565b6020830152565b0190620007ae565b91620020b86200130e8462000477565b9163c19d93fb90620020d4620020cd60405190565b9260e01b90565b8252602082600481875afa918215620013555760009262002215575b50620021156000926200210e620021078562001fd3565b9162001fd3565b1462001fdf565b62002136620021306200212a83600362000482565b62002027565b62002033565b634cbc1553913394803b15620001f457620021609382916200215760405190565b95869260e01b90565b825281838162002176888b8d6004850162002075565b03925af192831562001355576200219793620021e1575b505082846200225a565b620021c37f0829c5c9dc5d14e41b11cfca0f01f76eba69b648ddcf9f84afba16ba8a76bf1c9262000477565b92620021dc620021d260405190565b9283928362001d8d565b0390a2565b816200220592903d106200220d575b620021fc818362000220565b8101906200059b565b38806200218d565b503d620021f0565b6200223c91925060203d811162002244575b62002233818362000220565b81019062001f95565b9038620020f0565b503d62002227565b919082018092116200156057565b620022fe62001c069162002281620002089562001beb956200227a600090565b5062002313565b9490916001926200230d62002297838662000482565b91620022c1620022aa60008095620004cf565b62001c0684620022bb8385620004ee565b6200224c565b620022e7620022d68762001beb878262000482565b62001c068c620022bb8385620004ee565b62001c06620022fe60029462001beb878762000482565b919092620022bb8385620004ee565b62000482565b620023266729a2241af62c000062001168565b81101580620024e6575b620024ad5762002348674563918244f4000062001168565b81118062002490575b6200244f5762002369678ac7230489e8000062001168565b81118062002431575b620023f9576200238f62000c306802b5e3af16b188000062001168565b11620023a75750620023a2600062001168565b908190565b90620001d36200053e620023ef60059462001620620023c7828862000482565b91620023e86200053e620023de60038096620004b2565b50600090620004cf565b9762000482565b50600190620004cf565b5090620001d36200053e620023ef600594620016206200241a828862000482565b91620023e86200053e620023de60028096620004b2565b50620024466802b5e3af16b188000062001168565b81111562002372565b5090620001d36200053e620023de620016266005956200162062002474828962000482565b91620024896200053e600196878096620004b2565b9862000482565b50620024a4678ac7230489e8000062001168565b81111562002351565b5090620001d36200053e620023ef6200162662001620600596620023e86200053e620024da838b62000482565b600095868092620004b2565b50620024fa674563918244f4000062001168565b8111156200233056fe60806040523462000043576200003162000018620002e7565b9c9b909b9a919a99929998939897949796959662000726565b60405161249662000c8b823961249690f35b600080fd5b634e487b7160e01b600052604160045260246000fd5b90601f01601f191681019081106001600160401b038211176200008057604052565b62000048565b906200009d6200009560405190565b92836200005e565b565b6001600160a01b031690565b90565b620000b9816200009f565b036200004357565b905051906200009d82620000ae565b80620000b9565b905051906200009d82620000d0565b6001600160401b0381116200008057602090601f01601f19160190565b0190565b60005b8381106200011b5750506000910152565b81810151838201526020016200010a565b90929192620001456200013f82620000e6565b62000086565b9381855260208501908284011162000043576200009d9262000107565b9080601f8301121562000043578151620000ab926020016200012c565b9190916101c08184031262000043576200019a8382620000c1565b92620001aa8160208401620000c1565b92604090620001bc83838601620000c1565b93620001cc8460608301620000c1565b93620001dc8160808401620000c1565b93620001ec8260a08501620000d7565b93620001fc8360c08601620000d7565b9360e0810151600180851b0381116200004357846200021d91830162000162565b93610100820151600180861b0381116200004357816200023f91840162000162565b93610120830151600180831b0381116200004357826200026191850162000162565b93610140840151600180841b0381116200004357836200028391860162000162565b93610160810151600180851b038111620000435784620002a591830162000162565b93610180820151600180861b038111620000435781620002c791840162000162565b936001806101a0850151921b0381116200004357620000ab920162000162565b6200030a6200312180380380620002fe8162000086565b9283398101906200017f565b909192939495969798999a9b9c9d565b620000ab906200009f906001600160a01b031682565b620000ab906200031a565b620000ab9062000330565b906001600160a01b03905b9181191691161790565b906200036f620000ab62000377926200033b565b825462000346565b9055565b906000199062000351565b620000ab620000ab620000ab9290565b90620003aa620000ab620003779262000386565b82546200037b565b9060ff9062000351565b634e487b7160e01b600052602160045260246000fd5b60031115620003dd57565b620003bc565b906200009d82620003d2565b620000ab90620003e3565b906200040e620000ab6200037792620003ef565b8254620003b2565b9061ff009060081b62000351565b9062000437620000ab6200037792151590565b825462000416565b9062ff00009060101b62000351565b9062000461620000ab6200037792151590565b82546200043f565b634e487b7160e01b600052602260045260246000fd5b9060016002830492168015620004a2575b60208310146200049c57565b62000469565b91607f169162000490565b9160001960089290920291821b911b62000351565b9190620004d7620000ab620003779362000386565b908354620004ad565b6200009d91600091620004c2565b818110620004fa575050565b806200050a6000600193620004e0565b01620004ee565b9190601f81116200052157505050565b620005356200009d93600052602060002090565b906020601f84018190048301931062000559575b6020601f909101040190620004ee565b909150819062000549565b9060001960089091021c191690565b816200057f9162000564565b906002021790565b9062000591815190565b906001600160401b0382116200008057620005b982620005b285546200047f565b8562000511565b602090601f8311600114620005ec5762000377929160009183620005e0575b505062000573565b015190503880620005d8565b601f198316916200060285600052602060002090565b9260005b818110620006465750916002939185600196941062000629575b50505002019055565b6200063b910151601f84169062000564565b905538808062000620565b9193602060018192878701518155019501920162000606565b906200009d9162000587565b801515620000b9565b905051906200009d826200066b565b906020828203126200004357620000ab9162000674565b620006a5906200009f565b9052565b620006a59062000386565b9160206200009d929493620006d2604082019660008301906200069a565b0190620006a9565b6040513d6000823e3d90fd5b620000ab906200009f565b620000ab9054620006e6565b620006a5906200033b565b9160206200009d929493620006d260408201966000830190620006fd565b9a959099949c96919b97929893987375bf6c63f2941ed31a908b976b5e39954561517b62000754906200033b565b620007619060026200035b565b6200077162bc614e600362000396565b6000809d6200078282600e620003fa565b6200078f82600e62000424565b6200079c82600e6200044e565b620007a982601662000396565b8d620007b58b62000c26565b620007c0906200033b565b620007cd9060016200035b565b620007d88d6200033b565b620007e59060046200035b565b620007f0906200033b565b620007fb916200035b565b62000806906200033b565b98620008148a60056200035b565b6200081f906200033b565b9c6200082d8e60066200035b565b6200083a90600762000396565b6200084790600862000396565b6200085490600c6200065f565b6200086190600d6200065f565b6200086c8962000386565b6200087990600a62000396565b6200088690600f6200065f565b620008939060106200065f565b620008a09060116200065f565b620008ad9060136200065f565b620008ba9060126200065f565b620008c5906200033b565b9063095ea7b392600160811b95620008dc60405190565b90620008e88660e01b90565b8252848280620008fd8b8860048401620006b4565b03818a5a94602095f191821562000af057620009296020928a92620009509562000bba575b506200033b565b946200093460405190565b9384928392620009448b60e01b90565b845260048401620006b4565b038189875af1801562000af05762000b99575b50604051620009728560e01b90565b815260208180620009888a8660048401620006b4565b038189885af1801562000af057620009b992602092899262000b79575b506040519384928392620009448a60e01b90565b038188865af1801562000af05762000b58575b50620009ff602086620009e06002620006f1565b6040519384928392620009f38a60e01b90565b84526004840162000708565b038188875af1801562000af05762000b37575b5062000a26602086620009e06002620006f1565b038188865af1801562000af05762000b16575b5062000a45306200033b565b91602062000a5260405190565b809262000a5f8760e01b90565b825281888162000a748c8a60048401620006b4565b03925af1801562000af0576020946200094492879262000af6575b5062000aab62000a9e60405190565b9889968795869460e01b90565b03925af190811562000af0575062000ac05750565b62000ae59060203d811162000ae8575b62000adc81836200005e565b81019062000683565b50565b503d62000ad0565b620006da565b62000b1090873d811162000ae85762000adc81836200005e565b62000a8f565b62000b319060203d811162000ae85762000adc81836200005e565b62000a39565b62000b529060203d811162000ae85762000adc81836200005e565b62000a12565b62000b739060203d811162000ae85762000adc81836200005e565b620009cc565b62000b9390843d811162000ae85762000adc81836200005e565b620009a5565b62000bb49060203d811162000ae85762000adc81836200005e565b62000963565b62000bd490853d811162000ae85762000adc81836200005e565b62000922565b62000bff62000c09602093620001039362000bf3815190565b80835293849260200190565b9586910162000107565b601f01601f191690565b6020808252620000ab9291019062000bda565b62000c5762000c676200009d9262000c3d60405190565b63104c13eb60e21b60208201529283916024830162000c13565b602082018103825203826200005e565b6000809162000c7e6a636f6e736f6c652e6c6f6790565b602082519201905afa5056fe60a0604052600436101561001257600080fd5b60003560e01c80630203d0021461022257806302d05d3f1461021d57806303c29d581461021857806307d94e4a146102135780630a7713701461020e5780630add6b731461020957806318aa9f1e1461020457806324274ee9146101ff578063263a58aa146101fa57806328c30c07146101f557806329dcb0cf146101f057806343ab265f146101eb5780634c4cea5a146101e65780634cbc1553146101e15780634e695a37146101dc57806354214f69146101d75780635eb32936146101d257806380007e83146101cd578063992a7dfb146101c8578063a278a485146101c3578063abb5ca09146101be578063b40141bf146101b9578063b82c86d6146101b4578063c19d93fb146101af578063c3e20c9f146101aa578063c59ee1dc146101a5578063ca4b208b146101a0578063d17075511461019b578063d5cef13314610196578063d688cf5314610191578063d8abe8be1461018c578063e9d1edde146101875763ff3a9c7e0361022757610de7565b610cf8565b610cdc565b610be0565b610bc5565b610baa565b610b83565b610b5c565b610b35565b610b02565b610a8a565b610a63565b610a3c565b610a15565b6109d5565b6108c8565b6108a1565b610868565b61082a565b610811565b6107cf565b6107a8565b610779565b610755565b610711565b6106ea565b6106c3565b610699565b61062f565b61056f565b610548565b6103ad565b61032f565b600080fd5b805b0361022757565b905035906102428261022c565b565b906020828203126102275761025891610235565b90565b60005b83811061026e5750506000910152565b818101518382015260200161025e565b61029f6102a86020936102b293610293815190565b80835293849260200190565b9586910161025b565b601f01601f191690565b0190565b9052565b6001600160a01b031690565b6102b6906102ba565b926103289298979561031860c09661031161031f9461030a6103026102429d9860e08c01908c600081840391015261027e565b9e60208b0152565b6040890152565b6060870152565b6080850152565b151560a0830152565b01906102c6565b346102275761036361034a610345366004610244565b6123d6565b9361035a97959793919360405190565b978897886102cf565b0390f35b600091031261022757565b610258916008021c6001600160a01b031690565b906102589154610372565b61025860006004610386565b60208101929161024291906102c6565b34610227576103bd366004610367565b6103636103c8610391565b6040519182918261039d565b634e487b7160e01b600052600060045260246000fd5b634e487b7160e01b600052602260045260246000fd5b9060016002830492168015610420575b602083101461041b57565b6103ea565b91607f1691610410565b8054600093929161044761043d83610400565b8085529360200190565b9160018116908115610499575060011461046057505050565b6104739192939450600052602060002090565b916000925b8184106104855750500190565b805484840152602090930192600101610478565b92949550505060ff1916825215156020020190565b906102589161042a565b634e487b7160e01b600052604160045260246000fd5b90601f01601f191681019081106001600160401b038211176104ef57604052565b6104b8565b9061024261050e9261050560405190565b938480926104ae565b03836104ce565b9060001061052657610258906104f4565b6103d4565b6102586000600d610515565b60208082526102589291019061027e565b3461022757610558366004610367565b61036361056361052b565b60405191829182610537565b346102275761057f366004610367565b61036361058a61143a565b6040519182918290815260200190565b61022e816102ba565b905035906102428261059a565b9060208282031261022757610258916105a3565b610258906102ba906001600160a01b031682565b610258906105c4565b610258906105d8565b906105f4906105e1565b600052602052604060002090565b610258916008021c81565b906102589154610602565b6102589061062a6014916000926105ea565b61060d565b346102275761036361058a6106453660046105b0565b610618565b610258906102ba565b61022e8161064a565b9050359061024282610653565b9091606082840312610227576102586106828484610235565b93610690816020860161065c565b9360400161065c565b34610227576106b26106ac366004610669565b91612310565b604051005b61025860006011610515565b34610227576106d3366004610367565b6103636105636106b7565b6102586000600b61060d565b34610227576106fa366004610367565b61036361058a6106de565b6102586000600361060d565b3461022757610721366004610367565b61036361058a610705565b80151561022e565b905035906102428261072c565b906020828203126102275761025891610734565b34610227576106b2610768366004610741565b610f64565b6102586000600761060d565b3461022757610789366004610367565b61036361058a61076d565b90602082820312610227576102589161065c565b346102275761036361058a6107be366004610794565b611447565b6102586000600961060d565b34610227576107df366004610367565b61036361058a6107c3565b90916060828403126102275761025861080384846105a3565b936106908160208601610235565b34610227576106b26108243660046107ea565b916113b1565b34610227576106b261083d366004610244565b611abf565b610258916008021c5b60ff1690565b906102589154610842565b6102586001600e610851565b3461022757610878366004610367565b61036361088361085c565b60405191829182901515815260200190565b61025860006012610515565b34610227576108b1366004610367565b610363610563610895565b6102586002600e610851565b34610227576108d8366004610367565b6103636108836108bc565b6102586102586102589290565b906105f4906108e3565b6102589081565b61025890546108fa565b6102589061084b565b610258905461090b565b6102589060081c6102ba565b610258905461091e565b61093f9060156108f0565b90610949826104f4565b9161095660018201610901565b9161096360028301610901565b9161097060038201610901565b916102586005610981818501610914565b930161092a565b91969593946109cc610242966109c560a0966109be6109b66103289760c08a01908a820360008c015261027e565b9c6020890152565b6040870152565b6060850152565b15156080830152565b34610227576103636109f06109eb366004610244565b610934565b92610a0096949692919260405190565b96879687610988565b61025860006013610515565b3461022757610a25366004610367565b610363610563610a09565b6102586000600f610515565b3461022757610a4c366004610367565b610363610563610a30565b6102586000601661060d565b3461022757610a73366004610367565b61036361058a610a57565b6102586000600861060d565b3461022757610a9a366004610367565b61036361058a610a7e565b6102586000600e610851565b634e487b7160e01b600052602160045260246000fd5b60031115610ad157565b610ab1565b9061024282610ac7565b61025890610ad6565b6102b690610ae0565b6020810192916102429190610ae9565b3461022757610b12366004610367565b610363610b1d610aa5565b60405191829182610af2565b6102586000600c610515565b3461022757610b45366004610367565b610363610563610b29565b6102586000600a61060d565b3461022757610b6c366004610367565b61036361058a610b50565b61025860006002610386565b3461022757610b93366004610367565b6103636103c8610b77565b61025860006010610515565b3461022757610bba366004610367565b610363610563610b9e565b3461022757610bd5366004610367565b610363610883611663565b34610227576106b2610bf3366004610244565b610f0f565b90610242610c0560405190565b92836104ce565b6001600160401b0381116104ef57602090601f01601f19160190565b90826000939282370152565b90929192610c49610c4482610c0c565b610bf8565b938185526020850190828401116102275761024292610c28565b9080601f830112156102275781602061025893359101610c34565b919060a0838203126102275782356001600160401b0381116102275781610ca6918501610c63565b92610cb482602083016105a3565b92610258610cc58460408501610235565b93610cd38160608601610235565b93608001610235565b34610227576106b2610cef366004610c7e565b93929092611a0b565b34610227576106b2610d0b366004610741565b610fba565b9e9d9c9b999897959391928f9197959361020083019860008401610d33916102c6565b60208301610d40916102c6565b60408201610d4d916102c6565b6060015260808d015260a08c015260c08b015260e08a01528881036101008a0152610d779161027e565b878103610120890152610d899161027e565b916101408701610d9891610ae9565b610160860152848103610180860152610db09161027e565b8381036101a0850152610dc29161027e565b8281036101c0840152610dd49161027e565b90808203906101e001526102589161027e565b3461022757610df7366004610367565b610e2c610e02612324565b9e610e219e919e9d929d9c939c9b949b9a959a99969998979860405190565b608052608051610d10565b6080519003608051f35b610258905461064a565b15610e4757565b60405162461bcd60e51b815260206004820152603660248201527f596f7520646f6e7420686176652061646d696e2061636365737320746f20706560448201527572666f726d2074686973206f7065726174696f6e202160501b6064820152608490fd5b61024290610ed433610ece610ec8610ec36001610e36565b6105e1565b916102ba565b14610e40565b610f04565b90600019905b9181191691161790565b90610ef9610258610f00926108e3565b8254610ed9565b9055565b610242906003610ee9565b61024290610eab565b61024290610f3033610ece610ec8610ec36001610e36565b610f59565b9061ff009060081b610edf565b90610f52610258610f0092151590565b8254610f35565b61024290600e610f42565b61024290610f18565b61024290610f8533610ece610ec8610ec36001610e36565b610faf565b9062ff00009060101b610edf565b90610fa8610258610f0092151590565b8254610f8a565b61024290600e610f98565b61024290610f6d565b6102589060101c61084b565b6102589054610fc3565b15610fe057565b60405162461bcd60e51b8152602060048201526018602482015277141c9bda9958dd081b5d5cdd081899481d995c9a599a595960421b6044820152606490fd5b906102429291611045611033600e610fcf565b61103f60015b91151590565b14610fd9565b6110bb565b1561105157565b60405162461bcd60e51b815260206004820152603c60248201527f596f7520646f206e6f74206861766520746865206d617374657220726967687460448201527b7320746f20706572666f726d2074686973206f7065726174696f6e2160201b6064820152608490fd5b9061024292916110db336110d5610ec8610ec36000610e36565b1461104a565b6111dc565b634e487b7160e01b600052601160045260246000fd5b60001981146111055760010190565b6110e0565b9190820180921161110557565b905051906102428261022c565b906020828203126102275761025891611117565b916020610242929493610328604082019660008301906102c6565b6040513d6000823e3d90fd5b1561022757565b905051906102428261072c565b906020828203126102275761025891611166565b6040906111b161024294969593966111a7606084019860008501906102c6565b60208301906102c6565b0152565b6040906111b161024294969593966111d5606084019860008501906102c6565b6020830152565b9161124a60149161123261121a866111fc6111f782886105ea565b610901565b9560009661121061120c896108e3565b9190565b14611390576105ea565b61122c8661122783610901565b61110a565b90610ee9565b610ec361124385611227600a610901565b600a610ee9565b9063dd62ed3e9161125a306105e1565b61126d61126660405190565b9460e01b90565b845260208480611281848a60048401611138565b0381855afa91821561135e576112a560209387968691611363575b5086111561115f565b6112c7846323b872dd6112d36112ba60405190565b9889968795869460e01b90565b84528c60048501611187565b03925af190811561135e5750611332575b506112ef600a610901565b916113277f5cdc4ab8d637538ead6cc1904d4160343656c8c82bd266635cfd31ac008fffe09361131e60405190565b938493846111b5565b0390a16102426113dc565b6113529060203d8111611357575b61134a81836104ce565b810190611173565b6112e4565b503d611340565b611153565b6113839150853d8111611389575b61137b81836104ce565b810190611124565b3861129c565b503d611371565b6113ac6113a56113a0600b610901565b6110f6565b600b610ee9565b6105ea565b906102429291611020565b9060ff90610edf565b906113d5610258610f0092610ae0565b82546113bc565b6113e6600a610901565b6113f661120c6102586008610901565b10611412576114076002600e6113c5565b610242426009610ee9565b4261142361120c6102586007610901565b1115611407576114356001600e6113c5565b611407565b611443306105e1565b3190565b602061145e61149292611458600090565b506105e1565b6370a0823190611487611470306105e1565b9261147a60405190565b9586948593849360e01b90565b83526004830161039d565b03915afa90811561135e576000916114a8575090565b610258915060203d81116113895761137b81836104ce565b156114c757565b60405162461bcd60e51b815260206004820152600d60248201526c496e76616c696420737461746560981b6044820152606490fd5b1561150357565b60405162461bcd60e51b8152602060048201526015602482015274446561646c696e652068617320706173736564202160581b6044820152606490fd5b6102589061156b600161156561155f611559600e610914565b92610ad6565b91610ad6565b146114c0565b6115854261157f61120c6102586007610901565b106114fc565b6115e5565b1561159157565b60405162461bcd60e51b815260206004820152602660248201527f596f7520646f6e74206861766520616e7920636f6e747269627574656420616d6044820152656f756e74202160d01b6064820152608490fd5b503360146115f66111f783836105ea565b61160e60009161160861120c846108e3565b1161158a565b8080808061161e610ec3886105e1565b61162b6111f789896105ea565b9082821561165a575bf11561135e576116559261164a611650926108e3565b926105ea565b610ee9565b600190565b506108fc611634565b6102586000611540565b1561167457565b60405162461bcd60e51b815260206004820152603860248201527f596f7520646f6e7420686176652063726561746f722061636365737320746f20604482015277706572666f726d2074686973206f7065726174696f6e202160401b6064820152608490fd5b90610242949392916116fc336116f6610ec8610ec36004610e36565b1461166d565b9061024294939291611719600261156561155f611559600e610914565b61172d4261157f61120c6102586007610901565b611966565b9160001960089290920291821b911b610edf565b9190611757610258610f00936108e3565b908354611732565b61024291600091611746565b818110611776575050565b80611784600060019361175f565b0161176b565b9190601f811161179957505050565b6117ab61024293600052602060002090565b906020601f8401819004830193106117cd575b6020601f90910104019061176b565b90915081906117be565b9060001960089091021c191690565b816117f0916117d7565b906002021790565b90611801815190565b906001600160401b0382116104ef576118248261181e8554610400565b8561178a565b602090601f831160011461185257610f00929160009183611847575b50506117e6565b015190503880611840565b601f1983169161186785600052602060002090565b9260005b8181106118a65750916002939185600196941061188c575b50505002019055565b61189c910151601f8416906117d7565b9055388080611883565b9193602060018192878701518155019501920161186b565b90610242916117f8565b906113d5610258610f0092151590565b90610100600160a81b039060081b610edf565b906118fb610258610f00926105e1565b82546118d8565b6102b6906108e3565b6102b6906105e1565b9297969461031f9061195560c09661031161194d6102429b9661195f9861194060e08c019260008d0152565b8a820360208c015261027e565b9c6040890152565b6080850190611902565b019061190b565b92906005611a069295939561197f6102588660156108f0565b9061198a87836118be565b6119978860018401610ee9565b6119a48160028401610ee9565b6119d28460009485946119c26119b9876108e3565b60038301610ee9565b016119cd85826118c8565b6118eb565b7f3009567e0613f3581563a052fea56298aca1363831103cf6f1cbb8bf5ae122f3976119fd60405190565b97889788611914565b0390a1565b90610242949392916116da565b15611a1f57565b60405162461bcd60e51b815260206004820152601b60248201527a4f6e6c7920636f6e7472696275746f722063616e20766f7465202160281b6044820152606490fd5b15611a6957565b60405162461bcd60e51b8152602060048201526013602482015272596f7520616c726561647920766f746564202160681b6044820152606490fd5b9160206102429294936111b1604082019660008301906102c6565b3390611b5c906111f7611b566003611b4a86611b45611b06610258611ae6888560146105ea565b98611aff60009a611af961120c8d6108e3565b11611a18565b60156108f0565b96611b336004890191611b2d611039611b27611b2288876105ea565b610914565b92151590565b14611a62565b611b4060019384926105ea565b6118c8565b6108e3565b93019261122784610901565b82610ee9565b7fa2925e4595bf873fa82c22a1a89809777347023bf2b502d32710157a5eb8199c91611a06611b8a60405190565b92839283611aa4565b906102429291611bad336116f6610ec8610ec36004610e36565b906102429291611bc8600261156561155f611559600e610914565b611bdc4261157f61120c6102586007610901565b611def565b15611be857565b60405162461bcd60e51b815260206004820152601960248201527814995c5d595cdd08185b1c9958591e4818dbdb5c1b195d1959603a1b6044820152606490fd5b634e487b7160e01b600052601260045260246000fd5b8115611c49570490565b611c29565b15611c5557565b60405162461bcd60e51b815260206004820152603660248201527f4174206c656173742032302520636f6e7472696275746f72206e65656420746f604482015275081d9bdd1948199bdc881d1a1a5cc81c995c5d595cdd60521b6064820152608490fd5b15611cc057565b60405162461bcd60e51b815260206004820152603e602482015260008051602061244183398151915260448201527f6e6f75676820555344542062616c616e636520746f20646973627572736500006064820152608490fd5b15611d2057565b60405162461bcd60e51b815260206004820152603e602482015260008051602061244183398151915260448201527f6e6f75676820555344432062616c616e636520746f20646973627572736500006064820152608490fd5b8181029291811591840414171561110557565b6040906111b16102429496959396611dac606084019860008501906102c6565b602083019061190b565b9297969461031f9061031860c09661031161194d6102429b9661195f98611de260e08c019260008d0152565b8a820360208c015261042a565b919091611e006102588260156108f0565b91611e20611e1060058501610914565b611e1a6000611039565b14611be1565b611e2c60038401610901565b90611e5d611e3a600b610901565b92611e5661120c610258600596611e50886108e3565b90611c3f565b1015611c4e565b611e72611e6c60018601610901565b956105e1565b916370a08231611e81306105e1565b96611e8b60405190565b90611e968360e01b90565b825260208280611ea98c6004830161039d565b0381895afa801561135e5761120c611eca91611ed1946000916114a8575090565b1115611cb9565b611ee6611ee060028801610901565b936105e1565b92611efa611ef360405190565b9260e01b90565b825260208280611f0d8b6004830161039d565b0381875afa801561135e5761120c611f2e91611f35946000916114a8575090565b1115611d19565b840194611f966020611f468861092a565b611f72611f62611f5860018b01610901565b611e5060326108e3565b611f6c60316108e3565b90611d79565b90611f7c60405190565b93849283926323b872dd60e01b5b84528760048501611d8c565b03816000885af1801561135e576122f4575b50611fc96020611fb78861092a565b611f72611f62611f5860028b01610901565b03816000875af1801561135e576122d8575b5042611fed61120c6102586003610901565b11612239576120379260206120026001610e36565b61201b61201160018a01610901565b611e5060646108e3565b9061202560405190565b96879283926323b872dd60e01b611f8a565b03816000855af190811561135e576120989460209261221e575b5061205c6002610e36565b9061206c61201160018a01610901565b91600061207860405190565b80988195829461208c6323b872dd60e01b90565b84528960048501611d8c565b03925af192831561135e576120eb93612202575b5060206120b96001610e36565b6120c861201160028901610901565b906120d260405190565b95869283926323b872dd60e01b84528660048501611d8c565b03816000865af191821561135e57612145936020936121e7575b506121106002610e36565b600061212161201160028a01610901565b9361212b60405190565b968795869485936323b872dd60e01b855260048501611d8c565b03925af1801561135e576121cb575b505b611a0660019261216684866118c8565b60008101938082019561219661219060036121896121838b610901565b9a610901565b9501610901565b9161092a565b927f7a5218350187d3ab901ae3c2001a4348ce5a2089ac30ce35d2fc55b53feac2a5976121c260405190565b97889788611db6565b6121e29060203d81116113575761134a81836104ce565b612154565b6121fd90843d81116113575761134a81836104ce565b612105565b6122199060203d81116113575761134a81836104ce565b6120ac565b61223490833d81116113575761134a81836104ce565b612051565b6020612259936122496001610e36565b9061206c611f5860018a01610901565b03925af191821561135e5761228c936020936122bd575b5061227b6001610e36565b6000612121611f5860028a01610901565b03925af1801561135e576122a1575b50612156565b6122b89060203d81116113575761134a81836104ce565b61229b565b6122d390843d81116113575761134a81836104ce565b612270565b6122ef9060203d81116113575761134a81836104ce565b611fdb565b61230b9060203d81116113575761134a81836104ce565b611fa8565b906102429291611b93565b610258906104f4565b61232e6004610e36565b906123396007610901565b906123446008610901565b9161234f6009610901565b9261235a600a610901565b92612365600c61231b565b94612370600d61231b565b9461237b600e610914565b96612385306105e1565b3196612391600f61231b565b9861239c601061231b565b986123a7601161231b565b9a6123b2601261231b565b9a6123bd6005610e36565b9c6123c86006610e36565b9c6123d3600b610901565b9a565b6102586123ed916123e5606090565b5060156108f0565b906123f8600b610901565b906124028361231b565b9261240f60018201610901565b9261241c60028301610901565b92600561242b60038501610901565b93019061025861243a83610914565b9261092a56fe50726f6a65637420636f6e747261637420646f6573206e6f7420686176652065a2646970667358221220da22e96ac77f8f2326cbe92b87773324aca253ebcae95dcd2dac7fa1e39387da64736f6c63430008120033a26469706673582212207dd2b9bb70827402d82b6d76a9e6e149be6f40cc35d2b4f3f42889a82e89851c64736f6c63430008120033","opcodes":"PUSH1 0x80 PUSH1 0x40 MSTORE CALLVALUE PUSH3 0x26 JUMPI PUSH3 0x14 PUSH3 0x2B JUMP JUMPDEST PUSH1 0x40 MLOAD PUSH2 0x565A PUSH3 0x126 DUP3 CODECOPY PUSH2 0x565A SWAP1 RETURN JUMPDEST PUSH1 0x0 DUP1 REVERT JUMPDEST PUSH3 0x35 PUSH3 0x37 JUMP JUMPDEST JUMP JUMPDEST PUSH3 0x35 CALLER PUSH3 0xC3 JUMP JUMPDEST PUSH3 0x54 SWAP1 JUMPDEST PUSH1 0x1 PUSH1 0x1 PUSH1 0xA0 SHL SUB AND SWAP1 JUMP JUMPDEST SWAP1 JUMP JUMPDEST PUSH3 0x54 SWAP1 SLOAD PUSH3 0x42 JUMP JUMPDEST PUSH3 0x54 SWAP1 PUSH3 0x48 SWAP1 PUSH1 0x1 PUSH1 0x1 PUSH1 0xA0 SHL SUB AND DUP3 JUMP JUMPDEST PUSH3 0x54 SWAP1 PUSH3 0x63 JUMP JUMPDEST PUSH3 0x54 SWAP1 PUSH3 0x79 JUMP JUMPDEST SWAP1 PUSH3 0xA3 PUSH3 0x54 PUSH3 0xBF SWAP3 PUSH3 0x84 JUMP JUMPDEST DUP3 SLOAD PUSH1 0x1 PUSH1 0x1 PUSH1 0xA0 SHL SUB NOT AND PUSH1 0x1 PUSH1 0x1 PUSH1 0xA0 SHL SUB SWAP2 SWAP1 SWAP2 AND OR SWAP1 JUMP JUMPDEST SWAP1 SSTORE JUMP JUMPDEST PUSH3 0xCF PUSH1 0x0 PUSH3 0x57 JUMP JUMPDEST SWAP1 PUSH3 0xDD DUP2 PUSH1 0x0 PUSH3 0x8F JUMP JUMPDEST PUSH3 0x114 PUSH3 0x10D PUSH32 0x8BE0079C531659141344CD1FD0A4F28419497F9722A3DAAFE3B4186F6B6457E0 SWAP4 PUSH3 0x84 JUMP JUMPDEST SWAP2 PUSH3 0x84 JUMP JUMPDEST SWAP2 PUSH3 0x11F PUSH1 0x40 MLOAD SWAP1 JUMP JUMPDEST PUSH1 0x0 SWAP1 LOG3 JUMP INVALID PUSH1 0x80 PUSH1 0x40 MSTORE PUSH1 0x4 CALLDATASIZE LT ISZERO PUSH3 0x10 JUMPI STOP JUMPDEST PUSH1 0x0 CALLDATALOAD PUSH1 0xE0 SHR DUP1 PUSH4 0xE345A16 EQ PUSH3 0x1C1 JUMPI DUP1 PUSH4 0x40C442DE EQ PUSH3 0x1BB JUMPI DUP1 PUSH4 0x43746A37 EQ PUSH3 0x1B5 JUMPI DUP1 PUSH4 0x57568ECA EQ PUSH3 0x1AF JUMPI DUP1 PUSH4 0x606266F5 EQ PUSH3 0x1A9 JUMPI DUP1 PUSH4 0x715018A6 EQ PUSH3 0x1A3 JUMPI DUP1 PUSH4 0x773BBB17 EQ PUSH3 0x19D JUMPI DUP1 PUSH4 0x7B2D9B2C EQ PUSH3 0x197 JUMPI DUP1 PUSH4 0x82DC4A05 EQ PUSH3 0x191 JUMPI DUP1 PUSH4 0x85B6E28E EQ PUSH3 0x18B JUMPI DUP1 PUSH4 0x89F7D664 EQ PUSH3 0x185 JUMPI DUP1 PUSH4 0x8D472709 EQ PUSH3 0x17F JUMPI DUP1 PUSH4 0x8DA5CB5B EQ PUSH3 0x179 JUMPI DUP1 PUSH4 0x8E4182DF EQ PUSH3 0x173 JUMPI DUP1 PUSH4 0x945BBDCD EQ PUSH3 0x16D JUMPI DUP1 PUSH4 0x9DD2764A EQ PUSH3 0x167 JUMPI DUP1 PUSH4 0xA3DF7779 EQ PUSH3 0x161 JUMPI DUP1 PUSH4 0xAC0946D9 EQ PUSH3 0x15B JUMPI DUP1 PUSH4 0xB661E0B2 EQ PUSH3 0x155 JUMPI DUP1 PUSH4 0xB933CEAC EQ PUSH3 0x14F JUMPI DUP1 PUSH4 0xBB7252D8 EQ PUSH3 0x149 JUMPI DUP1 PUSH4 0xDF4F28FF EQ PUSH3 0x143 JUMPI DUP1 PUSH4 0xF26B854F EQ PUSH3 0x13D JUMPI PUSH4 0xF2FDE38B EQ PUSH3 0x137 JUMPI STOP JUMPDEST PUSH3 0xDB8 JUMP JUMPDEST PUSH3 0xD9B JUMP JUMPDEST PUSH3 0xD7A JUMP JUMPDEST PUSH3 0xD4B JUMP JUMPDEST PUSH3 0xD29 JUMP JUMPDEST PUSH3 0xCFC JUMP JUMPDEST PUSH3 0xCDF JUMP JUMPDEST PUSH3 0xCC2 JUMP JUMPDEST PUSH3 0xCA5 JUMP JUMPDEST PUSH3 0xC77 JUMP JUMPDEST PUSH3 0xBE1 JUMP JUMPDEST PUSH3 0x9FC JUMP JUMPDEST PUSH3 0x9CC JUMP JUMPDEST PUSH3 0x97D JUMP JUMPDEST PUSH3 0x8E1 JUMP JUMPDEST PUSH3 0x831 JUMP JUMPDEST PUSH3 0x7CB JUMP JUMPDEST PUSH3 0x71B JUMP JUMPDEST PUSH3 0x5A7 JUMP JUMPDEST PUSH3 0x57E JUMP JUMPDEST PUSH3 0x54C JUMP JUMPDEST PUSH3 0x402 JUMP JUMPDEST PUSH3 0x3CE JUMP JUMPDEST PUSH3 0x390 JUMP JUMPDEST PUSH1 0x1 PUSH1 0x1 PUSH1 0xA0 SHL SUB AND SWAP1 JUMP JUMPDEST SWAP1 JUMP JUMPDEST PUSH3 0x1D3 SWAP1 PUSH3 0x1C7 JUMP JUMPDEST PUSH3 0x1EC DUP2 PUSH3 0x1D6 JUMP JUMPDEST SUB PUSH3 0x1F4 JUMPI JUMP JUMPDEST PUSH1 0x0 DUP1 REVERT JUMPDEST SWAP1 POP CALLDATALOAD SWAP1 PUSH3 0x208 DUP3 PUSH3 0x1E1 JUMP JUMPDEST JUMP JUMPDEST PUSH4 0x4E487B71 PUSH1 0xE0 SHL PUSH1 0x0 MSTORE PUSH1 0x41 PUSH1 0x4 MSTORE PUSH1 0x24 PUSH1 0x0 REVERT JUMPDEST SWAP1 PUSH1 0x1F ADD PUSH1 0x1F NOT AND DUP2 ADD SWAP1 DUP2 LT PUSH1 0x1 PUSH1 0x1 PUSH1 0x40 SHL SUB DUP3 GT OR PUSH3 0x242 JUMPI PUSH1 0x40 MSTORE JUMP JUMPDEST PUSH3 0x20A JUMP JUMPDEST SWAP1 PUSH3 0x208 PUSH3 0x257 PUSH1 0x40 MLOAD SWAP1 JUMP JUMPDEST SWAP3 DUP4 PUSH3 0x220 JUMP JUMPDEST PUSH1 0x1 PUSH1 0x1 PUSH1 0x40 SHL SUB DUP2 GT PUSH3 0x242 JUMPI PUSH1 0x20 MUL SWAP1 JUMP JUMPDEST DUP1 PUSH3 0x1EC JUMP JUMPDEST SWAP1 POP CALLDATALOAD SWAP1 PUSH3 0x208 DUP3 PUSH3 0x274 JUMP JUMPDEST SWAP1 SWAP3 SWAP2 SWAP3 PUSH3 0x2A3 PUSH3 0x29D DUP3 PUSH3 0x25F JUMP JUMPDEST PUSH3 0x248 JUMP JUMPDEST SWAP4 PUSH1 0x20 DUP6 SWAP3 MUL DUP4 ADD SWAP3 DUP2 DUP5 GT PUSH3 0x1F4 JUMPI SWAP2 JUMPDEST DUP4 DUP4 LT PUSH3 0x2C4 JUMPI POP POP POP POP JUMP JUMPDEST PUSH1 0x20 DUP1 SWAP2 PUSH3 0x2D4 DUP5 DUP7 PUSH3 0x27B JUMP JUMPDEST DUP2 MSTORE ADD SWAP3 ADD SWAP2 PUSH3 0x2B6 JUMP JUMPDEST SWAP1 DUP1 PUSH1 0x1F DUP4 ADD SLT ISZERO PUSH3 0x1F4 JUMPI PUSH3 0x1D3 SWAP2 PUSH1 0x2 SWAP1 PUSH3 0x28A JUMP JUMPDEST SWAP1 SWAP3 SWAP2 SWAP3 PUSH3 0x30E PUSH3 0x29D DUP3 PUSH3 0x25F JUMP JUMPDEST SWAP4 PUSH1 0x40 DUP6 SWAP3 MUL DUP4 ADD SWAP3 DUP2 DUP5 GT PUSH3 0x1F4 JUMPI SWAP2 JUMPDEST DUP4 DUP4 LT PUSH3 0x32F JUMPI POP POP POP POP JUMP JUMPDEST PUSH1 0x20 PUSH1 0x40 SWAP2 PUSH3 0x340 DUP5 DUP7 PUSH3 0x2E0 JUMP JUMPDEST DUP2 MSTORE ADD SWAP3 ADD SWAP2 PUSH3 0x321 JUMP JUMPDEST SWAP1 DUP1 PUSH1 0x1F DUP4 ADD SLT ISZERO PUSH3 0x1F4 JUMPI PUSH3 0x1D3 SWAP2 PUSH1 0x4 SWAP1 PUSH3 0x2FB JUMP JUMPDEST SWAP2 SWAP1 PUSH2 0x120 DUP4 DUP3 SUB SLT PUSH3 0x1F4 JUMPI PUSH3 0x1D3 SWAP1 PUSH3 0x386 DUP2 DUP6 PUSH3 0x1F9 JUMP JUMPDEST SWAP4 PUSH1 0x20 ADD PUSH3 0x34C JUMP JUMPDEST CALLVALUE PUSH3 0x1F4 JUMPI PUSH3 0x3AE PUSH3 0x3A7 CALLDATASIZE PUSH1 0x4 PUSH3 0x367 JUMP JUMPDEST SWAP1 PUSH3 0x1686 JUMP JUMPDEST PUSH1 0x40 MLOAD STOP JUMPDEST SUB SWAP1 RETURN JUMPDEST SWAP1 PUSH1 0x20 DUP3 DUP3 SUB SLT PUSH3 0x1F4 JUMPI PUSH3 0x1D3 SWAP2 PUSH3 0x1F9 JUMP JUMPDEST CALLVALUE PUSH3 0x1F4 JUMPI PUSH3 0x3AE PUSH3 0x3E5 CALLDATASIZE PUSH1 0x4 PUSH3 0x3B7 JUMP JUMPDEST PUSH3 0x1F70 JUMP JUMPDEST SWAP1 PUSH1 0x20 DUP3 DUP3 SUB SLT PUSH3 0x1F4 JUMPI PUSH3 0x1D3 SWAP2 PUSH3 0x27B JUMP JUMPDEST CALLVALUE PUSH3 0x1F4 JUMPI PUSH3 0x3AE PUSH3 0x419 CALLDATASIZE PUSH1 0x4 PUSH3 0x3EB JUMP JUMPDEST PUSH3 0x1471 JUMP JUMPDEST SWAP1 SWAP2 PUSH1 0x60 DUP3 DUP5 SUB SLT PUSH3 0x1F4 JUMPI PUSH3 0x1D3 PUSH3 0x43C DUP5 DUP5 PUSH3 0x1F9 JUMP JUMPDEST SWAP4 PUSH3 0x44C DUP2 PUSH1 0x20 DUP7 ADD PUSH3 0x27B JUMP JUMPDEST SWAP4 PUSH1 0x40 ADD PUSH3 0x27B JUMP JUMPDEST PUSH3 0x1D3 SWAP1 PUSH3 0x1C7 SWAP1 PUSH1 0x1 PUSH1 0x1 PUSH1 0xA0 SHL SUB AND DUP3 JUMP JUMPDEST PUSH3 0x1D3 SWAP1 PUSH3 0x456 JUMP JUMPDEST PUSH3 0x1D3 SWAP1 PUSH3 0x46C JUMP JUMPDEST SWAP1 PUSH3 0x48E SWAP1 PUSH3 0x477 JUMP JUMPDEST PUSH1 0x0 MSTORE PUSH1 0x20 MSTORE PUSH1 0x40 PUSH1 0x0 KECCAK256 SWAP1 JUMP JUMPDEST PUSH4 0x4E487B71 PUSH1 0xE0 SHL PUSH1 0x0 MSTORE PUSH1 0x32 PUSH1 0x4 MSTORE PUSH1 0x24 PUSH1 0x0 REVERT JUMPDEST PUSH1 0x4 DUP3 LT ISZERO PUSH3 0x4C9 JUMPI PUSH1 0x2 SWAP1 JUMPDEST SWAP2 MUL ADD SWAP1 PUSH1 0x0 SWAP1 JUMP JUMPDEST PUSH3 0x49C JUMP JUMPDEST PUSH1 0x2 DUP3 LT ISZERO PUSH3 0x4C9 JUMPI PUSH1 0x1 SWAP1 PUSH3 0x4C0 JUMP JUMPDEST PUSH3 0x1D3 SWAP2 PUSH1 0x8 MUL SHR DUP2 JUMP JUMPDEST SWAP1 PUSH3 0x1D3 SWAP2 SLOAD PUSH3 0x4E2 JUMP JUMPDEST PUSH3 0x50B PUSH1 0x5 SWAP2 PUSH1 0x0 SWAP3 PUSH3 0x482 JUMP JUMPDEST SWAP1 PUSH1 0x4 DUP4 LT ISZERO PUSH3 0x545 JUMPI POP SWAP1 PUSH3 0x523 SWAP2 PUSH3 0x4B2 JUMP JUMPDEST POP PUSH1 0x2 DUP3 LT ISZERO PUSH3 0x1F4 JUMPI PUSH3 0x1D3 SWAP2 PUSH3 0x53E SWAP2 PUSH3 0x4CF JUMP JUMPDEST SWAP1 PUSH3 0x4EE JUMP JUMPDEST DUP1 REVERT JUMPDEST SWAP1 MSTORE JUMP JUMPDEST CALLVALUE PUSH3 0x1F4 JUMPI PUSH3 0x3B3 PUSH3 0x56E PUSH3 0x567 CALLDATASIZE PUSH1 0x4 PUSH3 0x41F JUMP JUMPDEST SWAP2 PUSH3 0x4FB JUMP JUMPDEST PUSH1 0x40 MLOAD SWAP2 DUP3 SWAP2 DUP3 SWAP1 DUP2 MSTORE PUSH1 0x20 ADD SWAP1 JUMP JUMPDEST CALLVALUE PUSH3 0x1F4 JUMPI PUSH3 0x3AE PUSH3 0x595 CALLDATASIZE PUSH1 0x4 PUSH3 0x3B7 JUMP JUMPDEST PUSH3 0x142B JUMP JUMPDEST PUSH1 0x0 SWAP2 SUB SLT PUSH3 0x1F4 JUMPI JUMP JUMPDEST CALLVALUE PUSH3 0x1F4 JUMPI PUSH3 0x5BA CALLDATASIZE PUSH1 0x4 PUSH3 0x59B JUMP JUMPDEST PUSH3 0x3AE PUSH3 0xE32 JUMP JUMPDEST PUSH3 0x548 SWAP1 PUSH3 0x1C7 JUMP JUMPDEST PUSH1 0x0 JUMPDEST DUP4 DUP2 LT PUSH3 0x5E3 JUMPI POP POP PUSH1 0x0 SWAP2 ADD MSTORE JUMP JUMPDEST DUP2 DUP2 ADD MLOAD DUP4 DUP3 ADD MSTORE PUSH1 0x20 ADD PUSH3 0x5D2 JUMP JUMPDEST PUSH3 0x619 PUSH3 0x623 PUSH1 0x20 SWAP4 PUSH3 0x62D SWAP4 PUSH3 0x60D DUP2 MLOAD SWAP1 JUMP JUMPDEST DUP1 DUP4 MSTORE SWAP4 DUP5 SWAP3 PUSH1 0x20 ADD SWAP1 JUMP JUMPDEST SWAP6 DUP7 SWAP2 ADD PUSH3 0x5CF JUMP JUMPDEST PUSH1 0x1F ADD PUSH1 0x1F NOT AND SWAP1 JUMP JUMPDEST ADD SWAP1 JUMP JUMPDEST SWAP1 PUSH3 0x1D3 SWAP1 PUSH1 0x60 DUP1 PUSH3 0x680 PUSH3 0x66D PUSH1 0x80 DUP6 ADD PUSH3 0x65A PUSH1 0x0 DUP10 ADD MLOAD PUSH1 0x0 DUP9 ADD SWAP1 PUSH3 0x5C4 JUMP JUMPDEST PUSH1 0x20 DUP9 ADD MLOAD DUP7 DUP3 SUB PUSH1 0x20 DUP9 ADD MSTORE PUSH3 0x5F4 JUMP JUMPDEST PUSH1 0x40 DUP8 ADD MLOAD DUP6 DUP3 SUB PUSH1 0x40 DUP8 ADD MSTORE PUSH3 0x5F4 JUMP JUMPDEST SWAP5 ADD MLOAD SWAP2 ADD MSTORE JUMP JUMPDEST SWAP1 PUSH3 0x1D3 SWAP2 PUSH3 0x631 JUMP JUMPDEST SWAP1 PUSH3 0x6AC PUSH3 0x6A2 DUP4 MLOAD SWAP1 JUMP JUMPDEST DUP1 DUP4 MSTORE SWAP2 PUSH1 0x20 ADD SWAP1 JUMP JUMPDEST SWAP1 DUP2 PUSH3 0x6BF PUSH1 0x20 DUP4 MUL DUP5 ADD SWAP5 PUSH1 0x20 ADD SWAP1 JUMP JUMPDEST SWAP3 PUSH1 0x0 SWAP2 JUMPDEST DUP4 DUP4 LT PUSH3 0x6D4 JUMPI POP POP POP POP POP SWAP1 JUMP JUMPDEST SWAP1 SWAP2 SWAP3 SWAP4 SWAP5 PUSH1 0x20 PUSH3 0x6FA PUSH3 0x6F3 DUP4 DUP6 PUSH1 0x1 SWAP6 SUB DUP8 MSTORE DUP10 MLOAD PUSH3 0x688 JUMP JUMPDEST SWAP8 PUSH1 0x20 ADD SWAP1 JUMP JUMPDEST SWAP4 ADD SWAP4 ADD SWAP2 SWAP4 SWAP3 SWAP1 PUSH3 0x6C4 JUMP JUMPDEST PUSH1 0x20 DUP1 DUP3 MSTORE PUSH3 0x1D3 SWAP3 SWAP2 ADD SWAP1 PUSH3 0x694 JUMP JUMPDEST CALLVALUE PUSH3 0x1F4 JUMPI PUSH3 0x72E CALLDATASIZE PUSH1 0x4 PUSH3 0x59B JUMP JUMPDEST PUSH3 0x3B3 PUSH3 0x73C PUSH3 0x192A JUMP JUMPDEST PUSH1 0x40 MLOAD SWAP2 DUP3 SWAP2 DUP3 PUSH3 0x708 JUMP JUMPDEST DUP1 SLOAD DUP3 LT ISZERO PUSH3 0x4C9 JUMPI PUSH3 0x4C0 PUSH1 0x1 SWAP2 PUSH1 0x0 MSTORE PUSH1 0x20 PUSH1 0x0 KECCAK256 SWAP1 JUMP JUMPDEST PUSH3 0x1D3 SWAP2 PUSH1 0x8 MUL SHR PUSH3 0x1C7 JUMP JUMPDEST SWAP1 PUSH3 0x1D3 SWAP2 SLOAD PUSH3 0x765 JUMP JUMPDEST PUSH1 0x4 PUSH1 0x0 PUSH3 0x78E DUP3 SLOAD SWAP1 JUMP JUMPDEST DUP4 LT ISZERO PUSH3 0x545 JUMPI POP PUSH3 0x1D3 SWAP2 PUSH3 0x7A7 SWAP2 PUSH3 0x749 JUMP JUMPDEST SWAP1 PUSH3 0x774 JUMP JUMPDEST PUSH3 0x548 SWAP1 PUSH3 0x477 JUMP JUMPDEST PUSH1 0x20 DUP2 ADD SWAP3 SWAP2 PUSH3 0x208 SWAP2 SWAP1 PUSH3 0x7AE JUMP JUMPDEST CALLVALUE PUSH3 0x1F4 JUMPI PUSH3 0x3B3 PUSH3 0x7EC PUSH3 0x7E6 CALLDATASIZE PUSH1 0x4 PUSH3 0x3EB JUMP JUMPDEST PUSH3 0x781 JUMP JUMPDEST PUSH1 0x40 MLOAD SWAP2 DUP3 SWAP2 DUP3 PUSH3 0x7B9 JUMP JUMPDEST PUSH3 0x1D3 SWAP2 PUSH1 0x8 MUL SHR JUMPDEST PUSH1 0xFF AND SWAP1 JUMP JUMPDEST SWAP1 PUSH3 0x1D3 SWAP2 SLOAD PUSH3 0x7F9 JUMP JUMPDEST PUSH3 0x1D3 SWAP1 PUSH3 0x82B PUSH1 0x3 SWAP2 PUSH1 0x0 SWAP3 PUSH3 0x482 JUMP JUMPDEST PUSH3 0x809 JUMP JUMPDEST CALLVALUE PUSH3 0x1F4 JUMPI PUSH3 0x3B3 PUSH3 0x852 PUSH3 0x84C CALLDATASIZE PUSH1 0x4 PUSH3 0x3B7 JUMP JUMPDEST PUSH3 0x816 JUMP JUMPDEST PUSH1 0x40 MLOAD SWAP2 DUP3 SWAP2 DUP3 SWAP1 ISZERO ISZERO DUP2 MSTORE PUSH1 0x20 ADD SWAP1 JUMP JUMPDEST SWAP1 PUSH3 0x62D DUP2 PUSH1 0x20 SWAP4 PUSH3 0x7AE JUMP JUMPDEST SWAP1 PUSH3 0x896 PUSH3 0x88F PUSH3 0x885 DUP5 MLOAD SWAP1 JUMP JUMPDEST DUP1 DUP5 MSTORE SWAP3 PUSH1 0x20 ADD SWAP1 JUMP JUMPDEST SWAP3 PUSH1 0x20 ADD SWAP1 JUMP JUMPDEST SWAP1 PUSH1 0x0 JUMPDEST DUP2 DUP2 LT PUSH3 0x8A8 JUMPI POP POP POP SWAP1 JUMP JUMPDEST SWAP1 SWAP2 SWAP3 PUSH3 0x8C5 PUSH3 0x8BE PUSH1 0x1 SWAP3 DUP7 MLOAD PUSH3 0x864 JUMP JUMPDEST SWAP5 PUSH1 0x20 ADD SWAP1 JUMP JUMPDEST SWAP3 SWAP2 ADD PUSH3 0x89A JUMP JUMPDEST PUSH1 0x20 DUP1 DUP3 MSTORE PUSH3 0x1D3 SWAP3 SWAP2 ADD SWAP1 PUSH3 0x873 JUMP JUMPDEST CALLVALUE PUSH3 0x1F4 JUMPI PUSH3 0x8F4 CALLDATASIZE PUSH1 0x4 PUSH3 0x59B JUMP JUMPDEST PUSH3 0x3B3 PUSH3 0x902 PUSH3 0x1518 JUMP JUMPDEST PUSH1 0x40 MLOAD SWAP2 DUP3 SWAP2 DUP3 PUSH3 0x8CE JUMP JUMPDEST PUSH3 0x1EC DUP2 PUSH3 0x1C7 JUMP JUMPDEST SWAP1 POP CALLDATALOAD SWAP1 PUSH3 0x208 DUP3 PUSH3 0x90F JUMP JUMPDEST SWAP2 SWAP1 PUSH1 0x40 DUP4 DUP3 SUB SLT PUSH3 0x1F4 JUMPI PUSH3 0x1D3 SWAP1 PUSH3 0x947 DUP2 DUP6 PUSH3 0x91A JUMP JUMPDEST SWAP4 PUSH1 0x20 ADD PUSH3 0x27B JUMP JUMPDEST PUSH3 0x961 PUSH1 0x2 SWAP2 PUSH1 0x0 SWAP3 PUSH3 0x482 JUMP JUMPDEST SWAP1 PUSH1 0x2 DUP4 LT ISZERO PUSH3 0x545 JUMPI POP PUSH3 0x1D3 SWAP2 PUSH3 0x53E SWAP2 PUSH3 0x4CF JUMP JUMPDEST CALLVALUE PUSH3 0x1F4 JUMPI PUSH3 0x3B3 PUSH3 0x56E PUSH3 0x998 CALLDATASIZE PUSH1 0x4 PUSH3 0x929 JUMP JUMPDEST SWAP1 PUSH3 0x951 JUMP JUMPDEST SWAP1 SWAP2 PUSH1 0x60 DUP3 DUP5 SUB SLT PUSH3 0x1F4 JUMPI PUSH3 0x1D3 PUSH3 0x9BC DUP5 DUP5 PUSH3 0x91A JUMP JUMPDEST SWAP4 PUSH3 0x44C DUP2 PUSH1 0x20 DUP7 ADD PUSH3 0x1F9 JUMP JUMPDEST CALLVALUE PUSH3 0x1F4 JUMPI PUSH3 0x3AE PUSH3 0x9E3 CALLDATASIZE PUSH1 0x4 PUSH3 0x99F JUMP JUMPDEST SWAP2 PUSH3 0x20A8 JUMP JUMPDEST PUSH1 0x20 DUP2 ADD SWAP3 SWAP2 PUSH3 0x208 SWAP2 SWAP1 PUSH3 0x5C4 JUMP JUMPDEST CALLVALUE PUSH3 0x1F4 JUMPI PUSH3 0xA0F CALLDATASIZE PUSH1 0x4 PUSH3 0x59B JUMP JUMPDEST PUSH3 0x3B3 PUSH3 0xA1D PUSH3 0xDE1 JUMP JUMPDEST PUSH1 0x40 MLOAD SWAP2 DUP3 SWAP2 DUP3 PUSH3 0x9EA JUMP JUMPDEST PUSH1 0x1 PUSH1 0x1 PUSH1 0x40 SHL SUB DUP2 GT PUSH3 0x242 JUMPI PUSH1 0x20 SWAP1 PUSH1 0x1F ADD PUSH1 0x1F NOT AND ADD SWAP1 JUMP JUMPDEST SWAP1 DUP3 PUSH1 0x0 SWAP4 SWAP3 DUP3 CALLDATACOPY ADD MSTORE JUMP JUMPDEST SWAP1 SWAP3 SWAP2 SWAP3 PUSH3 0xA66 PUSH3 0x29D DUP3 PUSH3 0xA2A JUMP JUMPDEST SWAP4 DUP2 DUP6 MSTORE PUSH1 0x20 DUP6 ADD SWAP1 DUP3 DUP5 ADD GT PUSH3 0x1F4 JUMPI PUSH3 0x208 SWAP3 PUSH3 0xA47 JUMP JUMPDEST SWAP1 DUP1 PUSH1 0x1F DUP4 ADD SLT ISZERO PUSH3 0x1F4 JUMPI DUP2 PUSH1 0x20 PUSH3 0x1D3 SWAP4 CALLDATALOAD SWAP2 ADD PUSH3 0xA53 JUMP JUMPDEST SWAP2 SWAP1 PUSH2 0x160 DUP4 DUP3 SUB SLT PUSH3 0x1F4 JUMPI PUSH3 0xABB DUP2 DUP5 PUSH3 0x27B JUMP JUMPDEST SWAP3 PUSH3 0xACB DUP3 PUSH1 0x20 DUP4 ADD PUSH3 0x27B JUMP JUMPDEST SWAP3 PUSH1 0x40 DUP3 ADD CALLDATALOAD PUSH1 0x1 PUSH1 0x1 PUSH1 0x40 SHL SUB DUP2 GT PUSH3 0x1F4 JUMPI DUP4 PUSH3 0xAEE SWAP2 DUP5 ADD PUSH3 0xA83 JUMP JUMPDEST SWAP3 PUSH1 0x60 DUP4 ADD CALLDATALOAD PUSH1 0x1 PUSH1 0x1 PUSH1 0x40 SHL SUB DUP2 GT PUSH3 0x1F4 JUMPI DUP2 PUSH3 0xB11 SWAP2 DUP6 ADD PUSH3 0xA83 JUMP JUMPDEST SWAP3 PUSH1 0x80 DUP2 ADD CALLDATALOAD PUSH1 0x1 PUSH1 0x1 PUSH1 0x40 SHL SUB DUP2 GT PUSH3 0x1F4 JUMPI DUP3 PUSH3 0xB34 SWAP2 DUP4 ADD PUSH3 0xA83 JUMP JUMPDEST SWAP3 PUSH1 0xA0 DUP3 ADD CALLDATALOAD PUSH1 0x1 PUSH1 0x1 PUSH1 0x40 SHL SUB DUP2 GT PUSH3 0x1F4 JUMPI DUP4 PUSH3 0xB57 SWAP2 DUP5 ADD PUSH3 0xA83 JUMP JUMPDEST SWAP3 PUSH1 0xC0 DUP4 ADD CALLDATALOAD PUSH1 0x1 PUSH1 0x1 PUSH1 0x40 SHL SUB DUP2 GT PUSH3 0x1F4 JUMPI DUP2 PUSH3 0xB7A SWAP2 DUP6 ADD PUSH3 0xA83 JUMP JUMPDEST SWAP3 PUSH1 0xE0 DUP2 ADD CALLDATALOAD PUSH1 0x1 PUSH1 0x1 PUSH1 0x40 SHL SUB DUP2 GT PUSH3 0x1F4 JUMPI DUP3 PUSH3 0xB9D SWAP2 DUP4 ADD PUSH3 0xA83 JUMP JUMPDEST SWAP3 PUSH2 0x100 DUP3 ADD CALLDATALOAD PUSH1 0x1 PUSH1 0x1 PUSH1 0x40 SHL SUB DUP2 GT PUSH3 0x1F4 JUMPI PUSH3 0xBC5 DUP5 PUSH3 0x1D3 SWAP3 DUP6 ADD PUSH3 0xA83 JUMP JUMPDEST SWAP4 PUSH3 0xBD6 DUP2 PUSH2 0x120 DUP7 ADD PUSH3 0x91A JUMP JUMPDEST SWAP4 PUSH2 0x140 ADD PUSH3 0x91A JUMP JUMPDEST CALLVALUE PUSH3 0x1F4 JUMPI PUSH3 0x3AE PUSH3 0xBF8 CALLDATASIZE PUSH1 0x4 PUSH3 0xAA1 JUMP JUMPDEST SWAP10 SWAP9 SWAP1 SWAP9 SWAP8 SWAP2 SWAP8 SWAP7 SWAP3 SWAP7 SWAP6 SWAP4 SWAP6 PUSH3 0x1270 JUMP JUMPDEST SWAP1 PUSH1 0x20 DUP3 DUP3 SUB SLT PUSH3 0x1F4 JUMPI PUSH3 0x1D3 SWAP2 PUSH3 0x91A JUMP JUMPDEST PUSH3 0xC34 PUSH3 0xC30 PUSH1 0x2 SWAP4 SWAP1 JUMP JUMPDEST SWAP2 SWAP1 JUMP JUMPDEST PUSH1 0x0 SWAP2 JUMPDEST DUP4 DUP4 LT PUSH3 0xC46 JUMPI POP POP POP POP JUMP JUMPDEST PUSH3 0xC5B PUSH3 0x88F PUSH1 0x1 SWAP3 DUP5 MLOAD DUP2 MSTORE PUSH1 0x20 ADD SWAP1 JUMP JUMPDEST SWAP3 ADD SWAP2 SWAP1 PUSH3 0xC38 JUMP JUMPDEST PUSH1 0x40 DUP2 ADD SWAP3 SWAP2 PUSH3 0x208 SWAP2 SWAP1 PUSH3 0xC22 JUMP JUMPDEST CALLVALUE PUSH3 0x1F4 JUMPI PUSH3 0x3B3 PUSH3 0xC98 PUSH3 0xC92 CALLDATASIZE PUSH1 0x4 PUSH3 0xC0B JUMP JUMPDEST PUSH3 0x1791 JUMP JUMPDEST PUSH1 0x40 MLOAD SWAP2 DUP3 SWAP2 DUP3 PUSH3 0xC65 JUMP JUMPDEST CALLVALUE PUSH3 0x1F4 JUMPI PUSH3 0x3AE PUSH3 0xCBC CALLDATASIZE PUSH1 0x4 PUSH3 0x3B7 JUMP JUMPDEST PUSH3 0x1404 JUMP JUMPDEST CALLVALUE PUSH3 0x1F4 JUMPI PUSH3 0x3AE PUSH3 0xCD9 CALLDATASIZE PUSH1 0x4 PUSH3 0x3B7 JUMP JUMPDEST PUSH3 0x13D6 JUMP JUMPDEST CALLVALUE PUSH3 0x1F4 JUMPI PUSH3 0x3AE PUSH3 0xCF6 CALLDATASIZE PUSH1 0x4 PUSH3 0x3B7 JUMP JUMPDEST PUSH3 0x1377 JUMP JUMPDEST CALLVALUE PUSH3 0x1F4 JUMPI PUSH3 0xD0F CALLDATASIZE PUSH1 0x4 PUSH3 0x59B JUMP JUMPDEST PUSH3 0x3AE PUSH3 0x1B99 JUMP JUMPDEST PUSH3 0x961 PUSH1 0x1 SWAP2 PUSH1 0x0 SWAP3 PUSH3 0x482 JUMP JUMPDEST CALLVALUE PUSH3 0x1F4 JUMPI PUSH3 0x3B3 PUSH3 0x56E PUSH3 0xD44 CALLDATASIZE PUSH1 0x4 PUSH3 0x929 JUMP JUMPDEST SWAP1 PUSH3 0xD19 JUMP JUMPDEST CALLVALUE PUSH3 0x1F4 JUMPI PUSH3 0x3B3 PUSH3 0xC98 PUSH3 0xD66 CALLDATASIZE PUSH1 0x4 PUSH3 0xC0B JUMP JUMPDEST PUSH3 0x176F JUMP JUMPDEST PUSH3 0x1D3 PUSH1 0x0 PUSH1 0x6 PUSH3 0x774 JUMP JUMPDEST CALLVALUE PUSH3 0x1F4 JUMPI PUSH3 0xD8D CALLDATASIZE PUSH1 0x4 PUSH3 0x59B JUMP JUMPDEST PUSH3 0x3B3 PUSH3 0x7EC PUSH3 0xD6C JUMP JUMPDEST CALLVALUE PUSH3 0x1F4 JUMPI PUSH3 0xDAE CALLDATASIZE PUSH1 0x4 PUSH3 0x59B JUMP JUMPDEST PUSH3 0x3AE PUSH3 0x1ED1 JUMP JUMPDEST CALLVALUE PUSH3 0x1F4 JUMPI PUSH3 0x3AE PUSH3 0xDCF CALLDATASIZE PUSH1 0x4 PUSH3 0xC0B JUMP JUMPDEST PUSH3 0xF60 JUMP JUMPDEST PUSH3 0x1D3 SWAP1 SLOAD PUSH3 0x1D6 JUMP JUMPDEST PUSH3 0x1D3 PUSH1 0x0 PUSH3 0xDD5 JUMP JUMPDEST PUSH3 0xDF7 PUSH3 0xE92 JUMP JUMPDEST PUSH3 0x208 PUSH3 0xE1C JUMP JUMPDEST PUSH3 0x1C7 PUSH3 0x1D3 PUSH3 0x1D3 SWAP3 SWAP1 JUMP JUMPDEST PUSH3 0x1D3 SWAP1 PUSH3 0xE01 JUMP JUMPDEST PUSH3 0x208 PUSH3 0xE2C PUSH1 0x0 PUSH3 0xE11 JUMP JUMPDEST PUSH3 0xFA0 JUMP JUMPDEST PUSH3 0x208 PUSH3 0xDED JUMP JUMPDEST ISZERO PUSH3 0xE44 JUMPI JUMP JUMPDEST PUSH1 0x40 MLOAD PUSH3 0x461BCD PUSH1 0xE5 SHL DUP2 MSTORE DUP1 PUSH3 0xE8E PUSH1 0x4 DUP3 ADD PUSH1 0x20 DUP1 DUP3 MSTORE DUP2 DUP2 ADD MSTORE PUSH32 0x4F776E61626C653A2063616C6C6572206973206E6F7420746865206F776E6572 PUSH1 0x40 DUP3 ADD MSTORE PUSH1 0x60 ADD SWAP1 JUMP JUMPDEST SUB SWAP1 REVERT JUMPDEST PUSH3 0x208 PUSH3 0xEA0 PUSH3 0xDE1 JUMP JUMPDEST PUSH3 0xEBC PUSH3 0xEB5 CALLER PUSH3 0x1C7 JUMP JUMPDEST PUSH3 0x1C7 JUMP JUMPDEST SWAP2 PUSH3 0x1C7 JUMP JUMPDEST EQ PUSH3 0xE3C JUMP JUMPDEST PUSH3 0x208 SWAP1 PUSH3 0xED2 PUSH3 0xE92 JUMP JUMPDEST PUSH3 0xF34 JUMP JUMPDEST ISZERO PUSH3 0xEE0 JUMPI JUMP JUMPDEST PUSH1 0x40 MLOAD PUSH3 0x461BCD PUSH1 0xE5 SHL DUP2 MSTORE PUSH1 0x20 PUSH1 0x4 DUP3 ADD MSTORE PUSH1 0x26 PUSH1 0x24 DUP3 ADD MSTORE PUSH32 0x4F776E61626C653A206E6577206F776E657220697320746865207A65726F2061 PUSH1 0x44 DUP3 ADD MSTORE PUSH6 0x646472657373 PUSH1 0xD0 SHL PUSH1 0x64 DUP3 ADD MSTORE PUSH1 0x84 SWAP1 REVERT JUMPDEST PUSH3 0x208 SWAP1 PUSH3 0xE2C PUSH3 0xF4D PUSH3 0xEAF PUSH1 0x0 PUSH3 0xE11 JUMP JUMPDEST PUSH3 0xF58 DUP4 PUSH3 0x1C7 JUMP JUMPDEST EQ ISZERO PUSH3 0xED8 JUMP JUMPDEST PUSH3 0x208 SWAP1 PUSH3 0xEC3 JUMP JUMPDEST SWAP1 PUSH1 0x1 PUSH1 0x1 PUSH1 0xA0 SHL SUB SWAP1 JUMPDEST SWAP2 DUP2 NOT AND SWAP2 AND OR SWAP1 JUMP JUMPDEST SWAP1 PUSH3 0xF94 PUSH3 0x1D3 PUSH3 0xF9C SWAP3 PUSH3 0x477 JUMP JUMPDEST DUP3 SLOAD PUSH3 0xF6B JUMP JUMPDEST SWAP1 SSTORE JUMP JUMPDEST PUSH3 0xFAC PUSH1 0x0 PUSH3 0xDD5 JUMP JUMPDEST SWAP1 PUSH3 0xFBA DUP2 PUSH1 0x0 PUSH3 0xF80 JUMP JUMPDEST PUSH3 0xFF1 PUSH3 0xFEA PUSH32 0x8BE0079C531659141344CD1FD0A4F28419497F9722A3DAAFE3B4186F6B6457E0 SWAP4 PUSH3 0x477 JUMP JUMPDEST SWAP2 PUSH3 0x477 JUMP JUMPDEST SWAP2 PUSH3 0xFFC PUSH1 0x40 MLOAD SWAP1 JUMP JUMPDEST PUSH1 0x0 SWAP1 LOG3 JUMP JUMPDEST SWAP13 SWAP12 SWAP11 SWAP10 SWAP9 SWAP8 SWAP7 SWAP5 SWAP3 SWAP1 SWAP6 SWAP4 SWAP2 DUP14 PUSH2 0x1C0 DUP2 ADD SWAP8 PUSH1 0x0 DUP3 ADD PUSH3 0x1025 SWAP2 PUSH3 0x5C4 JUMP JUMPDEST PUSH1 0x20 ADD PUSH3 0x1033 SWAP2 PUSH3 0x5C4 JUMP JUMPDEST PUSH1 0x40 DUP14 ADD PUSH3 0x1042 SWAP2 PUSH3 0x5C4 JUMP JUMPDEST PUSH1 0x60 DUP13 ADD PUSH3 0x1051 SWAP2 PUSH3 0x5C4 JUMP JUMPDEST PUSH1 0x80 DUP12 ADD PUSH3 0x1060 SWAP2 PUSH3 0x5C4 JUMP JUMPDEST PUSH1 0xA0 DUP11 ADD MSTORE PUSH1 0xC0 DUP10 ADD MSTORE DUP8 DUP2 SUB PUSH1 0xE0 DUP10 ADD MSTORE PUSH3 0x107D SWAP2 PUSH3 0x5F4 JUMP JUMPDEST DUP7 DUP2 SUB PUSH2 0x100 DUP9 ADD MSTORE PUSH3 0x1091 SWAP2 PUSH3 0x5F4 JUMP JUMPDEST DUP6 DUP2 SUB PUSH2 0x120 DUP8 ADD MSTORE PUSH3 0x10A5 SWAP2 PUSH3 0x5F4 JUMP JUMPDEST DUP5 DUP2 SUB PUSH2 0x140 DUP7 ADD MSTORE PUSH3 0x10B9 SWAP2 PUSH3 0x5F4 JUMP JUMPDEST DUP4 DUP2 SUB PUSH2 0x160 DUP6 ADD MSTORE PUSH3 0x10CD SWAP2 PUSH3 0x5F4 JUMP JUMPDEST DUP3 DUP2 SUB PUSH2 0x180 DUP5 ADD MSTORE PUSH3 0x10E1 SWAP2 PUSH3 0x5F4 JUMP JUMPDEST SWAP1 DUP1 DUP3 SUB SWAP1 PUSH2 0x1A0 ADD MSTORE PUSH3 0x1D3 SWAP2 PUSH3 0x5F4 JUMP JUMPDEST PUSH1 0x40 MLOAD RETURNDATASIZE PUSH1 0x0 DUP3 RETURNDATACOPY RETURNDATASIZE SWAP1 REVERT JUMPDEST SWAP2 PUSH1 0x1 PUSH1 0x1 PUSH1 0xA0 SHL SUB PUSH1 0x8 SWAP3 SWAP1 SWAP3 MUL SWAP2 DUP3 SHL SWAP2 SHL PUSH3 0xF76 JUMP JUMPDEST SWAP2 SWAP1 PUSH3 0x1131 PUSH3 0x1D3 PUSH3 0xF9C SWAP4 PUSH3 0x477 JUMP JUMPDEST SWAP1 DUP4 SLOAD PUSH3 0x1102 JUMP JUMPDEST DUP1 SLOAD SWAP2 SWAP1 PUSH1 0x1 PUSH1 0x40 SHL DUP4 LT ISZERO PUSH3 0x242 JUMPI DUP3 PUSH3 0x1161 SWAP2 PUSH1 0x1 PUSH3 0x208 SWAP6 ADD DUP2 SSTORE PUSH3 0x749 JUMP JUMPDEST SWAP1 PUSH3 0x111C JUMP JUMPDEST PUSH3 0x1D3 PUSH3 0x1D3 PUSH3 0x1D3 SWAP3 SWAP1 JUMP JUMPDEST PUSH3 0x548 SWAP1 PUSH3 0x1168 JUMP JUMPDEST SWAP12 SWAP9 SWAP5 PUSH3 0x1250 SWAP9 SWAP2 PUSH3 0x1D3 SWAP15 SWAP13 SWAP9 DUP15 PUSH3 0x1207 PUSH3 0x1240 SWAP11 PUSH3 0x1260 SWAP16 SWAP10 PUSH3 0x1215 SWAP7 PUSH3 0x11F1 PUSH3 0x11FC SWAP3 PUSH3 0x11EA PUSH3 0x1231 SWAP14 PUSH3 0x11E3 PUSH3 0x1224 SWAP15 PUSH3 0x11D8 PUSH2 0x1A0 DUP13 ADD SWAP14 PUSH1 0x0 DUP14 ADD SWAP1 PUSH3 0x5C4 JUMP JUMPDEST PUSH1 0x20 DUP12 ADD SWAP1 PUSH3 0x5C4 JUMP JUMPDEST PUSH1 0x40 DUP10 ADD MSTORE JUMP JUMPDEST PUSH1 0x60 DUP8 ADD MSTORE JUMP JUMPDEST PUSH1 0x80 DUP6 ADD SWAP1 PUSH3 0x1178 JUMP JUMPDEST PUSH1 0xA0 DUP4 ADD SWAP1 PUSH3 0x1178 JUMP JUMPDEST PUSH1 0xC0 DUP2 DUP5 SUB SWAP2 ADD MSTORE PUSH3 0x5F4 JUMP JUMPDEST DUP13 DUP2 SUB PUSH1 0xE0 DUP15 ADD MSTORE SWAP1 PUSH3 0x5F4 JUMP JUMPDEST SWAP3 PUSH2 0x100 DUP12 ADD SWAP1 PUSH3 0x1178 JUMP JUMPDEST DUP9 DUP3 SUB PUSH2 0x120 DUP11 ADD MSTORE PUSH3 0x5F4 JUMP JUMPDEST SWAP1 DUP7 DUP3 SUB PUSH2 0x140 DUP9 ADD MSTORE PUSH3 0x5F4 JUMP JUMPDEST SWAP1 DUP5 DUP3 SUB PUSH2 0x160 DUP7 ADD MSTORE PUSH3 0x5F4 JUMP JUMPDEST SWAP2 PUSH2 0x180 DUP2 DUP5 SUB SWAP2 ADD MSTORE PUSH3 0x5F4 JUMP JUMPDEST SWAP10 SWAP9 SWAP8 SWAP6 SWAP1 SWAP2 SWAP8 SWAP7 SWAP5 SWAP4 SWAP3 SWAP7 PUSH3 0x1286 PUSH3 0xDE1 JUMP JUMPDEST SWAP1 CALLER SWAP11 PUSH3 0x1294 ADDRESS PUSH3 0x477 JUMP JUMPDEST SWAP2 PUSH3 0x129F PUSH1 0x40 MLOAD SWAP1 JUMP JUMPDEST SWAP5 PUSH2 0x3121 DUP7 ADD SWAP4 PUSH1 0x1 PUSH1 0x1 PUSH1 0x40 SHL SUB DUP6 GT DUP8 DUP7 LT OR PUSH3 0x242 JUMPI DUP16 DUP16 DUP16 DUP16 SWAP2 DUP16 SWAP8 SWAP4 DUP16 SWAP8 SWAP5 DUP16 SWAP7 SWAP6 DUP16 SWAP7 DUP16 SWAP5 DUP16 SWAP15 DUP16 SWAP15 PUSH3 0x12E4 SWAP16 PUSH2 0x3121 SWAP1 PUSH3 0x2504 SWAP1 CODECOPY PUSH3 0x1002 JUMP JUMPDEST SUB SWAP1 PUSH1 0x0 CREATE SWAP6 DUP7 ISZERO PUSH3 0x1355 JUMPI PUSH3 0x1314 DUP8 PUSH3 0x130E PUSH3 0x1350 SWAP10 PUSH3 0x1308 PUSH1 0x7 SWAP1 JUMP JUMPDEST PUSH3 0x113A JUMP JUMPDEST PUSH3 0x477 JUMP JUMPDEST SWAP8 PUSH1 0x0 DUP1 DUP1 SWAP5 PUSH32 0x135F4D92213CF889E4F1EF4D560F39FDBD0B0FB274D3E0104201939D6BC2BE0 SWAP14 PUSH3 0x1346 PUSH1 0x40 MLOAD SWAP1 JUMP JUMPDEST SWAP14 DUP15 SWAP14 DUP15 PUSH3 0x1183 JUMP JUMPDEST SUB SWAP1 LOG1 JUMP JUMPDEST PUSH3 0x10F6 JUMP JUMPDEST PUSH3 0x208 SWAP1 PUSH3 0x136A PUSH3 0xE92 JUMP JUMPDEST PUSH3 0x208 SWAP1 PUSH1 0x6 PUSH3 0xF80 JUMP JUMPDEST PUSH3 0x208 SWAP1 PUSH3 0x135B JUMP JUMPDEST PUSH3 0x208 SWAP1 PUSH3 0x1391 PUSH3 0xE92 JUMP JUMPDEST PUSH3 0x13BC JUMP JUMPDEST SWAP1 PUSH1 0xFF SWAP1 PUSH3 0xF76 JUMP JUMPDEST SWAP1 PUSH3 0x13B4 PUSH3 0x1D3 PUSH3 0xF9C SWAP3 ISZERO ISZERO SWAP1 JUMP JUMPDEST DUP3 SLOAD PUSH3 0x1397 JUMP JUMPDEST PUSH3 0x208 SWAP1 PUSH3 0x13D0 PUSH1 0x1 SWAP2 PUSH1 0x3 PUSH3 0x482 JUMP JUMPDEST PUSH3 0x13A1 JUMP JUMPDEST PUSH3 0x208 SWAP1 PUSH3 0x1382 JUMP JUMPDEST PUSH3 0x208 SWAP1 PUSH3 0x13F0 PUSH3 0xE92 JUMP JUMPDEST PUSH3 0x208 SWAP1 PUSH3 0x13D0 PUSH1 0x0 SWAP2 PUSH1 0x3 PUSH3 0x482 JUMP JUMPDEST PUSH3 0x208 SWAP1 PUSH3 0x13E1 JUMP JUMPDEST PUSH3 0x208 SWAP1 PUSH3 0x141E PUSH3 0xE92 JUMP JUMPDEST PUSH3 0x208 SWAP1 PUSH1 0x4 PUSH3 0x113A JUMP JUMPDEST PUSH3 0x208 SWAP1 PUSH3 0x140F JUMP JUMPDEST PUSH3 0x208 SWAP1 PUSH3 0x1445 PUSH3 0xE92 JUMP JUMPDEST PUSH3 0x1459 JUMP JUMPDEST PUSH3 0x208 SWAP2 PUSH1 0x0 SWAP2 PUSH3 0x111C JUMP JUMPDEST PUSH3 0x146A PUSH3 0x208 SWAP2 PUSH1 0x4 PUSH3 0x749 JUMP JUMPDEST SWAP1 PUSH3 0x144B JUMP JUMPDEST PUSH3 0x208 SWAP1 PUSH3 0x1436 JUMP JUMPDEST SWAP1 PUSH3 0x149A PUSH3 0x148E PUSH3 0x885 DUP5 SLOAD SWAP1 JUMP JUMPDEST SWAP3 PUSH1 0x0 MSTORE PUSH1 0x20 PUSH1 0x0 KECCAK256 SWAP1 JUMP JUMPDEST SWAP1 PUSH1 0x0 JUMPDEST DUP2 DUP2 LT PUSH3 0x14AC JUMPI POP POP POP SWAP1 JUMP JUMPDEST SWAP1 SWAP2 SWAP3 PUSH3 0x14D2 PUSH3 0x14CB PUSH1 0x1 SWAP3 PUSH3 0x14C5 DUP8 PUSH3 0xDD5 JUMP JUMPDEST PUSH3 0x864 JUMP JUMPDEST SWAP5 PUSH1 0x1 ADD SWAP1 JUMP JUMPDEST SWAP3 SWAP2 ADD PUSH3 0x149E JUMP JUMPDEST SWAP1 PUSH3 0x1D3 SWAP2 PUSH3 0x147C JUMP JUMPDEST SWAP1 PUSH3 0x208 PUSH3 0x1505 SWAP3 PUSH3 0x14FB PUSH1 0x40 MLOAD SWAP1 JUMP JUMPDEST SWAP4 DUP5 DUP1 SWAP3 PUSH3 0x14DB JUMP JUMPDEST SUB DUP4 PUSH3 0x220 JUMP JUMPDEST PUSH3 0x1D3 SWAP1 PUSH3 0x14E7 JUMP JUMPDEST PUSH3 0x1D3 PUSH1 0x7 PUSH3 0x150D JUMP JUMPDEST SWAP1 PUSH3 0x208 SWAP2 PUSH3 0x1534 PUSH3 0xE92 JUMP JUMPDEST PUSH3 0x15B5 JUMP JUMPDEST PUSH4 0x4E487B71 PUSH1 0xE0 SHL PUSH1 0x0 MSTORE PUSH1 0x11 PUSH1 0x4 MSTORE PUSH1 0x24 PUSH1 0x0 REVERT JUMPDEST PUSH1 0x0 NOT DUP2 EQ PUSH3 0x1560 JUMPI PUSH1 0x1 ADD SWAP1 JUMP JUMPDEST PUSH3 0x153A JUMP JUMPDEST SWAP1 PUSH1 0x4 JUMPDEST DUP2 LT ISZERO PUSH3 0x4C9 JUMPI PUSH1 0x20 MUL ADD SWAP1 JUMP JUMPDEST SWAP1 PUSH1 0x2 PUSH3 0x156A JUMP JUMPDEST SWAP2 PUSH1 0x0 NOT PUSH1 0x8 SWAP3 SWAP1 SWAP3 MUL SWAP2 DUP3 SHL SWAP2 SHL PUSH3 0xF76 JUMP JUMPDEST SWAP2 SWAP1 PUSH3 0x15AC PUSH3 0x1D3 PUSH3 0xF9C SWAP4 PUSH3 0x1168 JUMP JUMPDEST SWAP1 DUP4 SLOAD PUSH3 0x1582 JUMP JUMPDEST SWAP1 PUSH1 0x0 SWAP1 PUSH3 0x15C4 DUP3 PUSH3 0x1168 JUMP JUMPDEST DUP1 JUMPDEST PUSH3 0x15D2 PUSH1 0x4 PUSH3 0x1168 JUMP JUMPDEST DUP2 LT ISZERO PUSH3 0x167F JUMPI DUP1 PUSH3 0x1673 DUP7 PUSH3 0x1634 PUSH3 0x1608 PUSH3 0x1604 DUP8 PUSH3 0x15FD PUSH3 0x1679 SWAP9 DUP12 PUSH3 0x1566 JUMP JUMPDEST MLOAD PUSH3 0x1579 JUMP JUMPDEST MLOAD SWAP1 JUMP JUMPDEST PUSH3 0x162D DUP10 PUSH3 0x1626 DUP8 PUSH3 0x1620 PUSH1 0x5 SWAP8 DUP9 PUSH3 0x482 JUMP JUMPDEST PUSH3 0x4B2 JUMP JUMPDEST POP PUSH3 0x4CF JUMP JUMPDEST SWAP1 PUSH3 0x1597 JUMP JUMPDEST PUSH3 0x162D PUSH3 0x1644 DUP5 DUP9 PUSH3 0x1566 JUMP JUMPDEST MLOAD PUSH3 0x1626 DUP6 PUSH3 0x1620 DUP13 PUSH3 0x166C PUSH3 0x1604 PUSH1 0x1 SWAP7 PUSH3 0x1665 DUP9 PUSH3 0x1168 JUMP JUMPDEST SWAP1 PUSH3 0x1579 JUMP JUMPDEST SWAP7 PUSH3 0x482 JUMP JUMPDEST PUSH3 0x1550 JUMP JUMPDEST PUSH3 0x15C6 JUMP JUMPDEST POP POP POP POP POP JUMP JUMPDEST SWAP1 PUSH3 0x208 SWAP2 PUSH3 0x1524 JUMP JUMPDEST PUSH3 0x29D PUSH3 0x1D3 SWAP2 PUSH3 0x25F JUMP JUMPDEST CALLDATASIZE SWAP1 CALLDATACOPY JUMP JUMPDEST SWAP1 PUSH3 0x208 PUSH3 0x16C1 PUSH3 0x16BA DUP5 PUSH3 0x1692 JUMP JUMPDEST SWAP4 PUSH3 0x25F JUMP JUMPDEST DUP4 PUSH3 0x16A1 JUMP JUMPDEST PUSH3 0x1D3 PUSH1 0x2 PUSH3 0x16A6 JUMP JUMPDEST PUSH3 0x1D3 SWAP1 DUP2 JUMP JUMPDEST PUSH3 0x1D3 SWAP1 SLOAD PUSH3 0x16D4 JUMP JUMPDEST PUSH3 0x16F6 PUSH3 0xC30 PUSH1 0x2 SWAP4 SWAP1 JUMP JUMPDEST PUSH1 0x0 SWAP2 JUMPDEST DUP4 DUP4 LT PUSH3 0x1708 JUMPI POP POP POP POP JUMP JUMPDEST PUSH3 0x172D PUSH3 0x1726 PUSH1 0x1 SWAP3 PUSH3 0x171E DUP6 PUSH3 0x16DC JUMP JUMPDEST DUP2 MSTORE PUSH1 0x20 ADD SWAP1 JUMP JUMPDEST SWAP3 PUSH1 0x1 ADD SWAP1 JUMP JUMPDEST SWAP3 ADD SWAP2 SWAP1 PUSH3 0x16FA JUMP JUMPDEST SWAP1 PUSH3 0x62D DUP2 PUSH1 0x40 SWAP4 PUSH3 0x16E8 JUMP JUMPDEST SWAP1 PUSH3 0x208 PUSH3 0x1505 SWAP3 PUSH3 0x175A PUSH1 0x40 MLOAD SWAP1 JUMP JUMPDEST SWAP4 DUP5 DUP1 SWAP3 PUSH3 0x1737 JUMP JUMPDEST PUSH3 0x1D3 SWAP1 PUSH3 0x1746 JUMP JUMPDEST PUSH3 0x178B PUSH3 0x1D3 SWAP2 PUSH3 0x1782 PUSH3 0x16C8 JUMP JUMPDEST POP PUSH1 0x1 PUSH3 0x482 JUMP JUMPDEST PUSH3 0x1764 JUMP JUMPDEST PUSH3 0x178B PUSH3 0x1D3 SWAP2 PUSH3 0x17A4 PUSH3 0x16C8 JUMP JUMPDEST POP PUSH1 0x2 PUSH3 0x482 JUMP JUMPDEST PUSH1 0x1 PUSH1 0x1 PUSH1 0x40 SHL SUB DUP2 GT PUSH3 0x242 JUMPI PUSH1 0x20 DUP1 SWAP2 MUL ADD SWAP1 JUMP JUMPDEST SWAP1 PUSH3 0x17D5 PUSH3 0x29D DUP4 PUSH3 0x17AD JUMP JUMPDEST SWAP2 DUP3 MSTORE JUMP JUMPDEST PUSH3 0x1D3 PUSH1 0x80 PUSH3 0x248 JUMP JUMPDEST PUSH3 0x17F0 PUSH3 0x17DA JUMP JUMPDEST PUSH1 0x0 DUP1 DUP3 MSTORE PUSH1 0x60 PUSH1 0x20 DUP4 ADD DUP2 SWAP1 MSTORE PUSH1 0x40 DUP4 ADD DUP2 SWAP1 MSTORE DUP3 ADD MSTORE SWAP1 JUMP JUMPDEST PUSH3 0x1D3 PUSH3 0x17E6 JUMP JUMPDEST PUSH1 0x0 JUMPDEST DUP3 DUP2 LT PUSH3 0x1825 JUMPI POP POP POP JUMP JUMPDEST PUSH1 0x20 SWAP1 PUSH3 0x1832 PUSH3 0x180B JUMP JUMPDEST DUP2 DUP5 ADD MSTORE ADD PUSH3 0x1818 JUMP JUMPDEST SWAP1 PUSH3 0x208 PUSH3 0x1858 PUSH3 0x1851 DUP5 PUSH3 0x17C5 JUMP JUMPDEST SWAP4 PUSH3 0x17AD JUMP JUMPDEST PUSH1 0x1F NOT ADD PUSH1 0x20 DUP5 ADD PUSH3 0x1815 JUMP JUMPDEST SWAP1 POP MLOAD SWAP1 PUSH3 0x208 DUP3 PUSH3 0x274 JUMP JUMPDEST SWAP1 PUSH1 0x20 DUP3 DUP3 SUB SLT PUSH3 0x1F4 JUMPI PUSH3 0x1D3 SWAP2 PUSH3 0x1866 JUMP JUMPDEST SWAP1 SWAP3 SWAP2 SWAP3 PUSH3 0x189F PUSH3 0x29D DUP3 PUSH3 0xA2A JUMP JUMPDEST SWAP4 DUP2 DUP6 MSTORE PUSH1 0x20 DUP6 ADD SWAP1 DUP3 DUP5 ADD GT PUSH3 0x1F4 JUMPI PUSH3 0x208 SWAP3 PUSH3 0x5CF JUMP JUMPDEST SWAP1 DUP1 PUSH1 0x1F DUP4 ADD SLT ISZERO PUSH3 0x1F4 JUMPI DUP2 MLOAD PUSH3 0x1D3 SWAP3 PUSH1 0x20 ADD PUSH3 0x188C JUMP JUMPDEST SWAP1 PUSH1 0x20 DUP3 DUP3 SUB SLT PUSH3 0x1F4 JUMPI DUP2 MLOAD PUSH1 0x1 PUSH1 0x1 PUSH1 0x40 SHL SUB DUP2 GT PUSH3 0x1F4 JUMPI PUSH3 0x1D3 SWAP3 ADD PUSH3 0x18BC JUMP JUMPDEST SWAP1 PUSH3 0x548 SWAP1 PUSH3 0x1C7 JUMP JUMPDEST SWAP1 PUSH3 0x1918 DUP3 MLOAD SWAP1 JUMP JUMPDEST DUP2 LT ISZERO PUSH3 0x4C9 JUMPI PUSH1 0x20 DUP1 SWAP2 MUL ADD ADD SWAP1 JUMP JUMPDEST PUSH1 0x7 PUSH3 0x193F PUSH3 0x1939 DUP3 SLOAD SWAP1 JUMP JUMPDEST PUSH3 0x183D JUMP JUMPDEST SWAP1 PUSH1 0x0 PUSH3 0x194D DUP2 PUSH3 0x1168 JUMP JUMPDEST SWAP1 DUP2 JUMPDEST PUSH3 0x195D PUSH3 0x1D3 DUP6 SLOAD SWAP1 JUMP JUMPDEST DUP2 LT ISZERO PUSH3 0x1B84 JUMPI PUSH3 0x19AE PUSH1 0x20 PUSH3 0x197F PUSH3 0x130E PUSH3 0x7A7 DUP6 DUP10 PUSH3 0x749 JUMP JUMPDEST PUSH4 0xA771370 SWAP1 PUSH3 0x19A2 CALLER SWAP3 PUSH3 0x1995 PUSH1 0x40 MLOAD SWAP1 JUMP JUMPDEST SWAP6 DUP7 SWAP5 DUP6 SWAP4 DUP5 SWAP4 PUSH1 0xE0 SHL SWAP1 JUMP JUMPDEST DUP4 MSTORE PUSH1 0x4 DUP4 ADD PUSH3 0x9EA JUMP JUMPDEST SUB SWAP2 GAS STATICCALL SWAP1 DUP2 ISZERO PUSH3 0x1355 JUMPI DUP4 SWAP2 PUSH3 0x1B4F JUMPI JUMPDEST POP PUSH3 0x19CE DUP4 PUSH3 0x1168 JUMP JUMPDEST DUP2 GT PUSH3 0x19E8 JUMPI JUMPDEST POP PUSH3 0x19E2 SWAP1 PUSH3 0x1550 JUMP JUMPDEST PUSH3 0x1950 JUMP JUMPDEST DUP2 SWAP4 PUSH3 0x1A02 PUSH3 0x130E PUSH3 0x7A7 PUSH3 0x1A30 SWAP6 DUP10 PUSH3 0x749 JUMP JUMPDEST DUP5 PUSH3 0x1A17 PUSH3 0x130E PUSH3 0x7A7 DUP10 DUP12 PUSH3 0x749 JUMP JUMPDEST PUSH4 0xC3E20C9F SWAP1 PUSH3 0x1A27 PUSH1 0x40 MLOAD SWAP1 JUMP JUMPDEST SWAP7 DUP8 SWAP3 PUSH1 0xE0 SHL SWAP1 JUMP JUMPDEST DUP3 MSTORE PUSH1 0x4 SWAP1 DUP3 SWAP1 GAS STATICCALL DUP1 ISZERO PUSH3 0x1355 JUMPI PUSH3 0x1A7C SWAP5 DUP7 SWAP2 PUSH3 0x1B31 JUMPI JUMPDEST POP DUP6 PUSH3 0x1A63 PUSH3 0x130E PUSH3 0x7A7 DUP11 DUP13 PUSH3 0x749 JUMP JUMPDEST PUSH4 0x3C29D58 SWAP1 PUSH3 0x1A73 PUSH1 0x40 MLOAD SWAP1 JUMP JUMPDEST SWAP8 DUP9 SWAP3 PUSH1 0xE0 SHL SWAP1 JUMP JUMPDEST DUP3 MSTORE PUSH1 0x4 SWAP1 DUP3 SWAP1 GAS STATICCALL SWAP4 DUP5 ISZERO PUSH3 0x1355 JUMPI PUSH3 0x1AD4 PUSH3 0x1AFB SWAP6 PUSH3 0x1ADB SWAP4 PUSH3 0x19E2 SWAP9 DUP11 SWAP3 PUSH3 0x1B03 JUMPI JUMPDEST POP PUSH3 0x1ACD SWAP1 PUSH3 0x1AC6 PUSH3 0x1ABC PUSH3 0x17DA JUMP JUMPDEST SWAP8 DUP13 DUP10 ADD PUSH3 0x1902 JUMP JUMPDEST PUSH1 0x20 DUP8 ADD MSTORE JUMP JUMPDEST PUSH1 0x40 DUP6 ADD MSTORE JUMP JUMPDEST PUSH1 0x60 DUP4 ADD MSTORE JUMP JUMPDEST PUSH3 0x1AE7 DUP3 DUP10 PUSH3 0x190E JUMP JUMPDEST MSTORE PUSH3 0x1AF4 DUP2 DUP9 PUSH3 0x190E JUMP JUMPDEST POP PUSH3 0x1550 JUMP JUMPDEST SWAP3 SWAP1 PUSH3 0x19D6 JUMP JUMPDEST PUSH3 0x1ACD SWAP2 SWAP3 POP PUSH3 0x1B29 SWAP1 RETURNDATASIZE DUP1 DUP14 DUP4 RETURNDATACOPY PUSH3 0x1B20 DUP2 DUP4 PUSH3 0x220 JUMP JUMPDEST DUP2 ADD SWAP1 PUSH3 0x18D9 JUMP JUMPDEST SWAP2 SWAP1 PUSH3 0x1AA8 JUMP JUMPDEST PUSH3 0x1B48 SWAP2 POP RETURNDATASIZE DUP1 DUP9 DUP4 RETURNDATACOPY PUSH3 0x1B20 DUP2 DUP4 PUSH3 0x220 JUMP JUMPDEST CODESIZE PUSH3 0x1A4D JUMP JUMPDEST PUSH3 0x1B75 SWAP2 POP PUSH1 0x20 RETURNDATASIZE DUP2 GT PUSH3 0x1B7C JUMPI JUMPDEST PUSH3 0x1B6C DUP2 DUP4 PUSH3 0x220 JUMP JUMPDEST DUP2 ADD SWAP1 PUSH3 0x1875 JUMP JUMPDEST CODESIZE PUSH3 0x19C2 JUMP JUMPDEST POP RETURNDATASIZE PUSH3 0x1B60 JUMP JUMPDEST POP POP POP POP SWAP1 JUMP JUMPDEST SWAP2 SWAP1 DUP3 SUB SWAP2 DUP3 GT PUSH3 0x1560 JUMPI JUMP JUMPDEST PUSH3 0x208 CALLER PUSH3 0x1C06 PUSH3 0x1BF1 PUSH1 0x1 PUSH3 0x1C0D PUSH3 0x1BB8 DUP6 DUP4 PUSH3 0x482 JUMP JUMPDEST PUSH3 0x1C06 PUSH3 0x1BF1 PUSH3 0x1BD2 PUSH3 0x53E PUSH1 0x0 DUP1 SWAP6 PUSH3 0x4CF JUMP JUMPDEST SWAP3 PUSH3 0x1BDF DUP5 DUP11 PUSH3 0x1CAB JUMP JUMPDEST PUSH3 0x1BEB DUP10 DUP8 PUSH3 0x482 JUMP JUMPDEST PUSH3 0x4CF JUMP JUMPDEST SWAP2 SWAP1 SWAP3 PUSH3 0x1C00 DUP4 DUP6 PUSH3 0x4EE JUMP JUMPDEST PUSH3 0x1B8B JUMP JUMPDEST SWAP2 PUSH3 0x1597 JUMP JUMPDEST PUSH3 0x1BEB PUSH3 0x1C26 PUSH3 0x53E DUP4 PUSH3 0x1BEB DUP9 DUP3 PUSH3 0x482 JUMP JUMPDEST SWAP5 PUSH3 0x1C3F DUP7 DUP3 PUSH3 0x1C39 PUSH1 0x6 PUSH3 0xDD5 JUMP JUMPDEST PUSH3 0x1DAF JUMP JUMPDEST DUP3 PUSH3 0x482 JUMP JUMPDEST ISZERO PUSH3 0x1C4E JUMPI JUMP JUMPDEST PUSH1 0x40 MLOAD PUSH3 0x461BCD PUSH1 0xE5 SHL DUP2 MSTORE PUSH1 0x20 PUSH1 0x4 DUP3 ADD MSTORE PUSH1 0x2F PUSH1 0x24 DUP3 ADD MSTORE PUSH32 0x496E73756666696369656E742062616C616E636520696E20706F6F6C20746F20 PUSH1 0x44 DUP3 ADD MSTORE PUSH15 0x706179206F75742072657761726473 PUSH1 0x88 SHL PUSH1 0x64 DUP3 ADD MSTORE PUSH1 0x84 SWAP1 REVERT JUMPDEST PUSH1 0x0 DUP1 DUP1 SWAP4 PUSH3 0x1CD4 PUSH3 0x130E DUP4 SWAP6 PUSH3 0x130E PUSH3 0x1CC9 ADDRESS PUSH3 0x477 JUMP JUMPDEST DUP6 SWAP1 BALANCE LT ISZERO PUSH3 0x1C46 JUMP JUMPDEST DUP3 DUP3 ISZERO PUSH3 0x1CE6 JUMPI JUMPDEST CALL ISZERO PUSH3 0x1355 JUMPI JUMP JUMPDEST POP PUSH2 0x8FC PUSH3 0x1CDD JUMP JUMPDEST ISZERO PUSH3 0x1CF8 JUMPI JUMP JUMPDEST PUSH1 0x40 MLOAD PUSH3 0x461BCD PUSH1 0xE5 SHL DUP2 MSTORE PUSH1 0x20 PUSH1 0x4 DUP3 ADD MSTORE PUSH1 0x38 PUSH1 0x24 DUP3 ADD MSTORE PUSH32 0x496E73756666696369656E7420746F6B656E2062616C616E636520696E20706F PUSH1 0x44 DUP3 ADD MSTORE PUSH24 0x37B6103A37903830BC9037BABA103932BBB0B932399034B7 PUSH1 0x41 SHL PUSH1 0x64 DUP3 ADD MSTORE PUSH1 0x84 SWAP1 REVERT JUMPDEST DUP1 ISZERO ISZERO PUSH3 0x1EC JUMP JUMPDEST SWAP1 POP MLOAD SWAP1 PUSH3 0x208 DUP3 PUSH3 0x1D5E JUMP JUMPDEST SWAP1 PUSH1 0x20 DUP3 DUP3 SUB SLT PUSH3 0x1F4 JUMPI PUSH3 0x1D3 SWAP2 PUSH3 0x1D67 JUMP JUMPDEST SWAP2 PUSH1 0x20 PUSH3 0x208 SWAP3 SWAP5 SWAP4 PUSH3 0x1DAB PUSH1 0x40 DUP3 ADD SWAP7 PUSH1 0x0 DUP4 ADD SWAP1 PUSH3 0x5C4 JUMP JUMPDEST ADD MSTORE JUMP JUMPDEST PUSH3 0x1DBA SWAP1 PUSH3 0x477 JUMP JUMPDEST SWAP1 PUSH4 0x70A08231 SWAP2 PUSH1 0x20 PUSH3 0x19A2 PUSH3 0x1DD2 ADDRESS PUSH3 0x477 JUMP JUMPDEST SWAP5 PUSH3 0x1DEC PUSH3 0x1DE1 PUSH1 0x40 MLOAD SWAP1 JUMP JUMPDEST SWAP7 DUP8 SWAP4 DUP5 SWAP4 PUSH1 0xE0 SHL SWAP1 JUMP JUMPDEST SUB DUP2 DUP5 GAS STATICCALL SWAP3 DUP4 ISZERO PUSH3 0x1355 JUMPI PUSH1 0x20 SWAP4 PUSH3 0x1E14 SWAP2 PUSH1 0x0 SWAP2 PUSH3 0x1E89 JUMPI JUMPDEST POP DUP6 GT ISZERO PUSH3 0x1CF0 JUMP JUMPDEST PUSH3 0x1E3A PUSH1 0x0 PUSH4 0xA9059CBB PUSH3 0x1E46 PUSH3 0x1E2D PUSH1 0x40 MLOAD SWAP1 JUMP JUMPDEST SWAP8 DUP9 SWAP7 DUP8 SWAP6 DUP7 SWAP5 PUSH1 0xE0 SHL SWAP1 JUMP JUMPDEST DUP5 MSTORE PUSH1 0x4 DUP5 ADD PUSH3 0x1D8D JUMP JUMPDEST SUB SWAP3 GAS CALL DUP1 ISZERO PUSH3 0x1355 JUMPI PUSH3 0x1E59 JUMPI POP JUMP JUMPDEST PUSH3 0x1E7E SWAP1 PUSH1 0x20 RETURNDATASIZE DUP2 GT PUSH3 0x1E81 JUMPI JUMPDEST PUSH3 0x1E75 DUP2 DUP4 PUSH3 0x220 JUMP JUMPDEST DUP2 ADD SWAP1 PUSH3 0x1D76 JUMP JUMPDEST POP JUMP JUMPDEST POP RETURNDATASIZE PUSH3 0x1E69 JUMP JUMPDEST PUSH3 0x1EA4 SWAP2 POP DUP6 RETURNDATASIZE DUP2 GT PUSH3 0x1B7C JUMPI PUSH3 0x1B6C DUP2 DUP4 PUSH3 0x220 JUMP JUMPDEST CODESIZE PUSH3 0x1E0A JUMP JUMPDEST PUSH3 0x1EB5 PUSH3 0xE92 JUMP JUMPDEST PUSH3 0x208 PUSH3 0x208 CALLER PUSH3 0x1EC9 ADDRESS PUSH3 0x477 JUMP JUMPDEST BALANCE SWAP1 PUSH3 0x1CAB JUMP JUMPDEST PUSH3 0x208 PUSH3 0x1EAB JUMP JUMPDEST PUSH3 0x208 SWAP1 PUSH3 0x1EEA PUSH3 0xE92 JUMP JUMPDEST PUSH3 0x1F2A SWAP1 CALLER PUSH1 0x20 PUSH3 0x1EFD DUP4 PUSH3 0x477 JUMP JUMPDEST PUSH4 0x70A08231 SWAP1 PUSH3 0x19A2 PUSH3 0x1F12 ADDRESS PUSH3 0x477 JUMP JUMPDEST SWAP3 PUSH3 0x1F1D PUSH1 0x40 MLOAD SWAP1 JUMP JUMPDEST SWAP8 DUP9 SWAP5 DUP6 SWAP4 DUP5 SWAP4 PUSH1 0xE0 SHL SWAP1 JUMP JUMPDEST SUB SWAP2 GAS STATICCALL SWAP2 DUP3 ISZERO PUSH3 0x1355 JUMPI PUSH3 0x208 SWAP4 PUSH1 0x0 SWAP4 PUSH3 0x1F4B JUMPI JUMPDEST POP PUSH3 0x1DAF JUMP JUMPDEST PUSH3 0x1F68 SWAP2 SWAP4 POP PUSH1 0x20 RETURNDATASIZE DUP2 GT PUSH3 0x1B7C JUMPI PUSH3 0x1B6C DUP2 DUP4 PUSH3 0x220 JUMP JUMPDEST SWAP2 CODESIZE PUSH3 0x1F44 JUMP JUMPDEST PUSH3 0x208 SWAP1 PUSH3 0x1EDB JUMP JUMPDEST PUSH1 0x3 GT ISZERO PUSH3 0x1F4 JUMPI JUMP JUMPDEST SWAP1 POP MLOAD SWAP1 PUSH3 0x208 DUP3 PUSH3 0x1F7B JUMP JUMPDEST SWAP1 PUSH1 0x20 DUP3 DUP3 SUB SLT PUSH3 0x1F4 JUMPI PUSH3 0x1D3 SWAP2 PUSH3 0x1F86 JUMP JUMPDEST PUSH4 0x4E487B71 PUSH1 0xE0 SHL PUSH1 0x0 MSTORE PUSH1 0x21 PUSH1 0x4 MSTORE PUSH1 0x24 PUSH1 0x0 REVERT JUMPDEST PUSH1 0x3 GT ISZERO PUSH3 0x1FCD JUMPI JUMP JUMPDEST PUSH3 0x1FAC JUMP JUMPDEST SWAP1 PUSH3 0x208 DUP3 PUSH3 0x1FC2 JUMP JUMPDEST ISZERO PUSH3 0x1FE7 JUMPI JUMP JUMPDEST PUSH1 0x40 MLOAD PUSH3 0x461BCD PUSH1 0xE5 SHL DUP2 MSTORE PUSH1 0x20 PUSH1 0x4 DUP3 ADD MSTORE PUSH1 0xD PUSH1 0x24 DUP3 ADD MSTORE PUSH13 0x496E76616C6964207374617465 PUSH1 0x98 SHL PUSH1 0x44 DUP3 ADD MSTORE PUSH1 0x64 SWAP1 REVERT JUMPDEST PUSH3 0x1D3 SWAP1 PUSH3 0x803 JUMP JUMPDEST PUSH3 0x1D3 SWAP1 SLOAD PUSH3 0x201C JUMP JUMPDEST ISZERO PUSH3 0x203B JUMPI JUMP JUMPDEST PUSH1 0x40 MLOAD PUSH3 0x461BCD PUSH1 0xE5 SHL DUP2 MSTORE PUSH1 0x20 PUSH1 0x4 DUP3 ADD MSTORE PUSH1 0x12 PUSH1 0x24 DUP3 ADD MSTORE PUSH18 0x151BDAD95B881B9BDD081858D8D95C1D1959 PUSH1 0x72 SHL PUSH1 0x44 DUP3 ADD MSTORE PUSH1 0x64 SWAP1 REVERT JUMPDEST PUSH1 0x40 SWAP1 PUSH3 0x20A0 PUSH3 0x208 SWAP5 SWAP7 SWAP6 SWAP4 SWAP7 PUSH3 0x2099 PUSH1 0x60 DUP5 ADD SWAP9 PUSH1 0x0 DUP6 ADD SWAP1 PUSH3 0x5C4 JUMP JUMPDEST PUSH1 0x20 DUP4 ADD MSTORE JUMP JUMPDEST ADD SWAP1 PUSH3 0x7AE JUMP JUMPDEST SWAP2 PUSH3 0x20B8 PUSH3 0x130E DUP5 PUSH3 0x477 JUMP JUMPDEST SWAP2 PUSH4 0xC19D93FB SWAP1 PUSH3 0x20D4 PUSH3 0x20CD PUSH1 0x40 MLOAD SWAP1 JUMP JUMPDEST SWAP3 PUSH1 0xE0 SHL SWAP1 JUMP JUMPDEST DUP3 MSTORE PUSH1 0x20 DUP3 PUSH1 0x4 DUP2 DUP8 GAS STATICCALL SWAP2 DUP3 ISZERO PUSH3 0x1355 JUMPI PUSH1 0x0 SWAP3 PUSH3 0x2215 JUMPI JUMPDEST POP PUSH3 0x2115 PUSH1 0x0 SWAP3 PUSH3 0x210E PUSH3 0x2107 DUP6 PUSH3 0x1FD3 JUMP JUMPDEST SWAP2 PUSH3 0x1FD3 JUMP JUMPDEST EQ PUSH3 0x1FDF JUMP JUMPDEST PUSH3 0x2136 PUSH3 0x2130 PUSH3 0x212A DUP4 PUSH1 0x3 PUSH3 0x482 JUMP JUMPDEST PUSH3 0x2027 JUMP JUMPDEST PUSH3 0x2033 JUMP JUMPDEST PUSH4 0x4CBC1553 SWAP2 CALLER SWAP5 DUP1 EXTCODESIZE ISZERO PUSH3 0x1F4 JUMPI PUSH3 0x2160 SWAP4 DUP3 SWAP2 PUSH3 0x2157 PUSH1 0x40 MLOAD SWAP1 JUMP JUMPDEST SWAP6 DUP7 SWAP3 PUSH1 0xE0 SHL SWAP1 JUMP JUMPDEST DUP3 MSTORE DUP2 DUP4 DUP2 PUSH3 0x2176 DUP9 DUP12 DUP14 PUSH1 0x4 DUP6 ADD PUSH3 0x2075 JUMP JUMPDEST SUB SWAP3 GAS CALL SWAP3 DUP4 ISZERO PUSH3 0x1355 JUMPI PUSH3 0x2197 SWAP4 PUSH3 0x21E1 JUMPI JUMPDEST POP POP DUP3 DUP5 PUSH3 0x225A JUMP JUMPDEST PUSH3 0x21C3 PUSH32 0x829C5C9DC5D14E41B11CFCA0F01F76EBA69B648DDCF9F84AFBA16BA8A76BF1C SWAP3 PUSH3 0x477 JUMP JUMPDEST SWAP3 PUSH3 0x21DC PUSH3 0x21D2 PUSH1 0x40 MLOAD SWAP1 JUMP JUMPDEST SWAP3 DUP4 SWAP3 DUP4 PUSH3 0x1D8D JUMP JUMPDEST SUB SWAP1 LOG2 JUMP JUMPDEST DUP2 PUSH3 0x2205 SWAP3 SWAP1 RETURNDATASIZE LT PUSH3 0x220D JUMPI JUMPDEST PUSH3 0x21FC DUP2 DUP4 PUSH3 0x220 JUMP JUMPDEST DUP2 ADD SWAP1 PUSH3 0x59B JUMP JUMPDEST CODESIZE DUP1 PUSH3 0x218D JUMP JUMPDEST POP RETURNDATASIZE PUSH3 0x21F0 JUMP JUMPDEST PUSH3 0x223C SWAP2 SWAP3 POP PUSH1 0x20 RETURNDATASIZE DUP2 GT PUSH3 0x2244 JUMPI JUMPDEST PUSH3 0x2233 DUP2 DUP4 PUSH3 0x220 JUMP JUMPDEST DUP2 ADD SWAP1 PUSH3 0x1F95 JUMP JUMPDEST SWAP1 CODESIZE PUSH3 0x20F0 JUMP JUMPDEST POP RETURNDATASIZE PUSH3 0x2227 JUMP JUMPDEST SWAP2 SWAP1 DUP3 ADD DUP1 SWAP3 GT PUSH3 0x1560 JUMPI JUMP JUMPDEST PUSH3 0x22FE PUSH3 0x1C06 SWAP2 PUSH3 0x2281 PUSH3 0x208 SWAP6 PUSH3 0x1BEB SWAP6 PUSH3 0x227A PUSH1 0x0 SWAP1 JUMP JUMPDEST POP PUSH3 0x2313 JUMP JUMPDEST SWAP5 SWAP1 SWAP2 PUSH1 0x1 SWAP3 PUSH3 0x230D PUSH3 0x2297 DUP4 DUP7 PUSH3 0x482 JUMP JUMPDEST SWAP2 PUSH3 0x22C1 PUSH3 0x22AA PUSH1 0x0 DUP1 SWAP6 PUSH3 0x4CF JUMP JUMPDEST PUSH3 0x1C06 DUP5 PUSH3 0x22BB DUP4 DUP6 PUSH3 0x4EE JUMP JUMPDEST PUSH3 0x224C JUMP JUMPDEST PUSH3 0x22E7 PUSH3 0x22D6 DUP8 PUSH3 0x1BEB DUP8 DUP3 PUSH3 0x482 JUMP JUMPDEST PUSH3 0x1C06 DUP13 PUSH3 0x22BB DUP4 DUP6 PUSH3 0x4EE JUMP JUMPDEST PUSH3 0x1C06 PUSH3 0x22FE PUSH1 0x2 SWAP5 PUSH3 0x1BEB DUP8 DUP8 PUSH3 0x482 JUMP JUMPDEST SWAP2 SWAP1 SWAP3 PUSH3 0x22BB DUP4 DUP6 PUSH3 0x4EE JUMP JUMPDEST PUSH3 0x482 JUMP JUMPDEST PUSH3 0x2326 PUSH8 0x29A2241AF62C0000 PUSH3 0x1168 JUMP JUMPDEST DUP2 LT ISZERO DUP1 PUSH3 0x24E6 JUMPI JUMPDEST PUSH3 0x24AD JUMPI PUSH3 0x2348 PUSH8 0x4563918244F40000 PUSH3 0x1168 JUMP JUMPDEST DUP2 GT DUP1 PUSH3 0x2490 JUMPI JUMPDEST PUSH3 0x244F JUMPI PUSH3 0x2369 PUSH8 0x8AC7230489E80000 PUSH3 0x1168 JUMP JUMPDEST DUP2 GT DUP1 PUSH3 0x2431 JUMPI JUMPDEST PUSH3 0x23F9 JUMPI PUSH3 0x238F PUSH3 0xC30 PUSH9 0x2B5E3AF16B1880000 PUSH3 0x1168 JUMP JUMPDEST GT PUSH3 0x23A7 JUMPI POP PUSH3 0x23A2 PUSH1 0x0 PUSH3 0x1168 JUMP JUMPDEST SWAP1 DUP2 SWAP1 JUMP JUMPDEST SWAP1 PUSH3 0x1D3 PUSH3 0x53E PUSH3 0x23EF PUSH1 0x5 SWAP5 PUSH3 0x1620 PUSH3 0x23C7 DUP3 DUP9 PUSH3 0x482 JUMP JUMPDEST SWAP2 PUSH3 0x23E8 PUSH3 0x53E PUSH3 0x23DE PUSH1 0x3 DUP1 SWAP7 PUSH3 0x4B2 JUMP JUMPDEST POP PUSH1 0x0 SWAP1 PUSH3 0x4CF JUMP JUMPDEST SWAP8 PUSH3 0x482 JUMP JUMPDEST POP PUSH1 0x1 SWAP1 PUSH3 0x4CF JUMP JUMPDEST POP SWAP1 PUSH3 0x1D3 PUSH3 0x53E PUSH3 0x23EF PUSH1 0x5 SWAP5 PUSH3 0x1620 PUSH3 0x241A DUP3 DUP9 PUSH3 0x482 JUMP JUMPDEST SWAP2 PUSH3 0x23E8 PUSH3 0x53E PUSH3 0x23DE PUSH1 0x2 DUP1 SWAP7 PUSH3 0x4B2 JUMP JUMPDEST POP PUSH3 0x2446 PUSH9 0x2B5E3AF16B1880000 PUSH3 0x1168 JUMP JUMPDEST DUP2 GT ISZERO PUSH3 0x2372 JUMP JUMPDEST POP SWAP1 PUSH3 0x1D3 PUSH3 0x53E PUSH3 0x23DE PUSH3 0x1626 PUSH1 0x5 SWAP6 PUSH3 0x1620 PUSH3 0x2474 DUP3 DUP10 PUSH3 0x482 JUMP JUMPDEST SWAP2 PUSH3 0x2489 PUSH3 0x53E PUSH1 0x1 SWAP7 DUP8 DUP1 SWAP7 PUSH3 0x4B2 JUMP JUMPDEST SWAP9 PUSH3 0x482 JUMP JUMPDEST POP PUSH3 0x24A4 PUSH8 0x8AC7230489E80000 PUSH3 0x1168 JUMP JUMPDEST DUP2 GT ISZERO PUSH3 0x2351 JUMP JUMPDEST POP SWAP1 PUSH3 0x1D3 PUSH3 0x53E PUSH3 0x23EF PUSH3 0x1626 PUSH3 0x1620 PUSH1 0x5 SWAP7 PUSH3 0x23E8 PUSH3 0x53E PUSH3 0x24DA DUP4 DUP12 PUSH3 0x482 JUMP JUMPDEST PUSH1 0x0 SWAP6 DUP7 DUP1 SWAP3 PUSH3 0x4B2 JUMP JUMPDEST POP PUSH3 0x24FA PUSH8 0x4563918244F40000 PUSH3 0x1168 JUMP JUMPDEST DUP2 GT ISZERO PUSH3 0x2330 JUMP INVALID PUSH1 0x80 PUSH1 0x40 MSTORE CALLVALUE PUSH3 0x43 JUMPI PUSH3 0x31 PUSH3 0x18 PUSH3 0x2E7 JUMP JUMPDEST SWAP13 SWAP12 SWAP1 SWAP12 SWAP11 SWAP2 SWAP11 SWAP10 SWAP3 SWAP10 SWAP9 SWAP4 SWAP9 SWAP8 SWAP5 SWAP8 SWAP7 SWAP6 SWAP7 PUSH3 0x726 JUMP JUMPDEST PUSH1 0x40 MLOAD PUSH2 0x2496 PUSH3 0xC8B DUP3 CODECOPY PUSH2 0x2496 SWAP1 RETURN JUMPDEST PUSH1 0x0 DUP1 REVERT JUMPDEST PUSH4 0x4E487B71 PUSH1 0xE0 SHL PUSH1 0x0 MSTORE PUSH1 0x41 PUSH1 0x4 MSTORE PUSH1 0x24 PUSH1 0x0 REVERT JUMPDEST SWAP1 PUSH1 0x1F ADD PUSH1 0x1F NOT AND DUP2 ADD SWAP1 DUP2 LT PUSH1 0x1 PUSH1 0x1 PUSH1 0x40 SHL SUB DUP3 GT OR PUSH3 0x80 JUMPI PUSH1 0x40 MSTORE JUMP JUMPDEST PUSH3 0x48 JUMP JUMPDEST SWAP1 PUSH3 0x9D PUSH3 0x95 PUSH1 0x40 MLOAD SWAP1 JUMP JUMPDEST SWAP3 DUP4 PUSH3 0x5E JUMP JUMPDEST JUMP JUMPDEST PUSH1 0x1 PUSH1 0x1 PUSH1 0xA0 SHL SUB AND SWAP1 JUMP JUMPDEST SWAP1 JUMP JUMPDEST PUSH3 0xB9 DUP2 PUSH3 0x9F JUMP JUMPDEST SUB PUSH3 0x43 JUMPI JUMP JUMPDEST SWAP1 POP MLOAD SWAP1 PUSH3 0x9D DUP3 PUSH3 0xAE JUMP JUMPDEST DUP1 PUSH3 0xB9 JUMP JUMPDEST SWAP1 POP MLOAD SWAP1 PUSH3 0x9D DUP3 PUSH3 0xD0 JUMP JUMPDEST PUSH1 0x1 PUSH1 0x1 PUSH1 0x40 SHL SUB DUP2 GT PUSH3 0x80 JUMPI PUSH1 0x20 SWAP1 PUSH1 0x1F ADD PUSH1 0x1F NOT AND ADD SWAP1 JUMP JUMPDEST ADD SWAP1 JUMP JUMPDEST PUSH1 0x0 JUMPDEST DUP4 DUP2 LT PUSH3 0x11B JUMPI POP POP PUSH1 0x0 SWAP2 ADD MSTORE JUMP JUMPDEST DUP2 DUP2 ADD MLOAD DUP4 DUP3 ADD MSTORE PUSH1 0x20 ADD PUSH3 0x10A JUMP JUMPDEST SWAP1 SWAP3 SWAP2 SWAP3 PUSH3 0x145 PUSH3 0x13F DUP3 PUSH3 0xE6 JUMP JUMPDEST PUSH3 0x86 JUMP JUMPDEST SWAP4 DUP2 DUP6 MSTORE PUSH1 0x20 DUP6 ADD SWAP1 DUP3 DUP5 ADD GT PUSH3 0x43 JUMPI PUSH3 0x9D SWAP3 PUSH3 0x107 JUMP JUMPDEST SWAP1 DUP1 PUSH1 0x1F DUP4 ADD SLT ISZERO PUSH3 0x43 JUMPI DUP2 MLOAD PUSH3 0xAB SWAP3 PUSH1 0x20 ADD PUSH3 0x12C JUMP JUMPDEST SWAP2 SWAP1 SWAP2 PUSH2 0x1C0 DUP2 DUP5 SUB SLT PUSH3 0x43 JUMPI PUSH3 0x19A DUP4 DUP3 PUSH3 0xC1 JUMP JUMPDEST SWAP3 PUSH3 0x1AA DUP2 PUSH1 0x20 DUP5 ADD PUSH3 0xC1 JUMP JUMPDEST SWAP3 PUSH1 0x40 SWAP1 PUSH3 0x1BC DUP4 DUP4 DUP7 ADD PUSH3 0xC1 JUMP JUMPDEST SWAP4 PUSH3 0x1CC DUP5 PUSH1 0x60 DUP4 ADD PUSH3 0xC1 JUMP JUMPDEST SWAP4 PUSH3 0x1DC DUP2 PUSH1 0x80 DUP5 ADD PUSH3 0xC1 JUMP JUMPDEST SWAP4 PUSH3 0x1EC DUP3 PUSH1 0xA0 DUP6 ADD PUSH3 0xD7 JUMP JUMPDEST SWAP4 PUSH3 0x1FC DUP4 PUSH1 0xC0 DUP7 ADD PUSH3 0xD7 JUMP JUMPDEST SWAP4 PUSH1 0xE0 DUP2 ADD MLOAD PUSH1 0x1 DUP1 DUP6 SHL SUB DUP2 GT PUSH3 0x43 JUMPI DUP5 PUSH3 0x21D SWAP2 DUP4 ADD PUSH3 0x162 JUMP JUMPDEST SWAP4 PUSH2 0x100 DUP3 ADD MLOAD PUSH1 0x1 DUP1 DUP7 SHL SUB DUP2 GT PUSH3 0x43 JUMPI DUP2 PUSH3 0x23F SWAP2 DUP5 ADD PUSH3 0x162 JUMP JUMPDEST SWAP4 PUSH2 0x120 DUP4 ADD MLOAD PUSH1 0x1 DUP1 DUP4 SHL SUB DUP2 GT PUSH3 0x43 JUMPI DUP3 PUSH3 0x261 SWAP2 DUP6 ADD PUSH3 0x162 JUMP JUMPDEST SWAP4 PUSH2 0x140 DUP5 ADD MLOAD PUSH1 0x1 DUP1 DUP5 SHL SUB DUP2 GT PUSH3 0x43 JUMPI DUP4 PUSH3 0x283 SWAP2 DUP7 ADD PUSH3 0x162 JUMP JUMPDEST SWAP4 PUSH2 0x160 DUP2 ADD MLOAD PUSH1 0x1 DUP1 DUP6 SHL SUB DUP2 GT PUSH3 0x43 JUMPI DUP5 PUSH3 0x2A5 SWAP2 DUP4 ADD PUSH3 0x162 JUMP JUMPDEST SWAP4 PUSH2 0x180 DUP3 ADD MLOAD PUSH1 0x1 DUP1 DUP7 SHL SUB DUP2 GT PUSH3 0x43 JUMPI DUP2 PUSH3 0x2C7 SWAP2 DUP5 ADD PUSH3 0x162 JUMP JUMPDEST SWAP4 PUSH1 0x1 DUP1 PUSH2 0x1A0 DUP6 ADD MLOAD SWAP3 SHL SUB DUP2 GT PUSH3 0x43 JUMPI PUSH3 0xAB SWAP3 ADD PUSH3 0x162 JUMP JUMPDEST PUSH3 0x30A PUSH3 0x3121 DUP1 CODESIZE SUB DUP1 PUSH3 0x2FE DUP2 PUSH3 0x86 JUMP JUMPDEST SWAP3 DUP4 CODECOPY DUP2 ADD SWAP1 PUSH3 0x17F JUMP JUMPDEST SWAP1 SWAP2 SWAP3 SWAP4 SWAP5 SWAP6 SWAP7 SWAP8 SWAP9 SWAP10 SWAP11 SWAP12 SWAP13 SWAP14 JUMP JUMPDEST PUSH3 0xAB SWAP1 PUSH3 0x9F SWAP1 PUSH1 0x1 PUSH1 0x1 PUSH1 0xA0 SHL SUB AND DUP3 JUMP JUMPDEST PUSH3 0xAB SWAP1 PUSH3 0x31A JUMP JUMPDEST PUSH3 0xAB SWAP1 PUSH3 0x330 JUMP JUMPDEST SWAP1 PUSH1 0x1 PUSH1 0x1 PUSH1 0xA0 SHL SUB SWAP1 JUMPDEST SWAP2 DUP2 NOT AND SWAP2 AND OR SWAP1 JUMP JUMPDEST SWAP1 PUSH3 0x36F PUSH3 0xAB PUSH3 0x377 SWAP3 PUSH3 0x33B JUMP JUMPDEST DUP3 SLOAD PUSH3 0x346 JUMP JUMPDEST SWAP1 SSTORE JUMP JUMPDEST SWAP1 PUSH1 0x0 NOT SWAP1 PUSH3 0x351 JUMP JUMPDEST PUSH3 0xAB PUSH3 0xAB PUSH3 0xAB SWAP3 SWAP1 JUMP JUMPDEST SWAP1 PUSH3 0x3AA PUSH3 0xAB PUSH3 0x377 SWAP3 PUSH3 0x386 JUMP JUMPDEST DUP3 SLOAD PUSH3 0x37B JUMP JUMPDEST SWAP1 PUSH1 0xFF SWAP1 PUSH3 0x351 JUMP JUMPDEST PUSH4 0x4E487B71 PUSH1 0xE0 SHL PUSH1 0x0 MSTORE PUSH1 0x21 PUSH1 0x4 MSTORE PUSH1 0x24 PUSH1 0x0 REVERT JUMPDEST PUSH1 0x3 GT ISZERO PUSH3 0x3DD JUMPI JUMP JUMPDEST PUSH3 0x3BC JUMP JUMPDEST SWAP1 PUSH3 0x9D DUP3 PUSH3 0x3D2 JUMP JUMPDEST PUSH3 0xAB SWAP1 PUSH3 0x3E3 JUMP JUMPDEST SWAP1 PUSH3 0x40E PUSH3 0xAB PUSH3 0x377 SWAP3 PUSH3 0x3EF JUMP JUMPDEST DUP3 SLOAD PUSH3 0x3B2 JUMP JUMPDEST SWAP1 PUSH2 0xFF00 SWAP1 PUSH1 0x8 SHL PUSH3 0x351 JUMP JUMPDEST SWAP1 PUSH3 0x437 PUSH3 0xAB PUSH3 0x377 SWAP3 ISZERO ISZERO SWAP1 JUMP JUMPDEST DUP3 SLOAD PUSH3 0x416 JUMP JUMPDEST SWAP1 PUSH3 0xFF0000 SWAP1 PUSH1 0x10 SHL PUSH3 0x351 JUMP JUMPDEST SWAP1 PUSH3 0x461 PUSH3 0xAB PUSH3 0x377 SWAP3 ISZERO ISZERO SWAP1 JUMP JUMPDEST DUP3 SLOAD PUSH3 0x43F JUMP JUMPDEST PUSH4 0x4E487B71 PUSH1 0xE0 SHL PUSH1 0x0 MSTORE PUSH1 0x22 PUSH1 0x4 MSTORE PUSH1 0x24 PUSH1 0x0 REVERT JUMPDEST SWAP1 PUSH1 0x1 PUSH1 0x2 DUP4 DIV SWAP3 AND DUP1 ISZERO PUSH3 0x4A2 JUMPI JUMPDEST PUSH1 0x20 DUP4 LT EQ PUSH3 0x49C JUMPI JUMP JUMPDEST PUSH3 0x469 JUMP JUMPDEST SWAP2 PUSH1 0x7F AND SWAP2 PUSH3 0x490 JUMP JUMPDEST SWAP2 PUSH1 0x0 NOT PUSH1 0x8 SWAP3 SWAP1 SWAP3 MUL SWAP2 DUP3 SHL SWAP2 SHL PUSH3 0x351 JUMP JUMPDEST SWAP2 SWAP1 PUSH3 0x4D7 PUSH3 0xAB PUSH3 0x377 SWAP4 PUSH3 0x386 JUMP JUMPDEST SWAP1 DUP4 SLOAD PUSH3 0x4AD JUMP JUMPDEST PUSH3 0x9D SWAP2 PUSH1 0x0 SWAP2 PUSH3 0x4C2 JUMP JUMPDEST DUP2 DUP2 LT PUSH3 0x4FA JUMPI POP POP JUMP JUMPDEST DUP1 PUSH3 0x50A PUSH1 0x0 PUSH1 0x1 SWAP4 PUSH3 0x4E0 JUMP JUMPDEST ADD PUSH3 0x4EE JUMP JUMPDEST SWAP2 SWAP1 PUSH1 0x1F DUP2 GT PUSH3 0x521 JUMPI POP POP POP JUMP JUMPDEST PUSH3 0x535 PUSH3 0x9D SWAP4 PUSH1 0x0 MSTORE PUSH1 0x20 PUSH1 0x0 KECCAK256 SWAP1 JUMP JUMPDEST SWAP1 PUSH1 0x20 PUSH1 0x1F DUP5 ADD DUP2 SWAP1 DIV DUP4 ADD SWAP4 LT PUSH3 0x559 JUMPI JUMPDEST PUSH1 0x20 PUSH1 0x1F SWAP1 SWAP2 ADD DIV ADD SWAP1 PUSH3 0x4EE JUMP JUMPDEST SWAP1 SWAP2 POP DUP2 SWAP1 PUSH3 0x549 JUMP JUMPDEST SWAP1 PUSH1 0x0 NOT PUSH1 0x8 SWAP1 SWAP2 MUL SHR NOT AND SWAP1 JUMP JUMPDEST DUP2 PUSH3 0x57F SWAP2 PUSH3 0x564 JUMP JUMPDEST SWAP1 PUSH1 0x2 MUL OR SWAP1 JUMP JUMPDEST SWAP1 PUSH3 0x591 DUP2 MLOAD SWAP1 JUMP JUMPDEST SWAP1 PUSH1 0x1 PUSH1 0x1 PUSH1 0x40 SHL SUB DUP3 GT PUSH3 0x80 JUMPI PUSH3 0x5B9 DUP3 PUSH3 0x5B2 DUP6 SLOAD PUSH3 0x47F JUMP JUMPDEST DUP6 PUSH3 0x511 JUMP JUMPDEST PUSH1 0x20 SWAP1 PUSH1 0x1F DUP4 GT PUSH1 0x1 EQ PUSH3 0x5EC JUMPI PUSH3 0x377 SWAP3 SWAP2 PUSH1 0x0 SWAP2 DUP4 PUSH3 0x5E0 JUMPI JUMPDEST POP POP PUSH3 0x573 JUMP JUMPDEST ADD MLOAD SWAP1 POP CODESIZE DUP1 PUSH3 0x5D8 JUMP JUMPDEST PUSH1 0x1F NOT DUP4 AND SWAP2 PUSH3 0x602 DUP6 PUSH1 0x0 MSTORE PUSH1 0x20 PUSH1 0x0 KECCAK256 SWAP1 JUMP JUMPDEST SWAP3 PUSH1 0x0 JUMPDEST DUP2 DUP2 LT PUSH3 0x646 JUMPI POP SWAP2 PUSH1 0x2 SWAP4 SWAP2 DUP6 PUSH1 0x1 SWAP7 SWAP5 LT PUSH3 0x629 JUMPI JUMPDEST POP POP POP MUL ADD SWAP1 SSTORE JUMP JUMPDEST PUSH3 0x63B SWAP2 ADD MLOAD PUSH1 0x1F DUP5 AND SWAP1 PUSH3 0x564 JUMP JUMPDEST SWAP1 SSTORE CODESIZE DUP1 DUP1 PUSH3 0x620 JUMP JUMPDEST SWAP2 SWAP4 PUSH1 0x20 PUSH1 0x1 DUP2 SWAP3 DUP8 DUP8 ADD MLOAD DUP2 SSTORE ADD SWAP6 ADD SWAP3 ADD PUSH3 0x606 JUMP JUMPDEST SWAP1 PUSH3 0x9D SWAP2 PUSH3 0x587 JUMP JUMPDEST DUP1 ISZERO ISZERO PUSH3 0xB9 JUMP JUMPDEST SWAP1 POP MLOAD SWAP1 PUSH3 0x9D DUP3 PUSH3 0x66B JUMP JUMPDEST SWAP1 PUSH1 0x20 DUP3 DUP3 SUB SLT PUSH3 0x43 JUMPI PUSH3 0xAB SWAP2 PUSH3 0x674 JUMP JUMPDEST PUSH3 0x6A5 SWAP1 PUSH3 0x9F JUMP JUMPDEST SWAP1 MSTORE JUMP JUMPDEST PUSH3 0x6A5 SWAP1 PUSH3 0x386 JUMP JUMPDEST SWAP2 PUSH1 0x20 PUSH3 0x9D SWAP3 SWAP5 SWAP4 PUSH3 0x6D2 PUSH1 0x40 DUP3 ADD SWAP7 PUSH1 0x0 DUP4 ADD SWAP1 PUSH3 0x69A JUMP JUMPDEST ADD SWAP1 PUSH3 0x6A9 JUMP JUMPDEST PUSH1 0x40 MLOAD RETURNDATASIZE PUSH1 0x0 DUP3 RETURNDATACOPY RETURNDATASIZE SWAP1 REVERT JUMPDEST PUSH3 0xAB SWAP1 PUSH3 0x9F JUMP JUMPDEST PUSH3 0xAB SWAP1 SLOAD PUSH3 0x6E6 JUMP JUMPDEST PUSH3 0x6A5 SWAP1 PUSH3 0x33B JUMP JUMPDEST SWAP2 PUSH1 0x20 PUSH3 0x9D SWAP3 SWAP5 SWAP4 PUSH3 0x6D2 PUSH1 0x40 DUP3 ADD SWAP7 PUSH1 0x0 DUP4 ADD SWAP1 PUSH3 0x6FD JUMP JUMPDEST SWAP11 SWAP6 SWAP1 SWAP10 SWAP5 SWAP13 SWAP7 SWAP2 SWAP12 SWAP8 SWAP3 SWAP9 SWAP4 SWAP9 PUSH20 0x75BF6C63F2941ED31A908B976B5E39954561517B PUSH3 0x754 SWAP1 PUSH3 0x33B JUMP JUMPDEST PUSH3 0x761 SWAP1 PUSH1 0x2 PUSH3 0x35B JUMP JUMPDEST PUSH3 0x771 PUSH3 0xBC614E PUSH1 0x3 PUSH3 0x396 JUMP JUMPDEST PUSH1 0x0 DUP1 SWAP14 PUSH3 0x782 DUP3 PUSH1 0xE PUSH3 0x3FA JUMP JUMPDEST PUSH3 0x78F DUP3 PUSH1 0xE PUSH3 0x424 JUMP JUMPDEST PUSH3 0x79C DUP3 PUSH1 0xE PUSH3 0x44E JUMP JUMPDEST PUSH3 0x7A9 DUP3 PUSH1 0x16 PUSH3 0x396 JUMP JUMPDEST DUP14 PUSH3 0x7B5 DUP12 PUSH3 0xC26 JUMP JUMPDEST PUSH3 0x7C0 SWAP1 PUSH3 0x33B JUMP JUMPDEST PUSH3 0x7CD SWAP1 PUSH1 0x1 PUSH3 0x35B JUMP JUMPDEST PUSH3 0x7D8 DUP14 PUSH3 0x33B JUMP JUMPDEST PUSH3 0x7E5 SWAP1 PUSH1 0x4 PUSH3 0x35B JUMP JUMPDEST PUSH3 0x7F0 SWAP1 PUSH3 0x33B JUMP JUMPDEST PUSH3 0x7FB SWAP2 PUSH3 0x35B JUMP JUMPDEST PUSH3 0x806 SWAP1 PUSH3 0x33B JUMP JUMPDEST SWAP9 PUSH3 0x814 DUP11 PUSH1 0x5 PUSH3 0x35B JUMP JUMPDEST PUSH3 0x81F SWAP1 PUSH3 0x33B JUMP JUMPDEST SWAP13 PUSH3 0x82D DUP15 PUSH1 0x6 PUSH3 0x35B JUMP JUMPDEST PUSH3 0x83A SWAP1 PUSH1 0x7 PUSH3 0x396 JUMP JUMPDEST PUSH3 0x847 SWAP1 PUSH1 0x8 PUSH3 0x396 JUMP JUMPDEST PUSH3 0x854 SWAP1 PUSH1 0xC PUSH3 0x65F JUMP JUMPDEST PUSH3 0x861 SWAP1 PUSH1 0xD PUSH3 0x65F JUMP JUMPDEST PUSH3 0x86C DUP10 PUSH3 0x386 JUMP JUMPDEST PUSH3 0x879 SWAP1 PUSH1 0xA PUSH3 0x396 JUMP JUMPDEST PUSH3 0x886 SWAP1 PUSH1 0xF PUSH3 0x65F JUMP JUMPDEST PUSH3 0x893 SWAP1 PUSH1 0x10 PUSH3 0x65F JUMP JUMPDEST PUSH3 0x8A0 SWAP1 PUSH1 0x11 PUSH3 0x65F JUMP JUMPDEST PUSH3 0x8AD SWAP1 PUSH1 0x13 PUSH3 0x65F JUMP JUMPDEST PUSH3 0x8BA SWAP1 PUSH1 0x12 PUSH3 0x65F JUMP JUMPDEST PUSH3 0x8C5 SWAP1 PUSH3 0x33B JUMP JUMPDEST SWAP1 PUSH4 0x95EA7B3 SWAP3 PUSH1 0x1 PUSH1 0x81 SHL SWAP6 PUSH3 0x8DC PUSH1 0x40 MLOAD SWAP1 JUMP JUMPDEST SWAP1 PUSH3 0x8E8 DUP7 PUSH1 0xE0 SHL SWAP1 JUMP JUMPDEST DUP3 MSTORE DUP5 DUP3 DUP1 PUSH3 0x8FD DUP12 DUP9 PUSH1 0x4 DUP5 ADD PUSH3 0x6B4 JUMP JUMPDEST SUB DUP2 DUP11 GAS SWAP5 PUSH1 0x20 SWAP6 CALL SWAP2 DUP3 ISZERO PUSH3 0xAF0 JUMPI PUSH3 0x929 PUSH1 0x20 SWAP3 DUP11 SWAP3 PUSH3 0x950 SWAP6 PUSH3 0xBBA JUMPI JUMPDEST POP PUSH3 0x33B JUMP JUMPDEST SWAP5 PUSH3 0x934 PUSH1 0x40 MLOAD SWAP1 JUMP JUMPDEST SWAP4 DUP5 SWAP3 DUP4 SWAP3 PUSH3 0x944 DUP12 PUSH1 0xE0 SHL SWAP1 JUMP JUMPDEST DUP5 MSTORE PUSH1 0x4 DUP5 ADD PUSH3 0x6B4 JUMP JUMPDEST SUB DUP2 DUP10 DUP8 GAS CALL DUP1 ISZERO PUSH3 0xAF0 JUMPI PUSH3 0xB99 JUMPI JUMPDEST POP PUSH1 0x40 MLOAD PUSH3 0x972 DUP6 PUSH1 0xE0 SHL SWAP1 JUMP JUMPDEST DUP2 MSTORE PUSH1 0x20 DUP2 DUP1 PUSH3 0x988 DUP11 DUP7 PUSH1 0x4 DUP5 ADD PUSH3 0x6B4 JUMP JUMPDEST SUB DUP2 DUP10 DUP9 GAS CALL DUP1 ISZERO PUSH3 0xAF0 JUMPI PUSH3 0x9B9 SWAP3 PUSH1 0x20 SWAP3 DUP10 SWAP3 PUSH3 0xB79 JUMPI JUMPDEST POP PUSH1 0x40 MLOAD SWAP4 DUP5 SWAP3 DUP4 SWAP3 PUSH3 0x944 DUP11 PUSH1 0xE0 SHL SWAP1 JUMP JUMPDEST SUB DUP2 DUP9 DUP7 GAS CALL DUP1 ISZERO PUSH3 0xAF0 JUMPI PUSH3 0xB58 JUMPI JUMPDEST POP PUSH3 0x9FF PUSH1 0x20 DUP7 PUSH3 0x9E0 PUSH1 0x2 PUSH3 0x6F1 JUMP JUMPDEST PUSH1 0x40 MLOAD SWAP4 DUP5 SWAP3 DUP4 SWAP3 PUSH3 0x9F3 DUP11 PUSH1 0xE0 SHL SWAP1 JUMP JUMPDEST DUP5 MSTORE PUSH1 0x4 DUP5 ADD PUSH3 0x708 JUMP JUMPDEST SUB DUP2 DUP9 DUP8 GAS CALL DUP1 ISZERO PUSH3 0xAF0 JUMPI PUSH3 0xB37 JUMPI JUMPDEST POP PUSH3 0xA26 PUSH1 0x20 DUP7 PUSH3 0x9E0 PUSH1 0x2 PUSH3 0x6F1 JUMP JUMPDEST SUB DUP2 DUP9 DUP7 GAS CALL DUP1 ISZERO PUSH3 0xAF0 JUMPI PUSH3 0xB16 JUMPI JUMPDEST POP PUSH3 0xA45 ADDRESS PUSH3 0x33B JUMP JUMPDEST SWAP2 PUSH1 0x20 PUSH3 0xA52 PUSH1 0x40 MLOAD SWAP1 JUMP JUMPDEST DUP1 SWAP3 PUSH3 0xA5F DUP8 PUSH1 0xE0 SHL SWAP1 JUMP JUMPDEST DUP3 MSTORE DUP2 DUP9 DUP2 PUSH3 0xA74 DUP13 DUP11 PUSH1 0x4 DUP5 ADD PUSH3 0x6B4 JUMP JUMPDEST SUB SWAP3 GAS CALL DUP1 ISZERO PUSH3 0xAF0 JUMPI PUSH1 0x20 SWAP5 PUSH3 0x944 SWAP3 DUP8 SWAP3 PUSH3 0xAF6 JUMPI JUMPDEST POP PUSH3 0xAAB PUSH3 0xA9E PUSH1 0x40 MLOAD SWAP1 JUMP JUMPDEST SWAP9 DUP10 SWAP7 DUP8 SWAP6 DUP7 SWAP5 PUSH1 0xE0 SHL SWAP1 JUMP JUMPDEST SUB SWAP3 GAS CALL SWAP1 DUP2 ISZERO PUSH3 0xAF0 JUMPI POP PUSH3 0xAC0 JUMPI POP JUMP JUMPDEST PUSH3 0xAE5 SWAP1 PUSH1 0x20 RETURNDATASIZE DUP2 GT PUSH3 0xAE8 JUMPI JUMPDEST PUSH3 0xADC DUP2 DUP4 PUSH3 0x5E JUMP JUMPDEST DUP2 ADD SWAP1 PUSH3 0x683 JUMP JUMPDEST POP JUMP JUMPDEST POP RETURNDATASIZE PUSH3 0xAD0 JUMP JUMPDEST PUSH3 0x6DA JUMP JUMPDEST PUSH3 0xB10 SWAP1 DUP8 RETURNDATASIZE DUP2 GT PUSH3 0xAE8 JUMPI PUSH3 0xADC DUP2 DUP4 PUSH3 0x5E JUMP JUMPDEST PUSH3 0xA8F JUMP JUMPDEST PUSH3 0xB31 SWAP1 PUSH1 0x20 RETURNDATASIZE DUP2 GT PUSH3 0xAE8 JUMPI PUSH3 0xADC DUP2 DUP4 PUSH3 0x5E JUMP JUMPDEST PUSH3 0xA39 JUMP JUMPDEST PUSH3 0xB52 SWAP1 PUSH1 0x20 RETURNDATASIZE DUP2 GT PUSH3 0xAE8 JUMPI PUSH3 0xADC DUP2 DUP4 PUSH3 0x5E JUMP JUMPDEST PUSH3 0xA12 JUMP JUMPDEST PUSH3 0xB73 SWAP1 PUSH1 0x20 RETURNDATASIZE DUP2 GT PUSH3 0xAE8 JUMPI PUSH3 0xADC DUP2 DUP4 PUSH3 0x5E JUMP JUMPDEST PUSH3 0x9CC JUMP JUMPDEST PUSH3 0xB93 SWAP1 DUP5 RETURNDATASIZE DUP2 GT PUSH3 0xAE8 JUMPI PUSH3 0xADC DUP2 DUP4 PUSH3 0x5E JUMP JUMPDEST PUSH3 0x9A5 JUMP JUMPDEST PUSH3 0xBB4 SWAP1 PUSH1 0x20 RETURNDATASIZE DUP2 GT PUSH3 0xAE8 JUMPI PUSH3 0xADC DUP2 DUP4 PUSH3 0x5E JUMP JUMPDEST PUSH3 0x963 JUMP JUMPDEST PUSH3 0xBD4 SWAP1 DUP6 RETURNDATASIZE DUP2 GT PUSH3 0xAE8 JUMPI PUSH3 0xADC DUP2 DUP4 PUSH3 0x5E JUMP JUMPDEST PUSH3 0x922 JUMP JUMPDEST PUSH3 0xBFF PUSH3 0xC09 PUSH1 0x20 SWAP4 PUSH3 0x103 SWAP4 PUSH3 0xBF3 DUP2 MLOAD SWAP1 JUMP JUMPDEST DUP1 DUP4 MSTORE SWAP4 DUP5 SWAP3 PUSH1 0x20 ADD SWAP1 JUMP JUMPDEST SWAP6 DUP7 SWAP2 ADD PUSH3 0x107 JUMP JUMPDEST PUSH1 0x1F ADD PUSH1 0x1F NOT AND SWAP1 JUMP JUMPDEST PUSH1 0x20 DUP1 DUP3 MSTORE PUSH3 0xAB SWAP3 SWAP2 ADD SWAP1 PUSH3 0xBDA JUMP JUMPDEST PUSH3 0xC57 PUSH3 0xC67 PUSH3 0x9D SWAP3 PUSH3 0xC3D PUSH1 0x40 MLOAD SWAP1 JUMP JUMPDEST PUSH4 0x104C13EB PUSH1 0xE2 SHL PUSH1 0x20 DUP3 ADD MSTORE SWAP3 DUP4 SWAP2 PUSH1 0x24 DUP4 ADD PUSH3 0xC13 JUMP JUMPDEST PUSH1 0x20 DUP3 ADD DUP2 SUB DUP3 MSTORE SUB DUP3 PUSH3 0x5E JUMP JUMPDEST PUSH1 0x0 DUP1 SWAP2 PUSH3 0xC7E PUSH11 0x636F6E736F6C652E6C6F67 SWAP1 JUMP JUMPDEST PUSH1 0x20 DUP3 MLOAD SWAP3 ADD SWAP1 GAS STATICCALL POP JUMP INVALID PUSH1 0xA0 PUSH1 0x40 MSTORE PUSH1 0x4 CALLDATASIZE LT ISZERO PUSH2 0x12 JUMPI PUSH1 0x0 DUP1 REVERT JUMPDEST PUSH1 0x0 CALLDATALOAD PUSH1 0xE0 SHR DUP1 PUSH4 0x203D002 EQ PUSH2 0x222 JUMPI DUP1 PUSH4 0x2D05D3F EQ PUSH2 0x21D JUMPI DUP1 PUSH4 0x3C29D58 EQ PUSH2 0x218 JUMPI DUP1 PUSH4 0x7D94E4A EQ PUSH2 0x213 JUMPI DUP1 PUSH4 0xA771370 EQ PUSH2 0x20E JUMPI DUP1 PUSH4 0xADD6B73 EQ PUSH2 0x209 JUMPI DUP1 PUSH4 0x18AA9F1E EQ PUSH2 0x204 JUMPI DUP1 PUSH4 0x24274EE9 EQ PUSH2 0x1FF JUMPI DUP1 PUSH4 0x263A58AA EQ PUSH2 0x1FA JUMPI DUP1 PUSH4 0x28C30C07 EQ PUSH2 0x1F5 JUMPI DUP1 PUSH4 0x29DCB0CF EQ PUSH2 0x1F0 JUMPI DUP1 PUSH4 0x43AB265F EQ PUSH2 0x1EB JUMPI DUP1 PUSH4 0x4C4CEA5A EQ PUSH2 0x1E6 JUMPI DUP1 PUSH4 0x4CBC1553 EQ PUSH2 0x1E1 JUMPI DUP1 PUSH4 0x4E695A37 EQ PUSH2 0x1DC JUMPI DUP1 PUSH4 0x54214F69 EQ PUSH2 0x1D7 JUMPI DUP1 PUSH4 0x5EB32936 EQ PUSH2 0x1D2 JUMPI DUP1 PUSH4 0x80007E83 EQ PUSH2 0x1CD JUMPI DUP1 PUSH4 0x992A7DFB EQ PUSH2 0x1C8 JUMPI DUP1 PUSH4 0xA278A485 EQ PUSH2 0x1C3 JUMPI DUP1 PUSH4 0xABB5CA09 EQ PUSH2 0x1BE JUMPI DUP1 PUSH4 0xB40141BF EQ PUSH2 0x1B9 JUMPI DUP1 PUSH4 0xB82C86D6 EQ PUSH2 0x1B4 JUMPI DUP1 PUSH4 0xC19D93FB EQ PUSH2 0x1AF JUMPI DUP1 PUSH4 0xC3E20C9F EQ PUSH2 0x1AA JUMPI DUP1 PUSH4 0xC59EE1DC EQ PUSH2 0x1A5 JUMPI DUP1 PUSH4 0xCA4B208B EQ PUSH2 0x1A0 JUMPI DUP1 PUSH4 0xD1707551 EQ PUSH2 0x19B JUMPI DUP1 PUSH4 0xD5CEF133 EQ PUSH2 0x196 JUMPI DUP1 PUSH4 0xD688CF53 EQ PUSH2 0x191 JUMPI DUP1 PUSH4 0xD8ABE8BE EQ PUSH2 0x18C JUMPI DUP1 PUSH4 0xE9D1EDDE EQ PUSH2 0x187 JUMPI PUSH4 0xFF3A9C7E SUB PUSH2 0x227 JUMPI PUSH2 0xDE7 JUMP JUMPDEST PUSH2 0xCF8 JUMP JUMPDEST PUSH2 0xCDC JUMP JUMPDEST PUSH2 0xBE0 JUMP JUMPDEST PUSH2 0xBC5 JUMP JUMPDEST PUSH2 0xBAA JUMP JUMPDEST PUSH2 0xB83 JUMP JUMPDEST PUSH2 0xB5C JUMP JUMPDEST PUSH2 0xB35 JUMP JUMPDEST PUSH2 0xB02 JUMP JUMPDEST PUSH2 0xA8A JUMP JUMPDEST PUSH2 0xA63 JUMP JUMPDEST PUSH2 0xA3C JUMP JUMPDEST PUSH2 0xA15 JUMP JUMPDEST PUSH2 0x9D5 JUMP JUMPDEST PUSH2 0x8C8 JUMP JUMPDEST PUSH2 0x8A1 JUMP JUMPDEST PUSH2 0x868 JUMP JUMPDEST PUSH2 0x82A JUMP JUMPDEST PUSH2 0x811 JUMP JUMPDEST PUSH2 0x7CF JUMP JUMPDEST PUSH2 0x7A8 JUMP JUMPDEST PUSH2 0x779 JUMP JUMPDEST PUSH2 0x755 JUMP JUMPDEST PUSH2 0x711 JUMP JUMPDEST PUSH2 0x6EA JUMP JUMPDEST PUSH2 0x6C3 JUMP JUMPDEST PUSH2 0x699 JUMP JUMPDEST PUSH2 0x62F JUMP JUMPDEST PUSH2 0x56F JUMP JUMPDEST PUSH2 0x548 JUMP JUMPDEST PUSH2 0x3AD JUMP JUMPDEST PUSH2 0x32F JUMP JUMPDEST PUSH1 0x0 DUP1 REVERT JUMPDEST DUP1 JUMPDEST SUB PUSH2 0x227 JUMPI JUMP JUMPDEST SWAP1 POP CALLDATALOAD SWAP1 PUSH2 0x242 DUP3 PUSH2 0x22C JUMP JUMPDEST JUMP JUMPDEST SWAP1 PUSH1 0x20 DUP3 DUP3 SUB SLT PUSH2 0x227 JUMPI PUSH2 0x258 SWAP2 PUSH2 0x235 JUMP JUMPDEST SWAP1 JUMP JUMPDEST PUSH1 0x0 JUMPDEST DUP4 DUP2 LT PUSH2 0x26E JUMPI POP POP PUSH1 0x0 SWAP2 ADD MSTORE JUMP JUMPDEST DUP2 DUP2 ADD MLOAD DUP4 DUP3 ADD MSTORE PUSH1 0x20 ADD PUSH2 0x25E JUMP JUMPDEST PUSH2 0x29F PUSH2 0x2A8 PUSH1 0x20 SWAP4 PUSH2 0x2B2 SWAP4 PUSH2 0x293 DUP2 MLOAD SWAP1 JUMP JUMPDEST DUP1 DUP4 MSTORE SWAP4 DUP5 SWAP3 PUSH1 0x20 ADD SWAP1 JUMP JUMPDEST SWAP6 DUP7 SWAP2 ADD PUSH2 0x25B JUMP JUMPDEST PUSH1 0x1F ADD PUSH1 0x1F NOT AND SWAP1 JUMP JUMPDEST ADD SWAP1 JUMP JUMPDEST SWAP1 MSTORE JUMP JUMPDEST PUSH1 0x1 PUSH1 0x1 PUSH1 0xA0 SHL SUB AND SWAP1 JUMP JUMPDEST PUSH2 0x2B6 SWAP1 PUSH2 0x2BA JUMP JUMPDEST SWAP3 PUSH2 0x328 SWAP3 SWAP9 SWAP8 SWAP6 PUSH2 0x318 PUSH1 0xC0 SWAP7 PUSH2 0x311 PUSH2 0x31F SWAP5 PUSH2 0x30A PUSH2 0x302 PUSH2 0x242 SWAP14 SWAP9 PUSH1 0xE0 DUP13 ADD SWAP1 DUP13 PUSH1 0x0 DUP2 DUP5 SUB SWAP2 ADD MSTORE PUSH2 0x27E JUMP JUMPDEST SWAP15 PUSH1 0x20 DUP12 ADD MSTORE JUMP JUMPDEST PUSH1 0x40 DUP10 ADD MSTORE JUMP JUMPDEST PUSH1 0x60 DUP8 ADD MSTORE JUMP JUMPDEST PUSH1 0x80 DUP6 ADD MSTORE JUMP JUMPDEST ISZERO ISZERO PUSH1 0xA0 DUP4 ADD MSTORE JUMP JUMPDEST ADD SWAP1 PUSH2 0x2C6 JUMP JUMPDEST CALLVALUE PUSH2 0x227 JUMPI PUSH2 0x363 PUSH2 0x34A PUSH2 0x345 CALLDATASIZE PUSH1 0x4 PUSH2 0x244 JUMP JUMPDEST PUSH2 0x23D6 JUMP JUMPDEST SWAP4 PUSH2 0x35A SWAP8 SWAP6 SWAP8 SWAP4 SWAP2 SWAP4 PUSH1 0x40 MLOAD SWAP1 JUMP JUMPDEST SWAP8 DUP9 SWAP8 DUP9 PUSH2 0x2CF JUMP JUMPDEST SUB SWAP1 RETURN JUMPDEST PUSH1 0x0 SWAP2 SUB SLT PUSH2 0x227 JUMPI JUMP JUMPDEST PUSH2 0x258 SWAP2 PUSH1 0x8 MUL SHR PUSH1 0x1 PUSH1 0x1 PUSH1 0xA0 SHL SUB AND SWAP1 JUMP JUMPDEST SWAP1 PUSH2 0x258 SWAP2 SLOAD PUSH2 0x372 JUMP JUMPDEST PUSH2 0x258 PUSH1 0x0 PUSH1 0x4 PUSH2 0x386 JUMP JUMPDEST PUSH1 0x20 DUP2 ADD SWAP3 SWAP2 PUSH2 0x242 SWAP2 SWAP1 PUSH2 0x2C6 JUMP JUMPDEST CALLVALUE PUSH2 0x227 JUMPI PUSH2 0x3BD CALLDATASIZE PUSH1 0x4 PUSH2 0x367 JUMP JUMPDEST PUSH2 0x363 PUSH2 0x3C8 PUSH2 0x391 JUMP JUMPDEST PUSH1 0x40 MLOAD SWAP2 DUP3 SWAP2 DUP3 PUSH2 0x39D JUMP JUMPDEST PUSH4 0x4E487B71 PUSH1 0xE0 SHL PUSH1 0x0 MSTORE PUSH1 0x0 PUSH1 0x4 MSTORE PUSH1 0x24 PUSH1 0x0 REVERT JUMPDEST PUSH4 0x4E487B71 PUSH1 0xE0 SHL PUSH1 0x0 MSTORE PUSH1 0x22 PUSH1 0x4 MSTORE PUSH1 0x24 PUSH1 0x0 REVERT JUMPDEST SWAP1 PUSH1 0x1 PUSH1 0x2 DUP4 DIV SWAP3 AND DUP1 ISZERO PUSH2 0x420 JUMPI JUMPDEST PUSH1 0x20 DUP4 LT EQ PUSH2 0x41B JUMPI JUMP JUMPDEST PUSH2 0x3EA JUMP JUMPDEST SWAP2 PUSH1 0x7F AND SWAP2 PUSH2 0x410 JUMP JUMPDEST DUP1 SLOAD PUSH1 0x0 SWAP4 SWAP3 SWAP2 PUSH2 0x447 PUSH2 0x43D DUP4 PUSH2 0x400 JUMP JUMPDEST DUP1 DUP6 MSTORE SWAP4 PUSH1 0x20 ADD SWAP1 JUMP JUMPDEST SWAP2 PUSH1 0x1 DUP2 AND SWAP1 DUP2 ISZERO PUSH2 0x499 JUMPI POP PUSH1 0x1 EQ PUSH2 0x460 JUMPI POP POP POP JUMP JUMPDEST PUSH2 0x473 SWAP2 SWAP3 SWAP4 SWAP5 POP PUSH1 0x0 MSTORE PUSH1 0x20 PUSH1 0x0 KECCAK256 SWAP1 JUMP JUMPDEST SWAP2 PUSH1 0x0 SWAP3 JUMPDEST DUP2 DUP5 LT PUSH2 0x485 JUMPI POP POP ADD SWAP1 JUMP JUMPDEST DUP1 SLOAD DUP5 DUP5 ADD MSTORE PUSH1 0x20 SWAP1 SWAP4 ADD SWAP3 PUSH1 0x1 ADD PUSH2 0x478 JUMP JUMPDEST SWAP3 SWAP5 SWAP6 POP POP POP PUSH1 0xFF NOT AND DUP3 MSTORE ISZERO ISZERO PUSH1 0x20 MUL ADD SWAP1 JUMP JUMPDEST SWAP1 PUSH2 0x258 SWAP2 PUSH2 0x42A JUMP JUMPDEST PUSH4 0x4E487B71 PUSH1 0xE0 SHL PUSH1 0x0 MSTORE PUSH1 0x41 PUSH1 0x4 MSTORE PUSH1 0x24 PUSH1 0x0 REVERT JUMPDEST SWAP1 PUSH1 0x1F ADD PUSH1 0x1F NOT AND DUP2 ADD SWAP1 DUP2 LT PUSH1 0x1 PUSH1 0x1 PUSH1 0x40 SHL SUB DUP3 GT OR PUSH2 0x4EF JUMPI PUSH1 0x40 MSTORE JUMP JUMPDEST PUSH2 0x4B8 JUMP JUMPDEST SWAP1 PUSH2 0x242 PUSH2 0x50E SWAP3 PUSH2 0x505 PUSH1 0x40 MLOAD SWAP1 JUMP JUMPDEST SWAP4 DUP5 DUP1 SWAP3 PUSH2 0x4AE JUMP JUMPDEST SUB DUP4 PUSH2 0x4CE JUMP JUMPDEST SWAP1 PUSH1 0x0 LT PUSH2 0x526 JUMPI PUSH2 0x258 SWAP1 PUSH2 0x4F4 JUMP JUMPDEST PUSH2 0x3D4 JUMP JUMPDEST PUSH2 0x258 PUSH1 0x0 PUSH1 0xD PUSH2 0x515 JUMP JUMPDEST PUSH1 0x20 DUP1 DUP3 MSTORE PUSH2 0x258 SWAP3 SWAP2 ADD SWAP1 PUSH2 0x27E JUMP JUMPDEST CALLVALUE PUSH2 0x227 JUMPI PUSH2 0x558 CALLDATASIZE PUSH1 0x4 PUSH2 0x367 JUMP JUMPDEST PUSH2 0x363 PUSH2 0x563 PUSH2 0x52B JUMP JUMPDEST PUSH1 0x40 MLOAD SWAP2 DUP3 SWAP2 DUP3 PUSH2 0x537 JUMP JUMPDEST CALLVALUE PUSH2 0x227 JUMPI PUSH2 0x57F CALLDATASIZE PUSH1 0x4 PUSH2 0x367 JUMP JUMPDEST PUSH2 0x363 PUSH2 0x58A PUSH2 0x143A JUMP JUMPDEST PUSH1 0x40 MLOAD SWAP2 DUP3 SWAP2 DUP3 SWAP1 DUP2 MSTORE PUSH1 0x20 ADD SWAP1 JUMP JUMPDEST PUSH2 0x22E DUP2 PUSH2 0x2BA JUMP JUMPDEST SWAP1 POP CALLDATALOAD SWAP1 PUSH2 0x242 DUP3 PUSH2 0x59A JUMP JUMPDEST SWAP1 PUSH1 0x20 DUP3 DUP3 SUB SLT PUSH2 0x227 JUMPI PUSH2 0x258 SWAP2 PUSH2 0x5A3 JUMP JUMPDEST PUSH2 0x258 SWAP1 PUSH2 0x2BA SWAP1 PUSH1 0x1 PUSH1 0x1 PUSH1 0xA0 SHL SUB AND DUP3 JUMP JUMPDEST PUSH2 0x258 SWAP1 PUSH2 0x5C4 JUMP JUMPDEST PUSH2 0x258 SWAP1 PUSH2 0x5D8 JUMP JUMPDEST SWAP1 PUSH2 0x5F4 SWAP1 PUSH2 0x5E1 JUMP JUMPDEST PUSH1 0x0 MSTORE PUSH1 0x20 MSTORE PUSH1 0x40 PUSH1 0x0 KECCAK256 SWAP1 JUMP JUMPDEST PUSH2 0x258 SWAP2 PUSH1 0x8 MUL SHR DUP2 JUMP JUMPDEST SWAP1 PUSH2 0x258 SWAP2 SLOAD PUSH2 0x602 JUMP JUMPDEST PUSH2 0x258 SWAP1 PUSH2 0x62A PUSH1 0x14 SWAP2 PUSH1 0x0 SWAP3 PUSH2 0x5EA JUMP JUMPDEST PUSH2 0x60D JUMP JUMPDEST CALLVALUE PUSH2 0x227 JUMPI PUSH2 0x363 PUSH2 0x58A PUSH2 0x645 CALLDATASIZE PUSH1 0x4 PUSH2 0x5B0 JUMP JUMPDEST PUSH2 0x618 JUMP JUMPDEST PUSH2 0x258 SWAP1 PUSH2 0x2BA JUMP JUMPDEST PUSH2 0x22E DUP2 PUSH2 0x64A JUMP JUMPDEST SWAP1 POP CALLDATALOAD SWAP1 PUSH2 0x242 DUP3 PUSH2 0x653 JUMP JUMPDEST SWAP1 SWAP2 PUSH1 0x60 DUP3 DUP5 SUB SLT PUSH2 0x227 JUMPI PUSH2 0x258 PUSH2 0x682 DUP5 DUP5 PUSH2 0x235 JUMP JUMPDEST SWAP4 PUSH2 0x690 DUP2 PUSH1 0x20 DUP7 ADD PUSH2 0x65C JUMP JUMPDEST SWAP4 PUSH1 0x40 ADD PUSH2 0x65C JUMP JUMPDEST CALLVALUE PUSH2 0x227 JUMPI PUSH2 0x6B2 PUSH2 0x6AC CALLDATASIZE PUSH1 0x4 PUSH2 0x669 JUMP JUMPDEST SWAP2 PUSH2 0x2310 JUMP JUMPDEST PUSH1 0x40 MLOAD STOP JUMPDEST PUSH2 0x258 PUSH1 0x0 PUSH1 0x11 PUSH2 0x515 JUMP JUMPDEST CALLVALUE PUSH2 0x227 JUMPI PUSH2 0x6D3 CALLDATASIZE PUSH1 0x4 PUSH2 0x367 JUMP JUMPDEST PUSH2 0x363 PUSH2 0x563 PUSH2 0x6B7 JUMP JUMPDEST PUSH2 0x258 PUSH1 0x0 PUSH1 0xB PUSH2 0x60D JUMP JUMPDEST CALLVALUE PUSH2 0x227 JUMPI PUSH2 0x6FA CALLDATASIZE PUSH1 0x4 PUSH2 0x367 JUMP JUMPDEST PUSH2 0x363 PUSH2 0x58A PUSH2 0x6DE JUMP JUMPDEST PUSH2 0x258 PUSH1 0x0 PUSH1 0x3 PUSH2 0x60D JUMP JUMPDEST CALLVALUE PUSH2 0x227 JUMPI PUSH2 0x721 CALLDATASIZE PUSH1 0x4 PUSH2 0x367 JUMP JUMPDEST PUSH2 0x363 PUSH2 0x58A PUSH2 0x705 JUMP JUMPDEST DUP1 ISZERO ISZERO PUSH2 0x22E JUMP JUMPDEST SWAP1 POP CALLDATALOAD SWAP1 PUSH2 0x242 DUP3 PUSH2 0x72C JUMP JUMPDEST SWAP1 PUSH1 0x20 DUP3 DUP3 SUB SLT PUSH2 0x227 JUMPI PUSH2 0x258 SWAP2 PUSH2 0x734 JUMP JUMPDEST CALLVALUE PUSH2 0x227 JUMPI PUSH2 0x6B2 PUSH2 0x768 CALLDATASIZE PUSH1 0x4 PUSH2 0x741 JUMP JUMPDEST PUSH2 0xF64 JUMP JUMPDEST PUSH2 0x258 PUSH1 0x0 PUSH1 0x7 PUSH2 0x60D JUMP JUMPDEST CALLVALUE PUSH2 0x227 JUMPI PUSH2 0x789 CALLDATASIZE PUSH1 0x4 PUSH2 0x367 JUMP JUMPDEST PUSH2 0x363 PUSH2 0x58A PUSH2 0x76D JUMP JUMPDEST SWAP1 PUSH1 0x20 DUP3 DUP3 SUB SLT PUSH2 0x227 JUMPI PUSH2 0x258 SWAP2 PUSH2 0x65C JUMP JUMPDEST CALLVALUE PUSH2 0x227 JUMPI PUSH2 0x363 PUSH2 0x58A PUSH2 0x7BE CALLDATASIZE PUSH1 0x4 PUSH2 0x794 JUMP JUMPDEST PUSH2 0x1447 JUMP JUMPDEST PUSH2 0x258 PUSH1 0x0 PUSH1 0x9 PUSH2 0x60D JUMP JUMPDEST CALLVALUE PUSH2 0x227 JUMPI PUSH2 0x7DF CALLDATASIZE PUSH1 0x4 PUSH2 0x367 JUMP JUMPDEST PUSH2 0x363 PUSH2 0x58A PUSH2 0x7C3 JUMP JUMPDEST SWAP1 SWAP2 PUSH1 0x60 DUP3 DUP5 SUB SLT PUSH2 0x227 JUMPI PUSH2 0x258 PUSH2 0x803 DUP5 DUP5 PUSH2 0x5A3 JUMP JUMPDEST SWAP4 PUSH2 0x690 DUP2 PUSH1 0x20 DUP7 ADD PUSH2 0x235 JUMP JUMPDEST CALLVALUE PUSH2 0x227 JUMPI PUSH2 0x6B2 PUSH2 0x824 CALLDATASIZE PUSH1 0x4 PUSH2 0x7EA JUMP JUMPDEST SWAP2 PUSH2 0x13B1 JUMP JUMPDEST CALLVALUE PUSH2 0x227 JUMPI PUSH2 0x6B2 PUSH2 0x83D CALLDATASIZE PUSH1 0x4 PUSH2 0x244 JUMP JUMPDEST PUSH2 0x1ABF JUMP JUMPDEST PUSH2 0x258 SWAP2 PUSH1 0x8 MUL SHR JUMPDEST PUSH1 0xFF AND SWAP1 JUMP JUMPDEST SWAP1 PUSH2 0x258 SWAP2 SLOAD PUSH2 0x842 JUMP JUMPDEST PUSH2 0x258 PUSH1 0x1 PUSH1 0xE PUSH2 0x851 JUMP JUMPDEST CALLVALUE PUSH2 0x227 JUMPI PUSH2 0x878 CALLDATASIZE PUSH1 0x4 PUSH2 0x367 JUMP JUMPDEST PUSH2 0x363 PUSH2 0x883 PUSH2 0x85C JUMP JUMPDEST PUSH1 0x40 MLOAD SWAP2 DUP3 SWAP2 DUP3 SWAP1 ISZERO ISZERO DUP2 MSTORE PUSH1 0x20 ADD SWAP1 JUMP JUMPDEST PUSH2 0x258 PUSH1 0x0 PUSH1 0x12 PUSH2 0x515 JUMP JUMPDEST CALLVALUE PUSH2 0x227 JUMPI PUSH2 0x8B1 CALLDATASIZE PUSH1 0x4 PUSH2 0x367 JUMP JUMPDEST PUSH2 0x363 PUSH2 0x563 PUSH2 0x895 JUMP JUMPDEST PUSH2 0x258 PUSH1 0x2 PUSH1 0xE PUSH2 0x851 JUMP JUMPDEST CALLVALUE PUSH2 0x227 JUMPI PUSH2 0x8D8 CALLDATASIZE PUSH1 0x4 PUSH2 0x367 JUMP JUMPDEST PUSH2 0x363 PUSH2 0x883 PUSH2 0x8BC JUMP JUMPDEST PUSH2 0x258 PUSH2 0x258 PUSH2 0x258 SWAP3 SWAP1 JUMP JUMPDEST SWAP1 PUSH2 0x5F4 SWAP1 PUSH2 0x8E3 JUMP JUMPDEST PUSH2 0x258 SWAP1 DUP2 JUMP JUMPDEST PUSH2 0x258 SWAP1 SLOAD PUSH2 0x8FA JUMP JUMPDEST PUSH2 0x258 SWAP1 PUSH2 0x84B JUMP JUMPDEST PUSH2 0x258 SWAP1 SLOAD PUSH2 0x90B JUMP JUMPDEST PUSH2 0x258 SWAP1 PUSH1 0x8 SHR PUSH2 0x2BA JUMP JUMPDEST PUSH2 0x258 SWAP1 SLOAD PUSH2 0x91E JUMP JUMPDEST PUSH2 0x93F SWAP1 PUSH1 0x15 PUSH2 0x8F0 JUMP JUMPDEST SWAP1 PUSH2 0x949 DUP3 PUSH2 0x4F4 JUMP JUMPDEST SWAP2 PUSH2 0x956 PUSH1 0x1 DUP3 ADD PUSH2 0x901 JUMP JUMPDEST SWAP2 PUSH2 0x963 PUSH1 0x2 DUP4 ADD PUSH2 0x901 JUMP JUMPDEST SWAP2 PUSH2 0x970 PUSH1 0x3 DUP3 ADD PUSH2 0x901 JUMP JUMPDEST SWAP2 PUSH2 0x258 PUSH1 0x5 PUSH2 0x981 DUP2 DUP6 ADD PUSH2 0x914 JUMP JUMPDEST SWAP4 ADD PUSH2 0x92A JUMP JUMPDEST SWAP2 SWAP7 SWAP6 SWAP4 SWAP5 PUSH2 0x9CC PUSH2 0x242 SWAP7 PUSH2 0x9C5 PUSH1 0xA0 SWAP7 PUSH2 0x9BE PUSH2 0x9B6 PUSH2 0x328 SWAP8 PUSH1 0xC0 DUP11 ADD SWAP1 DUP11 DUP3 SUB PUSH1 0x0 DUP13 ADD MSTORE PUSH2 0x27E JUMP JUMPDEST SWAP13 PUSH1 0x20 DUP10 ADD MSTORE JUMP JUMPDEST PUSH1 0x40 DUP8 ADD MSTORE JUMP JUMPDEST PUSH1 0x60 DUP6 ADD MSTORE JUMP JUMPDEST ISZERO ISZERO PUSH1 0x80 DUP4 ADD MSTORE JUMP JUMPDEST CALLVALUE PUSH2 0x227 JUMPI PUSH2 0x363 PUSH2 0x9F0 PUSH2 0x9EB CALLDATASIZE PUSH1 0x4 PUSH2 0x244 JUMP JUMPDEST PUSH2 0x934 JUMP JUMPDEST SWAP3 PUSH2 0xA00 SWAP7 SWAP5 SWAP7 SWAP3 SWAP2 SWAP3 PUSH1 0x40 MLOAD SWAP1 JUMP JUMPDEST SWAP7 DUP8 SWAP7 DUP8 PUSH2 0x988 JUMP JUMPDEST PUSH2 0x258 PUSH1 0x0 PUSH1 0x13 PUSH2 0x515 JUMP JUMPDEST CALLVALUE PUSH2 0x227 JUMPI PUSH2 0xA25 CALLDATASIZE PUSH1 0x4 PUSH2 0x367 JUMP JUMPDEST PUSH2 0x363 PUSH2 0x563 PUSH2 0xA09 JUMP JUMPDEST PUSH2 0x258 PUSH1 0x0 PUSH1 0xF PUSH2 0x515 JUMP JUMPDEST CALLVALUE PUSH2 0x227 JUMPI PUSH2 0xA4C CALLDATASIZE PUSH1 0x4 PUSH2 0x367 JUMP JUMPDEST PUSH2 0x363 PUSH2 0x563 PUSH2 0xA30 JUMP JUMPDEST PUSH2 0x258 PUSH1 0x0 PUSH1 0x16 PUSH2 0x60D JUMP JUMPDEST CALLVALUE PUSH2 0x227 JUMPI PUSH2 0xA73 CALLDATASIZE PUSH1 0x4 PUSH2 0x367 JUMP JUMPDEST PUSH2 0x363 PUSH2 0x58A PUSH2 0xA57 JUMP JUMPDEST PUSH2 0x258 PUSH1 0x0 PUSH1 0x8 PUSH2 0x60D JUMP JUMPDEST CALLVALUE PUSH2 0x227 JUMPI PUSH2 0xA9A CALLDATASIZE PUSH1 0x4 PUSH2 0x367 JUMP JUMPDEST PUSH2 0x363 PUSH2 0x58A PUSH2 0xA7E JUMP JUMPDEST PUSH2 0x258 PUSH1 0x0 PUSH1 0xE PUSH2 0x851 JUMP JUMPDEST PUSH4 0x4E487B71 PUSH1 0xE0 SHL PUSH1 0x0 MSTORE PUSH1 0x21 PUSH1 0x4 MSTORE PUSH1 0x24 PUSH1 0x0 REVERT JUMPDEST PUSH1 0x3 GT ISZERO PUSH2 0xAD1 JUMPI JUMP JUMPDEST PUSH2 0xAB1 JUMP JUMPDEST SWAP1 PUSH2 0x242 DUP3 PUSH2 0xAC7 JUMP JUMPDEST PUSH2 0x258 SWAP1 PUSH2 0xAD6 JUMP JUMPDEST PUSH2 0x2B6 SWAP1 PUSH2 0xAE0 JUMP JUMPDEST PUSH1 0x20 DUP2 ADD SWAP3 SWAP2 PUSH2 0x242 SWAP2 SWAP1 PUSH2 0xAE9 JUMP JUMPDEST CALLVALUE PUSH2 0x227 JUMPI PUSH2 0xB12 CALLDATASIZE PUSH1 0x4 PUSH2 0x367 JUMP JUMPDEST PUSH2 0x363 PUSH2 0xB1D PUSH2 0xAA5 JUMP JUMPDEST PUSH1 0x40 MLOAD SWAP2 DUP3 SWAP2 DUP3 PUSH2 0xAF2 JUMP JUMPDEST PUSH2 0x258 PUSH1 0x0 PUSH1 0xC PUSH2 0x515 JUMP JUMPDEST CALLVALUE PUSH2 0x227 JUMPI PUSH2 0xB45 CALLDATASIZE PUSH1 0x4 PUSH2 0x367 JUMP JUMPDEST PUSH2 0x363 PUSH2 0x563 PUSH2 0xB29 JUMP JUMPDEST PUSH2 0x258 PUSH1 0x0 PUSH1 0xA PUSH2 0x60D JUMP JUMPDEST CALLVALUE PUSH2 0x227 JUMPI PUSH2 0xB6C CALLDATASIZE PUSH1 0x4 PUSH2 0x367 JUMP JUMPDEST PUSH2 0x363 PUSH2 0x58A PUSH2 0xB50 JUMP JUMPDEST PUSH2 0x258 PUSH1 0x0 PUSH1 0x2 PUSH2 0x386 JUMP JUMPDEST CALLVALUE PUSH2 0x227 JUMPI PUSH2 0xB93 CALLDATASIZE PUSH1 0x4 PUSH2 0x367 JUMP JUMPDEST PUSH2 0x363 PUSH2 0x3C8 PUSH2 0xB77 JUMP JUMPDEST PUSH2 0x258 PUSH1 0x0 PUSH1 0x10 PUSH2 0x515 JUMP JUMPDEST CALLVALUE PUSH2 0x227 JUMPI PUSH2 0xBBA CALLDATASIZE PUSH1 0x4 PUSH2 0x367 JUMP JUMPDEST PUSH2 0x363 PUSH2 0x563 PUSH2 0xB9E JUMP JUMPDEST CALLVALUE PUSH2 0x227 JUMPI PUSH2 0xBD5 CALLDATASIZE PUSH1 0x4 PUSH2 0x367 JUMP JUMPDEST PUSH2 0x363 PUSH2 0x883 PUSH2 0x1663 JUMP JUMPDEST CALLVALUE PUSH2 0x227 JUMPI PUSH2 0x6B2 PUSH2 0xBF3 CALLDATASIZE PUSH1 0x4 PUSH2 0x244 JUMP JUMPDEST PUSH2 0xF0F JUMP JUMPDEST SWAP1 PUSH2 0x242 PUSH2 0xC05 PUSH1 0x40 MLOAD SWAP1 JUMP JUMPDEST SWAP3 DUP4 PUSH2 0x4CE JUMP JUMPDEST PUSH1 0x1 PUSH1 0x1 PUSH1 0x40 SHL SUB DUP2 GT PUSH2 0x4EF JUMPI PUSH1 0x20 SWAP1 PUSH1 0x1F ADD PUSH1 0x1F NOT AND ADD SWAP1 JUMP JUMPDEST SWAP1 DUP3 PUSH1 0x0 SWAP4 SWAP3 DUP3 CALLDATACOPY ADD MSTORE JUMP JUMPDEST SWAP1 SWAP3 SWAP2 SWAP3 PUSH2 0xC49 PUSH2 0xC44 DUP3 PUSH2 0xC0C JUMP JUMPDEST PUSH2 0xBF8 JUMP JUMPDEST SWAP4 DUP2 DUP6 MSTORE PUSH1 0x20 DUP6 ADD SWAP1 DUP3 DUP5 ADD GT PUSH2 0x227 JUMPI PUSH2 0x242 SWAP3 PUSH2 0xC28 JUMP JUMPDEST SWAP1 DUP1 PUSH1 0x1F DUP4 ADD SLT ISZERO PUSH2 0x227 JUMPI DUP2 PUSH1 0x20 PUSH2 0x258 SWAP4 CALLDATALOAD SWAP2 ADD PUSH2 0xC34 JUMP JUMPDEST SWAP2 SWAP1 PUSH1 0xA0 DUP4 DUP3 SUB SLT PUSH2 0x227 JUMPI DUP3 CALLDATALOAD PUSH1 0x1 PUSH1 0x1 PUSH1 0x40 SHL SUB DUP2 GT PUSH2 0x227 JUMPI DUP2 PUSH2 0xCA6 SWAP2 DUP6 ADD PUSH2 0xC63 JUMP JUMPDEST SWAP3 PUSH2 0xCB4 DUP3 PUSH1 0x20 DUP4 ADD PUSH2 0x5A3 JUMP JUMPDEST SWAP3 PUSH2 0x258 PUSH2 0xCC5 DUP5 PUSH1 0x40 DUP6 ADD PUSH2 0x235 JUMP JUMPDEST SWAP4 PUSH2 0xCD3 DUP2 PUSH1 0x60 DUP7 ADD PUSH2 0x235 JUMP JUMPDEST SWAP4 PUSH1 0x80 ADD PUSH2 0x235 JUMP JUMPDEST CALLVALUE PUSH2 0x227 JUMPI PUSH2 0x6B2 PUSH2 0xCEF CALLDATASIZE PUSH1 0x4 PUSH2 0xC7E JUMP JUMPDEST SWAP4 SWAP3 SWAP1 SWAP3 PUSH2 0x1A0B JUMP JUMPDEST CALLVALUE PUSH2 0x227 JUMPI PUSH2 0x6B2 PUSH2 0xD0B CALLDATASIZE PUSH1 0x4 PUSH2 0x741 JUMP JUMPDEST PUSH2 0xFBA JUMP JUMPDEST SWAP15 SWAP14 SWAP13 SWAP12 SWAP10 SWAP9 SWAP8 SWAP6 SWAP4 SWAP2 SWAP3 DUP16 SWAP2 SWAP8 SWAP6 SWAP4 PUSH2 0x200 DUP4 ADD SWAP9 PUSH1 0x0 DUP5 ADD PUSH2 0xD33 SWAP2 PUSH2 0x2C6 JUMP JUMPDEST PUSH1 0x20 DUP4 ADD PUSH2 0xD40 SWAP2 PUSH2 0x2C6 JUMP JUMPDEST PUSH1 0x40 DUP3 ADD PUSH2 0xD4D SWAP2 PUSH2 0x2C6 JUMP JUMPDEST PUSH1 0x60 ADD MSTORE PUSH1 0x80 DUP14 ADD MSTORE PUSH1 0xA0 DUP13 ADD MSTORE PUSH1 0xC0 DUP12 ADD MSTORE PUSH1 0xE0 DUP11 ADD MSTORE DUP9 DUP2 SUB PUSH2 0x100 DUP11 ADD MSTORE PUSH2 0xD77 SWAP2 PUSH2 0x27E JUMP JUMPDEST DUP8 DUP2 SUB PUSH2 0x120 DUP10 ADD MSTORE PUSH2 0xD89 SWAP2 PUSH2 0x27E JUMP JUMPDEST SWAP2 PUSH2 0x140 DUP8 ADD PUSH2 0xD98 SWAP2 PUSH2 0xAE9 JUMP JUMPDEST PUSH2 0x160 DUP7 ADD MSTORE DUP5 DUP2 SUB PUSH2 0x180 DUP7 ADD MSTORE PUSH2 0xDB0 SWAP2 PUSH2 0x27E JUMP JUMPDEST DUP4 DUP2 SUB PUSH2 0x1A0 DUP6 ADD MSTORE PUSH2 0xDC2 SWAP2 PUSH2 0x27E JUMP JUMPDEST DUP3 DUP2 SUB PUSH2 0x1C0 DUP5 ADD MSTORE PUSH2 0xDD4 SWAP2 PUSH2 0x27E JUMP JUMPDEST SWAP1 DUP1 DUP3 SUB SWAP1 PUSH2 0x1E0 ADD MSTORE PUSH2 0x258 SWAP2 PUSH2 0x27E JUMP JUMPDEST CALLVALUE PUSH2 0x227 JUMPI PUSH2 0xDF7 CALLDATASIZE PUSH1 0x4 PUSH2 0x367 JUMP JUMPDEST PUSH2 0xE2C PUSH2 0xE02 PUSH2 0x2324 JUMP JUMPDEST SWAP15 PUSH2 0xE21 SWAP15 SWAP2 SWAP15 SWAP14 SWAP3 SWAP14 SWAP13 SWAP4 SWAP13 SWAP12 SWAP5 SWAP12 SWAP11 SWAP6 SWAP11 SWAP10 SWAP7 SWAP10 SWAP9 SWAP8 SWAP9 PUSH1 0x40 MLOAD SWAP1 JUMP JUMPDEST PUSH1 0x80 MSTORE PUSH1 0x80 MLOAD PUSH2 0xD10 JUMP JUMPDEST PUSH1 0x80 MLOAD SWAP1 SUB PUSH1 0x80 MLOAD RETURN JUMPDEST PUSH2 0x258 SWAP1 SLOAD PUSH2 0x64A JUMP JUMPDEST ISZERO PUSH2 0xE47 JUMPI JUMP JUMPDEST PUSH1 0x40 MLOAD PUSH3 0x461BCD PUSH1 0xE5 SHL DUP2 MSTORE PUSH1 0x20 PUSH1 0x4 DUP3 ADD MSTORE PUSH1 0x36 PUSH1 0x24 DUP3 ADD MSTORE PUSH32 0x596F7520646F6E7420686176652061646D696E2061636365737320746F207065 PUSH1 0x44 DUP3 ADD MSTORE PUSH22 0x72666F726D2074686973206F7065726174696F6E2021 PUSH1 0x50 SHL PUSH1 0x64 DUP3 ADD MSTORE PUSH1 0x84 SWAP1 REVERT JUMPDEST PUSH2 0x242 SWAP1 PUSH2 0xED4 CALLER PUSH2 0xECE PUSH2 0xEC8 PUSH2 0xEC3 PUSH1 0x1 PUSH2 0xE36 JUMP JUMPDEST PUSH2 0x5E1 JUMP JUMPDEST SWAP2 PUSH2 0x2BA JUMP JUMPDEST EQ PUSH2 0xE40 JUMP JUMPDEST PUSH2 0xF04 JUMP JUMPDEST SWAP1 PUSH1 0x0 NOT SWAP1 JUMPDEST SWAP2 DUP2 NOT AND SWAP2 AND OR SWAP1 JUMP JUMPDEST SWAP1 PUSH2 0xEF9 PUSH2 0x258 PUSH2 0xF00 SWAP3 PUSH2 0x8E3 JUMP JUMPDEST DUP3 SLOAD PUSH2 0xED9 JUMP JUMPDEST SWAP1 SSTORE JUMP JUMPDEST PUSH2 0x242 SWAP1 PUSH1 0x3 PUSH2 0xEE9 JUMP JUMPDEST PUSH2 0x242 SWAP1 PUSH2 0xEAB JUMP JUMPDEST PUSH2 0x242 SWAP1 PUSH2 0xF30 CALLER PUSH2 0xECE PUSH2 0xEC8 PUSH2 0xEC3 PUSH1 0x1 PUSH2 0xE36 JUMP JUMPDEST PUSH2 0xF59 JUMP JUMPDEST SWAP1 PUSH2 0xFF00 SWAP1 PUSH1 0x8 SHL PUSH2 0xEDF JUMP JUMPDEST SWAP1 PUSH2 0xF52 PUSH2 0x258 PUSH2 0xF00 SWAP3 ISZERO ISZERO SWAP1 JUMP JUMPDEST DUP3 SLOAD PUSH2 0xF35 JUMP JUMPDEST PUSH2 0x242 SWAP1 PUSH1 0xE PUSH2 0xF42 JUMP JUMPDEST PUSH2 0x242 SWAP1 PUSH2 0xF18 JUMP JUMPDEST PUSH2 0x242 SWAP1 PUSH2 0xF85 CALLER PUSH2 0xECE PUSH2 0xEC8 PUSH2 0xEC3 PUSH1 0x1 PUSH2 0xE36 JUMP JUMPDEST PUSH2 0xFAF JUMP JUMPDEST SWAP1 PUSH3 0xFF0000 SWAP1 PUSH1 0x10 SHL PUSH2 0xEDF JUMP JUMPDEST SWAP1 PUSH2 0xFA8 PUSH2 0x258 PUSH2 0xF00 SWAP3 ISZERO ISZERO SWAP1 JUMP JUMPDEST DUP3 SLOAD PUSH2 0xF8A JUMP JUMPDEST PUSH2 0x242 SWAP1 PUSH1 0xE PUSH2 0xF98 JUMP JUMPDEST PUSH2 0x242 SWAP1 PUSH2 0xF6D JUMP JUMPDEST PUSH2 0x258 SWAP1 PUSH1 0x10 SHR PUSH2 0x84B JUMP JUMPDEST PUSH2 0x258 SWAP1 SLOAD PUSH2 0xFC3 JUMP JUMPDEST ISZERO PUSH2 0xFE0 JUMPI JUMP JUMPDEST PUSH1 0x40 MLOAD PUSH3 0x461BCD PUSH1 0xE5 SHL DUP2 MSTORE PUSH1 0x20 PUSH1 0x4 DUP3 ADD MSTORE PUSH1 0x18 PUSH1 0x24 DUP3 ADD MSTORE PUSH24 0x141C9BDA9958DD081B5D5CDD081899481D995C9A599A5959 PUSH1 0x42 SHL PUSH1 0x44 DUP3 ADD MSTORE PUSH1 0x64 SWAP1 REVERT JUMPDEST SWAP1 PUSH2 0x242 SWAP3 SWAP2 PUSH2 0x1045 PUSH2 0x1033 PUSH1 0xE PUSH2 0xFCF JUMP JUMPDEST PUSH2 0x103F PUSH1 0x1 JUMPDEST SWAP2 ISZERO ISZERO SWAP1 JUMP JUMPDEST EQ PUSH2 0xFD9 JUMP JUMPDEST PUSH2 0x10BB JUMP JUMPDEST ISZERO PUSH2 0x1051 JUMPI JUMP JUMPDEST PUSH1 0x40 MLOAD PUSH3 0x461BCD PUSH1 0xE5 SHL DUP2 MSTORE PUSH1 0x20 PUSH1 0x4 DUP3 ADD MSTORE PUSH1 0x3C PUSH1 0x24 DUP3 ADD MSTORE PUSH32 0x596F7520646F206E6F74206861766520746865206D6173746572207269676874 PUSH1 0x44 DUP3 ADD MSTORE PUSH28 0x7320746F20706572666F726D2074686973206F7065726174696F6E21 PUSH1 0x20 SHL PUSH1 0x64 DUP3 ADD MSTORE PUSH1 0x84 SWAP1 REVERT JUMPDEST SWAP1 PUSH2 0x242 SWAP3 SWAP2 PUSH2 0x10DB CALLER PUSH2 0x10D5 PUSH2 0xEC8 PUSH2 0xEC3 PUSH1 0x0 PUSH2 0xE36 JUMP JUMPDEST EQ PUSH2 0x104A JUMP JUMPDEST PUSH2 0x11DC JUMP JUMPDEST PUSH4 0x4E487B71 PUSH1 0xE0 SHL PUSH1 0x0 MSTORE PUSH1 0x11 PUSH1 0x4 MSTORE PUSH1 0x24 PUSH1 0x0 REVERT JUMPDEST PUSH1 0x0 NOT DUP2 EQ PUSH2 0x1105 JUMPI PUSH1 0x1 ADD SWAP1 JUMP JUMPDEST PUSH2 0x10E0 JUMP JUMPDEST SWAP2 SWAP1 DUP3 ADD DUP1 SWAP3 GT PUSH2 0x1105 JUMPI JUMP JUMPDEST SWAP1 POP MLOAD SWAP1 PUSH2 0x242 DUP3 PUSH2 0x22C JUMP JUMPDEST SWAP1 PUSH1 0x20 DUP3 DUP3 SUB SLT PUSH2 0x227 JUMPI PUSH2 0x258 SWAP2 PUSH2 0x1117 JUMP JUMPDEST SWAP2 PUSH1 0x20 PUSH2 0x242 SWAP3 SWAP5 SWAP4 PUSH2 0x328 PUSH1 0x40 DUP3 ADD SWAP7 PUSH1 0x0 DUP4 ADD SWAP1 PUSH2 0x2C6 JUMP JUMPDEST PUSH1 0x40 MLOAD RETURNDATASIZE PUSH1 0x0 DUP3 RETURNDATACOPY RETURNDATASIZE SWAP1 REVERT JUMPDEST ISZERO PUSH2 0x227 JUMPI JUMP JUMPDEST SWAP1 POP MLOAD SWAP1 PUSH2 0x242 DUP3 PUSH2 0x72C JUMP JUMPDEST SWAP1 PUSH1 0x20 DUP3 DUP3 SUB SLT PUSH2 0x227 JUMPI PUSH2 0x258 SWAP2 PUSH2 0x1166 JUMP JUMPDEST PUSH1 0x40 SWAP1 PUSH2 0x11B1 PUSH2 0x242 SWAP5 SWAP7 SWAP6 SWAP4 SWAP7 PUSH2 0x11A7 PUSH1 0x60 DUP5 ADD SWAP9 PUSH1 0x0 DUP6 ADD SWAP1 PUSH2 0x2C6 JUMP JUMPDEST PUSH1 0x20 DUP4 ADD SWAP1 PUSH2 0x2C6 JUMP JUMPDEST ADD MSTORE JUMP JUMPDEST PUSH1 0x40 SWAP1 PUSH2 0x11B1 PUSH2 0x242 SWAP5 SWAP7 SWAP6 SWAP4 SWAP7 PUSH2 0x11D5 PUSH1 0x60 DUP5 ADD SWAP9 PUSH1 0x0 DUP6 ADD SWAP1 PUSH2 0x2C6 JUMP JUMPDEST PUSH1 0x20 DUP4 ADD MSTORE JUMP JUMPDEST SWAP2 PUSH2 0x124A PUSH1 0x14 SWAP2 PUSH2 0x1232 PUSH2 0x121A DUP7 PUSH2 0x11FC PUSH2 0x11F7 DUP3 DUP9 PUSH2 0x5EA JUMP JUMPDEST PUSH2 0x901 JUMP JUMPDEST SWAP6 PUSH1 0x0 SWAP7 PUSH2 0x1210 PUSH2 0x120C DUP10 PUSH2 0x8E3 JUMP JUMPDEST SWAP2 SWAP1 JUMP JUMPDEST EQ PUSH2 0x1390 JUMPI PUSH2 0x5EA JUMP JUMPDEST PUSH2 0x122C DUP7 PUSH2 0x1227 DUP4 PUSH2 0x901 JUMP JUMPDEST PUSH2 0x110A JUMP JUMPDEST SWAP1 PUSH2 0xEE9 JUMP JUMPDEST PUSH2 0xEC3 PUSH2 0x1243 DUP6 PUSH2 0x1227 PUSH1 0xA PUSH2 0x901 JUMP JUMPDEST PUSH1 0xA PUSH2 0xEE9 JUMP JUMPDEST SWAP1 PUSH4 0xDD62ED3E SWAP2 PUSH2 0x125A ADDRESS PUSH2 0x5E1 JUMP JUMPDEST PUSH2 0x126D PUSH2 0x1266 PUSH1 0x40 MLOAD SWAP1 JUMP JUMPDEST SWAP5 PUSH1 0xE0 SHL SWAP1 JUMP JUMPDEST DUP5 MSTORE PUSH1 0x20 DUP5 DUP1 PUSH2 0x1281 DUP5 DUP11 PUSH1 0x4 DUP5 ADD PUSH2 0x1138 JUMP JUMPDEST SUB DUP2 DUP6 GAS STATICCALL SWAP2 DUP3 ISZERO PUSH2 0x135E JUMPI PUSH2 0x12A5 PUSH1 0x20 SWAP4 DUP8 SWAP7 DUP7 SWAP2 PUSH2 0x1363 JUMPI JUMPDEST POP DUP7 GT ISZERO PUSH2 0x115F JUMP JUMPDEST PUSH2 0x12C7 DUP5 PUSH4 0x23B872DD PUSH2 0x12D3 PUSH2 0x12BA PUSH1 0x40 MLOAD SWAP1 JUMP JUMPDEST SWAP9 DUP10 SWAP7 DUP8 SWAP6 DUP7 SWAP5 PUSH1 0xE0 SHL SWAP1 JUMP JUMPDEST DUP5 MSTORE DUP13 PUSH1 0x4 DUP6 ADD PUSH2 0x1187 JUMP JUMPDEST SUB SWAP3 GAS CALL SWAP1 DUP2 ISZERO PUSH2 0x135E JUMPI POP PUSH2 0x1332 JUMPI JUMPDEST POP PUSH2 0x12EF PUSH1 0xA PUSH2 0x901 JUMP JUMPDEST SWAP2 PUSH2 0x1327 PUSH32 0x5CDC4AB8D637538EAD6CC1904D4160343656C8C82BD266635CFD31AC008FFFE0 SWAP4 PUSH2 0x131E PUSH1 0x40 MLOAD SWAP1 JUMP JUMPDEST SWAP4 DUP5 SWAP4 DUP5 PUSH2 0x11B5 JUMP JUMPDEST SUB SWAP1 LOG1 PUSH2 0x242 PUSH2 0x13DC JUMP JUMPDEST PUSH2 0x1352 SWAP1 PUSH1 0x20 RETURNDATASIZE DUP2 GT PUSH2 0x1357 JUMPI JUMPDEST PUSH2 0x134A DUP2 DUP4 PUSH2 0x4CE JUMP JUMPDEST DUP2 ADD SWAP1 PUSH2 0x1173 JUMP JUMPDEST PUSH2 0x12E4 JUMP JUMPDEST POP RETURNDATASIZE PUSH2 0x1340 JUMP JUMPDEST PUSH2 0x1153 JUMP JUMPDEST PUSH2 0x1383 SWAP2 POP DUP6 RETURNDATASIZE DUP2 GT PUSH2 0x1389 JUMPI JUMPDEST PUSH2 0x137B DUP2 DUP4 PUSH2 0x4CE JUMP JUMPDEST DUP2 ADD SWAP1 PUSH2 0x1124 JUMP JUMPDEST CODESIZE PUSH2 0x129C JUMP JUMPDEST POP RETURNDATASIZE PUSH2 0x1371 JUMP JUMPDEST PUSH2 0x13AC PUSH2 0x13A5 PUSH2 0x13A0 PUSH1 0xB PUSH2 0x901 JUMP JUMPDEST PUSH2 0x10F6 JUMP JUMPDEST PUSH1 0xB PUSH2 0xEE9 JUMP JUMPDEST PUSH2 0x5EA JUMP JUMPDEST SWAP1 PUSH2 0x242 SWAP3 SWAP2 PUSH2 0x1020 JUMP JUMPDEST SWAP1 PUSH1 0xFF SWAP1 PUSH2 0xEDF JUMP JUMPDEST SWAP1 PUSH2 0x13D5 PUSH2 0x258 PUSH2 0xF00 SWAP3 PUSH2 0xAE0 JUMP JUMPDEST DUP3 SLOAD PUSH2 0x13BC JUMP JUMPDEST PUSH2 0x13E6 PUSH1 0xA PUSH2 0x901 JUMP JUMPDEST PUSH2 0x13F6 PUSH2 0x120C PUSH2 0x258 PUSH1 0x8 PUSH2 0x901 JUMP JUMPDEST LT PUSH2 0x1412 JUMPI PUSH2 0x1407 PUSH1 0x2 PUSH1 0xE PUSH2 0x13C5 JUMP JUMPDEST PUSH2 0x242 TIMESTAMP PUSH1 0x9 PUSH2 0xEE9 JUMP JUMPDEST TIMESTAMP PUSH2 0x1423 PUSH2 0x120C PUSH2 0x258 PUSH1 0x7 PUSH2 0x901 JUMP JUMPDEST GT ISZERO PUSH2 0x1407 JUMPI PUSH2 0x1435 PUSH1 0x1 PUSH1 0xE PUSH2 0x13C5 JUMP JUMPDEST PUSH2 0x1407 JUMP JUMPDEST PUSH2 0x1443 ADDRESS PUSH2 0x5E1 JUMP JUMPDEST BALANCE SWAP1 JUMP JUMPDEST PUSH1 0x20 PUSH2 0x145E PUSH2 0x1492 SWAP3 PUSH2 0x1458 PUSH1 0x0 SWAP1 JUMP JUMPDEST POP PUSH2 0x5E1 JUMP JUMPDEST PUSH4 0x70A08231 SWAP1 PUSH2 0x1487 PUSH2 0x1470 ADDRESS PUSH2 0x5E1 JUMP JUMPDEST SWAP3 PUSH2 0x147A PUSH1 0x40 MLOAD SWAP1 JUMP JUMPDEST SWAP6 DUP7 SWAP5 DUP6 SWAP4 DUP5 SWAP4 PUSH1 0xE0 SHL SWAP1 JUMP JUMPDEST DUP4 MSTORE PUSH1 0x4 DUP4 ADD PUSH2 0x39D JUMP JUMPDEST SUB SWAP2 GAS STATICCALL SWAP1 DUP2 ISZERO PUSH2 0x135E JUMPI PUSH1 0x0 SWAP2 PUSH2 0x14A8 JUMPI POP SWAP1 JUMP JUMPDEST PUSH2 0x258 SWAP2 POP PUSH1 0x20 RETURNDATASIZE DUP2 GT PUSH2 0x1389 JUMPI PUSH2 0x137B DUP2 DUP4 PUSH2 0x4CE JUMP JUMPDEST ISZERO PUSH2 0x14C7 JUMPI JUMP JUMPDEST PUSH1 0x40 MLOAD PUSH3 0x461BCD PUSH1 0xE5 SHL DUP2 MSTORE PUSH1 0x20 PUSH1 0x4 DUP3 ADD MSTORE PUSH1 0xD PUSH1 0x24 DUP3 ADD MSTORE PUSH13 0x496E76616C6964207374617465 PUSH1 0x98 SHL PUSH1 0x44 DUP3 ADD MSTORE PUSH1 0x64 SWAP1 REVERT JUMPDEST ISZERO PUSH2 0x1503 JUMPI JUMP JUMPDEST PUSH1 0x40 MLOAD PUSH3 0x461BCD PUSH1 0xE5 SHL DUP2 MSTORE PUSH1 0x20 PUSH1 0x4 DUP3 ADD MSTORE PUSH1 0x15 PUSH1 0x24 DUP3 ADD MSTORE PUSH21 0x446561646C696E6520686173207061737365642021 PUSH1 0x58 SHL PUSH1 0x44 DUP3 ADD MSTORE PUSH1 0x64 SWAP1 REVERT JUMPDEST PUSH2 0x258 SWAP1 PUSH2 0x156B PUSH1 0x1 PUSH2 0x1565 PUSH2 0x155F PUSH2 0x1559 PUSH1 0xE PUSH2 0x914 JUMP JUMPDEST SWAP3 PUSH2 0xAD6 JUMP JUMPDEST SWAP2 PUSH2 0xAD6 JUMP JUMPDEST EQ PUSH2 0x14C0 JUMP JUMPDEST PUSH2 0x1585 TIMESTAMP PUSH2 0x157F PUSH2 0x120C PUSH2 0x258 PUSH1 0x7 PUSH2 0x901 JUMP JUMPDEST LT PUSH2 0x14FC JUMP JUMPDEST PUSH2 0x15E5 JUMP JUMPDEST ISZERO PUSH2 0x1591 JUMPI JUMP JUMPDEST PUSH1 0x40 MLOAD PUSH3 0x461BCD PUSH1 0xE5 SHL DUP2 MSTORE PUSH1 0x20 PUSH1 0x4 DUP3 ADD MSTORE PUSH1 0x26 PUSH1 0x24 DUP3 ADD MSTORE PUSH32 0x596F7520646F6E74206861766520616E7920636F6E747269627574656420616D PUSH1 0x44 DUP3 ADD MSTORE PUSH6 0x6F756E742021 PUSH1 0xD0 SHL PUSH1 0x64 DUP3 ADD MSTORE PUSH1 0x84 SWAP1 REVERT JUMPDEST POP CALLER PUSH1 0x14 PUSH2 0x15F6 PUSH2 0x11F7 DUP4 DUP4 PUSH2 0x5EA JUMP JUMPDEST PUSH2 0x160E PUSH1 0x0 SWAP2 PUSH2 0x1608 PUSH2 0x120C DUP5 PUSH2 0x8E3 JUMP JUMPDEST GT PUSH2 0x158A JUMP JUMPDEST DUP1 DUP1 DUP1 DUP1 PUSH2 0x161E PUSH2 0xEC3 DUP9 PUSH2 0x5E1 JUMP JUMPDEST PUSH2 0x162B PUSH2 0x11F7 DUP10 DUP10 PUSH2 0x5EA JUMP JUMPDEST SWAP1 DUP3 DUP3 ISZERO PUSH2 0x165A JUMPI JUMPDEST CALL ISZERO PUSH2 0x135E JUMPI PUSH2 0x1655 SWAP3 PUSH2 0x164A PUSH2 0x1650 SWAP3 PUSH2 0x8E3 JUMP JUMPDEST SWAP3 PUSH2 0x5EA JUMP JUMPDEST PUSH2 0xEE9 JUMP JUMPDEST PUSH1 0x1 SWAP1 JUMP JUMPDEST POP PUSH2 0x8FC PUSH2 0x1634 JUMP JUMPDEST PUSH2 0x258 PUSH1 0x0 PUSH2 0x1540 JUMP JUMPDEST ISZERO PUSH2 0x1674 JUMPI JUMP JUMPDEST PUSH1 0x40 MLOAD PUSH3 0x461BCD PUSH1 0xE5 SHL DUP2 MSTORE PUSH1 0x20 PUSH1 0x4 DUP3 ADD MSTORE PUSH1 0x38 PUSH1 0x24 DUP3 ADD MSTORE PUSH32 0x596F7520646F6E7420686176652063726561746F722061636365737320746F20 PUSH1 0x44 DUP3 ADD MSTORE PUSH24 0x706572666F726D2074686973206F7065726174696F6E2021 PUSH1 0x40 SHL PUSH1 0x64 DUP3 ADD MSTORE PUSH1 0x84 SWAP1 REVERT JUMPDEST SWAP1 PUSH2 0x242 SWAP5 SWAP4 SWAP3 SWAP2 PUSH2 0x16FC CALLER PUSH2 0x16F6 PUSH2 0xEC8 PUSH2 0xEC3 PUSH1 0x4 PUSH2 0xE36 JUMP JUMPDEST EQ PUSH2 0x166D JUMP JUMPDEST SWAP1 PUSH2 0x242 SWAP5 SWAP4 SWAP3 SWAP2 PUSH2 0x1719 PUSH1 0x2 PUSH2 0x1565 PUSH2 0x155F PUSH2 0x1559 PUSH1 0xE PUSH2 0x914 JUMP JUMPDEST PUSH2 0x172D TIMESTAMP PUSH2 0x157F PUSH2 0x120C PUSH2 0x258 PUSH1 0x7 PUSH2 0x901 JUMP JUMPDEST PUSH2 0x1966 JUMP JUMPDEST SWAP2 PUSH1 0x0 NOT PUSH1 0x8 SWAP3 SWAP1 SWAP3 MUL SWAP2 DUP3 SHL SWAP2 SHL PUSH2 0xEDF JUMP JUMPDEST SWAP2 SWAP1 PUSH2 0x1757 PUSH2 0x258 PUSH2 0xF00 SWAP4 PUSH2 0x8E3 JUMP JUMPDEST SWAP1 DUP4 SLOAD PUSH2 0x1732 JUMP JUMPDEST PUSH2 0x242 SWAP2 PUSH1 0x0 SWAP2 PUSH2 0x1746 JUMP JUMPDEST DUP2 DUP2 LT PUSH2 0x1776 JUMPI POP POP JUMP JUMPDEST DUP1 PUSH2 0x1784 PUSH1 0x0 PUSH1 0x1 SWAP4 PUSH2 0x175F JUMP JUMPDEST ADD PUSH2 0x176B JUMP JUMPDEST SWAP2 SWAP1 PUSH1 0x1F DUP2 GT PUSH2 0x1799 JUMPI POP POP POP JUMP JUMPDEST PUSH2 0x17AB PUSH2 0x242 SWAP4 PUSH1 0x0 MSTORE PUSH1 0x20 PUSH1 0x0 KECCAK256 SWAP1 JUMP JUMPDEST SWAP1 PUSH1 0x20 PUSH1 0x1F DUP5 ADD DUP2 SWAP1 DIV DUP4 ADD SWAP4 LT PUSH2 0x17CD JUMPI JUMPDEST PUSH1 0x20 PUSH1 0x1F SWAP1 SWAP2 ADD DIV ADD SWAP1 PUSH2 0x176B JUMP JUMPDEST SWAP1 SWAP2 POP DUP2 SWAP1 PUSH2 0x17BE JUMP JUMPDEST SWAP1 PUSH1 0x0 NOT PUSH1 0x8 SWAP1 SWAP2 MUL SHR NOT AND SWAP1 JUMP JUMPDEST DUP2 PUSH2 0x17F0 SWAP2 PUSH2 0x17D7 JUMP JUMPDEST SWAP1 PUSH1 0x2 MUL OR SWAP1 JUMP JUMPDEST SWAP1 PUSH2 0x1801 DUP2 MLOAD SWAP1 JUMP JUMPDEST SWAP1 PUSH1 0x1 PUSH1 0x1 PUSH1 0x40 SHL SUB DUP3 GT PUSH2 0x4EF JUMPI PUSH2 0x1824 DUP3 PUSH2 0x181E DUP6 SLOAD PUSH2 0x400 JUMP JUMPDEST DUP6 PUSH2 0x178A JUMP JUMPDEST PUSH1 0x20 SWAP1 PUSH1 0x1F DUP4 GT PUSH1 0x1 EQ PUSH2 0x1852 JUMPI PUSH2 0xF00 SWAP3 SWAP2 PUSH1 0x0 SWAP2 DUP4 PUSH2 0x1847 JUMPI JUMPDEST POP POP PUSH2 0x17E6 JUMP JUMPDEST ADD MLOAD SWAP1 POP CODESIZE DUP1 PUSH2 0x1840 JUMP JUMPDEST PUSH1 0x1F NOT DUP4 AND SWAP2 PUSH2 0x1867 DUP6 PUSH1 0x0 MSTORE PUSH1 0x20 PUSH1 0x0 KECCAK256 SWAP1 JUMP JUMPDEST SWAP3 PUSH1 0x0 JUMPDEST DUP2 DUP2 LT PUSH2 0x18A6 JUMPI POP SWAP2 PUSH1 0x2 SWAP4 SWAP2 DUP6 PUSH1 0x1 SWAP7 SWAP5 LT PUSH2 0x188C JUMPI JUMPDEST POP POP POP MUL ADD SWAP1 SSTORE JUMP JUMPDEST PUSH2 0x189C SWAP2 ADD MLOAD PUSH1 0x1F DUP5 AND SWAP1 PUSH2 0x17D7 JUMP JUMPDEST SWAP1 SSTORE CODESIZE DUP1 DUP1 PUSH2 0x1883 JUMP JUMPDEST SWAP2 SWAP4 PUSH1 0x20 PUSH1 0x1 DUP2 SWAP3 DUP8 DUP8 ADD MLOAD DUP2 SSTORE ADD SWAP6 ADD SWAP3 ADD PUSH2 0x186B JUMP JUMPDEST SWAP1 PUSH2 0x242 SWAP2 PUSH2 0x17F8 JUMP JUMPDEST SWAP1 PUSH2 0x13D5 PUSH2 0x258 PUSH2 0xF00 SWAP3 ISZERO ISZERO SWAP1 JUMP JUMPDEST SWAP1 PUSH2 0x100 PUSH1 0x1 PUSH1 0xA8 SHL SUB SWAP1 PUSH1 0x8 SHL PUSH2 0xEDF JUMP JUMPDEST SWAP1 PUSH2 0x18FB PUSH2 0x258 PUSH2 0xF00 SWAP3 PUSH2 0x5E1 JUMP JUMPDEST DUP3 SLOAD PUSH2 0x18D8 JUMP JUMPDEST PUSH2 0x2B6 SWAP1 PUSH2 0x8E3 JUMP JUMPDEST PUSH2 0x2B6 SWAP1 PUSH2 0x5E1 JUMP JUMPDEST SWAP3 SWAP8 SWAP7 SWAP5 PUSH2 0x31F SWAP1 PUSH2 0x1955 PUSH1 0xC0 SWAP7 PUSH2 0x311 PUSH2 0x194D PUSH2 0x242 SWAP12 SWAP7 PUSH2 0x195F SWAP9 PUSH2 0x1940 PUSH1 0xE0 DUP13 ADD SWAP3 PUSH1 0x0 DUP14 ADD MSTORE JUMP JUMPDEST DUP11 DUP3 SUB PUSH1 0x20 DUP13 ADD MSTORE PUSH2 0x27E JUMP JUMPDEST SWAP13 PUSH1 0x40 DUP10 ADD MSTORE JUMP JUMPDEST PUSH1 0x80 DUP6 ADD SWAP1 PUSH2 0x1902 JUMP JUMPDEST ADD SWAP1 PUSH2 0x190B JUMP JUMPDEST SWAP3 SWAP1 PUSH1 0x5 PUSH2 0x1A06 SWAP3 SWAP6 SWAP4 SWAP6 PUSH2 0x197F PUSH2 0x258 DUP7 PUSH1 0x15 PUSH2 0x8F0 JUMP JUMPDEST SWAP1 PUSH2 0x198A DUP8 DUP4 PUSH2 0x18BE JUMP JUMPDEST PUSH2 0x1997 DUP9 PUSH1 0x1 DUP5 ADD PUSH2 0xEE9 JUMP JUMPDEST PUSH2 0x19A4 DUP2 PUSH1 0x2 DUP5 ADD PUSH2 0xEE9 JUMP JUMPDEST PUSH2 0x19D2 DUP5 PUSH1 0x0 SWAP5 DUP6 SWAP5 PUSH2 0x19C2 PUSH2 0x19B9 DUP8 PUSH2 0x8E3 JUMP JUMPDEST PUSH1 0x3 DUP4 ADD PUSH2 0xEE9 JUMP JUMPDEST ADD PUSH2 0x19CD DUP6 DUP3 PUSH2 0x18C8 JUMP JUMPDEST PUSH2 0x18EB JUMP JUMPDEST PUSH32 0x3009567E0613F3581563A052FEA56298ACA1363831103CF6F1CBB8BF5AE122F3 SWAP8 PUSH2 0x19FD PUSH1 0x40 MLOAD SWAP1 JUMP JUMPDEST SWAP8 DUP9 SWAP8 DUP9 PUSH2 0x1914 JUMP JUMPDEST SUB SWAP1 LOG1 JUMP JUMPDEST SWAP1 PUSH2 0x242 SWAP5 SWAP4 SWAP3 SWAP2 PUSH2 0x16DA JUMP JUMPDEST ISZERO PUSH2 0x1A1F JUMPI JUMP JUMPDEST PUSH1 0x40 MLOAD PUSH3 0x461BCD PUSH1 0xE5 SHL DUP2 MSTORE PUSH1 0x20 PUSH1 0x4 DUP3 ADD MSTORE PUSH1 0x1B PUSH1 0x24 DUP3 ADD MSTORE PUSH27 0x4F6E6C7920636F6E7472696275746F722063616E20766F74652021 PUSH1 0x28 SHL PUSH1 0x44 DUP3 ADD MSTORE PUSH1 0x64 SWAP1 REVERT JUMPDEST ISZERO PUSH2 0x1A69 JUMPI JUMP JUMPDEST PUSH1 0x40 MLOAD PUSH3 0x461BCD PUSH1 0xE5 SHL DUP2 MSTORE PUSH1 0x20 PUSH1 0x4 DUP3 ADD MSTORE PUSH1 0x13 PUSH1 0x24 DUP3 ADD MSTORE PUSH19 0x596F7520616C726561647920766F7465642021 PUSH1 0x68 SHL PUSH1 0x44 DUP3 ADD MSTORE PUSH1 0x64 SWAP1 REVERT JUMPDEST SWAP2 PUSH1 0x20 PUSH2 0x242 SWAP3 SWAP5 SWAP4 PUSH2 0x11B1 PUSH1 0x40 DUP3 ADD SWAP7 PUSH1 0x0 DUP4 ADD SWAP1 PUSH2 0x2C6 JUMP JUMPDEST CALLER SWAP1 PUSH2 0x1B5C SWAP1 PUSH2 0x11F7 PUSH2 0x1B56 PUSH1 0x3 PUSH2 0x1B4A DUP7 PUSH2 0x1B45 PUSH2 0x1B06 PUSH2 0x258 PUSH2 0x1AE6 DUP9 DUP6 PUSH1 0x14 PUSH2 0x5EA JUMP JUMPDEST SWAP9 PUSH2 0x1AFF PUSH1 0x0 SWAP11 PUSH2 0x1AF9 PUSH2 0x120C DUP14 PUSH2 0x8E3 JUMP JUMPDEST GT PUSH2 0x1A18 JUMP JUMPDEST PUSH1 0x15 PUSH2 0x8F0 JUMP JUMPDEST SWAP7 PUSH2 0x1B33 PUSH1 0x4 DUP10 ADD SWAP2 PUSH2 0x1B2D PUSH2 0x1039 PUSH2 0x1B27 PUSH2 0x1B22 DUP9 DUP8 PUSH2 0x5EA JUMP JUMPDEST PUSH2 0x914 JUMP JUMPDEST SWAP3 ISZERO ISZERO SWAP1 JUMP JUMPDEST EQ PUSH2 0x1A62 JUMP JUMPDEST PUSH2 0x1B40 PUSH1 0x1 SWAP4 DUP5 SWAP3 PUSH2 0x5EA JUMP JUMPDEST PUSH2 0x18C8 JUMP JUMPDEST PUSH2 0x8E3 JUMP JUMPDEST SWAP4 ADD SWAP3 PUSH2 0x1227 DUP5 PUSH2 0x901 JUMP JUMPDEST DUP3 PUSH2 0xEE9 JUMP JUMPDEST PUSH32 0xA2925E4595BF873FA82C22A1A89809777347023BF2B502D32710157A5EB8199C SWAP2 PUSH2 0x1A06 PUSH2 0x1B8A PUSH1 0x40 MLOAD SWAP1 JUMP JUMPDEST SWAP3 DUP4 SWAP3 DUP4 PUSH2 0x1AA4 JUMP JUMPDEST SWAP1 PUSH2 0x242 SWAP3 SWAP2 PUSH2 0x1BAD CALLER PUSH2 0x16F6 PUSH2 0xEC8 PUSH2 0xEC3 PUSH1 0x4 PUSH2 0xE36 JUMP JUMPDEST SWAP1 PUSH2 0x242 SWAP3 SWAP2 PUSH2 0x1BC8 PUSH1 0x2 PUSH2 0x1565 PUSH2 0x155F PUSH2 0x1559 PUSH1 0xE PUSH2 0x914 JUMP JUMPDEST PUSH2 0x1BDC TIMESTAMP PUSH2 0x157F PUSH2 0x120C PUSH2 0x258 PUSH1 0x7 PUSH2 0x901 JUMP JUMPDEST PUSH2 0x1DEF JUMP JUMPDEST ISZERO PUSH2 0x1BE8 JUMPI JUMP JUMPDEST PUSH1 0x40 MLOAD PUSH3 0x461BCD PUSH1 0xE5 SHL DUP2 MSTORE PUSH1 0x20 PUSH1 0x4 DUP3 ADD MSTORE PUSH1 0x19 PUSH1 0x24 DUP3 ADD MSTORE PUSH25 0x14995C5D595CDD08185B1C9958591E4818DBDB5C1B195D1959 PUSH1 0x3A SHL PUSH1 0x44 DUP3 ADD MSTORE PUSH1 0x64 SWAP1 REVERT JUMPDEST PUSH4 0x4E487B71 PUSH1 0xE0 SHL PUSH1 0x0 MSTORE PUSH1 0x12 PUSH1 0x4 MSTORE PUSH1 0x24 PUSH1 0x0 REVERT JUMPDEST DUP2 ISZERO PUSH2 0x1C49 JUMPI DIV SWAP1 JUMP JUMPDEST PUSH2 0x1C29 JUMP JUMPDEST ISZERO PUSH2 0x1C55 JUMPI JUMP JUMPDEST PUSH1 0x40 MLOAD PUSH3 0x461BCD PUSH1 0xE5 SHL DUP2 MSTORE PUSH1 0x20 PUSH1 0x4 DUP3 ADD MSTORE PUSH1 0x36 PUSH1 0x24 DUP3 ADD MSTORE PUSH32 0x4174206C656173742032302520636F6E7472696275746F72206E65656420746F PUSH1 0x44 DUP3 ADD MSTORE PUSH22 0x81D9BDD1948199BDC881D1A1A5CC81C995C5D595CDD PUSH1 0x52 SHL PUSH1 0x64 DUP3 ADD MSTORE PUSH1 0x84 SWAP1 REVERT JUMPDEST ISZERO PUSH2 0x1CC0 JUMPI JUMP JUMPDEST PUSH1 0x40 MLOAD PUSH3 0x461BCD PUSH1 0xE5 SHL DUP2 MSTORE PUSH1 0x20 PUSH1 0x4 DUP3 ADD MSTORE PUSH1 0x3E PUSH1 0x24 DUP3 ADD MSTORE PUSH1 0x0 DUP1 MLOAD PUSH1 0x20 PUSH2 0x2441 DUP4 CODECOPY DUP2 MLOAD SWAP2 MSTORE PUSH1 0x44 DUP3 ADD MSTORE PUSH32 0x6E6F75676820555344542062616C616E636520746F2064697362757273650000 PUSH1 0x64 DUP3 ADD MSTORE PUSH1 0x84 SWAP1 REVERT JUMPDEST ISZERO PUSH2 0x1D20 JUMPI JUMP JUMPDEST PUSH1 0x40 MLOAD PUSH3 0x461BCD PUSH1 0xE5 SHL DUP2 MSTORE PUSH1 0x20 PUSH1 0x4 DUP3 ADD MSTORE PUSH1 0x3E PUSH1 0x24 DUP3 ADD MSTORE PUSH1 0x0 DUP1 MLOAD PUSH1 0x20 PUSH2 0x2441 DUP4 CODECOPY DUP2 MLOAD SWAP2 MSTORE PUSH1 0x44 DUP3 ADD MSTORE PUSH32 0x6E6F75676820555344432062616C616E636520746F2064697362757273650000 PUSH1 0x64 DUP3 ADD MSTORE PUSH1 0x84 SWAP1 REVERT JUMPDEST DUP2 DUP2 MUL SWAP3 SWAP2 DUP2 ISZERO SWAP2 DUP5 DIV EQ OR ISZERO PUSH2 0x1105 JUMPI JUMP JUMPDEST PUSH1 0x40 SWAP1 PUSH2 0x11B1 PUSH2 0x242 SWAP5 SWAP7 SWAP6 SWAP4 SWAP7 PUSH2 0x1DAC PUSH1 0x60 DUP5 ADD SWAP9 PUSH1 0x0 DUP6 ADD SWAP1 PUSH2 0x2C6 JUMP JUMPDEST PUSH1 0x20 DUP4 ADD SWAP1 PUSH2 0x190B JUMP JUMPDEST SWAP3 SWAP8 SWAP7 SWAP5 PUSH2 0x31F SWAP1 PUSH2 0x318 PUSH1 0xC0 SWAP7 PUSH2 0x311 PUSH2 0x194D PUSH2 0x242 SWAP12 SWAP7 PUSH2 0x195F SWAP9 PUSH2 0x1DE2 PUSH1 0xE0 DUP13 ADD SWAP3 PUSH1 0x0 DUP14 ADD MSTORE JUMP JUMPDEST DUP11 DUP3 SUB PUSH1 0x20 DUP13 ADD MSTORE PUSH2 0x42A JUMP JUMPDEST SWAP2 SWAP1 SWAP2 PUSH2 0x1E00 PUSH2 0x258 DUP3 PUSH1 0x15 PUSH2 0x8F0 JUMP JUMPDEST SWAP2 PUSH2 0x1E20 PUSH2 0x1E10 PUSH1 0x5 DUP6 ADD PUSH2 0x914 JUMP JUMPDEST PUSH2 0x1E1A PUSH1 0x0 PUSH2 0x1039 JUMP JUMPDEST EQ PUSH2 0x1BE1 JUMP JUMPDEST PUSH2 0x1E2C PUSH1 0x3 DUP5 ADD PUSH2 0x901 JUMP JUMPDEST SWAP1 PUSH2 0x1E5D PUSH2 0x1E3A PUSH1 0xB PUSH2 0x901 JUMP JUMPDEST SWAP3 PUSH2 0x1E56 PUSH2 0x120C PUSH2 0x258 PUSH1 0x5 SWAP7 PUSH2 0x1E50 DUP9 PUSH2 0x8E3 JUMP JUMPDEST SWAP1 PUSH2 0x1C3F JUMP JUMPDEST LT ISZERO PUSH2 0x1C4E JUMP JUMPDEST PUSH2 0x1E72 PUSH2 0x1E6C PUSH1 0x1 DUP7 ADD PUSH2 0x901 JUMP JUMPDEST SWAP6 PUSH2 0x5E1 JUMP JUMPDEST SWAP2 PUSH4 0x70A08231 PUSH2 0x1E81 ADDRESS PUSH2 0x5E1 JUMP JUMPDEST SWAP7 PUSH2 0x1E8B PUSH1 0x40 MLOAD SWAP1 JUMP JUMPDEST SWAP1 PUSH2 0x1E96 DUP4 PUSH1 0xE0 SHL SWAP1 JUMP JUMPDEST DUP3 MSTORE PUSH1 0x20 DUP3 DUP1 PUSH2 0x1EA9 DUP13 PUSH1 0x4 DUP4 ADD PUSH2 0x39D JUMP JUMPDEST SUB DUP2 DUP10 GAS STATICCALL DUP1 ISZERO PUSH2 0x135E JUMPI PUSH2 0x120C PUSH2 0x1ECA SWAP2 PUSH2 0x1ED1 SWAP5 PUSH1 0x0 SWAP2 PUSH2 0x14A8 JUMPI POP SWAP1 JUMP JUMPDEST GT ISZERO PUSH2 0x1CB9 JUMP JUMPDEST PUSH2 0x1EE6 PUSH2 0x1EE0 PUSH1 0x2 DUP9 ADD PUSH2 0x901 JUMP JUMPDEST SWAP4 PUSH2 0x5E1 JUMP JUMPDEST SWAP3 PUSH2 0x1EFA PUSH2 0x1EF3 PUSH1 0x40 MLOAD SWAP1 JUMP JUMPDEST SWAP3 PUSH1 0xE0 SHL SWAP1 JUMP JUMPDEST DUP3 MSTORE PUSH1 0x20 DUP3 DUP1 PUSH2 0x1F0D DUP12 PUSH1 0x4 DUP4 ADD PUSH2 0x39D JUMP JUMPDEST SUB DUP2 DUP8 GAS STATICCALL DUP1 ISZERO PUSH2 0x135E JUMPI PUSH2 0x120C PUSH2 0x1F2E SWAP2 PUSH2 0x1F35 SWAP5 PUSH1 0x0 SWAP2 PUSH2 0x14A8 JUMPI POP SWAP1 JUMP JUMPDEST GT ISZERO PUSH2 0x1D19 JUMP JUMPDEST DUP5 ADD SWAP5 PUSH2 0x1F96 PUSH1 0x20 PUSH2 0x1F46 DUP9 PUSH2 0x92A JUMP JUMPDEST PUSH2 0x1F72 PUSH2 0x1F62 PUSH2 0x1F58 PUSH1 0x1 DUP12 ADD PUSH2 0x901 JUMP JUMPDEST PUSH2 0x1E50 PUSH1 0x32 PUSH2 0x8E3 JUMP JUMPDEST PUSH2 0x1F6C PUSH1 0x31 PUSH2 0x8E3 JUMP JUMPDEST SWAP1 PUSH2 0x1D79 JUMP JUMPDEST SWAP1 PUSH2 0x1F7C PUSH1 0x40 MLOAD SWAP1 JUMP JUMPDEST SWAP4 DUP5 SWAP3 DUP4 SWAP3 PUSH4 0x23B872DD PUSH1 0xE0 SHL JUMPDEST DUP5 MSTORE DUP8 PUSH1 0x4 DUP6 ADD PUSH2 0x1D8C JUMP JUMPDEST SUB DUP2 PUSH1 0x0 DUP9 GAS CALL DUP1 ISZERO PUSH2 0x135E JUMPI PUSH2 0x22F4 JUMPI JUMPDEST POP PUSH2 0x1FC9 PUSH1 0x20 PUSH2 0x1FB7 DUP9 PUSH2 0x92A JUMP JUMPDEST PUSH2 0x1F72 PUSH2 0x1F62 PUSH2 0x1F58 PUSH1 0x2 DUP12 ADD PUSH2 0x901 JUMP JUMPDEST SUB DUP2 PUSH1 0x0 DUP8 GAS CALL DUP1 ISZERO PUSH2 0x135E JUMPI PUSH2 0x22D8 JUMPI JUMPDEST POP TIMESTAMP PUSH2 0x1FED PUSH2 0x120C PUSH2 0x258 PUSH1 0x3 PUSH2 0x901 JUMP JUMPDEST GT PUSH2 0x2239 JUMPI PUSH2 0x2037 SWAP3 PUSH1 0x20 PUSH2 0x2002 PUSH1 0x1 PUSH2 0xE36 JUMP JUMPDEST PUSH2 0x201B PUSH2 0x2011 PUSH1 0x1 DUP11 ADD PUSH2 0x901 JUMP JUMPDEST PUSH2 0x1E50 PUSH1 0x64 PUSH2 0x8E3 JUMP JUMPDEST SWAP1 PUSH2 0x2025 PUSH1 0x40 MLOAD SWAP1 JUMP JUMPDEST SWAP7 DUP8 SWAP3 DUP4 SWAP3 PUSH4 0x23B872DD PUSH1 0xE0 SHL PUSH2 0x1F8A JUMP JUMPDEST SUB DUP2 PUSH1 0x0 DUP6 GAS CALL SWAP1 DUP2 ISZERO PUSH2 0x135E JUMPI PUSH2 0x2098 SWAP5 PUSH1 0x20 SWAP3 PUSH2 0x221E JUMPI JUMPDEST POP PUSH2 0x205C PUSH1 0x2 PUSH2 0xE36 JUMP JUMPDEST SWAP1 PUSH2 0x206C PUSH2 0x2011 PUSH1 0x1 DUP11 ADD PUSH2 0x901 JUMP JUMPDEST SWAP2 PUSH1 0x0 PUSH2 0x2078 PUSH1 0x40 MLOAD SWAP1 JUMP JUMPDEST DUP1 SWAP9 DUP2 SWAP6 DUP3 SWAP5 PUSH2 0x208C PUSH4 0x23B872DD PUSH1 0xE0 SHL SWAP1 JUMP JUMPDEST DUP5 MSTORE DUP10 PUSH1 0x4 DUP6 ADD PUSH2 0x1D8C JUMP JUMPDEST SUB SWAP3 GAS CALL SWAP3 DUP4 ISZERO PUSH2 0x135E JUMPI PUSH2 0x20EB SWAP4 PUSH2 0x2202 JUMPI JUMPDEST POP PUSH1 0x20 PUSH2 0x20B9 PUSH1 0x1 PUSH2 0xE36 JUMP JUMPDEST PUSH2 0x20C8 PUSH2 0x2011 PUSH1 0x2 DUP10 ADD PUSH2 0x901 JUMP JUMPDEST SWAP1 PUSH2 0x20D2 PUSH1 0x40 MLOAD SWAP1 JUMP JUMPDEST SWAP6 DUP7 SWAP3 DUP4 SWAP3 PUSH4 0x23B872DD PUSH1 0xE0 SHL DUP5 MSTORE DUP7 PUSH1 0x4 DUP6 ADD PUSH2 0x1D8C JUMP JUMPDEST SUB DUP2 PUSH1 0x0 DUP7 GAS CALL SWAP2 DUP3 ISZERO PUSH2 0x135E JUMPI PUSH2 0x2145 SWAP4 PUSH1 0x20 SWAP4 PUSH2 0x21E7 JUMPI JUMPDEST POP PUSH2 0x2110 PUSH1 0x2 PUSH2 0xE36 JUMP JUMPDEST PUSH1 0x0 PUSH2 0x2121 PUSH2 0x2011 PUSH1 0x2 DUP11 ADD PUSH2 0x901 JUMP JUMPDEST SWAP4 PUSH2 0x212B PUSH1 0x40 MLOAD SWAP1 JUMP JUMPDEST SWAP7 DUP8 SWAP6 DUP7 SWAP5 DUP6 SWAP4 PUSH4 0x23B872DD PUSH1 0xE0 SHL DUP6 MSTORE PUSH1 0x4 DUP6 ADD PUSH2 0x1D8C JUMP JUMPDEST SUB SWAP3 GAS CALL DUP1 ISZERO PUSH2 0x135E JUMPI PUSH2 0x21CB JUMPI JUMPDEST POP JUMPDEST PUSH2 0x1A06 PUSH1 0x1 SWAP3 PUSH2 0x2166 DUP5 DUP7 PUSH2 0x18C8 JUMP JUMPDEST PUSH1 0x0 DUP2 ADD SWAP4 DUP1 DUP3 ADD SWAP6 PUSH2 0x2196 PUSH2 0x2190 PUSH1 0x3 PUSH2 0x2189 PUSH2 0x2183 DUP12 PUSH2 0x901 JUMP JUMPDEST SWAP11 PUSH2 0x901 JUMP JUMPDEST SWAP6 ADD PUSH2 0x901 JUMP JUMPDEST SWAP2 PUSH2 0x92A JUMP JUMPDEST SWAP3 PUSH32 0x7A5218350187D3AB901AE3C2001A4348CE5A2089AC30CE35D2FC55B53FEAC2A5 SWAP8 PUSH2 0x21C2 PUSH1 0x40 MLOAD SWAP1 JUMP JUMPDEST SWAP8 DUP9 SWAP8 DUP9 PUSH2 0x1DB6 JUMP JUMPDEST PUSH2 0x21E2 SWAP1 PUSH1 0x20 RETURNDATASIZE DUP2 GT PUSH2 0x1357 JUMPI PUSH2 0x134A DUP2 DUP4 PUSH2 0x4CE JUMP JUMPDEST PUSH2 0x2154 JUMP JUMPDEST PUSH2 0x21FD SWAP1 DUP5 RETURNDATASIZE DUP2 GT PUSH2 0x1357 JUMPI PUSH2 0x134A DUP2 DUP4 PUSH2 0x4CE JUMP JUMPDEST PUSH2 0x2105 JUMP JUMPDEST PUSH2 0x2219 SWAP1 PUSH1 0x20 RETURNDATASIZE DUP2 GT PUSH2 0x1357 JUMPI PUSH2 0x134A DUP2 DUP4 PUSH2 0x4CE JUMP JUMPDEST PUSH2 0x20AC JUMP JUMPDEST PUSH2 0x2234 SWAP1 DUP4 RETURNDATASIZE DUP2 GT PUSH2 0x1357 JUMPI PUSH2 0x134A DUP2 DUP4 PUSH2 0x4CE JUMP JUMPDEST PUSH2 0x2051 JUMP JUMPDEST PUSH1 0x20 PUSH2 0x2259 SWAP4 PUSH2 0x2249 PUSH1 0x1 PUSH2 0xE36 JUMP JUMPDEST SWAP1 PUSH2 0x206C PUSH2 0x1F58 PUSH1 0x1 DUP11 ADD PUSH2 0x901 JUMP JUMPDEST SUB SWAP3 GAS CALL SWAP2 DUP3 ISZERO PUSH2 0x135E JUMPI PUSH2 0x228C SWAP4 PUSH1 0x20 SWAP4 PUSH2 0x22BD JUMPI JUMPDEST POP PUSH2 0x227B PUSH1 0x1 PUSH2 0xE36 JUMP JUMPDEST PUSH1 0x0 PUSH2 0x2121 PUSH2 0x1F58 PUSH1 0x2 DUP11 ADD PUSH2 0x901 JUMP JUMPDEST SUB SWAP3 GAS CALL DUP1 ISZERO PUSH2 0x135E JUMPI PUSH2 0x22A1 JUMPI JUMPDEST POP PUSH2 0x2156 JUMP JUMPDEST PUSH2 0x22B8 SWAP1 PUSH1 0x20 RETURNDATASIZE DUP2 GT PUSH2 0x1357 JUMPI PUSH2 0x134A DUP2 DUP4 PUSH2 0x4CE JUMP JUMPDEST PUSH2 0x229B JUMP JUMPDEST PUSH2 0x22D3 SWAP1 DUP5 RETURNDATASIZE DUP2 GT PUSH2 0x1357 JUMPI PUSH2 0x134A DUP2 DUP4 PUSH2 0x4CE JUMP JUMPDEST PUSH2 0x2270 JUMP JUMPDEST PUSH2 0x22EF SWAP1 PUSH1 0x20 RETURNDATASIZE DUP2 GT PUSH2 0x1357 JUMPI PUSH2 0x134A DUP2 DUP4 PUSH2 0x4CE JUMP JUMPDEST PUSH2 0x1FDB JUMP JUMPDEST PUSH2 0x230B SWAP1 PUSH1 0x20 RETURNDATASIZE DUP2 GT PUSH2 0x1357 JUMPI PUSH2 0x134A DUP2 DUP4 PUSH2 0x4CE JUMP JUMPDEST PUSH2 0x1FA8 JUMP JUMPDEST SWAP1 PUSH2 0x242 SWAP3 SWAP2 PUSH2 0x1B93 JUMP JUMPDEST PUSH2 0x258 SWAP1 PUSH2 0x4F4 JUMP JUMPDEST PUSH2 0x232E PUSH1 0x4 PUSH2 0xE36 JUMP JUMPDEST SWAP1 PUSH2 0x2339 PUSH1 0x7 PUSH2 0x901 JUMP JUMPDEST SWAP1 PUSH2 0x2344 PUSH1 0x8 PUSH2 0x901 JUMP JUMPDEST SWAP2 PUSH2 0x234F PUSH1 0x9 PUSH2 0x901 JUMP JUMPDEST SWAP3 PUSH2 0x235A PUSH1 0xA PUSH2 0x901 JUMP JUMPDEST SWAP3 PUSH2 0x2365 PUSH1 0xC PUSH2 0x231B JUMP JUMPDEST SWAP5 PUSH2 0x2370 PUSH1 0xD PUSH2 0x231B JUMP JUMPDEST SWAP5 PUSH2 0x237B PUSH1 0xE PUSH2 0x914 JUMP JUMPDEST SWAP7 PUSH2 0x2385 ADDRESS PUSH2 0x5E1 JUMP JUMPDEST BALANCE SWAP7 PUSH2 0x2391 PUSH1 0xF PUSH2 0x231B JUMP JUMPDEST SWAP9 PUSH2 0x239C PUSH1 0x10 PUSH2 0x231B JUMP JUMPDEST SWAP9 PUSH2 0x23A7 PUSH1 0x11 PUSH2 0x231B JUMP JUMPDEST SWAP11 PUSH2 0x23B2 PUSH1 0x12 PUSH2 0x231B JUMP JUMPDEST SWAP11 PUSH2 0x23BD PUSH1 0x5 PUSH2 0xE36 JUMP JUMPDEST SWAP13 PUSH2 0x23C8 PUSH1 0x6 PUSH2 0xE36 JUMP JUMPDEST SWAP13 PUSH2 0x23D3 PUSH1 0xB PUSH2 0x901 JUMP JUMPDEST SWAP11 JUMP JUMPDEST PUSH2 0x258 PUSH2 0x23ED SWAP2 PUSH2 0x23E5 PUSH1 0x60 SWAP1 JUMP JUMPDEST POP PUSH1 0x15 PUSH2 0x8F0 JUMP JUMPDEST SWAP1 PUSH2 0x23F8 PUSH1 0xB PUSH2 0x901 JUMP JUMPDEST SWAP1 PUSH2 0x2402 DUP4 PUSH2 0x231B JUMP JUMPDEST SWAP3 PUSH2 0x240F PUSH1 0x1 DUP3 ADD PUSH2 0x901 JUMP JUMPDEST SWAP3 PUSH2 0x241C PUSH1 0x2 DUP4 ADD PUSH2 0x901 JUMP JUMPDEST SWAP3 PUSH1 0x5 PUSH2 0x242B PUSH1 0x3 DUP6 ADD PUSH2 0x901 JUMP JUMPDEST SWAP4 ADD SWAP1 PUSH2 0x258 PUSH2 0x243A DUP4 PUSH2 0x914 JUMP JUMPDEST SWAP3 PUSH2 0x92A JUMP INVALID POP PUSH19 0x6F6A65637420636F6E747261637420646F6573 KECCAK256 PUSH15 0x6F7420686176652065A26469706673 PC 0x22 SLT KECCAK256 0xDA 0x22 0xE9 PUSH11 0xC77F8F2326CBE92B877733 0x24 0xAC LOG2 MSTORE8 0xEB 0xCA 0xE9 0x5D 0xCD 0x2D 0xAC PUSH32 0xA1E39387DA64736F6C63430008120033A26469706673582212207DD2B9BB7082 PUSH21 0x2D82B6D76A9E6E149BE6F40CC35D2B4F3F42889A8 0x2E DUP10 DUP6 SHR PUSH5 0x736F6C6343 STOP ADDMOD SLT STOP CALLER "},"methodIdentifiers":{"acceptedTokens(address)":"82dc4a05","addAcceptedContributionToken(address)":"a3df7779","addRewardTokenAddress(address)":"606266f5","addRewardTokenTier(address,uint256[2][4])":"0e345a16","buildPointAddress()":"df4f28ff","contribute(address,address,uint256)":"8d472709","createProject(uint256,uint256,string,string,string,string,string,string,string,address,address)":"8e4182df","emergencyWithdrawBNB()":"f26b854f","emergencyWithdrawERC20(address)":"40c442de","getContributedProject()":"773bbb17","owner()":"8da5cb5b","removeAcceptedContributionToken(address)":"9dd2764a","removeRewardTokenAddress(uint256)":"43746a37","renounceOwnership()":"715018a6","returnAllProjects()":"85b6e28e","rewardTokenAddresses(uint256)":"7b2d9b2c","rewardTokensTiers(address,uint256,uint256)":"57568eca","rewards(address,uint256)":"b933ceac","setBuildPointAddress(address)":"ac0946d9","showRewardUser(address)":"bb7252d8","showTotalRewardUser(address)":"945bbdcd","totalRewards(address,uint256)":"89f7d664","transferOwnership(address)":"f2fde38b","withdrawUserRewards()":"b661e0b2"}}}}}