{"contracts/Project.sol":{"Project":{"abi":[{"inputs":[{"internalType":"address","name":"_owner","type":"address"},{"internalType":"address","name":"_creator","type":"address"},{"internalType":"address","name":"_masterContract","type":"address"},{"internalType":"address","name":"_usdt","type":"address"},{"internalType":"address","name":"_usdc","type":"address"},{"internalType":"uint256","name":"_deadline","type":"uint256"},{"internalType":"uint256","name":"_targetContribution","type":"uint256"},{"internalType":"string","name":"_projectTitle","type":"string"},{"internalType":"string","name":"_projectDes","type":"string"},{"internalType":"string","name":"_websiteUrl","type":"string"},{"internalType":"string","name":"_socialUrl","type":"string"},{"internalType":"string","name":"_githubUrl","type":"string"},{"internalType":"string","name":"_projectCoverUrl","type":"string"},{"internalType":"string","name":"_filterTags","type":"string"}],"stateMutability":"nonpayable","type":"constructor"},{"anonymous":false,"inputs":[{"indexed":false,"internalType":"uint256","name":"requestId","type":"uint256"},{"indexed":false,"internalType":"string","name":"description","type":"string"},{"indexed":false,"internalType":"uint256","name":"amountUSDT","type":"uint256"},{"indexed":false,"internalType":"uint256","name":"amountUSDC","type":"uint256"},{"indexed":false,"internalType":"uint256","name":"noOfVotes","type":"uint256"},{"indexed":false,"internalType":"bool","name":"isCompleted","type":"bool"},{"indexed":false,"internalType":"address","name":"reciptent","type":"address"}],"name":"AmountWithdrawSuccessful","type":"event"},{"anonymous":false,"inputs":[{"indexed":false,"internalType":"address","name":"contributor","type":"address"},{"indexed":false,"internalType":"uint256","name":"amount","type":"uint256"},{"indexed":false,"internalType":"uint256","name":"currentTotal","type":"uint256"}],"name":"FundingReceived","type":"event"},{"anonymous":false,"inputs":[{"indexed":false,"internalType":"uint256","name":"requestId","type":"uint256"},{"indexed":false,"internalType":"string","name":"description","type":"string"},{"indexed":false,"internalType":"uint256","name":"amountUSDT","type":"uint256"},{"indexed":false,"internalType":"uint256","name":"amountUSDC","type":"uint256"},{"indexed":false,"internalType":"uint256","name":"noOfVotes","type":"uint256"},{"indexed":false,"internalType":"bool","name":"isCompleted","type":"bool"},{"indexed":false,"internalType":"address","name":"reciptent","type":"address"}],"name":"WithdrawRequestCreated","type":"event"},{"anonymous":false,"inputs":[{"indexed":false,"internalType":"address","name":"voter","type":"address"},{"indexed":false,"internalType":"uint256","name":"totalVote","type":"uint256"}],"name":"WithdrawVote","type":"event"},{"inputs":[],"name":"completeAt","outputs":[{"internalType":"uint256","name":"","type":"uint256"}],"stateMutability":"view","type":"function"},{"inputs":[{"internalType":"address","name":"_contributor","type":"address"},{"internalType":"uint256","name":"amount","type":"uint256"},{"internalType":"contract IERC20","name":"tokenAddress","type":"address"}],"name":"contribute","outputs":[],"stateMutability":"nonpayable","type":"function"},{"inputs":[{"internalType":"address","name":"","type":"address"}],"name":"contributiors","outputs":[{"internalType":"uint256","name":"","type":"uint256"}],"stateMutability":"view","type":"function"},{"inputs":[{"internalType":"string","name":"_description","type":"string"},{"internalType":"address payable","name":"_reciptent","type":"address"},{"internalType":"uint256","name":"_amountUSDT","type":"uint256"},{"internalType":"uint256","name":"_amountUSDC","type":"uint256"},{"internalType":"uint256","name":"_requestId","type":"uint256"}],"name":"createWithdrawRequest","outputs":[],"stateMutability":"nonpayable","type":"function"},{"inputs":[],"name":"creator","outputs":[{"internalType":"address payable","name":"","type":"address"}],"stateMutability":"view","type":"function"},{"inputs":[],"name":"deadline","outputs":[{"internalType":"uint256","name":"","type":"uint256"}],"stateMutability":"view","type":"function"},{"inputs":[],"name":"developer","outputs":[{"internalType":"address payable","name":"","type":"address"}],"stateMutability":"view","type":"function"},{"inputs":[],"name":"filterTags","outputs":[{"internalType":"string","name":"","type":"string"}],"stateMutability":"view","type":"function"},{"inputs":[],"name":"getContractBNBBalance","outputs":[{"internalType":"uint256","name":"","type":"uint256"}],"stateMutability":"view","type":"function"},{"inputs":[{"internalType":"contract IERC20","name":"tokenAddress","type":"address"}],"name":"getContractBalance","outputs":[{"internalType":"uint256","name":"","type":"uint256"}],"stateMutability":"view","type":"function"},{"inputs":[],"name":"getProjectDetails","outputs":[{"internalType":"address payable","name":"projectStarter","type":"address"},{"internalType":"address payable","name":"usdtA","type":"address"},{"internalType":"address payable","name":"usdcA","type":"address"},{"internalType":"uint256","name":"projectDeadline","type":"uint256"},{"internalType":"uint256","name":"goalAmount","type":"uint256"},{"internalType":"uint256","name":"noOfContri","type":"uint256"},{"internalType":"uint256","name":"completedTime","type":"uint256"},{"internalType":"uint256","name":"currentAmount","type":"uint256"},{"internalType":"string","name":"title","type":"string"},{"internalType":"string","name":"desc","type":"string"},{"internalType":"enum Project.State","name":"currentState","type":"uint8"},{"internalType":"uint256","name":"balance","type":"uint256"},{"internalType":"string","name":"website","type":"string"},{"internalType":"string","name":"social","type":"string"},{"internalType":"string","name":"github","type":"string"},{"internalType":"string","name":"projectCover","type":"string"}],"stateMutability":"view","type":"function"},{"inputs":[],"name":"githubUrl","outputs":[{"internalType":"string","name":"","type":"string"}],"stateMutability":"view","type":"function"},{"inputs":[],"name":"isRevealed","outputs":[{"internalType":"bool","name":"","type":"bool"}],"stateMutability":"view","type":"function"},{"inputs":[],"name":"isVerified","outputs":[{"internalType":"bool","name":"","type":"bool"}],"stateMutability":"view","type":"function"},{"inputs":[],"name":"noOfContributers","outputs":[{"internalType":"uint256","name":"","type":"uint256"}],"stateMutability":"view","type":"function"},{"inputs":[],"name":"numOfWithdrawRequests","outputs":[{"internalType":"uint256","name":"","type":"uint256"}],"stateMutability":"view","type":"function"},{"inputs":[],"name":"projectCoverUrl","outputs":[{"internalType":"string","name":"","type":"string"}],"stateMutability":"view","type":"function"},{"inputs":[],"name":"projectDes","outputs":[{"internalType":"string","name":"","type":"string"}],"stateMutability":"view","type":"function"},{"inputs":[],"name":"projectTitle","outputs":[{"internalType":"string","name":"","type":"string"}],"stateMutability":"view","type":"function"},{"inputs":[],"name":"raisedAmount","outputs":[{"internalType":"uint256","name":"","type":"uint256"}],"stateMutability":"view","type":"function"},{"inputs":[],"name":"requestRefund","outputs":[{"internalType":"bool","name":"","type":"bool"}],"stateMutability":"nonpayable","type":"function"},{"inputs":[],"name":"royaltyGraceExpiry","outputs":[{"internalType":"uint256","name":"","type":"uint256"}],"stateMutability":"view","type":"function"},{"inputs":[{"internalType":"uint256","name":"unixTs","type":"uint256"}],"name":"setRoyaltyGracePeriod","outputs":[],"stateMutability":"nonpayable","type":"function"},{"inputs":[{"internalType":"bool","name":"verified","type":"bool"}],"name":"setVerification","outputs":[],"stateMutability":"nonpayable","type":"function"},{"inputs":[{"internalType":"bool","name":"isVisible","type":"bool"}],"name":"setVisibility","outputs":[],"stateMutability":"nonpayable","type":"function"},{"inputs":[{"internalType":"uint256","name":"_requestId","type":"uint256"}],"name":"showDetailOfWR","outputs":[{"internalType":"string","name":"description","type":"string"},{"internalType":"uint256","name":"amountUSDT","type":"uint256"},{"internalType":"uint256","name":"amountUSDC","type":"uint256"},{"internalType":"uint256","name":"noOfVotes","type":"uint256"},{"internalType":"uint256","name":"contributors","type":"uint256"},{"internalType":"bool","name":"isCompleted","type":"bool"},{"internalType":"address payable","name":"reciptent","type":"address"}],"stateMutability":"view","type":"function"},{"inputs":[],"name":"socialUrl","outputs":[{"internalType":"string","name":"","type":"string"}],"stateMutability":"view","type":"function"},{"inputs":[],"name":"state","outputs":[{"internalType":"enum Project.State","name":"","type":"uint8"}],"stateMutability":"view","type":"function"},{"inputs":[],"name":"targetContribution","outputs":[{"internalType":"uint256","name":"","type":"uint256"}],"stateMutability":"view","type":"function"},{"inputs":[{"internalType":"uint256","name":"_requestId","type":"uint256"}],"name":"voteWithdrawRequest","outputs":[],"stateMutability":"nonpayable","type":"function"},{"inputs":[],"name":"websiteUrl","outputs":[{"internalType":"string","name":"","type":"string"}],"stateMutability":"view","type":"function"},{"inputs":[{"internalType":"uint256","name":"_requestId","type":"uint256"},{"internalType":"contract IERC20","name":"_usdt","type":"address"},{"internalType":"contract IERC20","name":"_usdc","type":"address"}],"name":"withdrawRequestedAmount","outputs":[],"stateMutability":"nonpayable","type":"function"},{"inputs":[{"internalType":"uint256","name":"","type":"uint256"}],"name":"withdrawRequests","outputs":[{"internalType":"string","name":"description","type":"string"},{"internalType":"uint256","name":"amountUSDT","type":"uint256"},{"internalType":"uint256","name":"amountUSDC","type":"uint256"},{"internalType":"uint256","name":"noOfVotes","type":"uint256"},{"internalType":"bool","name":"isCompleted","type":"bool"},{"internalType":"address payable","name":"reciptent","type":"address"}],"stateMutability":"view","type":"function"}],"evm":{"bytecode":{"linkReferences":{},"object":"60806040523462000043576200003162000018620002e7565b9c9b909b9a919a99929998939897949796959662000726565b60405161249662000c8b823961249690f35b600080fd5b634e487b7160e01b600052604160045260246000fd5b90601f01601f191681019081106001600160401b038211176200008057604052565b62000048565b906200009d6200009560405190565b92836200005e565b565b6001600160a01b031690565b90565b620000b9816200009f565b036200004357565b905051906200009d82620000ae565b80620000b9565b905051906200009d82620000d0565b6001600160401b0381116200008057602090601f01601f19160190565b0190565b60005b8381106200011b5750506000910152565b81810151838201526020016200010a565b90929192620001456200013f82620000e6565b62000086565b9381855260208501908284011162000043576200009d9262000107565b9080601f8301121562000043578151620000ab926020016200012c565b9190916101c08184031262000043576200019a8382620000c1565b92620001aa8160208401620000c1565b92604090620001bc83838601620000c1565b93620001cc8460608301620000c1565b93620001dc8160808401620000c1565b93620001ec8260a08501620000d7565b93620001fc8360c08601620000d7565b9360e0810151600180851b0381116200004357846200021d91830162000162565b93610100820151600180861b0381116200004357816200023f91840162000162565b93610120830151600180831b0381116200004357826200026191850162000162565b93610140840151600180841b0381116200004357836200028391860162000162565b93610160810151600180851b038111620000435784620002a591830162000162565b93610180820151600180861b038111620000435781620002c791840162000162565b936001806101a0850151921b0381116200004357620000ab920162000162565b6200030a6200312180380380620002fe8162000086565b9283398101906200017f565b909192939495969798999a9b9c9d565b620000ab906200009f906001600160a01b031682565b620000ab906200031a565b620000ab9062000330565b906001600160a01b03905b9181191691161790565b906200036f620000ab62000377926200033b565b825462000346565b9055565b906000199062000351565b620000ab620000ab620000ab9290565b90620003aa620000ab620003779262000386565b82546200037b565b9060ff9062000351565b634e487b7160e01b600052602160045260246000fd5b60031115620003dd57565b620003bc565b906200009d82620003d2565b620000ab90620003e3565b906200040e620000ab6200037792620003ef565b8254620003b2565b9061ff009060081b62000351565b9062000437620000ab6200037792151590565b825462000416565b9062ff00009060101b62000351565b9062000461620000ab6200037792151590565b82546200043f565b634e487b7160e01b600052602260045260246000fd5b9060016002830492168015620004a2575b60208310146200049c57565b62000469565b91607f169162000490565b9160001960089290920291821b911b62000351565b9190620004d7620000ab620003779362000386565b908354620004ad565b6200009d91600091620004c2565b818110620004fa575050565b806200050a6000600193620004e0565b01620004ee565b9190601f81116200052157505050565b620005356200009d93600052602060002090565b906020601f84018190048301931062000559575b6020601f909101040190620004ee565b909150819062000549565b9060001960089091021c191690565b816200057f9162000564565b906002021790565b9062000591815190565b906001600160401b0382116200008057620005b982620005b285546200047f565b8562000511565b602090601f8311600114620005ec5762000377929160009183620005e0575b505062000573565b015190503880620005d8565b601f198316916200060285600052602060002090565b9260005b818110620006465750916002939185600196941062000629575b50505002019055565b6200063b910151601f84169062000564565b905538808062000620565b9193602060018192878701518155019501920162000606565b906200009d9162000587565b801515620000b9565b905051906200009d826200066b565b906020828203126200004357620000ab9162000674565b620006a5906200009f565b9052565b620006a59062000386565b9160206200009d929493620006d2604082019660008301906200069a565b0190620006a9565b6040513d6000823e3d90fd5b620000ab906200009f565b620000ab9054620006e6565b620006a5906200033b565b9160206200009d929493620006d260408201966000830190620006fd565b9a959099949c96919b97929893987375bf6c63f2941ed31a908b976b5e39954561517b62000754906200033b565b620007619060026200035b565b6200077162bc614e600362000396565b6000809d6200078282600e620003fa565b6200078f82600e62000424565b6200079c82600e6200044e565b620007a982601662000396565b8d620007b58b62000c26565b620007c0906200033b565b620007cd9060016200035b565b620007d88d6200033b565b620007e59060046200035b565b620007f0906200033b565b620007fb916200035b565b62000806906200033b565b98620008148a60056200035b565b6200081f906200033b565b9c6200082d8e60066200035b565b6200083a90600762000396565b6200084790600862000396565b6200085490600c6200065f565b6200086190600d6200065f565b6200086c8962000386565b6200087990600a62000396565b6200088690600f6200065f565b620008939060106200065f565b620008a09060116200065f565b620008ad9060136200065f565b620008ba9060126200065f565b620008c5906200033b565b9063095ea7b392600160811b95620008dc60405190565b90620008e88660e01b90565b8252848280620008fd8b8860048401620006b4565b03818a5a94602095f191821562000af057620009296020928a92620009509562000bba575b506200033b565b946200093460405190565b9384928392620009448b60e01b90565b845260048401620006b4565b038189875af1801562000af05762000b99575b50604051620009728560e01b90565b815260208180620009888a8660048401620006b4565b038189885af1801562000af057620009b992602092899262000b79575b506040519384928392620009448a60e01b90565b038188865af1801562000af05762000b58575b50620009ff602086620009e06002620006f1565b6040519384928392620009f38a60e01b90565b84526004840162000708565b038188875af1801562000af05762000b37575b5062000a26602086620009e06002620006f1565b038188865af1801562000af05762000b16575b5062000a45306200033b565b91602062000a5260405190565b809262000a5f8760e01b90565b825281888162000a748c8a60048401620006b4565b03925af1801562000af0576020946200094492879262000af6575b5062000aab62000a9e60405190565b9889968795869460e01b90565b03925af190811562000af0575062000ac05750565b62000ae59060203d811162000ae8575b62000adc81836200005e565b81019062000683565b50565b503d62000ad0565b620006da565b62000b1090873d811162000ae85762000adc81836200005e565b62000a8f565b62000b319060203d811162000ae85762000adc81836200005e565b62000a39565b62000b529060203d811162000ae85762000adc81836200005e565b62000a12565b62000b739060203d811162000ae85762000adc81836200005e565b620009cc565b62000b9390843d811162000ae85762000adc81836200005e565b620009a5565b62000bb49060203d811162000ae85762000adc81836200005e565b62000963565b62000bd490853d811162000ae85762000adc81836200005e565b62000922565b62000bff62000c09602093620001039362000bf3815190565b80835293849260200190565b9586910162000107565b601f01601f191690565b6020808252620000ab9291019062000bda565b62000c5762000c676200009d9262000c3d60405190565b63104c13eb60e21b60208201529283916024830162000c13565b602082018103825203826200005e565b6000809162000c7e6a636f6e736f6c652e6c6f6790565b602082519201905afa5056fe60a0604052600436101561001257600080fd5b60003560e01c80630203d0021461022257806302d05d3f1461021d57806303c29d581461021857806307d94e4a146102135780630a7713701461020e5780630add6b731461020957806318aa9f1e1461020457806324274ee9146101ff578063263a58aa146101fa57806328c30c07146101f557806329dcb0cf146101f057806343ab265f146101eb5780634c4cea5a146101e65780634cbc1553146101e15780634e695a37146101dc57806354214f69146101d75780635eb32936146101d257806380007e83146101cd578063992a7dfb146101c8578063a278a485146101c3578063abb5ca09146101be578063b40141bf146101b9578063b82c86d6146101b4578063c19d93fb146101af578063c3e20c9f146101aa578063c59ee1dc146101a5578063ca4b208b146101a0578063d17075511461019b578063d5cef13314610196578063d688cf5314610191578063d8abe8be1461018c578063e9d1edde146101875763ff3a9c7e0361022757610de7565b610cf8565b610cdc565b610be0565b610bc5565b610baa565b610b83565b610b5c565b610b35565b610b02565b610a8a565b610a63565b610a3c565b610a15565b6109d5565b6108c8565b6108a1565b610868565b61082a565b610811565b6107cf565b6107a8565b610779565b610755565b610711565b6106ea565b6106c3565b610699565b61062f565b61056f565b610548565b6103ad565b61032f565b600080fd5b805b0361022757565b905035906102428261022c565b565b906020828203126102275761025891610235565b90565b60005b83811061026e5750506000910152565b818101518382015260200161025e565b61029f6102a86020936102b293610293815190565b80835293849260200190565b9586910161025b565b601f01601f191690565b0190565b9052565b6001600160a01b031690565b6102b6906102ba565b926103289298979561031860c09661031161031f9461030a6103026102429d9860e08c01908c600081840391015261027e565b9e60208b0152565b6040890152565b6060870152565b6080850152565b151560a0830152565b01906102c6565b346102275761036361034a610345366004610244565b6123d6565b9361035a97959793919360405190565b978897886102cf565b0390f35b600091031261022757565b610258916008021c6001600160a01b031690565b906102589154610372565b61025860006004610386565b60208101929161024291906102c6565b34610227576103bd366004610367565b6103636103c8610391565b6040519182918261039d565b634e487b7160e01b600052600060045260246000fd5b634e487b7160e01b600052602260045260246000fd5b9060016002830492168015610420575b602083101461041b57565b6103ea565b91607f1691610410565b8054600093929161044761043d83610400565b8085529360200190565b9160018116908115610499575060011461046057505050565b6104739192939450600052602060002090565b916000925b8184106104855750500190565b805484840152602090930192600101610478565b92949550505060ff1916825215156020020190565b906102589161042a565b634e487b7160e01b600052604160045260246000fd5b90601f01601f191681019081106001600160401b038211176104ef57604052565b6104b8565b9061024261050e9261050560405190565b938480926104ae565b03836104ce565b9060001061052657610258906104f4565b6103d4565b6102586000600d610515565b60208082526102589291019061027e565b3461022757610558366004610367565b61036361056361052b565b60405191829182610537565b346102275761057f366004610367565b61036361058a61143a565b6040519182918290815260200190565b61022e816102ba565b905035906102428261059a565b9060208282031261022757610258916105a3565b610258906102ba906001600160a01b031682565b610258906105c4565b610258906105d8565b906105f4906105e1565b600052602052604060002090565b610258916008021c81565b906102589154610602565b6102589061062a6014916000926105ea565b61060d565b346102275761036361058a6106453660046105b0565b610618565b610258906102ba565b61022e8161064a565b9050359061024282610653565b9091606082840312610227576102586106828484610235565b93610690816020860161065c565b9360400161065c565b34610227576106b26106ac366004610669565b91612310565b604051005b61025860006011610515565b34610227576106d3366004610367565b6103636105636106b7565b6102586000600b61060d565b34610227576106fa366004610367565b61036361058a6106de565b6102586000600361060d565b3461022757610721366004610367565b61036361058a610705565b80151561022e565b905035906102428261072c565b906020828203126102275761025891610734565b34610227576106b2610768366004610741565b610f64565b6102586000600761060d565b3461022757610789366004610367565b61036361058a61076d565b90602082820312610227576102589161065c565b346102275761036361058a6107be366004610794565b611447565b6102586000600961060d565b34610227576107df366004610367565b61036361058a6107c3565b90916060828403126102275761025861080384846105a3565b936106908160208601610235565b34610227576106b26108243660046107ea565b916113b1565b34610227576106b261083d366004610244565b611abf565b610258916008021c5b60ff1690565b906102589154610842565b6102586001600e610851565b3461022757610878366004610367565b61036361088361085c565b60405191829182901515815260200190565b61025860006012610515565b34610227576108b1366004610367565b610363610563610895565b6102586002600e610851565b34610227576108d8366004610367565b6103636108836108bc565b6102586102586102589290565b906105f4906108e3565b6102589081565b61025890546108fa565b6102589061084b565b610258905461090b565b6102589060081c6102ba565b610258905461091e565b61093f9060156108f0565b90610949826104f4565b9161095660018201610901565b9161096360028301610901565b9161097060038201610901565b916102586005610981818501610914565b930161092a565b91969593946109cc610242966109c560a0966109be6109b66103289760c08a01908a820360008c015261027e565b9c6020890152565b6040870152565b6060850152565b15156080830152565b34610227576103636109f06109eb366004610244565b610934565b92610a0096949692919260405190565b96879687610988565b61025860006013610515565b3461022757610a25366004610367565b610363610563610a09565b6102586000600f610515565b3461022757610a4c366004610367565b610363610563610a30565b6102586000601661060d565b3461022757610a73366004610367565b61036361058a610a57565b6102586000600861060d565b3461022757610a9a366004610367565b61036361058a610a7e565b6102586000600e610851565b634e487b7160e01b600052602160045260246000fd5b60031115610ad157565b610ab1565b9061024282610ac7565b61025890610ad6565b6102b690610ae0565b6020810192916102429190610ae9565b3461022757610b12366004610367565b610363610b1d610aa5565b60405191829182610af2565b6102586000600c610515565b3461022757610b45366004610367565b610363610563610b29565b6102586000600a61060d565b3461022757610b6c366004610367565b61036361058a610b50565b61025860006002610386565b3461022757610b93366004610367565b6103636103c8610b77565b61025860006010610515565b3461022757610bba366004610367565b610363610563610b9e565b3461022757610bd5366004610367565b610363610883611663565b34610227576106b2610bf3366004610244565b610f0f565b90610242610c0560405190565b92836104ce565b6001600160401b0381116104ef57602090601f01601f19160190565b90826000939282370152565b90929192610c49610c4482610c0c565b610bf8565b938185526020850190828401116102275761024292610c28565b9080601f830112156102275781602061025893359101610c34565b919060a0838203126102275782356001600160401b0381116102275781610ca6918501610c63565b92610cb482602083016105a3565b92610258610cc58460408501610235565b93610cd38160608601610235565b93608001610235565b34610227576106b2610cef366004610c7e565b93929092611a0b565b34610227576106b2610d0b366004610741565b610fba565b9e9d9c9b999897959391928f9197959361020083019860008401610d33916102c6565b60208301610d40916102c6565b60408201610d4d916102c6565b6060015260808d015260a08c015260c08b015260e08a01528881036101008a0152610d779161027e565b878103610120890152610d899161027e565b916101408701610d9891610ae9565b610160860152848103610180860152610db09161027e565b8381036101a0850152610dc29161027e565b8281036101c0840152610dd49161027e565b90808203906101e001526102589161027e565b3461022757610df7366004610367565b610e2c610e02612324565b9e610e219e919e9d929d9c939c9b949b9a959a99969998979860405190565b608052608051610d10565b6080519003608051f35b610258905461064a565b15610e4757565b60405162461bcd60e51b815260206004820152603660248201527f596f7520646f6e7420686176652061646d696e2061636365737320746f20706560448201527572666f726d2074686973206f7065726174696f6e202160501b6064820152608490fd5b61024290610ed433610ece610ec8610ec36001610e36565b6105e1565b916102ba565b14610e40565b610f04565b90600019905b9181191691161790565b90610ef9610258610f00926108e3565b8254610ed9565b9055565b610242906003610ee9565b61024290610eab565b61024290610f3033610ece610ec8610ec36001610e36565b610f59565b9061ff009060081b610edf565b90610f52610258610f0092151590565b8254610f35565b61024290600e610f42565b61024290610f18565b61024290610f8533610ece610ec8610ec36001610e36565b610faf565b9062ff00009060101b610edf565b90610fa8610258610f0092151590565b8254610f8a565b61024290600e610f98565b61024290610f6d565b6102589060101c61084b565b6102589054610fc3565b15610fe057565b60405162461bcd60e51b8152602060048201526018602482015277141c9bda9958dd081b5d5cdd081899481d995c9a599a595960421b6044820152606490fd5b906102429291611045611033600e610fcf565b61103f60015b91151590565b14610fd9565b6110bb565b1561105157565b60405162461bcd60e51b815260206004820152603c60248201527f596f7520646f206e6f74206861766520746865206d617374657220726967687460448201527b7320746f20706572666f726d2074686973206f7065726174696f6e2160201b6064820152608490fd5b9061024292916110db336110d5610ec8610ec36000610e36565b1461104a565b6111dc565b634e487b7160e01b600052601160045260246000fd5b60001981146111055760010190565b6110e0565b9190820180921161110557565b905051906102428261022c565b906020828203126102275761025891611117565b916020610242929493610328604082019660008301906102c6565b6040513d6000823e3d90fd5b1561022757565b905051906102428261072c565b906020828203126102275761025891611166565b6040906111b161024294969593966111a7606084019860008501906102c6565b60208301906102c6565b0152565b6040906111b161024294969593966111d5606084019860008501906102c6565b6020830152565b9161124a60149161123261121a866111fc6111f782886105ea565b610901565b9560009661121061120c896108e3565b9190565b14611390576105ea565b61122c8661122783610901565b61110a565b90610ee9565b610ec361124385611227600a610901565b600a610ee9565b9063dd62ed3e9161125a306105e1565b61126d61126660405190565b9460e01b90565b845260208480611281848a60048401611138565b0381855afa91821561135e576112a560209387968691611363575b5086111561115f565b6112c7846323b872dd6112d36112ba60405190565b9889968795869460e01b90565b84528c60048501611187565b03925af190811561135e5750611332575b506112ef600a610901565b916113277f5cdc4ab8d637538ead6cc1904d4160343656c8c82bd266635cfd31ac008fffe09361131e60405190565b938493846111b5565b0390a16102426113dc565b6113529060203d8111611357575b61134a81836104ce565b810190611173565b6112e4565b503d611340565b611153565b6113839150853d8111611389575b61137b81836104ce565b810190611124565b3861129c565b503d611371565b6113ac6113a56113a0600b610901565b6110f6565b600b610ee9565b6105ea565b906102429291611020565b9060ff90610edf565b906113d5610258610f0092610ae0565b82546113bc565b6113e6600a610901565b6113f661120c6102586008610901565b10611412576114076002600e6113c5565b610242426009610ee9565b4261142361120c6102586007610901565b1115611407576114356001600e6113c5565b611407565b611443306105e1565b3190565b602061145e61149292611458600090565b506105e1565b6370a0823190611487611470306105e1565b9261147a60405190565b9586948593849360e01b90565b83526004830161039d565b03915afa90811561135e576000916114a8575090565b610258915060203d81116113895761137b81836104ce565b156114c757565b60405162461bcd60e51b815260206004820152600d60248201526c496e76616c696420737461746560981b6044820152606490fd5b1561150357565b60405162461bcd60e51b8152602060048201526015602482015274446561646c696e652068617320706173736564202160581b6044820152606490fd5b6102589061156b600161156561155f611559600e610914565b92610ad6565b91610ad6565b146114c0565b6115854261157f61120c6102586007610901565b106114fc565b6115e5565b1561159157565b60405162461bcd60e51b815260206004820152602660248201527f596f7520646f6e74206861766520616e7920636f6e747269627574656420616d6044820152656f756e74202160d01b6064820152608490fd5b503360146115f66111f783836105ea565b61160e60009161160861120c846108e3565b1161158a565b8080808061161e610ec3886105e1565b61162b6111f789896105ea565b9082821561165a575bf11561135e576116559261164a611650926108e3565b926105ea565b610ee9565b600190565b506108fc611634565b6102586000611540565b1561167457565b60405162461bcd60e51b815260206004820152603860248201527f596f7520646f6e7420686176652063726561746f722061636365737320746f20604482015277706572666f726d2074686973206f7065726174696f6e202160401b6064820152608490fd5b90610242949392916116fc336116f6610ec8610ec36004610e36565b1461166d565b9061024294939291611719600261156561155f611559600e610914565b61172d4261157f61120c6102586007610901565b611966565b9160001960089290920291821b911b610edf565b9190611757610258610f00936108e3565b908354611732565b61024291600091611746565b818110611776575050565b80611784600060019361175f565b0161176b565b9190601f811161179957505050565b6117ab61024293600052602060002090565b906020601f8401819004830193106117cd575b6020601f90910104019061176b565b90915081906117be565b9060001960089091021c191690565b816117f0916117d7565b906002021790565b90611801815190565b906001600160401b0382116104ef576118248261181e8554610400565b8561178a565b602090601f831160011461185257610f00929160009183611847575b50506117e6565b015190503880611840565b601f1983169161186785600052602060002090565b9260005b8181106118a65750916002939185600196941061188c575b50505002019055565b61189c910151601f8416906117d7565b9055388080611883565b9193602060018192878701518155019501920161186b565b90610242916117f8565b906113d5610258610f0092151590565b90610100600160a81b039060081b610edf565b906118fb610258610f00926105e1565b82546118d8565b6102b6906108e3565b6102b6906105e1565b9297969461031f9061195560c09661031161194d6102429b9661195f9861194060e08c019260008d0152565b8a820360208c015261027e565b9c6040890152565b6080850190611902565b019061190b565b92906005611a069295939561197f6102588660156108f0565b9061198a87836118be565b6119978860018401610ee9565b6119a48160028401610ee9565b6119d28460009485946119c26119b9876108e3565b60038301610ee9565b016119cd85826118c8565b6118eb565b7f3009567e0613f3581563a052fea56298aca1363831103cf6f1cbb8bf5ae122f3976119fd60405190565b97889788611914565b0390a1565b90610242949392916116da565b15611a1f57565b60405162461bcd60e51b815260206004820152601b60248201527a4f6e6c7920636f6e7472696275746f722063616e20766f7465202160281b6044820152606490fd5b15611a6957565b60405162461bcd60e51b8152602060048201526013602482015272596f7520616c726561647920766f746564202160681b6044820152606490fd5b9160206102429294936111b1604082019660008301906102c6565b3390611b5c906111f7611b566003611b4a86611b45611b06610258611ae6888560146105ea565b98611aff60009a611af961120c8d6108e3565b11611a18565b60156108f0565b96611b336004890191611b2d611039611b27611b2288876105ea565b610914565b92151590565b14611a62565b611b4060019384926105ea565b6118c8565b6108e3565b93019261122784610901565b82610ee9565b7fa2925e4595bf873fa82c22a1a89809777347023bf2b502d32710157a5eb8199c91611a06611b8a60405190565b92839283611aa4565b906102429291611bad336116f6610ec8610ec36004610e36565b906102429291611bc8600261156561155f611559600e610914565b611bdc4261157f61120c6102586007610901565b611def565b15611be857565b60405162461bcd60e51b815260206004820152601960248201527814995c5d595cdd08185b1c9958591e4818dbdb5c1b195d1959603a1b6044820152606490fd5b634e487b7160e01b600052601260045260246000fd5b8115611c49570490565b611c29565b15611c5557565b60405162461bcd60e51b815260206004820152603660248201527f4174206c656173742032302520636f6e7472696275746f72206e65656420746f604482015275081d9bdd1948199bdc881d1a1a5cc81c995c5d595cdd60521b6064820152608490fd5b15611cc057565b60405162461bcd60e51b815260206004820152603e602482015260008051602061244183398151915260448201527f6e6f75676820555344542062616c616e636520746f20646973627572736500006064820152608490fd5b15611d2057565b60405162461bcd60e51b815260206004820152603e602482015260008051602061244183398151915260448201527f6e6f75676820555344432062616c616e636520746f20646973627572736500006064820152608490fd5b8181029291811591840414171561110557565b6040906111b16102429496959396611dac606084019860008501906102c6565b602083019061190b565b9297969461031f9061031860c09661031161194d6102429b9661195f98611de260e08c019260008d0152565b8a820360208c015261042a565b919091611e006102588260156108f0565b91611e20611e1060058501610914565b611e1a6000611039565b14611be1565b611e2c60038401610901565b90611e5d611e3a600b610901565b92611e5661120c610258600596611e50886108e3565b90611c3f565b1015611c4e565b611e72611e6c60018601610901565b956105e1565b916370a08231611e81306105e1565b96611e8b60405190565b90611e968360e01b90565b825260208280611ea98c6004830161039d565b0381895afa801561135e5761120c611eca91611ed1946000916114a8575090565b1115611cb9565b611ee6611ee060028801610901565b936105e1565b92611efa611ef360405190565b9260e01b90565b825260208280611f0d8b6004830161039d565b0381875afa801561135e5761120c611f2e91611f35946000916114a8575090565b1115611d19565b840194611f966020611f468861092a565b611f72611f62611f5860018b01610901565b611e5060326108e3565b611f6c60316108e3565b90611d79565b90611f7c60405190565b93849283926323b872dd60e01b5b84528760048501611d8c565b03816000885af1801561135e576122f4575b50611fc96020611fb78861092a565b611f72611f62611f5860028b01610901565b03816000875af1801561135e576122d8575b5042611fed61120c6102586003610901565b11612239576120379260206120026001610e36565b61201b61201160018a01610901565b611e5060646108e3565b9061202560405190565b96879283926323b872dd60e01b611f8a565b03816000855af190811561135e576120989460209261221e575b5061205c6002610e36565b9061206c61201160018a01610901565b91600061207860405190565b80988195829461208c6323b872dd60e01b90565b84528960048501611d8c565b03925af192831561135e576120eb93612202575b5060206120b96001610e36565b6120c861201160028901610901565b906120d260405190565b95869283926323b872dd60e01b84528660048501611d8c565b03816000865af191821561135e57612145936020936121e7575b506121106002610e36565b600061212161201160028a01610901565b9361212b60405190565b968795869485936323b872dd60e01b855260048501611d8c565b03925af1801561135e576121cb575b505b611a0660019261216684866118c8565b60008101938082019561219661219060036121896121838b610901565b9a610901565b9501610901565b9161092a565b927f7a5218350187d3ab901ae3c2001a4348ce5a2089ac30ce35d2fc55b53feac2a5976121c260405190565b97889788611db6565b6121e29060203d81116113575761134a81836104ce565b612154565b6121fd90843d81116113575761134a81836104ce565b612105565b6122199060203d81116113575761134a81836104ce565b6120ac565b61223490833d81116113575761134a81836104ce565b612051565b6020612259936122496001610e36565b9061206c611f5860018a01610901565b03925af191821561135e5761228c936020936122bd575b5061227b6001610e36565b6000612121611f5860028a01610901565b03925af1801561135e576122a1575b50612156565b6122b89060203d81116113575761134a81836104ce565b61229b565b6122d390843d81116113575761134a81836104ce565b612270565b6122ef9060203d81116113575761134a81836104ce565b611fdb565b61230b9060203d81116113575761134a81836104ce565b611fa8565b906102429291611b93565b610258906104f4565b61232e6004610e36565b906123396007610901565b906123446008610901565b9161234f6009610901565b9261235a600a610901565b92612365600c61231b565b94612370600d61231b565b9461237b600e610914565b96612385306105e1565b3196612391600f61231b565b9861239c601061231b565b986123a7601161231b565b9a6123b2601261231b565b9a6123bd6005610e36565b9c6123c86006610e36565b9c6123d3600b610901565b9a565b6102586123ed916123e5606090565b5060156108f0565b906123f8600b610901565b906124028361231b565b9261240f60018201610901565b9261241c60028301610901565b92600561242b60038501610901565b93019061025861243a83610914565b9261092a56fe50726f6a65637420636f6e747261637420646f6573206e6f7420686176652065a2646970667358221220da22e96ac77f8f2326cbe92b87773324aca253ebcae95dcd2dac7fa1e39387da64736f6c63430008120033","opcodes":"PUSH1 0x80 PUSH1 0x40 MSTORE CALLVALUE PUSH3 0x43 JUMPI PUSH3 0x31 PUSH3 0x18 PUSH3 0x2E7 JUMP JUMPDEST SWAP13 SWAP12 SWAP1 SWAP12 SWAP11 SWAP2 SWAP11 SWAP10 SWAP3 SWAP10 SWAP9 SWAP4 SWAP9 SWAP8 SWAP5 SWAP8 SWAP7 SWAP6 SWAP7 PUSH3 0x726 JUMP JUMPDEST PUSH1 0x40 MLOAD PUSH2 0x2496 PUSH3 0xC8B DUP3 CODECOPY PUSH2 0x2496 SWAP1 RETURN JUMPDEST PUSH1 0x0 DUP1 REVERT JUMPDEST PUSH4 0x4E487B71 PUSH1 0xE0 SHL PUSH1 0x0 MSTORE PUSH1 0x41 PUSH1 0x4 MSTORE PUSH1 0x24 PUSH1 0x0 REVERT JUMPDEST SWAP1 PUSH1 0x1F ADD PUSH1 0x1F NOT AND DUP2 ADD SWAP1 DUP2 LT PUSH1 0x1 PUSH1 0x1 PUSH1 0x40 SHL SUB DUP3 GT OR PUSH3 0x80 JUMPI PUSH1 0x40 MSTORE JUMP JUMPDEST PUSH3 0x48 JUMP JUMPDEST SWAP1 PUSH3 0x9D PUSH3 0x95 PUSH1 0x40 MLOAD SWAP1 JUMP JUMPDEST SWAP3 DUP4 PUSH3 0x5E JUMP JUMPDEST JUMP JUMPDEST PUSH1 0x1 PUSH1 0x1 PUSH1 0xA0 SHL SUB AND SWAP1 JUMP JUMPDEST SWAP1 JUMP JUMPDEST PUSH3 0xB9 DUP2 PUSH3 0x9F JUMP JUMPDEST SUB PUSH3 0x43 JUMPI JUMP JUMPDEST SWAP1 POP MLOAD SWAP1 PUSH3 0x9D DUP3 PUSH3 0xAE JUMP JUMPDEST DUP1 PUSH3 0xB9 JUMP JUMPDEST SWAP1 POP MLOAD SWAP1 PUSH3 0x9D DUP3 PUSH3 0xD0 JUMP JUMPDEST PUSH1 0x1 PUSH1 0x1 PUSH1 0x40 SHL SUB DUP2 GT PUSH3 0x80 JUMPI PUSH1 0x20 SWAP1 PUSH1 0x1F ADD PUSH1 0x1F NOT AND ADD SWAP1 JUMP JUMPDEST ADD SWAP1 JUMP JUMPDEST PUSH1 0x0 JUMPDEST DUP4 DUP2 LT PUSH3 0x11B JUMPI POP POP PUSH1 0x0 SWAP2 ADD MSTORE JUMP JUMPDEST DUP2 DUP2 ADD MLOAD DUP4 DUP3 ADD MSTORE PUSH1 0x20 ADD PUSH3 0x10A JUMP JUMPDEST SWAP1 SWAP3 SWAP2 SWAP3 PUSH3 0x145 PUSH3 0x13F DUP3 PUSH3 0xE6 JUMP JUMPDEST PUSH3 0x86 JUMP JUMPDEST SWAP4 DUP2 DUP6 MSTORE PUSH1 0x20 DUP6 ADD SWAP1 DUP3 DUP5 ADD GT PUSH3 0x43 JUMPI PUSH3 0x9D SWAP3 PUSH3 0x107 JUMP JUMPDEST SWAP1 DUP1 PUSH1 0x1F DUP4 ADD SLT ISZERO PUSH3 0x43 JUMPI DUP2 MLOAD PUSH3 0xAB SWAP3 PUSH1 0x20 ADD PUSH3 0x12C JUMP JUMPDEST SWAP2 SWAP1 SWAP2 PUSH2 0x1C0 DUP2 DUP5 SUB SLT PUSH3 0x43 JUMPI PUSH3 0x19A DUP4 DUP3 PUSH3 0xC1 JUMP JUMPDEST SWAP3 PUSH3 0x1AA DUP2 PUSH1 0x20 DUP5 ADD PUSH3 0xC1 JUMP JUMPDEST SWAP3 PUSH1 0x40 SWAP1 PUSH3 0x1BC DUP4 DUP4 DUP7 ADD PUSH3 0xC1 JUMP JUMPDEST SWAP4 PUSH3 0x1CC DUP5 PUSH1 0x60 DUP4 ADD PUSH3 0xC1 JUMP JUMPDEST SWAP4 PUSH3 0x1DC DUP2 PUSH1 0x80 DUP5 ADD PUSH3 0xC1 JUMP JUMPDEST SWAP4 PUSH3 0x1EC DUP3 PUSH1 0xA0 DUP6 ADD PUSH3 0xD7 JUMP JUMPDEST SWAP4 PUSH3 0x1FC DUP4 PUSH1 0xC0 DUP7 ADD PUSH3 0xD7 JUMP JUMPDEST SWAP4 PUSH1 0xE0 DUP2 ADD MLOAD PUSH1 0x1 DUP1 DUP6 SHL SUB DUP2 GT PUSH3 0x43 JUMPI DUP5 PUSH3 0x21D SWAP2 DUP4 ADD PUSH3 0x162 JUMP JUMPDEST SWAP4 PUSH2 0x100 DUP3 ADD MLOAD PUSH1 0x1 DUP1 DUP7 SHL SUB DUP2 GT PUSH3 0x43 JUMPI DUP2 PUSH3 0x23F SWAP2 DUP5 ADD PUSH3 0x162 JUMP JUMPDEST SWAP4 PUSH2 0x120 DUP4 ADD MLOAD PUSH1 0x1 DUP1 DUP4 SHL SUB DUP2 GT PUSH3 0x43 JUMPI DUP3 PUSH3 0x261 SWAP2 DUP6 ADD PUSH3 0x162 JUMP JUMPDEST SWAP4 PUSH2 0x140 DUP5 ADD MLOAD PUSH1 0x1 DUP1 DUP5 SHL SUB DUP2 GT PUSH3 0x43 JUMPI DUP4 PUSH3 0x283 SWAP2 DUP7 ADD PUSH3 0x162 JUMP JUMPDEST SWAP4 PUSH2 0x160 DUP2 ADD MLOAD PUSH1 0x1 DUP1 DUP6 SHL SUB DUP2 GT PUSH3 0x43 JUMPI DUP5 PUSH3 0x2A5 SWAP2 DUP4 ADD PUSH3 0x162 JUMP JUMPDEST SWAP4 PUSH2 0x180 DUP3 ADD MLOAD PUSH1 0x1 DUP1 DUP7 SHL SUB DUP2 GT PUSH3 0x43 JUMPI DUP2 PUSH3 0x2C7 SWAP2 DUP5 ADD PUSH3 0x162 JUMP JUMPDEST SWAP4 PUSH1 0x1 DUP1 PUSH2 0x1A0 DUP6 ADD MLOAD SWAP3 SHL SUB DUP2 GT PUSH3 0x43 JUMPI PUSH3 0xAB SWAP3 ADD PUSH3 0x162 JUMP JUMPDEST PUSH3 0x30A PUSH3 0x3121 DUP1 CODESIZE SUB DUP1 PUSH3 0x2FE DUP2 PUSH3 0x86 JUMP JUMPDEST SWAP3 DUP4 CODECOPY DUP2 ADD SWAP1 PUSH3 0x17F JUMP JUMPDEST SWAP1 SWAP2 SWAP3 SWAP4 SWAP5 SWAP6 SWAP7 SWAP8 SWAP9 SWAP10 SWAP11 SWAP12 SWAP13 SWAP14 JUMP JUMPDEST PUSH3 0xAB SWAP1 PUSH3 0x9F SWAP1 PUSH1 0x1 PUSH1 0x1 PUSH1 0xA0 SHL SUB AND DUP3 JUMP JUMPDEST PUSH3 0xAB SWAP1 PUSH3 0x31A JUMP JUMPDEST PUSH3 0xAB SWAP1 PUSH3 0x330 JUMP JUMPDEST SWAP1 PUSH1 0x1 PUSH1 0x1 PUSH1 0xA0 SHL SUB SWAP1 JUMPDEST SWAP2 DUP2 NOT AND SWAP2 AND OR SWAP1 JUMP JUMPDEST SWAP1 PUSH3 0x36F PUSH3 0xAB PUSH3 0x377 SWAP3 PUSH3 0x33B JUMP JUMPDEST DUP3 SLOAD PUSH3 0x346 JUMP JUMPDEST SWAP1 SSTORE JUMP JUMPDEST SWAP1 PUSH1 0x0 NOT SWAP1 PUSH3 0x351 JUMP JUMPDEST PUSH3 0xAB PUSH3 0xAB PUSH3 0xAB SWAP3 SWAP1 JUMP JUMPDEST SWAP1 PUSH3 0x3AA PUSH3 0xAB PUSH3 0x377 SWAP3 PUSH3 0x386 JUMP JUMPDEST DUP3 SLOAD PUSH3 0x37B JUMP JUMPDEST SWAP1 PUSH1 0xFF SWAP1 PUSH3 0x351 JUMP JUMPDEST PUSH4 0x4E487B71 PUSH1 0xE0 SHL PUSH1 0x0 MSTORE PUSH1 0x21 PUSH1 0x4 MSTORE PUSH1 0x24 PUSH1 0x0 REVERT JUMPDEST PUSH1 0x3 GT ISZERO PUSH3 0x3DD JUMPI JUMP JUMPDEST PUSH3 0x3BC JUMP JUMPDEST SWAP1 PUSH3 0x9D DUP3 PUSH3 0x3D2 JUMP JUMPDEST PUSH3 0xAB SWAP1 PUSH3 0x3E3 JUMP JUMPDEST SWAP1 PUSH3 0x40E PUSH3 0xAB PUSH3 0x377 SWAP3 PUSH3 0x3EF JUMP JUMPDEST DUP3 SLOAD PUSH3 0x3B2 JUMP JUMPDEST SWAP1 PUSH2 0xFF00 SWAP1 PUSH1 0x8 SHL PUSH3 0x351 JUMP JUMPDEST SWAP1 PUSH3 0x437 PUSH3 0xAB PUSH3 0x377 SWAP3 ISZERO ISZERO SWAP1 JUMP JUMPDEST DUP3 SLOAD PUSH3 0x416 JUMP JUMPDEST SWAP1 PUSH3 0xFF0000 SWAP1 PUSH1 0x10 SHL PUSH3 0x351 JUMP JUMPDEST SWAP1 PUSH3 0x461 PUSH3 0xAB PUSH3 0x377 SWAP3 ISZERO ISZERO SWAP1 JUMP JUMPDEST DUP3 SLOAD PUSH3 0x43F JUMP JUMPDEST PUSH4 0x4E487B71 PUSH1 0xE0 SHL PUSH1 0x0 MSTORE PUSH1 0x22 PUSH1 0x4 MSTORE PUSH1 0x24 PUSH1 0x0 REVERT JUMPDEST SWAP1 PUSH1 0x1 PUSH1 0x2 DUP4 DIV SWAP3 AND DUP1 ISZERO PUSH3 0x4A2 JUMPI JUMPDEST PUSH1 0x20 DUP4 LT EQ PUSH3 0x49C JUMPI JUMP JUMPDEST PUSH3 0x469 JUMP JUMPDEST SWAP2 PUSH1 0x7F AND SWAP2 PUSH3 0x490 JUMP JUMPDEST SWAP2 PUSH1 0x0 NOT PUSH1 0x8 SWAP3 SWAP1 SWAP3 MUL SWAP2 DUP3 SHL SWAP2 SHL PUSH3 0x351 JUMP JUMPDEST SWAP2 SWAP1 PUSH3 0x4D7 PUSH3 0xAB PUSH3 0x377 SWAP4 PUSH3 0x386 JUMP JUMPDEST SWAP1 DUP4 SLOAD PUSH3 0x4AD JUMP JUMPDEST PUSH3 0x9D SWAP2 PUSH1 0x0 SWAP2 PUSH3 0x4C2 JUMP JUMPDEST DUP2 DUP2 LT PUSH3 0x4FA JUMPI POP POP JUMP JUMPDEST DUP1 PUSH3 0x50A PUSH1 0x0 PUSH1 0x1 SWAP4 PUSH3 0x4E0 JUMP JUMPDEST ADD PUSH3 0x4EE JUMP JUMPDEST SWAP2 SWAP1 PUSH1 0x1F DUP2 GT PUSH3 0x521 JUMPI POP POP POP JUMP JUMPDEST PUSH3 0x535 PUSH3 0x9D SWAP4 PUSH1 0x0 MSTORE PUSH1 0x20 PUSH1 0x0 KECCAK256 SWAP1 JUMP JUMPDEST SWAP1 PUSH1 0x20 PUSH1 0x1F DUP5 ADD DUP2 SWAP1 DIV DUP4 ADD SWAP4 LT PUSH3 0x559 JUMPI JUMPDEST PUSH1 0x20 PUSH1 0x1F SWAP1 SWAP2 ADD DIV ADD SWAP1 PUSH3 0x4EE JUMP JUMPDEST SWAP1 SWAP2 POP DUP2 SWAP1 PUSH3 0x549 JUMP JUMPDEST SWAP1 PUSH1 0x0 NOT PUSH1 0x8 SWAP1 SWAP2 MUL SHR NOT AND SWAP1 JUMP JUMPDEST DUP2 PUSH3 0x57F SWAP2 PUSH3 0x564 JUMP JUMPDEST SWAP1 PUSH1 0x2 MUL OR SWAP1 JUMP JUMPDEST SWAP1 PUSH3 0x591 DUP2 MLOAD SWAP1 JUMP JUMPDEST SWAP1 PUSH1 0x1 PUSH1 0x1 PUSH1 0x40 SHL SUB DUP3 GT PUSH3 0x80 JUMPI PUSH3 0x5B9 DUP3 PUSH3 0x5B2 DUP6 SLOAD PUSH3 0x47F JUMP JUMPDEST DUP6 PUSH3 0x511 JUMP JUMPDEST PUSH1 0x20 SWAP1 PUSH1 0x1F DUP4 GT PUSH1 0x1 EQ PUSH3 0x5EC JUMPI PUSH3 0x377 SWAP3 SWAP2 PUSH1 0x0 SWAP2 DUP4 PUSH3 0x5E0 JUMPI JUMPDEST POP POP PUSH3 0x573 JUMP JUMPDEST ADD MLOAD SWAP1 POP CODESIZE DUP1 PUSH3 0x5D8 JUMP JUMPDEST PUSH1 0x1F NOT DUP4 AND SWAP2 PUSH3 0x602 DUP6 PUSH1 0x0 MSTORE PUSH1 0x20 PUSH1 0x0 KECCAK256 SWAP1 JUMP JUMPDEST SWAP3 PUSH1 0x0 JUMPDEST DUP2 DUP2 LT PUSH3 0x646 JUMPI POP SWAP2 PUSH1 0x2 SWAP4 SWAP2 DUP6 PUSH1 0x1 SWAP7 SWAP5 LT PUSH3 0x629 JUMPI JUMPDEST POP POP POP MUL ADD SWAP1 SSTORE JUMP JUMPDEST PUSH3 0x63B SWAP2 ADD MLOAD PUSH1 0x1F DUP5 AND SWAP1 PUSH3 0x564 JUMP JUMPDEST SWAP1 SSTORE CODESIZE DUP1 DUP1 PUSH3 0x620 JUMP JUMPDEST SWAP2 SWAP4 PUSH1 0x20 PUSH1 0x1 DUP2 SWAP3 DUP8 DUP8 ADD MLOAD DUP2 SSTORE ADD SWAP6 ADD SWAP3 ADD PUSH3 0x606 JUMP JUMPDEST SWAP1 PUSH3 0x9D SWAP2 PUSH3 0x587 JUMP JUMPDEST DUP1 ISZERO ISZERO PUSH3 0xB9 JUMP JUMPDEST SWAP1 POP MLOAD SWAP1 PUSH3 0x9D DUP3 PUSH3 0x66B JUMP JUMPDEST SWAP1 PUSH1 0x20 DUP3 DUP3 SUB SLT PUSH3 0x43 JUMPI PUSH3 0xAB SWAP2 PUSH3 0x674 JUMP JUMPDEST PUSH3 0x6A5 SWAP1 PUSH3 0x9F JUMP JUMPDEST SWAP1 MSTORE JUMP JUMPDEST PUSH3 0x6A5 SWAP1 PUSH3 0x386 JUMP JUMPDEST SWAP2 PUSH1 0x20 PUSH3 0x9D SWAP3 SWAP5 SWAP4 PUSH3 0x6D2 PUSH1 0x40 DUP3 ADD SWAP7 PUSH1 0x0 DUP4 ADD SWAP1 PUSH3 0x69A JUMP JUMPDEST ADD SWAP1 PUSH3 0x6A9 JUMP JUMPDEST PUSH1 0x40 MLOAD RETURNDATASIZE PUSH1 0x0 DUP3 RETURNDATACOPY RETURNDATASIZE SWAP1 REVERT JUMPDEST PUSH3 0xAB SWAP1 PUSH3 0x9F JUMP JUMPDEST PUSH3 0xAB SWAP1 SLOAD PUSH3 0x6E6 JUMP JUMPDEST PUSH3 0x6A5 SWAP1 PUSH3 0x33B JUMP JUMPDEST SWAP2 PUSH1 0x20 PUSH3 0x9D SWAP3 SWAP5 SWAP4 PUSH3 0x6D2 PUSH1 0x40 DUP3 ADD SWAP7 PUSH1 0x0 DUP4 ADD SWAP1 PUSH3 0x6FD JUMP JUMPDEST SWAP11 SWAP6 SWAP1 SWAP10 SWAP5 SWAP13 SWAP7 SWAP2 SWAP12 SWAP8 SWAP3 SWAP9 SWAP4 SWAP9 PUSH20 0x75BF6C63F2941ED31A908B976B5E39954561517B PUSH3 0x754 SWAP1 PUSH3 0x33B JUMP JUMPDEST PUSH3 0x761 SWAP1 PUSH1 0x2 PUSH3 0x35B JUMP JUMPDEST PUSH3 0x771 PUSH3 0xBC614E PUSH1 0x3 PUSH3 0x396 JUMP JUMPDEST PUSH1 0x0 DUP1 SWAP14 PUSH3 0x782 DUP3 PUSH1 0xE PUSH3 0x3FA JUMP JUMPDEST PUSH3 0x78F DUP3 PUSH1 0xE PUSH3 0x424 JUMP JUMPDEST PUSH3 0x79C DUP3 PUSH1 0xE PUSH3 0x44E JUMP JUMPDEST PUSH3 0x7A9 DUP3 PUSH1 0x16 PUSH3 0x396 JUMP JUMPDEST DUP14 PUSH3 0x7B5 DUP12 PUSH3 0xC26 JUMP JUMPDEST PUSH3 0x7C0 SWAP1 PUSH3 0x33B JUMP JUMPDEST PUSH3 0x7CD SWAP1 PUSH1 0x1 PUSH3 0x35B JUMP JUMPDEST PUSH3 0x7D8 DUP14 PUSH3 0x33B JUMP JUMPDEST PUSH3 0x7E5 SWAP1 PUSH1 0x4 PUSH3 0x35B JUMP JUMPDEST PUSH3 0x7F0 SWAP1 PUSH3 0x33B JUMP JUMPDEST PUSH3 0x7FB SWAP2 PUSH3 0x35B JUMP JUMPDEST PUSH3 0x806 SWAP1 PUSH3 0x33B JUMP JUMPDEST SWAP9 PUSH3 0x814 DUP11 PUSH1 0x5 PUSH3 0x35B JUMP JUMPDEST PUSH3 0x81F SWAP1 PUSH3 0x33B JUMP JUMPDEST SWAP13 PUSH3 0x82D DUP15 PUSH1 0x6 PUSH3 0x35B JUMP JUMPDEST PUSH3 0x83A SWAP1 PUSH1 0x7 PUSH3 0x396 JUMP JUMPDEST PUSH3 0x847 SWAP1 PUSH1 0x8 PUSH3 0x396 JUMP JUMPDEST PUSH3 0x854 SWAP1 PUSH1 0xC PUSH3 0x65F JUMP JUMPDEST PUSH3 0x861 SWAP1 PUSH1 0xD PUSH3 0x65F JUMP JUMPDEST PUSH3 0x86C DUP10 PUSH3 0x386 JUMP JUMPDEST PUSH3 0x879 SWAP1 PUSH1 0xA PUSH3 0x396 JUMP JUMPDEST PUSH3 0x886 SWAP1 PUSH1 0xF PUSH3 0x65F JUMP JUMPDEST PUSH3 0x893 SWAP1 PUSH1 0x10 PUSH3 0x65F JUMP JUMPDEST PUSH3 0x8A0 SWAP1 PUSH1 0x11 PUSH3 0x65F JUMP JUMPDEST PUSH3 0x8AD SWAP1 PUSH1 0x13 PUSH3 0x65F JUMP JUMPDEST PUSH3 0x8BA SWAP1 PUSH1 0x12 PUSH3 0x65F JUMP JUMPDEST PUSH3 0x8C5 SWAP1 PUSH3 0x33B JUMP JUMPDEST SWAP1 PUSH4 0x95EA7B3 SWAP3 PUSH1 0x1 PUSH1 0x81 SHL SWAP6 PUSH3 0x8DC PUSH1 0x40 MLOAD SWAP1 JUMP JUMPDEST SWAP1 PUSH3 0x8E8 DUP7 PUSH1 0xE0 SHL SWAP1 JUMP JUMPDEST DUP3 MSTORE DUP5 DUP3 DUP1 PUSH3 0x8FD DUP12 DUP9 PUSH1 0x4 DUP5 ADD PUSH3 0x6B4 JUMP JUMPDEST SUB DUP2 DUP11 GAS SWAP5 PUSH1 0x20 SWAP6 CALL SWAP2 DUP3 ISZERO PUSH3 0xAF0 JUMPI PUSH3 0x929 PUSH1 0x20 SWAP3 DUP11 SWAP3 PUSH3 0x950 SWAP6 PUSH3 0xBBA JUMPI JUMPDEST POP PUSH3 0x33B JUMP JUMPDEST SWAP5 PUSH3 0x934 PUSH1 0x40 MLOAD SWAP1 JUMP JUMPDEST SWAP4 DUP5 SWAP3 DUP4 SWAP3 PUSH3 0x944 DUP12 PUSH1 0xE0 SHL SWAP1 JUMP JUMPDEST DUP5 MSTORE PUSH1 0x4 DUP5 ADD PUSH3 0x6B4 JUMP JUMPDEST SUB DUP2 DUP10 DUP8 GAS CALL DUP1 ISZERO PUSH3 0xAF0 JUMPI PUSH3 0xB99 JUMPI JUMPDEST POP PUSH1 0x40 MLOAD PUSH3 0x972 DUP6 PUSH1 0xE0 SHL SWAP1 JUMP JUMPDEST DUP2 MSTORE PUSH1 0x20 DUP2 DUP1 PUSH3 0x988 DUP11 DUP7 PUSH1 0x4 DUP5 ADD PUSH3 0x6B4 JUMP JUMPDEST SUB DUP2 DUP10 DUP9 GAS CALL DUP1 ISZERO PUSH3 0xAF0 JUMPI PUSH3 0x9B9 SWAP3 PUSH1 0x20 SWAP3 DUP10 SWAP3 PUSH3 0xB79 JUMPI JUMPDEST POP PUSH1 0x40 MLOAD SWAP4 DUP5 SWAP3 DUP4 SWAP3 PUSH3 0x944 DUP11 PUSH1 0xE0 SHL SWAP1 JUMP JUMPDEST SUB DUP2 DUP9 DUP7 GAS CALL DUP1 ISZERO PUSH3 0xAF0 JUMPI PUSH3 0xB58 JUMPI JUMPDEST POP PUSH3 0x9FF PUSH1 0x20 DUP7 PUSH3 0x9E0 PUSH1 0x2 PUSH3 0x6F1 JUMP JUMPDEST PUSH1 0x40 MLOAD SWAP4 DUP5 SWAP3 DUP4 SWAP3 PUSH3 0x9F3 DUP11 PUSH1 0xE0 SHL SWAP1 JUMP JUMPDEST DUP5 MSTORE PUSH1 0x4 DUP5 ADD PUSH3 0x708 JUMP JUMPDEST SUB DUP2 DUP9 DUP8 GAS CALL DUP1 ISZERO PUSH3 0xAF0 JUMPI PUSH3 0xB37 JUMPI JUMPDEST POP PUSH3 0xA26 PUSH1 0x20 DUP7 PUSH3 0x9E0 PUSH1 0x2 PUSH3 0x6F1 JUMP JUMPDEST SUB DUP2 DUP9 DUP7 GAS CALL DUP1 ISZERO PUSH3 0xAF0 JUMPI PUSH3 0xB16 JUMPI JUMPDEST POP PUSH3 0xA45 ADDRESS PUSH3 0x33B JUMP JUMPDEST SWAP2 PUSH1 0x20 PUSH3 0xA52 PUSH1 0x40 MLOAD SWAP1 JUMP JUMPDEST DUP1 SWAP3 PUSH3 0xA5F DUP8 PUSH1 0xE0 SHL SWAP1 JUMP JUMPDEST DUP3 MSTORE DUP2 DUP9 DUP2 PUSH3 0xA74 DUP13 DUP11 PUSH1 0x4 DUP5 ADD PUSH3 0x6B4 JUMP JUMPDEST SUB SWAP3 GAS CALL DUP1 ISZERO PUSH3 0xAF0 JUMPI PUSH1 0x20 SWAP5 PUSH3 0x944 SWAP3 DUP8 SWAP3 PUSH3 0xAF6 JUMPI JUMPDEST POP PUSH3 0xAAB PUSH3 0xA9E PUSH1 0x40 MLOAD SWAP1 JUMP JUMPDEST SWAP9 DUP10 SWAP7 DUP8 SWAP6 DUP7 SWAP5 PUSH1 0xE0 SHL SWAP1 JUMP JUMPDEST SUB SWAP3 GAS CALL SWAP1 DUP2 ISZERO PUSH3 0xAF0 JUMPI POP PUSH3 0xAC0 JUMPI POP JUMP JUMPDEST PUSH3 0xAE5 SWAP1 PUSH1 0x20 RETURNDATASIZE DUP2 GT PUSH3 0xAE8 JUMPI JUMPDEST PUSH3 0xADC DUP2 DUP4 PUSH3 0x5E JUMP JUMPDEST DUP2 ADD SWAP1 PUSH3 0x683 JUMP JUMPDEST POP JUMP JUMPDEST POP RETURNDATASIZE PUSH3 0xAD0 JUMP JUMPDEST PUSH3 0x6DA JUMP JUMPDEST PUSH3 0xB10 SWAP1 DUP8 RETURNDATASIZE DUP2 GT PUSH3 0xAE8 JUMPI PUSH3 0xADC DUP2 DUP4 PUSH3 0x5E JUMP JUMPDEST PUSH3 0xA8F JUMP JUMPDEST PUSH3 0xB31 SWAP1 PUSH1 0x20 RETURNDATASIZE DUP2 GT PUSH3 0xAE8 JUMPI PUSH3 0xADC DUP2 DUP4 PUSH3 0x5E JUMP JUMPDEST PUSH3 0xA39 JUMP JUMPDEST PUSH3 0xB52 SWAP1 PUSH1 0x20 RETURNDATASIZE DUP2 GT PUSH3 0xAE8 JUMPI PUSH3 0xADC DUP2 DUP4 PUSH3 0x5E JUMP JUMPDEST PUSH3 0xA12 JUMP JUMPDEST PUSH3 0xB73 SWAP1 PUSH1 0x20 RETURNDATASIZE DUP2 GT PUSH3 0xAE8 JUMPI PUSH3 0xADC DUP2 DUP4 PUSH3 0x5E JUMP JUMPDEST PUSH3 0x9CC JUMP JUMPDEST PUSH3 0xB93 SWAP1 DUP5 RETURNDATASIZE DUP2 GT PUSH3 0xAE8 JUMPI PUSH3 0xADC DUP2 DUP4 PUSH3 0x5E JUMP JUMPDEST PUSH3 0x9A5 JUMP JUMPDEST PUSH3 0xBB4 SWAP1 PUSH1 0x20 RETURNDATASIZE DUP2 GT PUSH3 0xAE8 JUMPI PUSH3 0xADC DUP2 DUP4 PUSH3 0x5E JUMP JUMPDEST PUSH3 0x963 JUMP JUMPDEST PUSH3 0xBD4 SWAP1 DUP6 RETURNDATASIZE DUP2 GT PUSH3 0xAE8 JUMPI PUSH3 0xADC DUP2 DUP4 PUSH3 0x5E JUMP JUMPDEST PUSH3 0x922 JUMP JUMPDEST PUSH3 0xBFF PUSH3 0xC09 PUSH1 0x20 SWAP4 PUSH3 0x103 SWAP4 PUSH3 0xBF3 DUP2 MLOAD SWAP1 JUMP JUMPDEST DUP1 DUP4 MSTORE SWAP4 DUP5 SWAP3 PUSH1 0x20 ADD SWAP1 JUMP JUMPDEST SWAP6 DUP7 SWAP2 ADD PUSH3 0x107 JUMP JUMPDEST PUSH1 0x1F ADD PUSH1 0x1F NOT AND SWAP1 JUMP JUMPDEST PUSH1 0x20 DUP1 DUP3 MSTORE PUSH3 0xAB SWAP3 SWAP2 ADD SWAP1 PUSH3 0xBDA JUMP JUMPDEST PUSH3 0xC57 PUSH3 0xC67 PUSH3 0x9D SWAP3 PUSH3 0xC3D PUSH1 0x40 MLOAD SWAP1 JUMP JUMPDEST PUSH4 0x104C13EB PUSH1 0xE2 SHL PUSH1 0x20 DUP3 ADD MSTORE SWAP3 DUP4 SWAP2 PUSH1 0x24 DUP4 ADD PUSH3 0xC13 JUMP JUMPDEST PUSH1 0x20 DUP3 ADD DUP2 SUB DUP3 MSTORE SUB DUP3 PUSH3 0x5E JUMP JUMPDEST PUSH1 0x0 DUP1 SWAP2 PUSH3 0xC7E PUSH11 0x636F6E736F6C652E6C6F67 SWAP1 JUMP JUMPDEST PUSH1 0x20 DUP3 MLOAD SWAP3 ADD SWAP1 GAS STATICCALL POP JUMP INVALID PUSH1 0xA0 PUSH1 0x40 MSTORE PUSH1 0x4 CALLDATASIZE LT ISZERO PUSH2 0x12 JUMPI PUSH1 0x0 DUP1 REVERT JUMPDEST PUSH1 0x0 CALLDATALOAD PUSH1 0xE0 SHR DUP1 PUSH4 0x203D002 EQ PUSH2 0x222 JUMPI DUP1 PUSH4 0x2D05D3F EQ PUSH2 0x21D JUMPI DUP1 PUSH4 0x3C29D58 EQ PUSH2 0x218 JUMPI DUP1 PUSH4 0x7D94E4A EQ PUSH2 0x213 JUMPI DUP1 PUSH4 0xA771370 EQ PUSH2 0x20E JUMPI DUP1 PUSH4 0xADD6B73 EQ PUSH2 0x209 JUMPI DUP1 PUSH4 0x18AA9F1E EQ PUSH2 0x204 JUMPI DUP1 PUSH4 0x24274EE9 EQ PUSH2 0x1FF JUMPI DUP1 PUSH4 0x263A58AA EQ PUSH2 0x1FA JUMPI DUP1 PUSH4 0x28C30C07 EQ PUSH2 0x1F5 JUMPI DUP1 PUSH4 0x29DCB0CF EQ PUSH2 0x1F0 JUMPI DUP1 PUSH4 0x43AB265F EQ PUSH2 0x1EB JUMPI DUP1 PUSH4 0x4C4CEA5A EQ PUSH2 0x1E6 JUMPI DUP1 PUSH4 0x4CBC1553 EQ PUSH2 0x1E1 JUMPI DUP1 PUSH4 0x4E695A37 EQ PUSH2 0x1DC JUMPI DUP1 PUSH4 0x54214F69 EQ PUSH2 0x1D7 JUMPI DUP1 PUSH4 0x5EB32936 EQ PUSH2 0x1D2 JUMPI DUP1 PUSH4 0x80007E83 EQ PUSH2 0x1CD JUMPI DUP1 PUSH4 0x992A7DFB EQ PUSH2 0x1C8 JUMPI DUP1 PUSH4 0xA278A485 EQ PUSH2 0x1C3 JUMPI DUP1 PUSH4 0xABB5CA09 EQ PUSH2 0x1BE JUMPI DUP1 PUSH4 0xB40141BF EQ PUSH2 0x1B9 JUMPI DUP1 PUSH4 0xB82C86D6 EQ PUSH2 0x1B4 JUMPI DUP1 PUSH4 0xC19D93FB EQ PUSH2 0x1AF JUMPI DUP1 PUSH4 0xC3E20C9F EQ PUSH2 0x1AA JUMPI DUP1 PUSH4 0xC59EE1DC EQ PUSH2 0x1A5 JUMPI DUP1 PUSH4 0xCA4B208B EQ PUSH2 0x1A0 JUMPI DUP1 PUSH4 0xD1707551 EQ PUSH2 0x19B JUMPI DUP1 PUSH4 0xD5CEF133 EQ PUSH2 0x196 JUMPI DUP1 PUSH4 0xD688CF53 EQ PUSH2 0x191 JUMPI DUP1 PUSH4 0xD8ABE8BE EQ PUSH2 0x18C JUMPI DUP1 PUSH4 0xE9D1EDDE EQ PUSH2 0x187 JUMPI PUSH4 0xFF3A9C7E SUB PUSH2 0x227 JUMPI PUSH2 0xDE7 JUMP JUMPDEST PUSH2 0xCF8 JUMP JUMPDEST PUSH2 0xCDC JUMP JUMPDEST PUSH2 0xBE0 JUMP JUMPDEST PUSH2 0xBC5 JUMP JUMPDEST PUSH2 0xBAA JUMP JUMPDEST PUSH2 0xB83 JUMP JUMPDEST PUSH2 0xB5C JUMP JUMPDEST PUSH2 0xB35 JUMP JUMPDEST PUSH2 0xB02 JUMP JUMPDEST PUSH2 0xA8A JUMP JUMPDEST PUSH2 0xA63 JUMP JUMPDEST PUSH2 0xA3C JUMP JUMPDEST PUSH2 0xA15 JUMP JUMPDEST PUSH2 0x9D5 JUMP JUMPDEST PUSH2 0x8C8 JUMP JUMPDEST PUSH2 0x8A1 JUMP JUMPDEST PUSH2 0x868 JUMP JUMPDEST PUSH2 0x82A JUMP JUMPDEST PUSH2 0x811 JUMP JUMPDEST PUSH2 0x7CF JUMP JUMPDEST PUSH2 0x7A8 JUMP JUMPDEST PUSH2 0x779 JUMP JUMPDEST PUSH2 0x755 JUMP JUMPDEST PUSH2 0x711 JUMP JUMPDEST PUSH2 0x6EA JUMP JUMPDEST PUSH2 0x6C3 JUMP JUMPDEST PUSH2 0x699 JUMP JUMPDEST PUSH2 0x62F JUMP JUMPDEST PUSH2 0x56F JUMP JUMPDEST PUSH2 0x548 JUMP JUMPDEST PUSH2 0x3AD JUMP JUMPDEST PUSH2 0x32F JUMP JUMPDEST PUSH1 0x0 DUP1 REVERT JUMPDEST DUP1 JUMPDEST SUB PUSH2 0x227 JUMPI JUMP JUMPDEST SWAP1 POP CALLDATALOAD SWAP1 PUSH2 0x242 DUP3 PUSH2 0x22C JUMP JUMPDEST JUMP JUMPDEST SWAP1 PUSH1 0x20 DUP3 DUP3 SUB SLT PUSH2 0x227 JUMPI PUSH2 0x258 SWAP2 PUSH2 0x235 JUMP JUMPDEST SWAP1 JUMP JUMPDEST PUSH1 0x0 JUMPDEST DUP4 DUP2 LT PUSH2 0x26E JUMPI POP POP PUSH1 0x0 SWAP2 ADD MSTORE JUMP JUMPDEST DUP2 DUP2 ADD MLOAD DUP4 DUP3 ADD MSTORE PUSH1 0x20 ADD PUSH2 0x25E JUMP JUMPDEST PUSH2 0x29F PUSH2 0x2A8 PUSH1 0x20 SWAP4 PUSH2 0x2B2 SWAP4 PUSH2 0x293 DUP2 MLOAD SWAP1 JUMP JUMPDEST DUP1 DUP4 MSTORE SWAP4 DUP5 SWAP3 PUSH1 0x20 ADD SWAP1 JUMP JUMPDEST SWAP6 DUP7 SWAP2 ADD PUSH2 0x25B JUMP JUMPDEST PUSH1 0x1F ADD PUSH1 0x1F NOT AND SWAP1 JUMP JUMPDEST ADD SWAP1 JUMP JUMPDEST SWAP1 MSTORE JUMP JUMPDEST PUSH1 0x1 PUSH1 0x1 PUSH1 0xA0 SHL SUB AND SWAP1 JUMP JUMPDEST PUSH2 0x2B6 SWAP1 PUSH2 0x2BA JUMP JUMPDEST SWAP3 PUSH2 0x328 SWAP3 SWAP9 SWAP8 SWAP6 PUSH2 0x318 PUSH1 0xC0 SWAP7 PUSH2 0x311 PUSH2 0x31F SWAP5 PUSH2 0x30A PUSH2 0x302 PUSH2 0x242 SWAP14 SWAP9 PUSH1 0xE0 DUP13 ADD SWAP1 DUP13 PUSH1 0x0 DUP2 DUP5 SUB SWAP2 ADD MSTORE PUSH2 0x27E JUMP JUMPDEST SWAP15 PUSH1 0x20 DUP12 ADD MSTORE JUMP JUMPDEST PUSH1 0x40 DUP10 ADD MSTORE JUMP JUMPDEST PUSH1 0x60 DUP8 ADD MSTORE JUMP JUMPDEST PUSH1 0x80 DUP6 ADD MSTORE JUMP JUMPDEST ISZERO ISZERO PUSH1 0xA0 DUP4 ADD MSTORE JUMP JUMPDEST ADD SWAP1 PUSH2 0x2C6 JUMP JUMPDEST CALLVALUE PUSH2 0x227 JUMPI PUSH2 0x363 PUSH2 0x34A PUSH2 0x345 CALLDATASIZE PUSH1 0x4 PUSH2 0x244 JUMP JUMPDEST PUSH2 0x23D6 JUMP JUMPDEST SWAP4 PUSH2 0x35A SWAP8 SWAP6 SWAP8 SWAP4 SWAP2 SWAP4 PUSH1 0x40 MLOAD SWAP1 JUMP JUMPDEST SWAP8 DUP9 SWAP8 DUP9 PUSH2 0x2CF JUMP JUMPDEST SUB SWAP1 RETURN JUMPDEST PUSH1 0x0 SWAP2 SUB SLT PUSH2 0x227 JUMPI JUMP JUMPDEST PUSH2 0x258 SWAP2 PUSH1 0x8 MUL SHR PUSH1 0x1 PUSH1 0x1 PUSH1 0xA0 SHL SUB AND SWAP1 JUMP JUMPDEST SWAP1 PUSH2 0x258 SWAP2 SLOAD PUSH2 0x372 JUMP JUMPDEST PUSH2 0x258 PUSH1 0x0 PUSH1 0x4 PUSH2 0x386 JUMP JUMPDEST PUSH1 0x20 DUP2 ADD SWAP3 SWAP2 PUSH2 0x242 SWAP2 SWAP1 PUSH2 0x2C6 JUMP JUMPDEST CALLVALUE PUSH2 0x227 JUMPI PUSH2 0x3BD CALLDATASIZE PUSH1 0x4 PUSH2 0x367 JUMP JUMPDEST PUSH2 0x363 PUSH2 0x3C8 PUSH2 0x391 JUMP JUMPDEST PUSH1 0x40 MLOAD SWAP2 DUP3 SWAP2 DUP3 PUSH2 0x39D JUMP JUMPDEST PUSH4 0x4E487B71 PUSH1 0xE0 SHL PUSH1 0x0 MSTORE PUSH1 0x0 PUSH1 0x4 MSTORE PUSH1 0x24 PUSH1 0x0 REVERT JUMPDEST PUSH4 0x4E487B71 PUSH1 0xE0 SHL PUSH1 0x0 MSTORE PUSH1 0x22 PUSH1 0x4 MSTORE PUSH1 0x24 PUSH1 0x0 REVERT JUMPDEST SWAP1 PUSH1 0x1 PUSH1 0x2 DUP4 DIV SWAP3 AND DUP1 ISZERO PUSH2 0x420 JUMPI JUMPDEST PUSH1 0x20 DUP4 LT EQ PUSH2 0x41B JUMPI JUMP JUMPDEST PUSH2 0x3EA JUMP JUMPDEST SWAP2 PUSH1 0x7F AND SWAP2 PUSH2 0x410 JUMP JUMPDEST DUP1 SLOAD PUSH1 0x0 SWAP4 SWAP3 SWAP2 PUSH2 0x447 PUSH2 0x43D DUP4 PUSH2 0x400 JUMP JUMPDEST DUP1 DUP6 MSTORE SWAP4 PUSH1 0x20 ADD SWAP1 JUMP JUMPDEST SWAP2 PUSH1 0x1 DUP2 AND SWAP1 DUP2 ISZERO PUSH2 0x499 JUMPI POP PUSH1 0x1 EQ PUSH2 0x460 JUMPI POP POP POP JUMP JUMPDEST PUSH2 0x473 SWAP2 SWAP3 SWAP4 SWAP5 POP PUSH1 0x0 MSTORE PUSH1 0x20 PUSH1 0x0 KECCAK256 SWAP1 JUMP JUMPDEST SWAP2 PUSH1 0x0 SWAP3 JUMPDEST DUP2 DUP5 LT PUSH2 0x485 JUMPI POP POP ADD SWAP1 JUMP JUMPDEST DUP1 SLOAD DUP5 DUP5 ADD MSTORE PUSH1 0x20 SWAP1 SWAP4 ADD SWAP3 PUSH1 0x1 ADD PUSH2 0x478 JUMP JUMPDEST SWAP3 SWAP5 SWAP6 POP POP POP PUSH1 0xFF NOT AND DUP3 MSTORE ISZERO ISZERO PUSH1 0x20 MUL ADD SWAP1 JUMP JUMPDEST SWAP1 PUSH2 0x258 SWAP2 PUSH2 0x42A JUMP JUMPDEST PUSH4 0x4E487B71 PUSH1 0xE0 SHL PUSH1 0x0 MSTORE PUSH1 0x41 PUSH1 0x4 MSTORE PUSH1 0x24 PUSH1 0x0 REVERT JUMPDEST SWAP1 PUSH1 0x1F ADD PUSH1 0x1F NOT AND DUP2 ADD SWAP1 DUP2 LT PUSH1 0x1 PUSH1 0x1 PUSH1 0x40 SHL SUB DUP3 GT OR PUSH2 0x4EF JUMPI PUSH1 0x40 MSTORE JUMP JUMPDEST PUSH2 0x4B8 JUMP JUMPDEST SWAP1 PUSH2 0x242 PUSH2 0x50E SWAP3 PUSH2 0x505 PUSH1 0x40 MLOAD SWAP1 JUMP JUMPDEST SWAP4 DUP5 DUP1 SWAP3 PUSH2 0x4AE JUMP JUMPDEST SUB DUP4 PUSH2 0x4CE JUMP JUMPDEST SWAP1 PUSH1 0x0 LT PUSH2 0x526 JUMPI PUSH2 0x258 SWAP1 PUSH2 0x4F4 JUMP JUMPDEST PUSH2 0x3D4 JUMP JUMPDEST PUSH2 0x258 PUSH1 0x0 PUSH1 0xD PUSH2 0x515 JUMP JUMPDEST PUSH1 0x20 DUP1 DUP3 MSTORE PUSH2 0x258 SWAP3 SWAP2 ADD SWAP1 PUSH2 0x27E JUMP JUMPDEST CALLVALUE PUSH2 0x227 JUMPI PUSH2 0x558 CALLDATASIZE PUSH1 0x4 PUSH2 0x367 JUMP JUMPDEST PUSH2 0x363 PUSH2 0x563 PUSH2 0x52B JUMP JUMPDEST PUSH1 0x40 MLOAD SWAP2 DUP3 SWAP2 DUP3 PUSH2 0x537 JUMP JUMPDEST CALLVALUE PUSH2 0x227 JUMPI PUSH2 0x57F CALLDATASIZE PUSH1 0x4 PUSH2 0x367 JUMP JUMPDEST PUSH2 0x363 PUSH2 0x58A PUSH2 0x143A JUMP JUMPDEST PUSH1 0x40 MLOAD SWAP2 DUP3 SWAP2 DUP3 SWAP1 DUP2 MSTORE PUSH1 0x20 ADD SWAP1 JUMP JUMPDEST PUSH2 0x22E DUP2 PUSH2 0x2BA JUMP JUMPDEST SWAP1 POP CALLDATALOAD SWAP1 PUSH2 0x242 DUP3 PUSH2 0x59A JUMP JUMPDEST SWAP1 PUSH1 0x20 DUP3 DUP3 SUB SLT PUSH2 0x227 JUMPI PUSH2 0x258 SWAP2 PUSH2 0x5A3 JUMP JUMPDEST PUSH2 0x258 SWAP1 PUSH2 0x2BA SWAP1 PUSH1 0x1 PUSH1 0x1 PUSH1 0xA0 SHL SUB AND DUP3 JUMP JUMPDEST PUSH2 0x258 SWAP1 PUSH2 0x5C4 JUMP JUMPDEST PUSH2 0x258 SWAP1 PUSH2 0x5D8 JUMP JUMPDEST SWAP1 PUSH2 0x5F4 SWAP1 PUSH2 0x5E1 JUMP JUMPDEST PUSH1 0x0 MSTORE PUSH1 0x20 MSTORE PUSH1 0x40 PUSH1 0x0 KECCAK256 SWAP1 JUMP JUMPDEST PUSH2 0x258 SWAP2 PUSH1 0x8 MUL SHR DUP2 JUMP JUMPDEST SWAP1 PUSH2 0x258 SWAP2 SLOAD PUSH2 0x602 JUMP JUMPDEST PUSH2 0x258 SWAP1 PUSH2 0x62A PUSH1 0x14 SWAP2 PUSH1 0x0 SWAP3 PUSH2 0x5EA JUMP JUMPDEST PUSH2 0x60D JUMP JUMPDEST CALLVALUE PUSH2 0x227 JUMPI PUSH2 0x363 PUSH2 0x58A PUSH2 0x645 CALLDATASIZE PUSH1 0x4 PUSH2 0x5B0 JUMP JUMPDEST PUSH2 0x618 JUMP JUMPDEST PUSH2 0x258 SWAP1 PUSH2 0x2BA JUMP JUMPDEST PUSH2 0x22E DUP2 PUSH2 0x64A JUMP JUMPDEST SWAP1 POP CALLDATALOAD SWAP1 PUSH2 0x242 DUP3 PUSH2 0x653 JUMP JUMPDEST SWAP1 SWAP2 PUSH1 0x60 DUP3 DUP5 SUB SLT PUSH2 0x227 JUMPI PUSH2 0x258 PUSH2 0x682 DUP5 DUP5 PUSH2 0x235 JUMP JUMPDEST SWAP4 PUSH2 0x690 DUP2 PUSH1 0x20 DUP7 ADD PUSH2 0x65C JUMP JUMPDEST SWAP4 PUSH1 0x40 ADD PUSH2 0x65C JUMP JUMPDEST CALLVALUE PUSH2 0x227 JUMPI PUSH2 0x6B2 PUSH2 0x6AC CALLDATASIZE PUSH1 0x4 PUSH2 0x669 JUMP JUMPDEST SWAP2 PUSH2 0x2310 JUMP JUMPDEST PUSH1 0x40 MLOAD STOP JUMPDEST PUSH2 0x258 PUSH1 0x0 PUSH1 0x11 PUSH2 0x515 JUMP JUMPDEST CALLVALUE PUSH2 0x227 JUMPI PUSH2 0x6D3 CALLDATASIZE PUSH1 0x4 PUSH2 0x367 JUMP JUMPDEST PUSH2 0x363 PUSH2 0x563 PUSH2 0x6B7 JUMP JUMPDEST PUSH2 0x258 PUSH1 0x0 PUSH1 0xB PUSH2 0x60D JUMP JUMPDEST CALLVALUE PUSH2 0x227 JUMPI PUSH2 0x6FA CALLDATASIZE PUSH1 0x4 PUSH2 0x367 JUMP JUMPDEST PUSH2 0x363 PUSH2 0x58A PUSH2 0x6DE JUMP JUMPDEST PUSH2 0x258 PUSH1 0x0 PUSH1 0x3 PUSH2 0x60D JUMP JUMPDEST CALLVALUE PUSH2 0x227 JUMPI PUSH2 0x721 CALLDATASIZE PUSH1 0x4 PUSH2 0x367 JUMP JUMPDEST PUSH2 0x363 PUSH2 0x58A PUSH2 0x705 JUMP JUMPDEST DUP1 ISZERO ISZERO PUSH2 0x22E JUMP JUMPDEST SWAP1 POP CALLDATALOAD SWAP1 PUSH2 0x242 DUP3 PUSH2 0x72C JUMP JUMPDEST SWAP1 PUSH1 0x20 DUP3 DUP3 SUB SLT PUSH2 0x227 JUMPI PUSH2 0x258 SWAP2 PUSH2 0x734 JUMP JUMPDEST CALLVALUE PUSH2 0x227 JUMPI PUSH2 0x6B2 PUSH2 0x768 CALLDATASIZE PUSH1 0x4 PUSH2 0x741 JUMP JUMPDEST PUSH2 0xF64 JUMP JUMPDEST PUSH2 0x258 PUSH1 0x0 PUSH1 0x7 PUSH2 0x60D JUMP JUMPDEST CALLVALUE PUSH2 0x227 JUMPI PUSH2 0x789 CALLDATASIZE PUSH1 0x4 PUSH2 0x367 JUMP JUMPDEST PUSH2 0x363 PUSH2 0x58A PUSH2 0x76D JUMP JUMPDEST SWAP1 PUSH1 0x20 DUP3 DUP3 SUB SLT PUSH2 0x227 JUMPI PUSH2 0x258 SWAP2 PUSH2 0x65C JUMP JUMPDEST CALLVALUE PUSH2 0x227 JUMPI PUSH2 0x363 PUSH2 0x58A PUSH2 0x7BE CALLDATASIZE PUSH1 0x4 PUSH2 0x794 JUMP JUMPDEST PUSH2 0x1447 JUMP JUMPDEST PUSH2 0x258 PUSH1 0x0 PUSH1 0x9 PUSH2 0x60D JUMP JUMPDEST CALLVALUE PUSH2 0x227 JUMPI PUSH2 0x7DF CALLDATASIZE PUSH1 0x4 PUSH2 0x367 JUMP JUMPDEST PUSH2 0x363 PUSH2 0x58A PUSH2 0x7C3 JUMP JUMPDEST SWAP1 SWAP2 PUSH1 0x60 DUP3 DUP5 SUB SLT PUSH2 0x227 JUMPI PUSH2 0x258 PUSH2 0x803 DUP5 DUP5 PUSH2 0x5A3 JUMP JUMPDEST SWAP4 PUSH2 0x690 DUP2 PUSH1 0x20 DUP7 ADD PUSH2 0x235 JUMP JUMPDEST CALLVALUE PUSH2 0x227 JUMPI PUSH2 0x6B2 PUSH2 0x824 CALLDATASIZE PUSH1 0x4 PUSH2 0x7EA JUMP JUMPDEST SWAP2 PUSH2 0x13B1 JUMP JUMPDEST CALLVALUE PUSH2 0x227 JUMPI PUSH2 0x6B2 PUSH2 0x83D CALLDATASIZE PUSH1 0x4 PUSH2 0x244 JUMP JUMPDEST PUSH2 0x1ABF JUMP JUMPDEST PUSH2 0x258 SWAP2 PUSH1 0x8 MUL SHR JUMPDEST PUSH1 0xFF AND SWAP1 JUMP JUMPDEST SWAP1 PUSH2 0x258 SWAP2 SLOAD PUSH2 0x842 JUMP JUMPDEST PUSH2 0x258 PUSH1 0x1 PUSH1 0xE PUSH2 0x851 JUMP JUMPDEST CALLVALUE PUSH2 0x227 JUMPI PUSH2 0x878 CALLDATASIZE PUSH1 0x4 PUSH2 0x367 JUMP JUMPDEST PUSH2 0x363 PUSH2 0x883 PUSH2 0x85C JUMP JUMPDEST PUSH1 0x40 MLOAD SWAP2 DUP3 SWAP2 DUP3 SWAP1 ISZERO ISZERO DUP2 MSTORE PUSH1 0x20 ADD SWAP1 JUMP JUMPDEST PUSH2 0x258 PUSH1 0x0 PUSH1 0x12 PUSH2 0x515 JUMP JUMPDEST CALLVALUE PUSH2 0x227 JUMPI PUSH2 0x8B1 CALLDATASIZE PUSH1 0x4 PUSH2 0x367 JUMP JUMPDEST PUSH2 0x363 PUSH2 0x563 PUSH2 0x895 JUMP JUMPDEST PUSH2 0x258 PUSH1 0x2 PUSH1 0xE PUSH2 0x851 JUMP JUMPDEST CALLVALUE PUSH2 0x227 JUMPI PUSH2 0x8D8 CALLDATASIZE PUSH1 0x4 PUSH2 0x367 JUMP JUMPDEST PUSH2 0x363 PUSH2 0x883 PUSH2 0x8BC JUMP JUMPDEST PUSH2 0x258 PUSH2 0x258 PUSH2 0x258 SWAP3 SWAP1 JUMP JUMPDEST SWAP1 PUSH2 0x5F4 SWAP1 PUSH2 0x8E3 JUMP JUMPDEST PUSH2 0x258 SWAP1 DUP2 JUMP JUMPDEST PUSH2 0x258 SWAP1 SLOAD PUSH2 0x8FA JUMP JUMPDEST PUSH2 0x258 SWAP1 PUSH2 0x84B JUMP JUMPDEST PUSH2 0x258 SWAP1 SLOAD PUSH2 0x90B JUMP JUMPDEST PUSH2 0x258 SWAP1 PUSH1 0x8 SHR PUSH2 0x2BA JUMP JUMPDEST PUSH2 0x258 SWAP1 SLOAD PUSH2 0x91E JUMP JUMPDEST PUSH2 0x93F SWAP1 PUSH1 0x15 PUSH2 0x8F0 JUMP JUMPDEST SWAP1 PUSH2 0x949 DUP3 PUSH2 0x4F4 JUMP JUMPDEST SWAP2 PUSH2 0x956 PUSH1 0x1 DUP3 ADD PUSH2 0x901 JUMP JUMPDEST SWAP2 PUSH2 0x963 PUSH1 0x2 DUP4 ADD PUSH2 0x901 JUMP JUMPDEST SWAP2 PUSH2 0x970 PUSH1 0x3 DUP3 ADD PUSH2 0x901 JUMP JUMPDEST SWAP2 PUSH2 0x258 PUSH1 0x5 PUSH2 0x981 DUP2 DUP6 ADD PUSH2 0x914 JUMP JUMPDEST SWAP4 ADD PUSH2 0x92A JUMP JUMPDEST SWAP2 SWAP7 SWAP6 SWAP4 SWAP5 PUSH2 0x9CC PUSH2 0x242 SWAP7 PUSH2 0x9C5 PUSH1 0xA0 SWAP7 PUSH2 0x9BE PUSH2 0x9B6 PUSH2 0x328 SWAP8 PUSH1 0xC0 DUP11 ADD SWAP1 DUP11 DUP3 SUB PUSH1 0x0 DUP13 ADD MSTORE PUSH2 0x27E JUMP JUMPDEST SWAP13 PUSH1 0x20 DUP10 ADD MSTORE JUMP JUMPDEST PUSH1 0x40 DUP8 ADD MSTORE JUMP JUMPDEST PUSH1 0x60 DUP6 ADD MSTORE JUMP JUMPDEST ISZERO ISZERO PUSH1 0x80 DUP4 ADD MSTORE JUMP JUMPDEST CALLVALUE PUSH2 0x227 JUMPI PUSH2 0x363 PUSH2 0x9F0 PUSH2 0x9EB CALLDATASIZE PUSH1 0x4 PUSH2 0x244 JUMP JUMPDEST PUSH2 0x934 JUMP JUMPDEST SWAP3 PUSH2 0xA00 SWAP7 SWAP5 SWAP7 SWAP3 SWAP2 SWAP3 PUSH1 0x40 MLOAD SWAP1 JUMP JUMPDEST SWAP7 DUP8 SWAP7 DUP8 PUSH2 0x988 JUMP JUMPDEST PUSH2 0x258 PUSH1 0x0 PUSH1 0x13 PUSH2 0x515 JUMP JUMPDEST CALLVALUE PUSH2 0x227 JUMPI PUSH2 0xA25 CALLDATASIZE PUSH1 0x4 PUSH2 0x367 JUMP JUMPDEST PUSH2 0x363 PUSH2 0x563 PUSH2 0xA09 JUMP JUMPDEST PUSH2 0x258 PUSH1 0x0 PUSH1 0xF PUSH2 0x515 JUMP JUMPDEST CALLVALUE PUSH2 0x227 JUMPI PUSH2 0xA4C CALLDATASIZE PUSH1 0x4 PUSH2 0x367 JUMP JUMPDEST PUSH2 0x363 PUSH2 0x563 PUSH2 0xA30 JUMP JUMPDEST PUSH2 0x258 PUSH1 0x0 PUSH1 0x16 PUSH2 0x60D JUMP JUMPDEST CALLVALUE PUSH2 0x227 JUMPI PUSH2 0xA73 CALLDATASIZE PUSH1 0x4 PUSH2 0x367 JUMP JUMPDEST PUSH2 0x363 PUSH2 0x58A PUSH2 0xA57 JUMP JUMPDEST PUSH2 0x258 PUSH1 0x0 PUSH1 0x8 PUSH2 0x60D JUMP JUMPDEST CALLVALUE PUSH2 0x227 JUMPI PUSH2 0xA9A CALLDATASIZE PUSH1 0x4 PUSH2 0x367 JUMP JUMPDEST PUSH2 0x363 PUSH2 0x58A PUSH2 0xA7E JUMP JUMPDEST PUSH2 0x258 PUSH1 0x0 PUSH1 0xE PUSH2 0x851 JUMP JUMPDEST PUSH4 0x4E487B71 PUSH1 0xE0 SHL PUSH1 0x0 MSTORE PUSH1 0x21 PUSH1 0x4 MSTORE PUSH1 0x24 PUSH1 0x0 REVERT JUMPDEST PUSH1 0x3 GT ISZERO PUSH2 0xAD1 JUMPI JUMP JUMPDEST PUSH2 0xAB1 JUMP JUMPDEST SWAP1 PUSH2 0x242 DUP3 PUSH2 0xAC7 JUMP JUMPDEST PUSH2 0x258 SWAP1 PUSH2 0xAD6 JUMP JUMPDEST PUSH2 0x2B6 SWAP1 PUSH2 0xAE0 JUMP JUMPDEST PUSH1 0x20 DUP2 ADD SWAP3 SWAP2 PUSH2 0x242 SWAP2 SWAP1 PUSH2 0xAE9 JUMP JUMPDEST CALLVALUE PUSH2 0x227 JUMPI PUSH2 0xB12 CALLDATASIZE PUSH1 0x4 PUSH2 0x367 JUMP JUMPDEST PUSH2 0x363 PUSH2 0xB1D PUSH2 0xAA5 JUMP JUMPDEST PUSH1 0x40 MLOAD SWAP2 DUP3 SWAP2 DUP3 PUSH2 0xAF2 JUMP JUMPDEST PUSH2 0x258 PUSH1 0x0 PUSH1 0xC PUSH2 0x515 JUMP JUMPDEST CALLVALUE PUSH2 0x227 JUMPI PUSH2 0xB45 CALLDATASIZE PUSH1 0x4 PUSH2 0x367 JUMP JUMPDEST PUSH2 0x363 PUSH2 0x563 PUSH2 0xB29 JUMP JUMPDEST PUSH2 0x258 PUSH1 0x0 PUSH1 0xA PUSH2 0x60D JUMP JUMPDEST CALLVALUE PUSH2 0x227 JUMPI PUSH2 0xB6C CALLDATASIZE PUSH1 0x4 PUSH2 0x367 JUMP JUMPDEST PUSH2 0x363 PUSH2 0x58A PUSH2 0xB50 JUMP JUMPDEST PUSH2 0x258 PUSH1 0x0 PUSH1 0x2 PUSH2 0x386 JUMP JUMPDEST CALLVALUE PUSH2 0x227 JUMPI PUSH2 0xB93 CALLDATASIZE PUSH1 0x4 PUSH2 0x367 JUMP JUMPDEST PUSH2 0x363 PUSH2 0x3C8 PUSH2 0xB77 JUMP JUMPDEST PUSH2 0x258 PUSH1 0x0 PUSH1 0x10 PUSH2 0x515 JUMP JUMPDEST CALLVALUE PUSH2 0x227 JUMPI PUSH2 0xBBA CALLDATASIZE PUSH1 0x4 PUSH2 0x367 JUMP JUMPDEST PUSH2 0x363 PUSH2 0x563 PUSH2 0xB9E JUMP JUMPDEST CALLVALUE PUSH2 0x227 JUMPI PUSH2 0xBD5 CALLDATASIZE PUSH1 0x4 PUSH2 0x367 JUMP JUMPDEST PUSH2 0x363 PUSH2 0x883 PUSH2 0x1663 JUMP JUMPDEST CALLVALUE PUSH2 0x227 JUMPI PUSH2 0x6B2 PUSH2 0xBF3 CALLDATASIZE PUSH1 0x4 PUSH2 0x244 JUMP JUMPDEST PUSH2 0xF0F JUMP JUMPDEST SWAP1 PUSH2 0x242 PUSH2 0xC05 PUSH1 0x40 MLOAD SWAP1 JUMP JUMPDEST SWAP3 DUP4 PUSH2 0x4CE JUMP JUMPDEST PUSH1 0x1 PUSH1 0x1 PUSH1 0x40 SHL SUB DUP2 GT PUSH2 0x4EF JUMPI PUSH1 0x20 SWAP1 PUSH1 0x1F ADD PUSH1 0x1F NOT AND ADD SWAP1 JUMP JUMPDEST SWAP1 DUP3 PUSH1 0x0 SWAP4 SWAP3 DUP3 CALLDATACOPY ADD MSTORE JUMP JUMPDEST SWAP1 SWAP3 SWAP2 SWAP3 PUSH2 0xC49 PUSH2 0xC44 DUP3 PUSH2 0xC0C JUMP JUMPDEST PUSH2 0xBF8 JUMP JUMPDEST SWAP4 DUP2 DUP6 MSTORE PUSH1 0x20 DUP6 ADD SWAP1 DUP3 DUP5 ADD GT PUSH2 0x227 JUMPI PUSH2 0x242 SWAP3 PUSH2 0xC28 JUMP JUMPDEST SWAP1 DUP1 PUSH1 0x1F DUP4 ADD SLT ISZERO PUSH2 0x227 JUMPI DUP2 PUSH1 0x20 PUSH2 0x258 SWAP4 CALLDATALOAD SWAP2 ADD PUSH2 0xC34 JUMP JUMPDEST SWAP2 SWAP1 PUSH1 0xA0 DUP4 DUP3 SUB SLT PUSH2 0x227 JUMPI DUP3 CALLDATALOAD PUSH1 0x1 PUSH1 0x1 PUSH1 0x40 SHL SUB DUP2 GT PUSH2 0x227 JUMPI DUP2 PUSH2 0xCA6 SWAP2 DUP6 ADD PUSH2 0xC63 JUMP JUMPDEST SWAP3 PUSH2 0xCB4 DUP3 PUSH1 0x20 DUP4 ADD PUSH2 0x5A3 JUMP JUMPDEST SWAP3 PUSH2 0x258 PUSH2 0xCC5 DUP5 PUSH1 0x40 DUP6 ADD PUSH2 0x235 JUMP JUMPDEST SWAP4 PUSH2 0xCD3 DUP2 PUSH1 0x60 DUP7 ADD PUSH2 0x235 JUMP JUMPDEST SWAP4 PUSH1 0x80 ADD PUSH2 0x235 JUMP JUMPDEST CALLVALUE PUSH2 0x227 JUMPI PUSH2 0x6B2 PUSH2 0xCEF CALLDATASIZE PUSH1 0x4 PUSH2 0xC7E JUMP JUMPDEST SWAP4 SWAP3 SWAP1 SWAP3 PUSH2 0x1A0B JUMP JUMPDEST CALLVALUE PUSH2 0x227 JUMPI PUSH2 0x6B2 PUSH2 0xD0B CALLDATASIZE PUSH1 0x4 PUSH2 0x741 JUMP JUMPDEST PUSH2 0xFBA JUMP JUMPDEST SWAP15 SWAP14 SWAP13 SWAP12 SWAP10 SWAP9 SWAP8 SWAP6 SWAP4 SWAP2 SWAP3 DUP16 SWAP2 SWAP8 SWAP6 SWAP4 PUSH2 0x200 DUP4 ADD SWAP9 PUSH1 0x0 DUP5 ADD PUSH2 0xD33 SWAP2 PUSH2 0x2C6 JUMP JUMPDEST PUSH1 0x20 DUP4 ADD PUSH2 0xD40 SWAP2 PUSH2 0x2C6 JUMP JUMPDEST PUSH1 0x40 DUP3 ADD PUSH2 0xD4D SWAP2 PUSH2 0x2C6 JUMP JUMPDEST PUSH1 0x60 ADD MSTORE PUSH1 0x80 DUP14 ADD MSTORE PUSH1 0xA0 DUP13 ADD MSTORE PUSH1 0xC0 DUP12 ADD MSTORE PUSH1 0xE0 DUP11 ADD MSTORE DUP9 DUP2 SUB PUSH2 0x100 DUP11 ADD MSTORE PUSH2 0xD77 SWAP2 PUSH2 0x27E JUMP JUMPDEST DUP8 DUP2 SUB PUSH2 0x120 DUP10 ADD MSTORE PUSH2 0xD89 SWAP2 PUSH2 0x27E JUMP JUMPDEST SWAP2 PUSH2 0x140 DUP8 ADD PUSH2 0xD98 SWAP2 PUSH2 0xAE9 JUMP JUMPDEST PUSH2 0x160 DUP7 ADD MSTORE DUP5 DUP2 SUB PUSH2 0x180 DUP7 ADD MSTORE PUSH2 0xDB0 SWAP2 PUSH2 0x27E JUMP JUMPDEST DUP4 DUP2 SUB PUSH2 0x1A0 DUP6 ADD MSTORE PUSH2 0xDC2 SWAP2 PUSH2 0x27E JUMP JUMPDEST DUP3 DUP2 SUB PUSH2 0x1C0 DUP5 ADD MSTORE PUSH2 0xDD4 SWAP2 PUSH2 0x27E JUMP JUMPDEST SWAP1 DUP1 DUP3 SUB SWAP1 PUSH2 0x1E0 ADD MSTORE PUSH2 0x258 SWAP2 PUSH2 0x27E JUMP JUMPDEST CALLVALUE PUSH2 0x227 JUMPI PUSH2 0xDF7 CALLDATASIZE PUSH1 0x4 PUSH2 0x367 JUMP JUMPDEST PUSH2 0xE2C PUSH2 0xE02 PUSH2 0x2324 JUMP JUMPDEST SWAP15 PUSH2 0xE21 SWAP15 SWAP2 SWAP15 SWAP14 SWAP3 SWAP14 SWAP13 SWAP4 SWAP13 SWAP12 SWAP5 SWAP12 SWAP11 SWAP6 SWAP11 SWAP10 SWAP7 SWAP10 SWAP9 SWAP8 SWAP9 PUSH1 0x40 MLOAD SWAP1 JUMP JUMPDEST PUSH1 0x80 MSTORE PUSH1 0x80 MLOAD PUSH2 0xD10 JUMP JUMPDEST PUSH1 0x80 MLOAD SWAP1 SUB PUSH1 0x80 MLOAD RETURN JUMPDEST PUSH2 0x258 SWAP1 SLOAD PUSH2 0x64A JUMP JUMPDEST ISZERO PUSH2 0xE47 JUMPI JUMP JUMPDEST PUSH1 0x40 MLOAD PUSH3 0x461BCD PUSH1 0xE5 SHL DUP2 MSTORE PUSH1 0x20 PUSH1 0x4 DUP3 ADD MSTORE PUSH1 0x36 PUSH1 0x24 DUP3 ADD MSTORE PUSH32 0x596F7520646F6E7420686176652061646D696E2061636365737320746F207065 PUSH1 0x44 DUP3 ADD MSTORE PUSH22 0x72666F726D2074686973206F7065726174696F6E2021 PUSH1 0x50 SHL PUSH1 0x64 DUP3 ADD MSTORE PUSH1 0x84 SWAP1 REVERT JUMPDEST PUSH2 0x242 SWAP1 PUSH2 0xED4 CALLER PUSH2 0xECE PUSH2 0xEC8 PUSH2 0xEC3 PUSH1 0x1 PUSH2 0xE36 JUMP JUMPDEST PUSH2 0x5E1 JUMP JUMPDEST SWAP2 PUSH2 0x2BA JUMP JUMPDEST EQ PUSH2 0xE40 JUMP JUMPDEST PUSH2 0xF04 JUMP JUMPDEST SWAP1 PUSH1 0x0 NOT SWAP1 JUMPDEST SWAP2 DUP2 NOT AND SWAP2 AND OR SWAP1 JUMP JUMPDEST SWAP1 PUSH2 0xEF9 PUSH2 0x258 PUSH2 0xF00 SWAP3 PUSH2 0x8E3 JUMP JUMPDEST DUP3 SLOAD PUSH2 0xED9 JUMP JUMPDEST SWAP1 SSTORE JUMP JUMPDEST PUSH2 0x242 SWAP1 PUSH1 0x3 PUSH2 0xEE9 JUMP JUMPDEST PUSH2 0x242 SWAP1 PUSH2 0xEAB JUMP JUMPDEST PUSH2 0x242 SWAP1 PUSH2 0xF30 CALLER PUSH2 0xECE PUSH2 0xEC8 PUSH2 0xEC3 PUSH1 0x1 PUSH2 0xE36 JUMP JUMPDEST PUSH2 0xF59 JUMP JUMPDEST SWAP1 PUSH2 0xFF00 SWAP1 PUSH1 0x8 SHL PUSH2 0xEDF JUMP JUMPDEST SWAP1 PUSH2 0xF52 PUSH2 0x258 PUSH2 0xF00 SWAP3 ISZERO ISZERO SWAP1 JUMP JUMPDEST DUP3 SLOAD PUSH2 0xF35 JUMP JUMPDEST PUSH2 0x242 SWAP1 PUSH1 0xE PUSH2 0xF42 JUMP JUMPDEST PUSH2 0x242 SWAP1 PUSH2 0xF18 JUMP JUMPDEST PUSH2 0x242 SWAP1 PUSH2 0xF85 CALLER PUSH2 0xECE PUSH2 0xEC8 PUSH2 0xEC3 PUSH1 0x1 PUSH2 0xE36 JUMP JUMPDEST PUSH2 0xFAF JUMP JUMPDEST SWAP1 PUSH3 0xFF0000 SWAP1 PUSH1 0x10 SHL PUSH2 0xEDF JUMP JUMPDEST SWAP1 PUSH2 0xFA8 PUSH2 0x258 PUSH2 0xF00 SWAP3 ISZERO ISZERO SWAP1 JUMP JUMPDEST DUP3 SLOAD PUSH2 0xF8A JUMP JUMPDEST PUSH2 0x242 SWAP1 PUSH1 0xE PUSH2 0xF98 JUMP JUMPDEST PUSH2 0x242 SWAP1 PUSH2 0xF6D JUMP JUMPDEST PUSH2 0x258 SWAP1 PUSH1 0x10 SHR PUSH2 0x84B JUMP JUMPDEST PUSH2 0x258 SWAP1 SLOAD PUSH2 0xFC3 JUMP JUMPDEST ISZERO PUSH2 0xFE0 JUMPI JUMP JUMPDEST PUSH1 0x40 MLOAD PUSH3 0x461BCD PUSH1 0xE5 SHL DUP2 MSTORE PUSH1 0x20 PUSH1 0x4 DUP3 ADD MSTORE PUSH1 0x18 PUSH1 0x24 DUP3 ADD MSTORE PUSH24 0x141C9BDA9958DD081B5D5CDD081899481D995C9A599A5959 PUSH1 0x42 SHL PUSH1 0x44 DUP3 ADD MSTORE PUSH1 0x64 SWAP1 REVERT JUMPDEST SWAP1 PUSH2 0x242 SWAP3 SWAP2 PUSH2 0x1045 PUSH2 0x1033 PUSH1 0xE PUSH2 0xFCF JUMP JUMPDEST PUSH2 0x103F PUSH1 0x1 JUMPDEST SWAP2 ISZERO ISZERO SWAP1 JUMP JUMPDEST EQ PUSH2 0xFD9 JUMP JUMPDEST PUSH2 0x10BB JUMP JUMPDEST ISZERO PUSH2 0x1051 JUMPI JUMP JUMPDEST PUSH1 0x40 MLOAD PUSH3 0x461BCD PUSH1 0xE5 SHL DUP2 MSTORE PUSH1 0x20 PUSH1 0x4 DUP3 ADD MSTORE PUSH1 0x3C PUSH1 0x24 DUP3 ADD MSTORE PUSH32 0x596F7520646F206E6F74206861766520746865206D6173746572207269676874 PUSH1 0x44 DUP3 ADD MSTORE PUSH28 0x7320746F20706572666F726D2074686973206F7065726174696F6E21 PUSH1 0x20 SHL PUSH1 0x64 DUP3 ADD MSTORE PUSH1 0x84 SWAP1 REVERT JUMPDEST SWAP1 PUSH2 0x242 SWAP3 SWAP2 PUSH2 0x10DB CALLER PUSH2 0x10D5 PUSH2 0xEC8 PUSH2 0xEC3 PUSH1 0x0 PUSH2 0xE36 JUMP JUMPDEST EQ PUSH2 0x104A JUMP JUMPDEST PUSH2 0x11DC JUMP JUMPDEST PUSH4 0x4E487B71 PUSH1 0xE0 SHL PUSH1 0x0 MSTORE PUSH1 0x11 PUSH1 0x4 MSTORE PUSH1 0x24 PUSH1 0x0 REVERT JUMPDEST PUSH1 0x0 NOT DUP2 EQ PUSH2 0x1105 JUMPI PUSH1 0x1 ADD SWAP1 JUMP JUMPDEST PUSH2 0x10E0 JUMP JUMPDEST SWAP2 SWAP1 DUP3 ADD DUP1 SWAP3 GT PUSH2 0x1105 JUMPI JUMP JUMPDEST SWAP1 POP MLOAD SWAP1 PUSH2 0x242 DUP3 PUSH2 0x22C JUMP JUMPDEST SWAP1 PUSH1 0x20 DUP3 DUP3 SUB SLT PUSH2 0x227 JUMPI PUSH2 0x258 SWAP2 PUSH2 0x1117 JUMP JUMPDEST SWAP2 PUSH1 0x20 PUSH2 0x242 SWAP3 SWAP5 SWAP4 PUSH2 0x328 PUSH1 0x40 DUP3 ADD SWAP7 PUSH1 0x0 DUP4 ADD SWAP1 PUSH2 0x2C6 JUMP JUMPDEST PUSH1 0x40 MLOAD RETURNDATASIZE PUSH1 0x0 DUP3 RETURNDATACOPY RETURNDATASIZE SWAP1 REVERT JUMPDEST ISZERO PUSH2 0x227 JUMPI JUMP JUMPDEST SWAP1 POP MLOAD SWAP1 PUSH2 0x242 DUP3 PUSH2 0x72C JUMP JUMPDEST SWAP1 PUSH1 0x20 DUP3 DUP3 SUB SLT PUSH2 0x227 JUMPI PUSH2 0x258 SWAP2 PUSH2 0x1166 JUMP JUMPDEST PUSH1 0x40 SWAP1 PUSH2 0x11B1 PUSH2 0x242 SWAP5 SWAP7 SWAP6 SWAP4 SWAP7 PUSH2 0x11A7 PUSH1 0x60 DUP5 ADD SWAP9 PUSH1 0x0 DUP6 ADD SWAP1 PUSH2 0x2C6 JUMP JUMPDEST PUSH1 0x20 DUP4 ADD SWAP1 PUSH2 0x2C6 JUMP JUMPDEST ADD MSTORE JUMP JUMPDEST PUSH1 0x40 SWAP1 PUSH2 0x11B1 PUSH2 0x242 SWAP5 SWAP7 SWAP6 SWAP4 SWAP7 PUSH2 0x11D5 PUSH1 0x60 DUP5 ADD SWAP9 PUSH1 0x0 DUP6 ADD SWAP1 PUSH2 0x2C6 JUMP JUMPDEST PUSH1 0x20 DUP4 ADD MSTORE JUMP JUMPDEST SWAP2 PUSH2 0x124A PUSH1 0x14 SWAP2 PUSH2 0x1232 PUSH2 0x121A DUP7 PUSH2 0x11FC PUSH2 0x11F7 DUP3 DUP9 PUSH2 0x5EA JUMP JUMPDEST PUSH2 0x901 JUMP JUMPDEST SWAP6 PUSH1 0x0 SWAP7 PUSH2 0x1210 PUSH2 0x120C DUP10 PUSH2 0x8E3 JUMP JUMPDEST SWAP2 SWAP1 JUMP JUMPDEST EQ PUSH2 0x1390 JUMPI PUSH2 0x5EA JUMP JUMPDEST PUSH2 0x122C DUP7 PUSH2 0x1227 DUP4 PUSH2 0x901 JUMP JUMPDEST PUSH2 0x110A JUMP JUMPDEST SWAP1 PUSH2 0xEE9 JUMP JUMPDEST PUSH2 0xEC3 PUSH2 0x1243 DUP6 PUSH2 0x1227 PUSH1 0xA PUSH2 0x901 JUMP JUMPDEST PUSH1 0xA PUSH2 0xEE9 JUMP JUMPDEST SWAP1 PUSH4 0xDD62ED3E SWAP2 PUSH2 0x125A ADDRESS PUSH2 0x5E1 JUMP JUMPDEST PUSH2 0x126D PUSH2 0x1266 PUSH1 0x40 MLOAD SWAP1 JUMP JUMPDEST SWAP5 PUSH1 0xE0 SHL SWAP1 JUMP JUMPDEST DUP5 MSTORE PUSH1 0x20 DUP5 DUP1 PUSH2 0x1281 DUP5 DUP11 PUSH1 0x4 DUP5 ADD PUSH2 0x1138 JUMP JUMPDEST SUB DUP2 DUP6 GAS STATICCALL SWAP2 DUP3 ISZERO PUSH2 0x135E JUMPI PUSH2 0x12A5 PUSH1 0x20 SWAP4 DUP8 SWAP7 DUP7 SWAP2 PUSH2 0x1363 JUMPI JUMPDEST POP DUP7 GT ISZERO PUSH2 0x115F JUMP JUMPDEST PUSH2 0x12C7 DUP5 PUSH4 0x23B872DD PUSH2 0x12D3 PUSH2 0x12BA PUSH1 0x40 MLOAD SWAP1 JUMP JUMPDEST SWAP9 DUP10 SWAP7 DUP8 SWAP6 DUP7 SWAP5 PUSH1 0xE0 SHL SWAP1 JUMP JUMPDEST DUP5 MSTORE DUP13 PUSH1 0x4 DUP6 ADD PUSH2 0x1187 JUMP JUMPDEST SUB SWAP3 GAS CALL SWAP1 DUP2 ISZERO PUSH2 0x135E JUMPI POP PUSH2 0x1332 JUMPI JUMPDEST POP PUSH2 0x12EF PUSH1 0xA PUSH2 0x901 JUMP JUMPDEST SWAP2 PUSH2 0x1327 PUSH32 0x5CDC4AB8D637538EAD6CC1904D4160343656C8C82BD266635CFD31AC008FFFE0 SWAP4 PUSH2 0x131E PUSH1 0x40 MLOAD SWAP1 JUMP JUMPDEST SWAP4 DUP5 SWAP4 DUP5 PUSH2 0x11B5 JUMP JUMPDEST SUB SWAP1 LOG1 PUSH2 0x242 PUSH2 0x13DC JUMP JUMPDEST PUSH2 0x1352 SWAP1 PUSH1 0x20 RETURNDATASIZE DUP2 GT PUSH2 0x1357 JUMPI JUMPDEST PUSH2 0x134A DUP2 DUP4 PUSH2 0x4CE JUMP JUMPDEST DUP2 ADD SWAP1 PUSH2 0x1173 JUMP JUMPDEST PUSH2 0x12E4 JUMP JUMPDEST POP RETURNDATASIZE PUSH2 0x1340 JUMP JUMPDEST PUSH2 0x1153 JUMP JUMPDEST PUSH2 0x1383 SWAP2 POP DUP6 RETURNDATASIZE DUP2 GT PUSH2 0x1389 JUMPI JUMPDEST PUSH2 0x137B DUP2 DUP4 PUSH2 0x4CE JUMP JUMPDEST DUP2 ADD SWAP1 PUSH2 0x1124 JUMP JUMPDEST CODESIZE PUSH2 0x129C JUMP JUMPDEST POP RETURNDATASIZE PUSH2 0x1371 JUMP JUMPDEST PUSH2 0x13AC PUSH2 0x13A5 PUSH2 0x13A0 PUSH1 0xB PUSH2 0x901 JUMP JUMPDEST PUSH2 0x10F6 JUMP JUMPDEST PUSH1 0xB PUSH2 0xEE9 JUMP JUMPDEST PUSH2 0x5EA JUMP JUMPDEST SWAP1 PUSH2 0x242 SWAP3 SWAP2 PUSH2 0x1020 JUMP JUMPDEST SWAP1 PUSH1 0xFF SWAP1 PUSH2 0xEDF JUMP JUMPDEST SWAP1 PUSH2 0x13D5 PUSH2 0x258 PUSH2 0xF00 SWAP3 PUSH2 0xAE0 JUMP JUMPDEST DUP3 SLOAD PUSH2 0x13BC JUMP JUMPDEST PUSH2 0x13E6 PUSH1 0xA PUSH2 0x901 JUMP JUMPDEST PUSH2 0x13F6 PUSH2 0x120C PUSH2 0x258 PUSH1 0x8 PUSH2 0x901 JUMP JUMPDEST LT PUSH2 0x1412 JUMPI PUSH2 0x1407 PUSH1 0x2 PUSH1 0xE PUSH2 0x13C5 JUMP JUMPDEST PUSH2 0x242 TIMESTAMP PUSH1 0x9 PUSH2 0xEE9 JUMP JUMPDEST TIMESTAMP PUSH2 0x1423 PUSH2 0x120C PUSH2 0x258 PUSH1 0x7 PUSH2 0x901 JUMP JUMPDEST GT ISZERO PUSH2 0x1407 JUMPI PUSH2 0x1435 PUSH1 0x1 PUSH1 0xE PUSH2 0x13C5 JUMP JUMPDEST PUSH2 0x1407 JUMP JUMPDEST PUSH2 0x1443 ADDRESS PUSH2 0x5E1 JUMP JUMPDEST BALANCE SWAP1 JUMP JUMPDEST PUSH1 0x20 PUSH2 0x145E PUSH2 0x1492 SWAP3 PUSH2 0x1458 PUSH1 0x0 SWAP1 JUMP JUMPDEST POP PUSH2 0x5E1 JUMP JUMPDEST PUSH4 0x70A08231 SWAP1 PUSH2 0x1487 PUSH2 0x1470 ADDRESS PUSH2 0x5E1 JUMP JUMPDEST SWAP3 PUSH2 0x147A PUSH1 0x40 MLOAD SWAP1 JUMP JUMPDEST SWAP6 DUP7 SWAP5 DUP6 SWAP4 DUP5 SWAP4 PUSH1 0xE0 SHL SWAP1 JUMP JUMPDEST DUP4 MSTORE PUSH1 0x4 DUP4 ADD PUSH2 0x39D JUMP JUMPDEST SUB SWAP2 GAS STATICCALL SWAP1 DUP2 ISZERO PUSH2 0x135E JUMPI PUSH1 0x0 SWAP2 PUSH2 0x14A8 JUMPI POP SWAP1 JUMP JUMPDEST PUSH2 0x258 SWAP2 POP PUSH1 0x20 RETURNDATASIZE DUP2 GT PUSH2 0x1389 JUMPI PUSH2 0x137B DUP2 DUP4 PUSH2 0x4CE JUMP JUMPDEST ISZERO PUSH2 0x14C7 JUMPI JUMP JUMPDEST PUSH1 0x40 MLOAD PUSH3 0x461BCD PUSH1 0xE5 SHL DUP2 MSTORE PUSH1 0x20 PUSH1 0x4 DUP3 ADD MSTORE PUSH1 0xD PUSH1 0x24 DUP3 ADD MSTORE PUSH13 0x496E76616C6964207374617465 PUSH1 0x98 SHL PUSH1 0x44 DUP3 ADD MSTORE PUSH1 0x64 SWAP1 REVERT JUMPDEST ISZERO PUSH2 0x1503 JUMPI JUMP JUMPDEST PUSH1 0x40 MLOAD PUSH3 0x461BCD PUSH1 0xE5 SHL DUP2 MSTORE PUSH1 0x20 PUSH1 0x4 DUP3 ADD MSTORE PUSH1 0x15 PUSH1 0x24 DUP3 ADD MSTORE PUSH21 0x446561646C696E6520686173207061737365642021 PUSH1 0x58 SHL PUSH1 0x44 DUP3 ADD MSTORE PUSH1 0x64 SWAP1 REVERT JUMPDEST PUSH2 0x258 SWAP1 PUSH2 0x156B PUSH1 0x1 PUSH2 0x1565 PUSH2 0x155F PUSH2 0x1559 PUSH1 0xE PUSH2 0x914 JUMP JUMPDEST SWAP3 PUSH2 0xAD6 JUMP JUMPDEST SWAP2 PUSH2 0xAD6 JUMP JUMPDEST EQ PUSH2 0x14C0 JUMP JUMPDEST PUSH2 0x1585 TIMESTAMP PUSH2 0x157F PUSH2 0x120C PUSH2 0x258 PUSH1 0x7 PUSH2 0x901 JUMP JUMPDEST LT PUSH2 0x14FC JUMP JUMPDEST PUSH2 0x15E5 JUMP JUMPDEST ISZERO PUSH2 0x1591 JUMPI JUMP JUMPDEST PUSH1 0x40 MLOAD PUSH3 0x461BCD PUSH1 0xE5 SHL DUP2 MSTORE PUSH1 0x20 PUSH1 0x4 DUP3 ADD MSTORE PUSH1 0x26 PUSH1 0x24 DUP3 ADD MSTORE PUSH32 0x596F7520646F6E74206861766520616E7920636F6E747269627574656420616D PUSH1 0x44 DUP3 ADD MSTORE PUSH6 0x6F756E742021 PUSH1 0xD0 SHL PUSH1 0x64 DUP3 ADD MSTORE PUSH1 0x84 SWAP1 REVERT JUMPDEST POP CALLER PUSH1 0x14 PUSH2 0x15F6 PUSH2 0x11F7 DUP4 DUP4 PUSH2 0x5EA JUMP JUMPDEST PUSH2 0x160E PUSH1 0x0 SWAP2 PUSH2 0x1608 PUSH2 0x120C DUP5 PUSH2 0x8E3 JUMP JUMPDEST GT PUSH2 0x158A JUMP JUMPDEST DUP1 DUP1 DUP1 DUP1 PUSH2 0x161E PUSH2 0xEC3 DUP9 PUSH2 0x5E1 JUMP JUMPDEST PUSH2 0x162B PUSH2 0x11F7 DUP10 DUP10 PUSH2 0x5EA JUMP JUMPDEST SWAP1 DUP3 DUP3 ISZERO PUSH2 0x165A JUMPI JUMPDEST CALL ISZERO PUSH2 0x135E JUMPI PUSH2 0x1655 SWAP3 PUSH2 0x164A PUSH2 0x1650 SWAP3 PUSH2 0x8E3 JUMP JUMPDEST SWAP3 PUSH2 0x5EA JUMP JUMPDEST PUSH2 0xEE9 JUMP JUMPDEST PUSH1 0x1 SWAP1 JUMP JUMPDEST POP PUSH2 0x8FC PUSH2 0x1634 JUMP JUMPDEST PUSH2 0x258 PUSH1 0x0 PUSH2 0x1540 JUMP JUMPDEST ISZERO PUSH2 0x1674 JUMPI JUMP JUMPDEST PUSH1 0x40 MLOAD PUSH3 0x461BCD PUSH1 0xE5 SHL DUP2 MSTORE PUSH1 0x20 PUSH1 0x4 DUP3 ADD MSTORE PUSH1 0x38 PUSH1 0x24 DUP3 ADD MSTORE PUSH32 0x596F7520646F6E7420686176652063726561746F722061636365737320746F20 PUSH1 0x44 DUP3 ADD MSTORE PUSH24 0x706572666F726D2074686973206F7065726174696F6E2021 PUSH1 0x40 SHL PUSH1 0x64 DUP3 ADD MSTORE PUSH1 0x84 SWAP1 REVERT JUMPDEST SWAP1 PUSH2 0x242 SWAP5 SWAP4 SWAP3 SWAP2 PUSH2 0x16FC CALLER PUSH2 0x16F6 PUSH2 0xEC8 PUSH2 0xEC3 PUSH1 0x4 PUSH2 0xE36 JUMP JUMPDEST EQ PUSH2 0x166D JUMP JUMPDEST SWAP1 PUSH2 0x242 SWAP5 SWAP4 SWAP3 SWAP2 PUSH2 0x1719 PUSH1 0x2 PUSH2 0x1565 PUSH2 0x155F PUSH2 0x1559 PUSH1 0xE PUSH2 0x914 JUMP JUMPDEST PUSH2 0x172D TIMESTAMP PUSH2 0x157F PUSH2 0x120C PUSH2 0x258 PUSH1 0x7 PUSH2 0x901 JUMP JUMPDEST PUSH2 0x1966 JUMP JUMPDEST SWAP2 PUSH1 0x0 NOT PUSH1 0x8 SWAP3 SWAP1 SWAP3 MUL SWAP2 DUP3 SHL SWAP2 SHL PUSH2 0xEDF JUMP JUMPDEST SWAP2 SWAP1 PUSH2 0x1757 PUSH2 0x258 PUSH2 0xF00 SWAP4 PUSH2 0x8E3 JUMP JUMPDEST SWAP1 DUP4 SLOAD PUSH2 0x1732 JUMP JUMPDEST PUSH2 0x242 SWAP2 PUSH1 0x0 SWAP2 PUSH2 0x1746 JUMP JUMPDEST DUP2 DUP2 LT PUSH2 0x1776 JUMPI POP POP JUMP JUMPDEST DUP1 PUSH2 0x1784 PUSH1 0x0 PUSH1 0x1 SWAP4 PUSH2 0x175F JUMP JUMPDEST ADD PUSH2 0x176B JUMP JUMPDEST SWAP2 SWAP1 PUSH1 0x1F DUP2 GT PUSH2 0x1799 JUMPI POP POP POP JUMP JUMPDEST PUSH2 0x17AB PUSH2 0x242 SWAP4 PUSH1 0x0 MSTORE PUSH1 0x20 PUSH1 0x0 KECCAK256 SWAP1 JUMP JUMPDEST SWAP1 PUSH1 0x20 PUSH1 0x1F DUP5 ADD DUP2 SWAP1 DIV DUP4 ADD SWAP4 LT PUSH2 0x17CD JUMPI JUMPDEST PUSH1 0x20 PUSH1 0x1F SWAP1 SWAP2 ADD DIV ADD SWAP1 PUSH2 0x176B JUMP JUMPDEST SWAP1 SWAP2 POP DUP2 SWAP1 PUSH2 0x17BE JUMP JUMPDEST SWAP1 PUSH1 0x0 NOT PUSH1 0x8 SWAP1 SWAP2 MUL SHR NOT AND SWAP1 JUMP JUMPDEST DUP2 PUSH2 0x17F0 SWAP2 PUSH2 0x17D7 JUMP JUMPDEST SWAP1 PUSH1 0x2 MUL OR SWAP1 JUMP JUMPDEST SWAP1 PUSH2 0x1801 DUP2 MLOAD SWAP1 JUMP JUMPDEST SWAP1 PUSH1 0x1 PUSH1 0x1 PUSH1 0x40 SHL SUB DUP3 GT PUSH2 0x4EF JUMPI PUSH2 0x1824 DUP3 PUSH2 0x181E DUP6 SLOAD PUSH2 0x400 JUMP JUMPDEST DUP6 PUSH2 0x178A JUMP JUMPDEST PUSH1 0x20 SWAP1 PUSH1 0x1F DUP4 GT PUSH1 0x1 EQ PUSH2 0x1852 JUMPI PUSH2 0xF00 SWAP3 SWAP2 PUSH1 0x0 SWAP2 DUP4 PUSH2 0x1847 JUMPI JUMPDEST POP POP PUSH2 0x17E6 JUMP JUMPDEST ADD MLOAD SWAP1 POP CODESIZE DUP1 PUSH2 0x1840 JUMP JUMPDEST PUSH1 0x1F NOT DUP4 AND SWAP2 PUSH2 0x1867 DUP6 PUSH1 0x0 MSTORE PUSH1 0x20 PUSH1 0x0 KECCAK256 SWAP1 JUMP JUMPDEST SWAP3 PUSH1 0x0 JUMPDEST DUP2 DUP2 LT PUSH2 0x18A6 JUMPI POP SWAP2 PUSH1 0x2 SWAP4 SWAP2 DUP6 PUSH1 0x1 SWAP7 SWAP5 LT PUSH2 0x188C JUMPI JUMPDEST POP POP POP MUL ADD SWAP1 SSTORE JUMP JUMPDEST PUSH2 0x189C SWAP2 ADD MLOAD PUSH1 0x1F DUP5 AND SWAP1 PUSH2 0x17D7 JUMP JUMPDEST SWAP1 SSTORE CODESIZE DUP1 DUP1 PUSH2 0x1883 JUMP JUMPDEST SWAP2 SWAP4 PUSH1 0x20 PUSH1 0x1 DUP2 SWAP3 DUP8 DUP8 ADD MLOAD DUP2 SSTORE ADD SWAP6 ADD SWAP3 ADD PUSH2 0x186B JUMP JUMPDEST SWAP1 PUSH2 0x242 SWAP2 PUSH2 0x17F8 JUMP JUMPDEST SWAP1 PUSH2 0x13D5 PUSH2 0x258 PUSH2 0xF00 SWAP3 ISZERO ISZERO SWAP1 JUMP JUMPDEST SWAP1 PUSH2 0x100 PUSH1 0x1 PUSH1 0xA8 SHL SUB SWAP1 PUSH1 0x8 SHL PUSH2 0xEDF JUMP JUMPDEST SWAP1 PUSH2 0x18FB PUSH2 0x258 PUSH2 0xF00 SWAP3 PUSH2 0x5E1 JUMP JUMPDEST DUP3 SLOAD PUSH2 0x18D8 JUMP JUMPDEST PUSH2 0x2B6 SWAP1 PUSH2 0x8E3 JUMP JUMPDEST PUSH2 0x2B6 SWAP1 PUSH2 0x5E1 JUMP JUMPDEST SWAP3 SWAP8 SWAP7 SWAP5 PUSH2 0x31F SWAP1 PUSH2 0x1955 PUSH1 0xC0 SWAP7 PUSH2 0x311 PUSH2 0x194D PUSH2 0x242 SWAP12 SWAP7 PUSH2 0x195F SWAP9 PUSH2 0x1940 PUSH1 0xE0 DUP13 ADD SWAP3 PUSH1 0x0 DUP14 ADD MSTORE JUMP JUMPDEST DUP11 DUP3 SUB PUSH1 0x20 DUP13 ADD MSTORE PUSH2 0x27E JUMP JUMPDEST SWAP13 PUSH1 0x40 DUP10 ADD MSTORE JUMP JUMPDEST PUSH1 0x80 DUP6 ADD SWAP1 PUSH2 0x1902 JUMP JUMPDEST ADD SWAP1 PUSH2 0x190B JUMP JUMPDEST SWAP3 SWAP1 PUSH1 0x5 PUSH2 0x1A06 SWAP3 SWAP6 SWAP4 SWAP6 PUSH2 0x197F PUSH2 0x258 DUP7 PUSH1 0x15 PUSH2 0x8F0 JUMP JUMPDEST SWAP1 PUSH2 0x198A DUP8 DUP4 PUSH2 0x18BE JUMP JUMPDEST PUSH2 0x1997 DUP9 PUSH1 0x1 DUP5 ADD PUSH2 0xEE9 JUMP JUMPDEST PUSH2 0x19A4 DUP2 PUSH1 0x2 DUP5 ADD PUSH2 0xEE9 JUMP JUMPDEST PUSH2 0x19D2 DUP5 PUSH1 0x0 SWAP5 DUP6 SWAP5 PUSH2 0x19C2 PUSH2 0x19B9 DUP8 PUSH2 0x8E3 JUMP JUMPDEST PUSH1 0x3 DUP4 ADD PUSH2 0xEE9 JUMP JUMPDEST ADD PUSH2 0x19CD DUP6 DUP3 PUSH2 0x18C8 JUMP JUMPDEST PUSH2 0x18EB JUMP JUMPDEST PUSH32 0x3009567E0613F3581563A052FEA56298ACA1363831103CF6F1CBB8BF5AE122F3 SWAP8 PUSH2 0x19FD PUSH1 0x40 MLOAD SWAP1 JUMP JUMPDEST SWAP8 DUP9 SWAP8 DUP9 PUSH2 0x1914 JUMP JUMPDEST SUB SWAP1 LOG1 JUMP JUMPDEST SWAP1 PUSH2 0x242 SWAP5 SWAP4 SWAP3 SWAP2 PUSH2 0x16DA JUMP JUMPDEST ISZERO PUSH2 0x1A1F JUMPI JUMP JUMPDEST PUSH1 0x40 MLOAD PUSH3 0x461BCD PUSH1 0xE5 SHL DUP2 MSTORE PUSH1 0x20 PUSH1 0x4 DUP3 ADD MSTORE PUSH1 0x1B PUSH1 0x24 DUP3 ADD MSTORE PUSH27 0x4F6E6C7920636F6E7472696275746F722063616E20766F74652021 PUSH1 0x28 SHL PUSH1 0x44 DUP3 ADD MSTORE PUSH1 0x64 SWAP1 REVERT JUMPDEST ISZERO PUSH2 0x1A69 JUMPI JUMP JUMPDEST PUSH1 0x40 MLOAD PUSH3 0x461BCD PUSH1 0xE5 SHL DUP2 MSTORE PUSH1 0x20 PUSH1 0x4 DUP3 ADD MSTORE PUSH1 0x13 PUSH1 0x24 DUP3 ADD MSTORE PUSH19 0x596F7520616C726561647920766F7465642021 PUSH1 0x68 SHL PUSH1 0x44 DUP3 ADD MSTORE PUSH1 0x64 SWAP1 REVERT JUMPDEST SWAP2 PUSH1 0x20 PUSH2 0x242 SWAP3 SWAP5 SWAP4 PUSH2 0x11B1 PUSH1 0x40 DUP3 ADD SWAP7 PUSH1 0x0 DUP4 ADD SWAP1 PUSH2 0x2C6 JUMP JUMPDEST CALLER SWAP1 PUSH2 0x1B5C SWAP1 PUSH2 0x11F7 PUSH2 0x1B56 PUSH1 0x3 PUSH2 0x1B4A DUP7 PUSH2 0x1B45 PUSH2 0x1B06 PUSH2 0x258 PUSH2 0x1AE6 DUP9 DUP6 PUSH1 0x14 PUSH2 0x5EA JUMP JUMPDEST SWAP9 PUSH2 0x1AFF PUSH1 0x0 SWAP11 PUSH2 0x1AF9 PUSH2 0x120C DUP14 PUSH2 0x8E3 JUMP JUMPDEST GT PUSH2 0x1A18 JUMP JUMPDEST PUSH1 0x15 PUSH2 0x8F0 JUMP JUMPDEST SWAP7 PUSH2 0x1B33 PUSH1 0x4 DUP10 ADD SWAP2 PUSH2 0x1B2D PUSH2 0x1039 PUSH2 0x1B27 PUSH2 0x1B22 DUP9 DUP8 PUSH2 0x5EA JUMP JUMPDEST PUSH2 0x914 JUMP JUMPDEST SWAP3 ISZERO ISZERO SWAP1 JUMP JUMPDEST EQ PUSH2 0x1A62 JUMP JUMPDEST PUSH2 0x1B40 PUSH1 0x1 SWAP4 DUP5 SWAP3 PUSH2 0x5EA JUMP JUMPDEST PUSH2 0x18C8 JUMP JUMPDEST PUSH2 0x8E3 JUMP JUMPDEST SWAP4 ADD SWAP3 PUSH2 0x1227 DUP5 PUSH2 0x901 JUMP JUMPDEST DUP3 PUSH2 0xEE9 JUMP JUMPDEST PUSH32 0xA2925E4595BF873FA82C22A1A89809777347023BF2B502D32710157A5EB8199C SWAP2 PUSH2 0x1A06 PUSH2 0x1B8A PUSH1 0x40 MLOAD SWAP1 JUMP JUMPDEST SWAP3 DUP4 SWAP3 DUP4 PUSH2 0x1AA4 JUMP JUMPDEST SWAP1 PUSH2 0x242 SWAP3 SWAP2 PUSH2 0x1BAD CALLER PUSH2 0x16F6 PUSH2 0xEC8 PUSH2 0xEC3 PUSH1 0x4 PUSH2 0xE36 JUMP JUMPDEST SWAP1 PUSH2 0x242 SWAP3 SWAP2 PUSH2 0x1BC8 PUSH1 0x2 PUSH2 0x1565 PUSH2 0x155F PUSH2 0x1559 PUSH1 0xE PUSH2 0x914 JUMP JUMPDEST PUSH2 0x1BDC TIMESTAMP PUSH2 0x157F PUSH2 0x120C PUSH2 0x258 PUSH1 0x7 PUSH2 0x901 JUMP JUMPDEST PUSH2 0x1DEF JUMP JUMPDEST ISZERO PUSH2 0x1BE8 JUMPI JUMP JUMPDEST PUSH1 0x40 MLOAD PUSH3 0x461BCD PUSH1 0xE5 SHL DUP2 MSTORE PUSH1 0x20 PUSH1 0x4 DUP3 ADD MSTORE PUSH1 0x19 PUSH1 0x24 DUP3 ADD MSTORE PUSH25 0x14995C5D595CDD08185B1C9958591E4818DBDB5C1B195D1959 PUSH1 0x3A SHL PUSH1 0x44 DUP3 ADD MSTORE PUSH1 0x64 SWAP1 REVERT JUMPDEST PUSH4 0x4E487B71 PUSH1 0xE0 SHL PUSH1 0x0 MSTORE PUSH1 0x12 PUSH1 0x4 MSTORE PUSH1 0x24 PUSH1 0x0 REVERT JUMPDEST DUP2 ISZERO PUSH2 0x1C49 JUMPI DIV SWAP1 JUMP JUMPDEST PUSH2 0x1C29 JUMP JUMPDEST ISZERO PUSH2 0x1C55 JUMPI JUMP JUMPDEST PUSH1 0x40 MLOAD PUSH3 0x461BCD PUSH1 0xE5 SHL DUP2 MSTORE PUSH1 0x20 PUSH1 0x4 DUP3 ADD MSTORE PUSH1 0x36 PUSH1 0x24 DUP3 ADD MSTORE PUSH32 0x4174206C656173742032302520636F6E7472696275746F72206E65656420746F PUSH1 0x44 DUP3 ADD MSTORE PUSH22 0x81D9BDD1948199BDC881D1A1A5CC81C995C5D595CDD PUSH1 0x52 SHL PUSH1 0x64 DUP3 ADD MSTORE PUSH1 0x84 SWAP1 REVERT JUMPDEST ISZERO PUSH2 0x1CC0 JUMPI JUMP JUMPDEST PUSH1 0x40 MLOAD PUSH3 0x461BCD PUSH1 0xE5 SHL DUP2 MSTORE PUSH1 0x20 PUSH1 0x4 DUP3 ADD MSTORE PUSH1 0x3E PUSH1 0x24 DUP3 ADD MSTORE PUSH1 0x0 DUP1 MLOAD PUSH1 0x20 PUSH2 0x2441 DUP4 CODECOPY DUP2 MLOAD SWAP2 MSTORE PUSH1 0x44 DUP3 ADD MSTORE PUSH32 0x6E6F75676820555344542062616C616E636520746F2064697362757273650000 PUSH1 0x64 DUP3 ADD MSTORE PUSH1 0x84 SWAP1 REVERT JUMPDEST ISZERO PUSH2 0x1D20 JUMPI JUMP JUMPDEST PUSH1 0x40 MLOAD PUSH3 0x461BCD PUSH1 0xE5 SHL DUP2 MSTORE PUSH1 0x20 PUSH1 0x4 DUP3 ADD MSTORE PUSH1 0x3E PUSH1 0x24 DUP3 ADD MSTORE PUSH1 0x0 DUP1 MLOAD PUSH1 0x20 PUSH2 0x2441 DUP4 CODECOPY DUP2 MLOAD SWAP2 MSTORE PUSH1 0x44 DUP3 ADD MSTORE PUSH32 0x6E6F75676820555344432062616C616E636520746F2064697362757273650000 PUSH1 0x64 DUP3 ADD MSTORE PUSH1 0x84 SWAP1 REVERT JUMPDEST DUP2 DUP2 MUL SWAP3 SWAP2 DUP2 ISZERO SWAP2 DUP5 DIV EQ OR ISZERO PUSH2 0x1105 JUMPI JUMP JUMPDEST PUSH1 0x40 SWAP1 PUSH2 0x11B1 PUSH2 0x242 SWAP5 SWAP7 SWAP6 SWAP4 SWAP7 PUSH2 0x1DAC PUSH1 0x60 DUP5 ADD SWAP9 PUSH1 0x0 DUP6 ADD SWAP1 PUSH2 0x2C6 JUMP JUMPDEST PUSH1 0x20 DUP4 ADD SWAP1 PUSH2 0x190B JUMP JUMPDEST SWAP3 SWAP8 SWAP7 SWAP5 PUSH2 0x31F SWAP1 PUSH2 0x318 PUSH1 0xC0 SWAP7 PUSH2 0x311 PUSH2 0x194D PUSH2 0x242 SWAP12 SWAP7 PUSH2 0x195F SWAP9 PUSH2 0x1DE2 PUSH1 0xE0 DUP13 ADD SWAP3 PUSH1 0x0 DUP14 ADD MSTORE JUMP JUMPDEST DUP11 DUP3 SUB PUSH1 0x20 DUP13 ADD MSTORE PUSH2 0x42A JUMP JUMPDEST SWAP2 SWAP1 SWAP2 PUSH2 0x1E00 PUSH2 0x258 DUP3 PUSH1 0x15 PUSH2 0x8F0 JUMP JUMPDEST SWAP2 PUSH2 0x1E20 PUSH2 0x1E10 PUSH1 0x5 DUP6 ADD PUSH2 0x914 JUMP JUMPDEST PUSH2 0x1E1A PUSH1 0x0 PUSH2 0x1039 JUMP JUMPDEST EQ PUSH2 0x1BE1 JUMP JUMPDEST PUSH2 0x1E2C PUSH1 0x3 DUP5 ADD PUSH2 0x901 JUMP JUMPDEST SWAP1 PUSH2 0x1E5D PUSH2 0x1E3A PUSH1 0xB PUSH2 0x901 JUMP JUMPDEST SWAP3 PUSH2 0x1E56 PUSH2 0x120C PUSH2 0x258 PUSH1 0x5 SWAP7 PUSH2 0x1E50 DUP9 PUSH2 0x8E3 JUMP JUMPDEST SWAP1 PUSH2 0x1C3F JUMP JUMPDEST LT ISZERO PUSH2 0x1C4E JUMP JUMPDEST PUSH2 0x1E72 PUSH2 0x1E6C PUSH1 0x1 DUP7 ADD PUSH2 0x901 JUMP JUMPDEST SWAP6 PUSH2 0x5E1 JUMP JUMPDEST SWAP2 PUSH4 0x70A08231 PUSH2 0x1E81 ADDRESS PUSH2 0x5E1 JUMP JUMPDEST SWAP7 PUSH2 0x1E8B PUSH1 0x40 MLOAD SWAP1 JUMP JUMPDEST SWAP1 PUSH2 0x1E96 DUP4 PUSH1 0xE0 SHL SWAP1 JUMP JUMPDEST DUP3 MSTORE PUSH1 0x20 DUP3 DUP1 PUSH2 0x1EA9 DUP13 PUSH1 0x4 DUP4 ADD PUSH2 0x39D JUMP JUMPDEST SUB DUP2 DUP10 GAS STATICCALL DUP1 ISZERO PUSH2 0x135E JUMPI PUSH2 0x120C PUSH2 0x1ECA SWAP2 PUSH2 0x1ED1 SWAP5 PUSH1 0x0 SWAP2 PUSH2 0x14A8 JUMPI POP SWAP1 JUMP JUMPDEST GT ISZERO PUSH2 0x1CB9 JUMP JUMPDEST PUSH2 0x1EE6 PUSH2 0x1EE0 PUSH1 0x2 DUP9 ADD PUSH2 0x901 JUMP JUMPDEST SWAP4 PUSH2 0x5E1 JUMP JUMPDEST SWAP3 PUSH2 0x1EFA PUSH2 0x1EF3 PUSH1 0x40 MLOAD SWAP1 JUMP JUMPDEST SWAP3 PUSH1 0xE0 SHL SWAP1 JUMP JUMPDEST DUP3 MSTORE PUSH1 0x20 DUP3 DUP1 PUSH2 0x1F0D DUP12 PUSH1 0x4 DUP4 ADD PUSH2 0x39D JUMP JUMPDEST SUB DUP2 DUP8 GAS STATICCALL DUP1 ISZERO PUSH2 0x135E JUMPI PUSH2 0x120C PUSH2 0x1F2E SWAP2 PUSH2 0x1F35 SWAP5 PUSH1 0x0 SWAP2 PUSH2 0x14A8 JUMPI POP SWAP1 JUMP JUMPDEST GT ISZERO PUSH2 0x1D19 JUMP JUMPDEST DUP5 ADD SWAP5 PUSH2 0x1F96 PUSH1 0x20 PUSH2 0x1F46 DUP9 PUSH2 0x92A JUMP JUMPDEST PUSH2 0x1F72 PUSH2 0x1F62 PUSH2 0x1F58 PUSH1 0x1 DUP12 ADD PUSH2 0x901 JUMP JUMPDEST PUSH2 0x1E50 PUSH1 0x32 PUSH2 0x8E3 JUMP JUMPDEST PUSH2 0x1F6C PUSH1 0x31 PUSH2 0x8E3 JUMP JUMPDEST SWAP1 PUSH2 0x1D79 JUMP JUMPDEST SWAP1 PUSH2 0x1F7C PUSH1 0x40 MLOAD SWAP1 JUMP JUMPDEST SWAP4 DUP5 SWAP3 DUP4 SWAP3 PUSH4 0x23B872DD PUSH1 0xE0 SHL JUMPDEST DUP5 MSTORE DUP8 PUSH1 0x4 DUP6 ADD PUSH2 0x1D8C JUMP JUMPDEST SUB DUP2 PUSH1 0x0 DUP9 GAS CALL DUP1 ISZERO PUSH2 0x135E JUMPI PUSH2 0x22F4 JUMPI JUMPDEST POP PUSH2 0x1FC9 PUSH1 0x20 PUSH2 0x1FB7 DUP9 PUSH2 0x92A JUMP JUMPDEST PUSH2 0x1F72 PUSH2 0x1F62 PUSH2 0x1F58 PUSH1 0x2 DUP12 ADD PUSH2 0x901 JUMP JUMPDEST SUB DUP2 PUSH1 0x0 DUP8 GAS CALL DUP1 ISZERO PUSH2 0x135E JUMPI PUSH2 0x22D8 JUMPI JUMPDEST POP TIMESTAMP PUSH2 0x1FED PUSH2 0x120C PUSH2 0x258 PUSH1 0x3 PUSH2 0x901 JUMP JUMPDEST GT PUSH2 0x2239 JUMPI PUSH2 0x2037 SWAP3 PUSH1 0x20 PUSH2 0x2002 PUSH1 0x1 PUSH2 0xE36 JUMP JUMPDEST PUSH2 0x201B PUSH2 0x2011 PUSH1 0x1 DUP11 ADD PUSH2 0x901 JUMP JUMPDEST PUSH2 0x1E50 PUSH1 0x64 PUSH2 0x8E3 JUMP JUMPDEST SWAP1 PUSH2 0x2025 PUSH1 0x40 MLOAD SWAP1 JUMP JUMPDEST SWAP7 DUP8 SWAP3 DUP4 SWAP3 PUSH4 0x23B872DD PUSH1 0xE0 SHL PUSH2 0x1F8A JUMP JUMPDEST SUB DUP2 PUSH1 0x0 DUP6 GAS CALL SWAP1 DUP2 ISZERO PUSH2 0x135E JUMPI PUSH2 0x2098 SWAP5 PUSH1 0x20 SWAP3 PUSH2 0x221E JUMPI JUMPDEST POP PUSH2 0x205C PUSH1 0x2 PUSH2 0xE36 JUMP JUMPDEST SWAP1 PUSH2 0x206C PUSH2 0x2011 PUSH1 0x1 DUP11 ADD PUSH2 0x901 JUMP JUMPDEST SWAP2 PUSH1 0x0 PUSH2 0x2078 PUSH1 0x40 MLOAD SWAP1 JUMP JUMPDEST DUP1 SWAP9 DUP2 SWAP6 DUP3 SWAP5 PUSH2 0x208C PUSH4 0x23B872DD PUSH1 0xE0 SHL SWAP1 JUMP JUMPDEST DUP5 MSTORE DUP10 PUSH1 0x4 DUP6 ADD PUSH2 0x1D8C JUMP JUMPDEST SUB SWAP3 GAS CALL SWAP3 DUP4 ISZERO PUSH2 0x135E JUMPI PUSH2 0x20EB SWAP4 PUSH2 0x2202 JUMPI JUMPDEST POP PUSH1 0x20 PUSH2 0x20B9 PUSH1 0x1 PUSH2 0xE36 JUMP JUMPDEST PUSH2 0x20C8 PUSH2 0x2011 PUSH1 0x2 DUP10 ADD PUSH2 0x901 JUMP JUMPDEST SWAP1 PUSH2 0x20D2 PUSH1 0x40 MLOAD SWAP1 JUMP JUMPDEST SWAP6 DUP7 SWAP3 DUP4 SWAP3 PUSH4 0x23B872DD PUSH1 0xE0 SHL DUP5 MSTORE DUP7 PUSH1 0x4 DUP6 ADD PUSH2 0x1D8C JUMP JUMPDEST SUB DUP2 PUSH1 0x0 DUP7 GAS CALL SWAP2 DUP3 ISZERO PUSH2 0x135E JUMPI PUSH2 0x2145 SWAP4 PUSH1 0x20 SWAP4 PUSH2 0x21E7 JUMPI JUMPDEST POP PUSH2 0x2110 PUSH1 0x2 PUSH2 0xE36 JUMP JUMPDEST PUSH1 0x0 PUSH2 0x2121 PUSH2 0x2011 PUSH1 0x2 DUP11 ADD PUSH2 0x901 JUMP JUMPDEST SWAP4 PUSH2 0x212B PUSH1 0x40 MLOAD SWAP1 JUMP JUMPDEST SWAP7 DUP8 SWAP6 DUP7 SWAP5 DUP6 SWAP4 PUSH4 0x23B872DD PUSH1 0xE0 SHL DUP6 MSTORE PUSH1 0x4 DUP6 ADD PUSH2 0x1D8C JUMP JUMPDEST SUB SWAP3 GAS CALL DUP1 ISZERO PUSH2 0x135E JUMPI PUSH2 0x21CB JUMPI JUMPDEST POP JUMPDEST PUSH2 0x1A06 PUSH1 0x1 SWAP3 PUSH2 0x2166 DUP5 DUP7 PUSH2 0x18C8 JUMP JUMPDEST PUSH1 0x0 DUP2 ADD SWAP4 DUP1 DUP3 ADD SWAP6 PUSH2 0x2196 PUSH2 0x2190 PUSH1 0x3 PUSH2 0x2189 PUSH2 0x2183 DUP12 PUSH2 0x901 JUMP JUMPDEST SWAP11 PUSH2 0x901 JUMP JUMPDEST SWAP6 ADD PUSH2 0x901 JUMP JUMPDEST SWAP2 PUSH2 0x92A JUMP JUMPDEST SWAP3 PUSH32 0x7A5218350187D3AB901AE3C2001A4348CE5A2089AC30CE35D2FC55B53FEAC2A5 SWAP8 PUSH2 0x21C2 PUSH1 0x40 MLOAD SWAP1 JUMP JUMPDEST SWAP8 DUP9 SWAP8 DUP9 PUSH2 0x1DB6 JUMP JUMPDEST PUSH2 0x21E2 SWAP1 PUSH1 0x20 RETURNDATASIZE DUP2 GT PUSH2 0x1357 JUMPI PUSH2 0x134A DUP2 DUP4 PUSH2 0x4CE JUMP JUMPDEST PUSH2 0x2154 JUMP JUMPDEST PUSH2 0x21FD SWAP1 DUP5 RETURNDATASIZE DUP2 GT PUSH2 0x1357 JUMPI PUSH2 0x134A DUP2 DUP4 PUSH2 0x4CE JUMP JUMPDEST PUSH2 0x2105 JUMP JUMPDEST PUSH2 0x2219 SWAP1 PUSH1 0x20 RETURNDATASIZE DUP2 GT PUSH2 0x1357 JUMPI PUSH2 0x134A DUP2 DUP4 PUSH2 0x4CE JUMP JUMPDEST PUSH2 0x20AC JUMP JUMPDEST PUSH2 0x2234 SWAP1 DUP4 RETURNDATASIZE DUP2 GT PUSH2 0x1357 JUMPI PUSH2 0x134A DUP2 DUP4 PUSH2 0x4CE JUMP JUMPDEST PUSH2 0x2051 JUMP JUMPDEST PUSH1 0x20 PUSH2 0x2259 SWAP4 PUSH2 0x2249 PUSH1 0x1 PUSH2 0xE36 JUMP JUMPDEST SWAP1 PUSH2 0x206C PUSH2 0x1F58 PUSH1 0x1 DUP11 ADD PUSH2 0x901 JUMP JUMPDEST SUB SWAP3 GAS CALL SWAP2 DUP3 ISZERO PUSH2 0x135E JUMPI PUSH2 0x228C SWAP4 PUSH1 0x20 SWAP4 PUSH2 0x22BD JUMPI JUMPDEST POP PUSH2 0x227B PUSH1 0x1 PUSH2 0xE36 JUMP JUMPDEST PUSH1 0x0 PUSH2 0x2121 PUSH2 0x1F58 PUSH1 0x2 DUP11 ADD PUSH2 0x901 JUMP JUMPDEST SUB SWAP3 GAS CALL DUP1 ISZERO PUSH2 0x135E JUMPI PUSH2 0x22A1 JUMPI JUMPDEST POP PUSH2 0x2156 JUMP JUMPDEST PUSH2 0x22B8 SWAP1 PUSH1 0x20 RETURNDATASIZE DUP2 GT PUSH2 0x1357 JUMPI PUSH2 0x134A DUP2 DUP4 PUSH2 0x4CE JUMP JUMPDEST PUSH2 0x229B JUMP JUMPDEST PUSH2 0x22D3 SWAP1 DUP5 RETURNDATASIZE DUP2 GT PUSH2 0x1357 JUMPI PUSH2 0x134A DUP2 DUP4 PUSH2 0x4CE JUMP JUMPDEST PUSH2 0x2270 JUMP JUMPDEST PUSH2 0x22EF SWAP1 PUSH1 0x20 RETURNDATASIZE DUP2 GT PUSH2 0x1357 JUMPI PUSH2 0x134A DUP2 DUP4 PUSH2 0x4CE JUMP JUMPDEST PUSH2 0x1FDB JUMP JUMPDEST PUSH2 0x230B SWAP1 PUSH1 0x20 RETURNDATASIZE DUP2 GT PUSH2 0x1357 JUMPI PUSH2 0x134A DUP2 DUP4 PUSH2 0x4CE JUMP JUMPDEST PUSH2 0x1FA8 JUMP JUMPDEST SWAP1 PUSH2 0x242 SWAP3 SWAP2 PUSH2 0x1B93 JUMP JUMPDEST PUSH2 0x258 SWAP1 PUSH2 0x4F4 JUMP JUMPDEST PUSH2 0x232E PUSH1 0x4 PUSH2 0xE36 JUMP JUMPDEST SWAP1 PUSH2 0x2339 PUSH1 0x7 PUSH2 0x901 JUMP JUMPDEST SWAP1 PUSH2 0x2344 PUSH1 0x8 PUSH2 0x901 JUMP JUMPDEST SWAP2 PUSH2 0x234F PUSH1 0x9 PUSH2 0x901 JUMP JUMPDEST SWAP3 PUSH2 0x235A PUSH1 0xA PUSH2 0x901 JUMP JUMPDEST SWAP3 PUSH2 0x2365 PUSH1 0xC PUSH2 0x231B JUMP JUMPDEST SWAP5 PUSH2 0x2370 PUSH1 0xD PUSH2 0x231B JUMP JUMPDEST SWAP5 PUSH2 0x237B PUSH1 0xE PUSH2 0x914 JUMP JUMPDEST SWAP7 PUSH2 0x2385 ADDRESS PUSH2 0x5E1 JUMP JUMPDEST BALANCE SWAP7 PUSH2 0x2391 PUSH1 0xF PUSH2 0x231B JUMP JUMPDEST SWAP9 PUSH2 0x239C PUSH1 0x10 PUSH2 0x231B JUMP JUMPDEST SWAP9 PUSH2 0x23A7 PUSH1 0x11 PUSH2 0x231B JUMP JUMPDEST SWAP11 PUSH2 0x23B2 PUSH1 0x12 PUSH2 0x231B JUMP JUMPDEST SWAP11 PUSH2 0x23BD PUSH1 0x5 PUSH2 0xE36 JUMP JUMPDEST SWAP13 PUSH2 0x23C8 PUSH1 0x6 PUSH2 0xE36 JUMP JUMPDEST SWAP13 PUSH2 0x23D3 PUSH1 0xB PUSH2 0x901 JUMP JUMPDEST SWAP11 JUMP JUMPDEST PUSH2 0x258 PUSH2 0x23ED SWAP2 PUSH2 0x23E5 PUSH1 0x60 SWAP1 JUMP JUMPDEST POP PUSH1 0x15 PUSH2 0x8F0 JUMP JUMPDEST SWAP1 PUSH2 0x23F8 PUSH1 0xB PUSH2 0x901 JUMP JUMPDEST SWAP1 PUSH2 0x2402 DUP4 PUSH2 0x231B JUMP JUMPDEST SWAP3 PUSH2 0x240F PUSH1 0x1 DUP3 ADD PUSH2 0x901 JUMP JUMPDEST SWAP3 PUSH2 0x241C PUSH1 0x2 DUP4 ADD PUSH2 0x901 JUMP JUMPDEST SWAP3 PUSH1 0x5 PUSH2 0x242B PUSH1 0x3 DUP6 ADD PUSH2 0x901 JUMP JUMPDEST SWAP4 ADD SWAP1 PUSH2 0x258 PUSH2 0x243A DUP4 PUSH2 0x914 JUMP JUMPDEST SWAP3 PUSH2 0x92A JUMP INVALID POP PUSH19 0x6F6A65637420636F6E747261637420646F6573 KECCAK256 PUSH15 0x6F7420686176652065A26469706673 PC 0x22 SLT KECCAK256 0xDA 0x22 0xE9 PUSH11 0xC77F8F2326CBE92B877733 0x24 0xAC LOG2 MSTORE8 0xEB 0xCA 0xE9 0x5D 0xCD 0x2D 0xAC PUSH32 0xA1E39387DA64736F6C6343000812003300000000000000000000000000000000 "},"methodIdentifiers":{"completeAt()":"4c4cea5a","contribute(address,uint256,address)":"4cbc1553","contributiors(address)":"0a771370","createWithdrawRequest(string,address,uint256,uint256,uint256)":"d8abe8be","creator()":"02d05d3f","deadline()":"29dcb0cf","developer()":"ca4b208b","filterTags()":"a278a485","getContractBNBBalance()":"07d94e4a","getContractBalance(address)":"43ab265f","getProjectDetails()":"ff3a9c7e","githubUrl()":"18aa9f1e","isRevealed()":"54214f69","isVerified()":"80007e83","noOfContributers()":"24274ee9","numOfWithdrawRequests()":"b40141bf","projectCoverUrl()":"5eb32936","projectDes()":"03c29d58","projectTitle()":"c3e20c9f","raisedAmount()":"c59ee1dc","requestRefund()":"d5cef133","royaltyGraceExpiry()":"263a58aa","setRoyaltyGracePeriod(uint256)":"d688cf53","setVerification(bool)":"e9d1edde","setVisibility(bool)":"28c30c07","showDetailOfWR(uint256)":"0203d002","socialUrl()":"d1707551","state()":"c19d93fb","targetContribution()":"b82c86d6","voteWithdrawRequest(uint256)":"4e695a37","websiteUrl()":"abb5ca09","withdrawRequestedAmount(uint256,address,address)":"0add6b73","withdrawRequests(uint256)":"992a7dfb"}}}}}