{"contracts/BuildPoint.sol":{"BuildPoints":{"abi":[{"inputs":[],"stateMutability":"nonpayable","type":"constructor"},{"anonymous":false,"inputs":[{"indexed":true,"internalType":"address","name":"_owner","type":"address"},{"indexed":true,"internalType":"address","name":"_spender","type":"address"},{"indexed":false,"internalType":"uint256","name":"_value","type":"uint256"}],"name":"Approval","type":"event"},{"anonymous":false,"inputs":[{"indexed":true,"internalType":"address","name":"from","type":"address"},{"indexed":false,"internalType":"uint256","name":"value","type":"uint256"}],"name":"Burn","type":"event"},{"anonymous":false,"inputs":[{"indexed":true,"internalType":"address","name":"from","type":"address"},{"indexed":true,"internalType":"address","name":"to","type":"address"},{"indexed":false,"internalType":"uint256","name":"value","type":"uint256"}],"name":"Transfer","type":"event"},{"inputs":[{"internalType":"address","name":"_whitelist","type":"address"}],"name":"addToWhitelist","outputs":[],"stateMutability":"nonpayable","type":"function"},{"inputs":[{"internalType":"address","name":"","type":"address"},{"internalType":"address","name":"","type":"address"}],"name":"allowance","outputs":[{"internalType":"uint256","name":"","type":"uint256"}],"stateMutability":"view","type":"function"},{"inputs":[{"internalType":"address","name":"_spender","type":"address"},{"internalType":"uint256","name":"_value","type":"uint256"}],"name":"approve","outputs":[{"internalType":"bool","name":"success","type":"bool"}],"stateMutability":"nonpayable","type":"function"},{"inputs":[{"internalType":"address","name":"_spender","type":"address"},{"internalType":"uint256","name":"_value","type":"uint256"},{"internalType":"bytes","name":"_extraData","type":"bytes"}],"name":"approveAndCall","outputs":[{"internalType":"bool","name":"success","type":"bool"}],"stateMutability":"nonpayable","type":"function"},{"inputs":[{"internalType":"address","name":"","type":"address"}],"name":"balanceOf","outputs":[{"internalType":"uint256","name":"","type":"uint256"}],"stateMutability":"view","type":"function"},{"inputs":[{"internalType":"uint256","name":"_value","type":"uint256"}],"name":"burn","outputs":[{"internalType":"bool","name":"success","type":"bool"}],"stateMutability":"nonpayable","type":"function"},{"inputs":[{"internalType":"address","name":"_from","type":"address"},{"internalType":"uint256","name":"_value","type":"uint256"}],"name":"burnFrom","outputs":[{"internalType":"bool","name":"success","type":"bool"}],"stateMutability":"nonpayable","type":"function"},{"inputs":[],"name":"decimals","outputs":[{"internalType":"uint8","name":"","type":"uint8"}],"stateMutability":"view","type":"function"},{"inputs":[],"name":"name","outputs":[{"internalType":"string","name":"","type":"string"}],"stateMutability":"view","type":"function"},{"inputs":[],"name":"owner","outputs":[{"internalType":"address","name":"","type":"address"}],"stateMutability":"view","type":"function"},{"inputs":[{"internalType":"address","name":"_blacklist","type":"address"}],"name":"removeFromWhitelist","outputs":[],"stateMutability":"nonpayable","type":"function"},{"inputs":[],"name":"symbol","outputs":[{"internalType":"string","name":"","type":"string"}],"stateMutability":"view","type":"function"},{"inputs":[],"name":"totalSupply","outputs":[{"internalType":"uint256","name":"","type":"uint256"}],"stateMutability":"view","type":"function"},{"inputs":[{"internalType":"address","name":"_to","type":"address"},{"internalType":"uint256","name":"_value","type":"uint256"}],"name":"transfer","outputs":[{"internalType":"bool","name":"success","type":"bool"}],"stateMutability":"nonpayable","type":"function"},{"inputs":[{"internalType":"address","name":"_from","type":"address"},{"internalType":"address","name":"_to","type":"address"},{"internalType":"uint256","name":"_value","type":"uint256"}],"name":"transferFrom","outputs":[{"internalType":"bool","name":"success","type":"bool"}],"stateMutability":"nonpayable","type":"function"},{"inputs":[{"internalType":"address","name":"","type":"address"}],"name":"whitelisted","outputs":[{"internalType":"bool","name":"","type":"bool"}],"stateMutability":"view","type":"function"},{"inputs":[{"internalType":"uint256","name":"amount","type":"uint256"}],"name":"withdrawBNB","outputs":[],"stateMutability":"nonpayable","type":"function"},{"inputs":[{"internalType":"address","name":"tokenAddress","type":"address"},{"internalType":"uint256","name":"amount","type":"uint256"}],"name":"withdrawTokens","outputs":[],"stateMutability":"nonpayable","type":"function"}],"evm":{"bytecode":{"linkReferences":{},"object":"60806040523462000026576200001462000346565b6040516110a8620003fe82396110a890f35b600080fd5b634e487b7160e01b600052602260045260246000fd5b906001600283049216801562000064575b60208310146200005e57565b6200002b565b91607f169162000052565b9160001960089290920291821b911b5b9181191691161790565b6200009962000099620000999290565b90565b9190620000b162000099620000ba9362000089565b9083546200006f565b9055565b620000cc916000916200009c565b565b818110620000da575050565b80620000ea6000600193620000be565b01620000ce565b9190601f81116200010157505050565b62000115620000cc93600052602060002090565b906020601f84018190048301931062000139575b6020601f909101040190620000ce565b909150819062000129565b6200015d600b62000156835462000041565b83620000f1565b7f427569646c506f696e74730000000000000000000000000000000000000000169055565b620000cc9062000144565b6200019f600b62000156835462000041565b7f425549444c504f494e54530000000000000000000000000000000000000000169055565b620000cc906200018d565b9060ff906200007f565b620001e962000099620000999290565b60ff1690565b906200020362000099620000ba92620001d9565b8254620001cf565b6200009990620001e9565b6200009990546200020b565b6200009962000099620000999260ff1690565b634e487b7160e01b600052601160045260246000fd5b604d81116200025a57600a0a90565b62000235565b818102929181159184041417156200025a57565b90600019906200007f565b906200029362000099620000ba9262000089565b825462000274565b620000999081565b6200009990546200029b565b6200009990620002c5906001600160a01b031682565b6001600160a01b031690565b6200009990620002af565b6200009990620002d1565b90620002f390620002dc565b600052602052604060002090565b151590565b906200020362000099620000ba9262000301565b906001600160a01b03906200007f565b906200033e62000099620000ba92620002dc565b82546200031a565b62000352600062000182565b6200035e6001620001c4565b6200036c60126002620001ef565b620003b2620003aa633b9aca00620003a46200039d6200039762000391600262000216565b62000222565b6200024b565b9162000089565b62000260565b60036200027f565b620000cc620003c26003620002a3565b620003dc600491620003d6338094620002e7565b6200027f565b620003f56001620003ef836006620002e7565b62000306565b60076200032a56fe6080604052600436101561001257600080fd5b60003560e01c806306b091f91461013257806306fdde031461012d578063095ea7b314610128578063127f4b2e1461012357806318160ddd1461011e57806323b872dd14610119578063313ce5671461011457806342966c681461010f57806370a082311461010a57806379cc6790146101055780638ab1d681146101005780638da5cb5b146100fb57806395d89b41146100f6578063a9059cbb146100f1578063cae9ca51146100ec578063d936547e146100e7578063dd62ed3e146100e25763e43252d703610137576107f7565b6107db565b610783565b610750565b61066d565b610652565b61061f565b6105ca565b6105ae565b610593565b61050f565b6104e0565b61049e565b610442565b610408565b6103c6565b61039b565b6101a0565b600080fd5b6001600160a01b031690565b90565b6101548161013c565b0361013757565b905035906101688261014b565b565b80610154565b905035906101688261016a565b91906040838203126101375761014890610197818561015b565b93602001610170565b34610137576101b96101b336600461017d565b90610fa9565b604051005b0390f35b600091031261013757565b634e487b7160e01b600052600060045260246000fd5b634e487b7160e01b600052602260045260246000fd5b9060016002830492168015610219575b602083101461021457565b6101e3565b91607f1691610209565b80546000939291610240610236836101f9565b8085529360200190565b9160018116908115610292575060011461025957505050565b61026c9192939450600052602060002090565b916000925b81841061027e5750500190565b805484840152602090930192600101610271565b92949550505060ff1916825215156020020190565b9061014891610223565b634e487b7160e01b600052604160045260246000fd5b90601f01601f191681019081106001600160401b038211176102e857604052565b6102b1565b90610168610307926102fe60405190565b938480926102a7565b03836102c7565b9060001061031f57610148906102ed565b6101cd565b61014860008061030e565b60005b8381106103425750506000910152565b8181015183820152602001610332565b61037361037c60209361038693610367815190565b80835293849260200190565b9586910161032f565b601f01601f191690565b0190565b602080825261014892910190610352565b34610137576103ab3660046101c2565b6101be6103b6610324565b6040519182918261038a565b9052565b34610137576101be6103e26103dc36600461017d565b90610c4f565b60405191829182901515815260200190565b906020828203126101375761014891610170565b34610137576101b961041b3660046103f4565b611069565b610148916008021c81565b906101489154610420565b6101486000600361042b565b34610137576104523660046101c2565b6101be61045d610436565b6040515b9182918290815260200190565b909160608284031261013757610148610487848461015b565b93610495816020860161015b565b93604001610170565b34610137576101be6103e26104b436600461046e565b91610c42565b610148916008021c5b60ff1690565b9061014891546104ba565b610148600060026104c9565b34610137576104f03660046101c2565b6101be6104fb6104d4565b6040519182918260ff909116815260200190565b34610137576101be6103e26105253660046103f4565b610e39565b90602082820312610137576101489161015b565b6101489061013c906001600160a01b031682565b6101489061053e565b61014890610552565b9061056e9061055b565b600052602052604060002090565b6101489061058e600491600092610564565b61042b565b34610137576101be61045d6105a936600461052a565b61057c565b34610137576101be6103e26105c436600461017d565b90610eb8565b34610137576101b96105dd36600461052a565b61091d565b610148916008021c61013c565b9061014891546105e2565b610148600060076105ef565b6103c29061013c565b6020810192916101689190610606565b346101375761062f3660046101c2565b6101be61063a6105fa565b6040519182918261060f565b6101486000600161030e565b34610137576106623660046101c2565b6101be6103b6610646565b34610137576101be6103e261068336600461017d565b906109cb565b9061016861069660405190565b92836102c7565b6001600160401b0381116102e857602090601f01601f19160190565b90826000939282370152565b909291926106da6106d58261069d565b610689565b9381855260208501908284011161013757610168926106b9565b9080601f8301121561013757816020610148933591016106c5565b9160608383031261013757610724828461015b565b926107328360208301610170565b9260408201356001600160401b0381116101375761014892016106f4565b34610137576101be6103e261076636600461070f565b91610cf0565b6101489061077e600691600092610564565b6104c9565b34610137576101be6103e261079936600461052a565b61076c565b919060408382031261013757610148906107b8818561015b565b9360200161015b565b61058e610148926107d6600593600094610564565b610564565b34610137576101be61045d6107f136600461079e565b906107c1565b34610137576101b961080a36600461052a565b6108eb565b6101489061013c565b610148905461080f565b1561082957565b60405162461bcd60e51b815260206004820152602660248201527f4f6e6c7920746865206f776e65722063616e20706572666f726d20746869732060448201526530b1ba34b7b760d11b6064820152608490fd5b610168906108a6336108a061089a6108956007610818565b61013c565b9161013c565b14610822565b6108d5565b9060ff905b9181191691161790565b906108ca6101486108d192151590565b82546108ab565b9055565b610168906108e66001916006610564565b6108ba565b6101689061087d565b6101689061090c336108a061089a6108956007610818565b610168906108e66000916006610564565b610168906108f4565b610148906104c3565b6101489054610926565b1561094057565b60405162461bcd60e51b815260206004820152602660248201527f4f6e6c792077686974656c6973742063616e20706572666f726d20746869732060448201526530b1ba34b7b760d11b6064820152608490fd5b6101489291906109ba6109b06109ab336006610564565b61092f565b1515600114610939565b506109c6919033610a93565b600190565b61014891906000610994565b61013c6101486101489290565b610148906109d7565b1561013757565b6101489081565b61014890546109f4565b634e487b7160e01b600052601160045260246000fd5b9190610a26565b9290565b8201809211610a3157565b610a05565b91908203918211610a3157565b90600019906108b0565b6101486101486101489290565b90610a6a6101486108d192610a4d565b8254610a43565b634e487b7160e01b600052600160045260246000fd5b15610a8e57565b610a71565b610aed610a22610bd792610b41610ae86101689796610ac8610ab861089560006109e4565b610ac18361013c565b14156109ed565b610bd1610ae8600495610af88b610af1610aed610a22610ae8868d610564565b6109fb565b9190565b10156109ed565b610b24610b118c610b0c610ae8888c610564565b610a1b565b610af1610aed610148610ae8898d610564565b610b47610b34610ae8838a610564565b610b41610ae8878b610564565b90610a1b565b9a610b6d610b55838a610564565b610b6783610b62836109fb565b610a36565b90610a5a565b610b87610b7a868a610564565b610b6783610b0c836109fb565b7fddf252ad1be2c89b69c2b068fc378daa952ba7f163c4a11628f55a4df523b3ef610bb18361055b565b90610bc8610bbe8861055b565b9361046160405190565b0390a386610564565b93610564565b14610a87565b61014893929190610bf56109b06109ab336006610564565b506109c6929190610c3d610c3060056107d684610c128184610564565b926107d6610c27610148610ae8338098610564565b8a5b11156109ed565b610b6785610b62836109fb565b610a93565b6101489291906000610bdd565b33610c6883610c63846107d6856005610564565b610a5a565b610c9e610bbe610c987f8c5be1e5ebec7d5bd14f71427d1e84f3dd0314c0f7b2291e5b200ac8c7c3b9259361055b565b9361055b565b0390a3600190565b9092610cd790610ccd6101489694610cc660808601976000870190610606565b6020850152565b6040830190610606565b6060818403910152610352565b6040513d6000823e3d90fd5b9291600093610d0883610d028361055b565b92610c4f565b610d1157505050565b610d1e919293945061055b565b90638f4ffcb1913391610d303061055b565b90823b1561013757600094610d658692610d5a94610d4d60405190565b998a988997889660e01b90565b865260048601610ca6565b03925af18015610d9857610d7a575b50600190565b610d92906000610d8a81836102c7565b8101906101c2565b38610d74565b610ce4565b6101489190610db36109b06109ab336006610564565b5033610de2610dd58260046107d6610dce610ae88484610564565b8790610af1565b610b6784610b62836109fb565b610dfa610df383610b6260036109fb565b6003610a5a565b610e31610e277fcc16f5dbb4873280815c1ee09dbd06736cffcc184412cf7a71a0fdb75d397ca59261055b565b9261046160405190565b0390a2600190565b610148906000610d9d565b610148929190610e5b6109b06109ab336006610564565b50610de2610dd56004610e7b610e74610ae88684610564565b8690610af1565b6107d68460056107d6610eab83610e928185610564565b966107d68c610c29610aed610148610ae833809e610564565b610b678a610b62836109fb565b61014891906000610e44565b9061016891610edd336108a061089a6108956007610818565b610f2a565b801515610154565b9050519061016882610ee2565b906020828203126101375761014891610eea565b916020610168929493610f2660408201966000830190610606565b0152565b610f3d610f3860209261055b565b61055b565b63a9059cbb90610f6360003393610f6e610f5660405190565b9788968795869460e01b90565b845260048401610f0b565b03925af18015610d9857610f7f5750565b610f9f9060203d8111610fa2575b610f9781836102c7565b810190610ef7565b50565b503d610f8d565b9061016891610ec4565b61016890610fcb336108a061089a6108956007610818565b611042565b90610fdd6106d58361069d565b918252565b3d15610ffc57610ff13d610fd0565b903d6000602084013e565b606090565b1561100857565b60405162461bcd60e51b81526020600482015260126024820152712330b4b632b2103a379039b2b7321021272160711b6044820152606490fd5b60008061016892339061105460405190565b90818003925af1611063610fe2565b50611001565b61016890610fb356fea2646970667358221220066b1341ba95ce637ff55ca31a2eb00b7fe97e8e6e929b00301e528102c3e1d764736f6c63430008120033","opcodes":"PUSH1 0x80 PUSH1 0x40 MSTORE CALLVALUE PUSH3 0x26 JUMPI PUSH3 0x14 PUSH3 0x346 JUMP JUMPDEST PUSH1 0x40 MLOAD PUSH2 0x10A8 PUSH3 0x3FE DUP3 CODECOPY PUSH2 0x10A8 SWAP1 RETURN JUMPDEST PUSH1 0x0 DUP1 REVERT JUMPDEST PUSH4 0x4E487B71 PUSH1 0xE0 SHL PUSH1 0x0 MSTORE PUSH1 0x22 PUSH1 0x4 MSTORE PUSH1 0x24 PUSH1 0x0 REVERT JUMPDEST SWAP1 PUSH1 0x1 PUSH1 0x2 DUP4 DIV SWAP3 AND DUP1 ISZERO PUSH3 0x64 JUMPI JUMPDEST PUSH1 0x20 DUP4 LT EQ PUSH3 0x5E JUMPI JUMP JUMPDEST PUSH3 0x2B JUMP JUMPDEST SWAP2 PUSH1 0x7F AND SWAP2 PUSH3 0x52 JUMP JUMPDEST SWAP2 PUSH1 0x0 NOT PUSH1 0x8 SWAP3 SWAP1 SWAP3 MUL SWAP2 DUP3 SHL SWAP2 SHL JUMPDEST SWAP2 DUP2 NOT AND SWAP2 AND OR SWAP1 JUMP JUMPDEST PUSH3 0x99 PUSH3 0x99 PUSH3 0x99 SWAP3 SWAP1 JUMP JUMPDEST SWAP1 JUMP JUMPDEST SWAP2 SWAP1 PUSH3 0xB1 PUSH3 0x99 PUSH3 0xBA SWAP4 PUSH3 0x89 JUMP JUMPDEST SWAP1 DUP4 SLOAD PUSH3 0x6F JUMP JUMPDEST SWAP1 SSTORE JUMP JUMPDEST PUSH3 0xCC SWAP2 PUSH1 0x0 SWAP2 PUSH3 0x9C JUMP JUMPDEST JUMP JUMPDEST DUP2 DUP2 LT PUSH3 0xDA JUMPI POP POP JUMP JUMPDEST DUP1 PUSH3 0xEA PUSH1 0x0 PUSH1 0x1 SWAP4 PUSH3 0xBE JUMP JUMPDEST ADD PUSH3 0xCE JUMP JUMPDEST SWAP2 SWAP1 PUSH1 0x1F DUP2 GT PUSH3 0x101 JUMPI POP POP POP JUMP JUMPDEST PUSH3 0x115 PUSH3 0xCC SWAP4 PUSH1 0x0 MSTORE PUSH1 0x20 PUSH1 0x0 KECCAK256 SWAP1 JUMP JUMPDEST SWAP1 PUSH1 0x20 PUSH1 0x1F DUP5 ADD DUP2 SWAP1 DIV DUP4 ADD SWAP4 LT PUSH3 0x139 JUMPI JUMPDEST PUSH1 0x20 PUSH1 0x1F SWAP1 SWAP2 ADD DIV ADD SWAP1 PUSH3 0xCE JUMP JUMPDEST SWAP1 SWAP2 POP DUP2 SWAP1 PUSH3 0x129 JUMP JUMPDEST PUSH3 0x15D PUSH1 0xB PUSH3 0x156 DUP4 SLOAD PUSH3 0x41 JUMP JUMPDEST DUP4 PUSH3 0xF1 JUMP JUMPDEST PUSH32 0x427569646C506F696E7473000000000000000000000000000000000000000016 SWAP1 SSTORE JUMP JUMPDEST PUSH3 0xCC SWAP1 PUSH3 0x144 JUMP JUMPDEST PUSH3 0x19F PUSH1 0xB PUSH3 0x156 DUP4 SLOAD PUSH3 0x41 JUMP JUMPDEST PUSH32 0x425549444C504F494E5453000000000000000000000000000000000000000016 SWAP1 SSTORE JUMP JUMPDEST PUSH3 0xCC SWAP1 PUSH3 0x18D JUMP JUMPDEST SWAP1 PUSH1 0xFF SWAP1 PUSH3 0x7F JUMP JUMPDEST PUSH3 0x1E9 PUSH3 0x99 PUSH3 0x99 SWAP3 SWAP1 JUMP JUMPDEST PUSH1 0xFF AND SWAP1 JUMP JUMPDEST SWAP1 PUSH3 0x203 PUSH3 0x99 PUSH3 0xBA SWAP3 PUSH3 0x1D9 JUMP JUMPDEST DUP3 SLOAD PUSH3 0x1CF JUMP JUMPDEST PUSH3 0x99 SWAP1 PUSH3 0x1E9 JUMP JUMPDEST PUSH3 0x99 SWAP1 SLOAD PUSH3 0x20B JUMP JUMPDEST PUSH3 0x99 PUSH3 0x99 PUSH3 0x99 SWAP3 PUSH1 0xFF AND SWAP1 JUMP JUMPDEST PUSH4 0x4E487B71 PUSH1 0xE0 SHL PUSH1 0x0 MSTORE PUSH1 0x11 PUSH1 0x4 MSTORE PUSH1 0x24 PUSH1 0x0 REVERT JUMPDEST PUSH1 0x4D DUP2 GT PUSH3 0x25A JUMPI PUSH1 0xA EXP SWAP1 JUMP JUMPDEST PUSH3 0x235 JUMP JUMPDEST DUP2 DUP2 MUL SWAP3 SWAP2 DUP2 ISZERO SWAP2 DUP5 DIV EQ OR ISZERO PUSH3 0x25A JUMPI JUMP JUMPDEST SWAP1 PUSH1 0x0 NOT SWAP1 PUSH3 0x7F JUMP JUMPDEST SWAP1 PUSH3 0x293 PUSH3 0x99 PUSH3 0xBA SWAP3 PUSH3 0x89 JUMP JUMPDEST DUP3 SLOAD PUSH3 0x274 JUMP JUMPDEST PUSH3 0x99 SWAP1 DUP2 JUMP JUMPDEST PUSH3 0x99 SWAP1 SLOAD PUSH3 0x29B JUMP JUMPDEST PUSH3 0x99 SWAP1 PUSH3 0x2C5 SWAP1 PUSH1 0x1 PUSH1 0x1 PUSH1 0xA0 SHL SUB AND DUP3 JUMP JUMPDEST PUSH1 0x1 PUSH1 0x1 PUSH1 0xA0 SHL SUB AND SWAP1 JUMP JUMPDEST PUSH3 0x99 SWAP1 PUSH3 0x2AF JUMP JUMPDEST PUSH3 0x99 SWAP1 PUSH3 0x2D1 JUMP JUMPDEST SWAP1 PUSH3 0x2F3 SWAP1 PUSH3 0x2DC JUMP JUMPDEST PUSH1 0x0 MSTORE PUSH1 0x20 MSTORE PUSH1 0x40 PUSH1 0x0 KECCAK256 SWAP1 JUMP JUMPDEST ISZERO ISZERO SWAP1 JUMP JUMPDEST SWAP1 PUSH3 0x203 PUSH3 0x99 PUSH3 0xBA SWAP3 PUSH3 0x301 JUMP JUMPDEST SWAP1 PUSH1 0x1 PUSH1 0x1 PUSH1 0xA0 SHL SUB SWAP1 PUSH3 0x7F JUMP JUMPDEST SWAP1 PUSH3 0x33E PUSH3 0x99 PUSH3 0xBA SWAP3 PUSH3 0x2DC JUMP JUMPDEST DUP3 SLOAD PUSH3 0x31A JUMP JUMPDEST PUSH3 0x352 PUSH1 0x0 PUSH3 0x182 JUMP JUMPDEST PUSH3 0x35E PUSH1 0x1 PUSH3 0x1C4 JUMP JUMPDEST PUSH3 0x36C PUSH1 0x12 PUSH1 0x2 PUSH3 0x1EF JUMP JUMPDEST PUSH3 0x3B2 PUSH3 0x3AA PUSH4 0x3B9ACA00 PUSH3 0x3A4 PUSH3 0x39D PUSH3 0x397 PUSH3 0x391 PUSH1 0x2 PUSH3 0x216 JUMP JUMPDEST PUSH3 0x222 JUMP JUMPDEST PUSH3 0x24B JUMP JUMPDEST SWAP2 PUSH3 0x89 JUMP JUMPDEST PUSH3 0x260 JUMP JUMPDEST PUSH1 0x3 PUSH3 0x27F JUMP JUMPDEST PUSH3 0xCC PUSH3 0x3C2 PUSH1 0x3 PUSH3 0x2A3 JUMP JUMPDEST PUSH3 0x3DC PUSH1 0x4 SWAP2 PUSH3 0x3D6 CALLER DUP1 SWAP5 PUSH3 0x2E7 JUMP JUMPDEST PUSH3 0x27F JUMP JUMPDEST PUSH3 0x3F5 PUSH1 0x1 PUSH3 0x3EF DUP4 PUSH1 0x6 PUSH3 0x2E7 JUMP JUMPDEST PUSH3 0x306 JUMP JUMPDEST PUSH1 0x7 PUSH3 0x32A JUMP INVALID PUSH1 0x80 PUSH1 0x40 MSTORE PUSH1 0x4 CALLDATASIZE LT ISZERO PUSH2 0x12 JUMPI PUSH1 0x0 DUP1 REVERT JUMPDEST PUSH1 0x0 CALLDATALOAD PUSH1 0xE0 SHR DUP1 PUSH4 0x6B091F9 EQ PUSH2 0x132 JUMPI DUP1 PUSH4 0x6FDDE03 EQ PUSH2 0x12D JUMPI DUP1 PUSH4 0x95EA7B3 EQ PUSH2 0x128 JUMPI DUP1 PUSH4 0x127F4B2E EQ PUSH2 0x123 JUMPI DUP1 PUSH4 0x18160DDD EQ PUSH2 0x11E JUMPI DUP1 PUSH4 0x23B872DD EQ PUSH2 0x119 JUMPI DUP1 PUSH4 0x313CE567 EQ PUSH2 0x114 JUMPI DUP1 PUSH4 0x42966C68 EQ PUSH2 0x10F JUMPI DUP1 PUSH4 0x70A08231 EQ PUSH2 0x10A JUMPI DUP1 PUSH4 0x79CC6790 EQ PUSH2 0x105 JUMPI DUP1 PUSH4 0x8AB1D681 EQ PUSH2 0x100 JUMPI DUP1 PUSH4 0x8DA5CB5B EQ PUSH2 0xFB JUMPI DUP1 PUSH4 0x95D89B41 EQ PUSH2 0xF6 JUMPI DUP1 PUSH4 0xA9059CBB EQ PUSH2 0xF1 JUMPI DUP1 PUSH4 0xCAE9CA51 EQ PUSH2 0xEC JUMPI DUP1 PUSH4 0xD936547E EQ PUSH2 0xE7 JUMPI DUP1 PUSH4 0xDD62ED3E EQ PUSH2 0xE2 JUMPI PUSH4 0xE43252D7 SUB PUSH2 0x137 JUMPI PUSH2 0x7F7 JUMP JUMPDEST PUSH2 0x7DB JUMP JUMPDEST PUSH2 0x783 JUMP JUMPDEST PUSH2 0x750 JUMP JUMPDEST PUSH2 0x66D JUMP JUMPDEST PUSH2 0x652 JUMP JUMPDEST PUSH2 0x61F JUMP JUMPDEST PUSH2 0x5CA JUMP JUMPDEST PUSH2 0x5AE JUMP JUMPDEST PUSH2 0x593 JUMP JUMPDEST PUSH2 0x50F JUMP JUMPDEST PUSH2 0x4E0 JUMP JUMPDEST PUSH2 0x49E JUMP JUMPDEST PUSH2 0x442 JUMP JUMPDEST PUSH2 0x408 JUMP JUMPDEST PUSH2 0x3C6 JUMP JUMPDEST PUSH2 0x39B JUMP JUMPDEST PUSH2 0x1A0 JUMP JUMPDEST PUSH1 0x0 DUP1 REVERT JUMPDEST PUSH1 0x1 PUSH1 0x1 PUSH1 0xA0 SHL SUB AND SWAP1 JUMP JUMPDEST SWAP1 JUMP JUMPDEST PUSH2 0x154 DUP2 PUSH2 0x13C JUMP JUMPDEST SUB PUSH2 0x137 JUMPI JUMP JUMPDEST SWAP1 POP CALLDATALOAD SWAP1 PUSH2 0x168 DUP3 PUSH2 0x14B JUMP JUMPDEST JUMP JUMPDEST DUP1 PUSH2 0x154 JUMP JUMPDEST SWAP1 POP CALLDATALOAD SWAP1 PUSH2 0x168 DUP3 PUSH2 0x16A JUMP JUMPDEST SWAP2 SWAP1 PUSH1 0x40 DUP4 DUP3 SUB SLT PUSH2 0x137 JUMPI PUSH2 0x148 SWAP1 PUSH2 0x197 DUP2 DUP6 PUSH2 0x15B JUMP JUMPDEST SWAP4 PUSH1 0x20 ADD PUSH2 0x170 JUMP JUMPDEST CALLVALUE PUSH2 0x137 JUMPI PUSH2 0x1B9 PUSH2 0x1B3 CALLDATASIZE PUSH1 0x4 PUSH2 0x17D JUMP JUMPDEST SWAP1 PUSH2 0xFA9 JUMP JUMPDEST PUSH1 0x40 MLOAD STOP JUMPDEST SUB SWAP1 RETURN JUMPDEST PUSH1 0x0 SWAP2 SUB SLT PUSH2 0x137 JUMPI JUMP JUMPDEST PUSH4 0x4E487B71 PUSH1 0xE0 SHL PUSH1 0x0 MSTORE PUSH1 0x0 PUSH1 0x4 MSTORE PUSH1 0x24 PUSH1 0x0 REVERT JUMPDEST PUSH4 0x4E487B71 PUSH1 0xE0 SHL PUSH1 0x0 MSTORE PUSH1 0x22 PUSH1 0x4 MSTORE PUSH1 0x24 PUSH1 0x0 REVERT JUMPDEST SWAP1 PUSH1 0x1 PUSH1 0x2 DUP4 DIV SWAP3 AND DUP1 ISZERO PUSH2 0x219 JUMPI JUMPDEST PUSH1 0x20 DUP4 LT EQ PUSH2 0x214 JUMPI JUMP JUMPDEST PUSH2 0x1E3 JUMP JUMPDEST SWAP2 PUSH1 0x7F AND SWAP2 PUSH2 0x209 JUMP JUMPDEST DUP1 SLOAD PUSH1 0x0 SWAP4 SWAP3 SWAP2 PUSH2 0x240 PUSH2 0x236 DUP4 PUSH2 0x1F9 JUMP JUMPDEST DUP1 DUP6 MSTORE SWAP4 PUSH1 0x20 ADD SWAP1 JUMP JUMPDEST SWAP2 PUSH1 0x1 DUP2 AND SWAP1 DUP2 ISZERO PUSH2 0x292 JUMPI POP PUSH1 0x1 EQ PUSH2 0x259 JUMPI POP POP POP JUMP JUMPDEST PUSH2 0x26C SWAP2 SWAP3 SWAP4 SWAP5 POP PUSH1 0x0 MSTORE PUSH1 0x20 PUSH1 0x0 KECCAK256 SWAP1 JUMP JUMPDEST SWAP2 PUSH1 0x0 SWAP3 JUMPDEST DUP2 DUP5 LT PUSH2 0x27E JUMPI POP POP ADD SWAP1 JUMP JUMPDEST DUP1 SLOAD DUP5 DUP5 ADD MSTORE PUSH1 0x20 SWAP1 SWAP4 ADD SWAP3 PUSH1 0x1 ADD PUSH2 0x271 JUMP JUMPDEST SWAP3 SWAP5 SWAP6 POP POP POP PUSH1 0xFF NOT AND DUP3 MSTORE ISZERO ISZERO PUSH1 0x20 MUL ADD SWAP1 JUMP JUMPDEST SWAP1 PUSH2 0x148 SWAP2 PUSH2 0x223 JUMP JUMPDEST PUSH4 0x4E487B71 PUSH1 0xE0 SHL PUSH1 0x0 MSTORE PUSH1 0x41 PUSH1 0x4 MSTORE PUSH1 0x24 PUSH1 0x0 REVERT JUMPDEST SWAP1 PUSH1 0x1F ADD PUSH1 0x1F NOT AND DUP2 ADD SWAP1 DUP2 LT PUSH1 0x1 PUSH1 0x1 PUSH1 0x40 SHL SUB DUP3 GT OR PUSH2 0x2E8 JUMPI PUSH1 0x40 MSTORE JUMP JUMPDEST PUSH2 0x2B1 JUMP JUMPDEST SWAP1 PUSH2 0x168 PUSH2 0x307 SWAP3 PUSH2 0x2FE PUSH1 0x40 MLOAD SWAP1 JUMP JUMPDEST SWAP4 DUP5 DUP1 SWAP3 PUSH2 0x2A7 JUMP JUMPDEST SUB DUP4 PUSH2 0x2C7 JUMP JUMPDEST SWAP1 PUSH1 0x0 LT PUSH2 0x31F JUMPI PUSH2 0x148 SWAP1 PUSH2 0x2ED JUMP JUMPDEST PUSH2 0x1CD JUMP JUMPDEST PUSH2 0x148 PUSH1 0x0 DUP1 PUSH2 0x30E JUMP JUMPDEST PUSH1 0x0 JUMPDEST DUP4 DUP2 LT PUSH2 0x342 JUMPI POP POP PUSH1 0x0 SWAP2 ADD MSTORE JUMP JUMPDEST DUP2 DUP2 ADD MLOAD DUP4 DUP3 ADD MSTORE PUSH1 0x20 ADD PUSH2 0x332 JUMP JUMPDEST PUSH2 0x373 PUSH2 0x37C PUSH1 0x20 SWAP4 PUSH2 0x386 SWAP4 PUSH2 0x367 DUP2 MLOAD SWAP1 JUMP JUMPDEST DUP1 DUP4 MSTORE SWAP4 DUP5 SWAP3 PUSH1 0x20 ADD SWAP1 JUMP JUMPDEST SWAP6 DUP7 SWAP2 ADD PUSH2 0x32F JUMP JUMPDEST PUSH1 0x1F ADD PUSH1 0x1F NOT AND SWAP1 JUMP JUMPDEST ADD SWAP1 JUMP JUMPDEST PUSH1 0x20 DUP1 DUP3 MSTORE PUSH2 0x148 SWAP3 SWAP2 ADD SWAP1 PUSH2 0x352 JUMP JUMPDEST CALLVALUE PUSH2 0x137 JUMPI PUSH2 0x3AB CALLDATASIZE PUSH1 0x4 PUSH2 0x1C2 JUMP JUMPDEST PUSH2 0x1BE PUSH2 0x3B6 PUSH2 0x324 JUMP JUMPDEST PUSH1 0x40 MLOAD SWAP2 DUP3 SWAP2 DUP3 PUSH2 0x38A JUMP JUMPDEST SWAP1 MSTORE JUMP JUMPDEST CALLVALUE PUSH2 0x137 JUMPI PUSH2 0x1BE PUSH2 0x3E2 PUSH2 0x3DC CALLDATASIZE PUSH1 0x4 PUSH2 0x17D JUMP JUMPDEST SWAP1 PUSH2 0xC4F JUMP JUMPDEST PUSH1 0x40 MLOAD SWAP2 DUP3 SWAP2 DUP3 SWAP1 ISZERO ISZERO DUP2 MSTORE PUSH1 0x20 ADD SWAP1 JUMP JUMPDEST SWAP1 PUSH1 0x20 DUP3 DUP3 SUB SLT PUSH2 0x137 JUMPI PUSH2 0x148 SWAP2 PUSH2 0x170 JUMP JUMPDEST CALLVALUE PUSH2 0x137 JUMPI PUSH2 0x1B9 PUSH2 0x41B CALLDATASIZE PUSH1 0x4 PUSH2 0x3F4 JUMP JUMPDEST PUSH2 0x1069 JUMP JUMPDEST PUSH2 0x148 SWAP2 PUSH1 0x8 MUL SHR DUP2 JUMP JUMPDEST SWAP1 PUSH2 0x148 SWAP2 SLOAD PUSH2 0x420 JUMP JUMPDEST PUSH2 0x148 PUSH1 0x0 PUSH1 0x3 PUSH2 0x42B JUMP JUMPDEST CALLVALUE PUSH2 0x137 JUMPI PUSH2 0x452 CALLDATASIZE PUSH1 0x4 PUSH2 0x1C2 JUMP JUMPDEST PUSH2 0x1BE PUSH2 0x45D PUSH2 0x436 JUMP JUMPDEST PUSH1 0x40 MLOAD JUMPDEST SWAP2 DUP3 SWAP2 DUP3 SWAP1 DUP2 MSTORE PUSH1 0x20 ADD SWAP1 JUMP JUMPDEST SWAP1 SWAP2 PUSH1 0x60 DUP3 DUP5 SUB SLT PUSH2 0x137 JUMPI PUSH2 0x148 PUSH2 0x487 DUP5 DUP5 PUSH2 0x15B JUMP JUMPDEST SWAP4 PUSH2 0x495 DUP2 PUSH1 0x20 DUP7 ADD PUSH2 0x15B JUMP JUMPDEST SWAP4 PUSH1 0x40 ADD PUSH2 0x170 JUMP JUMPDEST CALLVALUE PUSH2 0x137 JUMPI PUSH2 0x1BE PUSH2 0x3E2 PUSH2 0x4B4 CALLDATASIZE PUSH1 0x4 PUSH2 0x46E JUMP JUMPDEST SWAP2 PUSH2 0xC42 JUMP JUMPDEST PUSH2 0x148 SWAP2 PUSH1 0x8 MUL SHR JUMPDEST PUSH1 0xFF AND SWAP1 JUMP JUMPDEST SWAP1 PUSH2 0x148 SWAP2 SLOAD PUSH2 0x4BA JUMP JUMPDEST PUSH2 0x148 PUSH1 0x0 PUSH1 0x2 PUSH2 0x4C9 JUMP JUMPDEST CALLVALUE PUSH2 0x137 JUMPI PUSH2 0x4F0 CALLDATASIZE PUSH1 0x4 PUSH2 0x1C2 JUMP JUMPDEST PUSH2 0x1BE PUSH2 0x4FB PUSH2 0x4D4 JUMP JUMPDEST PUSH1 0x40 MLOAD SWAP2 DUP3 SWAP2 DUP3 PUSH1 0xFF SWAP1 SWAP2 AND DUP2 MSTORE PUSH1 0x20 ADD SWAP1 JUMP JUMPDEST CALLVALUE PUSH2 0x137 JUMPI PUSH2 0x1BE PUSH2 0x3E2 PUSH2 0x525 CALLDATASIZE PUSH1 0x4 PUSH2 0x3F4 JUMP JUMPDEST PUSH2 0xE39 JUMP JUMPDEST SWAP1 PUSH1 0x20 DUP3 DUP3 SUB SLT PUSH2 0x137 JUMPI PUSH2 0x148 SWAP2 PUSH2 0x15B JUMP JUMPDEST PUSH2 0x148 SWAP1 PUSH2 0x13C SWAP1 PUSH1 0x1 PUSH1 0x1 PUSH1 0xA0 SHL SUB AND DUP3 JUMP JUMPDEST PUSH2 0x148 SWAP1 PUSH2 0x53E JUMP JUMPDEST PUSH2 0x148 SWAP1 PUSH2 0x552 JUMP JUMPDEST SWAP1 PUSH2 0x56E SWAP1 PUSH2 0x55B JUMP JUMPDEST PUSH1 0x0 MSTORE PUSH1 0x20 MSTORE PUSH1 0x40 PUSH1 0x0 KECCAK256 SWAP1 JUMP JUMPDEST PUSH2 0x148 SWAP1 PUSH2 0x58E PUSH1 0x4 SWAP2 PUSH1 0x0 SWAP3 PUSH2 0x564 JUMP JUMPDEST PUSH2 0x42B JUMP JUMPDEST CALLVALUE PUSH2 0x137 JUMPI PUSH2 0x1BE PUSH2 0x45D PUSH2 0x5A9 CALLDATASIZE PUSH1 0x4 PUSH2 0x52A JUMP JUMPDEST PUSH2 0x57C JUMP JUMPDEST CALLVALUE PUSH2 0x137 JUMPI PUSH2 0x1BE PUSH2 0x3E2 PUSH2 0x5C4 CALLDATASIZE PUSH1 0x4 PUSH2 0x17D JUMP JUMPDEST SWAP1 PUSH2 0xEB8 JUMP JUMPDEST CALLVALUE PUSH2 0x137 JUMPI PUSH2 0x1B9 PUSH2 0x5DD CALLDATASIZE PUSH1 0x4 PUSH2 0x52A JUMP JUMPDEST PUSH2 0x91D JUMP JUMPDEST PUSH2 0x148 SWAP2 PUSH1 0x8 MUL SHR PUSH2 0x13C JUMP JUMPDEST SWAP1 PUSH2 0x148 SWAP2 SLOAD PUSH2 0x5E2 JUMP JUMPDEST PUSH2 0x148 PUSH1 0x0 PUSH1 0x7 PUSH2 0x5EF JUMP JUMPDEST PUSH2 0x3C2 SWAP1 PUSH2 0x13C JUMP JUMPDEST PUSH1 0x20 DUP2 ADD SWAP3 SWAP2 PUSH2 0x168 SWAP2 SWAP1 PUSH2 0x606 JUMP JUMPDEST CALLVALUE PUSH2 0x137 JUMPI PUSH2 0x62F CALLDATASIZE PUSH1 0x4 PUSH2 0x1C2 JUMP JUMPDEST PUSH2 0x1BE PUSH2 0x63A PUSH2 0x5FA JUMP JUMPDEST PUSH1 0x40 MLOAD SWAP2 DUP3 SWAP2 DUP3 PUSH2 0x60F JUMP JUMPDEST PUSH2 0x148 PUSH1 0x0 PUSH1 0x1 PUSH2 0x30E JUMP JUMPDEST CALLVALUE PUSH2 0x137 JUMPI PUSH2 0x662 CALLDATASIZE PUSH1 0x4 PUSH2 0x1C2 JUMP JUMPDEST PUSH2 0x1BE PUSH2 0x3B6 PUSH2 0x646 JUMP JUMPDEST CALLVALUE PUSH2 0x137 JUMPI PUSH2 0x1BE PUSH2 0x3E2 PUSH2 0x683 CALLDATASIZE PUSH1 0x4 PUSH2 0x17D JUMP JUMPDEST SWAP1 PUSH2 0x9CB JUMP JUMPDEST SWAP1 PUSH2 0x168 PUSH2 0x696 PUSH1 0x40 MLOAD SWAP1 JUMP JUMPDEST SWAP3 DUP4 PUSH2 0x2C7 JUMP JUMPDEST PUSH1 0x1 PUSH1 0x1 PUSH1 0x40 SHL SUB DUP2 GT PUSH2 0x2E8 JUMPI PUSH1 0x20 SWAP1 PUSH1 0x1F ADD PUSH1 0x1F NOT AND ADD SWAP1 JUMP JUMPDEST SWAP1 DUP3 PUSH1 0x0 SWAP4 SWAP3 DUP3 CALLDATACOPY ADD MSTORE JUMP JUMPDEST SWAP1 SWAP3 SWAP2 SWAP3 PUSH2 0x6DA PUSH2 0x6D5 DUP3 PUSH2 0x69D JUMP JUMPDEST PUSH2 0x689 JUMP JUMPDEST SWAP4 DUP2 DUP6 MSTORE PUSH1 0x20 DUP6 ADD SWAP1 DUP3 DUP5 ADD GT PUSH2 0x137 JUMPI PUSH2 0x168 SWAP3 PUSH2 0x6B9 JUMP JUMPDEST SWAP1 DUP1 PUSH1 0x1F DUP4 ADD SLT ISZERO PUSH2 0x137 JUMPI DUP2 PUSH1 0x20 PUSH2 0x148 SWAP4 CALLDATALOAD SWAP2 ADD PUSH2 0x6C5 JUMP JUMPDEST SWAP2 PUSH1 0x60 DUP4 DUP4 SUB SLT PUSH2 0x137 JUMPI PUSH2 0x724 DUP3 DUP5 PUSH2 0x15B JUMP JUMPDEST SWAP3 PUSH2 0x732 DUP4 PUSH1 0x20 DUP4 ADD PUSH2 0x170 JUMP JUMPDEST SWAP3 PUSH1 0x40 DUP3 ADD CALLDATALOAD PUSH1 0x1 PUSH1 0x1 PUSH1 0x40 SHL SUB DUP2 GT PUSH2 0x137 JUMPI PUSH2 0x148 SWAP3 ADD PUSH2 0x6F4 JUMP JUMPDEST CALLVALUE PUSH2 0x137 JUMPI PUSH2 0x1BE PUSH2 0x3E2 PUSH2 0x766 CALLDATASIZE PUSH1 0x4 PUSH2 0x70F JUMP JUMPDEST SWAP2 PUSH2 0xCF0 JUMP JUMPDEST PUSH2 0x148 SWAP1 PUSH2 0x77E PUSH1 0x6 SWAP2 PUSH1 0x0 SWAP3 PUSH2 0x564 JUMP JUMPDEST PUSH2 0x4C9 JUMP JUMPDEST CALLVALUE PUSH2 0x137 JUMPI PUSH2 0x1BE PUSH2 0x3E2 PUSH2 0x799 CALLDATASIZE PUSH1 0x4 PUSH2 0x52A JUMP JUMPDEST PUSH2 0x76C JUMP JUMPDEST SWAP2 SWAP1 PUSH1 0x40 DUP4 DUP3 SUB SLT PUSH2 0x137 JUMPI PUSH2 0x148 SWAP1 PUSH2 0x7B8 DUP2 DUP6 PUSH2 0x15B JUMP JUMPDEST SWAP4 PUSH1 0x20 ADD PUSH2 0x15B JUMP JUMPDEST PUSH2 0x58E PUSH2 0x148 SWAP3 PUSH2 0x7D6 PUSH1 0x5 SWAP4 PUSH1 0x0 SWAP5 PUSH2 0x564 JUMP JUMPDEST PUSH2 0x564 JUMP JUMPDEST CALLVALUE PUSH2 0x137 JUMPI PUSH2 0x1BE PUSH2 0x45D PUSH2 0x7F1 CALLDATASIZE PUSH1 0x4 PUSH2 0x79E JUMP JUMPDEST SWAP1 PUSH2 0x7C1 JUMP JUMPDEST CALLVALUE PUSH2 0x137 JUMPI PUSH2 0x1B9 PUSH2 0x80A CALLDATASIZE PUSH1 0x4 PUSH2 0x52A JUMP JUMPDEST PUSH2 0x8EB JUMP JUMPDEST PUSH2 0x148 SWAP1 PUSH2 0x13C JUMP JUMPDEST PUSH2 0x148 SWAP1 SLOAD PUSH2 0x80F JUMP JUMPDEST ISZERO PUSH2 0x829 JUMPI JUMP JUMPDEST PUSH1 0x40 MLOAD PUSH3 0x461BCD PUSH1 0xE5 SHL DUP2 MSTORE PUSH1 0x20 PUSH1 0x4 DUP3 ADD MSTORE PUSH1 0x26 PUSH1 0x24 DUP3 ADD MSTORE PUSH32 0x4F6E6C7920746865206F776E65722063616E20706572666F726D207468697320 PUSH1 0x44 DUP3 ADD MSTORE PUSH6 0x30B1BA34B7B7 PUSH1 0xD1 SHL PUSH1 0x64 DUP3 ADD MSTORE PUSH1 0x84 SWAP1 REVERT JUMPDEST PUSH2 0x168 SWAP1 PUSH2 0x8A6 CALLER PUSH2 0x8A0 PUSH2 0x89A PUSH2 0x895 PUSH1 0x7 PUSH2 0x818 JUMP JUMPDEST PUSH2 0x13C JUMP JUMPDEST SWAP2 PUSH2 0x13C JUMP JUMPDEST EQ PUSH2 0x822 JUMP JUMPDEST PUSH2 0x8D5 JUMP JUMPDEST SWAP1 PUSH1 0xFF SWAP1 JUMPDEST SWAP2 DUP2 NOT AND SWAP2 AND OR SWAP1 JUMP JUMPDEST SWAP1 PUSH2 0x8CA PUSH2 0x148 PUSH2 0x8D1 SWAP3 ISZERO ISZERO SWAP1 JUMP JUMPDEST DUP3 SLOAD PUSH2 0x8AB JUMP JUMPDEST SWAP1 SSTORE JUMP JUMPDEST PUSH2 0x168 SWAP1 PUSH2 0x8E6 PUSH1 0x1 SWAP2 PUSH1 0x6 PUSH2 0x564 JUMP JUMPDEST PUSH2 0x8BA JUMP JUMPDEST PUSH2 0x168 SWAP1 PUSH2 0x87D JUMP JUMPDEST PUSH2 0x168 SWAP1 PUSH2 0x90C CALLER PUSH2 0x8A0 PUSH2 0x89A PUSH2 0x895 PUSH1 0x7 PUSH2 0x818 JUMP JUMPDEST PUSH2 0x168 SWAP1 PUSH2 0x8E6 PUSH1 0x0 SWAP2 PUSH1 0x6 PUSH2 0x564 JUMP JUMPDEST PUSH2 0x168 SWAP1 PUSH2 0x8F4 JUMP JUMPDEST PUSH2 0x148 SWAP1 PUSH2 0x4C3 JUMP JUMPDEST PUSH2 0x148 SWAP1 SLOAD PUSH2 0x926 JUMP JUMPDEST ISZERO PUSH2 0x940 JUMPI JUMP JUMPDEST PUSH1 0x40 MLOAD PUSH3 0x461BCD PUSH1 0xE5 SHL DUP2 MSTORE PUSH1 0x20 PUSH1 0x4 DUP3 ADD MSTORE PUSH1 0x26 PUSH1 0x24 DUP3 ADD MSTORE PUSH32 0x4F6E6C792077686974656C6973742063616E20706572666F726D207468697320 PUSH1 0x44 DUP3 ADD MSTORE PUSH6 0x30B1BA34B7B7 PUSH1 0xD1 SHL PUSH1 0x64 DUP3 ADD MSTORE PUSH1 0x84 SWAP1 REVERT JUMPDEST PUSH2 0x148 SWAP3 SWAP2 SWAP1 PUSH2 0x9BA PUSH2 0x9B0 PUSH2 0x9AB CALLER PUSH1 0x6 PUSH2 0x564 JUMP JUMPDEST PUSH2 0x92F JUMP JUMPDEST ISZERO ISZERO PUSH1 0x1 EQ PUSH2 0x939 JUMP JUMPDEST POP PUSH2 0x9C6 SWAP2 SWAP1 CALLER PUSH2 0xA93 JUMP JUMPDEST PUSH1 0x1 SWAP1 JUMP JUMPDEST PUSH2 0x148 SWAP2 SWAP1 PUSH1 0x0 PUSH2 0x994 JUMP JUMPDEST PUSH2 0x13C PUSH2 0x148 PUSH2 0x148 SWAP3 SWAP1 JUMP JUMPDEST PUSH2 0x148 SWAP1 PUSH2 0x9D7 JUMP JUMPDEST ISZERO PUSH2 0x137 JUMPI JUMP JUMPDEST PUSH2 0x148 SWAP1 DUP2 JUMP JUMPDEST PUSH2 0x148 SWAP1 SLOAD PUSH2 0x9F4 JUMP JUMPDEST PUSH4 0x4E487B71 PUSH1 0xE0 SHL PUSH1 0x0 MSTORE PUSH1 0x11 PUSH1 0x4 MSTORE PUSH1 0x24 PUSH1 0x0 REVERT JUMPDEST SWAP2 SWAP1 PUSH2 0xA26 JUMP JUMPDEST SWAP3 SWAP1 JUMP JUMPDEST DUP3 ADD DUP1 SWAP3 GT PUSH2 0xA31 JUMPI JUMP JUMPDEST PUSH2 0xA05 JUMP JUMPDEST SWAP2 SWAP1 DUP3 SUB SWAP2 DUP3 GT PUSH2 0xA31 JUMPI JUMP JUMPDEST SWAP1 PUSH1 0x0 NOT SWAP1 PUSH2 0x8B0 JUMP JUMPDEST PUSH2 0x148 PUSH2 0x148 PUSH2 0x148 SWAP3 SWAP1 JUMP JUMPDEST SWAP1 PUSH2 0xA6A PUSH2 0x148 PUSH2 0x8D1 SWAP3 PUSH2 0xA4D JUMP JUMPDEST DUP3 SLOAD PUSH2 0xA43 JUMP JUMPDEST PUSH4 0x4E487B71 PUSH1 0xE0 SHL PUSH1 0x0 MSTORE PUSH1 0x1 PUSH1 0x4 MSTORE PUSH1 0x24 PUSH1 0x0 REVERT JUMPDEST ISZERO PUSH2 0xA8E JUMPI JUMP JUMPDEST PUSH2 0xA71 JUMP JUMPDEST PUSH2 0xAED PUSH2 0xA22 PUSH2 0xBD7 SWAP3 PUSH2 0xB41 PUSH2 0xAE8 PUSH2 0x168 SWAP8 SWAP7 PUSH2 0xAC8 PUSH2 0xAB8 PUSH2 0x895 PUSH1 0x0 PUSH2 0x9E4 JUMP JUMPDEST PUSH2 0xAC1 DUP4 PUSH2 0x13C JUMP JUMPDEST EQ ISZERO PUSH2 0x9ED JUMP JUMPDEST PUSH2 0xBD1 PUSH2 0xAE8 PUSH1 0x4 SWAP6 PUSH2 0xAF8 DUP12 PUSH2 0xAF1 PUSH2 0xAED PUSH2 0xA22 PUSH2 0xAE8 DUP7 DUP14 PUSH2 0x564 JUMP JUMPDEST PUSH2 0x9FB JUMP JUMPDEST SWAP2 SWAP1 JUMP JUMPDEST LT ISZERO PUSH2 0x9ED JUMP JUMPDEST PUSH2 0xB24 PUSH2 0xB11 DUP13 PUSH2 0xB0C PUSH2 0xAE8 DUP9 DUP13 PUSH2 0x564 JUMP JUMPDEST PUSH2 0xA1B JUMP JUMPDEST PUSH2 0xAF1 PUSH2 0xAED PUSH2 0x148 PUSH2 0xAE8 DUP10 DUP14 PUSH2 0x564 JUMP JUMPDEST PUSH2 0xB47 PUSH2 0xB34 PUSH2 0xAE8 DUP4 DUP11 PUSH2 0x564 JUMP JUMPDEST PUSH2 0xB41 PUSH2 0xAE8 DUP8 DUP12 PUSH2 0x564 JUMP JUMPDEST SWAP1 PUSH2 0xA1B JUMP JUMPDEST SWAP11 PUSH2 0xB6D PUSH2 0xB55 DUP4 DUP11 PUSH2 0x564 JUMP JUMPDEST PUSH2 0xB67 DUP4 PUSH2 0xB62 DUP4 PUSH2 0x9FB JUMP JUMPDEST PUSH2 0xA36 JUMP JUMPDEST SWAP1 PUSH2 0xA5A JUMP JUMPDEST PUSH2 0xB87 PUSH2 0xB7A DUP7 DUP11 PUSH2 0x564 JUMP JUMPDEST PUSH2 0xB67 DUP4 PUSH2 0xB0C DUP4 PUSH2 0x9FB JUMP JUMPDEST PUSH32 0xDDF252AD1BE2C89B69C2B068FC378DAA952BA7F163C4A11628F55A4DF523B3EF PUSH2 0xBB1 DUP4 PUSH2 0x55B JUMP JUMPDEST SWAP1 PUSH2 0xBC8 PUSH2 0xBBE DUP9 PUSH2 0x55B JUMP JUMPDEST SWAP4 PUSH2 0x461 PUSH1 0x40 MLOAD SWAP1 JUMP JUMPDEST SUB SWAP1 LOG3 DUP7 PUSH2 0x564 JUMP JUMPDEST SWAP4 PUSH2 0x564 JUMP JUMPDEST EQ PUSH2 0xA87 JUMP JUMPDEST PUSH2 0x148 SWAP4 SWAP3 SWAP2 SWAP1 PUSH2 0xBF5 PUSH2 0x9B0 PUSH2 0x9AB CALLER PUSH1 0x6 PUSH2 0x564 JUMP JUMPDEST POP PUSH2 0x9C6 SWAP3 SWAP2 SWAP1 PUSH2 0xC3D PUSH2 0xC30 PUSH1 0x5 PUSH2 0x7D6 DUP5 PUSH2 0xC12 DUP2 DUP5 PUSH2 0x564 JUMP JUMPDEST SWAP3 PUSH2 0x7D6 PUSH2 0xC27 PUSH2 0x148 PUSH2 0xAE8 CALLER DUP1 SWAP9 PUSH2 0x564 JUMP JUMPDEST DUP11 JUMPDEST GT ISZERO PUSH2 0x9ED JUMP JUMPDEST PUSH2 0xB67 DUP6 PUSH2 0xB62 DUP4 PUSH2 0x9FB JUMP JUMPDEST PUSH2 0xA93 JUMP JUMPDEST PUSH2 0x148 SWAP3 SWAP2 SWAP1 PUSH1 0x0 PUSH2 0xBDD JUMP JUMPDEST CALLER PUSH2 0xC68 DUP4 PUSH2 0xC63 DUP5 PUSH2 0x7D6 DUP6 PUSH1 0x5 PUSH2 0x564 JUMP JUMPDEST PUSH2 0xA5A JUMP JUMPDEST PUSH2 0xC9E PUSH2 0xBBE PUSH2 0xC98 PUSH32 0x8C5BE1E5EBEC7D5BD14F71427D1E84F3DD0314C0F7B2291E5B200AC8C7C3B925 SWAP4 PUSH2 0x55B JUMP JUMPDEST SWAP4 PUSH2 0x55B JUMP JUMPDEST SUB SWAP1 LOG3 PUSH1 0x1 SWAP1 JUMP JUMPDEST SWAP1 SWAP3 PUSH2 0xCD7 SWAP1 PUSH2 0xCCD PUSH2 0x148 SWAP7 SWAP5 PUSH2 0xCC6 PUSH1 0x80 DUP7 ADD SWAP8 PUSH1 0x0 DUP8 ADD SWAP1 PUSH2 0x606 JUMP JUMPDEST PUSH1 0x20 DUP6 ADD MSTORE JUMP JUMPDEST PUSH1 0x40 DUP4 ADD SWAP1 PUSH2 0x606 JUMP JUMPDEST PUSH1 0x60 DUP2 DUP5 SUB SWAP2 ADD MSTORE PUSH2 0x352 JUMP JUMPDEST PUSH1 0x40 MLOAD RETURNDATASIZE PUSH1 0x0 DUP3 RETURNDATACOPY RETURNDATASIZE SWAP1 REVERT JUMPDEST SWAP3 SWAP2 PUSH1 0x0 SWAP4 PUSH2 0xD08 DUP4 PUSH2 0xD02 DUP4 PUSH2 0x55B JUMP JUMPDEST SWAP3 PUSH2 0xC4F JUMP JUMPDEST PUSH2 0xD11 JUMPI POP POP POP JUMP JUMPDEST PUSH2 0xD1E SWAP2 SWAP3 SWAP4 SWAP5 POP PUSH2 0x55B JUMP JUMPDEST SWAP1 PUSH4 0x8F4FFCB1 SWAP2 CALLER SWAP2 PUSH2 0xD30 ADDRESS PUSH2 0x55B JUMP JUMPDEST SWAP1 DUP3 EXTCODESIZE ISZERO PUSH2 0x137 JUMPI PUSH1 0x0 SWAP5 PUSH2 0xD65 DUP7 SWAP3 PUSH2 0xD5A SWAP5 PUSH2 0xD4D PUSH1 0x40 MLOAD SWAP1 JUMP JUMPDEST SWAP10 DUP11 SWAP9 DUP10 SWAP8 DUP9 SWAP7 PUSH1 0xE0 SHL SWAP1 JUMP JUMPDEST DUP7 MSTORE PUSH1 0x4 DUP7 ADD PUSH2 0xCA6 JUMP JUMPDEST SUB SWAP3 GAS CALL DUP1 ISZERO PUSH2 0xD98 JUMPI PUSH2 0xD7A JUMPI JUMPDEST POP PUSH1 0x1 SWAP1 JUMP JUMPDEST PUSH2 0xD92 SWAP1 PUSH1 0x0 PUSH2 0xD8A DUP2 DUP4 PUSH2 0x2C7 JUMP JUMPDEST DUP2 ADD SWAP1 PUSH2 0x1C2 JUMP JUMPDEST CODESIZE PUSH2 0xD74 JUMP JUMPDEST PUSH2 0xCE4 JUMP JUMPDEST PUSH2 0x148 SWAP2 SWAP1 PUSH2 0xDB3 PUSH2 0x9B0 PUSH2 0x9AB CALLER PUSH1 0x6 PUSH2 0x564 JUMP JUMPDEST POP CALLER PUSH2 0xDE2 PUSH2 0xDD5 DUP3 PUSH1 0x4 PUSH2 0x7D6 PUSH2 0xDCE PUSH2 0xAE8 DUP5 DUP5 PUSH2 0x564 JUMP JUMPDEST DUP8 SWAP1 PUSH2 0xAF1 JUMP JUMPDEST PUSH2 0xB67 DUP5 PUSH2 0xB62 DUP4 PUSH2 0x9FB JUMP JUMPDEST PUSH2 0xDFA PUSH2 0xDF3 DUP4 PUSH2 0xB62 PUSH1 0x3 PUSH2 0x9FB JUMP JUMPDEST PUSH1 0x3 PUSH2 0xA5A JUMP JUMPDEST PUSH2 0xE31 PUSH2 0xE27 PUSH32 0xCC16F5DBB4873280815C1EE09DBD06736CFFCC184412CF7A71A0FDB75D397CA5 SWAP3 PUSH2 0x55B JUMP JUMPDEST SWAP3 PUSH2 0x461 PUSH1 0x40 MLOAD SWAP1 JUMP JUMPDEST SUB SWAP1 LOG2 PUSH1 0x1 SWAP1 JUMP JUMPDEST PUSH2 0x148 SWAP1 PUSH1 0x0 PUSH2 0xD9D JUMP JUMPDEST PUSH2 0x148 SWAP3 SWAP2 SWAP1 PUSH2 0xE5B PUSH2 0x9B0 PUSH2 0x9AB CALLER PUSH1 0x6 PUSH2 0x564 JUMP JUMPDEST POP PUSH2 0xDE2 PUSH2 0xDD5 PUSH1 0x4 PUSH2 0xE7B PUSH2 0xE74 PUSH2 0xAE8 DUP7 DUP5 PUSH2 0x564 JUMP JUMPDEST DUP7 SWAP1 PUSH2 0xAF1 JUMP JUMPDEST PUSH2 0x7D6 DUP5 PUSH1 0x5 PUSH2 0x7D6 PUSH2 0xEAB DUP4 PUSH2 0xE92 DUP2 DUP6 PUSH2 0x564 JUMP JUMPDEST SWAP7 PUSH2 0x7D6 DUP13 PUSH2 0xC29 PUSH2 0xAED PUSH2 0x148 PUSH2 0xAE8 CALLER DUP1 SWAP15 PUSH2 0x564 JUMP JUMPDEST PUSH2 0xB67 DUP11 PUSH2 0xB62 DUP4 PUSH2 0x9FB JUMP JUMPDEST PUSH2 0x148 SWAP2 SWAP1 PUSH1 0x0 PUSH2 0xE44 JUMP JUMPDEST SWAP1 PUSH2 0x168 SWAP2 PUSH2 0xEDD CALLER PUSH2 0x8A0 PUSH2 0x89A PUSH2 0x895 PUSH1 0x7 PUSH2 0x818 JUMP JUMPDEST PUSH2 0xF2A JUMP JUMPDEST DUP1 ISZERO ISZERO PUSH2 0x154 JUMP JUMPDEST SWAP1 POP MLOAD SWAP1 PUSH2 0x168 DUP3 PUSH2 0xEE2 JUMP JUMPDEST SWAP1 PUSH1 0x20 DUP3 DUP3 SUB SLT PUSH2 0x137 JUMPI PUSH2 0x148 SWAP2 PUSH2 0xEEA JUMP JUMPDEST SWAP2 PUSH1 0x20 PUSH2 0x168 SWAP3 SWAP5 SWAP4 PUSH2 0xF26 PUSH1 0x40 DUP3 ADD SWAP7 PUSH1 0x0 DUP4 ADD SWAP1 PUSH2 0x606 JUMP JUMPDEST ADD MSTORE JUMP JUMPDEST PUSH2 0xF3D PUSH2 0xF38 PUSH1 0x20 SWAP3 PUSH2 0x55B JUMP JUMPDEST PUSH2 0x55B JUMP JUMPDEST PUSH4 0xA9059CBB SWAP1 PUSH2 0xF63 PUSH1 0x0 CALLER SWAP4 PUSH2 0xF6E PUSH2 0xF56 PUSH1 0x40 MLOAD SWAP1 JUMP JUMPDEST SWAP8 DUP9 SWAP7 DUP8 SWAP6 DUP7 SWAP5 PUSH1 0xE0 SHL SWAP1 JUMP JUMPDEST DUP5 MSTORE PUSH1 0x4 DUP5 ADD PUSH2 0xF0B JUMP JUMPDEST SUB SWAP3 GAS CALL DUP1 ISZERO PUSH2 0xD98 JUMPI PUSH2 0xF7F JUMPI POP JUMP JUMPDEST PUSH2 0xF9F SWAP1 PUSH1 0x20 RETURNDATASIZE DUP2 GT PUSH2 0xFA2 JUMPI JUMPDEST PUSH2 0xF97 DUP2 DUP4 PUSH2 0x2C7 JUMP JUMPDEST DUP2 ADD SWAP1 PUSH2 0xEF7 JUMP JUMPDEST POP JUMP JUMPDEST POP RETURNDATASIZE PUSH2 0xF8D JUMP JUMPDEST SWAP1 PUSH2 0x168 SWAP2 PUSH2 0xEC4 JUMP JUMPDEST PUSH2 0x168 SWAP1 PUSH2 0xFCB CALLER PUSH2 0x8A0 PUSH2 0x89A PUSH2 0x895 PUSH1 0x7 PUSH2 0x818 JUMP JUMPDEST PUSH2 0x1042 JUMP JUMPDEST SWAP1 PUSH2 0xFDD PUSH2 0x6D5 DUP4 PUSH2 0x69D JUMP JUMPDEST SWAP2 DUP3 MSTORE JUMP JUMPDEST RETURNDATASIZE ISZERO PUSH2 0xFFC JUMPI PUSH2 0xFF1 RETURNDATASIZE PUSH2 0xFD0 JUMP JUMPDEST SWAP1 RETURNDATASIZE PUSH1 0x0 PUSH1 0x20 DUP5 ADD RETURNDATACOPY JUMP JUMPDEST PUSH1 0x60 SWAP1 JUMP JUMPDEST ISZERO PUSH2 0x1008 JUMPI JUMP JUMPDEST PUSH1 0x40 MLOAD PUSH3 0x461BCD PUSH1 0xE5 SHL DUP2 MSTORE PUSH1 0x20 PUSH1 0x4 DUP3 ADD MSTORE PUSH1 0x12 PUSH1 0x24 DUP3 ADD MSTORE PUSH18 0x2330B4B632B2103A379039B2B73210212721 PUSH1 0x71 SHL PUSH1 0x44 DUP3 ADD MSTORE PUSH1 0x64 SWAP1 REVERT JUMPDEST PUSH1 0x0 DUP1 PUSH2 0x168 SWAP3 CALLER SWAP1 PUSH2 0x1054 PUSH1 0x40 MLOAD SWAP1 JUMP JUMPDEST SWAP1 DUP2 DUP1 SUB SWAP3 GAS CALL PUSH2 0x1063 PUSH2 0xFE2 JUMP JUMPDEST POP PUSH2 0x1001 JUMP JUMPDEST PUSH2 0x168 SWAP1 PUSH2 0xFB3 JUMP INVALID LOG2 PUSH5 0x6970667358 0x22 SLT KECCAK256 MOD PUSH12 0x1341BA95CE637FF55CA31A2E 0xB0 SIGNEXTEND PUSH32 0xE97E8E6E929B00301E528102C3E1D764736F6C63430008120033000000000000 "},"methodIdentifiers":{"addToWhitelist(address)":"e43252d7","allowance(address,address)":"dd62ed3e","approve(address,uint256)":"095ea7b3","approveAndCall(address,uint256,bytes)":"cae9ca51","balanceOf(address)":"70a08231","burn(uint256)":"42966c68","burnFrom(address,uint256)":"79cc6790","decimals()":"313ce567","name()":"06fdde03","owner()":"8da5cb5b","removeFromWhitelist(address)":"8ab1d681","symbol()":"95d89b41","totalSupply()":"18160ddd","transfer(address,uint256)":"a9059cbb","transferFrom(address,address,uint256)":"23b872dd","whitelisted(address)":"d936547e","withdrawBNB(uint256)":"127f4b2e","withdrawTokens(address,uint256)":"06b091f9"}}}}}