{"contracts/Project.sol":{"Project":{"abi":[{"inputs":[{"internalType":"address","name":"_owner","type":"address"},{"internalType":"address","name":"_creator","type":"address"},{"internalType":"address","name":"_masterContract","type":"address"},{"internalType":"address","name":"_usdt","type":"address"},{"internalType":"address","name":"_usdc","type":"address"},{"internalType":"uint256","name":"_minimumContribution","type":"uint256"},{"internalType":"uint256","name":"_deadline","type":"uint256"},{"internalType":"uint256","name":"_targetContribution","type":"uint256"},{"internalType":"string","name":"_projectTitle","type":"string"},{"internalType":"string","name":"_projectDes","type":"string"},{"internalType":"string","name":"_websiteUrl","type":"string"},{"internalType":"string","name":"_socialUrl","type":"string"},{"internalType":"string","name":"_githubUrl","type":"string"},{"internalType":"string","name":"_projectCoverUrl","type":"string"},{"internalType":"string","name":"_filterTags","type":"string"}],"stateMutability":"nonpayable","type":"constructor"},{"anonymous":false,"inputs":[{"indexed":false,"internalType":"uint256","name":"requestId","type":"uint256"},{"indexed":false,"internalType":"string","name":"description","type":"string"},{"indexed":false,"internalType":"address","name":"withdrawToken","type":"address"},{"indexed":false,"internalType":"uint256","name":"amount","type":"uint256"},{"indexed":false,"internalType":"uint256","name":"noOfVotes","type":"uint256"},{"indexed":false,"internalType":"bool","name":"isCompleted","type":"bool"},{"indexed":false,"internalType":"address","name":"reciptent","type":"address"}],"name":"AmountWithdrawSuccessful","type":"event"},{"anonymous":false,"inputs":[{"indexed":false,"internalType":"address","name":"contributor","type":"address"},{"indexed":false,"internalType":"uint256","name":"amount","type":"uint256"},{"indexed":false,"internalType":"uint256","name":"currentTotal","type":"uint256"}],"name":"FundingReceived","type":"event"},{"anonymous":false,"inputs":[{"indexed":false,"internalType":"uint256","name":"requestId","type":"uint256"},{"indexed":false,"internalType":"string","name":"description","type":"string"},{"indexed":false,"internalType":"uint256","name":"amount","type":"uint256"},{"indexed":false,"internalType":"uint256","name":"noOfVotes","type":"uint256"},{"indexed":false,"internalType":"bool","name":"isCompleted","type":"bool"},{"indexed":false,"internalType":"address","name":"reciptent","type":"address"}],"name":"WithdrawRequestCreated","type":"event"},{"anonymous":false,"inputs":[{"indexed":false,"internalType":"address","name":"voter","type":"address"},{"indexed":false,"internalType":"uint256","name":"totalVote","type":"uint256"}],"name":"WithdrawVote","type":"event"},{"inputs":[],"name":"completeAt","outputs":[{"internalType":"uint256","name":"","type":"uint256"}],"stateMutability":"view","type":"function"},{"inputs":[{"internalType":"address","name":"_contributor","type":"address"},{"internalType":"uint256","name":"amount","type":"uint256"},{"internalType":"contract IERC20","name":"tokenAddress","type":"address"}],"name":"contribute","outputs":[],"stateMutability":"nonpayable","type":"function"},{"inputs":[{"internalType":"address","name":"","type":"address"}],"name":"contributiors","outputs":[{"internalType":"uint256","name":"","type":"uint256"}],"stateMutability":"view","type":"function"},{"inputs":[{"internalType":"string","name":"_description","type":"string"},{"internalType":"uint256","name":"_amount","type":"uint256"},{"internalType":"address payable","name":"_reciptent","type":"address"},{"internalType":"address","name":"_withdrawToken","type":"address"},{"internalType":"uint256","name":"_requestId","type":"uint256"}],"name":"createWithdrawRequest","outputs":[],"stateMutability":"nonpayable","type":"function"},{"inputs":[],"name":"creator","outputs":[{"internalType":"address payable","name":"","type":"address"}],"stateMutability":"view","type":"function"},{"inputs":[],"name":"deadline","outputs":[{"internalType":"uint256","name":"","type":"uint256"}],"stateMutability":"view","type":"function"},{"inputs":[],"name":"developer","outputs":[{"internalType":"address payable","name":"","type":"address"}],"stateMutability":"view","type":"function"},{"inputs":[],"name":"filterTags","outputs":[{"internalType":"string","name":"","type":"string"}],"stateMutability":"view","type":"function"},{"inputs":[],"name":"getContractBNBBalance","outputs":[{"internalType":"uint256","name":"","type":"uint256"}],"stateMutability":"view","type":"function"},{"inputs":[{"internalType":"contract IERC20","name":"tokenAddress","type":"address"}],"name":"getContractBalance","outputs":[{"internalType":"uint256","name":"","type":"uint256"}],"stateMutability":"view","type":"function"},{"inputs":[],"name":"getProjectDetails","outputs":[{"internalType":"address payable","name":"projectStarter","type":"address"},{"internalType":"address payable","name":"usdtA","type":"address"},{"internalType":"address payable","name":"usdcA","type":"address"},{"internalType":"uint256","name":"minContribution","type":"uint256"},{"internalType":"uint256","name":"projectDeadline","type":"uint256"},{"internalType":"uint256","name":"goalAmount","type":"uint256"},{"internalType":"uint256","name":"completedTime","type":"uint256"},{"internalType":"uint256","name":"currentAmount","type":"uint256"},{"internalType":"string","name":"title","type":"string"},{"internalType":"string","name":"desc","type":"string"},{"internalType":"enum Project.State","name":"currentState","type":"uint8"},{"internalType":"uint256","name":"balance","type":"uint256"},{"internalType":"string","name":"website","type":"string"},{"internalType":"string","name":"social","type":"string"},{"internalType":"string","name":"github","type":"string"},{"internalType":"string","name":"projectCover","type":"string"}],"stateMutability":"view","type":"function"},{"inputs":[],"name":"githubUrl","outputs":[{"internalType":"string","name":"","type":"string"}],"stateMutability":"view","type":"function"},{"inputs":[],"name":"isRevealed","outputs":[{"internalType":"bool","name":"","type":"bool"}],"stateMutability":"view","type":"function"},{"inputs":[],"name":"isVerified","outputs":[{"internalType":"bool","name":"","type":"bool"}],"stateMutability":"view","type":"function"},{"inputs":[],"name":"minimumContribution","outputs":[{"internalType":"uint256","name":"","type":"uint256"}],"stateMutability":"view","type":"function"},{"inputs":[],"name":"noOfContributers","outputs":[{"internalType":"uint256","name":"","type":"uint256"}],"stateMutability":"view","type":"function"},{"inputs":[],"name":"numOfWithdrawRequests","outputs":[{"internalType":"uint256","name":"","type":"uint256"}],"stateMutability":"view","type":"function"},{"inputs":[],"name":"projectCoverUrl","outputs":[{"internalType":"string","name":"","type":"string"}],"stateMutability":"view","type":"function"},{"inputs":[],"name":"projectDes","outputs":[{"internalType":"string","name":"","type":"string"}],"stateMutability":"view","type":"function"},{"inputs":[],"name":"projectTitle","outputs":[{"internalType":"string","name":"","type":"string"}],"stateMutability":"view","type":"function"},{"inputs":[],"name":"raisedAmount","outputs":[{"internalType":"uint256","name":"","type":"uint256"}],"stateMutability":"view","type":"function"},{"inputs":[],"name":"requestRefund","outputs":[{"internalType":"bool","name":"","type":"bool"}],"stateMutability":"nonpayable","type":"function"},{"inputs":[],"name":"royaltyGraceExpiry","outputs":[{"internalType":"uint256","name":"","type":"uint256"}],"stateMutability":"view","type":"function"},{"inputs":[{"internalType":"uint256","name":"unixTs","type":"uint256"}],"name":"setRoyaltyGracePeriod","outputs":[],"stateMutability":"nonpayable","type":"function"},{"inputs":[{"internalType":"bool","name":"verified","type":"bool"}],"name":"setVerification","outputs":[],"stateMutability":"nonpayable","type":"function"},{"inputs":[{"internalType":"bool","name":"isVisible","type":"bool"}],"name":"setVisibility","outputs":[],"stateMutability":"nonpayable","type":"function"},{"inputs":[{"internalType":"uint256","name":"_requestId","type":"uint256"}],"name":"showDetailOfWR","outputs":[{"internalType":"string","name":"description","type":"string"},{"internalType":"address","name":"withdrawToken","type":"address"},{"internalType":"uint256","name":"amount","type":"uint256"},{"internalType":"uint256","name":"noOfVotes","type":"uint256"},{"internalType":"uint256","name":"percentOfVotes","type":"uint256"},{"internalType":"uint256","name":"contributors","type":"uint256"},{"internalType":"bool","name":"isCompleted","type":"bool"},{"internalType":"address payable","name":"reciptent","type":"address"}],"stateMutability":"view","type":"function"},{"inputs":[],"name":"socialUrl","outputs":[{"internalType":"string","name":"","type":"string"}],"stateMutability":"view","type":"function"},{"inputs":[],"name":"state","outputs":[{"internalType":"enum Project.State","name":"","type":"uint8"}],"stateMutability":"view","type":"function"},{"inputs":[],"name":"targetContribution","outputs":[{"internalType":"uint256","name":"","type":"uint256"}],"stateMutability":"view","type":"function"},{"inputs":[{"internalType":"uint256","name":"_requestId","type":"uint256"}],"name":"voteWithdrawRequest","outputs":[],"stateMutability":"nonpayable","type":"function"},{"inputs":[],"name":"websiteUrl","outputs":[{"internalType":"string","name":"","type":"string"}],"stateMutability":"view","type":"function"},{"inputs":[{"internalType":"uint256","name":"_requestId","type":"uint256"},{"internalType":"contract IERC20","name":"_withdrawToken","type":"address"}],"name":"withdrawRequestedAmount","outputs":[],"stateMutability":"nonpayable","type":"function"},{"inputs":[{"internalType":"uint256","name":"","type":"uint256"}],"name":"withdrawRequests","outputs":[{"internalType":"string","name":"description","type":"string"},{"internalType":"address","name":"withdrawToken","type":"address"},{"internalType":"uint256","name":"amount","type":"uint256"},{"internalType":"uint256","name":"noOfVotes","type":"uint256"},{"internalType":"bool","name":"isCompleted","type":"bool"},{"internalType":"address payable","name":"reciptent","type":"address"}],"stateMutability":"view","type":"function"}],"evm":{"bytecode":{"linkReferences":{},"object":"60806040523462000043576200003162000018620002f5565b9d9c909c9b919b9a929a999399989498979597620006cc565b60405161239c62000a1f823961239c90f35b600080fd5b634e487b7160e01b600052604160045260246000fd5b90601f01601f191681019081106001600160401b038211176200008057604052565b62000048565b906200009d6200009560405190565b92836200005e565b565b6001600160a01b031690565b90565b6001600160a01b0381165b036200004357565b905051906200009d82620000ae565b80620000b9565b905051906200009d82620000d0565b6001600160401b0381116200008057602090601f01601f19160190565b0190565b60005b8381106200011b5750506000910152565b81810151838201526020016200010a565b90929192620001456200013f82620000e6565b62000086565b9381855260208501908284011162000043576200009d9262000107565b9080601f8301121562000043578151620000ab926020016200012c565b916101e0838303126200004357620001988284620000c1565b92620001a88360208301620000c1565b926040620001b982828501620000c1565b93620001c98360608601620000c1565b93620001d98460808301620000c1565b93620001e98160a08401620000d7565b93620001f98260c08501620000d7565b93620002098360e08601620000d7565b93610100810151600180851b0381116200004357846200022b91830162000162565b93610120820151600180861b0381116200004357816200024d91840162000162565b93610140830151600180831b0381116200004357826200026f91850162000162565b93610160840151600180841b0381116200004357836200029191860162000162565b93610180810151600180851b038111620000435784620002b391830162000162565b936101a0820151600180861b038111620000435781620002d591840162000162565b936001806101c0850151921b0381116200004357620000ab920162000162565b6200031862002dbb803803806200030c8162000086565b9283398101906200017f565b909192939495969798999a9b9c9d9e565b620000ab906200009f906001600160a01b031682565b620000ab9062000329565b620000ab906200033f565b906001600160a01b03905b9181191691161790565b906200037e620000ab62000386926200034a565b825462000355565b9055565b906000199062000360565b620000ab620000ab620000ab9290565b90620003b9620000ab620003869262000395565b82546200038a565b9060ff9062000360565b634e487b7160e01b600052602160045260246000fd5b60031115620003ec57565b620003cb565b906200009d82620003e1565b620000ab90620003f2565b906200041d620000ab6200038692620003fe565b8254620003c1565b9061ff009060081b62000360565b9062000446620000ab6200038692151590565b825462000425565b9062ff00009060101b62000360565b9062000470620000ab6200038692151590565b82546200044e565b634e487b7160e01b600052602260045260246000fd5b9060016002830492168015620004b1575b6020831014620004ab57565b62000478565b91607f16916200049f565b9160001960089290920291821b911b62000360565b9190620004e6620000ab620003869362000395565b908354620004bc565b6200009d91600091620004d1565b81811062000509575050565b80620005196000600193620004ef565b01620004fd565b9190601f81116200053057505050565b620005446200009d93600052602060002090565b906020601f84018190048301931062000568575b6020601f909101040190620004fd565b909150819062000558565b906200057d815190565b906001600160401b0382116200008057620005a5826200059e85546200048e565b8562000520565b602090601f8311600114620005e45762000386929160009183620005d8575b5050600019600883021c1916906002021790565b015190503880620005c4565b601f19831691620005fa85600052602060002090565b9260005b8181106200063b5750916002939185600196941062000621575b50505002019055565b01516000196008601f8516021c1916905538808062000618565b91936020600181928787015181550195019201620005fe565b906200009d9162000573565b801515620000b9565b905051906200009d8262000660565b906020828203126200004357620000ab9162000669565b9052565b6200068f9062000395565b6001600160a01b0390911681526040810192916200009d916020019062000693565b6040513d6000823e3d90fd5b819d9a96929e99959e9c98949b9793919c730811029baf786c77f1adba0c0dc29952d012c37b620006fd906200034a565b6200070a9060026200036a565b6200071a62bc614e6003620003a5565b60009e8f926200072c84600f62000409565b6200073984600f62000433565b6200074684600f6200045d565b62000753846017620003a5565b6200075e8d620009ba565b62000769906200034a565b620007769060016200036a565b62000781906200034a565b6200078e9060046200036a565b62000799906200034a565b620007a4916200036a565b620007af906200034a565b99620007bd8b60056200036a565b620007c8906200034a565b9c620007d68e60066200036a565b620007e3906007620003a5565b620007f0906008620003a5565b620007fd906009620003a5565b6200080a90600d62000654565b6200081790600e62000654565b620008228862000395565b6200082f90600b620003a5565b6200083c90601062000654565b6200084990601162000654565b6200085690601262000654565b6200086390601462000654565b6200087090601362000654565b6200087b906200034a565b9063095ea7b3610102946200088f60405190565b936200089b8360e01b90565b85528480620008af8987600484016200069e565b0381885a94602095f19384156200094857620008db620008f79287926020976200094e575b506200034a565b9262000903620008ea60405190565b9889968795869460e01b90565b8452600484016200069e565b03925af1908115620009485750620009185750565b6200093d9060203d811162000940575b6200093481836200005e565b81019062000678565b50565b503d62000928565b620006c0565b6200096890883d811162000940576200093481836200005e565b620008d4565b620009936200099d602093620001039362000987815190565b80835293849260200190565b9586910162000107565b601f01601f191690565b6020808252620000ab929101906200096e565b620009eb620009fb6200009d92620009d160405190565b63104c13eb60e21b602082015292839160248301620009a7565b602082018103825203826200005e565b6000809162000a126a636f6e736f6c652e6c6f6790565b602082519201905afa5056fe60a0604052600436101561001257600080fd5b60003560e01c80630203d0021461023257806302d05d3f1461022d57806303c29d581461022857806307d94e4a146102235780630a7713701461021e57806318aa9f1e1461021957806324274ee914610214578063263a58aa1461020f57806328c30c071461020a57806329dcb0cf1461020557806343ab265f146102005780634c4cea5a146101fb5780634cbc1553146101f65780634e695a37146101f157806354214f69146101ec5780635eb32936146101e757806362d809a6146101e257806380007e83146101dd578063937e09b1146101d8578063992a7dfb146101d3578063a278a485146101ce578063abb5ca09146101c9578063b40141bf146101c4578063b82c86d6146101bf578063b9bb6e30146101ba578063c19d93fb146101b5578063c3e20c9f146101b0578063c59ee1dc146101ab578063ca4b208b146101a6578063d1707551146101a1578063d5cef1331461019c578063d688cf5314610197578063e9d1edde146101925763ff3a9c7e0361023757610e13565b610d1a565b610d02565b610ce7565b610ccc565b610ca5565b610c7e565b610c57565b610c24565b610bab565b610aaa565b610a83565b610a5c565b610a35565b6109f5565b6108c7565b6108a0565b61087b565b61083d565b610804565b6107c6565b6107ad565b610762565b61073b565b610720565b6106f7565b6106b3565b61068c565b610665565b61063e565b610576565b61054f565b6103a5565b610334565b600080fd5b805b0361023757565b905035906102528261023c565b565b906020828203126102375761026891610245565b90565b60005b83811061027e5750506000910152565b818101518382015260200161026e565b6102af6102b86020936102c2936102a3815190565b80835293849260200190565b9586910161026b565b601f01601f191690565b0190565b6001600160a01b031690565b9052565b959391989796949290610100870187810360008901526102f59161028e565b6001600160a01b03909916602087015260408601526060850152608084015260a0830152151560c082015260e001610252916001600160a01b03169052565b346102375761036b61034f61034a366004610254565b6122cc565b9461036298969894919493929360405190565b988998896102d6565b0390f35b600091031261023757565b610268916008021c6001600160a01b031690565b90610268915461037a565b6102686000600461038e565b34610237576103b536600461036f565b61036b6103c0610399565b604051918291826001600160a01b03909116815260200190565b634e487b7160e01b600052600060045260246000fd5b634e487b7160e01b600052602260045260246000fd5b9060016002830492168015610426575b602083101461042157565b6103f0565b91607f1691610416565b8054600093929161044d61044383610406565b8085529360200190565b916001811690811561049f575060011461046657505050565b6104799192939450600052602060002090565b916000925b81841061048b5750500190565b80548484015260209093019260010161047e565b92949550505060ff1916825215156020020190565b9061026891610430565b634e487b7160e01b600052604160045260246000fd5b90601f01601f1916810190811067ffffffffffffffff8211176104f657604052565b6104be565b906102526105159261050c60405190565b938480926104b4565b03836104d4565b9060001061052d57610268906104fb565b6103da565b6102686000600e61051c565b60208082526102689291019061028e565b346102375761055f36600461036f565b61036b61056a610532565b6040519182918261053e565b346102375761058636600461036f565b61036b61059161148e565b6040519182918290815260200190565b6001600160a01b03811661023e565b90503590610252826105a1565b9060208282031261023757610268916105b0565b6102c6610268610268926001600160a01b031690565b610268906105d1565b610268906105e7565b90610603906105f0565b600052602052604060002090565b610268916008021c81565b906102689154610611565b610268906106396015916000926105f9565b61061c565b346102375761036b6105916106543660046105bd565b610627565b6102686000601261051c565b346102375761067536600461036f565b61036b61056a610659565b6102686000600c61061c565b346102375761069c36600461036f565b61036b610591610680565b6102686000600361061c565b34610237576106c336600461036f565b61036b6105916106a7565b80151561023e565b90503590610252826106ce565b9060208282031261023757610268916106d6565b346102375761070f61070a3660046106e3565b610fa4565b604051005b6102686000600861061c565b346102375761073036600461036f565b61036b610591610714565b346102375761036b6105916107513660046105bd565b61149b565b6102686000600a61061c565b346102375761077236600461036f565b61036b610591610756565b90916060828403126102375761026861079684846105b0565b936107a48160208601610245565b936040016105b0565b346102375761070f6107c036600461077d565b91611405565b346102375761070f6107d9366004610254565b611b90565b610268916008021c5b60ff1690565b9061026891546107de565b6102686001600f6107ed565b346102375761081436600461036f565b61036b61081f6107f8565b60405191829182901515815260200190565b6102686000601361051c565b346102375761084d36600461036f565b61036b61056a610831565b919060408382031261023757610268906108728185610245565b936020016105b0565b346102375761070f61088e366004610858565b906121f5565b6102686002600f6107ed565b34610237576108b036600461036f565b61036b61081f610894565b6102686000600761061c565b34610237576108d736600461036f565b61036b6105916108bb565b6102686102686102689290565b90610603906108e2565b6102689081565b61026890546108f9565b610268906107e7565b610268905461090a565b6102689060081c6102c6565b610268905461091d565b61093e9060166108ef565b90610948826104fb565b9161095d60018201546001600160a01b031690565b9161096a60028301610900565b9161097760038201610900565b916102686005610988818501610913565b9301610929565b91969593946109dd610252966109d660a0966109cf6109bd6109e69760c08a01908a820360008c015261028e565b6001600160a01b03909d166020890152565b6040870152565b6060850152565b15156080830152565b01906001600160a01b03169052565b346102375761036b610a10610a0b366004610254565b610933565b92610a2096949692919260405190565b9687968761098f565b6102686000601461051c565b3461023757610a4536600461036f565b61036b61056a610a29565b6102686000601061051c565b3461023757610a6c36600461036f565b61036b61056a610a50565b6102686000601761061c565b3461023757610a9336600461036f565b61036b610591610a77565b6102686000600961061c565b3461023757610aba36600461036f565b61036b610591610a9e565b90610252610ad260405190565b92836104d4565b67ffffffffffffffff81116104f657602090601f01601f19160190565b90826000939282370152565b90929192610b17610b1282610ad9565b610ac5565b938185526020850190828401116102375761025292610af6565b9080601f830112156102375781602061026893359101610b02565b919060a08382031261023757823567ffffffffffffffff81116102375781610b75918501610b31565b92610b838260208301610245565b92610268610b9484604085016105b0565b93610ba281606086016105b0565b93608001610245565b346102375761070f610bbe366004610b4c565b93929092611ace565b6102686000600f6107ed565b634e487b7160e01b600052602160045260246000fd5b60031115610bf357565b610bd3565b9061025282610be9565b61026890610bf8565b6102d290610c02565b6020810192916102529190610c0b565b3461023757610c3436600461036f565b61036b610c3f610bc7565b60405191829182610c14565b6102686000600d61051c565b3461023757610c6736600461036f565b61036b61056a610c4b565b6102686000600b61061c565b3461023757610c8e36600461036f565b61036b610591610c72565b6102686000600261038e565b3461023757610cb536600461036f565b61036b6103c0610c99565b6102686000601161051c565b3461023757610cdc36600461036f565b61036b61056a610cc0565b3461023757610cf736600461036f565b61036b61081f6116f2565b346102375761070f610d15366004610254565b610f47565b346102375761070f610d2d3660046106e3565b611002565b9e9d9c9b999897959391928f9197959361020083019860008401610d5d916001600160a01b03169052565b6001600160a01b031660208301526001600160a01b031660408201526060015260808d015260a08c015260c08b015260e08a01528881036101008a0152610da39161028e565b878103610120890152610db59161028e565b916101408701610dc491610c0b565b610160860152848103610180860152610ddc9161028e565b8381036101a0850152610dee9161028e565b8281036101c0840152610e009161028e565b90808203906101e001526102689161028e565b3461023757610e2336600461036f565b610e58610e2e612208565b9e610e4d9e919e9d929d9c939c9b949b9a959a99969998979860405190565b608052608051610d32565b6080519003608051f35b15610e6957565b60405162461bcd60e51b815260206004820152603660248201527f596f7520646f6e7420686176652061646d696e2061636365737320746f20706560448201527f72666f726d2074686973206f7065726174696f6e2021000000000000000000006064820152608490fd5b61025290610f0c33610f06610ef9610ef46001546001600160a01b031690565b6105f0565b916001600160a01b031690565b14610e62565b610f3c565b90600019905b9181191691161790565b90610f31610268610f38926108e2565b8254610f11565b9055565b610252906003610f21565b61025290610ed4565b61025290610f7033610f06610ef9610ef46001546001600160a01b031690565b610f99565b9061ff009060081b610f17565b90610f92610268610f3892151590565b8254610f75565b61025290600f610f82565b61025290610f50565b61025290610fcd33610f06610ef9610ef46001546001600160a01b031690565b610ff7565b9062ff00009060101b610f17565b90610ff0610268610f3892151590565b8254610fd2565b61025290600f610fe0565b61025290610fad565b6102689060101c6107e7565b610268905461100b565b1561102857565b60405162461bcd60e51b815260206004820152601860248201527f50726f6a656374206d75737420626520766572696669656400000000000000006044820152606490fd5b906102529291611092611080600f611017565b61108c60015b91151590565b14611021565b611109565b1561109e57565b60405162461bcd60e51b815260206004820152603c60248201527f596f7520646f206e6f74206861766520746865206d617374657220726967687460448201527f7320746f20706572666f726d2074686973206f7065726174696f6e21000000006064820152608490fd5b9061025292916111313361112b610ef9610ef46000546001600160a01b031690565b14611097565b611230565b634e487b7160e01b600052601160045260246000fd5b600019811461115b5760010190565b611136565b9190820180921161115b57565b905051906102528261023c565b90602082820312610237576102689161116d565b6001600160a01b039091168152604081019291610252916020906109e6565b6040513d6000823e3d90fd5b1561023757565b90505190610252826106ce565b9060208282031261023757610268916111c0565b6001600160a01b039182168152911660208201526060810192916102529160400152565b0152565b6001600160a01b039091168152606081019392610252929091604091611205906020830152565b9161129e60159161128661126e8661125061124b82886105f9565b610900565b95600096611264611260896108e2565b9190565b146113e4576105f9565b6112808661127b83610900565b611160565b90610f21565b610ef46112978561127b600b610900565b600b610f21565b9063dd62ed3e916112ae306105f0565b6112c16112ba60405190565b9460e01b90565b8452602084806112d5848a6004840161118e565b0381855afa9182156113b2576112f9602093879686916113b7575b508611156111b9565b61131b846323b872dd61132761130e60405190565b9889968795869460e01b90565b84528c600485016111e1565b03925af19081156113b25750611386575b50611343600b610900565b9161137b7f5cdc4ab8d637538ead6cc1904d4160343656c8c82bd266635cfd31ac008fffe09361137260405190565b93849384611209565b0390a1610252611430565b6113a69060203d81116113ab575b61139e81836104d4565b8101906111cd565b611338565b503d611394565b6111ad565b6113d79150853d81116113dd575b6113cf81836104d4565b81019061117a565b386112f0565b503d6113c5565b6114006113f96113f4600c610900565b61114c565b600c610f21565b6105f9565b90610252929161106d565b9060ff90610f17565b90611429610268610f3892610c02565b8254611410565b61143a600b610900565b61144a6112606102686009610900565b106114665761145b6002600f611419565b61025242600a610f21565b426114776112606102686008610900565b111561145b576114896001600f611419565b61145b565b611497306105f0565b3190565b60206114b26114f2926114ac600090565b506105f0565b6370a08231906114db6114c4306105f0565b926114ce60405190565b9586948593849360e01b90565b83526001600160a01b031660048301526024820190565b03915afa9081156113b257600091611508575090565b610268915060203d81116113dd576113cf81836104d4565b1561152757565b60405162461bcd60e51b815260206004820152600d60248201527f496e76616c6964207374617465000000000000000000000000000000000000006044820152606490fd5b1561157357565b60405162461bcd60e51b815260206004820152601560248201527f446561646c696e652068617320706173736564202100000000000000000000006044820152606490fd5b610268906115e360016115dd6115d76115d1600f610913565b92610bf8565b91610bf8565b14611520565b6115fd426115f76112606102686008610900565b1061156c565b611674565b1561160957565b60405162461bcd60e51b815260206004820152602660248201527f596f7520646f6e74206861766520616e7920636f6e747269627574656420616d60448201527f6f756e74202100000000000000000000000000000000000000000000000000006064820152608490fd5b5033601561168561124b83836105f9565b61169d600091611697611260846108e2565b11611602565b808080806116ad610ef4886105f0565b6116ba61124b89896105f9565b908282156116e9575bf1156113b2576116e4926116d96116df926108e2565b926105f9565b610f21565b600190565b506108fc6116c3565b61026860006115b8565b1561170357565b60405162461bcd60e51b815260206004820152603860248201527f596f7520646f6e7420686176652063726561746f722061636365737320746f2060448201527f706572666f726d2074686973206f7065726174696f6e202100000000000000006064820152608490fd5b906102529493929161179833611792610ef9610ef46004546001600160a01b031690565b146116fc565b90610252949392916117b560026115dd6115d76115d1600f610913565b6117c9426115f76112606102686008610900565b611a23565b91906008610f179102916117e3600019841b90565b921b90565b91906117f9610268610f38936108e2565b9083546117ce565b610252916000916117e8565b818110611818575050565b806118266000600193611801565b0161180d565b9190601f811161183b57505050565b61184d61025293600052602060002090565b906020601f84018190048301931061186f575b6020601f90910104019061180d565b9091508190611860565b90611882815190565b9067ffffffffffffffff82116104f6576118a6826118a08554610406565b8561182c565b602090601f83116001146118e157610f389291600091836118d6575b5050600019600883021c1916906002021790565b0151905038806118c2565b601f198316916118f685600052602060002090565b9260005b8181106119345750916002939185600196941061191b575b50505002019055565b01516000196008601f8516021c19169055388080611912565b919360206001819287870151815501950192016118fa565b9061025291611879565b906001600160a01b0390610f17565b90611975610268610f38926105f0565b8254611956565b90611429610268610f3892151590565b9074ffffffffffffffffffffffffffffffffffffffff009060081b610f17565b906119bc610268610f38926105f0565b825461198c565b6102d2906108e2565b6102d2906105f0565b91946109dd60a094989795611a12611a0a611a1c956102529a6119fd60c08a019260008b0152565b88820360208a015261028e565b9a6040870152565b60608501906119c3565b01906119cc565b9291611a4e611a3a610268611ac9949760166108ef565b93611a45868661194c565b60018501611965565b611a5b8560028501610f21565b611a89816005600095611a79611a70886108e2565b60038301610f21565b01611a84868261197c565b6119ac565b611a936017610900565b92807f9883a4e4f8698e4cc93bafb8d0d2376cb8c51dd322cb9fd80d02c691fcdea50396611ac060405190565b968796876119d5565b0390a1565b906102529493929161176e565b15611ae257565b60405162461bcd60e51b815260206004820152601b60248201527f4f6e6c7920636f6e7472696275746f722063616e20766f7465202100000000006044820152606490fd5b15611b2e57565b60405162461bcd60e51b815260206004820152601360248201527f596f7520616c726561647920766f7465642021000000000000000000000000006044820152606490fd5b6001600160a01b0390911681526040810192916102529160200152565b3390611c2d9061124b611c276003611c1b86611c16611bd7610268611bb7888560156105f9565b98611bd060009a611bca6112608d6108e2565b11611adb565b60166108ef565b96611c046004890191611bfe611086611bf8611bf388876105f9565b610913565b92151590565b14611b27565b611c1160019384926105f9565b61197c565b6108e2565b93019261127b84610900565b82610f21565b7fa2925e4595bf873fa82c22a1a89809777347023bf2b502d32710157a5eb8199c91611ac9611c5b60405190565b92839283611b73565b9061025291611c8533611792610ef9610ef46004546001600160a01b031690565b9061025291611c9f60026115dd6115d76115d1600f610913565b611cb3426115f76112606102686008610900565b611eac565b15611cbf57565b60405162461bcd60e51b815260206004820152601960248201527f5265717565737420616c726561647920636f6d706c65746564000000000000006044820152606490fd5b634e487b7160e01b600052601260045260246000fd5b8115611d24570490565b611d04565b15611d3057565b60405162461bcd60e51b815260206004820152603660248201527f4174206c656173742032302520636f6e7472696275746f72206e65656420746f60448201527f20766f746520666f7220746869732072657175657374000000000000000000006064820152608490fd5b15611da257565b60405162461bcd60e51b815260206004820152603960248201527f50726f6a65637420636f6e747261637420646f6573206e6f742068617665206560448201527f6e6f7567682062616c616e636520746f206469736275727365000000000000006064820152608490fd5b8181029291811591840414171561115b57565b6001600160a01b0390911681526060810193926102529290916040916112059060208301906119cc565b92979694611ea390611e9c60c096611e95611e836102529b96611a1c98611e7660e08c019260008d0152565b8a820360208c0152610430565b6001600160a01b03909d166040890152565b6060870152565b6080850152565b151560a0830152565b611eba6102688260166108ef565b90611ec760058301610913565b600090611edd90611ed783611086565b14611cb8565b60038301611eea81610900565b91611f1b611ef8600c610900565b93611f14611260610268600597611f0e896108e2565b90611d1a565b1015611d29565b6002850195611f32611f2c88610900565b916105f0565b6370a08231611f40306105f0565b92611f54611f4d60405190565b9260e01b90565b82526001600160a01b0384166004830152602082602481865afa80156113b257611260611f8991611f90948891611508575090565b1115611d9b565b6323b872dd94870191611fa283610929565b611fab8a610900565b6020611fe489611ff0611fd6611fc6603296611f0e886108e2565b611fd060316108e2565b90611e0d565b604051968794859460e01b90565b84528860048501611e20565b038189885af19182156113b2578b926121d9575b50426120166112606102686003610900565b1161217b5750506001546001600160a01b0316916120338a610900565b6020611fe48961205961204b606495611f0e876108e2565b604051988994859460e01b90565b038189865af19081156113b2578b986120bc6120a189936020986120b196612160575b50611f0e61209b6120956002546001600160a01b031690565b9e610900565b916108e2565b6040519b8c978896879560e01b90565b855260048501611e20565b03925af19384156113b257611ac994612144575b505b61210f6121096121036120fd600180966120ec828861197c565b8b019a01546001600160a01b031690565b99610900565b94610900565b91610929565b927f4b318eefdd7bb107016b6a285ad8d255001224edad6fe9a0dd934ee9f3e911c59761213b60405190565b97889788611e4a565b61215b9060203d81116113ab5761139e81836104d4565b6120d0565b612176908a3d81116113ab5761139e81836104d4565b61207c565b8560209492986121a36120a16120b194611f0e61209b6120956001546001600160a01b031690565b03925af19384156113b257611ac9946121bd575b506120d2565b6121d49060203d81116113ab5761139e81836104d4565b6121b7565b6121f09060203d81116113ab5761139e81836104d4565b612004565b9061025291611c64565b610268906104fb565b6004546001600160a01b03169061221f6007610900565b9061222a6008610900565b916122356009610900565b92612240600a610900565b9361224b600b610900565b94612256600d6121ff565b95612261600e6121ff565b9661226c600f610913565b97612276306105f0565b319861228260106121ff565b9961228d60116121ff565b9a61229860126121ff565b9b6122a360136121ff565b9c6122b66005546001600160a01b031690565b9d6122c96006546001600160a01b031690565b9d565b6102686122e3916122db606090565b5060166108ef565b906122ee600c610900565b809261231b612309600383019361230485610900565b611d1a565b611fd068056bc75e2d631000006108e2565b612324826121ff565b9461233960018401546001600160a01b031690565b94600561235161234b60028701610900565b96610900565b94019061026861236083610913565b9261092956fea264697066735822122035729e29810daef7c27c57b5ab062bfa6964fe41b6e3f9684f86a7015014066364736f6c63430008120033","opcodes":"PUSH1 0x80 PUSH1 0x40 MSTORE CALLVALUE PUSH3 0x43 JUMPI PUSH3 0x31 PUSH3 0x18 PUSH3 0x2F5 JUMP JUMPDEST SWAP14 SWAP13 SWAP1 SWAP13 SWAP12 SWAP2 SWAP12 SWAP11 SWAP3 SWAP11 SWAP10 SWAP4 SWAP10 SWAP9 SWAP5 SWAP9 SWAP8 SWAP6 SWAP8 PUSH3 0x6CC JUMP JUMPDEST PUSH1 0x40 MLOAD PUSH2 0x239C PUSH3 0xA1F DUP3 CODECOPY PUSH2 0x239C SWAP1 RETURN JUMPDEST PUSH1 0x0 DUP1 REVERT JUMPDEST PUSH4 0x4E487B71 PUSH1 0xE0 SHL PUSH1 0x0 MSTORE PUSH1 0x41 PUSH1 0x4 MSTORE PUSH1 0x24 PUSH1 0x0 REVERT JUMPDEST SWAP1 PUSH1 0x1F ADD PUSH1 0x1F NOT AND DUP2 ADD SWAP1 DUP2 LT PUSH1 0x1 PUSH1 0x1 PUSH1 0x40 SHL SUB DUP3 GT OR PUSH3 0x80 JUMPI PUSH1 0x40 MSTORE JUMP JUMPDEST PUSH3 0x48 JUMP JUMPDEST SWAP1 PUSH3 0x9D PUSH3 0x95 PUSH1 0x40 MLOAD SWAP1 JUMP JUMPDEST SWAP3 DUP4 PUSH3 0x5E JUMP JUMPDEST JUMP JUMPDEST PUSH1 0x1 PUSH1 0x1 PUSH1 0xA0 SHL SUB AND SWAP1 JUMP JUMPDEST SWAP1 JUMP JUMPDEST PUSH1 0x1 PUSH1 0x1 PUSH1 0xA0 SHL SUB DUP2 AND JUMPDEST SUB PUSH3 0x43 JUMPI JUMP JUMPDEST SWAP1 POP MLOAD SWAP1 PUSH3 0x9D DUP3 PUSH3 0xAE JUMP JUMPDEST DUP1 PUSH3 0xB9 JUMP JUMPDEST SWAP1 POP MLOAD SWAP1 PUSH3 0x9D DUP3 PUSH3 0xD0 JUMP JUMPDEST PUSH1 0x1 PUSH1 0x1 PUSH1 0x40 SHL SUB DUP2 GT PUSH3 0x80 JUMPI PUSH1 0x20 SWAP1 PUSH1 0x1F ADD PUSH1 0x1F NOT AND ADD SWAP1 JUMP JUMPDEST ADD SWAP1 JUMP JUMPDEST PUSH1 0x0 JUMPDEST DUP4 DUP2 LT PUSH3 0x11B JUMPI POP POP PUSH1 0x0 SWAP2 ADD MSTORE JUMP JUMPDEST DUP2 DUP2 ADD MLOAD DUP4 DUP3 ADD MSTORE PUSH1 0x20 ADD PUSH3 0x10A JUMP JUMPDEST SWAP1 SWAP3 SWAP2 SWAP3 PUSH3 0x145 PUSH3 0x13F DUP3 PUSH3 0xE6 JUMP JUMPDEST PUSH3 0x86 JUMP JUMPDEST SWAP4 DUP2 DUP6 MSTORE PUSH1 0x20 DUP6 ADD SWAP1 DUP3 DUP5 ADD GT PUSH3 0x43 JUMPI PUSH3 0x9D SWAP3 PUSH3 0x107 JUMP JUMPDEST SWAP1 DUP1 PUSH1 0x1F DUP4 ADD SLT ISZERO PUSH3 0x43 JUMPI DUP2 MLOAD PUSH3 0xAB SWAP3 PUSH1 0x20 ADD PUSH3 0x12C JUMP JUMPDEST SWAP2 PUSH2 0x1E0 DUP4 DUP4 SUB SLT PUSH3 0x43 JUMPI PUSH3 0x198 DUP3 DUP5 PUSH3 0xC1 JUMP JUMPDEST SWAP3 PUSH3 0x1A8 DUP4 PUSH1 0x20 DUP4 ADD PUSH3 0xC1 JUMP JUMPDEST SWAP3 PUSH1 0x40 PUSH3 0x1B9 DUP3 DUP3 DUP6 ADD PUSH3 0xC1 JUMP JUMPDEST SWAP4 PUSH3 0x1C9 DUP4 PUSH1 0x60 DUP7 ADD PUSH3 0xC1 JUMP JUMPDEST SWAP4 PUSH3 0x1D9 DUP5 PUSH1 0x80 DUP4 ADD PUSH3 0xC1 JUMP JUMPDEST SWAP4 PUSH3 0x1E9 DUP2 PUSH1 0xA0 DUP5 ADD PUSH3 0xD7 JUMP JUMPDEST SWAP4 PUSH3 0x1F9 DUP3 PUSH1 0xC0 DUP6 ADD PUSH3 0xD7 JUMP JUMPDEST SWAP4 PUSH3 0x209 DUP4 PUSH1 0xE0 DUP7 ADD PUSH3 0xD7 JUMP JUMPDEST SWAP4 PUSH2 0x100 DUP2 ADD MLOAD PUSH1 0x1 DUP1 DUP6 SHL SUB DUP2 GT PUSH3 0x43 JUMPI DUP5 PUSH3 0x22B SWAP2 DUP4 ADD PUSH3 0x162 JUMP JUMPDEST SWAP4 PUSH2 0x120 DUP3 ADD MLOAD PUSH1 0x1 DUP1 DUP7 SHL SUB DUP2 GT PUSH3 0x43 JUMPI DUP2 PUSH3 0x24D SWAP2 DUP5 ADD PUSH3 0x162 JUMP JUMPDEST SWAP4 PUSH2 0x140 DUP4 ADD MLOAD PUSH1 0x1 DUP1 DUP4 SHL SUB DUP2 GT PUSH3 0x43 JUMPI DUP3 PUSH3 0x26F SWAP2 DUP6 ADD PUSH3 0x162 JUMP JUMPDEST SWAP4 PUSH2 0x160 DUP5 ADD MLOAD PUSH1 0x1 DUP1 DUP5 SHL SUB DUP2 GT PUSH3 0x43 JUMPI DUP4 PUSH3 0x291 SWAP2 DUP7 ADD PUSH3 0x162 JUMP JUMPDEST SWAP4 PUSH2 0x180 DUP2 ADD MLOAD PUSH1 0x1 DUP1 DUP6 SHL SUB DUP2 GT PUSH3 0x43 JUMPI DUP5 PUSH3 0x2B3 SWAP2 DUP4 ADD PUSH3 0x162 JUMP JUMPDEST SWAP4 PUSH2 0x1A0 DUP3 ADD MLOAD PUSH1 0x1 DUP1 DUP7 SHL SUB DUP2 GT PUSH3 0x43 JUMPI DUP2 PUSH3 0x2D5 SWAP2 DUP5 ADD PUSH3 0x162 JUMP JUMPDEST SWAP4 PUSH1 0x1 DUP1 PUSH2 0x1C0 DUP6 ADD MLOAD SWAP3 SHL SUB DUP2 GT PUSH3 0x43 JUMPI PUSH3 0xAB SWAP3 ADD PUSH3 0x162 JUMP JUMPDEST PUSH3 0x318 PUSH3 0x2DBB DUP1 CODESIZE SUB DUP1 PUSH3 0x30C DUP2 PUSH3 0x86 JUMP JUMPDEST SWAP3 DUP4 CODECOPY DUP2 ADD SWAP1 PUSH3 0x17F JUMP JUMPDEST SWAP1 SWAP2 SWAP3 SWAP4 SWAP5 SWAP6 SWAP7 SWAP8 SWAP9 SWAP10 SWAP11 SWAP12 SWAP13 SWAP14 SWAP15 JUMP JUMPDEST PUSH3 0xAB SWAP1 PUSH3 0x9F SWAP1 PUSH1 0x1 PUSH1 0x1 PUSH1 0xA0 SHL SUB AND DUP3 JUMP JUMPDEST PUSH3 0xAB SWAP1 PUSH3 0x329 JUMP JUMPDEST PUSH3 0xAB SWAP1 PUSH3 0x33F JUMP JUMPDEST SWAP1 PUSH1 0x1 PUSH1 0x1 PUSH1 0xA0 SHL SUB SWAP1 JUMPDEST SWAP2 DUP2 NOT AND SWAP2 AND OR SWAP1 JUMP JUMPDEST SWAP1 PUSH3 0x37E PUSH3 0xAB PUSH3 0x386 SWAP3 PUSH3 0x34A JUMP JUMPDEST DUP3 SLOAD PUSH3 0x355 JUMP JUMPDEST SWAP1 SSTORE JUMP JUMPDEST SWAP1 PUSH1 0x0 NOT SWAP1 PUSH3 0x360 JUMP JUMPDEST PUSH3 0xAB PUSH3 0xAB PUSH3 0xAB SWAP3 SWAP1 JUMP JUMPDEST SWAP1 PUSH3 0x3B9 PUSH3 0xAB PUSH3 0x386 SWAP3 PUSH3 0x395 JUMP JUMPDEST DUP3 SLOAD PUSH3 0x38A JUMP JUMPDEST SWAP1 PUSH1 0xFF SWAP1 PUSH3 0x360 JUMP JUMPDEST PUSH4 0x4E487B71 PUSH1 0xE0 SHL PUSH1 0x0 MSTORE PUSH1 0x21 PUSH1 0x4 MSTORE PUSH1 0x24 PUSH1 0x0 REVERT JUMPDEST PUSH1 0x3 GT ISZERO PUSH3 0x3EC JUMPI JUMP JUMPDEST PUSH3 0x3CB JUMP JUMPDEST SWAP1 PUSH3 0x9D DUP3 PUSH3 0x3E1 JUMP JUMPDEST PUSH3 0xAB SWAP1 PUSH3 0x3F2 JUMP JUMPDEST SWAP1 PUSH3 0x41D PUSH3 0xAB PUSH3 0x386 SWAP3 PUSH3 0x3FE JUMP JUMPDEST DUP3 SLOAD PUSH3 0x3C1 JUMP JUMPDEST SWAP1 PUSH2 0xFF00 SWAP1 PUSH1 0x8 SHL PUSH3 0x360 JUMP JUMPDEST SWAP1 PUSH3 0x446 PUSH3 0xAB PUSH3 0x386 SWAP3 ISZERO ISZERO SWAP1 JUMP JUMPDEST DUP3 SLOAD PUSH3 0x425 JUMP JUMPDEST SWAP1 PUSH3 0xFF0000 SWAP1 PUSH1 0x10 SHL PUSH3 0x360 JUMP JUMPDEST SWAP1 PUSH3 0x470 PUSH3 0xAB PUSH3 0x386 SWAP3 ISZERO ISZERO SWAP1 JUMP JUMPDEST DUP3 SLOAD PUSH3 0x44E JUMP JUMPDEST PUSH4 0x4E487B71 PUSH1 0xE0 SHL PUSH1 0x0 MSTORE PUSH1 0x22 PUSH1 0x4 MSTORE PUSH1 0x24 PUSH1 0x0 REVERT JUMPDEST SWAP1 PUSH1 0x1 PUSH1 0x2 DUP4 DIV SWAP3 AND DUP1 ISZERO PUSH3 0x4B1 JUMPI JUMPDEST PUSH1 0x20 DUP4 LT EQ PUSH3 0x4AB JUMPI JUMP JUMPDEST PUSH3 0x478 JUMP JUMPDEST SWAP2 PUSH1 0x7F AND SWAP2 PUSH3 0x49F JUMP JUMPDEST SWAP2 PUSH1 0x0 NOT PUSH1 0x8 SWAP3 SWAP1 SWAP3 MUL SWAP2 DUP3 SHL SWAP2 SHL PUSH3 0x360 JUMP JUMPDEST SWAP2 SWAP1 PUSH3 0x4E6 PUSH3 0xAB PUSH3 0x386 SWAP4 PUSH3 0x395 JUMP JUMPDEST SWAP1 DUP4 SLOAD PUSH3 0x4BC JUMP JUMPDEST PUSH3 0x9D SWAP2 PUSH1 0x0 SWAP2 PUSH3 0x4D1 JUMP JUMPDEST DUP2 DUP2 LT PUSH3 0x509 JUMPI POP POP JUMP JUMPDEST DUP1 PUSH3 0x519 PUSH1 0x0 PUSH1 0x1 SWAP4 PUSH3 0x4EF JUMP JUMPDEST ADD PUSH3 0x4FD JUMP JUMPDEST SWAP2 SWAP1 PUSH1 0x1F DUP2 GT PUSH3 0x530 JUMPI POP POP POP JUMP JUMPDEST PUSH3 0x544 PUSH3 0x9D SWAP4 PUSH1 0x0 MSTORE PUSH1 0x20 PUSH1 0x0 KECCAK256 SWAP1 JUMP JUMPDEST SWAP1 PUSH1 0x20 PUSH1 0x1F DUP5 ADD DUP2 SWAP1 DIV DUP4 ADD SWAP4 LT PUSH3 0x568 JUMPI JUMPDEST PUSH1 0x20 PUSH1 0x1F SWAP1 SWAP2 ADD DIV ADD SWAP1 PUSH3 0x4FD JUMP JUMPDEST SWAP1 SWAP2 POP DUP2 SWAP1 PUSH3 0x558 JUMP JUMPDEST SWAP1 PUSH3 0x57D DUP2 MLOAD SWAP1 JUMP JUMPDEST SWAP1 PUSH1 0x1 PUSH1 0x1 PUSH1 0x40 SHL SUB DUP3 GT PUSH3 0x80 JUMPI PUSH3 0x5A5 DUP3 PUSH3 0x59E DUP6 SLOAD PUSH3 0x48E JUMP JUMPDEST DUP6 PUSH3 0x520 JUMP JUMPDEST PUSH1 0x20 SWAP1 PUSH1 0x1F DUP4 GT PUSH1 0x1 EQ PUSH3 0x5E4 JUMPI PUSH3 0x386 SWAP3 SWAP2 PUSH1 0x0 SWAP2 DUP4 PUSH3 0x5D8 JUMPI JUMPDEST POP POP PUSH1 0x0 NOT PUSH1 0x8 DUP4 MUL SHR NOT AND SWAP1 PUSH1 0x2 MUL OR SWAP1 JUMP JUMPDEST ADD MLOAD SWAP1 POP CODESIZE DUP1 PUSH3 0x5C4 JUMP JUMPDEST PUSH1 0x1F NOT DUP4 AND SWAP2 PUSH3 0x5FA DUP6 PUSH1 0x0 MSTORE PUSH1 0x20 PUSH1 0x0 KECCAK256 SWAP1 JUMP JUMPDEST SWAP3 PUSH1 0x0 JUMPDEST DUP2 DUP2 LT PUSH3 0x63B JUMPI POP SWAP2 PUSH1 0x2 SWAP4 SWAP2 DUP6 PUSH1 0x1 SWAP7 SWAP5 LT PUSH3 0x621 JUMPI JUMPDEST POP POP POP MUL ADD SWAP1 SSTORE JUMP JUMPDEST ADD MLOAD PUSH1 0x0 NOT PUSH1 0x8 PUSH1 0x1F DUP6 AND MUL SHR NOT AND SWAP1 SSTORE CODESIZE DUP1 DUP1 PUSH3 0x618 JUMP JUMPDEST SWAP2 SWAP4 PUSH1 0x20 PUSH1 0x1 DUP2 SWAP3 DUP8 DUP8 ADD MLOAD DUP2 SSTORE ADD SWAP6 ADD SWAP3 ADD PUSH3 0x5FE JUMP JUMPDEST SWAP1 PUSH3 0x9D SWAP2 PUSH3 0x573 JUMP JUMPDEST DUP1 ISZERO ISZERO PUSH3 0xB9 JUMP JUMPDEST SWAP1 POP MLOAD SWAP1 PUSH3 0x9D DUP3 PUSH3 0x660 JUMP JUMPDEST SWAP1 PUSH1 0x20 DUP3 DUP3 SUB SLT PUSH3 0x43 JUMPI PUSH3 0xAB SWAP2 PUSH3 0x669 JUMP JUMPDEST SWAP1 MSTORE JUMP JUMPDEST PUSH3 0x68F SWAP1 PUSH3 0x395 JUMP JUMPDEST PUSH1 0x1 PUSH1 0x1 PUSH1 0xA0 SHL SUB SWAP1 SWAP2 AND DUP2 MSTORE PUSH1 0x40 DUP2 ADD SWAP3 SWAP2 PUSH3 0x9D SWAP2 PUSH1 0x20 ADD SWAP1 PUSH3 0x693 JUMP JUMPDEST PUSH1 0x40 MLOAD RETURNDATASIZE PUSH1 0x0 DUP3 RETURNDATACOPY RETURNDATASIZE SWAP1 REVERT JUMPDEST DUP2 SWAP14 SWAP11 SWAP7 SWAP3 SWAP15 SWAP10 SWAP6 SWAP15 SWAP13 SWAP9 SWAP5 SWAP12 SWAP8 SWAP4 SWAP2 SWAP13 PUSH20 0x811029BAF786C77F1ADBA0C0DC29952D012C37B PUSH3 0x6FD SWAP1 PUSH3 0x34A JUMP JUMPDEST PUSH3 0x70A SWAP1 PUSH1 0x2 PUSH3 0x36A JUMP JUMPDEST PUSH3 0x71A PUSH3 0xBC614E PUSH1 0x3 PUSH3 0x3A5 JUMP JUMPDEST PUSH1 0x0 SWAP15 DUP16 SWAP3 PUSH3 0x72C DUP5 PUSH1 0xF PUSH3 0x409 JUMP JUMPDEST PUSH3 0x739 DUP5 PUSH1 0xF PUSH3 0x433 JUMP JUMPDEST PUSH3 0x746 DUP5 PUSH1 0xF PUSH3 0x45D JUMP JUMPDEST PUSH3 0x753 DUP5 PUSH1 0x17 PUSH3 0x3A5 JUMP JUMPDEST PUSH3 0x75E DUP14 PUSH3 0x9BA JUMP JUMPDEST PUSH3 0x769 SWAP1 PUSH3 0x34A JUMP JUMPDEST PUSH3 0x776 SWAP1 PUSH1 0x1 PUSH3 0x36A JUMP JUMPDEST PUSH3 0x781 SWAP1 PUSH3 0x34A JUMP JUMPDEST PUSH3 0x78E SWAP1 PUSH1 0x4 PUSH3 0x36A JUMP JUMPDEST PUSH3 0x799 SWAP1 PUSH3 0x34A JUMP JUMPDEST PUSH3 0x7A4 SWAP2 PUSH3 0x36A JUMP JUMPDEST PUSH3 0x7AF SWAP1 PUSH3 0x34A JUMP JUMPDEST SWAP10 PUSH3 0x7BD DUP12 PUSH1 0x5 PUSH3 0x36A JUMP JUMPDEST PUSH3 0x7C8 SWAP1 PUSH3 0x34A JUMP JUMPDEST SWAP13 PUSH3 0x7D6 DUP15 PUSH1 0x6 PUSH3 0x36A JUMP JUMPDEST PUSH3 0x7E3 SWAP1 PUSH1 0x7 PUSH3 0x3A5 JUMP JUMPDEST PUSH3 0x7F0 SWAP1 PUSH1 0x8 PUSH3 0x3A5 JUMP JUMPDEST PUSH3 0x7FD SWAP1 PUSH1 0x9 PUSH3 0x3A5 JUMP JUMPDEST PUSH3 0x80A SWAP1 PUSH1 0xD PUSH3 0x654 JUMP JUMPDEST PUSH3 0x817 SWAP1 PUSH1 0xE PUSH3 0x654 JUMP JUMPDEST PUSH3 0x822 DUP9 PUSH3 0x395 JUMP JUMPDEST PUSH3 0x82F SWAP1 PUSH1 0xB PUSH3 0x3A5 JUMP JUMPDEST PUSH3 0x83C SWAP1 PUSH1 0x10 PUSH3 0x654 JUMP JUMPDEST PUSH3 0x849 SWAP1 PUSH1 0x11 PUSH3 0x654 JUMP JUMPDEST PUSH3 0x856 SWAP1 PUSH1 0x12 PUSH3 0x654 JUMP JUMPDEST PUSH3 0x863 SWAP1 PUSH1 0x14 PUSH3 0x654 JUMP JUMPDEST PUSH3 0x870 SWAP1 PUSH1 0x13 PUSH3 0x654 JUMP JUMPDEST PUSH3 0x87B SWAP1 PUSH3 0x34A JUMP JUMPDEST SWAP1 PUSH4 0x95EA7B3 PUSH2 0x102 SWAP5 PUSH3 0x88F PUSH1 0x40 MLOAD SWAP1 JUMP JUMPDEST SWAP4 PUSH3 0x89B DUP4 PUSH1 0xE0 SHL SWAP1 JUMP JUMPDEST DUP6 MSTORE DUP5 DUP1 PUSH3 0x8AF DUP10 DUP8 PUSH1 0x4 DUP5 ADD PUSH3 0x69E JUMP JUMPDEST SUB DUP2 DUP9 GAS SWAP5 PUSH1 0x20 SWAP6 CALL SWAP4 DUP5 ISZERO PUSH3 0x948 JUMPI PUSH3 0x8DB PUSH3 0x8F7 SWAP3 DUP8 SWAP3 PUSH1 0x20 SWAP8 PUSH3 0x94E JUMPI JUMPDEST POP PUSH3 0x34A JUMP JUMPDEST SWAP3 PUSH3 0x903 PUSH3 0x8EA PUSH1 0x40 MLOAD SWAP1 JUMP JUMPDEST SWAP9 DUP10 SWAP7 DUP8 SWAP6 DUP7 SWAP5 PUSH1 0xE0 SHL SWAP1 JUMP JUMPDEST DUP5 MSTORE PUSH1 0x4 DUP5 ADD PUSH3 0x69E JUMP JUMPDEST SUB SWAP3 GAS CALL SWAP1 DUP2 ISZERO PUSH3 0x948 JUMPI POP PUSH3 0x918 JUMPI POP JUMP JUMPDEST PUSH3 0x93D SWAP1 PUSH1 0x20 RETURNDATASIZE DUP2 GT PUSH3 0x940 JUMPI JUMPDEST PUSH3 0x934 DUP2 DUP4 PUSH3 0x5E JUMP JUMPDEST DUP2 ADD SWAP1 PUSH3 0x678 JUMP JUMPDEST POP JUMP JUMPDEST POP RETURNDATASIZE PUSH3 0x928 JUMP JUMPDEST PUSH3 0x6C0 JUMP JUMPDEST PUSH3 0x968 SWAP1 DUP9 RETURNDATASIZE DUP2 GT PUSH3 0x940 JUMPI PUSH3 0x934 DUP2 DUP4 PUSH3 0x5E JUMP JUMPDEST PUSH3 0x8D4 JUMP JUMPDEST PUSH3 0x993 PUSH3 0x99D PUSH1 0x20 SWAP4 PUSH3 0x103 SWAP4 PUSH3 0x987 DUP2 MLOAD SWAP1 JUMP JUMPDEST DUP1 DUP4 MSTORE SWAP4 DUP5 SWAP3 PUSH1 0x20 ADD SWAP1 JUMP JUMPDEST SWAP6 DUP7 SWAP2 ADD PUSH3 0x107 JUMP JUMPDEST PUSH1 0x1F ADD PUSH1 0x1F NOT AND SWAP1 JUMP JUMPDEST PUSH1 0x20 DUP1 DUP3 MSTORE PUSH3 0xAB SWAP3 SWAP2 ADD SWAP1 PUSH3 0x96E JUMP JUMPDEST PUSH3 0x9EB PUSH3 0x9FB PUSH3 0x9D SWAP3 PUSH3 0x9D1 PUSH1 0x40 MLOAD SWAP1 JUMP JUMPDEST PUSH4 0x104C13EB PUSH1 0xE2 SHL PUSH1 0x20 DUP3 ADD MSTORE SWAP3 DUP4 SWAP2 PUSH1 0x24 DUP4 ADD PUSH3 0x9A7 JUMP JUMPDEST PUSH1 0x20 DUP3 ADD DUP2 SUB DUP3 MSTORE SUB DUP3 PUSH3 0x5E JUMP JUMPDEST PUSH1 0x0 DUP1 SWAP2 PUSH3 0xA12 PUSH11 0x636F6E736F6C652E6C6F67 SWAP1 JUMP JUMPDEST PUSH1 0x20 DUP3 MLOAD SWAP3 ADD SWAP1 GAS STATICCALL POP JUMP INVALID PUSH1 0xA0 PUSH1 0x40 MSTORE PUSH1 0x4 CALLDATASIZE LT ISZERO PUSH2 0x12 JUMPI PUSH1 0x0 DUP1 REVERT JUMPDEST PUSH1 0x0 CALLDATALOAD PUSH1 0xE0 SHR DUP1 PUSH4 0x203D002 EQ PUSH2 0x232 JUMPI DUP1 PUSH4 0x2D05D3F EQ PUSH2 0x22D JUMPI DUP1 PUSH4 0x3C29D58 EQ PUSH2 0x228 JUMPI DUP1 PUSH4 0x7D94E4A EQ PUSH2 0x223 JUMPI DUP1 PUSH4 0xA771370 EQ PUSH2 0x21E JUMPI DUP1 PUSH4 0x18AA9F1E EQ PUSH2 0x219 JUMPI DUP1 PUSH4 0x24274EE9 EQ PUSH2 0x214 JUMPI DUP1 PUSH4 0x263A58AA EQ PUSH2 0x20F JUMPI DUP1 PUSH4 0x28C30C07 EQ PUSH2 0x20A JUMPI DUP1 PUSH4 0x29DCB0CF EQ PUSH2 0x205 JUMPI DUP1 PUSH4 0x43AB265F EQ PUSH2 0x200 JUMPI DUP1 PUSH4 0x4C4CEA5A EQ PUSH2 0x1FB JUMPI DUP1 PUSH4 0x4CBC1553 EQ PUSH2 0x1F6 JUMPI DUP1 PUSH4 0x4E695A37 EQ PUSH2 0x1F1 JUMPI DUP1 PUSH4 0x54214F69 EQ PUSH2 0x1EC JUMPI DUP1 PUSH4 0x5EB32936 EQ PUSH2 0x1E7 JUMPI DUP1 PUSH4 0x62D809A6 EQ PUSH2 0x1E2 JUMPI DUP1 PUSH4 0x80007E83 EQ PUSH2 0x1DD JUMPI DUP1 PUSH4 0x937E09B1 EQ PUSH2 0x1D8 JUMPI DUP1 PUSH4 0x992A7DFB EQ PUSH2 0x1D3 JUMPI DUP1 PUSH4 0xA278A485 EQ PUSH2 0x1CE JUMPI DUP1 PUSH4 0xABB5CA09 EQ PUSH2 0x1C9 JUMPI DUP1 PUSH4 0xB40141BF EQ PUSH2 0x1C4 JUMPI DUP1 PUSH4 0xB82C86D6 EQ PUSH2 0x1BF JUMPI DUP1 PUSH4 0xB9BB6E30 EQ PUSH2 0x1BA JUMPI DUP1 PUSH4 0xC19D93FB EQ PUSH2 0x1B5 JUMPI DUP1 PUSH4 0xC3E20C9F EQ PUSH2 0x1B0 JUMPI DUP1 PUSH4 0xC59EE1DC EQ PUSH2 0x1AB JUMPI DUP1 PUSH4 0xCA4B208B EQ PUSH2 0x1A6 JUMPI DUP1 PUSH4 0xD1707551 EQ PUSH2 0x1A1 JUMPI DUP1 PUSH4 0xD5CEF133 EQ PUSH2 0x19C JUMPI DUP1 PUSH4 0xD688CF53 EQ PUSH2 0x197 JUMPI DUP1 PUSH4 0xE9D1EDDE EQ PUSH2 0x192 JUMPI PUSH4 0xFF3A9C7E SUB PUSH2 0x237 JUMPI PUSH2 0xE13 JUMP JUMPDEST PUSH2 0xD1A JUMP JUMPDEST PUSH2 0xD02 JUMP JUMPDEST PUSH2 0xCE7 JUMP JUMPDEST PUSH2 0xCCC JUMP JUMPDEST PUSH2 0xCA5 JUMP JUMPDEST PUSH2 0xC7E JUMP JUMPDEST PUSH2 0xC57 JUMP JUMPDEST PUSH2 0xC24 JUMP JUMPDEST PUSH2 0xBAB JUMP JUMPDEST PUSH2 0xAAA JUMP JUMPDEST PUSH2 0xA83 JUMP JUMPDEST PUSH2 0xA5C JUMP JUMPDEST PUSH2 0xA35 JUMP JUMPDEST PUSH2 0x9F5 JUMP JUMPDEST PUSH2 0x8C7 JUMP JUMPDEST PUSH2 0x8A0 JUMP JUMPDEST PUSH2 0x87B JUMP JUMPDEST PUSH2 0x83D JUMP JUMPDEST PUSH2 0x804 JUMP JUMPDEST PUSH2 0x7C6 JUMP JUMPDEST PUSH2 0x7AD JUMP JUMPDEST PUSH2 0x762 JUMP JUMPDEST PUSH2 0x73B JUMP JUMPDEST PUSH2 0x720 JUMP JUMPDEST PUSH2 0x6F7 JUMP JUMPDEST PUSH2 0x6B3 JUMP JUMPDEST PUSH2 0x68C JUMP JUMPDEST PUSH2 0x665 JUMP JUMPDEST PUSH2 0x63E JUMP JUMPDEST PUSH2 0x576 JUMP JUMPDEST PUSH2 0x54F JUMP JUMPDEST PUSH2 0x3A5 JUMP JUMPDEST PUSH2 0x334 JUMP JUMPDEST PUSH1 0x0 DUP1 REVERT JUMPDEST DUP1 JUMPDEST SUB PUSH2 0x237 JUMPI JUMP JUMPDEST SWAP1 POP CALLDATALOAD SWAP1 PUSH2 0x252 DUP3 PUSH2 0x23C JUMP JUMPDEST JUMP JUMPDEST SWAP1 PUSH1 0x20 DUP3 DUP3 SUB SLT PUSH2 0x237 JUMPI PUSH2 0x268 SWAP2 PUSH2 0x245 JUMP JUMPDEST SWAP1 JUMP JUMPDEST PUSH1 0x0 JUMPDEST DUP4 DUP2 LT PUSH2 0x27E JUMPI POP POP PUSH1 0x0 SWAP2 ADD MSTORE JUMP JUMPDEST DUP2 DUP2 ADD MLOAD DUP4 DUP3 ADD MSTORE PUSH1 0x20 ADD PUSH2 0x26E JUMP JUMPDEST PUSH2 0x2AF PUSH2 0x2B8 PUSH1 0x20 SWAP4 PUSH2 0x2C2 SWAP4 PUSH2 0x2A3 DUP2 MLOAD SWAP1 JUMP JUMPDEST DUP1 DUP4 MSTORE SWAP4 DUP5 SWAP3 PUSH1 0x20 ADD SWAP1 JUMP JUMPDEST SWAP6 DUP7 SWAP2 ADD PUSH2 0x26B JUMP JUMPDEST PUSH1 0x1F ADD PUSH1 0x1F NOT AND SWAP1 JUMP JUMPDEST ADD SWAP1 JUMP JUMPDEST PUSH1 0x1 PUSH1 0x1 PUSH1 0xA0 SHL SUB AND SWAP1 JUMP JUMPDEST SWAP1 MSTORE JUMP JUMPDEST SWAP6 SWAP4 SWAP2 SWAP9 SWAP8 SWAP7 SWAP5 SWAP3 SWAP1 PUSH2 0x100 DUP8 ADD DUP8 DUP2 SUB PUSH1 0x0 DUP10 ADD MSTORE PUSH2 0x2F5 SWAP2 PUSH2 0x28E JUMP JUMPDEST PUSH1 0x1 PUSH1 0x1 PUSH1 0xA0 SHL SUB SWAP1 SWAP10 AND PUSH1 0x20 DUP8 ADD MSTORE PUSH1 0x40 DUP7 ADD MSTORE PUSH1 0x60 DUP6 ADD MSTORE PUSH1 0x80 DUP5 ADD MSTORE PUSH1 0xA0 DUP4 ADD MSTORE ISZERO ISZERO PUSH1 0xC0 DUP3 ADD MSTORE PUSH1 0xE0 ADD PUSH2 0x252 SWAP2 PUSH1 0x1 PUSH1 0x1 PUSH1 0xA0 SHL SUB AND SWAP1 MSTORE JUMP JUMPDEST CALLVALUE PUSH2 0x237 JUMPI PUSH2 0x36B PUSH2 0x34F PUSH2 0x34A CALLDATASIZE PUSH1 0x4 PUSH2 0x254 JUMP JUMPDEST PUSH2 0x22CC JUMP JUMPDEST SWAP5 PUSH2 0x362 SWAP9 SWAP7 SWAP9 SWAP5 SWAP2 SWAP5 SWAP4 SWAP3 SWAP4 PUSH1 0x40 MLOAD SWAP1 JUMP JUMPDEST SWAP9 DUP10 SWAP9 DUP10 PUSH2 0x2D6 JUMP JUMPDEST SUB SWAP1 RETURN JUMPDEST PUSH1 0x0 SWAP2 SUB SLT PUSH2 0x237 JUMPI JUMP JUMPDEST PUSH2 0x268 SWAP2 PUSH1 0x8 MUL SHR PUSH1 0x1 PUSH1 0x1 PUSH1 0xA0 SHL SUB AND SWAP1 JUMP JUMPDEST SWAP1 PUSH2 0x268 SWAP2 SLOAD PUSH2 0x37A JUMP JUMPDEST PUSH2 0x268 PUSH1 0x0 PUSH1 0x4 PUSH2 0x38E JUMP JUMPDEST CALLVALUE PUSH2 0x237 JUMPI PUSH2 0x3B5 CALLDATASIZE PUSH1 0x4 PUSH2 0x36F JUMP JUMPDEST PUSH2 0x36B PUSH2 0x3C0 PUSH2 0x399 JUMP JUMPDEST PUSH1 0x40 MLOAD SWAP2 DUP3 SWAP2 DUP3 PUSH1 0x1 PUSH1 0x1 PUSH1 0xA0 SHL SUB SWAP1 SWAP2 AND DUP2 MSTORE PUSH1 0x20 ADD SWAP1 JUMP JUMPDEST PUSH4 0x4E487B71 PUSH1 0xE0 SHL PUSH1 0x0 MSTORE PUSH1 0x0 PUSH1 0x4 MSTORE PUSH1 0x24 PUSH1 0x0 REVERT JUMPDEST PUSH4 0x4E487B71 PUSH1 0xE0 SHL PUSH1 0x0 MSTORE PUSH1 0x22 PUSH1 0x4 MSTORE PUSH1 0x24 PUSH1 0x0 REVERT JUMPDEST SWAP1 PUSH1 0x1 PUSH1 0x2 DUP4 DIV SWAP3 AND DUP1 ISZERO PUSH2 0x426 JUMPI JUMPDEST PUSH1 0x20 DUP4 LT EQ PUSH2 0x421 JUMPI JUMP JUMPDEST PUSH2 0x3F0 JUMP JUMPDEST SWAP2 PUSH1 0x7F AND SWAP2 PUSH2 0x416 JUMP JUMPDEST DUP1 SLOAD PUSH1 0x0 SWAP4 SWAP3 SWAP2 PUSH2 0x44D PUSH2 0x443 DUP4 PUSH2 0x406 JUMP JUMPDEST DUP1 DUP6 MSTORE SWAP4 PUSH1 0x20 ADD SWAP1 JUMP JUMPDEST SWAP2 PUSH1 0x1 DUP2 AND SWAP1 DUP2 ISZERO PUSH2 0x49F JUMPI POP PUSH1 0x1 EQ PUSH2 0x466 JUMPI POP POP POP JUMP JUMPDEST PUSH2 0x479 SWAP2 SWAP3 SWAP4 SWAP5 POP PUSH1 0x0 MSTORE PUSH1 0x20 PUSH1 0x0 KECCAK256 SWAP1 JUMP JUMPDEST SWAP2 PUSH1 0x0 SWAP3 JUMPDEST DUP2 DUP5 LT PUSH2 0x48B JUMPI POP POP ADD SWAP1 JUMP JUMPDEST DUP1 SLOAD DUP5 DUP5 ADD MSTORE PUSH1 0x20 SWAP1 SWAP4 ADD SWAP3 PUSH1 0x1 ADD PUSH2 0x47E JUMP JUMPDEST SWAP3 SWAP5 SWAP6 POP POP POP PUSH1 0xFF NOT AND DUP3 MSTORE ISZERO ISZERO PUSH1 0x20 MUL ADD SWAP1 JUMP JUMPDEST SWAP1 PUSH2 0x268 SWAP2 PUSH2 0x430 JUMP JUMPDEST PUSH4 0x4E487B71 PUSH1 0xE0 SHL PUSH1 0x0 MSTORE PUSH1 0x41 PUSH1 0x4 MSTORE PUSH1 0x24 PUSH1 0x0 REVERT JUMPDEST SWAP1 PUSH1 0x1F ADD PUSH1 0x1F NOT AND DUP2 ADD SWAP1 DUP2 LT PUSH8 0xFFFFFFFFFFFFFFFF DUP3 GT OR PUSH2 0x4F6 JUMPI PUSH1 0x40 MSTORE JUMP JUMPDEST PUSH2 0x4BE JUMP JUMPDEST SWAP1 PUSH2 0x252 PUSH2 0x515 SWAP3 PUSH2 0x50C PUSH1 0x40 MLOAD SWAP1 JUMP JUMPDEST SWAP4 DUP5 DUP1 SWAP3 PUSH2 0x4B4 JUMP JUMPDEST SUB DUP4 PUSH2 0x4D4 JUMP JUMPDEST SWAP1 PUSH1 0x0 LT PUSH2 0x52D JUMPI PUSH2 0x268 SWAP1 PUSH2 0x4FB JUMP JUMPDEST PUSH2 0x3DA JUMP JUMPDEST PUSH2 0x268 PUSH1 0x0 PUSH1 0xE PUSH2 0x51C JUMP JUMPDEST PUSH1 0x20 DUP1 DUP3 MSTORE PUSH2 0x268 SWAP3 SWAP2 ADD SWAP1 PUSH2 0x28E JUMP JUMPDEST CALLVALUE PUSH2 0x237 JUMPI PUSH2 0x55F CALLDATASIZE PUSH1 0x4 PUSH2 0x36F JUMP JUMPDEST PUSH2 0x36B PUSH2 0x56A PUSH2 0x532 JUMP JUMPDEST PUSH1 0x40 MLOAD SWAP2 DUP3 SWAP2 DUP3 PUSH2 0x53E JUMP JUMPDEST CALLVALUE PUSH2 0x237 JUMPI PUSH2 0x586 CALLDATASIZE PUSH1 0x4 PUSH2 0x36F JUMP JUMPDEST PUSH2 0x36B PUSH2 0x591 PUSH2 0x148E JUMP JUMPDEST PUSH1 0x40 MLOAD SWAP2 DUP3 SWAP2 DUP3 SWAP1 DUP2 MSTORE PUSH1 0x20 ADD SWAP1 JUMP JUMPDEST PUSH1 0x1 PUSH1 0x1 PUSH1 0xA0 SHL SUB DUP2 AND PUSH2 0x23E JUMP JUMPDEST SWAP1 POP CALLDATALOAD SWAP1 PUSH2 0x252 DUP3 PUSH2 0x5A1 JUMP JUMPDEST SWAP1 PUSH1 0x20 DUP3 DUP3 SUB SLT PUSH2 0x237 JUMPI PUSH2 0x268 SWAP2 PUSH2 0x5B0 JUMP JUMPDEST PUSH2 0x2C6 PUSH2 0x268 PUSH2 0x268 SWAP3 PUSH1 0x1 PUSH1 0x1 PUSH1 0xA0 SHL SUB AND SWAP1 JUMP JUMPDEST PUSH2 0x268 SWAP1 PUSH2 0x5D1 JUMP JUMPDEST PUSH2 0x268 SWAP1 PUSH2 0x5E7 JUMP JUMPDEST SWAP1 PUSH2 0x603 SWAP1 PUSH2 0x5F0 JUMP JUMPDEST PUSH1 0x0 MSTORE PUSH1 0x20 MSTORE PUSH1 0x40 PUSH1 0x0 KECCAK256 SWAP1 JUMP JUMPDEST PUSH2 0x268 SWAP2 PUSH1 0x8 MUL SHR DUP2 JUMP JUMPDEST SWAP1 PUSH2 0x268 SWAP2 SLOAD PUSH2 0x611 JUMP JUMPDEST PUSH2 0x268 SWAP1 PUSH2 0x639 PUSH1 0x15 SWAP2 PUSH1 0x0 SWAP3 PUSH2 0x5F9 JUMP JUMPDEST PUSH2 0x61C JUMP JUMPDEST CALLVALUE PUSH2 0x237 JUMPI PUSH2 0x36B PUSH2 0x591 PUSH2 0x654 CALLDATASIZE PUSH1 0x4 PUSH2 0x5BD JUMP JUMPDEST PUSH2 0x627 JUMP JUMPDEST PUSH2 0x268 PUSH1 0x0 PUSH1 0x12 PUSH2 0x51C JUMP JUMPDEST CALLVALUE PUSH2 0x237 JUMPI PUSH2 0x675 CALLDATASIZE PUSH1 0x4 PUSH2 0x36F JUMP JUMPDEST PUSH2 0x36B PUSH2 0x56A PUSH2 0x659 JUMP JUMPDEST PUSH2 0x268 PUSH1 0x0 PUSH1 0xC PUSH2 0x61C JUMP JUMPDEST CALLVALUE PUSH2 0x237 JUMPI PUSH2 0x69C CALLDATASIZE PUSH1 0x4 PUSH2 0x36F JUMP JUMPDEST PUSH2 0x36B PUSH2 0x591 PUSH2 0x680 JUMP JUMPDEST PUSH2 0x268 PUSH1 0x0 PUSH1 0x3 PUSH2 0x61C JUMP JUMPDEST CALLVALUE PUSH2 0x237 JUMPI PUSH2 0x6C3 CALLDATASIZE PUSH1 0x4 PUSH2 0x36F JUMP JUMPDEST PUSH2 0x36B PUSH2 0x591 PUSH2 0x6A7 JUMP JUMPDEST DUP1 ISZERO ISZERO PUSH2 0x23E JUMP JUMPDEST SWAP1 POP CALLDATALOAD SWAP1 PUSH2 0x252 DUP3 PUSH2 0x6CE JUMP JUMPDEST SWAP1 PUSH1 0x20 DUP3 DUP3 SUB SLT PUSH2 0x237 JUMPI PUSH2 0x268 SWAP2 PUSH2 0x6D6 JUMP JUMPDEST CALLVALUE PUSH2 0x237 JUMPI PUSH2 0x70F PUSH2 0x70A CALLDATASIZE PUSH1 0x4 PUSH2 0x6E3 JUMP JUMPDEST PUSH2 0xFA4 JUMP JUMPDEST PUSH1 0x40 MLOAD STOP JUMPDEST PUSH2 0x268 PUSH1 0x0 PUSH1 0x8 PUSH2 0x61C JUMP JUMPDEST CALLVALUE PUSH2 0x237 JUMPI PUSH2 0x730 CALLDATASIZE PUSH1 0x4 PUSH2 0x36F JUMP JUMPDEST PUSH2 0x36B PUSH2 0x591 PUSH2 0x714 JUMP JUMPDEST CALLVALUE PUSH2 0x237 JUMPI PUSH2 0x36B PUSH2 0x591 PUSH2 0x751 CALLDATASIZE PUSH1 0x4 PUSH2 0x5BD JUMP JUMPDEST PUSH2 0x149B JUMP JUMPDEST PUSH2 0x268 PUSH1 0x0 PUSH1 0xA PUSH2 0x61C JUMP JUMPDEST CALLVALUE PUSH2 0x237 JUMPI PUSH2 0x772 CALLDATASIZE PUSH1 0x4 PUSH2 0x36F JUMP JUMPDEST PUSH2 0x36B PUSH2 0x591 PUSH2 0x756 JUMP JUMPDEST SWAP1 SWAP2 PUSH1 0x60 DUP3 DUP5 SUB SLT PUSH2 0x237 JUMPI PUSH2 0x268 PUSH2 0x796 DUP5 DUP5 PUSH2 0x5B0 JUMP JUMPDEST SWAP4 PUSH2 0x7A4 DUP2 PUSH1 0x20 DUP7 ADD PUSH2 0x245 JUMP JUMPDEST SWAP4 PUSH1 0x40 ADD PUSH2 0x5B0 JUMP JUMPDEST CALLVALUE PUSH2 0x237 JUMPI PUSH2 0x70F PUSH2 0x7C0 CALLDATASIZE PUSH1 0x4 PUSH2 0x77D JUMP JUMPDEST SWAP2 PUSH2 0x1405 JUMP JUMPDEST CALLVALUE PUSH2 0x237 JUMPI PUSH2 0x70F PUSH2 0x7D9 CALLDATASIZE PUSH1 0x4 PUSH2 0x254 JUMP JUMPDEST PUSH2 0x1B90 JUMP JUMPDEST PUSH2 0x268 SWAP2 PUSH1 0x8 MUL SHR JUMPDEST PUSH1 0xFF AND SWAP1 JUMP JUMPDEST SWAP1 PUSH2 0x268 SWAP2 SLOAD PUSH2 0x7DE JUMP JUMPDEST PUSH2 0x268 PUSH1 0x1 PUSH1 0xF PUSH2 0x7ED JUMP JUMPDEST CALLVALUE PUSH2 0x237 JUMPI PUSH2 0x814 CALLDATASIZE PUSH1 0x4 PUSH2 0x36F JUMP JUMPDEST PUSH2 0x36B PUSH2 0x81F PUSH2 0x7F8 JUMP JUMPDEST PUSH1 0x40 MLOAD SWAP2 DUP3 SWAP2 DUP3 SWAP1 ISZERO ISZERO DUP2 MSTORE PUSH1 0x20 ADD SWAP1 JUMP JUMPDEST PUSH2 0x268 PUSH1 0x0 PUSH1 0x13 PUSH2 0x51C JUMP JUMPDEST CALLVALUE PUSH2 0x237 JUMPI PUSH2 0x84D CALLDATASIZE PUSH1 0x4 PUSH2 0x36F JUMP JUMPDEST PUSH2 0x36B PUSH2 0x56A PUSH2 0x831 JUMP JUMPDEST SWAP2 SWAP1 PUSH1 0x40 DUP4 DUP3 SUB SLT PUSH2 0x237 JUMPI PUSH2 0x268 SWAP1 PUSH2 0x872 DUP2 DUP6 PUSH2 0x245 JUMP JUMPDEST SWAP4 PUSH1 0x20 ADD PUSH2 0x5B0 JUMP JUMPDEST CALLVALUE PUSH2 0x237 JUMPI PUSH2 0x70F PUSH2 0x88E CALLDATASIZE PUSH1 0x4 PUSH2 0x858 JUMP JUMPDEST SWAP1 PUSH2 0x21F5 JUMP JUMPDEST PUSH2 0x268 PUSH1 0x2 PUSH1 0xF PUSH2 0x7ED JUMP JUMPDEST CALLVALUE PUSH2 0x237 JUMPI PUSH2 0x8B0 CALLDATASIZE PUSH1 0x4 PUSH2 0x36F JUMP JUMPDEST PUSH2 0x36B PUSH2 0x81F PUSH2 0x894 JUMP JUMPDEST PUSH2 0x268 PUSH1 0x0 PUSH1 0x7 PUSH2 0x61C JUMP JUMPDEST CALLVALUE PUSH2 0x237 JUMPI PUSH2 0x8D7 CALLDATASIZE PUSH1 0x4 PUSH2 0x36F JUMP JUMPDEST PUSH2 0x36B PUSH2 0x591 PUSH2 0x8BB JUMP JUMPDEST PUSH2 0x268 PUSH2 0x268 PUSH2 0x268 SWAP3 SWAP1 JUMP JUMPDEST SWAP1 PUSH2 0x603 SWAP1 PUSH2 0x8E2 JUMP JUMPDEST PUSH2 0x268 SWAP1 DUP2 JUMP JUMPDEST PUSH2 0x268 SWAP1 SLOAD PUSH2 0x8F9 JUMP JUMPDEST PUSH2 0x268 SWAP1 PUSH2 0x7E7 JUMP JUMPDEST PUSH2 0x268 SWAP1 SLOAD PUSH2 0x90A JUMP JUMPDEST PUSH2 0x268 SWAP1 PUSH1 0x8 SHR PUSH2 0x2C6 JUMP JUMPDEST PUSH2 0x268 SWAP1 SLOAD PUSH2 0x91D JUMP JUMPDEST PUSH2 0x93E SWAP1 PUSH1 0x16 PUSH2 0x8EF JUMP JUMPDEST SWAP1 PUSH2 0x948 DUP3 PUSH2 0x4FB JUMP JUMPDEST SWAP2 PUSH2 0x95D PUSH1 0x1 DUP3 ADD SLOAD PUSH1 0x1 PUSH1 0x1 PUSH1 0xA0 SHL SUB AND SWAP1 JUMP JUMPDEST SWAP2 PUSH2 0x96A PUSH1 0x2 DUP4 ADD PUSH2 0x900 JUMP JUMPDEST SWAP2 PUSH2 0x977 PUSH1 0x3 DUP3 ADD PUSH2 0x900 JUMP JUMPDEST SWAP2 PUSH2 0x268 PUSH1 0x5 PUSH2 0x988 DUP2 DUP6 ADD PUSH2 0x913 JUMP JUMPDEST SWAP4 ADD PUSH2 0x929 JUMP JUMPDEST SWAP2 SWAP7 SWAP6 SWAP4 SWAP5 PUSH2 0x9DD PUSH2 0x252 SWAP7 PUSH2 0x9D6 PUSH1 0xA0 SWAP7 PUSH2 0x9CF PUSH2 0x9BD PUSH2 0x9E6 SWAP8 PUSH1 0xC0 DUP11 ADD SWAP1 DUP11 DUP3 SUB PUSH1 0x0 DUP13 ADD MSTORE PUSH2 0x28E JUMP JUMPDEST PUSH1 0x1 PUSH1 0x1 PUSH1 0xA0 SHL SUB SWAP1 SWAP14 AND PUSH1 0x20 DUP10 ADD MSTORE JUMP JUMPDEST PUSH1 0x40 DUP8 ADD MSTORE JUMP JUMPDEST PUSH1 0x60 DUP6 ADD MSTORE JUMP JUMPDEST ISZERO ISZERO PUSH1 0x80 DUP4 ADD MSTORE JUMP JUMPDEST ADD SWAP1 PUSH1 0x1 PUSH1 0x1 PUSH1 0xA0 SHL SUB AND SWAP1 MSTORE JUMP JUMPDEST CALLVALUE PUSH2 0x237 JUMPI PUSH2 0x36B PUSH2 0xA10 PUSH2 0xA0B CALLDATASIZE PUSH1 0x4 PUSH2 0x254 JUMP JUMPDEST PUSH2 0x933 JUMP JUMPDEST SWAP3 PUSH2 0xA20 SWAP7 SWAP5 SWAP7 SWAP3 SWAP2 SWAP3 PUSH1 0x40 MLOAD SWAP1 JUMP JUMPDEST SWAP7 DUP8 SWAP7 DUP8 PUSH2 0x98F JUMP JUMPDEST PUSH2 0x268 PUSH1 0x0 PUSH1 0x14 PUSH2 0x51C JUMP JUMPDEST CALLVALUE PUSH2 0x237 JUMPI PUSH2 0xA45 CALLDATASIZE PUSH1 0x4 PUSH2 0x36F JUMP JUMPDEST PUSH2 0x36B PUSH2 0x56A PUSH2 0xA29 JUMP JUMPDEST PUSH2 0x268 PUSH1 0x0 PUSH1 0x10 PUSH2 0x51C JUMP JUMPDEST CALLVALUE PUSH2 0x237 JUMPI PUSH2 0xA6C CALLDATASIZE PUSH1 0x4 PUSH2 0x36F JUMP JUMPDEST PUSH2 0x36B PUSH2 0x56A PUSH2 0xA50 JUMP JUMPDEST PUSH2 0x268 PUSH1 0x0 PUSH1 0x17 PUSH2 0x61C JUMP JUMPDEST CALLVALUE PUSH2 0x237 JUMPI PUSH2 0xA93 CALLDATASIZE PUSH1 0x4 PUSH2 0x36F JUMP JUMPDEST PUSH2 0x36B PUSH2 0x591 PUSH2 0xA77 JUMP JUMPDEST PUSH2 0x268 PUSH1 0x0 PUSH1 0x9 PUSH2 0x61C JUMP JUMPDEST CALLVALUE PUSH2 0x237 JUMPI PUSH2 0xABA CALLDATASIZE PUSH1 0x4 PUSH2 0x36F JUMP JUMPDEST PUSH2 0x36B PUSH2 0x591 PUSH2 0xA9E JUMP JUMPDEST SWAP1 PUSH2 0x252 PUSH2 0xAD2 PUSH1 0x40 MLOAD SWAP1 JUMP JUMPDEST SWAP3 DUP4 PUSH2 0x4D4 JUMP JUMPDEST PUSH8 0xFFFFFFFFFFFFFFFF DUP2 GT PUSH2 0x4F6 JUMPI PUSH1 0x20 SWAP1 PUSH1 0x1F ADD PUSH1 0x1F NOT AND ADD SWAP1 JUMP JUMPDEST SWAP1 DUP3 PUSH1 0x0 SWAP4 SWAP3 DUP3 CALLDATACOPY ADD MSTORE JUMP JUMPDEST SWAP1 SWAP3 SWAP2 SWAP3 PUSH2 0xB17 PUSH2 0xB12 DUP3 PUSH2 0xAD9 JUMP JUMPDEST PUSH2 0xAC5 JUMP JUMPDEST SWAP4 DUP2 DUP6 MSTORE PUSH1 0x20 DUP6 ADD SWAP1 DUP3 DUP5 ADD GT PUSH2 0x237 JUMPI PUSH2 0x252 SWAP3 PUSH2 0xAF6 JUMP JUMPDEST SWAP1 DUP1 PUSH1 0x1F DUP4 ADD SLT ISZERO PUSH2 0x237 JUMPI DUP2 PUSH1 0x20 PUSH2 0x268 SWAP4 CALLDATALOAD SWAP2 ADD PUSH2 0xB02 JUMP JUMPDEST SWAP2 SWAP1 PUSH1 0xA0 DUP4 DUP3 SUB SLT PUSH2 0x237 JUMPI DUP3 CALLDATALOAD PUSH8 0xFFFFFFFFFFFFFFFF DUP2 GT PUSH2 0x237 JUMPI DUP2 PUSH2 0xB75 SWAP2 DUP6 ADD PUSH2 0xB31 JUMP JUMPDEST SWAP3 PUSH2 0xB83 DUP3 PUSH1 0x20 DUP4 ADD PUSH2 0x245 JUMP JUMPDEST SWAP3 PUSH2 0x268 PUSH2 0xB94 DUP5 PUSH1 0x40 DUP6 ADD PUSH2 0x5B0 JUMP JUMPDEST SWAP4 PUSH2 0xBA2 DUP2 PUSH1 0x60 DUP7 ADD PUSH2 0x5B0 JUMP JUMPDEST SWAP4 PUSH1 0x80 ADD PUSH2 0x245 JUMP JUMPDEST CALLVALUE PUSH2 0x237 JUMPI PUSH2 0x70F PUSH2 0xBBE CALLDATASIZE PUSH1 0x4 PUSH2 0xB4C JUMP JUMPDEST SWAP4 SWAP3 SWAP1 SWAP3 PUSH2 0x1ACE JUMP JUMPDEST PUSH2 0x268 PUSH1 0x0 PUSH1 0xF PUSH2 0x7ED JUMP JUMPDEST PUSH4 0x4E487B71 PUSH1 0xE0 SHL PUSH1 0x0 MSTORE PUSH1 0x21 PUSH1 0x4 MSTORE PUSH1 0x24 PUSH1 0x0 REVERT JUMPDEST PUSH1 0x3 GT ISZERO PUSH2 0xBF3 JUMPI JUMP JUMPDEST PUSH2 0xBD3 JUMP JUMPDEST SWAP1 PUSH2 0x252 DUP3 PUSH2 0xBE9 JUMP JUMPDEST PUSH2 0x268 SWAP1 PUSH2 0xBF8 JUMP JUMPDEST PUSH2 0x2D2 SWAP1 PUSH2 0xC02 JUMP JUMPDEST PUSH1 0x20 DUP2 ADD SWAP3 SWAP2 PUSH2 0x252 SWAP2 SWAP1 PUSH2 0xC0B JUMP JUMPDEST CALLVALUE PUSH2 0x237 JUMPI PUSH2 0xC34 CALLDATASIZE PUSH1 0x4 PUSH2 0x36F JUMP JUMPDEST PUSH2 0x36B PUSH2 0xC3F PUSH2 0xBC7 JUMP JUMPDEST PUSH1 0x40 MLOAD SWAP2 DUP3 SWAP2 DUP3 PUSH2 0xC14 JUMP JUMPDEST PUSH2 0x268 PUSH1 0x0 PUSH1 0xD PUSH2 0x51C JUMP JUMPDEST CALLVALUE PUSH2 0x237 JUMPI PUSH2 0xC67 CALLDATASIZE PUSH1 0x4 PUSH2 0x36F JUMP JUMPDEST PUSH2 0x36B PUSH2 0x56A PUSH2 0xC4B JUMP JUMPDEST PUSH2 0x268 PUSH1 0x0 PUSH1 0xB PUSH2 0x61C JUMP JUMPDEST CALLVALUE PUSH2 0x237 JUMPI PUSH2 0xC8E CALLDATASIZE PUSH1 0x4 PUSH2 0x36F JUMP JUMPDEST PUSH2 0x36B PUSH2 0x591 PUSH2 0xC72 JUMP JUMPDEST PUSH2 0x268 PUSH1 0x0 PUSH1 0x2 PUSH2 0x38E JUMP JUMPDEST CALLVALUE PUSH2 0x237 JUMPI PUSH2 0xCB5 CALLDATASIZE PUSH1 0x4 PUSH2 0x36F JUMP JUMPDEST PUSH2 0x36B PUSH2 0x3C0 PUSH2 0xC99 JUMP JUMPDEST PUSH2 0x268 PUSH1 0x0 PUSH1 0x11 PUSH2 0x51C JUMP JUMPDEST CALLVALUE PUSH2 0x237 JUMPI PUSH2 0xCDC CALLDATASIZE PUSH1 0x4 PUSH2 0x36F JUMP JUMPDEST PUSH2 0x36B PUSH2 0x56A PUSH2 0xCC0 JUMP JUMPDEST CALLVALUE PUSH2 0x237 JUMPI PUSH2 0xCF7 CALLDATASIZE PUSH1 0x4 PUSH2 0x36F JUMP JUMPDEST PUSH2 0x36B PUSH2 0x81F PUSH2 0x16F2 JUMP JUMPDEST CALLVALUE PUSH2 0x237 JUMPI PUSH2 0x70F PUSH2 0xD15 CALLDATASIZE PUSH1 0x4 PUSH2 0x254 JUMP JUMPDEST PUSH2 0xF47 JUMP JUMPDEST CALLVALUE PUSH2 0x237 JUMPI PUSH2 0x70F PUSH2 0xD2D CALLDATASIZE PUSH1 0x4 PUSH2 0x6E3 JUMP JUMPDEST PUSH2 0x1002 JUMP JUMPDEST SWAP15 SWAP14 SWAP13 SWAP12 SWAP10 SWAP9 SWAP8 SWAP6 SWAP4 SWAP2 SWAP3 DUP16 SWAP2 SWAP8 SWAP6 SWAP4 PUSH2 0x200 DUP4 ADD SWAP9 PUSH1 0x0 DUP5 ADD PUSH2 0xD5D SWAP2 PUSH1 0x1 PUSH1 0x1 PUSH1 0xA0 SHL SUB AND SWAP1 MSTORE JUMP JUMPDEST PUSH1 0x1 PUSH1 0x1 PUSH1 0xA0 SHL SUB AND PUSH1 0x20 DUP4 ADD MSTORE PUSH1 0x1 PUSH1 0x1 PUSH1 0xA0 SHL SUB AND PUSH1 0x40 DUP3 ADD MSTORE PUSH1 0x60 ADD MSTORE PUSH1 0x80 DUP14 ADD MSTORE PUSH1 0xA0 DUP13 ADD MSTORE PUSH1 0xC0 DUP12 ADD MSTORE PUSH1 0xE0 DUP11 ADD MSTORE DUP9 DUP2 SUB PUSH2 0x100 DUP11 ADD MSTORE PUSH2 0xDA3 SWAP2 PUSH2 0x28E JUMP JUMPDEST DUP8 DUP2 SUB PUSH2 0x120 DUP10 ADD MSTORE PUSH2 0xDB5 SWAP2 PUSH2 0x28E JUMP JUMPDEST SWAP2 PUSH2 0x140 DUP8 ADD PUSH2 0xDC4 SWAP2 PUSH2 0xC0B JUMP JUMPDEST PUSH2 0x160 DUP7 ADD MSTORE DUP5 DUP2 SUB PUSH2 0x180 DUP7 ADD MSTORE PUSH2 0xDDC SWAP2 PUSH2 0x28E JUMP JUMPDEST DUP4 DUP2 SUB PUSH2 0x1A0 DUP6 ADD MSTORE PUSH2 0xDEE SWAP2 PUSH2 0x28E JUMP JUMPDEST DUP3 DUP2 SUB PUSH2 0x1C0 DUP5 ADD MSTORE PUSH2 0xE00 SWAP2 PUSH2 0x28E JUMP JUMPDEST SWAP1 DUP1 DUP3 SUB SWAP1 PUSH2 0x1E0 ADD MSTORE PUSH2 0x268 SWAP2 PUSH2 0x28E JUMP JUMPDEST CALLVALUE PUSH2 0x237 JUMPI PUSH2 0xE23 CALLDATASIZE PUSH1 0x4 PUSH2 0x36F JUMP JUMPDEST PUSH2 0xE58 PUSH2 0xE2E PUSH2 0x2208 JUMP JUMPDEST SWAP15 PUSH2 0xE4D SWAP15 SWAP2 SWAP15 SWAP14 SWAP3 SWAP14 SWAP13 SWAP4 SWAP13 SWAP12 SWAP5 SWAP12 SWAP11 SWAP6 SWAP11 SWAP10 SWAP7 SWAP10 SWAP9 SWAP8 SWAP9 PUSH1 0x40 MLOAD SWAP1 JUMP JUMPDEST PUSH1 0x80 MSTORE PUSH1 0x80 MLOAD PUSH2 0xD32 JUMP JUMPDEST PUSH1 0x80 MLOAD SWAP1 SUB PUSH1 0x80 MLOAD RETURN JUMPDEST ISZERO PUSH2 0xE69 JUMPI JUMP JUMPDEST PUSH1 0x40 MLOAD PUSH3 0x461BCD PUSH1 0xE5 SHL DUP2 MSTORE PUSH1 0x20 PUSH1 0x4 DUP3 ADD MSTORE PUSH1 0x36 PUSH1 0x24 DUP3 ADD MSTORE PUSH32 0x596F7520646F6E7420686176652061646D696E2061636365737320746F207065 PUSH1 0x44 DUP3 ADD MSTORE PUSH32 0x72666F726D2074686973206F7065726174696F6E202100000000000000000000 PUSH1 0x64 DUP3 ADD MSTORE PUSH1 0x84 SWAP1 REVERT JUMPDEST PUSH2 0x252 SWAP1 PUSH2 0xF0C CALLER PUSH2 0xF06 PUSH2 0xEF9 PUSH2 0xEF4 PUSH1 0x1 SLOAD PUSH1 0x1 PUSH1 0x1 PUSH1 0xA0 SHL SUB AND SWAP1 JUMP JUMPDEST PUSH2 0x5F0 JUMP JUMPDEST SWAP2 PUSH1 0x1 PUSH1 0x1 PUSH1 0xA0 SHL SUB AND SWAP1 JUMP JUMPDEST EQ PUSH2 0xE62 JUMP JUMPDEST PUSH2 0xF3C JUMP JUMPDEST SWAP1 PUSH1 0x0 NOT SWAP1 JUMPDEST SWAP2 DUP2 NOT AND SWAP2 AND OR SWAP1 JUMP JUMPDEST SWAP1 PUSH2 0xF31 PUSH2 0x268 PUSH2 0xF38 SWAP3 PUSH2 0x8E2 JUMP JUMPDEST DUP3 SLOAD PUSH2 0xF11 JUMP JUMPDEST SWAP1 SSTORE JUMP JUMPDEST PUSH2 0x252 SWAP1 PUSH1 0x3 PUSH2 0xF21 JUMP JUMPDEST PUSH2 0x252 SWAP1 PUSH2 0xED4 JUMP JUMPDEST PUSH2 0x252 SWAP1 PUSH2 0xF70 CALLER PUSH2 0xF06 PUSH2 0xEF9 PUSH2 0xEF4 PUSH1 0x1 SLOAD PUSH1 0x1 PUSH1 0x1 PUSH1 0xA0 SHL SUB AND SWAP1 JUMP JUMPDEST PUSH2 0xF99 JUMP JUMPDEST SWAP1 PUSH2 0xFF00 SWAP1 PUSH1 0x8 SHL PUSH2 0xF17 JUMP JUMPDEST SWAP1 PUSH2 0xF92 PUSH2 0x268 PUSH2 0xF38 SWAP3 ISZERO ISZERO SWAP1 JUMP JUMPDEST DUP3 SLOAD PUSH2 0xF75 JUMP JUMPDEST PUSH2 0x252 SWAP1 PUSH1 0xF PUSH2 0xF82 JUMP JUMPDEST PUSH2 0x252 SWAP1 PUSH2 0xF50 JUMP JUMPDEST PUSH2 0x252 SWAP1 PUSH2 0xFCD CALLER PUSH2 0xF06 PUSH2 0xEF9 PUSH2 0xEF4 PUSH1 0x1 SLOAD PUSH1 0x1 PUSH1 0x1 PUSH1 0xA0 SHL SUB AND SWAP1 JUMP JUMPDEST PUSH2 0xFF7 JUMP JUMPDEST SWAP1 PUSH3 0xFF0000 SWAP1 PUSH1 0x10 SHL PUSH2 0xF17 JUMP JUMPDEST SWAP1 PUSH2 0xFF0 PUSH2 0x268 PUSH2 0xF38 SWAP3 ISZERO ISZERO SWAP1 JUMP JUMPDEST DUP3 SLOAD PUSH2 0xFD2 JUMP JUMPDEST PUSH2 0x252 SWAP1 PUSH1 0xF PUSH2 0xFE0 JUMP JUMPDEST PUSH2 0x252 SWAP1 PUSH2 0xFAD JUMP JUMPDEST PUSH2 0x268 SWAP1 PUSH1 0x10 SHR PUSH2 0x7E7 JUMP JUMPDEST PUSH2 0x268 SWAP1 SLOAD PUSH2 0x100B JUMP JUMPDEST ISZERO PUSH2 0x1028 JUMPI JUMP JUMPDEST PUSH1 0x40 MLOAD PUSH3 0x461BCD PUSH1 0xE5 SHL DUP2 MSTORE PUSH1 0x20 PUSH1 0x4 DUP3 ADD MSTORE PUSH1 0x18 PUSH1 0x24 DUP3 ADD MSTORE PUSH32 0x50726F6A656374206D7573742062652076657269666965640000000000000000 PUSH1 0x44 DUP3 ADD MSTORE PUSH1 0x64 SWAP1 REVERT JUMPDEST SWAP1 PUSH2 0x252 SWAP3 SWAP2 PUSH2 0x1092 PUSH2 0x1080 PUSH1 0xF PUSH2 0x1017 JUMP JUMPDEST PUSH2 0x108C PUSH1 0x1 JUMPDEST SWAP2 ISZERO ISZERO SWAP1 JUMP JUMPDEST EQ PUSH2 0x1021 JUMP JUMPDEST PUSH2 0x1109 JUMP JUMPDEST ISZERO PUSH2 0x109E JUMPI JUMP JUMPDEST PUSH1 0x40 MLOAD PUSH3 0x461BCD PUSH1 0xE5 SHL DUP2 MSTORE PUSH1 0x20 PUSH1 0x4 DUP3 ADD MSTORE PUSH1 0x3C PUSH1 0x24 DUP3 ADD MSTORE PUSH32 0x596F7520646F206E6F74206861766520746865206D6173746572207269676874 PUSH1 0x44 DUP3 ADD MSTORE PUSH32 0x7320746F20706572666F726D2074686973206F7065726174696F6E2100000000 PUSH1 0x64 DUP3 ADD MSTORE PUSH1 0x84 SWAP1 REVERT JUMPDEST SWAP1 PUSH2 0x252 SWAP3 SWAP2 PUSH2 0x1131 CALLER PUSH2 0x112B PUSH2 0xEF9 PUSH2 0xEF4 PUSH1 0x0 SLOAD PUSH1 0x1 PUSH1 0x1 PUSH1 0xA0 SHL SUB AND SWAP1 JUMP JUMPDEST EQ PUSH2 0x1097 JUMP JUMPDEST PUSH2 0x1230 JUMP JUMPDEST PUSH4 0x4E487B71 PUSH1 0xE0 SHL PUSH1 0x0 MSTORE PUSH1 0x11 PUSH1 0x4 MSTORE PUSH1 0x24 PUSH1 0x0 REVERT JUMPDEST PUSH1 0x0 NOT DUP2 EQ PUSH2 0x115B JUMPI PUSH1 0x1 ADD SWAP1 JUMP JUMPDEST PUSH2 0x1136 JUMP JUMPDEST SWAP2 SWAP1 DUP3 ADD DUP1 SWAP3 GT PUSH2 0x115B JUMPI JUMP JUMPDEST SWAP1 POP MLOAD SWAP1 PUSH2 0x252 DUP3 PUSH2 0x23C JUMP JUMPDEST SWAP1 PUSH1 0x20 DUP3 DUP3 SUB SLT PUSH2 0x237 JUMPI PUSH2 0x268 SWAP2 PUSH2 0x116D JUMP JUMPDEST PUSH1 0x1 PUSH1 0x1 PUSH1 0xA0 SHL SUB SWAP1 SWAP2 AND DUP2 MSTORE PUSH1 0x40 DUP2 ADD SWAP3 SWAP2 PUSH2 0x252 SWAP2 PUSH1 0x20 SWAP1 PUSH2 0x9E6 JUMP JUMPDEST PUSH1 0x40 MLOAD RETURNDATASIZE PUSH1 0x0 DUP3 RETURNDATACOPY RETURNDATASIZE SWAP1 REVERT JUMPDEST ISZERO PUSH2 0x237 JUMPI JUMP JUMPDEST SWAP1 POP MLOAD SWAP1 PUSH2 0x252 DUP3 PUSH2 0x6CE JUMP JUMPDEST SWAP1 PUSH1 0x20 DUP3 DUP3 SUB SLT PUSH2 0x237 JUMPI PUSH2 0x268 SWAP2 PUSH2 0x11C0 JUMP JUMPDEST PUSH1 0x1 PUSH1 0x1 PUSH1 0xA0 SHL SUB SWAP2 DUP3 AND DUP2 MSTORE SWAP2 AND PUSH1 0x20 DUP3 ADD MSTORE PUSH1 0x60 DUP2 ADD SWAP3 SWAP2 PUSH2 0x252 SWAP2 PUSH1 0x40 ADD MSTORE JUMP JUMPDEST ADD MSTORE JUMP JUMPDEST PUSH1 0x1 PUSH1 0x1 PUSH1 0xA0 SHL SUB SWAP1 SWAP2 AND DUP2 MSTORE PUSH1 0x60 DUP2 ADD SWAP4 SWAP3 PUSH2 0x252 SWAP3 SWAP1 SWAP2 PUSH1 0x40 SWAP2 PUSH2 0x1205 SWAP1 PUSH1 0x20 DUP4 ADD MSTORE JUMP JUMPDEST SWAP2 PUSH2 0x129E PUSH1 0x15 SWAP2 PUSH2 0x1286 PUSH2 0x126E DUP7 PUSH2 0x1250 PUSH2 0x124B DUP3 DUP9 PUSH2 0x5F9 JUMP JUMPDEST PUSH2 0x900 JUMP JUMPDEST SWAP6 PUSH1 0x0 SWAP7 PUSH2 0x1264 PUSH2 0x1260 DUP10 PUSH2 0x8E2 JUMP JUMPDEST SWAP2 SWAP1 JUMP JUMPDEST EQ PUSH2 0x13E4 JUMPI PUSH2 0x5F9 JUMP JUMPDEST PUSH2 0x1280 DUP7 PUSH2 0x127B DUP4 PUSH2 0x900 JUMP JUMPDEST PUSH2 0x1160 JUMP JUMPDEST SWAP1 PUSH2 0xF21 JUMP JUMPDEST PUSH2 0xEF4 PUSH2 0x1297 DUP6 PUSH2 0x127B PUSH1 0xB PUSH2 0x900 JUMP JUMPDEST PUSH1 0xB PUSH2 0xF21 JUMP JUMPDEST SWAP1 PUSH4 0xDD62ED3E SWAP2 PUSH2 0x12AE ADDRESS PUSH2 0x5F0 JUMP JUMPDEST PUSH2 0x12C1 PUSH2 0x12BA PUSH1 0x40 MLOAD SWAP1 JUMP JUMPDEST SWAP5 PUSH1 0xE0 SHL SWAP1 JUMP JUMPDEST DUP5 MSTORE PUSH1 0x20 DUP5 DUP1 PUSH2 0x12D5 DUP5 DUP11 PUSH1 0x4 DUP5 ADD PUSH2 0x118E JUMP JUMPDEST SUB DUP2 DUP6 GAS STATICCALL SWAP2 DUP3 ISZERO PUSH2 0x13B2 JUMPI PUSH2 0x12F9 PUSH1 0x20 SWAP4 DUP8 SWAP7 DUP7 SWAP2 PUSH2 0x13B7 JUMPI JUMPDEST POP DUP7 GT ISZERO PUSH2 0x11B9 JUMP JUMPDEST PUSH2 0x131B DUP5 PUSH4 0x23B872DD PUSH2 0x1327 PUSH2 0x130E PUSH1 0x40 MLOAD SWAP1 JUMP JUMPDEST SWAP9 DUP10 SWAP7 DUP8 SWAP6 DUP7 SWAP5 PUSH1 0xE0 SHL SWAP1 JUMP JUMPDEST DUP5 MSTORE DUP13 PUSH1 0x4 DUP6 ADD PUSH2 0x11E1 JUMP JUMPDEST SUB SWAP3 GAS CALL SWAP1 DUP2 ISZERO PUSH2 0x13B2 JUMPI POP PUSH2 0x1386 JUMPI JUMPDEST POP PUSH2 0x1343 PUSH1 0xB PUSH2 0x900 JUMP JUMPDEST SWAP2 PUSH2 0x137B PUSH32 0x5CDC4AB8D637538EAD6CC1904D4160343656C8C82BD266635CFD31AC008FFFE0 SWAP4 PUSH2 0x1372 PUSH1 0x40 MLOAD SWAP1 JUMP JUMPDEST SWAP4 DUP5 SWAP4 DUP5 PUSH2 0x1209 JUMP JUMPDEST SUB SWAP1 LOG1 PUSH2 0x252 PUSH2 0x1430 JUMP JUMPDEST PUSH2 0x13A6 SWAP1 PUSH1 0x20 RETURNDATASIZE DUP2 GT PUSH2 0x13AB JUMPI JUMPDEST PUSH2 0x139E DUP2 DUP4 PUSH2 0x4D4 JUMP JUMPDEST DUP2 ADD SWAP1 PUSH2 0x11CD JUMP JUMPDEST PUSH2 0x1338 JUMP JUMPDEST POP RETURNDATASIZE PUSH2 0x1394 JUMP JUMPDEST PUSH2 0x11AD JUMP JUMPDEST PUSH2 0x13D7 SWAP2 POP DUP6 RETURNDATASIZE DUP2 GT PUSH2 0x13DD JUMPI JUMPDEST PUSH2 0x13CF DUP2 DUP4 PUSH2 0x4D4 JUMP JUMPDEST DUP2 ADD SWAP1 PUSH2 0x117A JUMP JUMPDEST CODESIZE PUSH2 0x12F0 JUMP JUMPDEST POP RETURNDATASIZE PUSH2 0x13C5 JUMP JUMPDEST PUSH2 0x1400 PUSH2 0x13F9 PUSH2 0x13F4 PUSH1 0xC PUSH2 0x900 JUMP JUMPDEST PUSH2 0x114C JUMP JUMPDEST PUSH1 0xC PUSH2 0xF21 JUMP JUMPDEST PUSH2 0x5F9 JUMP JUMPDEST SWAP1 PUSH2 0x252 SWAP3 SWAP2 PUSH2 0x106D JUMP JUMPDEST SWAP1 PUSH1 0xFF SWAP1 PUSH2 0xF17 JUMP JUMPDEST SWAP1 PUSH2 0x1429 PUSH2 0x268 PUSH2 0xF38 SWAP3 PUSH2 0xC02 JUMP JUMPDEST DUP3 SLOAD PUSH2 0x1410 JUMP JUMPDEST PUSH2 0x143A PUSH1 0xB PUSH2 0x900 JUMP JUMPDEST PUSH2 0x144A PUSH2 0x1260 PUSH2 0x268 PUSH1 0x9 PUSH2 0x900 JUMP JUMPDEST LT PUSH2 0x1466 JUMPI PUSH2 0x145B PUSH1 0x2 PUSH1 0xF PUSH2 0x1419 JUMP JUMPDEST PUSH2 0x252 TIMESTAMP PUSH1 0xA PUSH2 0xF21 JUMP JUMPDEST TIMESTAMP PUSH2 0x1477 PUSH2 0x1260 PUSH2 0x268 PUSH1 0x8 PUSH2 0x900 JUMP JUMPDEST GT ISZERO PUSH2 0x145B JUMPI PUSH2 0x1489 PUSH1 0x1 PUSH1 0xF PUSH2 0x1419 JUMP JUMPDEST PUSH2 0x145B JUMP JUMPDEST PUSH2 0x1497 ADDRESS PUSH2 0x5F0 JUMP JUMPDEST BALANCE SWAP1 JUMP JUMPDEST PUSH1 0x20 PUSH2 0x14B2 PUSH2 0x14F2 SWAP3 PUSH2 0x14AC PUSH1 0x0 SWAP1 JUMP JUMPDEST POP PUSH2 0x5F0 JUMP JUMPDEST PUSH4 0x70A08231 SWAP1 PUSH2 0x14DB PUSH2 0x14C4 ADDRESS PUSH2 0x5F0 JUMP JUMPDEST SWAP3 PUSH2 0x14CE PUSH1 0x40 MLOAD SWAP1 JUMP JUMPDEST SWAP6 DUP7 SWAP5 DUP6 SWAP4 DUP5 SWAP4 PUSH1 0xE0 SHL SWAP1 JUMP JUMPDEST DUP4 MSTORE PUSH1 0x1 PUSH1 0x1 PUSH1 0xA0 SHL SUB AND PUSH1 0x4 DUP4 ADD MSTORE PUSH1 0x24 DUP3 ADD SWAP1 JUMP JUMPDEST SUB SWAP2 GAS STATICCALL SWAP1 DUP2 ISZERO PUSH2 0x13B2 JUMPI PUSH1 0x0 SWAP2 PUSH2 0x1508 JUMPI POP SWAP1 JUMP JUMPDEST PUSH2 0x268 SWAP2 POP PUSH1 0x20 RETURNDATASIZE DUP2 GT PUSH2 0x13DD JUMPI PUSH2 0x13CF DUP2 DUP4 PUSH2 0x4D4 JUMP JUMPDEST ISZERO PUSH2 0x1527 JUMPI JUMP JUMPDEST PUSH1 0x40 MLOAD PUSH3 0x461BCD PUSH1 0xE5 SHL DUP2 MSTORE PUSH1 0x20 PUSH1 0x4 DUP3 ADD MSTORE PUSH1 0xD PUSH1 0x24 DUP3 ADD MSTORE PUSH32 0x496E76616C696420737461746500000000000000000000000000000000000000 PUSH1 0x44 DUP3 ADD MSTORE PUSH1 0x64 SWAP1 REVERT JUMPDEST ISZERO PUSH2 0x1573 JUMPI JUMP JUMPDEST PUSH1 0x40 MLOAD PUSH3 0x461BCD PUSH1 0xE5 SHL DUP2 MSTORE PUSH1 0x20 PUSH1 0x4 DUP3 ADD MSTORE PUSH1 0x15 PUSH1 0x24 DUP3 ADD MSTORE PUSH32 0x446561646C696E65206861732070617373656420210000000000000000000000 PUSH1 0x44 DUP3 ADD MSTORE PUSH1 0x64 SWAP1 REVERT JUMPDEST PUSH2 0x268 SWAP1 PUSH2 0x15E3 PUSH1 0x1 PUSH2 0x15DD PUSH2 0x15D7 PUSH2 0x15D1 PUSH1 0xF PUSH2 0x913 JUMP JUMPDEST SWAP3 PUSH2 0xBF8 JUMP JUMPDEST SWAP2 PUSH2 0xBF8 JUMP JUMPDEST EQ PUSH2 0x1520 JUMP JUMPDEST PUSH2 0x15FD TIMESTAMP PUSH2 0x15F7 PUSH2 0x1260 PUSH2 0x268 PUSH1 0x8 PUSH2 0x900 JUMP JUMPDEST LT PUSH2 0x156C JUMP JUMPDEST PUSH2 0x1674 JUMP JUMPDEST ISZERO PUSH2 0x1609 JUMPI JUMP JUMPDEST PUSH1 0x40 MLOAD PUSH3 0x461BCD PUSH1 0xE5 SHL DUP2 MSTORE PUSH1 0x20 PUSH1 0x4 DUP3 ADD MSTORE PUSH1 0x26 PUSH1 0x24 DUP3 ADD MSTORE PUSH32 0x596F7520646F6E74206861766520616E7920636F6E747269627574656420616D PUSH1 0x44 DUP3 ADD MSTORE PUSH32 0x6F756E7420210000000000000000000000000000000000000000000000000000 PUSH1 0x64 DUP3 ADD MSTORE PUSH1 0x84 SWAP1 REVERT JUMPDEST POP CALLER PUSH1 0x15 PUSH2 0x1685 PUSH2 0x124B DUP4 DUP4 PUSH2 0x5F9 JUMP JUMPDEST PUSH2 0x169D PUSH1 0x0 SWAP2 PUSH2 0x1697 PUSH2 0x1260 DUP5 PUSH2 0x8E2 JUMP JUMPDEST GT PUSH2 0x1602 JUMP JUMPDEST DUP1 DUP1 DUP1 DUP1 PUSH2 0x16AD PUSH2 0xEF4 DUP9 PUSH2 0x5F0 JUMP JUMPDEST PUSH2 0x16BA PUSH2 0x124B DUP10 DUP10 PUSH2 0x5F9 JUMP JUMPDEST SWAP1 DUP3 DUP3 ISZERO PUSH2 0x16E9 JUMPI JUMPDEST CALL ISZERO PUSH2 0x13B2 JUMPI PUSH2 0x16E4 SWAP3 PUSH2 0x16D9 PUSH2 0x16DF SWAP3 PUSH2 0x8E2 JUMP JUMPDEST SWAP3 PUSH2 0x5F9 JUMP JUMPDEST PUSH2 0xF21 JUMP JUMPDEST PUSH1 0x1 SWAP1 JUMP JUMPDEST POP PUSH2 0x8FC PUSH2 0x16C3 JUMP JUMPDEST PUSH2 0x268 PUSH1 0x0 PUSH2 0x15B8 JUMP JUMPDEST ISZERO PUSH2 0x1703 JUMPI JUMP JUMPDEST PUSH1 0x40 MLOAD PUSH3 0x461BCD PUSH1 0xE5 SHL DUP2 MSTORE PUSH1 0x20 PUSH1 0x4 DUP3 ADD MSTORE PUSH1 0x38 PUSH1 0x24 DUP3 ADD MSTORE PUSH32 0x596F7520646F6E7420686176652063726561746F722061636365737320746F20 PUSH1 0x44 DUP3 ADD MSTORE PUSH32 0x706572666F726D2074686973206F7065726174696F6E20210000000000000000 PUSH1 0x64 DUP3 ADD MSTORE PUSH1 0x84 SWAP1 REVERT JUMPDEST SWAP1 PUSH2 0x252 SWAP5 SWAP4 SWAP3 SWAP2 PUSH2 0x1798 CALLER PUSH2 0x1792 PUSH2 0xEF9 PUSH2 0xEF4 PUSH1 0x4 SLOAD PUSH1 0x1 PUSH1 0x1 PUSH1 0xA0 SHL SUB AND SWAP1 JUMP JUMPDEST EQ PUSH2 0x16FC JUMP JUMPDEST SWAP1 PUSH2 0x252 SWAP5 SWAP4 SWAP3 SWAP2 PUSH2 0x17B5 PUSH1 0x2 PUSH2 0x15DD PUSH2 0x15D7 PUSH2 0x15D1 PUSH1 0xF PUSH2 0x913 JUMP JUMPDEST PUSH2 0x17C9 TIMESTAMP PUSH2 0x15F7 PUSH2 0x1260 PUSH2 0x268 PUSH1 0x8 PUSH2 0x900 JUMP JUMPDEST PUSH2 0x1A23 JUMP JUMPDEST SWAP2 SWAP1 PUSH1 0x8 PUSH2 0xF17 SWAP2 MUL SWAP2 PUSH2 0x17E3 PUSH1 0x0 NOT DUP5 SHL SWAP1 JUMP JUMPDEST SWAP3 SHL SWAP1 JUMP JUMPDEST SWAP2 SWAP1 PUSH2 0x17F9 PUSH2 0x268 PUSH2 0xF38 SWAP4 PUSH2 0x8E2 JUMP JUMPDEST SWAP1 DUP4 SLOAD PUSH2 0x17CE JUMP JUMPDEST PUSH2 0x252 SWAP2 PUSH1 0x0 SWAP2 PUSH2 0x17E8 JUMP JUMPDEST DUP2 DUP2 LT PUSH2 0x1818 JUMPI POP POP JUMP JUMPDEST DUP1 PUSH2 0x1826 PUSH1 0x0 PUSH1 0x1 SWAP4 PUSH2 0x1801 JUMP JUMPDEST ADD PUSH2 0x180D JUMP JUMPDEST SWAP2 SWAP1 PUSH1 0x1F DUP2 GT PUSH2 0x183B JUMPI POP POP POP JUMP JUMPDEST PUSH2 0x184D PUSH2 0x252 SWAP4 PUSH1 0x0 MSTORE PUSH1 0x20 PUSH1 0x0 KECCAK256 SWAP1 JUMP JUMPDEST SWAP1 PUSH1 0x20 PUSH1 0x1F DUP5 ADD DUP2 SWAP1 DIV DUP4 ADD SWAP4 LT PUSH2 0x186F JUMPI JUMPDEST PUSH1 0x20 PUSH1 0x1F SWAP1 SWAP2 ADD DIV ADD SWAP1 PUSH2 0x180D JUMP JUMPDEST SWAP1 SWAP2 POP DUP2 SWAP1 PUSH2 0x1860 JUMP JUMPDEST SWAP1 PUSH2 0x1882 DUP2 MLOAD SWAP1 JUMP JUMPDEST SWAP1 PUSH8 0xFFFFFFFFFFFFFFFF DUP3 GT PUSH2 0x4F6 JUMPI PUSH2 0x18A6 DUP3 PUSH2 0x18A0 DUP6 SLOAD PUSH2 0x406 JUMP JUMPDEST DUP6 PUSH2 0x182C JUMP JUMPDEST PUSH1 0x20 SWAP1 PUSH1 0x1F DUP4 GT PUSH1 0x1 EQ PUSH2 0x18E1 JUMPI PUSH2 0xF38 SWAP3 SWAP2 PUSH1 0x0 SWAP2 DUP4 PUSH2 0x18D6 JUMPI JUMPDEST POP POP PUSH1 0x0 NOT PUSH1 0x8 DUP4 MUL SHR NOT AND SWAP1 PUSH1 0x2 MUL OR SWAP1 JUMP JUMPDEST ADD MLOAD SWAP1 POP CODESIZE DUP1 PUSH2 0x18C2 JUMP JUMPDEST PUSH1 0x1F NOT DUP4 AND SWAP2 PUSH2 0x18F6 DUP6 PUSH1 0x0 MSTORE PUSH1 0x20 PUSH1 0x0 KECCAK256 SWAP1 JUMP JUMPDEST SWAP3 PUSH1 0x0 JUMPDEST DUP2 DUP2 LT PUSH2 0x1934 JUMPI POP SWAP2 PUSH1 0x2 SWAP4 SWAP2 DUP6 PUSH1 0x1 SWAP7 SWAP5 LT PUSH2 0x191B JUMPI JUMPDEST POP POP POP MUL ADD SWAP1 SSTORE JUMP JUMPDEST ADD MLOAD PUSH1 0x0 NOT PUSH1 0x8 PUSH1 0x1F DUP6 AND MUL SHR NOT AND SWAP1 SSTORE CODESIZE DUP1 DUP1 PUSH2 0x1912 JUMP JUMPDEST SWAP2 SWAP4 PUSH1 0x20 PUSH1 0x1 DUP2 SWAP3 DUP8 DUP8 ADD MLOAD DUP2 SSTORE ADD SWAP6 ADD SWAP3 ADD PUSH2 0x18FA JUMP JUMPDEST SWAP1 PUSH2 0x252 SWAP2 PUSH2 0x1879 JUMP JUMPDEST SWAP1 PUSH1 0x1 PUSH1 0x1 PUSH1 0xA0 SHL SUB SWAP1 PUSH2 0xF17 JUMP JUMPDEST SWAP1 PUSH2 0x1975 PUSH2 0x268 PUSH2 0xF38 SWAP3 PUSH2 0x5F0 JUMP JUMPDEST DUP3 SLOAD PUSH2 0x1956 JUMP JUMPDEST SWAP1 PUSH2 0x1429 PUSH2 0x268 PUSH2 0xF38 SWAP3 ISZERO ISZERO SWAP1 JUMP JUMPDEST SWAP1 PUSH21 0xFFFFFFFFFFFFFFFFFFFFFFFFFFFFFFFFFFFFFFFF00 SWAP1 PUSH1 0x8 SHL PUSH2 0xF17 JUMP JUMPDEST SWAP1 PUSH2 0x19BC PUSH2 0x268 PUSH2 0xF38 SWAP3 PUSH2 0x5F0 JUMP JUMPDEST DUP3 SLOAD PUSH2 0x198C JUMP JUMPDEST PUSH2 0x2D2 SWAP1 PUSH2 0x8E2 JUMP JUMPDEST PUSH2 0x2D2 SWAP1 PUSH2 0x5F0 JUMP JUMPDEST SWAP2 SWAP5 PUSH2 0x9DD PUSH1 0xA0 SWAP5 SWAP9 SWAP8 SWAP6 PUSH2 0x1A12 PUSH2 0x1A0A PUSH2 0x1A1C SWAP6 PUSH2 0x252 SWAP11 PUSH2 0x19FD PUSH1 0xC0 DUP11 ADD SWAP3 PUSH1 0x0 DUP12 ADD MSTORE JUMP JUMPDEST DUP9 DUP3 SUB PUSH1 0x20 DUP11 ADD MSTORE PUSH2 0x28E JUMP JUMPDEST SWAP11 PUSH1 0x40 DUP8 ADD MSTORE JUMP JUMPDEST PUSH1 0x60 DUP6 ADD SWAP1 PUSH2 0x19C3 JUMP JUMPDEST ADD SWAP1 PUSH2 0x19CC JUMP JUMPDEST SWAP3 SWAP2 PUSH2 0x1A4E PUSH2 0x1A3A PUSH2 0x268 PUSH2 0x1AC9 SWAP5 SWAP8 PUSH1 0x16 PUSH2 0x8EF JUMP JUMPDEST SWAP4 PUSH2 0x1A45 DUP7 DUP7 PUSH2 0x194C JUMP JUMPDEST PUSH1 0x1 DUP6 ADD PUSH2 0x1965 JUMP JUMPDEST PUSH2 0x1A5B DUP6 PUSH1 0x2 DUP6 ADD PUSH2 0xF21 JUMP JUMPDEST PUSH2 0x1A89 DUP2 PUSH1 0x5 PUSH1 0x0 SWAP6 PUSH2 0x1A79 PUSH2 0x1A70 DUP9 PUSH2 0x8E2 JUMP JUMPDEST PUSH1 0x3 DUP4 ADD PUSH2 0xF21 JUMP JUMPDEST ADD PUSH2 0x1A84 DUP7 DUP3 PUSH2 0x197C JUMP JUMPDEST PUSH2 0x19AC JUMP JUMPDEST PUSH2 0x1A93 PUSH1 0x17 PUSH2 0x900 JUMP JUMPDEST SWAP3 DUP1 PUSH32 0x9883A4E4F8698E4CC93BAFB8D0D2376CB8C51DD322CB9FD80D02C691FCDEA503 SWAP7 PUSH2 0x1AC0 PUSH1 0x40 MLOAD SWAP1 JUMP JUMPDEST SWAP7 DUP8 SWAP7 DUP8 PUSH2 0x19D5 JUMP JUMPDEST SUB SWAP1 LOG1 JUMP JUMPDEST SWAP1 PUSH2 0x252 SWAP5 SWAP4 SWAP3 SWAP2 PUSH2 0x176E JUMP JUMPDEST ISZERO PUSH2 0x1AE2 JUMPI JUMP JUMPDEST PUSH1 0x40 MLOAD PUSH3 0x461BCD PUSH1 0xE5 SHL DUP2 MSTORE PUSH1 0x20 PUSH1 0x4 DUP3 ADD MSTORE PUSH1 0x1B PUSH1 0x24 DUP3 ADD MSTORE PUSH32 0x4F6E6C7920636F6E7472696275746F722063616E20766F746520210000000000 PUSH1 0x44 DUP3 ADD MSTORE PUSH1 0x64 SWAP1 REVERT JUMPDEST ISZERO PUSH2 0x1B2E JUMPI JUMP JUMPDEST PUSH1 0x40 MLOAD PUSH3 0x461BCD PUSH1 0xE5 SHL DUP2 MSTORE PUSH1 0x20 PUSH1 0x4 DUP3 ADD MSTORE PUSH1 0x13 PUSH1 0x24 DUP3 ADD MSTORE PUSH32 0x596F7520616C726561647920766F746564202100000000000000000000000000 PUSH1 0x44 DUP3 ADD MSTORE PUSH1 0x64 SWAP1 REVERT JUMPDEST PUSH1 0x1 PUSH1 0x1 PUSH1 0xA0 SHL SUB SWAP1 SWAP2 AND DUP2 MSTORE PUSH1 0x40 DUP2 ADD SWAP3 SWAP2 PUSH2 0x252 SWAP2 PUSH1 0x20 ADD MSTORE JUMP JUMPDEST CALLER SWAP1 PUSH2 0x1C2D SWAP1 PUSH2 0x124B PUSH2 0x1C27 PUSH1 0x3 PUSH2 0x1C1B DUP7 PUSH2 0x1C16 PUSH2 0x1BD7 PUSH2 0x268 PUSH2 0x1BB7 DUP9 DUP6 PUSH1 0x15 PUSH2 0x5F9 JUMP JUMPDEST SWAP9 PUSH2 0x1BD0 PUSH1 0x0 SWAP11 PUSH2 0x1BCA PUSH2 0x1260 DUP14 PUSH2 0x8E2 JUMP JUMPDEST GT PUSH2 0x1ADB JUMP JUMPDEST PUSH1 0x16 PUSH2 0x8EF JUMP JUMPDEST SWAP7 PUSH2 0x1C04 PUSH1 0x4 DUP10 ADD SWAP2 PUSH2 0x1BFE PUSH2 0x1086 PUSH2 0x1BF8 PUSH2 0x1BF3 DUP9 DUP8 PUSH2 0x5F9 JUMP JUMPDEST PUSH2 0x913 JUMP JUMPDEST SWAP3 ISZERO ISZERO SWAP1 JUMP JUMPDEST EQ PUSH2 0x1B27 JUMP JUMPDEST PUSH2 0x1C11 PUSH1 0x1 SWAP4 DUP5 SWAP3 PUSH2 0x5F9 JUMP JUMPDEST PUSH2 0x197C JUMP JUMPDEST PUSH2 0x8E2 JUMP JUMPDEST SWAP4 ADD SWAP3 PUSH2 0x127B DUP5 PUSH2 0x900 JUMP JUMPDEST DUP3 PUSH2 0xF21 JUMP JUMPDEST PUSH32 0xA2925E4595BF873FA82C22A1A89809777347023BF2B502D32710157A5EB8199C SWAP2 PUSH2 0x1AC9 PUSH2 0x1C5B PUSH1 0x40 MLOAD SWAP1 JUMP JUMPDEST SWAP3 DUP4 SWAP3 DUP4 PUSH2 0x1B73 JUMP JUMPDEST SWAP1 PUSH2 0x252 SWAP2 PUSH2 0x1C85 CALLER PUSH2 0x1792 PUSH2 0xEF9 PUSH2 0xEF4 PUSH1 0x4 SLOAD PUSH1 0x1 PUSH1 0x1 PUSH1 0xA0 SHL SUB AND SWAP1 JUMP JUMPDEST SWAP1 PUSH2 0x252 SWAP2 PUSH2 0x1C9F PUSH1 0x2 PUSH2 0x15DD PUSH2 0x15D7 PUSH2 0x15D1 PUSH1 0xF PUSH2 0x913 JUMP JUMPDEST PUSH2 0x1CB3 TIMESTAMP PUSH2 0x15F7 PUSH2 0x1260 PUSH2 0x268 PUSH1 0x8 PUSH2 0x900 JUMP JUMPDEST PUSH2 0x1EAC JUMP JUMPDEST ISZERO PUSH2 0x1CBF JUMPI JUMP JUMPDEST PUSH1 0x40 MLOAD PUSH3 0x461BCD PUSH1 0xE5 SHL DUP2 MSTORE PUSH1 0x20 PUSH1 0x4 DUP3 ADD MSTORE PUSH1 0x19 PUSH1 0x24 DUP3 ADD MSTORE PUSH32 0x5265717565737420616C726561647920636F6D706C6574656400000000000000 PUSH1 0x44 DUP3 ADD MSTORE PUSH1 0x64 SWAP1 REVERT JUMPDEST PUSH4 0x4E487B71 PUSH1 0xE0 SHL PUSH1 0x0 MSTORE PUSH1 0x12 PUSH1 0x4 MSTORE PUSH1 0x24 PUSH1 0x0 REVERT JUMPDEST DUP2 ISZERO PUSH2 0x1D24 JUMPI DIV SWAP1 JUMP JUMPDEST PUSH2 0x1D04 JUMP JUMPDEST ISZERO PUSH2 0x1D30 JUMPI JUMP JUMPDEST PUSH1 0x40 MLOAD PUSH3 0x461BCD PUSH1 0xE5 SHL DUP2 MSTORE PUSH1 0x20 PUSH1 0x4 DUP3 ADD MSTORE PUSH1 0x36 PUSH1 0x24 DUP3 ADD MSTORE PUSH32 0x4174206C656173742032302520636F6E7472696275746F72206E65656420746F PUSH1 0x44 DUP3 ADD MSTORE PUSH32 0x20766F746520666F722074686973207265717565737400000000000000000000 PUSH1 0x64 DUP3 ADD MSTORE PUSH1 0x84 SWAP1 REVERT JUMPDEST ISZERO PUSH2 0x1DA2 JUMPI JUMP JUMPDEST PUSH1 0x40 MLOAD PUSH3 0x461BCD PUSH1 0xE5 SHL DUP2 MSTORE PUSH1 0x20 PUSH1 0x4 DUP3 ADD MSTORE PUSH1 0x39 PUSH1 0x24 DUP3 ADD MSTORE PUSH32 0x50726F6A65637420636F6E747261637420646F6573206E6F7420686176652065 PUSH1 0x44 DUP3 ADD MSTORE PUSH32 0x6E6F7567682062616C616E636520746F20646973627572736500000000000000 PUSH1 0x64 DUP3 ADD MSTORE PUSH1 0x84 SWAP1 REVERT JUMPDEST DUP2 DUP2 MUL SWAP3 SWAP2 DUP2 ISZERO SWAP2 DUP5 DIV EQ OR ISZERO PUSH2 0x115B JUMPI JUMP JUMPDEST PUSH1 0x1 PUSH1 0x1 PUSH1 0xA0 SHL SUB SWAP1 SWAP2 AND DUP2 MSTORE PUSH1 0x60 DUP2 ADD SWAP4 SWAP3 PUSH2 0x252 SWAP3 SWAP1 SWAP2 PUSH1 0x40 SWAP2 PUSH2 0x1205 SWAP1 PUSH1 0x20 DUP4 ADD SWAP1 PUSH2 0x19CC JUMP JUMPDEST SWAP3 SWAP8 SWAP7 SWAP5 PUSH2 0x1EA3 SWAP1 PUSH2 0x1E9C PUSH1 0xC0 SWAP7 PUSH2 0x1E95 PUSH2 0x1E83 PUSH2 0x252 SWAP12 SWAP7 PUSH2 0x1A1C SWAP9 PUSH2 0x1E76 PUSH1 0xE0 DUP13 ADD SWAP3 PUSH1 0x0 DUP14 ADD MSTORE JUMP JUMPDEST DUP11 DUP3 SUB PUSH1 0x20 DUP13 ADD MSTORE PUSH2 0x430 JUMP JUMPDEST PUSH1 0x1 PUSH1 0x1 PUSH1 0xA0 SHL SUB SWAP1 SWAP14 AND PUSH1 0x40 DUP10 ADD MSTORE JUMP JUMPDEST PUSH1 0x60 DUP8 ADD MSTORE JUMP JUMPDEST PUSH1 0x80 DUP6 ADD MSTORE JUMP JUMPDEST ISZERO ISZERO PUSH1 0xA0 DUP4 ADD MSTORE JUMP JUMPDEST PUSH2 0x1EBA PUSH2 0x268 DUP3 PUSH1 0x16 PUSH2 0x8EF JUMP JUMPDEST SWAP1 PUSH2 0x1EC7 PUSH1 0x5 DUP4 ADD PUSH2 0x913 JUMP JUMPDEST PUSH1 0x0 SWAP1 PUSH2 0x1EDD SWAP1 PUSH2 0x1ED7 DUP4 PUSH2 0x1086 JUMP JUMPDEST EQ PUSH2 0x1CB8 JUMP JUMPDEST PUSH1 0x3 DUP4 ADD PUSH2 0x1EEA DUP2 PUSH2 0x900 JUMP JUMPDEST SWAP2 PUSH2 0x1F1B PUSH2 0x1EF8 PUSH1 0xC PUSH2 0x900 JUMP JUMPDEST SWAP4 PUSH2 0x1F14 PUSH2 0x1260 PUSH2 0x268 PUSH1 0x5 SWAP8 PUSH2 0x1F0E DUP10 PUSH2 0x8E2 JUMP JUMPDEST SWAP1 PUSH2 0x1D1A JUMP JUMPDEST LT ISZERO PUSH2 0x1D29 JUMP JUMPDEST PUSH1 0x2 DUP6 ADD SWAP6 PUSH2 0x1F32 PUSH2 0x1F2C DUP9 PUSH2 0x900 JUMP JUMPDEST SWAP2 PUSH2 0x5F0 JUMP JUMPDEST PUSH4 0x70A08231 PUSH2 0x1F40 ADDRESS PUSH2 0x5F0 JUMP JUMPDEST SWAP3 PUSH2 0x1F54 PUSH2 0x1F4D PUSH1 0x40 MLOAD SWAP1 JUMP JUMPDEST SWAP3 PUSH1 0xE0 SHL SWAP1 JUMP JUMPDEST DUP3 MSTORE PUSH1 0x1 PUSH1 0x1 PUSH1 0xA0 SHL SUB DUP5 AND PUSH1 0x4 DUP4 ADD MSTORE PUSH1 0x20 DUP3 PUSH1 0x24 DUP2 DUP7 GAS STATICCALL DUP1 ISZERO PUSH2 0x13B2 JUMPI PUSH2 0x1260 PUSH2 0x1F89 SWAP2 PUSH2 0x1F90 SWAP5 DUP9 SWAP2 PUSH2 0x1508 JUMPI POP SWAP1 JUMP JUMPDEST GT ISZERO PUSH2 0x1D9B JUMP JUMPDEST PUSH4 0x23B872DD SWAP5 DUP8 ADD SWAP2 PUSH2 0x1FA2 DUP4 PUSH2 0x929 JUMP JUMPDEST PUSH2 0x1FAB DUP11 PUSH2 0x900 JUMP JUMPDEST PUSH1 0x20 PUSH2 0x1FE4 DUP10 PUSH2 0x1FF0 PUSH2 0x1FD6 PUSH2 0x1FC6 PUSH1 0x32 SWAP7 PUSH2 0x1F0E DUP9 PUSH2 0x8E2 JUMP JUMPDEST PUSH2 0x1FD0 PUSH1 0x31 PUSH2 0x8E2 JUMP JUMPDEST SWAP1 PUSH2 0x1E0D JUMP JUMPDEST PUSH1 0x40 MLOAD SWAP7 DUP8 SWAP5 DUP6 SWAP5 PUSH1 0xE0 SHL SWAP1 JUMP JUMPDEST DUP5 MSTORE DUP9 PUSH1 0x4 DUP6 ADD PUSH2 0x1E20 JUMP JUMPDEST SUB DUP2 DUP10 DUP9 GAS CALL SWAP2 DUP3 ISZERO PUSH2 0x13B2 JUMPI DUP12 SWAP3 PUSH2 0x21D9 JUMPI JUMPDEST POP TIMESTAMP PUSH2 0x2016 PUSH2 0x1260 PUSH2 0x268 PUSH1 0x3 PUSH2 0x900 JUMP JUMPDEST GT PUSH2 0x217B JUMPI POP POP PUSH1 0x1 SLOAD PUSH1 0x1 PUSH1 0x1 PUSH1 0xA0 SHL SUB AND SWAP2 PUSH2 0x2033 DUP11 PUSH2 0x900 JUMP JUMPDEST PUSH1 0x20 PUSH2 0x1FE4 DUP10 PUSH2 0x2059 PUSH2 0x204B PUSH1 0x64 SWAP6 PUSH2 0x1F0E DUP8 PUSH2 0x8E2 JUMP JUMPDEST PUSH1 0x40 MLOAD SWAP9 DUP10 SWAP5 DUP6 SWAP5 PUSH1 0xE0 SHL SWAP1 JUMP JUMPDEST SUB DUP2 DUP10 DUP7 GAS CALL SWAP1 DUP2 ISZERO PUSH2 0x13B2 JUMPI DUP12 SWAP9 PUSH2 0x20BC PUSH2 0x20A1 DUP10 SWAP4 PUSH1 0x20 SWAP9 PUSH2 0x20B1 SWAP7 PUSH2 0x2160 JUMPI JUMPDEST POP PUSH2 0x1F0E PUSH2 0x209B PUSH2 0x2095 PUSH1 0x2 SLOAD PUSH1 0x1 PUSH1 0x1 PUSH1 0xA0 SHL SUB AND SWAP1 JUMP JUMPDEST SWAP15 PUSH2 0x900 JUMP JUMPDEST SWAP2 PUSH2 0x8E2 JUMP JUMPDEST PUSH1 0x40 MLOAD SWAP12 DUP13 SWAP8 DUP9 SWAP7 DUP8 SWAP6 PUSH1 0xE0 SHL SWAP1 JUMP JUMPDEST DUP6 MSTORE PUSH1 0x4 DUP6 ADD PUSH2 0x1E20 JUMP JUMPDEST SUB SWAP3 GAS CALL SWAP4 DUP5 ISZERO PUSH2 0x13B2 JUMPI PUSH2 0x1AC9 SWAP5 PUSH2 0x2144 JUMPI JUMPDEST POP JUMPDEST PUSH2 0x210F PUSH2 0x2109 PUSH2 0x2103 PUSH2 0x20FD PUSH1 0x1 DUP1 SWAP7 PUSH2 0x20EC DUP3 DUP9 PUSH2 0x197C JUMP JUMPDEST DUP12 ADD SWAP11 ADD SLOAD PUSH1 0x1 PUSH1 0x1 PUSH1 0xA0 SHL SUB AND SWAP1 JUMP JUMPDEST SWAP10 PUSH2 0x900 JUMP JUMPDEST SWAP5 PUSH2 0x900 JUMP JUMPDEST SWAP2 PUSH2 0x929 JUMP JUMPDEST SWAP3 PUSH32 0x4B318EEFDD7BB107016B6A285AD8D255001224EDAD6FE9A0DD934EE9F3E911C5 SWAP8 PUSH2 0x213B PUSH1 0x40 MLOAD SWAP1 JUMP JUMPDEST SWAP8 DUP9 SWAP8 DUP9 PUSH2 0x1E4A JUMP JUMPDEST PUSH2 0x215B SWAP1 PUSH1 0x20 RETURNDATASIZE DUP2 GT PUSH2 0x13AB JUMPI PUSH2 0x139E DUP2 DUP4 PUSH2 0x4D4 JUMP JUMPDEST PUSH2 0x20D0 JUMP JUMPDEST PUSH2 0x2176 SWAP1 DUP11 RETURNDATASIZE DUP2 GT PUSH2 0x13AB JUMPI PUSH2 0x139E DUP2 DUP4 PUSH2 0x4D4 JUMP JUMPDEST PUSH2 0x207C JUMP JUMPDEST DUP6 PUSH1 0x20 SWAP5 SWAP3 SWAP9 PUSH2 0x21A3 PUSH2 0x20A1 PUSH2 0x20B1 SWAP5 PUSH2 0x1F0E PUSH2 0x209B PUSH2 0x2095 PUSH1 0x1 SLOAD PUSH1 0x1 PUSH1 0x1 PUSH1 0xA0 SHL SUB AND SWAP1 JUMP JUMPDEST SUB SWAP3 GAS CALL SWAP4 DUP5 ISZERO PUSH2 0x13B2 JUMPI PUSH2 0x1AC9 SWAP5 PUSH2 0x21BD JUMPI JUMPDEST POP PUSH2 0x20D2 JUMP JUMPDEST PUSH2 0x21D4 SWAP1 PUSH1 0x20 RETURNDATASIZE DUP2 GT PUSH2 0x13AB JUMPI PUSH2 0x139E DUP2 DUP4 PUSH2 0x4D4 JUMP JUMPDEST PUSH2 0x21B7 JUMP JUMPDEST PUSH2 0x21F0 SWAP1 PUSH1 0x20 RETURNDATASIZE DUP2 GT PUSH2 0x13AB JUMPI PUSH2 0x139E DUP2 DUP4 PUSH2 0x4D4 JUMP JUMPDEST PUSH2 0x2004 JUMP JUMPDEST SWAP1 PUSH2 0x252 SWAP2 PUSH2 0x1C64 JUMP JUMPDEST PUSH2 0x268 SWAP1 PUSH2 0x4FB JUMP JUMPDEST PUSH1 0x4 SLOAD PUSH1 0x1 PUSH1 0x1 PUSH1 0xA0 SHL SUB AND SWAP1 PUSH2 0x221F PUSH1 0x7 PUSH2 0x900 JUMP JUMPDEST SWAP1 PUSH2 0x222A PUSH1 0x8 PUSH2 0x900 JUMP JUMPDEST SWAP2 PUSH2 0x2235 PUSH1 0x9 PUSH2 0x900 JUMP JUMPDEST SWAP3 PUSH2 0x2240 PUSH1 0xA PUSH2 0x900 JUMP JUMPDEST SWAP4 PUSH2 0x224B PUSH1 0xB PUSH2 0x900 JUMP JUMPDEST SWAP5 PUSH2 0x2256 PUSH1 0xD PUSH2 0x21FF JUMP JUMPDEST SWAP6 PUSH2 0x2261 PUSH1 0xE PUSH2 0x21FF JUMP JUMPDEST SWAP7 PUSH2 0x226C PUSH1 0xF PUSH2 0x913 JUMP JUMPDEST SWAP8 PUSH2 0x2276 ADDRESS PUSH2 0x5F0 JUMP JUMPDEST BALANCE SWAP9 PUSH2 0x2282 PUSH1 0x10 PUSH2 0x21FF JUMP JUMPDEST SWAP10 PUSH2 0x228D PUSH1 0x11 PUSH2 0x21FF JUMP JUMPDEST SWAP11 PUSH2 0x2298 PUSH1 0x12 PUSH2 0x21FF JUMP JUMPDEST SWAP12 PUSH2 0x22A3 PUSH1 0x13 PUSH2 0x21FF JUMP JUMPDEST SWAP13 PUSH2 0x22B6 PUSH1 0x5 SLOAD PUSH1 0x1 PUSH1 0x1 PUSH1 0xA0 SHL SUB AND SWAP1 JUMP JUMPDEST SWAP14 PUSH2 0x22C9 PUSH1 0x6 SLOAD PUSH1 0x1 PUSH1 0x1 PUSH1 0xA0 SHL SUB AND SWAP1 JUMP JUMPDEST SWAP14 JUMP JUMPDEST PUSH2 0x268 PUSH2 0x22E3 SWAP2 PUSH2 0x22DB PUSH1 0x60 SWAP1 JUMP JUMPDEST POP PUSH1 0x16 PUSH2 0x8EF JUMP JUMPDEST SWAP1 PUSH2 0x22EE PUSH1 0xC PUSH2 0x900 JUMP JUMPDEST DUP1 SWAP3 PUSH2 0x231B PUSH2 0x2309 PUSH1 0x3 DUP4 ADD SWAP4 PUSH2 0x2304 DUP6 PUSH2 0x900 JUMP JUMPDEST PUSH2 0x1D1A JUMP JUMPDEST PUSH2 0x1FD0 PUSH9 0x56BC75E2D63100000 PUSH2 0x8E2 JUMP JUMPDEST PUSH2 0x2324 DUP3 PUSH2 0x21FF JUMP JUMPDEST SWAP5 PUSH2 0x2339 PUSH1 0x1 DUP5 ADD SLOAD PUSH1 0x1 PUSH1 0x1 PUSH1 0xA0 SHL SUB AND SWAP1 JUMP JUMPDEST SWAP5 PUSH1 0x5 PUSH2 0x2351 PUSH2 0x234B PUSH1 0x2 DUP8 ADD PUSH2 0x900 JUMP JUMPDEST SWAP7 PUSH2 0x900 JUMP JUMPDEST SWAP5 ADD SWAP1 PUSH2 0x268 PUSH2 0x2360 DUP4 PUSH2 0x913 JUMP JUMPDEST SWAP3 PUSH2 0x929 JUMP INVALID LOG2 PUSH5 0x6970667358 0x22 SLT KECCAK256 CALLDATALOAD PUSH19 0x9E29810DAEF7C27C57B5AB062BFA6964FE41B6 0xE3 0xF9 PUSH9 0x4F86A7015014066364 PUSH20 0x6F6C634300081200330000000000000000000000 "},"methodIdentifiers":{"completeAt()":"4c4cea5a","contribute(address,uint256,address)":"4cbc1553","contributiors(address)":"0a771370","createWithdrawRequest(string,uint256,address,address,uint256)":"b9bb6e30","creator()":"02d05d3f","deadline()":"29dcb0cf","developer()":"ca4b208b","filterTags()":"a278a485","getContractBNBBalance()":"07d94e4a","getContractBalance(address)":"43ab265f","getProjectDetails()":"ff3a9c7e","githubUrl()":"18aa9f1e","isRevealed()":"54214f69","isVerified()":"80007e83","minimumContribution()":"937e09b1","noOfContributers()":"24274ee9","numOfWithdrawRequests()":"b40141bf","projectCoverUrl()":"5eb32936","projectDes()":"03c29d58","projectTitle()":"c3e20c9f","raisedAmount()":"c59ee1dc","requestRefund()":"d5cef133","royaltyGraceExpiry()":"263a58aa","setRoyaltyGracePeriod(uint256)":"d688cf53","setVerification(bool)":"e9d1edde","setVisibility(bool)":"28c30c07","showDetailOfWR(uint256)":"0203d002","socialUrl()":"d1707551","state()":"c19d93fb","targetContribution()":"b82c86d6","voteWithdrawRequest(uint256)":"4e695a37","websiteUrl()":"abb5ca09","withdrawRequestedAmount(uint256,address)":"62d809a6","withdrawRequests(uint256)":"992a7dfb"}}}}}