{"contracts/Crowdfunding.sol":{"Crowdfunding":{"abi":[{"anonymous":false,"inputs":[{"indexed":false,"internalType":"address","name":"projectAddress","type":"address"},{"indexed":false,"internalType":"uint256","name":"contributedAmount","type":"uint256"},{"indexed":true,"internalType":"address","name":"contributor","type":"address"}],"name":"ContributionReceived","type":"event"},{"anonymous":false,"inputs":[{"indexed":true,"internalType":"address","name":"previousOwner","type":"address"},{"indexed":true,"internalType":"address","name":"newOwner","type":"address"}],"name":"OwnershipTransferred","type":"event"},{"anonymous":false,"inputs":[{"indexed":false,"internalType":"address","name":"projectContractAddress","type":"address"},{"indexed":false,"internalType":"address","name":"creator","type":"address"},{"indexed":false,"internalType":"uint256","name":"projectDeadline","type":"uint256"},{"indexed":false,"internalType":"uint256","name":"goalAmount","type":"uint256"},{"indexed":false,"internalType":"uint256","name":"currentAmount","type":"uint256"},{"indexed":false,"internalType":"uint256","name":"noOfContributors","type":"uint256"},{"indexed":false,"internalType":"string","name":"title","type":"string"},{"indexed":false,"internalType":"string","name":"desc","type":"string"},{"indexed":false,"internalType":"uint256","name":"currentState","type":"uint256"},{"indexed":false,"internalType":"string","name":"websiteUrl","type":"string"},{"indexed":false,"internalType":"string","name":"socialUrl","type":"string"},{"indexed":false,"internalType":"string","name":"projectCoverUrl","type":"string"},{"indexed":false,"internalType":"string","name":"filterTags","type":"string"}],"name":"ProjectStarted","type":"event"},{"stateMutability":"payable","type":"fallback"},{"inputs":[{"internalType":"contract IERC20","name":"","type":"address"}],"name":"acceptedTokens","outputs":[{"internalType":"bool","name":"","type":"bool"}],"stateMutability":"view","type":"function"},{"inputs":[{"internalType":"contract IERC20","name":"tokenAddress","type":"address"}],"name":"addAcceptedContributionToken","outputs":[],"stateMutability":"nonpayable","type":"function"},{"inputs":[{"internalType":"contract IERC20","name":"tokenAddress","type":"address"}],"name":"addRewardTokenAddress","outputs":[],"stateMutability":"nonpayable","type":"function"},{"inputs":[{"internalType":"contract IERC20","name":"tokenAddress","type":"address"},{"internalType":"uint256[4]","name":"rewardTiers","type":"uint256[4]"}],"name":"addRewardTokenTier","outputs":[],"stateMutability":"nonpayable","type":"function"},{"inputs":[{"internalType":"address","name":"_projectAddress","type":"address"},{"internalType":"contract IERC20","name":"token","type":"address"},{"internalType":"uint256","name":"amount","type":"uint256"}],"name":"contribute","outputs":[],"stateMutability":"nonpayable","type":"function"},{"inputs":[{"internalType":"uint256","name":"deadline","type":"uint256"},{"internalType":"uint256","name":"targetContribution","type":"uint256"},{"internalType":"string","name":"projectTitle","type":"string"},{"internalType":"string","name":"projectDesc","type":"string"},{"internalType":"string","name":"websiteUrl","type":"string"},{"internalType":"string","name":"socialUrl","type":"string"},{"internalType":"string","name":"githubUrl","type":"string"},{"internalType":"string","name":"projectCoverUrl","type":"string"},{"internalType":"string","name":"filterTags","type":"string"},{"internalType":"address","name":"usdt","type":"address"},{"internalType":"address","name":"usdc","type":"address"}],"name":"createProject","outputs":[],"stateMutability":"nonpayable","type":"function"},{"inputs":[],"name":"getContributedProject","outputs":[{"components":[{"internalType":"address","name":"projectAddress","type":"address"},{"internalType":"string","name":"title","type":"string"},{"internalType":"string","name":"descriptions","type":"string"},{"internalType":"uint256","name":"contributedAmount","type":"uint256"}],"internalType":"struct Crowdfunding.ProjectArray[]","name":"","type":"tuple[]"}],"stateMutability":"view","type":"function"},{"inputs":[],"name":"owner","outputs":[{"internalType":"address","name":"","type":"address"}],"stateMutability":"view","type":"function"},{"inputs":[{"internalType":"contract IERC20","name":"tokenAddress","type":"address"}],"name":"removeAcceptedContributionToken","outputs":[],"stateMutability":"nonpayable","type":"function"},{"inputs":[{"internalType":"uint256","name":"rewardTokenAddressesIndex","type":"uint256"}],"name":"removeRewardTokenAddress","outputs":[],"stateMutability":"nonpayable","type":"function"},{"inputs":[],"name":"renounceOwnership","outputs":[],"stateMutability":"nonpayable","type":"function"},{"inputs":[],"name":"returnAllProjects","outputs":[{"internalType":"contract Project[]","name":"","type":"address[]"}],"stateMutability":"view","type":"function"},{"inputs":[{"internalType":"uint256","name":"","type":"uint256"}],"name":"rewardTokenAddresses","outputs":[{"internalType":"contract IERC20","name":"","type":"address"}],"stateMutability":"view","type":"function"},{"inputs":[{"internalType":"contract IERC20","name":"","type":"address"},{"internalType":"uint256","name":"","type":"uint256"}],"name":"rewardTokensTiers","outputs":[{"internalType":"uint256","name":"","type":"uint256"}],"stateMutability":"view","type":"function"},{"inputs":[{"internalType":"address","name":"","type":"address"}],"name":"rewards","outputs":[{"internalType":"uint256","name":"","type":"uint256"}],"stateMutability":"view","type":"function"},{"inputs":[{"internalType":"address","name":"contributor","type":"address"}],"name":"showRewardUser","outputs":[{"internalType":"uint256","name":"","type":"uint256"}],"stateMutability":"view","type":"function"},{"inputs":[{"internalType":"address","name":"contributor","type":"address"}],"name":"showTotalRewardUser","outputs":[{"internalType":"uint256","name":"","type":"uint256"}],"stateMutability":"view","type":"function"},{"inputs":[{"internalType":"address","name":"","type":"address"}],"name":"totalRewards","outputs":[{"internalType":"uint256","name":"","type":"uint256"}],"stateMutability":"view","type":"function"},{"inputs":[{"internalType":"address","name":"newOwner","type":"address"}],"name":"transferOwnership","outputs":[],"stateMutability":"nonpayable","type":"function"},{"inputs":[{"internalType":"uint256","name":"amount","type":"uint256"},{"internalType":"address","name":"recipientAddress","type":"address"},{"internalType":"contract IERC20","name":"tokenAddress","type":"address"}],"name":"withdrawPooledRewards","outputs":[],"stateMutability":"nonpayable","type":"function"},{"inputs":[{"internalType":"uint256","name":"amount","type":"uint256"}],"name":"withdrawUserRewards","outputs":[],"stateMutability":"nonpayable","type":"function"}],"evm":{"bytecode":{"linkReferences":{},"object":"6080604052346200002657620000146200002b565b604051614f9e620001268239614f9e90f35b600080fd5b6200003562000037565b565b6200003533620000c3565b62000054905b6001600160a01b031690565b90565b62000054905462000042565b620000549062000048906001600160a01b031682565b620000549062000063565b620000549062000079565b90620000a362000054620000bf9262000084565b82546001600160a01b0319166001600160a01b03919091161790565b9055565b620000cf600062000057565b90620000dd8160006200008f565b620001146200010d7f8be0079c531659141344cd1fd0a4f28419497f9722a3daafe3b4186f6b6457e09362000084565b9162000084565b916200011f60405190565b600090a356fe608060405260043610156200001057005b60003560e01c80630700037d146200018b5780631ed2eb4b146200018557806325f0fc2d146200017f57806343746a371462000179578063606266f51462000173578063715018a6146200016d578063773bbb1714620001675780637b2d9b2c146200016157806382dc4a05146200015b57806385b6e28e14620001555780638d472709146200014f5780638da5cb5b14620001495780638e4182df1462000143578063945bbdcd146200013d5780639dd2764a1462000137578063a3df77791462000131578063ab7573dd146200012b578063bb7252d81462000125578063eca38989146200011f578063f2653b0e14620001195763f2fde38b146200011357005b62000c16565b62000bf9565b62000bdb565b62000b83565b62000b62565b62000b30565b62000b13565b62000af2565b62000ac8565b620008c5565b620008a7565b62000842565b62000792565b6200072c565b6200067c565b6200051a565b620004f1565b620004bd565b62000484565b620003d0565b62000261565b6001600160a01b031690565b90565b6001600160a01b0381165b03620001b357565b600080fd5b90503590620001c782620001a0565b565b90602082820312620001b3576200019d91620001b8565b620001916200019d6200019d926001600160a01b031690565b6200019d90620001e0565b6200019d90620001f9565b906200021b9062000204565b600052602052604060002090565b6200019d916008021c81565b906200019d915462000229565b6200019d90620002576001916000926200020f565b62000235565b9052565b34620001b35762000292620002826200027c366004620001c9565b62000242565b6040519182918290815260200190565b0390f35b6001600160a01b038116620001ab565b90503590620001c78262000296565b634e487b7160e01b600052604160045260246000fd5b90601f01601f1916810190811067ffffffffffffffff821117620002ee57604052565b620002b5565b90620001c76200030360405190565b9283620002cb565b67ffffffffffffffff8111620002ee5760200290565b80620001ab565b90503590620001c78262000321565b90929192620003506200034a826200030b565b620002f4565b936020859202830192818411620001b357915b838310620003715750505050565b6020809162000381848662000328565b81520192019162000363565b9080601f83011215620001b3576200019d9160049062000337565b919060a083820312620001b3576200019d90620003c68185620002a6565b936020016200038d565b34620001b357620003ee620003e7366004620003a8565b90620014e5565b604051005b9190604083820312620001b3576200019d90620004118185620002a6565b9360200162000328565b634e487b7160e01b600052603260045260246000fd5b600482101562000448576001905b91020190600090565b6200041b565b6200045e6005916000926200020f565b9060048310156200048157506200019d916200047a9162000431565b9062000235565b80fd5b34620001b35762000292620002826200049f366004620003f3565b906200044e565b90602082820312620001b3576200019d9162000328565b34620001b357620003ee620004d4366004620004a6565b620012dc565b90602082820312620001b3576200019d91620002a6565b34620001b357620003ee62000508366004620004da565b62001296565b6000910312620001b357565b34620001b3576200052d3660046200050e565b620003ee62000c78565b60005b8381106200054b5750506000910152565b81810151838201526020016200053a565b620005816200058b602093620005959362000575815190565b80835293849260200190565b9586910162000537565b601f01601f191690565b0190565b80516001600160a01b03168252906200019d90606080620005e1620005ce60808501602088015186820360208801526200055c565b604087015185820360408701526200055c565b940151910152565b906200019d9162000599565b906200060d62000603835190565b8083529160200190565b9081620006206020830284019460200190565b926000915b8383106200063557505050505090565b909192939460206200065b6200065483856001950387528951620005e9565b9760200190565b930193019193929062000625565b60208082526200019d92910190620005f5565b34620001b3576200068f3660046200050e565b620002926200069d620016ca565b6040519182918262000669565b805482101562000448576200043f600191600052602060002090565b6200019d916008021c62000191565b906200019d9154620006c6565b60046000620006ef825490565b8310156200048157506200019d916200070891620006aa565b90620006d5565b6200025d9062000204565b602081019291620001c791906200070f565b34620001b357620002926200074d62000747366004620004a6565b620006e2565b604051918291826200071a565b6200019d916008021c5b60ff1690565b906200019d91546200075a565b6200019d906200078c6003916000926200020f565b6200076a565b34620001b35762000292620007b3620007ad366004620004da565b62000777565b60405191829182901515815260200190565b9062000595816020936200070f565b90620007f7620007f0620007e6845190565b8084529260200190565b9260200190565b9060005b818110620008095750505090565b909192620008266200081f6001928651620007c5565b9460200190565b929101620007fb565b60208082526200019d92910190620007d4565b34620001b357620008553660046200050e565b62000292620008636200138a565b604051918291826200082f565b9091606082840312620001b3576200019d6200088d8484620001b8565b936200089d8160208601620002a6565b9360400162000328565b34620001b357620003ee620008be36600462000870565b9162001e50565b34620001b357620008d83660046200050e565b62000292620008ef6000546001600160a01b031690565b604051918291826001600160a01b03909116815260200190565b67ffffffffffffffff8111620002ee57602090601f01601f19160190565b90826000939282370152565b90929192620009466200034a8262000909565b93818552602085019082840111620001b357620001c79262000927565b9080601f83011215620001b3578160206200019d9335910162000933565b919061016083820312620001b3576200099b818462000328565b92620009ab826020830162000328565b92604082013567ffffffffffffffff8111620001b35783620009cf91840162000963565b92606083013567ffffffffffffffff8111620001b35781620009f391850162000963565b92608081013567ffffffffffffffff8111620001b3578262000a1791830162000963565b9260a082013567ffffffffffffffff8111620001b3578362000a3b91840162000963565b9260c083013567ffffffffffffffff8111620001b3578162000a5f91850162000963565b9260e081013567ffffffffffffffff8111620001b3578262000a8391830162000963565b9261010082013567ffffffffffffffff8111620001b35762000aac846200019d92850162000963565b9362000abd816101208601620001b8565b9361014001620001b8565b34620001b357620003ee62000adf36600462000981565b99989098979197969296959395620010f8565b34620001b357620002926200028262000b0d366004620001c9565b62001526565b34620001b357620003ee62000b2a366004620004da565b6200126f565b34620001b357620003ee62000b47366004620004da565b62001241565b6200019d90620002576002916000926200020f565b34620001b357620002926200028262000b7d366004620001c9565b62000b4d565b34620001b357620002926200028262000b9e366004620001c9565b62001505565b9091606082840312620001b3576200019d62000bc1848462000328565b9362000bd18160208601620001b8565b93604001620002a6565b34620001b357620003ee62000bf236600462000ba4565b9162001cdf565b34620001b357620003ee62000c10366004620004a6565b62001a58565b34620001b357620003ee62000c2d366004620001c9565b62000dc5565b62000c3d62000cd8565b620001c762000c62565b620001916200019d6200019d9290565b6200019d9062000c47565b620001c762000c72600062000c57565b62000e05565b620001c762000c33565b1562000c8a57565b60405162461bcd60e51b81528062000cd4600482016020808252818101527f4f776e61626c653a2063616c6c6572206973206e6f7420746865206f776e6572604082015260600190565b0390fd5b620001c762000cef6000546001600160a01b031690565b62000d0b62000cfe3362000191565b916001600160a01b031690565b1462000c82565b620001c79062000d2162000cd8565b62000d9a565b1562000d2f57565b60405162461bcd60e51b815260206004820152602660248201527f4f776e61626c653a206e6577206f776e657220697320746865207a65726f206160448201527f64647265737300000000000000000000000000000000000000000000000000006064820152608490fd5b620001c79062000c7262000db362000191600062000c57565b6001600160a01b038316141562000d27565b620001c79062000d12565b906001600160a01b03905b9181191691161790565b9062000df96200019d62000e019262000204565b825462000dd0565b9055565b6000546001600160a01b03169062000e1f81600062000de5565b62000e5662000e4f7f8be0079c531659141344cd1fd0a4f28419497f9722a3daafe3b4186f6b6457e09362000204565b9162000204565b9162000e6160405190565b600090a3565b9c9b9a999897969492909593918d6101c08101976000820162000e91916001600160a01b03169052565b60200162000ea6916001600160a01b03169052565b6001600160a01b031660408d01526001600160a01b031660608c01526001600160a01b031660808b015260a08a015260c089015287810360e089015262000eed916200055c565b86810361010088015262000f01916200055c565b85810361012087015262000f15916200055c565b84810361014086015262000f29916200055c565b83810361016085015262000f3d916200055c565b82810361018084015262000f51916200055c565b90808203906101a001526200019d916200055c565b6040513d6000823e3d90fd5b9190600862000ddb91029162000f8e6001600160a01b03841b90565b921b90565b919062000fa86200019d62000e019362000204565b90835462000f72565b9081549168010000000000000000831015620002ee578262000fdd916001620001c795018155620006aa565b9062000f93565b6200019d6200019d6200019d9290565b6200025d9062000fe4565b9b9894620010d898916200019d9e9c988e6200108f620010c89a620010e89f996200109d9662001079620010849262001072620010b99d6200106b620010ac9e6200105b6101a08c019d60008d01906001600160a01b03169052565b6001600160a01b031660208b0152565b6040890152565b6060870152565b608085019062000ff4565b60a083019062000ff4565b60c08184039101526200055c565b8c810360e08e0152906200055c565b926101008b019062000ff4565b8882036101208a01526200055c565b908682036101408801526200055c565b908482036101608601526200055c565b916101808184039101526200055c565b999897959091979694939296620011176000546001600160a01b031690565b90339a620011253062000204565b916200113060405190565b94612daf86019386851067ffffffffffffffff861117620002ee578f8f8f8f918f97938f97948f96958f968f948f9e8f9e620011769f612daf90620021ba903962000e67565b03906000f0958615620011e757620011a687620011a0620011e2996200119a600690565b62000fb1565b62000204565b9760008080947f0135f4d92213cf889e4f1ef4d560f39fdbd0b0fb274d3e0104201939d6bc2be09d620011d860405190565b9d8e9d8e62000fff565b0390a1565b62000f66565b620001c790620011fc62000cd8565b62001227565b9060ff9062000ddb565b906200121f6200019d62000e0192151590565b825462001202565b620001c7906200123b60019160036200020f565b6200120c565b620001c790620011ed565b620001c7906200125b62000cd8565b620001c7906200123b60009160036200020f565b620001c7906200124c565b620001c7906200128962000cd8565b620001c790600462000fb1565b620001c7906200127a565b620001c790620012b062000cd8565b620012c4565b620001c79160009162000f93565b620012d5620001c7916004620006aa565b90620012b6565b620001c790620012a1565b9062001305620012f9620007e6845490565b92600052602060002090565b9060005b818110620013175750505090565b909192620013446200133d6001926200133787546001600160a01b031690565b620007c5565b9460010190565b92910162001309565b906200019d91620012e7565b90620001c762001377926200136d60405190565b938480926200134d565b0383620002cb565b6200019d9062001359565b6200019d60066200137f565b90620001c791620013a662000cd8565b620014cd565b634e487b7160e01b600052601160045260246000fd5b9190600862000ddb91029162000f8e600019841b90565b9190620013ee6200019d62000e019362000fe4565b908354620013c2565b620001c791600091620013d9565b81811062001411575050565b80620014216000600193620013f7565b0162001405565b90918281106200143757505050565b620001c792909162001448565b9290565b908101910162001405565b90680100000000000000008111620002ee57620001c79160049062001428565b6004916200148d620014446001926200019d868662001453565b92049160005b838110620014a15750505050565b6001906020620014b36200019d865190565b940193818401550162001493565b90620001c79162001473565b90620014df620001c79260056200020f565b620014c1565b90620001c79162001396565b6200019d9081565b6200019d9054620014f1565b620015206200019d9162001517600090565b5060016200020f565b620014f9565b620015206200019d9162001538600090565b5060026200020f565b67ffffffffffffffff8111620002ee5760208091020190565b906200156a6200034a8362001541565b918252565b6200019d6080620002f4565b620015856200156f565b60008082526060602083018190526040830181905282015290565b6200019d6200157b565b60005b828110620015ba57505050565b602090620015c7620015a0565b8184015201620015ad565b90620001c7620015ed620015e6846200155a565b9362001541565b601f190160208401620015aa565b60001981146200160b5760010190565b620013ac565b90505190620001c78262000321565b90602082820312620001b3576200019d9162001611565b909291926200164a6200034a8262000909565b93818552602085019082840111620001b357620001c79262000537565b9080601f83011215620001b35781516200019d9260200162001637565b90602082820312620001b357815167ffffffffffffffff8111620001b3576200019d920162001667565b90620016b8825190565b81101562000448576020809102010190565b6006620016df620016d9825490565b620015d2565b906000620016ed8162000fe4565b90815b620016fd6200019d855490565b81101562001936576200175960206200171f620011a0620007088589620006aa565b630a771370906200174233926200173560405190565b9586948593849360e01b90565b83526001600160a01b031660048301526024820190565b03915afa908115620011e757839162001901575b50620017798362000fe4565b811162001793575b506200178d90620015fb565b620016f0565b8193620017ad620011a062000708620017db9589620006aa565b84620017c2620011a062000708898b620006aa565b63c3e20c9f90620017d260405190565b96879260e01b90565b825260049082905afa8015620011e75762001827948691620018e3575b50856200180e620011a0620007088a8c620006aa565b6303c29d58906200181e60405190565b97889260e01b90565b825260049082905afa938415620011e75762001886620018ad956200188d936200178d988a92620018b5575b506200187f9062001878620018676200156f565b6001600160a01b039098168c890152565b6020870152565b6040850152565b6060830152565b620018998289620016ae565b52620018a68188620016ae565b50620015fb565b929062001781565b6200187f919250620018db903d808d833e620018d28183620002cb565b81019062001684565b919062001853565b620018fa91503d8088833e620018d28183620002cb565b38620017f8565b62001927915060203d81116200192e575b6200191e8183620002cb565b81019062001620565b386200176d565b503d62001912565b5050505090565b156200194557565b60405162461bcd60e51b815260206004820152602f60248201527f496e73756666696369656e742062616c616e636520696e20706f6f6c20746f2060448201527f706179206f7574207265776172647300000000000000000000000000000000006064820152608490fd5b15620019b857565b60405162461bcd60e51b815260206004820152602a60248201527f496e73756666696369656e742062616c616e636520746f20776974686472617760448201527f2066726f6d20706f6f6c000000000000000000000000000000000000000000006064820152608490fd5b919082039182116200160b57565b906000199062000ddb565b9062001a506200019d62000e019262000fe4565b825462001a31565b62001a7c62001a673062000204565b82903162001a74565b9190565b10156200193d565b6001903362001a9d62001a946200152083866200020f565b831115620019b0565b60008080808562001ab2620011a08762000204565b82821562001aef575bf115620011e75762001ad662001ae891620001c7946200020f565b9162001ae283620014f9565b62001a23565b9062001a3c565b506108fc62001abb565b90620001c7929162001b0a62000cd8565b62001bd7565b1562001b1857565b60405162461bcd60e51b815260206004820152603060248201527f496e73756666696369656e742062616c616e636520696e20706f6f6c20746f2060448201527f77697468647261772072657761726473000000000000000000000000000000006064820152608490fd5b801515620001ab565b90505190620001c78262001b83565b90602082820312620001b3576200019d9162001b8c565b6001600160a01b03918216815291166020820152606081019291620001c79160400152565b909162001be49062000204565b6370a082319062001bf53062000204565b9162001c0b62001c0460405190565b9160e01b90565b81526001600160a01b0383166004820152602081602481855afa8015620011e75760209462001c4d60009262001c6e94849162001cbd575b5082111562001b10565b62001c7a6323b872dd9162001c6160405190565b9889978896879560e01b90565b85526004850162001bb2565b03925af18015620011e75762001c8d5750565b62001cb29060203d811162001cb5575b62001ca98183620002cb565b81019062001b9b565b50565b503d62001c9d565b62001cd89150883d81116200192e576200191e8183620002cb565b3862001c43565b90620001c7929162001af9565b60031115620001b357565b90505190620001c78262001cec565b90602082820312620001b3576200019d9162001cf7565b634e487b7160e01b600052602160045260246000fd5b6003111562001d3e57565b62001d1d565b90620001c78262001d33565b1562001d5857565b60405162461bcd60e51b815260206004820152600d60248201527f496e76616c6964207374617465000000000000000000000000000000000000006044820152606490fd5b6200019d9062000764565b6200019d905462001d9d565b1562001dbc57565b60405162461bcd60e51b815260206004820152601260248201527f546f6b656e206e6f7420616363657074656400000000000000000000000000006044820152606490fd5b6001600160a01b039091168152606081019392620001c792909160409162001e2a906020830152565b01906200070f565b6001600160a01b039091168152604081019291620001c79160200152565b9162001e60620011a08462000204565b9163c19d93fb9062001e7c62001e7560405190565b9260e01b90565b8252602082600481875afa918215620011e75760009262001fbd575b5062001ebd60009262001eb662001eaf8562001d44565b9162001d44565b1462001d50565b62001ede62001ed862001ed28360036200020f565b62001da8565b62001db4565b634cbc1553913394803b15620001b35762001f0893829162001eff60405190565b95869260e01b90565b825281838162001f1e888b8d6004850162001e01565b03925af1928315620011e75762001f3f9362001f89575b5050828462002002565b62001f6b7f0829c5c9dc5d14e41b11cfca0f01f76eba69b648ddcf9f84afba16ba8a76bf1c9262000204565b9262001f8462001f7a60405190565b9283928362001e32565b0390a2565b8162001fad92903d1062001fb5575b62001fa48183620002cb565b8101906200050e565b388062001f35565b503d62001f98565b62001fe491925060203d811162001fec575b62001fdb8183620002cb565b81019062001d06565b903862001e98565b503d62001fcf565b919082018092116200160b57565b90620020366200204e620001c79462001ae8936200204862002025838362002057565b62001ae8620020368960016200020f565b916200204283620014f9565b62001ff4565b62002057565b9260026200020f565b6200206a6729a2241af62c000062000fe4565b811015806200219c575b6200217d576200208c674563918244f4000062000fe4565b81118062002160575b6200214157620020ad678ac7230489e8000062000fe4565b81118062002123575b6200210457620020d362001a706802b5e3af16b188000062000fe4565b11620020e657506200019d600062000fe4565b6200047a620020fb6200019d9260056200020f565b60039062000431565b506200047a6200211a6200019d9260056200020f565b60029062000431565b50620021386802b5e3af16b188000062000fe4565b811115620020b6565b506200047a620021576200019d9260056200020f565b60019062000431565b5062002174678ac7230489e8000062000fe4565b81111562002095565b506200047a620021936200019d9260056200020f565b60009062000431565b50620021b0674563918244f4000062000fe4565b8111156200207456fe60806040523462000043576200003162000018620002e7565b9c9b909b9a919a999299989398979497969596620006bd565b6040516123ac62000a0382396123ac90f35b600080fd5b634e487b7160e01b600052604160045260246000fd5b90601f01601f191681019081106001600160401b038211176200008057604052565b62000048565b906200009d6200009560405190565b92836200005e565b565b6001600160a01b031690565b90565b6001600160a01b0381165b036200004357565b905051906200009d82620000ae565b80620000b9565b905051906200009d82620000d0565b6001600160401b0381116200008057602090601f01601f19160190565b0190565b60005b8381106200011b5750506000910152565b81810151838201526020016200010a565b90929192620001456200013f82620000e6565b62000086565b9381855260208501908284011162000043576200009d9262000107565b9080601f8301121562000043578151620000ab926020016200012c565b9190916101c08184031262000043576200019a8382620000c1565b92620001aa8160208401620000c1565b92604090620001bc83838601620000c1565b93620001cc8460608301620000c1565b93620001dc8160808401620000c1565b93620001ec8260a08501620000d7565b93620001fc8360c08601620000d7565b9360e0810151600180851b0381116200004357846200021d91830162000162565b93610100820151600180861b0381116200004357816200023f91840162000162565b93610120830151600180831b0381116200004357826200026191850162000162565b93610140840151600180841b0381116200004357836200028391860162000162565b93610160810151600180851b038111620000435784620002a591830162000162565b93610180820151600180861b038111620000435781620002c791840162000162565b936001806101a0850151921b0381116200004357620000ab920162000162565b6200030a62002daf80380380620002fe8162000086565b9283398101906200017f565b909192939495969798999a9b9c9d565b620000ab906200009f906001600160a01b031682565b620000ab906200031a565b620000ab9062000330565b906001600160a01b03905b9181191691161790565b906200036f620000ab62000377926200033b565b825462000346565b9055565b906000199062000351565b620000ab620000ab620000ab9290565b90620003aa620000ab620003779262000386565b82546200037b565b9060ff9062000351565b634e487b7160e01b600052602160045260246000fd5b60031115620003dd57565b620003bc565b906200009d82620003d2565b620000ab90620003e3565b906200040e620000ab6200037792620003ef565b8254620003b2565b9061ff009060081b62000351565b9062000437620000ab6200037792151590565b825462000416565b9062ff00009060101b62000351565b9062000461620000ab6200037792151590565b82546200043f565b634e487b7160e01b600052602260045260246000fd5b9060016002830492168015620004a2575b60208310146200049c57565b62000469565b91607f169162000490565b9160001960089290920291821b911b62000351565b9190620004d7620000ab620003779362000386565b908354620004ad565b6200009d91600091620004c2565b818110620004fa575050565b806200050a6000600193620004e0565b01620004ee565b9190601f81116200052157505050565b620005356200009d93600052602060002090565b906020601f84018190048301931062000559575b6020601f909101040190620004ee565b909150819062000549565b906200056e815190565b906001600160401b038211620000805762000596826200058f85546200047f565b8562000511565b602090601f8311600114620005d55762000377929160009183620005c9575b5050600019600883021c1916906002021790565b015190503880620005b5565b601f19831691620005eb85600052602060002090565b9260005b8181106200062c5750916002939185600196941062000612575b50505002019055565b01516000196008601f8516021c1916905538808062000609565b91936020600181928787015181550195019201620005ef565b906200009d9162000564565b801515620000b9565b905051906200009d8262000651565b906020828203126200004357620000ab916200065a565b9052565b620006809062000386565b6001600160a01b0390911681526040810192916200009d916020019062000684565b6040513d6000823e3d90fd5b9b98949c97939995919a9692909a730811029baf786c77f1adba0c0dc29952d012c37b620006eb906200033b565b620006f89060026200035b565b6200070862bc614e600362000396565b60009c8d6200071981600e620003fa565b6200072690600e62000424565b8d6200073481600e6200044e565b6200074190601662000396565b6200074c8a6200099e565b62000757906200033b565b620007649060016200035b565b6200076f8c6200033b565b6200077c9060046200035b565b62000787906200033b565b62000793908d6200035b565b6200079e906200033b565b98620007ac8a60056200035b565b620007b7906200033b565b9b620007c58d60066200035b565b620007d290600762000396565b620007df90600862000396565b620007ec90600c62000645565b620007f990600d62000645565b620008048862000386565b6200081190600a62000396565b6200081e90600f62000645565b6200082b90601062000645565b6200083890601162000645565b6200084590601362000645565b6200085290601262000645565b6200085d906200033b565b9063095ea7b3600160ff1b946200087360405190565b936200087f8360e01b90565b85528480620008938987600484016200068f565b0381885a94602095f19384156200092c57620008bf620008db92879260209762000932575b506200033b565b92620008e7620008ce60405190565b9889968795869460e01b90565b8452600484016200068f565b03925af19081156200092c5750620008fc5750565b620009219060203d811162000924575b6200091881836200005e565b81019062000669565b50565b503d6200090c565b620006b1565b6200094c90883d811162000924576200091881836200005e565b620008b8565b620009776200098160209362000103936200096b815190565b80835293849260200190565b9586910162000107565b601f01601f191690565b6020808252620000ab9291019062000952565b620009cf620009df6200009d92620009b560405190565b63104c13eb60e21b6020820152928391602483016200098b565b602082018103825203826200005e565b60008091620009f66a636f6e736f6c652e6c6f6790565b602082519201905afa5056fe60a0604052600436101561001257600080fd5b60003560e01c80630203d0021461022257806302d05d3f1461021d57806303c29d581461021857806307d94e4a146102135780630a7713701461020e57806318aa9f1e1461020957806324274ee914610204578063263a58aa146101ff57806328c30c07146101fa57806329dcb0cf146101f557806343ab265f146101f05780634c4cea5a146101eb5780634cbc1553146101e65780634e695a37146101e157806354214f69146101dc5780635eb32936146101d757806362d809a6146101d257806380007e83146101cd578063992a7dfb146101c8578063a278a485146101c3578063abb5ca09146101be578063b35a7dd4146101b9578063b40141bf146101b4578063b82c86d6146101af578063c19d93fb146101aa578063c3e20c9f146101a5578063c59ee1dc146101a0578063ca4b208b1461019b578063d170755114610196578063d5cef13314610191578063d688cf531461018c578063e9d1edde146101875763ff3a9c7e0361022757610e37565b610d3e565b610d26565b610d0b565b610cf0565b610cc9565b610ca2565b610c7b565b610c48565b610bd0565b610ba9565b610b7e565b610a5b565b610a34565b6109f4565b6108b6565b610891565b610853565b61081a565b6107dc565b6107c3565b610778565b610751565b610736565b61070d565b6106c9565b6106a2565b61067b565b610654565b61058c565b610565565b6103bb565b61034a565b600080fd5b805b0361022757565b905035906102428261022c565b565b906020828203126102275761025891610235565b90565b60005b83811061026e5750506000910152565b818101518382015260200161025e565b61029f6102a86020936102b293610293815190565b80835293849260200190565b9586910161025b565b601f01601f191690565b0190565b6001600160a01b031690565b9052565b9398979561032b60e09661032461031c6102429b9661033b9861030f6102fd8c6103329a610100820191600081840391015261027e565b6001600160a01b0390931660208d0152565b8a820360408c015261027e565b9c6060890152565b6080870152565b60a0850152565b151560c0830152565b01906001600160a01b03169052565b3461022757610381610365610360366004610244565b6122f8565b9461037898969894919493929360405190565b988998896102c6565b0390f35b600091031261022757565b610258916008021c6001600160a01b031690565b906102589154610390565b610258600060046103a4565b34610227576103cb366004610385565b6103816103d66103af565b604051918291826001600160a01b03909116815260200190565b634e487b7160e01b600052600060045260246000fd5b634e487b7160e01b600052602260045260246000fd5b906001600283049216801561043c575b602083101461043757565b610406565b91607f169161042c565b805460009392916104636104598361041c565b8085529360200190565b91600181169081156104b5575060011461047c57505050565b61048f9192939450600052602060002090565b916000925b8184106104a15750500190565b805484840152602090930192600101610494565b92949550505060ff1916825215156020020190565b9061025891610446565b634e487b7160e01b600052604160045260246000fd5b90601f01601f1916810190811067ffffffffffffffff82111761050c57604052565b6104d4565b9061024261052b9261052260405190565b938480926104ca565b03836104ea565b906000106105435761025890610511565b6103f0565b6102586000600d610532565b60208082526102589291019061027e565b3461022757610575366004610385565b610381610580610548565b60405191829182610554565b346102275761059c366004610385565b6103816105a76114b2565b6040519182918290815260200190565b6001600160a01b03811661022e565b90503590610242826105b7565b9060208282031261022757610258916105c6565b6102b6610258610258926001600160a01b031690565b610258906105e7565b610258906105fd565b9061061990610606565b600052602052604060002090565b610258916008021c81565b906102589154610627565b6102589061064f60149160009261060f565b610632565b34610227576103816105a761066a3660046105d3565b61063d565b61025860006011610532565b346102275761068b366004610385565b61038161058061066f565b6102586000600b610632565b34610227576106b2366004610385565b6103816105a7610696565b61025860006003610632565b34610227576106d9366004610385565b6103816105a76106bd565b80151561022e565b90503590610242826106e4565b9060208282031261022757610258916106ec565b34610227576107256107203660046106f9565b610fc8565b604051005b61025860006007610632565b3461022757610746366004610385565b6103816105a761072a565b34610227576103816105a76107673660046105d3565b6114bf565b61025860006009610632565b3461022757610788366004610385565b6103816105a761076c565b9091606082840312610227576102586107ac84846105c6565b936107ba8160208601610235565b936040016105c6565b34610227576107256107d6366004610793565b91611429565b34610227576107256107ef366004610244565b611bd0565b610258916008021c5b60ff1690565b9061025891546107f4565b6102586001600e610803565b346102275761082a366004610385565b61038161083561080e565b60405191829182901515815260200190565b61025860006012610532565b3461022757610863366004610385565b610381610580610847565b919060408382031261022757610258906108888185610235565b936020016105c6565b34610227576107256108a436600461086e565b90612221565b6102586002600e610803565b34610227576108c6366004610385565b6103816108356108aa565b6102586102586102589290565b90610619906108d1565b6102589081565b61025890546108e8565b610258906107fd565b61025890546108f9565b6102589060081c6102b6565b610258905461090c565b61092d9060156108de565b61093681610511565b9161094b60018301546001600160a01b031690565b9161095860028201610511565b91610965600383016108ef565b91610972600482016108ef565b916102586006610983818501610902565b9301610918565b9260c0949897956109e46109dc61033b956109eb946109cf6109bd6102429d9860e08c01908c600081840391015261027e565b6001600160a01b0390931660208b0152565b88820360408a015261027e565b9a6060870152565b6080850152565b151560a0830152565b3461022757610381610a0f610a0a366004610244565b610922565b93610a1f97959793919360405190565b9788978861098a565b61025860006013610532565b3461022757610a44366004610385565b610381610580610a28565b6102586000600f610532565b3461022757610a6b366004610385565b610381610580610a4f565b90610242610a8360405190565b92836104ea565b67ffffffffffffffff811161050c57602090601f01601f19160190565b90826000939282370152565b90929192610ac8610ac382610a8a565b610a76565b938185526020850190828401116102275761024292610aa7565b9080601f830112156102275781602061025893359101610ab3565b909160c08284031261022757813567ffffffffffffffff81116102275783610b26918401610ae2565b92610b348160208501610235565b92610b4282604083016105c6565b92610b5083606084016105c6565b9260808301359067ffffffffffffffff821161022757610b7581610258938601610ae2565b9360a001610235565b3461022757610725610b91366004610afd565b94939093929192611b0d565b61025860006016610632565b3461022757610bb9366004610385565b6103816105a7610b9d565b61025860006008610632565b3461022757610be0366004610385565b6103816105a7610bc4565b6102586000600e610803565b634e487b7160e01b600052602160045260246000fd5b60031115610c1757565b610bf7565b9061024282610c0d565b61025890610c1c565b6102c290610c26565b6020810192916102429190610c2f565b3461022757610c58366004610385565b610381610c63610beb565b60405191829182610c38565b6102586000600c610532565b3461022757610c8b366004610385565b610381610580610c6f565b6102586000600a610632565b3461022757610cb2366004610385565b6103816105a7610c96565b610258600060026103a4565b3461022757610cd9366004610385565b6103816103d6610cbd565b61025860006010610532565b3461022757610d00366004610385565b610381610580610ce4565b3461022757610d1b366004610385565b610381610835611716565b3461022757610725610d39366004610244565b610f6b565b3461022757610725610d513660046106f9565b611026565b9e9d9c9b999897959391928f9197959361020083019860008401610d81916001600160a01b03169052565b6001600160a01b031660208301526001600160a01b031660408201526060015260808d015260a08c015260c08b015260e08a01528881036101008a0152610dc79161027e565b878103610120890152610dd99161027e565b916101408701610de891610c2f565b610160860152848103610180860152610e009161027e565b8381036101a0850152610e129161027e565b8281036101c0840152610e249161027e565b90808203906101e001526102589161027e565b3461022757610e47366004610385565b610e7c610e52612234565b9e610e719e919e9d929d9c939c9b949b9a959a99969998979860405190565b608052608051610d56565b6080519003608051f35b15610e8d57565b60405162461bcd60e51b815260206004820152603660248201527f596f7520646f6e7420686176652061646d696e2061636365737320746f20706560448201527f72666f726d2074686973206f7065726174696f6e2021000000000000000000006064820152608490fd5b61024290610f3033610f2a610f1d610f186001546001600160a01b031690565b610606565b916001600160a01b031690565b14610e86565b610f60565b90600019905b9181191691161790565b90610f55610258610f5c926108d1565b8254610f35565b9055565b610242906003610f45565b61024290610ef8565b61024290610f9433610f2a610f1d610f186001546001600160a01b031690565b610fbd565b9061ff009060081b610f3b565b90610fb6610258610f5c92151590565b8254610f99565b61024290600e610fa6565b61024290610f74565b61024290610ff133610f2a610f1d610f186001546001600160a01b031690565b61101b565b9062ff00009060101b610f3b565b90611014610258610f5c92151590565b8254610ff6565b61024290600e611004565b61024290610fd1565b6102589060101c6107fd565b610258905461102f565b1561104c57565b60405162461bcd60e51b815260206004820152601860248201527f50726f6a656374206d75737420626520766572696669656400000000000000006044820152606490fd5b9061024292916110b66110a4600e61103b565b6110b060015b91151590565b14611045565b61112d565b156110c257565b60405162461bcd60e51b815260206004820152603c60248201527f596f7520646f206e6f74206861766520746865206d617374657220726967687460448201527f7320746f20706572666f726d2074686973206f7065726174696f6e21000000006064820152608490fd5b9061024292916111553361114f610f1d610f186000546001600160a01b031690565b146110bb565b611254565b634e487b7160e01b600052601160045260246000fd5b600019811461117f5760010190565b61115a565b9190820180921161117f57565b905051906102428261022c565b906020828203126102275761025891611191565b6001600160a01b0390911681526040810192916102429160209061033b565b6040513d6000823e3d90fd5b1561022757565b90505190610242826106e4565b9060208282031261022757610258916111e4565b6001600160a01b039182168152911660208201526060810192916102429160400152565b0152565b6001600160a01b039091168152606081019392610242929091604091611229906020830152565b916112c26014916112aa6112928661127461126f828861060f565b6108ef565b95600096611288611284896108d1565b9190565b146114085761060f565b6112a48661129f836108ef565b611184565b90610f45565b610f186112bb8561129f600a6108ef565b600a610f45565b9063dd62ed3e916112d230610606565b6112e56112de60405190565b9460e01b90565b8452602084806112f9848a600484016111b2565b0381855afa9182156113d65761131d602093879686916113db575b508611156111dd565b61133f846323b872dd61134b61133260405190565b9889968795869460e01b90565b84528c60048501611205565b03925af19081156113d657506113aa575b50611367600a6108ef565b9161139f7f5cdc4ab8d637538ead6cc1904d4160343656c8c82bd266635cfd31ac008fffe09361139660405190565b9384938461122d565b0390a1610242611454565b6113ca9060203d81116113cf575b6113c281836104ea565b8101906111f1565b61135c565b503d6113b8565b6111d1565b6113fb9150853d8111611401575b6113f381836104ea565b81019061119e565b38611314565b503d6113e9565b61142461141d611418600b6108ef565b611170565b600b610f45565b61060f565b906102429291611091565b9060ff90610f3b565b9061144d610258610f5c92610c26565b8254611434565b61145e600a6108ef565b61146e61128461025860086108ef565b1061148a5761147f6002600e61143d565b610242426009610f45565b4261149b61128461025860076108ef565b111561147f576114ad6001600e61143d565b61147f565b6114bb30610606565b3190565b60206114d6611516926114d0600090565b50610606565b6370a08231906114ff6114e830610606565b926114f260405190565b9586948593849360e01b90565b83526001600160a01b031660048301526024820190565b03915afa9081156113d65760009161152c575090565b610258915060203d8111611401576113f381836104ea565b1561154b57565b60405162461bcd60e51b815260206004820152600d60248201527f496e76616c6964207374617465000000000000000000000000000000000000006044820152606490fd5b1561159757565b60405162461bcd60e51b815260206004820152601560248201527f446561646c696e652068617320706173736564202100000000000000000000006044820152606490fd5b6102589061160760016116016115fb6115f5600e610902565b92610c1c565b91610c1c565b14611544565b6116214261161b61128461025860076108ef565b10611590565b611698565b1561162d57565b60405162461bcd60e51b815260206004820152602660248201527f596f7520646f6e74206861766520616e7920636f6e747269627574656420616d60448201527f6f756e74202100000000000000000000000000000000000000000000000000006064820152608490fd5b503360146116a961126f838361060f565b6116c16000916116bb611284846108d1565b11611626565b808080806116d1610f1888610606565b6116de61126f898961060f565b9082821561170d575bf1156113d657611708926116fd611703926108d1565b9261060f565b610f45565b600190565b506108fc6116e7565b61025860006115dc565b1561172757565b60405162461bcd60e51b815260206004820152603860248201527f596f7520646f6e7420686176652063726561746f722061636365737320746f2060448201527f706572666f726d2074686973206f7065726174696f6e202100000000000000006064820152608490fd5b9061024295949392916117bd336117b7610f1d610f186004546001600160a01b031690565b14611720565b9061024295949392916117db60026116016115fb6115f5600e610902565b6117ef4261161b61128461025860076108ef565b611a53565b91906008610f3b910291611809600019841b90565b921b90565b919061181f610258610f5c936108d1565b9083546117f4565b6102429160009161180e565b81811061183e575050565b8061184c6000600193611827565b01611833565b9190601f811161186157505050565b61187361024293600052602060002090565b906020601f840181900483019310611895575b6020601f909101040190611833565b9091508190611886565b906118a8815190565b9067ffffffffffffffff821161050c576118cc826118c6855461041c565b85611852565b602090601f831160011461190757610f5c9291600091836118fc575b5050600019600883021c1916906002021790565b0151905038806118e8565b601f1983169161191c85600052602060002090565b9260005b81811061195a57509160029391856001969410611941575b50505002019055565b01516000196008601f8516021c19169055388080611938565b91936020600181928787015181550195019201611920565b906102429161189f565b906001600160a01b0390610f3b565b9061199b610258610f5c92610606565b825461197c565b9061144d610258610f5c92151590565b9074ffffffffffffffffffffffffffffffffffffffff009060081b610f3b565b906119e2610258610f5c92610606565b82546119b2565b6102c2906108d1565b6102c290610606565b9260c094989795611a426109dc6109eb93611a346102429b96611a4c98611a2760e08c019260008d0152565b8a820360208c015261027e565b9088820360408a015261027e565b60808501906119e9565b01906119f2565b939492611a80611a6c610258611b0895949660156108de565b91611a778784611972565b6001830161198b565b611a8d8660028301611972565b611a9a8460038301610f45565b611ac8826006600093611ab8611aaf866108d1565b60048301610f45565b01611ac384826119a2565b6119d2565b80611ad360166108ef565b947f4155121c72ca95297a55d3963daac6d430e184f4fc497ce898b36ee9a834eec197611aff60405190565b978897886119fb565b0390a1565b906102429594939291611792565b15611b2257565b60405162461bcd60e51b815260206004820152601b60248201527f4f6e6c7920636f6e7472696275746f722063616e20766f7465202100000000006044820152606490fd5b15611b6e57565b60405162461bcd60e51b815260206004820152601360248201527f596f7520616c726561647920766f7465642021000000000000000000000000006044820152606490fd5b6001600160a01b0390911681526040810192916102429160200152565b3390611c6d9061126f611c676004611c5b86611c56611c17610258611bf78885601461060f565b98611c1060009a611c0a6112848d6108d1565b11611b1b565b60156108de565b96611c446005890191611c3e6110aa611c38611c33888761060f565b610902565b92151590565b14611b67565b611c51600193849261060f565b6119a2565b6108d1565b93019261129f846108ef565b82610f45565b7fa2925e4595bf873fa82c22a1a89809777347023bf2b502d32710157a5eb8199c91611b08611c9b60405190565b92839283611bb3565b9061024291611cc5336117b7610f1d610f186004546001600160a01b031690565b9061024291611cdf60026116016115fb6115f5600e610902565b611cf34261161b61128461025860076108ef565b611edc565b15611cff57565b60405162461bcd60e51b815260206004820152601960248201527f5265717565737420616c726561647920636f6d706c65746564000000000000006044820152606490fd5b634e487b7160e01b600052601260045260246000fd5b8115611d64570490565b611d44565b15611d7057565b60405162461bcd60e51b815260206004820152603660248201527f4174206c656173742032302520636f6e7472696275746f72206e65656420746f60448201527f20766f746520666f7220746869732072657175657374000000000000000000006064820152608490fd5b15611de257565b60405162461bcd60e51b815260206004820152603960248201527f50726f6a65637420636f6e747261637420646f6573206e6f742068617665206560448201527f6e6f7567682062616c616e636520746f206469736275727365000000000000006064820152608490fd5b8181029291811591840414171561117f57565b6001600160a01b0390911681526060810193926102429290916040916112299060208301906119f2565b929796946109eb906109e460c096611ed5611ec36102429b96611a4c98611eb660e08c019260008d0152565b8a820360208c0152610446565b6001600160a01b03909d166040890152565b6060870152565b611eea6102588260156108de565b906006820192611ef984610902565b600090611f0f90611f09836110aa565b14611cf8565b6004840190611f4a611f20836108ef565b611f43611284610258611f33600b6108ef565b611f3d60056108d1565b90611d5a565b1015611d69565b6003850195611f61611f5b886108ef565b94610606565b6370a08231611f6f30610606565b95611f83611f7c60405190565b9260e01b90565b82526001600160a01b0387166004830152602082602481865afa80156113d657611284611fb891611fbf94889161152c575090565b1115611ddb565b6323b872dd94611fce83610918565b611fd78a6108ef565b60206120108961201c612002611ff2603296611f3d886108d1565b611ffc60316108d1565b90611e4d565b604051968794859460e01b90565b84528860048501611e60565b038189885af19182156113d6578b92612205575b504261204261128461025860036108ef565b116121a75750506001546001600160a01b03169161205f8a6108ef565b602061201089612085612077606495611f3d876108d1565b604051988994859460e01b90565b038189865af19081156113d6578b986120e86120cd89936020986120dd9661218c575b50611f3d6120c76120c16002546001600160a01b031690565b9e6108ef565b916108d1565b6040519b8c978896879560e01b90565b855260048501611e60565b03925af19384156113d657611b0894612170575b505b61213b61213561212f6121296001809661211882886119a2565b8b019a01546001600160a01b031690565b996108ef565b946108ef565b91610918565b927f4b318eefdd7bb107016b6a285ad8d255001224edad6fe9a0dd934ee9f3e911c59761216760405190565b97889788611e8a565b6121879060203d81116113cf576113c281836104ea565b6120fc565b6121a2908a3d81116113cf576113c281836104ea565b6120a8565b8560209492986121cf6120cd6120dd94611f3d6120c76120c16001546001600160a01b031690565b03925af19384156113d657611b08946121e9575b506120fe565b6122009060203d81116113cf576113c281836104ea565b6121e3565b61221c9060203d81116113cf576113c281836104ea565b612030565b9061024291611ca4565b61025890610511565b6004546001600160a01b03169061224b60076108ef565b9061225660086108ef565b9161226160096108ef565b9261226c600a6108ef565b92612277600c61222b565b94612282600d61222b565b9461228d600e610902565b9661229730610606565b31966122a3600f61222b565b986122ae601061222b565b986122b9601161222b565b9a6122c4601261222b565b9a6122d76005546001600160a01b031690565b9c6122ea6006546001600160a01b031690565b9c6122f5600b6108ef565b9a565b61025861230f91612307606090565b5060156108de565b612319600b6108ef565b906123238161222b565b926123306002830161222b565b9161234560018201546001600160a01b031690565b93612352600383016108ef565b926006612361600485016108ef565b93019061025861237083610902565b9261091856fea2646970667358221220bfc124648f4c5db7f199553462fb7ed2f8410e4de8219b601c3f6780ed3f877864736f6c63430008120033a2646970667358221220d3c0db377806a1bead8c97d722523a2cd7abe87dafbbd752db525f4a92a11ffe64736f6c63430008120033","opcodes":"PUSH1 0x80 PUSH1 0x40 MSTORE CALLVALUE PUSH3 0x26 JUMPI PUSH3 0x14 PUSH3 0x2B JUMP JUMPDEST PUSH1 0x40 MLOAD PUSH2 0x4F9E PUSH3 0x126 DUP3 CODECOPY PUSH2 0x4F9E SWAP1 RETURN JUMPDEST PUSH1 0x0 DUP1 REVERT JUMPDEST PUSH3 0x35 PUSH3 0x37 JUMP JUMPDEST JUMP JUMPDEST PUSH3 0x35 CALLER PUSH3 0xC3 JUMP JUMPDEST PUSH3 0x54 SWAP1 JUMPDEST PUSH1 0x1 PUSH1 0x1 PUSH1 0xA0 SHL SUB AND SWAP1 JUMP JUMPDEST SWAP1 JUMP JUMPDEST PUSH3 0x54 SWAP1 SLOAD PUSH3 0x42 JUMP JUMPDEST PUSH3 0x54 SWAP1 PUSH3 0x48 SWAP1 PUSH1 0x1 PUSH1 0x1 PUSH1 0xA0 SHL SUB AND DUP3 JUMP JUMPDEST PUSH3 0x54 SWAP1 PUSH3 0x63 JUMP JUMPDEST PUSH3 0x54 SWAP1 PUSH3 0x79 JUMP JUMPDEST SWAP1 PUSH3 0xA3 PUSH3 0x54 PUSH3 0xBF SWAP3 PUSH3 0x84 JUMP JUMPDEST DUP3 SLOAD PUSH1 0x1 PUSH1 0x1 PUSH1 0xA0 SHL SUB NOT AND PUSH1 0x1 PUSH1 0x1 PUSH1 0xA0 SHL SUB SWAP2 SWAP1 SWAP2 AND OR SWAP1 JUMP JUMPDEST SWAP1 SSTORE JUMP JUMPDEST PUSH3 0xCF PUSH1 0x0 PUSH3 0x57 JUMP JUMPDEST SWAP1 PUSH3 0xDD DUP2 PUSH1 0x0 PUSH3 0x8F JUMP JUMPDEST PUSH3 0x114 PUSH3 0x10D PUSH32 0x8BE0079C531659141344CD1FD0A4F28419497F9722A3DAAFE3B4186F6B6457E0 SWAP4 PUSH3 0x84 JUMP JUMPDEST SWAP2 PUSH3 0x84 JUMP JUMPDEST SWAP2 PUSH3 0x11F PUSH1 0x40 MLOAD SWAP1 JUMP JUMPDEST PUSH1 0x0 SWAP1 LOG3 JUMP INVALID PUSH1 0x80 PUSH1 0x40 MSTORE PUSH1 0x4 CALLDATASIZE LT ISZERO PUSH3 0x10 JUMPI STOP JUMPDEST PUSH1 0x0 CALLDATALOAD PUSH1 0xE0 SHR DUP1 PUSH4 0x700037D EQ PUSH3 0x18B JUMPI DUP1 PUSH4 0x1ED2EB4B EQ PUSH3 0x185 JUMPI DUP1 PUSH4 0x25F0FC2D EQ PUSH3 0x17F JUMPI DUP1 PUSH4 0x43746A37 EQ PUSH3 0x179 JUMPI DUP1 PUSH4 0x606266F5 EQ PUSH3 0x173 JUMPI DUP1 PUSH4 0x715018A6 EQ PUSH3 0x16D JUMPI DUP1 PUSH4 0x773BBB17 EQ PUSH3 0x167 JUMPI DUP1 PUSH4 0x7B2D9B2C EQ PUSH3 0x161 JUMPI DUP1 PUSH4 0x82DC4A05 EQ PUSH3 0x15B JUMPI DUP1 PUSH4 0x85B6E28E EQ PUSH3 0x155 JUMPI DUP1 PUSH4 0x8D472709 EQ PUSH3 0x14F JUMPI DUP1 PUSH4 0x8DA5CB5B EQ PUSH3 0x149 JUMPI DUP1 PUSH4 0x8E4182DF EQ PUSH3 0x143 JUMPI DUP1 PUSH4 0x945BBDCD EQ PUSH3 0x13D JUMPI DUP1 PUSH4 0x9DD2764A EQ PUSH3 0x137 JUMPI DUP1 PUSH4 0xA3DF7779 EQ PUSH3 0x131 JUMPI DUP1 PUSH4 0xAB7573DD EQ PUSH3 0x12B JUMPI DUP1 PUSH4 0xBB7252D8 EQ PUSH3 0x125 JUMPI DUP1 PUSH4 0xECA38989 EQ PUSH3 0x11F JUMPI DUP1 PUSH4 0xF2653B0E EQ PUSH3 0x119 JUMPI PUSH4 0xF2FDE38B EQ PUSH3 0x113 JUMPI STOP JUMPDEST PUSH3 0xC16 JUMP JUMPDEST PUSH3 0xBF9 JUMP JUMPDEST PUSH3 0xBDB JUMP JUMPDEST PUSH3 0xB83 JUMP JUMPDEST PUSH3 0xB62 JUMP JUMPDEST PUSH3 0xB30 JUMP JUMPDEST PUSH3 0xB13 JUMP JUMPDEST PUSH3 0xAF2 JUMP JUMPDEST PUSH3 0xAC8 JUMP JUMPDEST PUSH3 0x8C5 JUMP JUMPDEST PUSH3 0x8A7 JUMP JUMPDEST PUSH3 0x842 JUMP JUMPDEST PUSH3 0x792 JUMP JUMPDEST PUSH3 0x72C JUMP JUMPDEST PUSH3 0x67C JUMP JUMPDEST PUSH3 0x51A JUMP JUMPDEST PUSH3 0x4F1 JUMP JUMPDEST PUSH3 0x4BD JUMP JUMPDEST PUSH3 0x484 JUMP JUMPDEST PUSH3 0x3D0 JUMP JUMPDEST PUSH3 0x261 JUMP JUMPDEST PUSH1 0x1 PUSH1 0x1 PUSH1 0xA0 SHL SUB AND SWAP1 JUMP JUMPDEST SWAP1 JUMP JUMPDEST PUSH1 0x1 PUSH1 0x1 PUSH1 0xA0 SHL SUB DUP2 AND JUMPDEST SUB PUSH3 0x1B3 JUMPI JUMP JUMPDEST PUSH1 0x0 DUP1 REVERT JUMPDEST SWAP1 POP CALLDATALOAD SWAP1 PUSH3 0x1C7 DUP3 PUSH3 0x1A0 JUMP JUMPDEST JUMP JUMPDEST SWAP1 PUSH1 0x20 DUP3 DUP3 SUB SLT PUSH3 0x1B3 JUMPI PUSH3 0x19D SWAP2 PUSH3 0x1B8 JUMP JUMPDEST PUSH3 0x191 PUSH3 0x19D PUSH3 0x19D SWAP3 PUSH1 0x1 PUSH1 0x1 PUSH1 0xA0 SHL SUB AND SWAP1 JUMP JUMPDEST PUSH3 0x19D SWAP1 PUSH3 0x1E0 JUMP JUMPDEST PUSH3 0x19D SWAP1 PUSH3 0x1F9 JUMP JUMPDEST SWAP1 PUSH3 0x21B SWAP1 PUSH3 0x204 JUMP JUMPDEST PUSH1 0x0 MSTORE PUSH1 0x20 MSTORE PUSH1 0x40 PUSH1 0x0 KECCAK256 SWAP1 JUMP JUMPDEST PUSH3 0x19D SWAP2 PUSH1 0x8 MUL SHR DUP2 JUMP JUMPDEST SWAP1 PUSH3 0x19D SWAP2 SLOAD PUSH3 0x229 JUMP JUMPDEST PUSH3 0x19D SWAP1 PUSH3 0x257 PUSH1 0x1 SWAP2 PUSH1 0x0 SWAP3 PUSH3 0x20F JUMP JUMPDEST PUSH3 0x235 JUMP JUMPDEST SWAP1 MSTORE JUMP JUMPDEST CALLVALUE PUSH3 0x1B3 JUMPI PUSH3 0x292 PUSH3 0x282 PUSH3 0x27C CALLDATASIZE PUSH1 0x4 PUSH3 0x1C9 JUMP JUMPDEST PUSH3 0x242 JUMP JUMPDEST PUSH1 0x40 MLOAD SWAP2 DUP3 SWAP2 DUP3 SWAP1 DUP2 MSTORE PUSH1 0x20 ADD SWAP1 JUMP JUMPDEST SUB SWAP1 RETURN JUMPDEST PUSH1 0x1 PUSH1 0x1 PUSH1 0xA0 SHL SUB DUP2 AND PUSH3 0x1AB JUMP JUMPDEST SWAP1 POP CALLDATALOAD SWAP1 PUSH3 0x1C7 DUP3 PUSH3 0x296 JUMP JUMPDEST PUSH4 0x4E487B71 PUSH1 0xE0 SHL PUSH1 0x0 MSTORE PUSH1 0x41 PUSH1 0x4 MSTORE PUSH1 0x24 PUSH1 0x0 REVERT JUMPDEST SWAP1 PUSH1 0x1F ADD PUSH1 0x1F NOT AND DUP2 ADD SWAP1 DUP2 LT PUSH8 0xFFFFFFFFFFFFFFFF DUP3 GT OR PUSH3 0x2EE JUMPI PUSH1 0x40 MSTORE JUMP JUMPDEST PUSH3 0x2B5 JUMP JUMPDEST SWAP1 PUSH3 0x1C7 PUSH3 0x303 PUSH1 0x40 MLOAD SWAP1 JUMP JUMPDEST SWAP3 DUP4 PUSH3 0x2CB JUMP JUMPDEST PUSH8 0xFFFFFFFFFFFFFFFF DUP2 GT PUSH3 0x2EE JUMPI PUSH1 0x20 MUL SWAP1 JUMP JUMPDEST DUP1 PUSH3 0x1AB JUMP JUMPDEST SWAP1 POP CALLDATALOAD SWAP1 PUSH3 0x1C7 DUP3 PUSH3 0x321 JUMP JUMPDEST SWAP1 SWAP3 SWAP2 SWAP3 PUSH3 0x350 PUSH3 0x34A DUP3 PUSH3 0x30B JUMP JUMPDEST PUSH3 0x2F4 JUMP JUMPDEST SWAP4 PUSH1 0x20 DUP6 SWAP3 MUL DUP4 ADD SWAP3 DUP2 DUP5 GT PUSH3 0x1B3 JUMPI SWAP2 JUMPDEST DUP4 DUP4 LT PUSH3 0x371 JUMPI POP POP POP POP JUMP JUMPDEST PUSH1 0x20 DUP1 SWAP2 PUSH3 0x381 DUP5 DUP7 PUSH3 0x328 JUMP JUMPDEST DUP2 MSTORE ADD SWAP3 ADD SWAP2 PUSH3 0x363 JUMP JUMPDEST SWAP1 DUP1 PUSH1 0x1F DUP4 ADD SLT ISZERO PUSH3 0x1B3 JUMPI PUSH3 0x19D SWAP2 PUSH1 0x4 SWAP1 PUSH3 0x337 JUMP JUMPDEST SWAP2 SWAP1 PUSH1 0xA0 DUP4 DUP3 SUB SLT PUSH3 0x1B3 JUMPI PUSH3 0x19D SWAP1 PUSH3 0x3C6 DUP2 DUP6 PUSH3 0x2A6 JUMP JUMPDEST SWAP4 PUSH1 0x20 ADD PUSH3 0x38D JUMP JUMPDEST CALLVALUE PUSH3 0x1B3 JUMPI PUSH3 0x3EE PUSH3 0x3E7 CALLDATASIZE PUSH1 0x4 PUSH3 0x3A8 JUMP JUMPDEST SWAP1 PUSH3 0x14E5 JUMP JUMPDEST PUSH1 0x40 MLOAD STOP JUMPDEST SWAP2 SWAP1 PUSH1 0x40 DUP4 DUP3 SUB SLT PUSH3 0x1B3 JUMPI PUSH3 0x19D SWAP1 PUSH3 0x411 DUP2 DUP6 PUSH3 0x2A6 JUMP JUMPDEST SWAP4 PUSH1 0x20 ADD PUSH3 0x328 JUMP JUMPDEST PUSH4 0x4E487B71 PUSH1 0xE0 SHL PUSH1 0x0 MSTORE PUSH1 0x32 PUSH1 0x4 MSTORE PUSH1 0x24 PUSH1 0x0 REVERT JUMPDEST PUSH1 0x4 DUP3 LT ISZERO PUSH3 0x448 JUMPI PUSH1 0x1 SWAP1 JUMPDEST SWAP2 MUL ADD SWAP1 PUSH1 0x0 SWAP1 JUMP JUMPDEST PUSH3 0x41B JUMP JUMPDEST PUSH3 0x45E PUSH1 0x5 SWAP2 PUSH1 0x0 SWAP3 PUSH3 0x20F JUMP JUMPDEST SWAP1 PUSH1 0x4 DUP4 LT ISZERO PUSH3 0x481 JUMPI POP PUSH3 0x19D SWAP2 PUSH3 0x47A SWAP2 PUSH3 0x431 JUMP JUMPDEST SWAP1 PUSH3 0x235 JUMP JUMPDEST DUP1 REVERT JUMPDEST CALLVALUE PUSH3 0x1B3 JUMPI PUSH3 0x292 PUSH3 0x282 PUSH3 0x49F CALLDATASIZE PUSH1 0x4 PUSH3 0x3F3 JUMP JUMPDEST SWAP1 PUSH3 0x44E JUMP JUMPDEST SWAP1 PUSH1 0x20 DUP3 DUP3 SUB SLT PUSH3 0x1B3 JUMPI PUSH3 0x19D SWAP2 PUSH3 0x328 JUMP JUMPDEST CALLVALUE PUSH3 0x1B3 JUMPI PUSH3 0x3EE PUSH3 0x4D4 CALLDATASIZE PUSH1 0x4 PUSH3 0x4A6 JUMP JUMPDEST PUSH3 0x12DC JUMP JUMPDEST SWAP1 PUSH1 0x20 DUP3 DUP3 SUB SLT PUSH3 0x1B3 JUMPI PUSH3 0x19D SWAP2 PUSH3 0x2A6 JUMP JUMPDEST CALLVALUE PUSH3 0x1B3 JUMPI PUSH3 0x3EE PUSH3 0x508 CALLDATASIZE PUSH1 0x4 PUSH3 0x4DA JUMP JUMPDEST PUSH3 0x1296 JUMP JUMPDEST PUSH1 0x0 SWAP2 SUB SLT PUSH3 0x1B3 JUMPI JUMP JUMPDEST CALLVALUE PUSH3 0x1B3 JUMPI PUSH3 0x52D CALLDATASIZE PUSH1 0x4 PUSH3 0x50E JUMP JUMPDEST PUSH3 0x3EE PUSH3 0xC78 JUMP JUMPDEST PUSH1 0x0 JUMPDEST DUP4 DUP2 LT PUSH3 0x54B JUMPI POP POP PUSH1 0x0 SWAP2 ADD MSTORE JUMP JUMPDEST DUP2 DUP2 ADD MLOAD DUP4 DUP3 ADD MSTORE PUSH1 0x20 ADD PUSH3 0x53A JUMP JUMPDEST PUSH3 0x581 PUSH3 0x58B PUSH1 0x20 SWAP4 PUSH3 0x595 SWAP4 PUSH3 0x575 DUP2 MLOAD SWAP1 JUMP JUMPDEST DUP1 DUP4 MSTORE SWAP4 DUP5 SWAP3 PUSH1 0x20 ADD SWAP1 JUMP JUMPDEST SWAP6 DUP7 SWAP2 ADD PUSH3 0x537 JUMP JUMPDEST PUSH1 0x1F ADD PUSH1 0x1F NOT AND SWAP1 JUMP JUMPDEST ADD SWAP1 JUMP JUMPDEST DUP1 MLOAD PUSH1 0x1 PUSH1 0x1 PUSH1 0xA0 SHL SUB AND DUP3 MSTORE SWAP1 PUSH3 0x19D SWAP1 PUSH1 0x60 DUP1 PUSH3 0x5E1 PUSH3 0x5CE PUSH1 0x80 DUP6 ADD PUSH1 0x20 DUP9 ADD MLOAD DUP7 DUP3 SUB PUSH1 0x20 DUP9 ADD MSTORE PUSH3 0x55C JUMP JUMPDEST PUSH1 0x40 DUP8 ADD MLOAD DUP6 DUP3 SUB PUSH1 0x40 DUP8 ADD MSTORE PUSH3 0x55C JUMP JUMPDEST SWAP5 ADD MLOAD SWAP2 ADD MSTORE JUMP JUMPDEST SWAP1 PUSH3 0x19D SWAP2 PUSH3 0x599 JUMP JUMPDEST SWAP1 PUSH3 0x60D PUSH3 0x603 DUP4 MLOAD SWAP1 JUMP JUMPDEST DUP1 DUP4 MSTORE SWAP2 PUSH1 0x20 ADD SWAP1 JUMP JUMPDEST SWAP1 DUP2 PUSH3 0x620 PUSH1 0x20 DUP4 MUL DUP5 ADD SWAP5 PUSH1 0x20 ADD SWAP1 JUMP JUMPDEST SWAP3 PUSH1 0x0 SWAP2 JUMPDEST DUP4 DUP4 LT PUSH3 0x635 JUMPI POP POP POP POP POP SWAP1 JUMP JUMPDEST SWAP1 SWAP2 SWAP3 SWAP4 SWAP5 PUSH1 0x20 PUSH3 0x65B PUSH3 0x654 DUP4 DUP6 PUSH1 0x1 SWAP6 SUB DUP8 MSTORE DUP10 MLOAD PUSH3 0x5E9 JUMP JUMPDEST SWAP8 PUSH1 0x20 ADD SWAP1 JUMP JUMPDEST SWAP4 ADD SWAP4 ADD SWAP2 SWAP4 SWAP3 SWAP1 PUSH3 0x625 JUMP JUMPDEST PUSH1 0x20 DUP1 DUP3 MSTORE PUSH3 0x19D SWAP3 SWAP2 ADD SWAP1 PUSH3 0x5F5 JUMP JUMPDEST CALLVALUE PUSH3 0x1B3 JUMPI PUSH3 0x68F CALLDATASIZE PUSH1 0x4 PUSH3 0x50E JUMP JUMPDEST PUSH3 0x292 PUSH3 0x69D PUSH3 0x16CA JUMP JUMPDEST PUSH1 0x40 MLOAD SWAP2 DUP3 SWAP2 DUP3 PUSH3 0x669 JUMP JUMPDEST DUP1 SLOAD DUP3 LT ISZERO PUSH3 0x448 JUMPI PUSH3 0x43F PUSH1 0x1 SWAP2 PUSH1 0x0 MSTORE PUSH1 0x20 PUSH1 0x0 KECCAK256 SWAP1 JUMP JUMPDEST PUSH3 0x19D SWAP2 PUSH1 0x8 MUL SHR PUSH3 0x191 JUMP JUMPDEST SWAP1 PUSH3 0x19D SWAP2 SLOAD PUSH3 0x6C6 JUMP JUMPDEST PUSH1 0x4 PUSH1 0x0 PUSH3 0x6EF DUP3 SLOAD SWAP1 JUMP JUMPDEST DUP4 LT ISZERO PUSH3 0x481 JUMPI POP PUSH3 0x19D SWAP2 PUSH3 0x708 SWAP2 PUSH3 0x6AA JUMP JUMPDEST SWAP1 PUSH3 0x6D5 JUMP JUMPDEST PUSH3 0x25D SWAP1 PUSH3 0x204 JUMP JUMPDEST PUSH1 0x20 DUP2 ADD SWAP3 SWAP2 PUSH3 0x1C7 SWAP2 SWAP1 PUSH3 0x70F JUMP JUMPDEST CALLVALUE PUSH3 0x1B3 JUMPI PUSH3 0x292 PUSH3 0x74D PUSH3 0x747 CALLDATASIZE PUSH1 0x4 PUSH3 0x4A6 JUMP JUMPDEST PUSH3 0x6E2 JUMP JUMPDEST PUSH1 0x40 MLOAD SWAP2 DUP3 SWAP2 DUP3 PUSH3 0x71A JUMP JUMPDEST PUSH3 0x19D SWAP2 PUSH1 0x8 MUL SHR JUMPDEST PUSH1 0xFF AND SWAP1 JUMP JUMPDEST SWAP1 PUSH3 0x19D SWAP2 SLOAD PUSH3 0x75A JUMP JUMPDEST PUSH3 0x19D SWAP1 PUSH3 0x78C PUSH1 0x3 SWAP2 PUSH1 0x0 SWAP3 PUSH3 0x20F JUMP JUMPDEST PUSH3 0x76A JUMP JUMPDEST CALLVALUE PUSH3 0x1B3 JUMPI PUSH3 0x292 PUSH3 0x7B3 PUSH3 0x7AD CALLDATASIZE PUSH1 0x4 PUSH3 0x4DA JUMP JUMPDEST PUSH3 0x777 JUMP JUMPDEST PUSH1 0x40 MLOAD SWAP2 DUP3 SWAP2 DUP3 SWAP1 ISZERO ISZERO DUP2 MSTORE PUSH1 0x20 ADD SWAP1 JUMP JUMPDEST SWAP1 PUSH3 0x595 DUP2 PUSH1 0x20 SWAP4 PUSH3 0x70F JUMP JUMPDEST SWAP1 PUSH3 0x7F7 PUSH3 0x7F0 PUSH3 0x7E6 DUP5 MLOAD SWAP1 JUMP JUMPDEST DUP1 DUP5 MSTORE SWAP3 PUSH1 0x20 ADD SWAP1 JUMP JUMPDEST SWAP3 PUSH1 0x20 ADD SWAP1 JUMP JUMPDEST SWAP1 PUSH1 0x0 JUMPDEST DUP2 DUP2 LT PUSH3 0x809 JUMPI POP POP POP SWAP1 JUMP JUMPDEST SWAP1 SWAP2 SWAP3 PUSH3 0x826 PUSH3 0x81F PUSH1 0x1 SWAP3 DUP7 MLOAD PUSH3 0x7C5 JUMP JUMPDEST SWAP5 PUSH1 0x20 ADD SWAP1 JUMP JUMPDEST SWAP3 SWAP2 ADD PUSH3 0x7FB JUMP JUMPDEST PUSH1 0x20 DUP1 DUP3 MSTORE PUSH3 0x19D SWAP3 SWAP2 ADD SWAP1 PUSH3 0x7D4 JUMP JUMPDEST CALLVALUE PUSH3 0x1B3 JUMPI PUSH3 0x855 CALLDATASIZE PUSH1 0x4 PUSH3 0x50E JUMP JUMPDEST PUSH3 0x292 PUSH3 0x863 PUSH3 0x138A JUMP JUMPDEST PUSH1 0x40 MLOAD SWAP2 DUP3 SWAP2 DUP3 PUSH3 0x82F JUMP JUMPDEST SWAP1 SWAP2 PUSH1 0x60 DUP3 DUP5 SUB SLT PUSH3 0x1B3 JUMPI PUSH3 0x19D PUSH3 0x88D DUP5 DUP5 PUSH3 0x1B8 JUMP JUMPDEST SWAP4 PUSH3 0x89D DUP2 PUSH1 0x20 DUP7 ADD PUSH3 0x2A6 JUMP JUMPDEST SWAP4 PUSH1 0x40 ADD PUSH3 0x328 JUMP JUMPDEST CALLVALUE PUSH3 0x1B3 JUMPI PUSH3 0x3EE PUSH3 0x8BE CALLDATASIZE PUSH1 0x4 PUSH3 0x870 JUMP JUMPDEST SWAP2 PUSH3 0x1E50 JUMP JUMPDEST CALLVALUE PUSH3 0x1B3 JUMPI PUSH3 0x8D8 CALLDATASIZE PUSH1 0x4 PUSH3 0x50E JUMP JUMPDEST PUSH3 0x292 PUSH3 0x8EF PUSH1 0x0 SLOAD PUSH1 0x1 PUSH1 0x1 PUSH1 0xA0 SHL SUB AND SWAP1 JUMP JUMPDEST PUSH1 0x40 MLOAD SWAP2 DUP3 SWAP2 DUP3 PUSH1 0x1 PUSH1 0x1 PUSH1 0xA0 SHL SUB SWAP1 SWAP2 AND DUP2 MSTORE PUSH1 0x20 ADD SWAP1 JUMP JUMPDEST PUSH8 0xFFFFFFFFFFFFFFFF DUP2 GT PUSH3 0x2EE JUMPI PUSH1 0x20 SWAP1 PUSH1 0x1F ADD PUSH1 0x1F NOT AND ADD SWAP1 JUMP JUMPDEST SWAP1 DUP3 PUSH1 0x0 SWAP4 SWAP3 DUP3 CALLDATACOPY ADD MSTORE JUMP JUMPDEST SWAP1 SWAP3 SWAP2 SWAP3 PUSH3 0x946 PUSH3 0x34A DUP3 PUSH3 0x909 JUMP JUMPDEST SWAP4 DUP2 DUP6 MSTORE PUSH1 0x20 DUP6 ADD SWAP1 DUP3 DUP5 ADD GT PUSH3 0x1B3 JUMPI PUSH3 0x1C7 SWAP3 PUSH3 0x927 JUMP JUMPDEST SWAP1 DUP1 PUSH1 0x1F DUP4 ADD SLT ISZERO PUSH3 0x1B3 JUMPI DUP2 PUSH1 0x20 PUSH3 0x19D SWAP4 CALLDATALOAD SWAP2 ADD PUSH3 0x933 JUMP JUMPDEST SWAP2 SWAP1 PUSH2 0x160 DUP4 DUP3 SUB SLT PUSH3 0x1B3 JUMPI PUSH3 0x99B DUP2 DUP5 PUSH3 0x328 JUMP JUMPDEST SWAP3 PUSH3 0x9AB DUP3 PUSH1 0x20 DUP4 ADD PUSH3 0x328 JUMP JUMPDEST SWAP3 PUSH1 0x40 DUP3 ADD CALLDATALOAD PUSH8 0xFFFFFFFFFFFFFFFF DUP2 GT PUSH3 0x1B3 JUMPI DUP4 PUSH3 0x9CF SWAP2 DUP5 ADD PUSH3 0x963 JUMP JUMPDEST SWAP3 PUSH1 0x60 DUP4 ADD CALLDATALOAD PUSH8 0xFFFFFFFFFFFFFFFF DUP2 GT PUSH3 0x1B3 JUMPI DUP2 PUSH3 0x9F3 SWAP2 DUP6 ADD PUSH3 0x963 JUMP JUMPDEST SWAP3 PUSH1 0x80 DUP2 ADD CALLDATALOAD PUSH8 0xFFFFFFFFFFFFFFFF DUP2 GT PUSH3 0x1B3 JUMPI DUP3 PUSH3 0xA17 SWAP2 DUP4 ADD PUSH3 0x963 JUMP JUMPDEST SWAP3 PUSH1 0xA0 DUP3 ADD CALLDATALOAD PUSH8 0xFFFFFFFFFFFFFFFF DUP2 GT PUSH3 0x1B3 JUMPI DUP4 PUSH3 0xA3B SWAP2 DUP5 ADD PUSH3 0x963 JUMP JUMPDEST SWAP3 PUSH1 0xC0 DUP4 ADD CALLDATALOAD PUSH8 0xFFFFFFFFFFFFFFFF DUP2 GT PUSH3 0x1B3 JUMPI DUP2 PUSH3 0xA5F SWAP2 DUP6 ADD PUSH3 0x963 JUMP JUMPDEST SWAP3 PUSH1 0xE0 DUP2 ADD CALLDATALOAD PUSH8 0xFFFFFFFFFFFFFFFF DUP2 GT PUSH3 0x1B3 JUMPI DUP3 PUSH3 0xA83 SWAP2 DUP4 ADD PUSH3 0x963 JUMP JUMPDEST SWAP3 PUSH2 0x100 DUP3 ADD CALLDATALOAD PUSH8 0xFFFFFFFFFFFFFFFF DUP2 GT PUSH3 0x1B3 JUMPI PUSH3 0xAAC DUP5 PUSH3 0x19D SWAP3 DUP6 ADD PUSH3 0x963 JUMP JUMPDEST SWAP4 PUSH3 0xABD DUP2 PUSH2 0x120 DUP7 ADD PUSH3 0x1B8 JUMP JUMPDEST SWAP4 PUSH2 0x140 ADD PUSH3 0x1B8 JUMP JUMPDEST CALLVALUE PUSH3 0x1B3 JUMPI PUSH3 0x3EE PUSH3 0xADF CALLDATASIZE PUSH1 0x4 PUSH3 0x981 JUMP JUMPDEST SWAP10 SWAP9 SWAP1 SWAP9 SWAP8 SWAP2 SWAP8 SWAP7 SWAP3 SWAP7 SWAP6 SWAP4 SWAP6 PUSH3 0x10F8 JUMP JUMPDEST CALLVALUE PUSH3 0x1B3 JUMPI PUSH3 0x292 PUSH3 0x282 PUSH3 0xB0D CALLDATASIZE PUSH1 0x4 PUSH3 0x1C9 JUMP JUMPDEST PUSH3 0x1526 JUMP JUMPDEST CALLVALUE PUSH3 0x1B3 JUMPI PUSH3 0x3EE PUSH3 0xB2A CALLDATASIZE PUSH1 0x4 PUSH3 0x4DA JUMP JUMPDEST PUSH3 0x126F JUMP JUMPDEST CALLVALUE PUSH3 0x1B3 JUMPI PUSH3 0x3EE PUSH3 0xB47 CALLDATASIZE PUSH1 0x4 PUSH3 0x4DA JUMP JUMPDEST PUSH3 0x1241 JUMP JUMPDEST PUSH3 0x19D SWAP1 PUSH3 0x257 PUSH1 0x2 SWAP2 PUSH1 0x0 SWAP3 PUSH3 0x20F JUMP JUMPDEST CALLVALUE PUSH3 0x1B3 JUMPI PUSH3 0x292 PUSH3 0x282 PUSH3 0xB7D CALLDATASIZE PUSH1 0x4 PUSH3 0x1C9 JUMP JUMPDEST PUSH3 0xB4D JUMP JUMPDEST CALLVALUE PUSH3 0x1B3 JUMPI PUSH3 0x292 PUSH3 0x282 PUSH3 0xB9E CALLDATASIZE PUSH1 0x4 PUSH3 0x1C9 JUMP JUMPDEST PUSH3 0x1505 JUMP JUMPDEST SWAP1 SWAP2 PUSH1 0x60 DUP3 DUP5 SUB SLT PUSH3 0x1B3 JUMPI PUSH3 0x19D PUSH3 0xBC1 DUP5 DUP5 PUSH3 0x328 JUMP JUMPDEST SWAP4 PUSH3 0xBD1 DUP2 PUSH1 0x20 DUP7 ADD PUSH3 0x1B8 JUMP JUMPDEST SWAP4 PUSH1 0x40 ADD PUSH3 0x2A6 JUMP JUMPDEST CALLVALUE PUSH3 0x1B3 JUMPI PUSH3 0x3EE PUSH3 0xBF2 CALLDATASIZE PUSH1 0x4 PUSH3 0xBA4 JUMP JUMPDEST SWAP2 PUSH3 0x1CDF JUMP JUMPDEST CALLVALUE PUSH3 0x1B3 JUMPI PUSH3 0x3EE PUSH3 0xC10 CALLDATASIZE PUSH1 0x4 PUSH3 0x4A6 JUMP JUMPDEST PUSH3 0x1A58 JUMP JUMPDEST CALLVALUE PUSH3 0x1B3 JUMPI PUSH3 0x3EE PUSH3 0xC2D CALLDATASIZE PUSH1 0x4 PUSH3 0x1C9 JUMP JUMPDEST PUSH3 0xDC5 JUMP JUMPDEST PUSH3 0xC3D PUSH3 0xCD8 JUMP JUMPDEST PUSH3 0x1C7 PUSH3 0xC62 JUMP JUMPDEST PUSH3 0x191 PUSH3 0x19D PUSH3 0x19D SWAP3 SWAP1 JUMP JUMPDEST PUSH3 0x19D SWAP1 PUSH3 0xC47 JUMP JUMPDEST PUSH3 0x1C7 PUSH3 0xC72 PUSH1 0x0 PUSH3 0xC57 JUMP JUMPDEST PUSH3 0xE05 JUMP JUMPDEST PUSH3 0x1C7 PUSH3 0xC33 JUMP JUMPDEST ISZERO PUSH3 0xC8A JUMPI JUMP JUMPDEST PUSH1 0x40 MLOAD PUSH3 0x461BCD PUSH1 0xE5 SHL DUP2 MSTORE DUP1 PUSH3 0xCD4 PUSH1 0x4 DUP3 ADD PUSH1 0x20 DUP1 DUP3 MSTORE DUP2 DUP2 ADD MSTORE PUSH32 0x4F776E61626C653A2063616C6C6572206973206E6F7420746865206F776E6572 PUSH1 0x40 DUP3 ADD MSTORE PUSH1 0x60 ADD SWAP1 JUMP JUMPDEST SUB SWAP1 REVERT JUMPDEST PUSH3 0x1C7 PUSH3 0xCEF PUSH1 0x0 SLOAD PUSH1 0x1 PUSH1 0x1 PUSH1 0xA0 SHL SUB AND SWAP1 JUMP JUMPDEST PUSH3 0xD0B PUSH3 0xCFE CALLER PUSH3 0x191 JUMP JUMPDEST SWAP2 PUSH1 0x1 PUSH1 0x1 PUSH1 0xA0 SHL SUB AND SWAP1 JUMP JUMPDEST EQ PUSH3 0xC82 JUMP JUMPDEST PUSH3 0x1C7 SWAP1 PUSH3 0xD21 PUSH3 0xCD8 JUMP JUMPDEST PUSH3 0xD9A JUMP JUMPDEST ISZERO PUSH3 0xD2F JUMPI JUMP JUMPDEST PUSH1 0x40 MLOAD PUSH3 0x461BCD PUSH1 0xE5 SHL DUP2 MSTORE PUSH1 0x20 PUSH1 0x4 DUP3 ADD MSTORE PUSH1 0x26 PUSH1 0x24 DUP3 ADD MSTORE PUSH32 0x4F776E61626C653A206E6577206F776E657220697320746865207A65726F2061 PUSH1 0x44 DUP3 ADD MSTORE PUSH32 0x6464726573730000000000000000000000000000000000000000000000000000 PUSH1 0x64 DUP3 ADD MSTORE PUSH1 0x84 SWAP1 REVERT JUMPDEST PUSH3 0x1C7 SWAP1 PUSH3 0xC72 PUSH3 0xDB3 PUSH3 0x191 PUSH1 0x0 PUSH3 0xC57 JUMP JUMPDEST PUSH1 0x1 PUSH1 0x1 PUSH1 0xA0 SHL SUB DUP4 AND EQ ISZERO PUSH3 0xD27 JUMP JUMPDEST PUSH3 0x1C7 SWAP1 PUSH3 0xD12 JUMP JUMPDEST SWAP1 PUSH1 0x1 PUSH1 0x1 PUSH1 0xA0 SHL SUB SWAP1 JUMPDEST SWAP2 DUP2 NOT AND SWAP2 AND OR SWAP1 JUMP JUMPDEST SWAP1 PUSH3 0xDF9 PUSH3 0x19D PUSH3 0xE01 SWAP3 PUSH3 0x204 JUMP JUMPDEST DUP3 SLOAD PUSH3 0xDD0 JUMP JUMPDEST SWAP1 SSTORE JUMP JUMPDEST PUSH1 0x0 SLOAD PUSH1 0x1 PUSH1 0x1 PUSH1 0xA0 SHL SUB AND SWAP1 PUSH3 0xE1F DUP2 PUSH1 0x0 PUSH3 0xDE5 JUMP JUMPDEST PUSH3 0xE56 PUSH3 0xE4F PUSH32 0x8BE0079C531659141344CD1FD0A4F28419497F9722A3DAAFE3B4186F6B6457E0 SWAP4 PUSH3 0x204 JUMP JUMPDEST SWAP2 PUSH3 0x204 JUMP JUMPDEST SWAP2 PUSH3 0xE61 PUSH1 0x40 MLOAD SWAP1 JUMP JUMPDEST PUSH1 0x0 SWAP1 LOG3 JUMP JUMPDEST SWAP13 SWAP12 SWAP11 SWAP10 SWAP9 SWAP8 SWAP7 SWAP5 SWAP3 SWAP1 SWAP6 SWAP4 SWAP2 DUP14 PUSH2 0x1C0 DUP2 ADD SWAP8 PUSH1 0x0 DUP3 ADD PUSH3 0xE91 SWAP2 PUSH1 0x1 PUSH1 0x1 PUSH1 0xA0 SHL SUB AND SWAP1 MSTORE JUMP JUMPDEST PUSH1 0x20 ADD PUSH3 0xEA6 SWAP2 PUSH1 0x1 PUSH1 0x1 PUSH1 0xA0 SHL SUB AND SWAP1 MSTORE JUMP JUMPDEST PUSH1 0x1 PUSH1 0x1 PUSH1 0xA0 SHL SUB AND PUSH1 0x40 DUP14 ADD MSTORE PUSH1 0x1 PUSH1 0x1 PUSH1 0xA0 SHL SUB AND PUSH1 0x60 DUP13 ADD MSTORE PUSH1 0x1 PUSH1 0x1 PUSH1 0xA0 SHL SUB AND PUSH1 0x80 DUP12 ADD MSTORE PUSH1 0xA0 DUP11 ADD MSTORE PUSH1 0xC0 DUP10 ADD MSTORE DUP8 DUP2 SUB PUSH1 0xE0 DUP10 ADD MSTORE PUSH3 0xEED SWAP2 PUSH3 0x55C JUMP JUMPDEST DUP7 DUP2 SUB PUSH2 0x100 DUP9 ADD MSTORE PUSH3 0xF01 SWAP2 PUSH3 0x55C JUMP JUMPDEST DUP6 DUP2 SUB PUSH2 0x120 DUP8 ADD MSTORE PUSH3 0xF15 SWAP2 PUSH3 0x55C JUMP JUMPDEST DUP5 DUP2 SUB PUSH2 0x140 DUP7 ADD MSTORE PUSH3 0xF29 SWAP2 PUSH3 0x55C JUMP JUMPDEST DUP4 DUP2 SUB PUSH2 0x160 DUP6 ADD MSTORE PUSH3 0xF3D SWAP2 PUSH3 0x55C JUMP JUMPDEST DUP3 DUP2 SUB PUSH2 0x180 DUP5 ADD MSTORE PUSH3 0xF51 SWAP2 PUSH3 0x55C JUMP JUMPDEST SWAP1 DUP1 DUP3 SUB SWAP1 PUSH2 0x1A0 ADD MSTORE PUSH3 0x19D SWAP2 PUSH3 0x55C JUMP JUMPDEST PUSH1 0x40 MLOAD RETURNDATASIZE PUSH1 0x0 DUP3 RETURNDATACOPY RETURNDATASIZE SWAP1 REVERT JUMPDEST SWAP2 SWAP1 PUSH1 0x8 PUSH3 0xDDB SWAP2 MUL SWAP2 PUSH3 0xF8E PUSH1 0x1 PUSH1 0x1 PUSH1 0xA0 SHL SUB DUP5 SHL SWAP1 JUMP JUMPDEST SWAP3 SHL SWAP1 JUMP JUMPDEST SWAP2 SWAP1 PUSH3 0xFA8 PUSH3 0x19D PUSH3 0xE01 SWAP4 PUSH3 0x204 JUMP JUMPDEST SWAP1 DUP4 SLOAD PUSH3 0xF72 JUMP JUMPDEST SWAP1 DUP2 SLOAD SWAP2 PUSH9 0x10000000000000000 DUP4 LT ISZERO PUSH3 0x2EE JUMPI DUP3 PUSH3 0xFDD SWAP2 PUSH1 0x1 PUSH3 0x1C7 SWAP6 ADD DUP2 SSTORE PUSH3 0x6AA JUMP JUMPDEST SWAP1 PUSH3 0xF93 JUMP JUMPDEST PUSH3 0x19D PUSH3 0x19D PUSH3 0x19D SWAP3 SWAP1 JUMP JUMPDEST PUSH3 0x25D SWAP1 PUSH3 0xFE4 JUMP JUMPDEST SWAP12 SWAP9 SWAP5 PUSH3 0x10D8 SWAP9 SWAP2 PUSH3 0x19D SWAP15 SWAP13 SWAP9 DUP15 PUSH3 0x108F PUSH3 0x10C8 SWAP11 PUSH3 0x10E8 SWAP16 SWAP10 PUSH3 0x109D SWAP7 PUSH3 0x1079 PUSH3 0x1084 SWAP3 PUSH3 0x1072 PUSH3 0x10B9 SWAP14 PUSH3 0x106B PUSH3 0x10AC SWAP15 PUSH3 0x105B PUSH2 0x1A0 DUP13 ADD SWAP14 PUSH1 0x0 DUP14 ADD SWAP1 PUSH1 0x1 PUSH1 0x1 PUSH1 0xA0 SHL SUB AND SWAP1 MSTORE JUMP JUMPDEST PUSH1 0x1 PUSH1 0x1 PUSH1 0xA0 SHL SUB AND PUSH1 0x20 DUP12 ADD MSTORE JUMP JUMPDEST PUSH1 0x40 DUP10 ADD MSTORE JUMP JUMPDEST PUSH1 0x60 DUP8 ADD MSTORE JUMP JUMPDEST PUSH1 0x80 DUP6 ADD SWAP1 PUSH3 0xFF4 JUMP JUMPDEST PUSH1 0xA0 DUP4 ADD SWAP1 PUSH3 0xFF4 JUMP JUMPDEST PUSH1 0xC0 DUP2 DUP5 SUB SWAP2 ADD MSTORE PUSH3 0x55C JUMP JUMPDEST DUP13 DUP2 SUB PUSH1 0xE0 DUP15 ADD MSTORE SWAP1 PUSH3 0x55C JUMP JUMPDEST SWAP3 PUSH2 0x100 DUP12 ADD SWAP1 PUSH3 0xFF4 JUMP JUMPDEST DUP9 DUP3 SUB PUSH2 0x120 DUP11 ADD MSTORE PUSH3 0x55C JUMP JUMPDEST SWAP1 DUP7 DUP3 SUB PUSH2 0x140 DUP9 ADD MSTORE PUSH3 0x55C JUMP JUMPDEST SWAP1 DUP5 DUP3 SUB PUSH2 0x160 DUP7 ADD MSTORE PUSH3 0x55C JUMP JUMPDEST SWAP2 PUSH2 0x180 DUP2 DUP5 SUB SWAP2 ADD MSTORE PUSH3 0x55C JUMP JUMPDEST SWAP10 SWAP9 SWAP8 SWAP6 SWAP1 SWAP2 SWAP8 SWAP7 SWAP5 SWAP4 SWAP3 SWAP7 PUSH3 0x1117 PUSH1 0x0 SLOAD PUSH1 0x1 PUSH1 0x1 PUSH1 0xA0 SHL SUB AND SWAP1 JUMP JUMPDEST SWAP1 CALLER SWAP11 PUSH3 0x1125 ADDRESS PUSH3 0x204 JUMP JUMPDEST SWAP2 PUSH3 0x1130 PUSH1 0x40 MLOAD SWAP1 JUMP JUMPDEST SWAP5 PUSH2 0x2DAF DUP7 ADD SWAP4 DUP7 DUP6 LT PUSH8 0xFFFFFFFFFFFFFFFF DUP7 GT OR PUSH3 0x2EE JUMPI DUP16 DUP16 DUP16 DUP16 SWAP2 DUP16 SWAP8 SWAP4 DUP16 SWAP8 SWAP5 DUP16 SWAP7 SWAP6 DUP16 SWAP7 DUP16 SWAP5 DUP16 SWAP15 DUP16 SWAP15 PUSH3 0x1176 SWAP16 PUSH2 0x2DAF SWAP1 PUSH3 0x21BA SWAP1 CODECOPY PUSH3 0xE67 JUMP JUMPDEST SUB SWAP1 PUSH1 0x0 CREATE SWAP6 DUP7 ISZERO PUSH3 0x11E7 JUMPI PUSH3 0x11A6 DUP8 PUSH3 0x11A0 PUSH3 0x11E2 SWAP10 PUSH3 0x119A PUSH1 0x6 SWAP1 JUMP JUMPDEST PUSH3 0xFB1 JUMP JUMPDEST PUSH3 0x204 JUMP JUMPDEST SWAP8 PUSH1 0x0 DUP1 DUP1 SWAP5 PUSH32 0x135F4D92213CF889E4F1EF4D560F39FDBD0B0FB274D3E0104201939D6BC2BE0 SWAP14 PUSH3 0x11D8 PUSH1 0x40 MLOAD SWAP1 JUMP JUMPDEST SWAP14 DUP15 SWAP14 DUP15 PUSH3 0xFFF JUMP JUMPDEST SUB SWAP1 LOG1 JUMP JUMPDEST PUSH3 0xF66 JUMP JUMPDEST PUSH3 0x1C7 SWAP1 PUSH3 0x11FC PUSH3 0xCD8 JUMP JUMPDEST PUSH3 0x1227 JUMP JUMPDEST SWAP1 PUSH1 0xFF SWAP1 PUSH3 0xDDB JUMP JUMPDEST SWAP1 PUSH3 0x121F PUSH3 0x19D PUSH3 0xE01 SWAP3 ISZERO ISZERO SWAP1 JUMP JUMPDEST DUP3 SLOAD PUSH3 0x1202 JUMP JUMPDEST PUSH3 0x1C7 SWAP1 PUSH3 0x123B PUSH1 0x1 SWAP2 PUSH1 0x3 PUSH3 0x20F JUMP JUMPDEST PUSH3 0x120C JUMP JUMPDEST PUSH3 0x1C7 SWAP1 PUSH3 0x11ED JUMP JUMPDEST PUSH3 0x1C7 SWAP1 PUSH3 0x125B PUSH3 0xCD8 JUMP JUMPDEST PUSH3 0x1C7 SWAP1 PUSH3 0x123B PUSH1 0x0 SWAP2 PUSH1 0x3 PUSH3 0x20F JUMP JUMPDEST PUSH3 0x1C7 SWAP1 PUSH3 0x124C JUMP JUMPDEST PUSH3 0x1C7 SWAP1 PUSH3 0x1289 PUSH3 0xCD8 JUMP JUMPDEST PUSH3 0x1C7 SWAP1 PUSH1 0x4 PUSH3 0xFB1 JUMP JUMPDEST PUSH3 0x1C7 SWAP1 PUSH3 0x127A JUMP JUMPDEST PUSH3 0x1C7 SWAP1 PUSH3 0x12B0 PUSH3 0xCD8 JUMP JUMPDEST PUSH3 0x12C4 JUMP JUMPDEST PUSH3 0x1C7 SWAP2 PUSH1 0x0 SWAP2 PUSH3 0xF93 JUMP JUMPDEST PUSH3 0x12D5 PUSH3 0x1C7 SWAP2 PUSH1 0x4 PUSH3 0x6AA JUMP JUMPDEST SWAP1 PUSH3 0x12B6 JUMP JUMPDEST PUSH3 0x1C7 SWAP1 PUSH3 0x12A1 JUMP JUMPDEST SWAP1 PUSH3 0x1305 PUSH3 0x12F9 PUSH3 0x7E6 DUP5 SLOAD SWAP1 JUMP JUMPDEST SWAP3 PUSH1 0x0 MSTORE PUSH1 0x20 PUSH1 0x0 KECCAK256 SWAP1 JUMP JUMPDEST SWAP1 PUSH1 0x0 JUMPDEST DUP2 DUP2 LT PUSH3 0x1317 JUMPI POP POP POP SWAP1 JUMP JUMPDEST SWAP1 SWAP2 SWAP3 PUSH3 0x1344 PUSH3 0x133D PUSH1 0x1 SWAP3 PUSH3 0x1337 DUP8 SLOAD PUSH1 0x1 PUSH1 0x1 PUSH1 0xA0 SHL SUB AND SWAP1 JUMP JUMPDEST PUSH3 0x7C5 JUMP JUMPDEST SWAP5 PUSH1 0x1 ADD SWAP1 JUMP JUMPDEST SWAP3 SWAP2 ADD PUSH3 0x1309 JUMP JUMPDEST SWAP1 PUSH3 0x19D SWAP2 PUSH3 0x12E7 JUMP JUMPDEST SWAP1 PUSH3 0x1C7 PUSH3 0x1377 SWAP3 PUSH3 0x136D PUSH1 0x40 MLOAD SWAP1 JUMP JUMPDEST SWAP4 DUP5 DUP1 SWAP3 PUSH3 0x134D JUMP JUMPDEST SUB DUP4 PUSH3 0x2CB JUMP JUMPDEST PUSH3 0x19D SWAP1 PUSH3 0x1359 JUMP JUMPDEST PUSH3 0x19D PUSH1 0x6 PUSH3 0x137F JUMP JUMPDEST SWAP1 PUSH3 0x1C7 SWAP2 PUSH3 0x13A6 PUSH3 0xCD8 JUMP JUMPDEST PUSH3 0x14CD JUMP JUMPDEST PUSH4 0x4E487B71 PUSH1 0xE0 SHL PUSH1 0x0 MSTORE PUSH1 0x11 PUSH1 0x4 MSTORE PUSH1 0x24 PUSH1 0x0 REVERT JUMPDEST SWAP2 SWAP1 PUSH1 0x8 PUSH3 0xDDB SWAP2 MUL SWAP2 PUSH3 0xF8E PUSH1 0x0 NOT DUP5 SHL SWAP1 JUMP JUMPDEST SWAP2 SWAP1 PUSH3 0x13EE PUSH3 0x19D PUSH3 0xE01 SWAP4 PUSH3 0xFE4 JUMP JUMPDEST SWAP1 DUP4 SLOAD PUSH3 0x13C2 JUMP JUMPDEST PUSH3 0x1C7 SWAP2 PUSH1 0x0 SWAP2 PUSH3 0x13D9 JUMP JUMPDEST DUP2 DUP2 LT PUSH3 0x1411 JUMPI POP POP JUMP JUMPDEST DUP1 PUSH3 0x1421 PUSH1 0x0 PUSH1 0x1 SWAP4 PUSH3 0x13F7 JUMP JUMPDEST ADD PUSH3 0x1405 JUMP JUMPDEST SWAP1 SWAP2 DUP3 DUP2 LT PUSH3 0x1437 JUMPI POP POP POP JUMP JUMPDEST PUSH3 0x1C7 SWAP3 SWAP1 SWAP2 PUSH3 0x1448 JUMP JUMPDEST SWAP3 SWAP1 JUMP JUMPDEST SWAP1 DUP2 ADD SWAP2 ADD PUSH3 0x1405 JUMP JUMPDEST SWAP1 PUSH9 0x10000000000000000 DUP2 GT PUSH3 0x2EE JUMPI PUSH3 0x1C7 SWAP2 PUSH1 0x4 SWAP1 PUSH3 0x1428 JUMP JUMPDEST PUSH1 0x4 SWAP2 PUSH3 0x148D PUSH3 0x1444 PUSH1 0x1 SWAP3 PUSH3 0x19D DUP7 DUP7 PUSH3 0x1453 JUMP JUMPDEST SWAP3 DIV SWAP2 PUSH1 0x0 JUMPDEST DUP4 DUP2 LT PUSH3 0x14A1 JUMPI POP POP POP POP JUMP JUMPDEST PUSH1 0x1 SWAP1 PUSH1 0x20 PUSH3 0x14B3 PUSH3 0x19D DUP7 MLOAD SWAP1 JUMP JUMPDEST SWAP5 ADD SWAP4 DUP2 DUP5 ADD SSTORE ADD PUSH3 0x1493 JUMP JUMPDEST SWAP1 PUSH3 0x1C7 SWAP2 PUSH3 0x1473 JUMP JUMPDEST SWAP1 PUSH3 0x14DF PUSH3 0x1C7 SWAP3 PUSH1 0x5 PUSH3 0x20F JUMP JUMPDEST PUSH3 0x14C1 JUMP JUMPDEST SWAP1 PUSH3 0x1C7 SWAP2 PUSH3 0x1396 JUMP JUMPDEST PUSH3 0x19D SWAP1 DUP2 JUMP JUMPDEST PUSH3 0x19D SWAP1 SLOAD PUSH3 0x14F1 JUMP JUMPDEST PUSH3 0x1520 PUSH3 0x19D SWAP2 PUSH3 0x1517 PUSH1 0x0 SWAP1 JUMP JUMPDEST POP PUSH1 0x1 PUSH3 0x20F JUMP JUMPDEST PUSH3 0x14F9 JUMP JUMPDEST PUSH3 0x1520 PUSH3 0x19D SWAP2 PUSH3 0x1538 PUSH1 0x0 SWAP1 JUMP JUMPDEST POP PUSH1 0x2 PUSH3 0x20F JUMP JUMPDEST PUSH8 0xFFFFFFFFFFFFFFFF DUP2 GT PUSH3 0x2EE JUMPI PUSH1 0x20 DUP1 SWAP2 MUL ADD SWAP1 JUMP JUMPDEST SWAP1 PUSH3 0x156A PUSH3 0x34A DUP4 PUSH3 0x1541 JUMP JUMPDEST SWAP2 DUP3 MSTORE JUMP JUMPDEST PUSH3 0x19D PUSH1 0x80 PUSH3 0x2F4 JUMP JUMPDEST PUSH3 0x1585 PUSH3 0x156F JUMP JUMPDEST PUSH1 0x0 DUP1 DUP3 MSTORE PUSH1 0x60 PUSH1 0x20 DUP4 ADD DUP2 SWAP1 MSTORE PUSH1 0x40 DUP4 ADD DUP2 SWAP1 MSTORE DUP3 ADD MSTORE SWAP1 JUMP JUMPDEST PUSH3 0x19D PUSH3 0x157B JUMP JUMPDEST PUSH1 0x0 JUMPDEST DUP3 DUP2 LT PUSH3 0x15BA JUMPI POP POP POP JUMP JUMPDEST PUSH1 0x20 SWAP1 PUSH3 0x15C7 PUSH3 0x15A0 JUMP JUMPDEST DUP2 DUP5 ADD MSTORE ADD PUSH3 0x15AD JUMP JUMPDEST SWAP1 PUSH3 0x1C7 PUSH3 0x15ED PUSH3 0x15E6 DUP5 PUSH3 0x155A JUMP JUMPDEST SWAP4 PUSH3 0x1541 JUMP JUMPDEST PUSH1 0x1F NOT ADD PUSH1 0x20 DUP5 ADD PUSH3 0x15AA JUMP JUMPDEST PUSH1 0x0 NOT DUP2 EQ PUSH3 0x160B JUMPI PUSH1 0x1 ADD SWAP1 JUMP JUMPDEST PUSH3 0x13AC JUMP JUMPDEST SWAP1 POP MLOAD SWAP1 PUSH3 0x1C7 DUP3 PUSH3 0x321 JUMP JUMPDEST SWAP1 PUSH1 0x20 DUP3 DUP3 SUB SLT PUSH3 0x1B3 JUMPI PUSH3 0x19D SWAP2 PUSH3 0x1611 JUMP JUMPDEST SWAP1 SWAP3 SWAP2 SWAP3 PUSH3 0x164A PUSH3 0x34A DUP3 PUSH3 0x909 JUMP JUMPDEST SWAP4 DUP2 DUP6 MSTORE PUSH1 0x20 DUP6 ADD SWAP1 DUP3 DUP5 ADD GT PUSH3 0x1B3 JUMPI PUSH3 0x1C7 SWAP3 PUSH3 0x537 JUMP JUMPDEST SWAP1 DUP1 PUSH1 0x1F DUP4 ADD SLT ISZERO PUSH3 0x1B3 JUMPI DUP2 MLOAD PUSH3 0x19D SWAP3 PUSH1 0x20 ADD PUSH3 0x1637 JUMP JUMPDEST SWAP1 PUSH1 0x20 DUP3 DUP3 SUB SLT PUSH3 0x1B3 JUMPI DUP2 MLOAD PUSH8 0xFFFFFFFFFFFFFFFF DUP2 GT PUSH3 0x1B3 JUMPI PUSH3 0x19D SWAP3 ADD PUSH3 0x1667 JUMP JUMPDEST SWAP1 PUSH3 0x16B8 DUP3 MLOAD SWAP1 JUMP JUMPDEST DUP2 LT ISZERO PUSH3 0x448 JUMPI PUSH1 0x20 DUP1 SWAP2 MUL ADD ADD SWAP1 JUMP JUMPDEST PUSH1 0x6 PUSH3 0x16DF PUSH3 0x16D9 DUP3 SLOAD SWAP1 JUMP JUMPDEST PUSH3 0x15D2 JUMP JUMPDEST SWAP1 PUSH1 0x0 PUSH3 0x16ED DUP2 PUSH3 0xFE4 JUMP JUMPDEST SWAP1 DUP2 JUMPDEST PUSH3 0x16FD PUSH3 0x19D DUP6 SLOAD SWAP1 JUMP JUMPDEST DUP2 LT ISZERO PUSH3 0x1936 JUMPI PUSH3 0x1759 PUSH1 0x20 PUSH3 0x171F PUSH3 0x11A0 PUSH3 0x708 DUP6 DUP10 PUSH3 0x6AA JUMP JUMPDEST PUSH4 0xA771370 SWAP1 PUSH3 0x1742 CALLER SWAP3 PUSH3 0x1735 PUSH1 0x40 MLOAD SWAP1 JUMP JUMPDEST SWAP6 DUP7 SWAP5 DUP6 SWAP4 DUP5 SWAP4 PUSH1 0xE0 SHL SWAP1 JUMP JUMPDEST DUP4 MSTORE PUSH1 0x1 PUSH1 0x1 PUSH1 0xA0 SHL SUB AND PUSH1 0x4 DUP4 ADD MSTORE PUSH1 0x24 DUP3 ADD SWAP1 JUMP JUMPDEST SUB SWAP2 GAS STATICCALL SWAP1 DUP2 ISZERO PUSH3 0x11E7 JUMPI DUP4 SWAP2 PUSH3 0x1901 JUMPI JUMPDEST POP PUSH3 0x1779 DUP4 PUSH3 0xFE4 JUMP JUMPDEST DUP2 GT PUSH3 0x1793 JUMPI JUMPDEST POP PUSH3 0x178D SWAP1 PUSH3 0x15FB JUMP JUMPDEST PUSH3 0x16F0 JUMP JUMPDEST DUP2 SWAP4 PUSH3 0x17AD PUSH3 0x11A0 PUSH3 0x708 PUSH3 0x17DB SWAP6 DUP10 PUSH3 0x6AA JUMP JUMPDEST DUP5 PUSH3 0x17C2 PUSH3 0x11A0 PUSH3 0x708 DUP10 DUP12 PUSH3 0x6AA JUMP JUMPDEST PUSH4 0xC3E20C9F SWAP1 PUSH3 0x17D2 PUSH1 0x40 MLOAD SWAP1 JUMP JUMPDEST SWAP7 DUP8 SWAP3 PUSH1 0xE0 SHL SWAP1 JUMP JUMPDEST DUP3 MSTORE PUSH1 0x4 SWAP1 DUP3 SWAP1 GAS STATICCALL DUP1 ISZERO PUSH3 0x11E7 JUMPI PUSH3 0x1827 SWAP5 DUP7 SWAP2 PUSH3 0x18E3 JUMPI JUMPDEST POP DUP6 PUSH3 0x180E PUSH3 0x11A0 PUSH3 0x708 DUP11 DUP13 PUSH3 0x6AA JUMP JUMPDEST PUSH4 0x3C29D58 SWAP1 PUSH3 0x181E PUSH1 0x40 MLOAD SWAP1 JUMP JUMPDEST SWAP8 DUP9 SWAP3 PUSH1 0xE0 SHL SWAP1 JUMP JUMPDEST DUP3 MSTORE PUSH1 0x4 SWAP1 DUP3 SWAP1 GAS STATICCALL SWAP4 DUP5 ISZERO PUSH3 0x11E7 JUMPI PUSH3 0x1886 PUSH3 0x18AD SWAP6 PUSH3 0x188D SWAP4 PUSH3 0x178D SWAP9 DUP11 SWAP3 PUSH3 0x18B5 JUMPI JUMPDEST POP PUSH3 0x187F SWAP1 PUSH3 0x1878 PUSH3 0x1867 PUSH3 0x156F JUMP JUMPDEST PUSH1 0x1 PUSH1 0x1 PUSH1 0xA0 SHL SUB SWAP1 SWAP9 AND DUP13 DUP10 ADD MSTORE JUMP JUMPDEST PUSH1 0x20 DUP8 ADD MSTORE JUMP JUMPDEST PUSH1 0x40 DUP6 ADD MSTORE JUMP JUMPDEST PUSH1 0x60 DUP4 ADD MSTORE JUMP JUMPDEST PUSH3 0x1899 DUP3 DUP10 PUSH3 0x16AE JUMP JUMPDEST MSTORE PUSH3 0x18A6 DUP2 DUP9 PUSH3 0x16AE JUMP JUMPDEST POP PUSH3 0x15FB JUMP JUMPDEST SWAP3 SWAP1 PUSH3 0x1781 JUMP JUMPDEST PUSH3 0x187F SWAP2 SWAP3 POP PUSH3 0x18DB SWAP1 RETURNDATASIZE DUP1 DUP14 DUP4 RETURNDATACOPY PUSH3 0x18D2 DUP2 DUP4 PUSH3 0x2CB JUMP JUMPDEST DUP2 ADD SWAP1 PUSH3 0x1684 JUMP JUMPDEST SWAP2 SWAP1 PUSH3 0x1853 JUMP JUMPDEST PUSH3 0x18FA SWAP2 POP RETURNDATASIZE DUP1 DUP9 DUP4 RETURNDATACOPY PUSH3 0x18D2 DUP2 DUP4 PUSH3 0x2CB JUMP JUMPDEST CODESIZE PUSH3 0x17F8 JUMP JUMPDEST PUSH3 0x1927 SWAP2 POP PUSH1 0x20 RETURNDATASIZE DUP2 GT PUSH3 0x192E JUMPI JUMPDEST PUSH3 0x191E DUP2 DUP4 PUSH3 0x2CB JUMP JUMPDEST DUP2 ADD SWAP1 PUSH3 0x1620 JUMP JUMPDEST CODESIZE PUSH3 0x176D JUMP JUMPDEST POP RETURNDATASIZE PUSH3 0x1912 JUMP JUMPDEST POP POP POP POP SWAP1 JUMP JUMPDEST ISZERO PUSH3 0x1945 JUMPI JUMP JUMPDEST PUSH1 0x40 MLOAD PUSH3 0x461BCD PUSH1 0xE5 SHL DUP2 MSTORE PUSH1 0x20 PUSH1 0x4 DUP3 ADD MSTORE PUSH1 0x2F PUSH1 0x24 DUP3 ADD MSTORE PUSH32 0x496E73756666696369656E742062616C616E636520696E20706F6F6C20746F20 PUSH1 0x44 DUP3 ADD MSTORE PUSH32 0x706179206F757420726577617264730000000000000000000000000000000000 PUSH1 0x64 DUP3 ADD MSTORE PUSH1 0x84 SWAP1 REVERT JUMPDEST ISZERO PUSH3 0x19B8 JUMPI JUMP JUMPDEST PUSH1 0x40 MLOAD PUSH3 0x461BCD PUSH1 0xE5 SHL DUP2 MSTORE PUSH1 0x20 PUSH1 0x4 DUP3 ADD MSTORE PUSH1 0x2A PUSH1 0x24 DUP3 ADD MSTORE PUSH32 0x496E73756666696369656E742062616C616E636520746F207769746864726177 PUSH1 0x44 DUP3 ADD MSTORE PUSH32 0x2066726F6D20706F6F6C00000000000000000000000000000000000000000000 PUSH1 0x64 DUP3 ADD MSTORE PUSH1 0x84 SWAP1 REVERT JUMPDEST SWAP2 SWAP1 DUP3 SUB SWAP2 DUP3 GT PUSH3 0x160B JUMPI JUMP JUMPDEST SWAP1 PUSH1 0x0 NOT SWAP1 PUSH3 0xDDB JUMP JUMPDEST SWAP1 PUSH3 0x1A50 PUSH3 0x19D PUSH3 0xE01 SWAP3 PUSH3 0xFE4 JUMP JUMPDEST DUP3 SLOAD PUSH3 0x1A31 JUMP JUMPDEST PUSH3 0x1A7C PUSH3 0x1A67 ADDRESS PUSH3 0x204 JUMP JUMPDEST DUP3 SWAP1 BALANCE PUSH3 0x1A74 JUMP JUMPDEST SWAP2 SWAP1 JUMP JUMPDEST LT ISZERO PUSH3 0x193D JUMP JUMPDEST PUSH1 0x1 SWAP1 CALLER PUSH3 0x1A9D PUSH3 0x1A94 PUSH3 0x1520 DUP4 DUP7 PUSH3 0x20F JUMP JUMPDEST DUP4 GT ISZERO PUSH3 0x19B0 JUMP JUMPDEST PUSH1 0x0 DUP1 DUP1 DUP1 DUP6 PUSH3 0x1AB2 PUSH3 0x11A0 DUP8 PUSH3 0x204 JUMP JUMPDEST DUP3 DUP3 ISZERO PUSH3 0x1AEF JUMPI JUMPDEST CALL ISZERO PUSH3 0x11E7 JUMPI PUSH3 0x1AD6 PUSH3 0x1AE8 SWAP2 PUSH3 0x1C7 SWAP5 PUSH3 0x20F JUMP JUMPDEST SWAP2 PUSH3 0x1AE2 DUP4 PUSH3 0x14F9 JUMP JUMPDEST PUSH3 0x1A23 JUMP JUMPDEST SWAP1 PUSH3 0x1A3C JUMP JUMPDEST POP PUSH2 0x8FC PUSH3 0x1ABB JUMP JUMPDEST SWAP1 PUSH3 0x1C7 SWAP3 SWAP2 PUSH3 0x1B0A PUSH3 0xCD8 JUMP JUMPDEST PUSH3 0x1BD7 JUMP JUMPDEST ISZERO PUSH3 0x1B18 JUMPI JUMP JUMPDEST PUSH1 0x40 MLOAD PUSH3 0x461BCD PUSH1 0xE5 SHL DUP2 MSTORE PUSH1 0x20 PUSH1 0x4 DUP3 ADD MSTORE PUSH1 0x30 PUSH1 0x24 DUP3 ADD MSTORE PUSH32 0x496E73756666696369656E742062616C616E636520696E20706F6F6C20746F20 PUSH1 0x44 DUP3 ADD MSTORE PUSH32 0x7769746864726177207265776172647300000000000000000000000000000000 PUSH1 0x64 DUP3 ADD MSTORE PUSH1 0x84 SWAP1 REVERT JUMPDEST DUP1 ISZERO ISZERO PUSH3 0x1AB JUMP JUMPDEST SWAP1 POP MLOAD SWAP1 PUSH3 0x1C7 DUP3 PUSH3 0x1B83 JUMP JUMPDEST SWAP1 PUSH1 0x20 DUP3 DUP3 SUB SLT PUSH3 0x1B3 JUMPI PUSH3 0x19D SWAP2 PUSH3 0x1B8C JUMP JUMPDEST PUSH1 0x1 PUSH1 0x1 PUSH1 0xA0 SHL SUB SWAP2 DUP3 AND DUP2 MSTORE SWAP2 AND PUSH1 0x20 DUP3 ADD MSTORE PUSH1 0x60 DUP2 ADD SWAP3 SWAP2 PUSH3 0x1C7 SWAP2 PUSH1 0x40 ADD MSTORE JUMP JUMPDEST SWAP1 SWAP2 PUSH3 0x1BE4 SWAP1 PUSH3 0x204 JUMP JUMPDEST PUSH4 0x70A08231 SWAP1 PUSH3 0x1BF5 ADDRESS PUSH3 0x204 JUMP JUMPDEST SWAP2 PUSH3 0x1C0B PUSH3 0x1C04 PUSH1 0x40 MLOAD SWAP1 JUMP JUMPDEST SWAP2 PUSH1 0xE0 SHL SWAP1 JUMP JUMPDEST DUP2 MSTORE PUSH1 0x1 PUSH1 0x1 PUSH1 0xA0 SHL SUB DUP4 AND PUSH1 0x4 DUP3 ADD MSTORE PUSH1 0x20 DUP2 PUSH1 0x24 DUP2 DUP6 GAS STATICCALL DUP1 ISZERO PUSH3 0x11E7 JUMPI PUSH1 0x20 SWAP5 PUSH3 0x1C4D PUSH1 0x0 SWAP3 PUSH3 0x1C6E SWAP5 DUP5 SWAP2 PUSH3 0x1CBD JUMPI JUMPDEST POP DUP3 GT ISZERO PUSH3 0x1B10 JUMP JUMPDEST PUSH3 0x1C7A PUSH4 0x23B872DD SWAP2 PUSH3 0x1C61 PUSH1 0x40 MLOAD SWAP1 JUMP JUMPDEST SWAP9 DUP10 SWAP8 DUP9 SWAP7 DUP8 SWAP6 PUSH1 0xE0 SHL SWAP1 JUMP JUMPDEST DUP6 MSTORE PUSH1 0x4 DUP6 ADD PUSH3 0x1BB2 JUMP JUMPDEST SUB SWAP3 GAS CALL DUP1 ISZERO PUSH3 0x11E7 JUMPI PUSH3 0x1C8D JUMPI POP JUMP JUMPDEST PUSH3 0x1CB2 SWAP1 PUSH1 0x20 RETURNDATASIZE DUP2 GT PUSH3 0x1CB5 JUMPI JUMPDEST PUSH3 0x1CA9 DUP2 DUP4 PUSH3 0x2CB JUMP JUMPDEST DUP2 ADD SWAP1 PUSH3 0x1B9B JUMP JUMPDEST POP JUMP JUMPDEST POP RETURNDATASIZE PUSH3 0x1C9D JUMP JUMPDEST PUSH3 0x1CD8 SWAP2 POP DUP9 RETURNDATASIZE DUP2 GT PUSH3 0x192E JUMPI PUSH3 0x191E DUP2 DUP4 PUSH3 0x2CB JUMP JUMPDEST CODESIZE PUSH3 0x1C43 JUMP JUMPDEST SWAP1 PUSH3 0x1C7 SWAP3 SWAP2 PUSH3 0x1AF9 JUMP JUMPDEST PUSH1 0x3 GT ISZERO PUSH3 0x1B3 JUMPI JUMP JUMPDEST SWAP1 POP MLOAD SWAP1 PUSH3 0x1C7 DUP3 PUSH3 0x1CEC JUMP JUMPDEST SWAP1 PUSH1 0x20 DUP3 DUP3 SUB SLT PUSH3 0x1B3 JUMPI PUSH3 0x19D SWAP2 PUSH3 0x1CF7 JUMP JUMPDEST PUSH4 0x4E487B71 PUSH1 0xE0 SHL PUSH1 0x0 MSTORE PUSH1 0x21 PUSH1 0x4 MSTORE PUSH1 0x24 PUSH1 0x0 REVERT JUMPDEST PUSH1 0x3 GT ISZERO PUSH3 0x1D3E JUMPI JUMP JUMPDEST PUSH3 0x1D1D JUMP JUMPDEST SWAP1 PUSH3 0x1C7 DUP3 PUSH3 0x1D33 JUMP JUMPDEST ISZERO PUSH3 0x1D58 JUMPI JUMP JUMPDEST PUSH1 0x40 MLOAD PUSH3 0x461BCD PUSH1 0xE5 SHL DUP2 MSTORE PUSH1 0x20 PUSH1 0x4 DUP3 ADD MSTORE PUSH1 0xD PUSH1 0x24 DUP3 ADD MSTORE PUSH32 0x496E76616C696420737461746500000000000000000000000000000000000000 PUSH1 0x44 DUP3 ADD MSTORE PUSH1 0x64 SWAP1 REVERT JUMPDEST PUSH3 0x19D SWAP1 PUSH3 0x764 JUMP JUMPDEST PUSH3 0x19D SWAP1 SLOAD PUSH3 0x1D9D JUMP JUMPDEST ISZERO PUSH3 0x1DBC JUMPI JUMP JUMPDEST PUSH1 0x40 MLOAD PUSH3 0x461BCD PUSH1 0xE5 SHL DUP2 MSTORE PUSH1 0x20 PUSH1 0x4 DUP3 ADD MSTORE PUSH1 0x12 PUSH1 0x24 DUP3 ADD MSTORE PUSH32 0x546F6B656E206E6F742061636365707465640000000000000000000000000000 PUSH1 0x44 DUP3 ADD MSTORE PUSH1 0x64 SWAP1 REVERT JUMPDEST PUSH1 0x1 PUSH1 0x1 PUSH1 0xA0 SHL SUB SWAP1 SWAP2 AND DUP2 MSTORE PUSH1 0x60 DUP2 ADD SWAP4 SWAP3 PUSH3 0x1C7 SWAP3 SWAP1 SWAP2 PUSH1 0x40 SWAP2 PUSH3 0x1E2A SWAP1 PUSH1 0x20 DUP4 ADD MSTORE JUMP JUMPDEST ADD SWAP1 PUSH3 0x70F JUMP JUMPDEST PUSH1 0x1 PUSH1 0x1 PUSH1 0xA0 SHL SUB SWAP1 SWAP2 AND DUP2 MSTORE PUSH1 0x40 DUP2 ADD SWAP3 SWAP2 PUSH3 0x1C7 SWAP2 PUSH1 0x20 ADD MSTORE JUMP JUMPDEST SWAP2 PUSH3 0x1E60 PUSH3 0x11A0 DUP5 PUSH3 0x204 JUMP JUMPDEST SWAP2 PUSH4 0xC19D93FB SWAP1 PUSH3 0x1E7C PUSH3 0x1E75 PUSH1 0x40 MLOAD SWAP1 JUMP JUMPDEST SWAP3 PUSH1 0xE0 SHL SWAP1 JUMP JUMPDEST DUP3 MSTORE PUSH1 0x20 DUP3 PUSH1 0x4 DUP2 DUP8 GAS STATICCALL SWAP2 DUP3 ISZERO PUSH3 0x11E7 JUMPI PUSH1 0x0 SWAP3 PUSH3 0x1FBD JUMPI JUMPDEST POP PUSH3 0x1EBD PUSH1 0x0 SWAP3 PUSH3 0x1EB6 PUSH3 0x1EAF DUP6 PUSH3 0x1D44 JUMP JUMPDEST SWAP2 PUSH3 0x1D44 JUMP JUMPDEST EQ PUSH3 0x1D50 JUMP JUMPDEST PUSH3 0x1EDE PUSH3 0x1ED8 PUSH3 0x1ED2 DUP4 PUSH1 0x3 PUSH3 0x20F JUMP JUMPDEST PUSH3 0x1DA8 JUMP JUMPDEST PUSH3 0x1DB4 JUMP JUMPDEST PUSH4 0x4CBC1553 SWAP2 CALLER SWAP5 DUP1 EXTCODESIZE ISZERO PUSH3 0x1B3 JUMPI PUSH3 0x1F08 SWAP4 DUP3 SWAP2 PUSH3 0x1EFF PUSH1 0x40 MLOAD SWAP1 JUMP JUMPDEST SWAP6 DUP7 SWAP3 PUSH1 0xE0 SHL SWAP1 JUMP JUMPDEST DUP3 MSTORE DUP2 DUP4 DUP2 PUSH3 0x1F1E DUP9 DUP12 DUP14 PUSH1 0x4 DUP6 ADD PUSH3 0x1E01 JUMP JUMPDEST SUB SWAP3 GAS CALL SWAP3 DUP4 ISZERO PUSH3 0x11E7 JUMPI PUSH3 0x1F3F SWAP4 PUSH3 0x1F89 JUMPI JUMPDEST POP POP DUP3 DUP5 PUSH3 0x2002 JUMP JUMPDEST PUSH3 0x1F6B PUSH32 0x829C5C9DC5D14E41B11CFCA0F01F76EBA69B648DDCF9F84AFBA16BA8A76BF1C SWAP3 PUSH3 0x204 JUMP JUMPDEST SWAP3 PUSH3 0x1F84 PUSH3 0x1F7A PUSH1 0x40 MLOAD SWAP1 JUMP JUMPDEST SWAP3 DUP4 SWAP3 DUP4 PUSH3 0x1E32 JUMP JUMPDEST SUB SWAP1 LOG2 JUMP JUMPDEST DUP2 PUSH3 0x1FAD SWAP3 SWAP1 RETURNDATASIZE LT PUSH3 0x1FB5 JUMPI JUMPDEST PUSH3 0x1FA4 DUP2 DUP4 PUSH3 0x2CB JUMP JUMPDEST DUP2 ADD SWAP1 PUSH3 0x50E JUMP JUMPDEST CODESIZE DUP1 PUSH3 0x1F35 JUMP JUMPDEST POP RETURNDATASIZE PUSH3 0x1F98 JUMP JUMPDEST PUSH3 0x1FE4 SWAP2 SWAP3 POP PUSH1 0x20 RETURNDATASIZE DUP2 GT PUSH3 0x1FEC JUMPI JUMPDEST PUSH3 0x1FDB DUP2 DUP4 PUSH3 0x2CB JUMP JUMPDEST DUP2 ADD SWAP1 PUSH3 0x1D06 JUMP JUMPDEST SWAP1 CODESIZE PUSH3 0x1E98 JUMP JUMPDEST POP RETURNDATASIZE PUSH3 0x1FCF JUMP JUMPDEST SWAP2 SWAP1 DUP3 ADD DUP1 SWAP3 GT PUSH3 0x160B JUMPI JUMP JUMPDEST SWAP1 PUSH3 0x2036 PUSH3 0x204E PUSH3 0x1C7 SWAP5 PUSH3 0x1AE8 SWAP4 PUSH3 0x2048 PUSH3 0x2025 DUP4 DUP4 PUSH3 0x2057 JUMP JUMPDEST PUSH3 0x1AE8 PUSH3 0x2036 DUP10 PUSH1 0x1 PUSH3 0x20F JUMP JUMPDEST SWAP2 PUSH3 0x2042 DUP4 PUSH3 0x14F9 JUMP JUMPDEST PUSH3 0x1FF4 JUMP JUMPDEST PUSH3 0x2057 JUMP JUMPDEST SWAP3 PUSH1 0x2 PUSH3 0x20F JUMP JUMPDEST PUSH3 0x206A PUSH8 0x29A2241AF62C0000 PUSH3 0xFE4 JUMP JUMPDEST DUP2 LT ISZERO DUP1 PUSH3 0x219C JUMPI JUMPDEST PUSH3 0x217D JUMPI PUSH3 0x208C PUSH8 0x4563918244F40000 PUSH3 0xFE4 JUMP JUMPDEST DUP2 GT DUP1 PUSH3 0x2160 JUMPI JUMPDEST PUSH3 0x2141 JUMPI PUSH3 0x20AD PUSH8 0x8AC7230489E80000 PUSH3 0xFE4 JUMP JUMPDEST DUP2 GT DUP1 PUSH3 0x2123 JUMPI JUMPDEST PUSH3 0x2104 JUMPI PUSH3 0x20D3 PUSH3 0x1A70 PUSH9 0x2B5E3AF16B1880000 PUSH3 0xFE4 JUMP JUMPDEST GT PUSH3 0x20E6 JUMPI POP PUSH3 0x19D PUSH1 0x0 PUSH3 0xFE4 JUMP JUMPDEST PUSH3 0x47A PUSH3 0x20FB PUSH3 0x19D SWAP3 PUSH1 0x5 PUSH3 0x20F JUMP JUMPDEST PUSH1 0x3 SWAP1 PUSH3 0x431 JUMP JUMPDEST POP PUSH3 0x47A PUSH3 0x211A PUSH3 0x19D SWAP3 PUSH1 0x5 PUSH3 0x20F JUMP JUMPDEST PUSH1 0x2 SWAP1 PUSH3 0x431 JUMP JUMPDEST POP PUSH3 0x2138 PUSH9 0x2B5E3AF16B1880000 PUSH3 0xFE4 JUMP JUMPDEST DUP2 GT ISZERO PUSH3 0x20B6 JUMP JUMPDEST POP PUSH3 0x47A PUSH3 0x2157 PUSH3 0x19D SWAP3 PUSH1 0x5 PUSH3 0x20F JUMP JUMPDEST PUSH1 0x1 SWAP1 PUSH3 0x431 JUMP JUMPDEST POP PUSH3 0x2174 PUSH8 0x8AC7230489E80000 PUSH3 0xFE4 JUMP JUMPDEST DUP2 GT ISZERO PUSH3 0x2095 JUMP JUMPDEST POP PUSH3 0x47A PUSH3 0x2193 PUSH3 0x19D SWAP3 PUSH1 0x5 PUSH3 0x20F JUMP JUMPDEST PUSH1 0x0 SWAP1 PUSH3 0x431 JUMP JUMPDEST POP PUSH3 0x21B0 PUSH8 0x4563918244F40000 PUSH3 0xFE4 JUMP JUMPDEST DUP2 GT ISZERO PUSH3 0x2074 JUMP INVALID PUSH1 0x80 PUSH1 0x40 MSTORE CALLVALUE PUSH3 0x43 JUMPI PUSH3 0x31 PUSH3 0x18 PUSH3 0x2E7 JUMP JUMPDEST SWAP13 SWAP12 SWAP1 SWAP12 SWAP11 SWAP2 SWAP11 SWAP10 SWAP3 SWAP10 SWAP9 SWAP4 SWAP9 SWAP8 SWAP5 SWAP8 SWAP7 SWAP6 SWAP7 PUSH3 0x6BD JUMP JUMPDEST PUSH1 0x40 MLOAD PUSH2 0x23AC PUSH3 0xA03 DUP3 CODECOPY PUSH2 0x23AC SWAP1 RETURN JUMPDEST PUSH1 0x0 DUP1 REVERT JUMPDEST PUSH4 0x4E487B71 PUSH1 0xE0 SHL PUSH1 0x0 MSTORE PUSH1 0x41 PUSH1 0x4 MSTORE PUSH1 0x24 PUSH1 0x0 REVERT JUMPDEST SWAP1 PUSH1 0x1F ADD PUSH1 0x1F NOT AND DUP2 ADD SWAP1 DUP2 LT PUSH1 0x1 PUSH1 0x1 PUSH1 0x40 SHL SUB DUP3 GT OR PUSH3 0x80 JUMPI PUSH1 0x40 MSTORE JUMP JUMPDEST PUSH3 0x48 JUMP JUMPDEST SWAP1 PUSH3 0x9D PUSH3 0x95 PUSH1 0x40 MLOAD SWAP1 JUMP JUMPDEST SWAP3 DUP4 PUSH3 0x5E JUMP JUMPDEST JUMP JUMPDEST PUSH1 0x1 PUSH1 0x1 PUSH1 0xA0 SHL SUB AND SWAP1 JUMP JUMPDEST SWAP1 JUMP JUMPDEST PUSH1 0x1 PUSH1 0x1 PUSH1 0xA0 SHL SUB DUP2 AND JUMPDEST SUB PUSH3 0x43 JUMPI JUMP JUMPDEST SWAP1 POP MLOAD SWAP1 PUSH3 0x9D DUP3 PUSH3 0xAE JUMP JUMPDEST DUP1 PUSH3 0xB9 JUMP JUMPDEST SWAP1 POP MLOAD SWAP1 PUSH3 0x9D DUP3 PUSH3 0xD0 JUMP JUMPDEST PUSH1 0x1 PUSH1 0x1 PUSH1 0x40 SHL SUB DUP2 GT PUSH3 0x80 JUMPI PUSH1 0x20 SWAP1 PUSH1 0x1F ADD PUSH1 0x1F NOT AND ADD SWAP1 JUMP JUMPDEST ADD SWAP1 JUMP JUMPDEST PUSH1 0x0 JUMPDEST DUP4 DUP2 LT PUSH3 0x11B JUMPI POP POP PUSH1 0x0 SWAP2 ADD MSTORE JUMP JUMPDEST DUP2 DUP2 ADD MLOAD DUP4 DUP3 ADD MSTORE PUSH1 0x20 ADD PUSH3 0x10A JUMP JUMPDEST SWAP1 SWAP3 SWAP2 SWAP3 PUSH3 0x145 PUSH3 0x13F DUP3 PUSH3 0xE6 JUMP JUMPDEST PUSH3 0x86 JUMP JUMPDEST SWAP4 DUP2 DUP6 MSTORE PUSH1 0x20 DUP6 ADD SWAP1 DUP3 DUP5 ADD GT PUSH3 0x43 JUMPI PUSH3 0x9D SWAP3 PUSH3 0x107 JUMP JUMPDEST SWAP1 DUP1 PUSH1 0x1F DUP4 ADD SLT ISZERO PUSH3 0x43 JUMPI DUP2 MLOAD PUSH3 0xAB SWAP3 PUSH1 0x20 ADD PUSH3 0x12C JUMP JUMPDEST SWAP2 SWAP1 SWAP2 PUSH2 0x1C0 DUP2 DUP5 SUB SLT PUSH3 0x43 JUMPI PUSH3 0x19A DUP4 DUP3 PUSH3 0xC1 JUMP JUMPDEST SWAP3 PUSH3 0x1AA DUP2 PUSH1 0x20 DUP5 ADD PUSH3 0xC1 JUMP JUMPDEST SWAP3 PUSH1 0x40 SWAP1 PUSH3 0x1BC DUP4 DUP4 DUP7 ADD PUSH3 0xC1 JUMP JUMPDEST SWAP4 PUSH3 0x1CC DUP5 PUSH1 0x60 DUP4 ADD PUSH3 0xC1 JUMP JUMPDEST SWAP4 PUSH3 0x1DC DUP2 PUSH1 0x80 DUP5 ADD PUSH3 0xC1 JUMP JUMPDEST SWAP4 PUSH3 0x1EC DUP3 PUSH1 0xA0 DUP6 ADD PUSH3 0xD7 JUMP JUMPDEST SWAP4 PUSH3 0x1FC DUP4 PUSH1 0xC0 DUP7 ADD PUSH3 0xD7 JUMP JUMPDEST SWAP4 PUSH1 0xE0 DUP2 ADD MLOAD PUSH1 0x1 DUP1 DUP6 SHL SUB DUP2 GT PUSH3 0x43 JUMPI DUP5 PUSH3 0x21D SWAP2 DUP4 ADD PUSH3 0x162 JUMP JUMPDEST SWAP4 PUSH2 0x100 DUP3 ADD MLOAD PUSH1 0x1 DUP1 DUP7 SHL SUB DUP2 GT PUSH3 0x43 JUMPI DUP2 PUSH3 0x23F SWAP2 DUP5 ADD PUSH3 0x162 JUMP JUMPDEST SWAP4 PUSH2 0x120 DUP4 ADD MLOAD PUSH1 0x1 DUP1 DUP4 SHL SUB DUP2 GT PUSH3 0x43 JUMPI DUP3 PUSH3 0x261 SWAP2 DUP6 ADD PUSH3 0x162 JUMP JUMPDEST SWAP4 PUSH2 0x140 DUP5 ADD MLOAD PUSH1 0x1 DUP1 DUP5 SHL SUB DUP2 GT PUSH3 0x43 JUMPI DUP4 PUSH3 0x283 SWAP2 DUP7 ADD PUSH3 0x162 JUMP JUMPDEST SWAP4 PUSH2 0x160 DUP2 ADD MLOAD PUSH1 0x1 DUP1 DUP6 SHL SUB DUP2 GT PUSH3 0x43 JUMPI DUP5 PUSH3 0x2A5 SWAP2 DUP4 ADD PUSH3 0x162 JUMP JUMPDEST SWAP4 PUSH2 0x180 DUP3 ADD MLOAD PUSH1 0x1 DUP1 DUP7 SHL SUB DUP2 GT PUSH3 0x43 JUMPI DUP2 PUSH3 0x2C7 SWAP2 DUP5 ADD PUSH3 0x162 JUMP JUMPDEST SWAP4 PUSH1 0x1 DUP1 PUSH2 0x1A0 DUP6 ADD MLOAD SWAP3 SHL SUB DUP2 GT PUSH3 0x43 JUMPI PUSH3 0xAB SWAP3 ADD PUSH3 0x162 JUMP JUMPDEST PUSH3 0x30A PUSH3 0x2DAF DUP1 CODESIZE SUB DUP1 PUSH3 0x2FE DUP2 PUSH3 0x86 JUMP JUMPDEST SWAP3 DUP4 CODECOPY DUP2 ADD SWAP1 PUSH3 0x17F JUMP JUMPDEST SWAP1 SWAP2 SWAP3 SWAP4 SWAP5 SWAP6 SWAP7 SWAP8 SWAP9 SWAP10 SWAP11 SWAP12 SWAP13 SWAP14 JUMP JUMPDEST PUSH3 0xAB SWAP1 PUSH3 0x9F SWAP1 PUSH1 0x1 PUSH1 0x1 PUSH1 0xA0 SHL SUB AND DUP3 JUMP JUMPDEST PUSH3 0xAB SWAP1 PUSH3 0x31A JUMP JUMPDEST PUSH3 0xAB SWAP1 PUSH3 0x330 JUMP JUMPDEST SWAP1 PUSH1 0x1 PUSH1 0x1 PUSH1 0xA0 SHL SUB SWAP1 JUMPDEST SWAP2 DUP2 NOT AND SWAP2 AND OR SWAP1 JUMP JUMPDEST SWAP1 PUSH3 0x36F PUSH3 0xAB PUSH3 0x377 SWAP3 PUSH3 0x33B JUMP JUMPDEST DUP3 SLOAD PUSH3 0x346 JUMP JUMPDEST SWAP1 SSTORE JUMP JUMPDEST SWAP1 PUSH1 0x0 NOT SWAP1 PUSH3 0x351 JUMP JUMPDEST PUSH3 0xAB PUSH3 0xAB PUSH3 0xAB SWAP3 SWAP1 JUMP JUMPDEST SWAP1 PUSH3 0x3AA PUSH3 0xAB PUSH3 0x377 SWAP3 PUSH3 0x386 JUMP JUMPDEST DUP3 SLOAD PUSH3 0x37B JUMP JUMPDEST SWAP1 PUSH1 0xFF SWAP1 PUSH3 0x351 JUMP JUMPDEST PUSH4 0x4E487B71 PUSH1 0xE0 SHL PUSH1 0x0 MSTORE PUSH1 0x21 PUSH1 0x4 MSTORE PUSH1 0x24 PUSH1 0x0 REVERT JUMPDEST PUSH1 0x3 GT ISZERO PUSH3 0x3DD JUMPI JUMP JUMPDEST PUSH3 0x3BC JUMP JUMPDEST SWAP1 PUSH3 0x9D DUP3 PUSH3 0x3D2 JUMP JUMPDEST PUSH3 0xAB SWAP1 PUSH3 0x3E3 JUMP JUMPDEST SWAP1 PUSH3 0x40E PUSH3 0xAB PUSH3 0x377 SWAP3 PUSH3 0x3EF JUMP JUMPDEST DUP3 SLOAD PUSH3 0x3B2 JUMP JUMPDEST SWAP1 PUSH2 0xFF00 SWAP1 PUSH1 0x8 SHL PUSH3 0x351 JUMP JUMPDEST SWAP1 PUSH3 0x437 PUSH3 0xAB PUSH3 0x377 SWAP3 ISZERO ISZERO SWAP1 JUMP JUMPDEST DUP3 SLOAD PUSH3 0x416 JUMP JUMPDEST SWAP1 PUSH3 0xFF0000 SWAP1 PUSH1 0x10 SHL PUSH3 0x351 JUMP JUMPDEST SWAP1 PUSH3 0x461 PUSH3 0xAB PUSH3 0x377 SWAP3 ISZERO ISZERO SWAP1 JUMP JUMPDEST DUP3 SLOAD PUSH3 0x43F JUMP JUMPDEST PUSH4 0x4E487B71 PUSH1 0xE0 SHL PUSH1 0x0 MSTORE PUSH1 0x22 PUSH1 0x4 MSTORE PUSH1 0x24 PUSH1 0x0 REVERT JUMPDEST SWAP1 PUSH1 0x1 PUSH1 0x2 DUP4 DIV SWAP3 AND DUP1 ISZERO PUSH3 0x4A2 JUMPI JUMPDEST PUSH1 0x20 DUP4 LT EQ PUSH3 0x49C JUMPI JUMP JUMPDEST PUSH3 0x469 JUMP JUMPDEST SWAP2 PUSH1 0x7F AND SWAP2 PUSH3 0x490 JUMP JUMPDEST SWAP2 PUSH1 0x0 NOT PUSH1 0x8 SWAP3 SWAP1 SWAP3 MUL SWAP2 DUP3 SHL SWAP2 SHL PUSH3 0x351 JUMP JUMPDEST SWAP2 SWAP1 PUSH3 0x4D7 PUSH3 0xAB PUSH3 0x377 SWAP4 PUSH3 0x386 JUMP JUMPDEST SWAP1 DUP4 SLOAD PUSH3 0x4AD JUMP JUMPDEST PUSH3 0x9D SWAP2 PUSH1 0x0 SWAP2 PUSH3 0x4C2 JUMP JUMPDEST DUP2 DUP2 LT PUSH3 0x4FA JUMPI POP POP JUMP JUMPDEST DUP1 PUSH3 0x50A PUSH1 0x0 PUSH1 0x1 SWAP4 PUSH3 0x4E0 JUMP JUMPDEST ADD PUSH3 0x4EE JUMP JUMPDEST SWAP2 SWAP1 PUSH1 0x1F DUP2 GT PUSH3 0x521 JUMPI POP POP POP JUMP JUMPDEST PUSH3 0x535 PUSH3 0x9D SWAP4 PUSH1 0x0 MSTORE PUSH1 0x20 PUSH1 0x0 KECCAK256 SWAP1 JUMP JUMPDEST SWAP1 PUSH1 0x20 PUSH1 0x1F DUP5 ADD DUP2 SWAP1 DIV DUP4 ADD SWAP4 LT PUSH3 0x559 JUMPI JUMPDEST PUSH1 0x20 PUSH1 0x1F SWAP1 SWAP2 ADD DIV ADD SWAP1 PUSH3 0x4EE JUMP JUMPDEST SWAP1 SWAP2 POP DUP2 SWAP1 PUSH3 0x549 JUMP JUMPDEST SWAP1 PUSH3 0x56E DUP2 MLOAD SWAP1 JUMP JUMPDEST SWAP1 PUSH1 0x1 PUSH1 0x1 PUSH1 0x40 SHL SUB DUP3 GT PUSH3 0x80 JUMPI PUSH3 0x596 DUP3 PUSH3 0x58F DUP6 SLOAD PUSH3 0x47F JUMP JUMPDEST DUP6 PUSH3 0x511 JUMP JUMPDEST PUSH1 0x20 SWAP1 PUSH1 0x1F DUP4 GT PUSH1 0x1 EQ PUSH3 0x5D5 JUMPI PUSH3 0x377 SWAP3 SWAP2 PUSH1 0x0 SWAP2 DUP4 PUSH3 0x5C9 JUMPI JUMPDEST POP POP PUSH1 0x0 NOT PUSH1 0x8 DUP4 MUL SHR NOT AND SWAP1 PUSH1 0x2 MUL OR SWAP1 JUMP JUMPDEST ADD MLOAD SWAP1 POP CODESIZE DUP1 PUSH3 0x5B5 JUMP JUMPDEST PUSH1 0x1F NOT DUP4 AND SWAP2 PUSH3 0x5EB DUP6 PUSH1 0x0 MSTORE PUSH1 0x20 PUSH1 0x0 KECCAK256 SWAP1 JUMP JUMPDEST SWAP3 PUSH1 0x0 JUMPDEST DUP2 DUP2 LT PUSH3 0x62C JUMPI POP SWAP2 PUSH1 0x2 SWAP4 SWAP2 DUP6 PUSH1 0x1 SWAP7 SWAP5 LT PUSH3 0x612 JUMPI JUMPDEST POP POP POP MUL ADD SWAP1 SSTORE JUMP JUMPDEST ADD MLOAD PUSH1 0x0 NOT PUSH1 0x8 PUSH1 0x1F DUP6 AND MUL SHR NOT AND SWAP1 SSTORE CODESIZE DUP1 DUP1 PUSH3 0x609 JUMP JUMPDEST SWAP2 SWAP4 PUSH1 0x20 PUSH1 0x1 DUP2 SWAP3 DUP8 DUP8 ADD MLOAD DUP2 SSTORE ADD SWAP6 ADD SWAP3 ADD PUSH3 0x5EF JUMP JUMPDEST SWAP1 PUSH3 0x9D SWAP2 PUSH3 0x564 JUMP JUMPDEST DUP1 ISZERO ISZERO PUSH3 0xB9 JUMP JUMPDEST SWAP1 POP MLOAD SWAP1 PUSH3 0x9D DUP3 PUSH3 0x651 JUMP JUMPDEST SWAP1 PUSH1 0x20 DUP3 DUP3 SUB SLT PUSH3 0x43 JUMPI PUSH3 0xAB SWAP2 PUSH3 0x65A JUMP JUMPDEST SWAP1 MSTORE JUMP JUMPDEST PUSH3 0x680 SWAP1 PUSH3 0x386 JUMP JUMPDEST PUSH1 0x1 PUSH1 0x1 PUSH1 0xA0 SHL SUB SWAP1 SWAP2 AND DUP2 MSTORE PUSH1 0x40 DUP2 ADD SWAP3 SWAP2 PUSH3 0x9D SWAP2 PUSH1 0x20 ADD SWAP1 PUSH3 0x684 JUMP JUMPDEST PUSH1 0x40 MLOAD RETURNDATASIZE PUSH1 0x0 DUP3 RETURNDATACOPY RETURNDATASIZE SWAP1 REVERT JUMPDEST SWAP12 SWAP9 SWAP5 SWAP13 SWAP8 SWAP4 SWAP10 SWAP6 SWAP2 SWAP11 SWAP7 SWAP3 SWAP1 SWAP11 PUSH20 0x811029BAF786C77F1ADBA0C0DC29952D012C37B PUSH3 0x6EB SWAP1 PUSH3 0x33B JUMP JUMPDEST PUSH3 0x6F8 SWAP1 PUSH1 0x2 PUSH3 0x35B JUMP JUMPDEST PUSH3 0x708 PUSH3 0xBC614E PUSH1 0x3 PUSH3 0x396 JUMP JUMPDEST PUSH1 0x0 SWAP13 DUP14 PUSH3 0x719 DUP2 PUSH1 0xE PUSH3 0x3FA JUMP JUMPDEST PUSH3 0x726 SWAP1 PUSH1 0xE PUSH3 0x424 JUMP JUMPDEST DUP14 PUSH3 0x734 DUP2 PUSH1 0xE PUSH3 0x44E JUMP JUMPDEST PUSH3 0x741 SWAP1 PUSH1 0x16 PUSH3 0x396 JUMP JUMPDEST PUSH3 0x74C DUP11 PUSH3 0x99E JUMP JUMPDEST PUSH3 0x757 SWAP1 PUSH3 0x33B JUMP JUMPDEST PUSH3 0x764 SWAP1 PUSH1 0x1 PUSH3 0x35B JUMP JUMPDEST PUSH3 0x76F DUP13 PUSH3 0x33B JUMP JUMPDEST PUSH3 0x77C SWAP1 PUSH1 0x4 PUSH3 0x35B JUMP JUMPDEST PUSH3 0x787 SWAP1 PUSH3 0x33B JUMP JUMPDEST PUSH3 0x793 SWAP1 DUP14 PUSH3 0x35B JUMP JUMPDEST PUSH3 0x79E SWAP1 PUSH3 0x33B JUMP JUMPDEST SWAP9 PUSH3 0x7AC DUP11 PUSH1 0x5 PUSH3 0x35B JUMP JUMPDEST PUSH3 0x7B7 SWAP1 PUSH3 0x33B JUMP JUMPDEST SWAP12 PUSH3 0x7C5 DUP14 PUSH1 0x6 PUSH3 0x35B JUMP JUMPDEST PUSH3 0x7D2 SWAP1 PUSH1 0x7 PUSH3 0x396 JUMP JUMPDEST PUSH3 0x7DF SWAP1 PUSH1 0x8 PUSH3 0x396 JUMP JUMPDEST PUSH3 0x7EC SWAP1 PUSH1 0xC PUSH3 0x645 JUMP JUMPDEST PUSH3 0x7F9 SWAP1 PUSH1 0xD PUSH3 0x645 JUMP JUMPDEST PUSH3 0x804 DUP9 PUSH3 0x386 JUMP JUMPDEST PUSH3 0x811 SWAP1 PUSH1 0xA PUSH3 0x396 JUMP JUMPDEST PUSH3 0x81E SWAP1 PUSH1 0xF PUSH3 0x645 JUMP JUMPDEST PUSH3 0x82B SWAP1 PUSH1 0x10 PUSH3 0x645 JUMP JUMPDEST PUSH3 0x838 SWAP1 PUSH1 0x11 PUSH3 0x645 JUMP JUMPDEST PUSH3 0x845 SWAP1 PUSH1 0x13 PUSH3 0x645 JUMP JUMPDEST PUSH3 0x852 SWAP1 PUSH1 0x12 PUSH3 0x645 JUMP JUMPDEST PUSH3 0x85D SWAP1 PUSH3 0x33B JUMP JUMPDEST SWAP1 PUSH4 0x95EA7B3 PUSH1 0x1 PUSH1 0xFF SHL SWAP5 PUSH3 0x873 PUSH1 0x40 MLOAD SWAP1 JUMP JUMPDEST SWAP4 PUSH3 0x87F DUP4 PUSH1 0xE0 SHL SWAP1 JUMP JUMPDEST DUP6 MSTORE DUP5 DUP1 PUSH3 0x893 DUP10 DUP8 PUSH1 0x4 DUP5 ADD PUSH3 0x68F JUMP JUMPDEST SUB DUP2 DUP9 GAS SWAP5 PUSH1 0x20 SWAP6 CALL SWAP4 DUP5 ISZERO PUSH3 0x92C JUMPI PUSH3 0x8BF PUSH3 0x8DB SWAP3 DUP8 SWAP3 PUSH1 0x20 SWAP8 PUSH3 0x932 JUMPI JUMPDEST POP PUSH3 0x33B JUMP JUMPDEST SWAP3 PUSH3 0x8E7 PUSH3 0x8CE PUSH1 0x40 MLOAD SWAP1 JUMP JUMPDEST SWAP9 DUP10 SWAP7 DUP8 SWAP6 DUP7 SWAP5 PUSH1 0xE0 SHL SWAP1 JUMP JUMPDEST DUP5 MSTORE PUSH1 0x4 DUP5 ADD PUSH3 0x68F JUMP JUMPDEST SUB SWAP3 GAS CALL SWAP1 DUP2 ISZERO PUSH3 0x92C JUMPI POP PUSH3 0x8FC JUMPI POP JUMP JUMPDEST PUSH3 0x921 SWAP1 PUSH1 0x20 RETURNDATASIZE DUP2 GT PUSH3 0x924 JUMPI JUMPDEST PUSH3 0x918 DUP2 DUP4 PUSH3 0x5E JUMP JUMPDEST DUP2 ADD SWAP1 PUSH3 0x669 JUMP JUMPDEST POP JUMP JUMPDEST POP RETURNDATASIZE PUSH3 0x90C JUMP JUMPDEST PUSH3 0x6B1 JUMP JUMPDEST PUSH3 0x94C SWAP1 DUP9 RETURNDATASIZE DUP2 GT PUSH3 0x924 JUMPI PUSH3 0x918 DUP2 DUP4 PUSH3 0x5E JUMP JUMPDEST PUSH3 0x8B8 JUMP JUMPDEST PUSH3 0x977 PUSH3 0x981 PUSH1 0x20 SWAP4 PUSH3 0x103 SWAP4 PUSH3 0x96B DUP2 MLOAD SWAP1 JUMP JUMPDEST DUP1 DUP4 MSTORE SWAP4 DUP5 SWAP3 PUSH1 0x20 ADD SWAP1 JUMP JUMPDEST SWAP6 DUP7 SWAP2 ADD PUSH3 0x107 JUMP JUMPDEST PUSH1 0x1F ADD PUSH1 0x1F NOT AND SWAP1 JUMP JUMPDEST PUSH1 0x20 DUP1 DUP3 MSTORE PUSH3 0xAB SWAP3 SWAP2 ADD SWAP1 PUSH3 0x952 JUMP JUMPDEST PUSH3 0x9CF PUSH3 0x9DF PUSH3 0x9D SWAP3 PUSH3 0x9B5 PUSH1 0x40 MLOAD SWAP1 JUMP JUMPDEST PUSH4 0x104C13EB PUSH1 0xE2 SHL PUSH1 0x20 DUP3 ADD MSTORE SWAP3 DUP4 SWAP2 PUSH1 0x24 DUP4 ADD PUSH3 0x98B JUMP JUMPDEST PUSH1 0x20 DUP3 ADD DUP2 SUB DUP3 MSTORE SUB DUP3 PUSH3 0x5E JUMP JUMPDEST PUSH1 0x0 DUP1 SWAP2 PUSH3 0x9F6 PUSH11 0x636F6E736F6C652E6C6F67 SWAP1 JUMP JUMPDEST PUSH1 0x20 DUP3 MLOAD SWAP3 ADD SWAP1 GAS STATICCALL POP JUMP INVALID PUSH1 0xA0 PUSH1 0x40 MSTORE PUSH1 0x4 CALLDATASIZE LT ISZERO PUSH2 0x12 JUMPI PUSH1 0x0 DUP1 REVERT JUMPDEST PUSH1 0x0 CALLDATALOAD PUSH1 0xE0 SHR DUP1 PUSH4 0x203D002 EQ PUSH2 0x222 JUMPI DUP1 PUSH4 0x2D05D3F EQ PUSH2 0x21D JUMPI DUP1 PUSH4 0x3C29D58 EQ PUSH2 0x218 JUMPI DUP1 PUSH4 0x7D94E4A EQ PUSH2 0x213 JUMPI DUP1 PUSH4 0xA771370 EQ PUSH2 0x20E JUMPI DUP1 PUSH4 0x18AA9F1E EQ PUSH2 0x209 JUMPI DUP1 PUSH4 0x24274EE9 EQ PUSH2 0x204 JUMPI DUP1 PUSH4 0x263A58AA EQ PUSH2 0x1FF JUMPI DUP1 PUSH4 0x28C30C07 EQ PUSH2 0x1FA JUMPI DUP1 PUSH4 0x29DCB0CF EQ PUSH2 0x1F5 JUMPI DUP1 PUSH4 0x43AB265F EQ PUSH2 0x1F0 JUMPI DUP1 PUSH4 0x4C4CEA5A EQ PUSH2 0x1EB JUMPI DUP1 PUSH4 0x4CBC1553 EQ PUSH2 0x1E6 JUMPI DUP1 PUSH4 0x4E695A37 EQ PUSH2 0x1E1 JUMPI DUP1 PUSH4 0x54214F69 EQ PUSH2 0x1DC JUMPI DUP1 PUSH4 0x5EB32936 EQ PUSH2 0x1D7 JUMPI DUP1 PUSH4 0x62D809A6 EQ PUSH2 0x1D2 JUMPI DUP1 PUSH4 0x80007E83 EQ PUSH2 0x1CD JUMPI DUP1 PUSH4 0x992A7DFB EQ PUSH2 0x1C8 JUMPI DUP1 PUSH4 0xA278A485 EQ PUSH2 0x1C3 JUMPI DUP1 PUSH4 0xABB5CA09 EQ PUSH2 0x1BE JUMPI DUP1 PUSH4 0xB35A7DD4 EQ PUSH2 0x1B9 JUMPI DUP1 PUSH4 0xB40141BF EQ PUSH2 0x1B4 JUMPI DUP1 PUSH4 0xB82C86D6 EQ PUSH2 0x1AF JUMPI DUP1 PUSH4 0xC19D93FB EQ PUSH2 0x1AA JUMPI DUP1 PUSH4 0xC3E20C9F EQ PUSH2 0x1A5 JUMPI DUP1 PUSH4 0xC59EE1DC EQ PUSH2 0x1A0 JUMPI DUP1 PUSH4 0xCA4B208B EQ PUSH2 0x19B JUMPI DUP1 PUSH4 0xD1707551 EQ PUSH2 0x196 JUMPI DUP1 PUSH4 0xD5CEF133 EQ PUSH2 0x191 JUMPI DUP1 PUSH4 0xD688CF53 EQ PUSH2 0x18C JUMPI DUP1 PUSH4 0xE9D1EDDE EQ PUSH2 0x187 JUMPI PUSH4 0xFF3A9C7E SUB PUSH2 0x227 JUMPI PUSH2 0xE37 JUMP JUMPDEST PUSH2 0xD3E JUMP JUMPDEST PUSH2 0xD26 JUMP JUMPDEST PUSH2 0xD0B JUMP JUMPDEST PUSH2 0xCF0 JUMP JUMPDEST PUSH2 0xCC9 JUMP JUMPDEST PUSH2 0xCA2 JUMP JUMPDEST PUSH2 0xC7B JUMP JUMPDEST PUSH2 0xC48 JUMP JUMPDEST PUSH2 0xBD0 JUMP JUMPDEST PUSH2 0xBA9 JUMP JUMPDEST PUSH2 0xB7E JUMP JUMPDEST PUSH2 0xA5B JUMP JUMPDEST PUSH2 0xA34 JUMP JUMPDEST PUSH2 0x9F4 JUMP JUMPDEST PUSH2 0x8B6 JUMP JUMPDEST PUSH2 0x891 JUMP JUMPDEST PUSH2 0x853 JUMP JUMPDEST PUSH2 0x81A JUMP JUMPDEST PUSH2 0x7DC JUMP JUMPDEST PUSH2 0x7C3 JUMP JUMPDEST PUSH2 0x778 JUMP JUMPDEST PUSH2 0x751 JUMP JUMPDEST PUSH2 0x736 JUMP JUMPDEST PUSH2 0x70D JUMP JUMPDEST PUSH2 0x6C9 JUMP JUMPDEST PUSH2 0x6A2 JUMP JUMPDEST PUSH2 0x67B JUMP JUMPDEST PUSH2 0x654 JUMP JUMPDEST PUSH2 0x58C JUMP JUMPDEST PUSH2 0x565 JUMP JUMPDEST PUSH2 0x3BB JUMP JUMPDEST PUSH2 0x34A JUMP JUMPDEST PUSH1 0x0 DUP1 REVERT JUMPDEST DUP1 JUMPDEST SUB PUSH2 0x227 JUMPI JUMP JUMPDEST SWAP1 POP CALLDATALOAD SWAP1 PUSH2 0x242 DUP3 PUSH2 0x22C JUMP JUMPDEST JUMP JUMPDEST SWAP1 PUSH1 0x20 DUP3 DUP3 SUB SLT PUSH2 0x227 JUMPI PUSH2 0x258 SWAP2 PUSH2 0x235 JUMP JUMPDEST SWAP1 JUMP JUMPDEST PUSH1 0x0 JUMPDEST DUP4 DUP2 LT PUSH2 0x26E JUMPI POP POP PUSH1 0x0 SWAP2 ADD MSTORE JUMP JUMPDEST DUP2 DUP2 ADD MLOAD DUP4 DUP3 ADD MSTORE PUSH1 0x20 ADD PUSH2 0x25E JUMP JUMPDEST PUSH2 0x29F PUSH2 0x2A8 PUSH1 0x20 SWAP4 PUSH2 0x2B2 SWAP4 PUSH2 0x293 DUP2 MLOAD SWAP1 JUMP JUMPDEST DUP1 DUP4 MSTORE SWAP4 DUP5 SWAP3 PUSH1 0x20 ADD SWAP1 JUMP JUMPDEST SWAP6 DUP7 SWAP2 ADD PUSH2 0x25B JUMP JUMPDEST PUSH1 0x1F ADD PUSH1 0x1F NOT AND SWAP1 JUMP JUMPDEST ADD SWAP1 JUMP JUMPDEST PUSH1 0x1 PUSH1 0x1 PUSH1 0xA0 SHL SUB AND SWAP1 JUMP JUMPDEST SWAP1 MSTORE JUMP JUMPDEST SWAP4 SWAP9 SWAP8 SWAP6 PUSH2 0x32B PUSH1 0xE0 SWAP7 PUSH2 0x324 PUSH2 0x31C PUSH2 0x242 SWAP12 SWAP7 PUSH2 0x33B SWAP9 PUSH2 0x30F PUSH2 0x2FD DUP13 PUSH2 0x332 SWAP11 PUSH2 0x100 DUP3 ADD SWAP2 PUSH1 0x0 DUP2 DUP5 SUB SWAP2 ADD MSTORE PUSH2 0x27E JUMP JUMPDEST PUSH1 0x1 PUSH1 0x1 PUSH1 0xA0 SHL SUB SWAP1 SWAP4 AND PUSH1 0x20 DUP14 ADD MSTORE JUMP JUMPDEST DUP11 DUP3 SUB PUSH1 0x40 DUP13 ADD MSTORE PUSH2 0x27E JUMP JUMPDEST SWAP13 PUSH1 0x60 DUP10 ADD MSTORE JUMP JUMPDEST PUSH1 0x80 DUP8 ADD MSTORE JUMP JUMPDEST PUSH1 0xA0 DUP6 ADD MSTORE JUMP JUMPDEST ISZERO ISZERO PUSH1 0xC0 DUP4 ADD MSTORE JUMP JUMPDEST ADD SWAP1 PUSH1 0x1 PUSH1 0x1 PUSH1 0xA0 SHL SUB AND SWAP1 MSTORE JUMP JUMPDEST CALLVALUE PUSH2 0x227 JUMPI PUSH2 0x381 PUSH2 0x365 PUSH2 0x360 CALLDATASIZE PUSH1 0x4 PUSH2 0x244 JUMP JUMPDEST PUSH2 0x22F8 JUMP JUMPDEST SWAP5 PUSH2 0x378 SWAP9 SWAP7 SWAP9 SWAP5 SWAP2 SWAP5 SWAP4 SWAP3 SWAP4 PUSH1 0x40 MLOAD SWAP1 JUMP JUMPDEST SWAP9 DUP10 SWAP9 DUP10 PUSH2 0x2C6 JUMP JUMPDEST SUB SWAP1 RETURN JUMPDEST PUSH1 0x0 SWAP2 SUB SLT PUSH2 0x227 JUMPI JUMP JUMPDEST PUSH2 0x258 SWAP2 PUSH1 0x8 MUL SHR PUSH1 0x1 PUSH1 0x1 PUSH1 0xA0 SHL SUB AND SWAP1 JUMP JUMPDEST SWAP1 PUSH2 0x258 SWAP2 SLOAD PUSH2 0x390 JUMP JUMPDEST PUSH2 0x258 PUSH1 0x0 PUSH1 0x4 PUSH2 0x3A4 JUMP JUMPDEST CALLVALUE PUSH2 0x227 JUMPI PUSH2 0x3CB CALLDATASIZE PUSH1 0x4 PUSH2 0x385 JUMP JUMPDEST PUSH2 0x381 PUSH2 0x3D6 PUSH2 0x3AF JUMP JUMPDEST PUSH1 0x40 MLOAD SWAP2 DUP3 SWAP2 DUP3 PUSH1 0x1 PUSH1 0x1 PUSH1 0xA0 SHL SUB SWAP1 SWAP2 AND DUP2 MSTORE PUSH1 0x20 ADD SWAP1 JUMP JUMPDEST PUSH4 0x4E487B71 PUSH1 0xE0 SHL PUSH1 0x0 MSTORE PUSH1 0x0 PUSH1 0x4 MSTORE PUSH1 0x24 PUSH1 0x0 REVERT JUMPDEST PUSH4 0x4E487B71 PUSH1 0xE0 SHL PUSH1 0x0 MSTORE PUSH1 0x22 PUSH1 0x4 MSTORE PUSH1 0x24 PUSH1 0x0 REVERT JUMPDEST SWAP1 PUSH1 0x1 PUSH1 0x2 DUP4 DIV SWAP3 AND DUP1 ISZERO PUSH2 0x43C JUMPI JUMPDEST PUSH1 0x20 DUP4 LT EQ PUSH2 0x437 JUMPI JUMP JUMPDEST PUSH2 0x406 JUMP JUMPDEST SWAP2 PUSH1 0x7F AND SWAP2 PUSH2 0x42C JUMP JUMPDEST DUP1 SLOAD PUSH1 0x0 SWAP4 SWAP3 SWAP2 PUSH2 0x463 PUSH2 0x459 DUP4 PUSH2 0x41C JUMP JUMPDEST DUP1 DUP6 MSTORE SWAP4 PUSH1 0x20 ADD SWAP1 JUMP JUMPDEST SWAP2 PUSH1 0x1 DUP2 AND SWAP1 DUP2 ISZERO PUSH2 0x4B5 JUMPI POP PUSH1 0x1 EQ PUSH2 0x47C JUMPI POP POP POP JUMP JUMPDEST PUSH2 0x48F SWAP2 SWAP3 SWAP4 SWAP5 POP PUSH1 0x0 MSTORE PUSH1 0x20 PUSH1 0x0 KECCAK256 SWAP1 JUMP JUMPDEST SWAP2 PUSH1 0x0 SWAP3 JUMPDEST DUP2 DUP5 LT PUSH2 0x4A1 JUMPI POP POP ADD SWAP1 JUMP JUMPDEST DUP1 SLOAD DUP5 DUP5 ADD MSTORE PUSH1 0x20 SWAP1 SWAP4 ADD SWAP3 PUSH1 0x1 ADD PUSH2 0x494 JUMP JUMPDEST SWAP3 SWAP5 SWAP6 POP POP POP PUSH1 0xFF NOT AND DUP3 MSTORE ISZERO ISZERO PUSH1 0x20 MUL ADD SWAP1 JUMP JUMPDEST SWAP1 PUSH2 0x258 SWAP2 PUSH2 0x446 JUMP JUMPDEST PUSH4 0x4E487B71 PUSH1 0xE0 SHL PUSH1 0x0 MSTORE PUSH1 0x41 PUSH1 0x4 MSTORE PUSH1 0x24 PUSH1 0x0 REVERT JUMPDEST SWAP1 PUSH1 0x1F ADD PUSH1 0x1F NOT AND DUP2 ADD SWAP1 DUP2 LT PUSH8 0xFFFFFFFFFFFFFFFF DUP3 GT OR PUSH2 0x50C JUMPI PUSH1 0x40 MSTORE JUMP JUMPDEST PUSH2 0x4D4 JUMP JUMPDEST SWAP1 PUSH2 0x242 PUSH2 0x52B SWAP3 PUSH2 0x522 PUSH1 0x40 MLOAD SWAP1 JUMP JUMPDEST SWAP4 DUP5 DUP1 SWAP3 PUSH2 0x4CA JUMP JUMPDEST SUB DUP4 PUSH2 0x4EA JUMP JUMPDEST SWAP1 PUSH1 0x0 LT PUSH2 0x543 JUMPI PUSH2 0x258 SWAP1 PUSH2 0x511 JUMP JUMPDEST PUSH2 0x3F0 JUMP JUMPDEST PUSH2 0x258 PUSH1 0x0 PUSH1 0xD PUSH2 0x532 JUMP JUMPDEST PUSH1 0x20 DUP1 DUP3 MSTORE PUSH2 0x258 SWAP3 SWAP2 ADD SWAP1 PUSH2 0x27E JUMP JUMPDEST CALLVALUE PUSH2 0x227 JUMPI PUSH2 0x575 CALLDATASIZE PUSH1 0x4 PUSH2 0x385 JUMP JUMPDEST PUSH2 0x381 PUSH2 0x580 PUSH2 0x548 JUMP JUMPDEST PUSH1 0x40 MLOAD SWAP2 DUP3 SWAP2 DUP3 PUSH2 0x554 JUMP JUMPDEST CALLVALUE PUSH2 0x227 JUMPI PUSH2 0x59C CALLDATASIZE PUSH1 0x4 PUSH2 0x385 JUMP JUMPDEST PUSH2 0x381 PUSH2 0x5A7 PUSH2 0x14B2 JUMP JUMPDEST PUSH1 0x40 MLOAD SWAP2 DUP3 SWAP2 DUP3 SWAP1 DUP2 MSTORE PUSH1 0x20 ADD SWAP1 JUMP JUMPDEST PUSH1 0x1 PUSH1 0x1 PUSH1 0xA0 SHL SUB DUP2 AND PUSH2 0x22E JUMP JUMPDEST SWAP1 POP CALLDATALOAD SWAP1 PUSH2 0x242 DUP3 PUSH2 0x5B7 JUMP JUMPDEST SWAP1 PUSH1 0x20 DUP3 DUP3 SUB SLT PUSH2 0x227 JUMPI PUSH2 0x258 SWAP2 PUSH2 0x5C6 JUMP JUMPDEST PUSH2 0x2B6 PUSH2 0x258 PUSH2 0x258 SWAP3 PUSH1 0x1 PUSH1 0x1 PUSH1 0xA0 SHL SUB AND SWAP1 JUMP JUMPDEST PUSH2 0x258 SWAP1 PUSH2 0x5E7 JUMP JUMPDEST PUSH2 0x258 SWAP1 PUSH2 0x5FD JUMP JUMPDEST SWAP1 PUSH2 0x619 SWAP1 PUSH2 0x606 JUMP JUMPDEST PUSH1 0x0 MSTORE PUSH1 0x20 MSTORE PUSH1 0x40 PUSH1 0x0 KECCAK256 SWAP1 JUMP JUMPDEST PUSH2 0x258 SWAP2 PUSH1 0x8 MUL SHR DUP2 JUMP JUMPDEST SWAP1 PUSH2 0x258 SWAP2 SLOAD PUSH2 0x627 JUMP JUMPDEST PUSH2 0x258 SWAP1 PUSH2 0x64F PUSH1 0x14 SWAP2 PUSH1 0x0 SWAP3 PUSH2 0x60F JUMP JUMPDEST PUSH2 0x632 JUMP JUMPDEST CALLVALUE PUSH2 0x227 JUMPI PUSH2 0x381 PUSH2 0x5A7 PUSH2 0x66A CALLDATASIZE PUSH1 0x4 PUSH2 0x5D3 JUMP JUMPDEST PUSH2 0x63D JUMP JUMPDEST PUSH2 0x258 PUSH1 0x0 PUSH1 0x11 PUSH2 0x532 JUMP JUMPDEST CALLVALUE PUSH2 0x227 JUMPI PUSH2 0x68B CALLDATASIZE PUSH1 0x4 PUSH2 0x385 JUMP JUMPDEST PUSH2 0x381 PUSH2 0x580 PUSH2 0x66F JUMP JUMPDEST PUSH2 0x258 PUSH1 0x0 PUSH1 0xB PUSH2 0x632 JUMP JUMPDEST CALLVALUE PUSH2 0x227 JUMPI PUSH2 0x6B2 CALLDATASIZE PUSH1 0x4 PUSH2 0x385 JUMP JUMPDEST PUSH2 0x381 PUSH2 0x5A7 PUSH2 0x696 JUMP JUMPDEST PUSH2 0x258 PUSH1 0x0 PUSH1 0x3 PUSH2 0x632 JUMP JUMPDEST CALLVALUE PUSH2 0x227 JUMPI PUSH2 0x6D9 CALLDATASIZE PUSH1 0x4 PUSH2 0x385 JUMP JUMPDEST PUSH2 0x381 PUSH2 0x5A7 PUSH2 0x6BD JUMP JUMPDEST DUP1 ISZERO ISZERO PUSH2 0x22E JUMP JUMPDEST SWAP1 POP CALLDATALOAD SWAP1 PUSH2 0x242 DUP3 PUSH2 0x6E4 JUMP JUMPDEST SWAP1 PUSH1 0x20 DUP3 DUP3 SUB SLT PUSH2 0x227 JUMPI PUSH2 0x258 SWAP2 PUSH2 0x6EC JUMP JUMPDEST CALLVALUE PUSH2 0x227 JUMPI PUSH2 0x725 PUSH2 0x720 CALLDATASIZE PUSH1 0x4 PUSH2 0x6F9 JUMP JUMPDEST PUSH2 0xFC8 JUMP JUMPDEST PUSH1 0x40 MLOAD STOP JUMPDEST PUSH2 0x258 PUSH1 0x0 PUSH1 0x7 PUSH2 0x632 JUMP JUMPDEST CALLVALUE PUSH2 0x227 JUMPI PUSH2 0x746 CALLDATASIZE PUSH1 0x4 PUSH2 0x385 JUMP JUMPDEST PUSH2 0x381 PUSH2 0x5A7 PUSH2 0x72A JUMP JUMPDEST CALLVALUE PUSH2 0x227 JUMPI PUSH2 0x381 PUSH2 0x5A7 PUSH2 0x767 CALLDATASIZE PUSH1 0x4 PUSH2 0x5D3 JUMP JUMPDEST PUSH2 0x14BF JUMP JUMPDEST PUSH2 0x258 PUSH1 0x0 PUSH1 0x9 PUSH2 0x632 JUMP JUMPDEST CALLVALUE PUSH2 0x227 JUMPI PUSH2 0x788 CALLDATASIZE PUSH1 0x4 PUSH2 0x385 JUMP JUMPDEST PUSH2 0x381 PUSH2 0x5A7 PUSH2 0x76C JUMP JUMPDEST SWAP1 SWAP2 PUSH1 0x60 DUP3 DUP5 SUB SLT PUSH2 0x227 JUMPI PUSH2 0x258 PUSH2 0x7AC DUP5 DUP5 PUSH2 0x5C6 JUMP JUMPDEST SWAP4 PUSH2 0x7BA DUP2 PUSH1 0x20 DUP7 ADD PUSH2 0x235 JUMP JUMPDEST SWAP4 PUSH1 0x40 ADD PUSH2 0x5C6 JUMP JUMPDEST CALLVALUE PUSH2 0x227 JUMPI PUSH2 0x725 PUSH2 0x7D6 CALLDATASIZE PUSH1 0x4 PUSH2 0x793 JUMP JUMPDEST SWAP2 PUSH2 0x1429 JUMP JUMPDEST CALLVALUE PUSH2 0x227 JUMPI PUSH2 0x725 PUSH2 0x7EF CALLDATASIZE PUSH1 0x4 PUSH2 0x244 JUMP JUMPDEST PUSH2 0x1BD0 JUMP JUMPDEST PUSH2 0x258 SWAP2 PUSH1 0x8 MUL SHR JUMPDEST PUSH1 0xFF AND SWAP1 JUMP JUMPDEST SWAP1 PUSH2 0x258 SWAP2 SLOAD PUSH2 0x7F4 JUMP JUMPDEST PUSH2 0x258 PUSH1 0x1 PUSH1 0xE PUSH2 0x803 JUMP JUMPDEST CALLVALUE PUSH2 0x227 JUMPI PUSH2 0x82A CALLDATASIZE PUSH1 0x4 PUSH2 0x385 JUMP JUMPDEST PUSH2 0x381 PUSH2 0x835 PUSH2 0x80E JUMP JUMPDEST PUSH1 0x40 MLOAD SWAP2 DUP3 SWAP2 DUP3 SWAP1 ISZERO ISZERO DUP2 MSTORE PUSH1 0x20 ADD SWAP1 JUMP JUMPDEST PUSH2 0x258 PUSH1 0x0 PUSH1 0x12 PUSH2 0x532 JUMP JUMPDEST CALLVALUE PUSH2 0x227 JUMPI PUSH2 0x863 CALLDATASIZE PUSH1 0x4 PUSH2 0x385 JUMP JUMPDEST PUSH2 0x381 PUSH2 0x580 PUSH2 0x847 JUMP JUMPDEST SWAP2 SWAP1 PUSH1 0x40 DUP4 DUP3 SUB SLT PUSH2 0x227 JUMPI PUSH2 0x258 SWAP1 PUSH2 0x888 DUP2 DUP6 PUSH2 0x235 JUMP JUMPDEST SWAP4 PUSH1 0x20 ADD PUSH2 0x5C6 JUMP JUMPDEST CALLVALUE PUSH2 0x227 JUMPI PUSH2 0x725 PUSH2 0x8A4 CALLDATASIZE PUSH1 0x4 PUSH2 0x86E JUMP JUMPDEST SWAP1 PUSH2 0x2221 JUMP JUMPDEST PUSH2 0x258 PUSH1 0x2 PUSH1 0xE PUSH2 0x803 JUMP JUMPDEST CALLVALUE PUSH2 0x227 JUMPI PUSH2 0x8C6 CALLDATASIZE PUSH1 0x4 PUSH2 0x385 JUMP JUMPDEST PUSH2 0x381 PUSH2 0x835 PUSH2 0x8AA JUMP JUMPDEST PUSH2 0x258 PUSH2 0x258 PUSH2 0x258 SWAP3 SWAP1 JUMP JUMPDEST SWAP1 PUSH2 0x619 SWAP1 PUSH2 0x8D1 JUMP JUMPDEST PUSH2 0x258 SWAP1 DUP2 JUMP JUMPDEST PUSH2 0x258 SWAP1 SLOAD PUSH2 0x8E8 JUMP JUMPDEST PUSH2 0x258 SWAP1 PUSH2 0x7FD JUMP JUMPDEST PUSH2 0x258 SWAP1 SLOAD PUSH2 0x8F9 JUMP JUMPDEST PUSH2 0x258 SWAP1 PUSH1 0x8 SHR PUSH2 0x2B6 JUMP JUMPDEST PUSH2 0x258 SWAP1 SLOAD PUSH2 0x90C JUMP JUMPDEST PUSH2 0x92D SWAP1 PUSH1 0x15 PUSH2 0x8DE JUMP JUMPDEST PUSH2 0x936 DUP2 PUSH2 0x511 JUMP JUMPDEST SWAP2 PUSH2 0x94B PUSH1 0x1 DUP4 ADD SLOAD PUSH1 0x1 PUSH1 0x1 PUSH1 0xA0 SHL SUB AND SWAP1 JUMP JUMPDEST SWAP2 PUSH2 0x958 PUSH1 0x2 DUP3 ADD PUSH2 0x511 JUMP JUMPDEST SWAP2 PUSH2 0x965 PUSH1 0x3 DUP4 ADD PUSH2 0x8EF JUMP JUMPDEST SWAP2 PUSH2 0x972 PUSH1 0x4 DUP3 ADD PUSH2 0x8EF JUMP JUMPDEST SWAP2 PUSH2 0x258 PUSH1 0x6 PUSH2 0x983 DUP2 DUP6 ADD PUSH2 0x902 JUMP JUMPDEST SWAP4 ADD PUSH2 0x918 JUMP JUMPDEST SWAP3 PUSH1 0xC0 SWAP5 SWAP9 SWAP8 SWAP6 PUSH2 0x9E4 PUSH2 0x9DC PUSH2 0x33B SWAP6 PUSH2 0x9EB SWAP5 PUSH2 0x9CF PUSH2 0x9BD PUSH2 0x242 SWAP14 SWAP9 PUSH1 0xE0 DUP13 ADD SWAP1 DUP13 PUSH1 0x0 DUP2 DUP5 SUB SWAP2 ADD MSTORE PUSH2 0x27E JUMP JUMPDEST PUSH1 0x1 PUSH1 0x1 PUSH1 0xA0 SHL SUB SWAP1 SWAP4 AND PUSH1 0x20 DUP12 ADD MSTORE JUMP JUMPDEST DUP9 DUP3 SUB PUSH1 0x40 DUP11 ADD MSTORE PUSH2 0x27E JUMP JUMPDEST SWAP11 PUSH1 0x60 DUP8 ADD MSTORE JUMP JUMPDEST PUSH1 0x80 DUP6 ADD MSTORE JUMP JUMPDEST ISZERO ISZERO PUSH1 0xA0 DUP4 ADD MSTORE JUMP JUMPDEST CALLVALUE PUSH2 0x227 JUMPI PUSH2 0x381 PUSH2 0xA0F PUSH2 0xA0A CALLDATASIZE PUSH1 0x4 PUSH2 0x244 JUMP JUMPDEST PUSH2 0x922 JUMP JUMPDEST SWAP4 PUSH2 0xA1F SWAP8 SWAP6 SWAP8 SWAP4 SWAP2 SWAP4 PUSH1 0x40 MLOAD SWAP1 JUMP JUMPDEST SWAP8 DUP9 SWAP8 DUP9 PUSH2 0x98A JUMP JUMPDEST PUSH2 0x258 PUSH1 0x0 PUSH1 0x13 PUSH2 0x532 JUMP JUMPDEST CALLVALUE PUSH2 0x227 JUMPI PUSH2 0xA44 CALLDATASIZE PUSH1 0x4 PUSH2 0x385 JUMP JUMPDEST PUSH2 0x381 PUSH2 0x580 PUSH2 0xA28 JUMP JUMPDEST PUSH2 0x258 PUSH1 0x0 PUSH1 0xF PUSH2 0x532 JUMP JUMPDEST CALLVALUE PUSH2 0x227 JUMPI PUSH2 0xA6B CALLDATASIZE PUSH1 0x4 PUSH2 0x385 JUMP JUMPDEST PUSH2 0x381 PUSH2 0x580 PUSH2 0xA4F JUMP JUMPDEST SWAP1 PUSH2 0x242 PUSH2 0xA83 PUSH1 0x40 MLOAD SWAP1 JUMP JUMPDEST SWAP3 DUP4 PUSH2 0x4EA JUMP JUMPDEST PUSH8 0xFFFFFFFFFFFFFFFF DUP2 GT PUSH2 0x50C JUMPI PUSH1 0x20 SWAP1 PUSH1 0x1F ADD PUSH1 0x1F NOT AND ADD SWAP1 JUMP JUMPDEST SWAP1 DUP3 PUSH1 0x0 SWAP4 SWAP3 DUP3 CALLDATACOPY ADD MSTORE JUMP JUMPDEST SWAP1 SWAP3 SWAP2 SWAP3 PUSH2 0xAC8 PUSH2 0xAC3 DUP3 PUSH2 0xA8A JUMP JUMPDEST PUSH2 0xA76 JUMP JUMPDEST SWAP4 DUP2 DUP6 MSTORE PUSH1 0x20 DUP6 ADD SWAP1 DUP3 DUP5 ADD GT PUSH2 0x227 JUMPI PUSH2 0x242 SWAP3 PUSH2 0xAA7 JUMP JUMPDEST SWAP1 DUP1 PUSH1 0x1F DUP4 ADD SLT ISZERO PUSH2 0x227 JUMPI DUP2 PUSH1 0x20 PUSH2 0x258 SWAP4 CALLDATALOAD SWAP2 ADD PUSH2 0xAB3 JUMP JUMPDEST SWAP1 SWAP2 PUSH1 0xC0 DUP3 DUP5 SUB SLT PUSH2 0x227 JUMPI DUP2 CALLDATALOAD PUSH8 0xFFFFFFFFFFFFFFFF DUP2 GT PUSH2 0x227 JUMPI DUP4 PUSH2 0xB26 SWAP2 DUP5 ADD PUSH2 0xAE2 JUMP JUMPDEST SWAP3 PUSH2 0xB34 DUP2 PUSH1 0x20 DUP6 ADD PUSH2 0x235 JUMP JUMPDEST SWAP3 PUSH2 0xB42 DUP3 PUSH1 0x40 DUP4 ADD PUSH2 0x5C6 JUMP JUMPDEST SWAP3 PUSH2 0xB50 DUP4 PUSH1 0x60 DUP5 ADD PUSH2 0x5C6 JUMP JUMPDEST SWAP3 PUSH1 0x80 DUP4 ADD CALLDATALOAD SWAP1 PUSH8 0xFFFFFFFFFFFFFFFF DUP3 GT PUSH2 0x227 JUMPI PUSH2 0xB75 DUP2 PUSH2 0x258 SWAP4 DUP7 ADD PUSH2 0xAE2 JUMP JUMPDEST SWAP4 PUSH1 0xA0 ADD PUSH2 0x235 JUMP JUMPDEST CALLVALUE PUSH2 0x227 JUMPI PUSH2 0x725 PUSH2 0xB91 CALLDATASIZE PUSH1 0x4 PUSH2 0xAFD JUMP JUMPDEST SWAP5 SWAP4 SWAP1 SWAP4 SWAP3 SWAP2 SWAP3 PUSH2 0x1B0D JUMP JUMPDEST PUSH2 0x258 PUSH1 0x0 PUSH1 0x16 PUSH2 0x632 JUMP JUMPDEST CALLVALUE PUSH2 0x227 JUMPI PUSH2 0xBB9 CALLDATASIZE PUSH1 0x4 PUSH2 0x385 JUMP JUMPDEST PUSH2 0x381 PUSH2 0x5A7 PUSH2 0xB9D JUMP JUMPDEST PUSH2 0x258 PUSH1 0x0 PUSH1 0x8 PUSH2 0x632 JUMP JUMPDEST CALLVALUE PUSH2 0x227 JUMPI PUSH2 0xBE0 CALLDATASIZE PUSH1 0x4 PUSH2 0x385 JUMP JUMPDEST PUSH2 0x381 PUSH2 0x5A7 PUSH2 0xBC4 JUMP JUMPDEST PUSH2 0x258 PUSH1 0x0 PUSH1 0xE PUSH2 0x803 JUMP JUMPDEST PUSH4 0x4E487B71 PUSH1 0xE0 SHL PUSH1 0x0 MSTORE PUSH1 0x21 PUSH1 0x4 MSTORE PUSH1 0x24 PUSH1 0x0 REVERT JUMPDEST PUSH1 0x3 GT ISZERO PUSH2 0xC17 JUMPI JUMP JUMPDEST PUSH2 0xBF7 JUMP JUMPDEST SWAP1 PUSH2 0x242 DUP3 PUSH2 0xC0D JUMP JUMPDEST PUSH2 0x258 SWAP1 PUSH2 0xC1C JUMP JUMPDEST PUSH2 0x2C2 SWAP1 PUSH2 0xC26 JUMP JUMPDEST PUSH1 0x20 DUP2 ADD SWAP3 SWAP2 PUSH2 0x242 SWAP2 SWAP1 PUSH2 0xC2F JUMP JUMPDEST CALLVALUE PUSH2 0x227 JUMPI PUSH2 0xC58 CALLDATASIZE PUSH1 0x4 PUSH2 0x385 JUMP JUMPDEST PUSH2 0x381 PUSH2 0xC63 PUSH2 0xBEB JUMP JUMPDEST PUSH1 0x40 MLOAD SWAP2 DUP3 SWAP2 DUP3 PUSH2 0xC38 JUMP JUMPDEST PUSH2 0x258 PUSH1 0x0 PUSH1 0xC PUSH2 0x532 JUMP JUMPDEST CALLVALUE PUSH2 0x227 JUMPI PUSH2 0xC8B CALLDATASIZE PUSH1 0x4 PUSH2 0x385 JUMP JUMPDEST PUSH2 0x381 PUSH2 0x580 PUSH2 0xC6F JUMP JUMPDEST PUSH2 0x258 PUSH1 0x0 PUSH1 0xA PUSH2 0x632 JUMP JUMPDEST CALLVALUE PUSH2 0x227 JUMPI PUSH2 0xCB2 CALLDATASIZE PUSH1 0x4 PUSH2 0x385 JUMP JUMPDEST PUSH2 0x381 PUSH2 0x5A7 PUSH2 0xC96 JUMP JUMPDEST PUSH2 0x258 PUSH1 0x0 PUSH1 0x2 PUSH2 0x3A4 JUMP JUMPDEST CALLVALUE PUSH2 0x227 JUMPI PUSH2 0xCD9 CALLDATASIZE PUSH1 0x4 PUSH2 0x385 JUMP JUMPDEST PUSH2 0x381 PUSH2 0x3D6 PUSH2 0xCBD JUMP JUMPDEST PUSH2 0x258 PUSH1 0x0 PUSH1 0x10 PUSH2 0x532 JUMP JUMPDEST CALLVALUE PUSH2 0x227 JUMPI PUSH2 0xD00 CALLDATASIZE PUSH1 0x4 PUSH2 0x385 JUMP JUMPDEST PUSH2 0x381 PUSH2 0x580 PUSH2 0xCE4 JUMP JUMPDEST CALLVALUE PUSH2 0x227 JUMPI PUSH2 0xD1B CALLDATASIZE PUSH1 0x4 PUSH2 0x385 JUMP JUMPDEST PUSH2 0x381 PUSH2 0x835 PUSH2 0x1716 JUMP JUMPDEST CALLVALUE PUSH2 0x227 JUMPI PUSH2 0x725 PUSH2 0xD39 CALLDATASIZE PUSH1 0x4 PUSH2 0x244 JUMP JUMPDEST PUSH2 0xF6B JUMP JUMPDEST CALLVALUE PUSH2 0x227 JUMPI PUSH2 0x725 PUSH2 0xD51 CALLDATASIZE PUSH1 0x4 PUSH2 0x6F9 JUMP JUMPDEST PUSH2 0x1026 JUMP JUMPDEST SWAP15 SWAP14 SWAP13 SWAP12 SWAP10 SWAP9 SWAP8 SWAP6 SWAP4 SWAP2 SWAP3 DUP16 SWAP2 SWAP8 SWAP6 SWAP4 PUSH2 0x200 DUP4 ADD SWAP9 PUSH1 0x0 DUP5 ADD PUSH2 0xD81 SWAP2 PUSH1 0x1 PUSH1 0x1 PUSH1 0xA0 SHL SUB AND SWAP1 MSTORE JUMP JUMPDEST PUSH1 0x1 PUSH1 0x1 PUSH1 0xA0 SHL SUB AND PUSH1 0x20 DUP4 ADD MSTORE PUSH1 0x1 PUSH1 0x1 PUSH1 0xA0 SHL SUB AND PUSH1 0x40 DUP3 ADD MSTORE PUSH1 0x60 ADD MSTORE PUSH1 0x80 DUP14 ADD MSTORE PUSH1 0xA0 DUP13 ADD MSTORE PUSH1 0xC0 DUP12 ADD MSTORE PUSH1 0xE0 DUP11 ADD MSTORE DUP9 DUP2 SUB PUSH2 0x100 DUP11 ADD MSTORE PUSH2 0xDC7 SWAP2 PUSH2 0x27E JUMP JUMPDEST DUP8 DUP2 SUB PUSH2 0x120 DUP10 ADD MSTORE PUSH2 0xDD9 SWAP2 PUSH2 0x27E JUMP JUMPDEST SWAP2 PUSH2 0x140 DUP8 ADD PUSH2 0xDE8 SWAP2 PUSH2 0xC2F JUMP JUMPDEST PUSH2 0x160 DUP7 ADD MSTORE DUP5 DUP2 SUB PUSH2 0x180 DUP7 ADD MSTORE PUSH2 0xE00 SWAP2 PUSH2 0x27E JUMP JUMPDEST DUP4 DUP2 SUB PUSH2 0x1A0 DUP6 ADD MSTORE PUSH2 0xE12 SWAP2 PUSH2 0x27E JUMP JUMPDEST DUP3 DUP2 SUB PUSH2 0x1C0 DUP5 ADD MSTORE PUSH2 0xE24 SWAP2 PUSH2 0x27E JUMP JUMPDEST SWAP1 DUP1 DUP3 SUB SWAP1 PUSH2 0x1E0 ADD MSTORE PUSH2 0x258 SWAP2 PUSH2 0x27E JUMP JUMPDEST CALLVALUE PUSH2 0x227 JUMPI PUSH2 0xE47 CALLDATASIZE PUSH1 0x4 PUSH2 0x385 JUMP JUMPDEST PUSH2 0xE7C PUSH2 0xE52 PUSH2 0x2234 JUMP JUMPDEST SWAP15 PUSH2 0xE71 SWAP15 SWAP2 SWAP15 SWAP14 SWAP3 SWAP14 SWAP13 SWAP4 SWAP13 SWAP12 SWAP5 SWAP12 SWAP11 SWAP6 SWAP11 SWAP10 SWAP7 SWAP10 SWAP9 SWAP8 SWAP9 PUSH1 0x40 MLOAD SWAP1 JUMP JUMPDEST PUSH1 0x80 MSTORE PUSH1 0x80 MLOAD PUSH2 0xD56 JUMP JUMPDEST PUSH1 0x80 MLOAD SWAP1 SUB PUSH1 0x80 MLOAD RETURN JUMPDEST ISZERO PUSH2 0xE8D JUMPI JUMP JUMPDEST PUSH1 0x40 MLOAD PUSH3 0x461BCD PUSH1 0xE5 SHL DUP2 MSTORE PUSH1 0x20 PUSH1 0x4 DUP3 ADD MSTORE PUSH1 0x36 PUSH1 0x24 DUP3 ADD MSTORE PUSH32 0x596F7520646F6E7420686176652061646D696E2061636365737320746F207065 PUSH1 0x44 DUP3 ADD MSTORE PUSH32 0x72666F726D2074686973206F7065726174696F6E202100000000000000000000 PUSH1 0x64 DUP3 ADD MSTORE PUSH1 0x84 SWAP1 REVERT JUMPDEST PUSH2 0x242 SWAP1 PUSH2 0xF30 CALLER PUSH2 0xF2A PUSH2 0xF1D PUSH2 0xF18 PUSH1 0x1 SLOAD PUSH1 0x1 PUSH1 0x1 PUSH1 0xA0 SHL SUB AND SWAP1 JUMP JUMPDEST PUSH2 0x606 JUMP JUMPDEST SWAP2 PUSH1 0x1 PUSH1 0x1 PUSH1 0xA0 SHL SUB AND SWAP1 JUMP JUMPDEST EQ PUSH2 0xE86 JUMP JUMPDEST PUSH2 0xF60 JUMP JUMPDEST SWAP1 PUSH1 0x0 NOT SWAP1 JUMPDEST SWAP2 DUP2 NOT AND SWAP2 AND OR SWAP1 JUMP JUMPDEST SWAP1 PUSH2 0xF55 PUSH2 0x258 PUSH2 0xF5C SWAP3 PUSH2 0x8D1 JUMP JUMPDEST DUP3 SLOAD PUSH2 0xF35 JUMP JUMPDEST SWAP1 SSTORE JUMP JUMPDEST PUSH2 0x242 SWAP1 PUSH1 0x3 PUSH2 0xF45 JUMP JUMPDEST PUSH2 0x242 SWAP1 PUSH2 0xEF8 JUMP JUMPDEST PUSH2 0x242 SWAP1 PUSH2 0xF94 CALLER PUSH2 0xF2A PUSH2 0xF1D PUSH2 0xF18 PUSH1 0x1 SLOAD PUSH1 0x1 PUSH1 0x1 PUSH1 0xA0 SHL SUB AND SWAP1 JUMP JUMPDEST PUSH2 0xFBD JUMP JUMPDEST SWAP1 PUSH2 0xFF00 SWAP1 PUSH1 0x8 SHL PUSH2 0xF3B JUMP JUMPDEST SWAP1 PUSH2 0xFB6 PUSH2 0x258 PUSH2 0xF5C SWAP3 ISZERO ISZERO SWAP1 JUMP JUMPDEST DUP3 SLOAD PUSH2 0xF99 JUMP JUMPDEST PUSH2 0x242 SWAP1 PUSH1 0xE PUSH2 0xFA6 JUMP JUMPDEST PUSH2 0x242 SWAP1 PUSH2 0xF74 JUMP JUMPDEST PUSH2 0x242 SWAP1 PUSH2 0xFF1 CALLER PUSH2 0xF2A PUSH2 0xF1D PUSH2 0xF18 PUSH1 0x1 SLOAD PUSH1 0x1 PUSH1 0x1 PUSH1 0xA0 SHL SUB AND SWAP1 JUMP JUMPDEST PUSH2 0x101B JUMP JUMPDEST SWAP1 PUSH3 0xFF0000 SWAP1 PUSH1 0x10 SHL PUSH2 0xF3B JUMP JUMPDEST SWAP1 PUSH2 0x1014 PUSH2 0x258 PUSH2 0xF5C SWAP3 ISZERO ISZERO SWAP1 JUMP JUMPDEST DUP3 SLOAD PUSH2 0xFF6 JUMP JUMPDEST PUSH2 0x242 SWAP1 PUSH1 0xE PUSH2 0x1004 JUMP JUMPDEST PUSH2 0x242 SWAP1 PUSH2 0xFD1 JUMP JUMPDEST PUSH2 0x258 SWAP1 PUSH1 0x10 SHR PUSH2 0x7FD JUMP JUMPDEST PUSH2 0x258 SWAP1 SLOAD PUSH2 0x102F JUMP JUMPDEST ISZERO PUSH2 0x104C JUMPI JUMP JUMPDEST PUSH1 0x40 MLOAD PUSH3 0x461BCD PUSH1 0xE5 SHL DUP2 MSTORE PUSH1 0x20 PUSH1 0x4 DUP3 ADD MSTORE PUSH1 0x18 PUSH1 0x24 DUP3 ADD MSTORE PUSH32 0x50726F6A656374206D7573742062652076657269666965640000000000000000 PUSH1 0x44 DUP3 ADD MSTORE PUSH1 0x64 SWAP1 REVERT JUMPDEST SWAP1 PUSH2 0x242 SWAP3 SWAP2 PUSH2 0x10B6 PUSH2 0x10A4 PUSH1 0xE PUSH2 0x103B JUMP JUMPDEST PUSH2 0x10B0 PUSH1 0x1 JUMPDEST SWAP2 ISZERO ISZERO SWAP1 JUMP JUMPDEST EQ PUSH2 0x1045 JUMP JUMPDEST PUSH2 0x112D JUMP JUMPDEST ISZERO PUSH2 0x10C2 JUMPI JUMP JUMPDEST PUSH1 0x40 MLOAD PUSH3 0x461BCD PUSH1 0xE5 SHL DUP2 MSTORE PUSH1 0x20 PUSH1 0x4 DUP3 ADD MSTORE PUSH1 0x3C PUSH1 0x24 DUP3 ADD MSTORE PUSH32 0x596F7520646F206E6F74206861766520746865206D6173746572207269676874 PUSH1 0x44 DUP3 ADD MSTORE PUSH32 0x7320746F20706572666F726D2074686973206F7065726174696F6E2100000000 PUSH1 0x64 DUP3 ADD MSTORE PUSH1 0x84 SWAP1 REVERT JUMPDEST SWAP1 PUSH2 0x242 SWAP3 SWAP2 PUSH2 0x1155 CALLER PUSH2 0x114F PUSH2 0xF1D PUSH2 0xF18 PUSH1 0x0 SLOAD PUSH1 0x1 PUSH1 0x1 PUSH1 0xA0 SHL SUB AND SWAP1 JUMP JUMPDEST EQ PUSH2 0x10BB JUMP JUMPDEST PUSH2 0x1254 JUMP JUMPDEST PUSH4 0x4E487B71 PUSH1 0xE0 SHL PUSH1 0x0 MSTORE PUSH1 0x11 PUSH1 0x4 MSTORE PUSH1 0x24 PUSH1 0x0 REVERT JUMPDEST PUSH1 0x0 NOT DUP2 EQ PUSH2 0x117F JUMPI PUSH1 0x1 ADD SWAP1 JUMP JUMPDEST PUSH2 0x115A JUMP JUMPDEST SWAP2 SWAP1 DUP3 ADD DUP1 SWAP3 GT PUSH2 0x117F JUMPI JUMP JUMPDEST SWAP1 POP MLOAD SWAP1 PUSH2 0x242 DUP3 PUSH2 0x22C JUMP JUMPDEST SWAP1 PUSH1 0x20 DUP3 DUP3 SUB SLT PUSH2 0x227 JUMPI PUSH2 0x258 SWAP2 PUSH2 0x1191 JUMP JUMPDEST PUSH1 0x1 PUSH1 0x1 PUSH1 0xA0 SHL SUB SWAP1 SWAP2 AND DUP2 MSTORE PUSH1 0x40 DUP2 ADD SWAP3 SWAP2 PUSH2 0x242 SWAP2 PUSH1 0x20 SWAP1 PUSH2 0x33B JUMP JUMPDEST PUSH1 0x40 MLOAD RETURNDATASIZE PUSH1 0x0 DUP3 RETURNDATACOPY RETURNDATASIZE SWAP1 REVERT JUMPDEST ISZERO PUSH2 0x227 JUMPI JUMP JUMPDEST SWAP1 POP MLOAD SWAP1 PUSH2 0x242 DUP3 PUSH2 0x6E4 JUMP JUMPDEST SWAP1 PUSH1 0x20 DUP3 DUP3 SUB SLT PUSH2 0x227 JUMPI PUSH2 0x258 SWAP2 PUSH2 0x11E4 JUMP JUMPDEST PUSH1 0x1 PUSH1 0x1 PUSH1 0xA0 SHL SUB SWAP2 DUP3 AND DUP2 MSTORE SWAP2 AND PUSH1 0x20 DUP3 ADD MSTORE PUSH1 0x60 DUP2 ADD SWAP3 SWAP2 PUSH2 0x242 SWAP2 PUSH1 0x40 ADD MSTORE JUMP JUMPDEST ADD MSTORE JUMP JUMPDEST PUSH1 0x1 PUSH1 0x1 PUSH1 0xA0 SHL SUB SWAP1 SWAP2 AND DUP2 MSTORE PUSH1 0x60 DUP2 ADD SWAP4 SWAP3 PUSH2 0x242 SWAP3 SWAP1 SWAP2 PUSH1 0x40 SWAP2 PUSH2 0x1229 SWAP1 PUSH1 0x20 DUP4 ADD MSTORE JUMP JUMPDEST SWAP2 PUSH2 0x12C2 PUSH1 0x14 SWAP2 PUSH2 0x12AA PUSH2 0x1292 DUP7 PUSH2 0x1274 PUSH2 0x126F DUP3 DUP9 PUSH2 0x60F JUMP JUMPDEST PUSH2 0x8EF JUMP JUMPDEST SWAP6 PUSH1 0x0 SWAP7 PUSH2 0x1288 PUSH2 0x1284 DUP10 PUSH2 0x8D1 JUMP JUMPDEST SWAP2 SWAP1 JUMP JUMPDEST EQ PUSH2 0x1408 JUMPI PUSH2 0x60F JUMP JUMPDEST PUSH2 0x12A4 DUP7 PUSH2 0x129F DUP4 PUSH2 0x8EF JUMP JUMPDEST PUSH2 0x1184 JUMP JUMPDEST SWAP1 PUSH2 0xF45 JUMP JUMPDEST PUSH2 0xF18 PUSH2 0x12BB DUP6 PUSH2 0x129F PUSH1 0xA PUSH2 0x8EF JUMP JUMPDEST PUSH1 0xA PUSH2 0xF45 JUMP JUMPDEST SWAP1 PUSH4 0xDD62ED3E SWAP2 PUSH2 0x12D2 ADDRESS PUSH2 0x606 JUMP JUMPDEST PUSH2 0x12E5 PUSH2 0x12DE PUSH1 0x40 MLOAD SWAP1 JUMP JUMPDEST SWAP5 PUSH1 0xE0 SHL SWAP1 JUMP JUMPDEST DUP5 MSTORE PUSH1 0x20 DUP5 DUP1 PUSH2 0x12F9 DUP5 DUP11 PUSH1 0x4 DUP5 ADD PUSH2 0x11B2 JUMP JUMPDEST SUB DUP2 DUP6 GAS STATICCALL SWAP2 DUP3 ISZERO PUSH2 0x13D6 JUMPI PUSH2 0x131D PUSH1 0x20 SWAP4 DUP8 SWAP7 DUP7 SWAP2 PUSH2 0x13DB JUMPI JUMPDEST POP DUP7 GT ISZERO PUSH2 0x11DD JUMP JUMPDEST PUSH2 0x133F DUP5 PUSH4 0x23B872DD PUSH2 0x134B PUSH2 0x1332 PUSH1 0x40 MLOAD SWAP1 JUMP JUMPDEST SWAP9 DUP10 SWAP7 DUP8 SWAP6 DUP7 SWAP5 PUSH1 0xE0 SHL SWAP1 JUMP JUMPDEST DUP5 MSTORE DUP13 PUSH1 0x4 DUP6 ADD PUSH2 0x1205 JUMP JUMPDEST SUB SWAP3 GAS CALL SWAP1 DUP2 ISZERO PUSH2 0x13D6 JUMPI POP PUSH2 0x13AA JUMPI JUMPDEST POP PUSH2 0x1367 PUSH1 0xA PUSH2 0x8EF JUMP JUMPDEST SWAP2 PUSH2 0x139F PUSH32 0x5CDC4AB8D637538EAD6CC1904D4160343656C8C82BD266635CFD31AC008FFFE0 SWAP4 PUSH2 0x1396 PUSH1 0x40 MLOAD SWAP1 JUMP JUMPDEST SWAP4 DUP5 SWAP4 DUP5 PUSH2 0x122D JUMP JUMPDEST SUB SWAP1 LOG1 PUSH2 0x242 PUSH2 0x1454 JUMP JUMPDEST PUSH2 0x13CA SWAP1 PUSH1 0x20 RETURNDATASIZE DUP2 GT PUSH2 0x13CF JUMPI JUMPDEST PUSH2 0x13C2 DUP2 DUP4 PUSH2 0x4EA JUMP JUMPDEST DUP2 ADD SWAP1 PUSH2 0x11F1 JUMP JUMPDEST PUSH2 0x135C JUMP JUMPDEST POP RETURNDATASIZE PUSH2 0x13B8 JUMP JUMPDEST PUSH2 0x11D1 JUMP JUMPDEST PUSH2 0x13FB SWAP2 POP DUP6 RETURNDATASIZE DUP2 GT PUSH2 0x1401 JUMPI JUMPDEST PUSH2 0x13F3 DUP2 DUP4 PUSH2 0x4EA JUMP JUMPDEST DUP2 ADD SWAP1 PUSH2 0x119E JUMP JUMPDEST CODESIZE PUSH2 0x1314 JUMP JUMPDEST POP RETURNDATASIZE PUSH2 0x13E9 JUMP JUMPDEST PUSH2 0x1424 PUSH2 0x141D PUSH2 0x1418 PUSH1 0xB PUSH2 0x8EF JUMP JUMPDEST PUSH2 0x1170 JUMP JUMPDEST PUSH1 0xB PUSH2 0xF45 JUMP JUMPDEST PUSH2 0x60F JUMP JUMPDEST SWAP1 PUSH2 0x242 SWAP3 SWAP2 PUSH2 0x1091 JUMP JUMPDEST SWAP1 PUSH1 0xFF SWAP1 PUSH2 0xF3B JUMP JUMPDEST SWAP1 PUSH2 0x144D PUSH2 0x258 PUSH2 0xF5C SWAP3 PUSH2 0xC26 JUMP JUMPDEST DUP3 SLOAD PUSH2 0x1434 JUMP JUMPDEST PUSH2 0x145E PUSH1 0xA PUSH2 0x8EF JUMP JUMPDEST PUSH2 0x146E PUSH2 0x1284 PUSH2 0x258 PUSH1 0x8 PUSH2 0x8EF JUMP JUMPDEST LT PUSH2 0x148A JUMPI PUSH2 0x147F PUSH1 0x2 PUSH1 0xE PUSH2 0x143D JUMP JUMPDEST PUSH2 0x242 TIMESTAMP PUSH1 0x9 PUSH2 0xF45 JUMP JUMPDEST TIMESTAMP PUSH2 0x149B PUSH2 0x1284 PUSH2 0x258 PUSH1 0x7 PUSH2 0x8EF JUMP JUMPDEST GT ISZERO PUSH2 0x147F JUMPI PUSH2 0x14AD PUSH1 0x1 PUSH1 0xE PUSH2 0x143D JUMP JUMPDEST PUSH2 0x147F JUMP JUMPDEST PUSH2 0x14BB ADDRESS PUSH2 0x606 JUMP JUMPDEST BALANCE SWAP1 JUMP JUMPDEST PUSH1 0x20 PUSH2 0x14D6 PUSH2 0x1516 SWAP3 PUSH2 0x14D0 PUSH1 0x0 SWAP1 JUMP JUMPDEST POP PUSH2 0x606 JUMP JUMPDEST PUSH4 0x70A08231 SWAP1 PUSH2 0x14FF PUSH2 0x14E8 ADDRESS PUSH2 0x606 JUMP JUMPDEST SWAP3 PUSH2 0x14F2 PUSH1 0x40 MLOAD SWAP1 JUMP JUMPDEST SWAP6 DUP7 SWAP5 DUP6 SWAP4 DUP5 SWAP4 PUSH1 0xE0 SHL SWAP1 JUMP JUMPDEST DUP4 MSTORE PUSH1 0x1 PUSH1 0x1 PUSH1 0xA0 SHL SUB AND PUSH1 0x4 DUP4 ADD MSTORE PUSH1 0x24 DUP3 ADD SWAP1 JUMP JUMPDEST SUB SWAP2 GAS STATICCALL SWAP1 DUP2 ISZERO PUSH2 0x13D6 JUMPI PUSH1 0x0 SWAP2 PUSH2 0x152C JUMPI POP SWAP1 JUMP JUMPDEST PUSH2 0x258 SWAP2 POP PUSH1 0x20 RETURNDATASIZE DUP2 GT PUSH2 0x1401 JUMPI PUSH2 0x13F3 DUP2 DUP4 PUSH2 0x4EA JUMP JUMPDEST ISZERO PUSH2 0x154B JUMPI JUMP JUMPDEST PUSH1 0x40 MLOAD PUSH3 0x461BCD PUSH1 0xE5 SHL DUP2 MSTORE PUSH1 0x20 PUSH1 0x4 DUP3 ADD MSTORE PUSH1 0xD PUSH1 0x24 DUP3 ADD MSTORE PUSH32 0x496E76616C696420737461746500000000000000000000000000000000000000 PUSH1 0x44 DUP3 ADD MSTORE PUSH1 0x64 SWAP1 REVERT JUMPDEST ISZERO PUSH2 0x1597 JUMPI JUMP JUMPDEST PUSH1 0x40 MLOAD PUSH3 0x461BCD PUSH1 0xE5 SHL DUP2 MSTORE PUSH1 0x20 PUSH1 0x4 DUP3 ADD MSTORE PUSH1 0x15 PUSH1 0x24 DUP3 ADD MSTORE PUSH32 0x446561646C696E65206861732070617373656420210000000000000000000000 PUSH1 0x44 DUP3 ADD MSTORE PUSH1 0x64 SWAP1 REVERT JUMPDEST PUSH2 0x258 SWAP1 PUSH2 0x1607 PUSH1 0x1 PUSH2 0x1601 PUSH2 0x15FB PUSH2 0x15F5 PUSH1 0xE PUSH2 0x902 JUMP JUMPDEST SWAP3 PUSH2 0xC1C JUMP JUMPDEST SWAP2 PUSH2 0xC1C JUMP JUMPDEST EQ PUSH2 0x1544 JUMP JUMPDEST PUSH2 0x1621 TIMESTAMP PUSH2 0x161B PUSH2 0x1284 PUSH2 0x258 PUSH1 0x7 PUSH2 0x8EF JUMP JUMPDEST LT PUSH2 0x1590 JUMP JUMPDEST PUSH2 0x1698 JUMP JUMPDEST ISZERO PUSH2 0x162D JUMPI JUMP JUMPDEST PUSH1 0x40 MLOAD PUSH3 0x461BCD PUSH1 0xE5 SHL DUP2 MSTORE PUSH1 0x20 PUSH1 0x4 DUP3 ADD MSTORE PUSH1 0x26 PUSH1 0x24 DUP3 ADD MSTORE PUSH32 0x596F7520646F6E74206861766520616E7920636F6E747269627574656420616D PUSH1 0x44 DUP3 ADD MSTORE PUSH32 0x6F756E7420210000000000000000000000000000000000000000000000000000 PUSH1 0x64 DUP3 ADD MSTORE PUSH1 0x84 SWAP1 REVERT JUMPDEST POP CALLER PUSH1 0x14 PUSH2 0x16A9 PUSH2 0x126F DUP4 DUP4 PUSH2 0x60F JUMP JUMPDEST PUSH2 0x16C1 PUSH1 0x0 SWAP2 PUSH2 0x16BB PUSH2 0x1284 DUP5 PUSH2 0x8D1 JUMP JUMPDEST GT PUSH2 0x1626 JUMP JUMPDEST DUP1 DUP1 DUP1 DUP1 PUSH2 0x16D1 PUSH2 0xF18 DUP9 PUSH2 0x606 JUMP JUMPDEST PUSH2 0x16DE PUSH2 0x126F DUP10 DUP10 PUSH2 0x60F JUMP JUMPDEST SWAP1 DUP3 DUP3 ISZERO PUSH2 0x170D JUMPI JUMPDEST CALL ISZERO PUSH2 0x13D6 JUMPI PUSH2 0x1708 SWAP3 PUSH2 0x16FD PUSH2 0x1703 SWAP3 PUSH2 0x8D1 JUMP JUMPDEST SWAP3 PUSH2 0x60F JUMP JUMPDEST PUSH2 0xF45 JUMP JUMPDEST PUSH1 0x1 SWAP1 JUMP JUMPDEST POP PUSH2 0x8FC PUSH2 0x16E7 JUMP JUMPDEST PUSH2 0x258 PUSH1 0x0 PUSH2 0x15DC JUMP JUMPDEST ISZERO PUSH2 0x1727 JUMPI JUMP JUMPDEST PUSH1 0x40 MLOAD PUSH3 0x461BCD PUSH1 0xE5 SHL DUP2 MSTORE PUSH1 0x20 PUSH1 0x4 DUP3 ADD MSTORE PUSH1 0x38 PUSH1 0x24 DUP3 ADD MSTORE PUSH32 0x596F7520646F6E7420686176652063726561746F722061636365737320746F20 PUSH1 0x44 DUP3 ADD MSTORE PUSH32 0x706572666F726D2074686973206F7065726174696F6E20210000000000000000 PUSH1 0x64 DUP3 ADD MSTORE PUSH1 0x84 SWAP1 REVERT JUMPDEST SWAP1 PUSH2 0x242 SWAP6 SWAP5 SWAP4 SWAP3 SWAP2 PUSH2 0x17BD CALLER PUSH2 0x17B7 PUSH2 0xF1D PUSH2 0xF18 PUSH1 0x4 SLOAD PUSH1 0x1 PUSH1 0x1 PUSH1 0xA0 SHL SUB AND SWAP1 JUMP JUMPDEST EQ PUSH2 0x1720 JUMP JUMPDEST SWAP1 PUSH2 0x242 SWAP6 SWAP5 SWAP4 SWAP3 SWAP2 PUSH2 0x17DB PUSH1 0x2 PUSH2 0x1601 PUSH2 0x15FB PUSH2 0x15F5 PUSH1 0xE PUSH2 0x902 JUMP JUMPDEST PUSH2 0x17EF TIMESTAMP PUSH2 0x161B PUSH2 0x1284 PUSH2 0x258 PUSH1 0x7 PUSH2 0x8EF JUMP JUMPDEST PUSH2 0x1A53 JUMP JUMPDEST SWAP2 SWAP1 PUSH1 0x8 PUSH2 0xF3B SWAP2 MUL SWAP2 PUSH2 0x1809 PUSH1 0x0 NOT DUP5 SHL SWAP1 JUMP JUMPDEST SWAP3 SHL SWAP1 JUMP JUMPDEST SWAP2 SWAP1 PUSH2 0x181F PUSH2 0x258 PUSH2 0xF5C SWAP4 PUSH2 0x8D1 JUMP JUMPDEST SWAP1 DUP4 SLOAD PUSH2 0x17F4 JUMP JUMPDEST PUSH2 0x242 SWAP2 PUSH1 0x0 SWAP2 PUSH2 0x180E JUMP JUMPDEST DUP2 DUP2 LT PUSH2 0x183E JUMPI POP POP JUMP JUMPDEST DUP1 PUSH2 0x184C PUSH1 0x0 PUSH1 0x1 SWAP4 PUSH2 0x1827 JUMP JUMPDEST ADD PUSH2 0x1833 JUMP JUMPDEST SWAP2 SWAP1 PUSH1 0x1F DUP2 GT PUSH2 0x1861 JUMPI POP POP POP JUMP JUMPDEST PUSH2 0x1873 PUSH2 0x242 SWAP4 PUSH1 0x0 MSTORE PUSH1 0x20 PUSH1 0x0 KECCAK256 SWAP1 JUMP JUMPDEST SWAP1 PUSH1 0x20 PUSH1 0x1F DUP5 ADD DUP2 SWAP1 DIV DUP4 ADD SWAP4 LT PUSH2 0x1895 JUMPI JUMPDEST PUSH1 0x20 PUSH1 0x1F SWAP1 SWAP2 ADD DIV ADD SWAP1 PUSH2 0x1833 JUMP JUMPDEST SWAP1 SWAP2 POP DUP2 SWAP1 PUSH2 0x1886 JUMP JUMPDEST SWAP1 PUSH2 0x18A8 DUP2 MLOAD SWAP1 JUMP JUMPDEST SWAP1 PUSH8 0xFFFFFFFFFFFFFFFF DUP3 GT PUSH2 0x50C JUMPI PUSH2 0x18CC DUP3 PUSH2 0x18C6 DUP6 SLOAD PUSH2 0x41C JUMP JUMPDEST DUP6 PUSH2 0x1852 JUMP JUMPDEST PUSH1 0x20 SWAP1 PUSH1 0x1F DUP4 GT PUSH1 0x1 EQ PUSH2 0x1907 JUMPI PUSH2 0xF5C SWAP3 SWAP2 PUSH1 0x0 SWAP2 DUP4 PUSH2 0x18FC JUMPI JUMPDEST POP POP PUSH1 0x0 NOT PUSH1 0x8 DUP4 MUL SHR NOT AND SWAP1 PUSH1 0x2 MUL OR SWAP1 JUMP JUMPDEST ADD MLOAD SWAP1 POP CODESIZE DUP1 PUSH2 0x18E8 JUMP JUMPDEST PUSH1 0x1F NOT DUP4 AND SWAP2 PUSH2 0x191C DUP6 PUSH1 0x0 MSTORE PUSH1 0x20 PUSH1 0x0 KECCAK256 SWAP1 JUMP JUMPDEST SWAP3 PUSH1 0x0 JUMPDEST DUP2 DUP2 LT PUSH2 0x195A JUMPI POP SWAP2 PUSH1 0x2 SWAP4 SWAP2 DUP6 PUSH1 0x1 SWAP7 SWAP5 LT PUSH2 0x1941 JUMPI JUMPDEST POP POP POP MUL ADD SWAP1 SSTORE JUMP JUMPDEST ADD MLOAD PUSH1 0x0 NOT PUSH1 0x8 PUSH1 0x1F DUP6 AND MUL SHR NOT AND SWAP1 SSTORE CODESIZE DUP1 DUP1 PUSH2 0x1938 JUMP JUMPDEST SWAP2 SWAP4 PUSH1 0x20 PUSH1 0x1 DUP2 SWAP3 DUP8 DUP8 ADD MLOAD DUP2 SSTORE ADD SWAP6 ADD SWAP3 ADD PUSH2 0x1920 JUMP JUMPDEST SWAP1 PUSH2 0x242 SWAP2 PUSH2 0x189F JUMP JUMPDEST SWAP1 PUSH1 0x1 PUSH1 0x1 PUSH1 0xA0 SHL SUB SWAP1 PUSH2 0xF3B JUMP JUMPDEST SWAP1 PUSH2 0x199B PUSH2 0x258 PUSH2 0xF5C SWAP3 PUSH2 0x606 JUMP JUMPDEST DUP3 SLOAD PUSH2 0x197C JUMP JUMPDEST SWAP1 PUSH2 0x144D PUSH2 0x258 PUSH2 0xF5C SWAP3 ISZERO ISZERO SWAP1 JUMP JUMPDEST SWAP1 PUSH21 0xFFFFFFFFFFFFFFFFFFFFFFFFFFFFFFFFFFFFFFFF00 SWAP1 PUSH1 0x8 SHL PUSH2 0xF3B JUMP JUMPDEST SWAP1 PUSH2 0x19E2 PUSH2 0x258 PUSH2 0xF5C SWAP3 PUSH2 0x606 JUMP JUMPDEST DUP3 SLOAD PUSH2 0x19B2 JUMP JUMPDEST PUSH2 0x2C2 SWAP1 PUSH2 0x8D1 JUMP JUMPDEST PUSH2 0x2C2 SWAP1 PUSH2 0x606 JUMP JUMPDEST SWAP3 PUSH1 0xC0 SWAP5 SWAP9 SWAP8 SWAP6 PUSH2 0x1A42 PUSH2 0x9DC PUSH2 0x9EB SWAP4 PUSH2 0x1A34 PUSH2 0x242 SWAP12 SWAP7 PUSH2 0x1A4C SWAP9 PUSH2 0x1A27 PUSH1 0xE0 DUP13 ADD SWAP3 PUSH1 0x0 DUP14 ADD MSTORE JUMP JUMPDEST DUP11 DUP3 SUB PUSH1 0x20 DUP13 ADD MSTORE PUSH2 0x27E JUMP JUMPDEST SWAP1 DUP9 DUP3 SUB PUSH1 0x40 DUP11 ADD MSTORE PUSH2 0x27E JUMP JUMPDEST PUSH1 0x80 DUP6 ADD SWAP1 PUSH2 0x19E9 JUMP JUMPDEST ADD SWAP1 PUSH2 0x19F2 JUMP JUMPDEST SWAP4 SWAP5 SWAP3 PUSH2 0x1A80 PUSH2 0x1A6C PUSH2 0x258 PUSH2 0x1B08 SWAP6 SWAP5 SWAP7 PUSH1 0x15 PUSH2 0x8DE JUMP JUMPDEST SWAP2 PUSH2 0x1A77 DUP8 DUP5 PUSH2 0x1972 JUMP JUMPDEST PUSH1 0x1 DUP4 ADD PUSH2 0x198B JUMP JUMPDEST PUSH2 0x1A8D DUP7 PUSH1 0x2 DUP4 ADD PUSH2 0x1972 JUMP JUMPDEST PUSH2 0x1A9A DUP5 PUSH1 0x3 DUP4 ADD PUSH2 0xF45 JUMP JUMPDEST PUSH2 0x1AC8 DUP3 PUSH1 0x6 PUSH1 0x0 SWAP4 PUSH2 0x1AB8 PUSH2 0x1AAF DUP7 PUSH2 0x8D1 JUMP JUMPDEST PUSH1 0x4 DUP4 ADD PUSH2 0xF45 JUMP JUMPDEST ADD PUSH2 0x1AC3 DUP5 DUP3 PUSH2 0x19A2 JUMP JUMPDEST PUSH2 0x19D2 JUMP JUMPDEST DUP1 PUSH2 0x1AD3 PUSH1 0x16 PUSH2 0x8EF JUMP JUMPDEST SWAP5 PUSH32 0x4155121C72CA95297A55D3963DAAC6D430E184F4FC497CE898B36EE9A834EEC1 SWAP8 PUSH2 0x1AFF PUSH1 0x40 MLOAD SWAP1 JUMP JUMPDEST SWAP8 DUP9 SWAP8 DUP9 PUSH2 0x19FB JUMP JUMPDEST SUB SWAP1 LOG1 JUMP JUMPDEST SWAP1 PUSH2 0x242 SWAP6 SWAP5 SWAP4 SWAP3 SWAP2 PUSH2 0x1792 JUMP JUMPDEST ISZERO PUSH2 0x1B22 JUMPI JUMP JUMPDEST PUSH1 0x40 MLOAD PUSH3 0x461BCD PUSH1 0xE5 SHL DUP2 MSTORE PUSH1 0x20 PUSH1 0x4 DUP3 ADD MSTORE PUSH1 0x1B PUSH1 0x24 DUP3 ADD MSTORE PUSH32 0x4F6E6C7920636F6E7472696275746F722063616E20766F746520210000000000 PUSH1 0x44 DUP3 ADD MSTORE PUSH1 0x64 SWAP1 REVERT JUMPDEST ISZERO PUSH2 0x1B6E JUMPI JUMP JUMPDEST PUSH1 0x40 MLOAD PUSH3 0x461BCD PUSH1 0xE5 SHL DUP2 MSTORE PUSH1 0x20 PUSH1 0x4 DUP3 ADD MSTORE PUSH1 0x13 PUSH1 0x24 DUP3 ADD MSTORE PUSH32 0x596F7520616C726561647920766F746564202100000000000000000000000000 PUSH1 0x44 DUP3 ADD MSTORE PUSH1 0x64 SWAP1 REVERT JUMPDEST PUSH1 0x1 PUSH1 0x1 PUSH1 0xA0 SHL SUB SWAP1 SWAP2 AND DUP2 MSTORE PUSH1 0x40 DUP2 ADD SWAP3 SWAP2 PUSH2 0x242 SWAP2 PUSH1 0x20 ADD MSTORE JUMP JUMPDEST CALLER SWAP1 PUSH2 0x1C6D SWAP1 PUSH2 0x126F PUSH2 0x1C67 PUSH1 0x4 PUSH2 0x1C5B DUP7 PUSH2 0x1C56 PUSH2 0x1C17 PUSH2 0x258 PUSH2 0x1BF7 DUP9 DUP6 PUSH1 0x14 PUSH2 0x60F JUMP JUMPDEST SWAP9 PUSH2 0x1C10 PUSH1 0x0 SWAP11 PUSH2 0x1C0A PUSH2 0x1284 DUP14 PUSH2 0x8D1 JUMP JUMPDEST GT PUSH2 0x1B1B JUMP JUMPDEST PUSH1 0x15 PUSH2 0x8DE JUMP JUMPDEST SWAP7 PUSH2 0x1C44 PUSH1 0x5 DUP10 ADD SWAP2 PUSH2 0x1C3E PUSH2 0x10AA PUSH2 0x1C38 PUSH2 0x1C33 DUP9 DUP8 PUSH2 0x60F JUMP JUMPDEST PUSH2 0x902 JUMP JUMPDEST SWAP3 ISZERO ISZERO SWAP1 JUMP JUMPDEST EQ PUSH2 0x1B67 JUMP JUMPDEST PUSH2 0x1C51 PUSH1 0x1 SWAP4 DUP5 SWAP3 PUSH2 0x60F JUMP JUMPDEST PUSH2 0x19A2 JUMP JUMPDEST PUSH2 0x8D1 JUMP JUMPDEST SWAP4 ADD SWAP3 PUSH2 0x129F DUP5 PUSH2 0x8EF JUMP JUMPDEST DUP3 PUSH2 0xF45 JUMP JUMPDEST PUSH32 0xA2925E4595BF873FA82C22A1A89809777347023BF2B502D32710157A5EB8199C SWAP2 PUSH2 0x1B08 PUSH2 0x1C9B PUSH1 0x40 MLOAD SWAP1 JUMP JUMPDEST SWAP3 DUP4 SWAP3 DUP4 PUSH2 0x1BB3 JUMP JUMPDEST SWAP1 PUSH2 0x242 SWAP2 PUSH2 0x1CC5 CALLER PUSH2 0x17B7 PUSH2 0xF1D PUSH2 0xF18 PUSH1 0x4 SLOAD PUSH1 0x1 PUSH1 0x1 PUSH1 0xA0 SHL SUB AND SWAP1 JUMP JUMPDEST SWAP1 PUSH2 0x242 SWAP2 PUSH2 0x1CDF PUSH1 0x2 PUSH2 0x1601 PUSH2 0x15FB PUSH2 0x15F5 PUSH1 0xE PUSH2 0x902 JUMP JUMPDEST PUSH2 0x1CF3 TIMESTAMP PUSH2 0x161B PUSH2 0x1284 PUSH2 0x258 PUSH1 0x7 PUSH2 0x8EF JUMP JUMPDEST PUSH2 0x1EDC JUMP JUMPDEST ISZERO PUSH2 0x1CFF JUMPI JUMP JUMPDEST PUSH1 0x40 MLOAD PUSH3 0x461BCD PUSH1 0xE5 SHL DUP2 MSTORE PUSH1 0x20 PUSH1 0x4 DUP3 ADD MSTORE PUSH1 0x19 PUSH1 0x24 DUP3 ADD MSTORE PUSH32 0x5265717565737420616C726561647920636F6D706C6574656400000000000000 PUSH1 0x44 DUP3 ADD MSTORE PUSH1 0x64 SWAP1 REVERT JUMPDEST PUSH4 0x4E487B71 PUSH1 0xE0 SHL PUSH1 0x0 MSTORE PUSH1 0x12 PUSH1 0x4 MSTORE PUSH1 0x24 PUSH1 0x0 REVERT JUMPDEST DUP2 ISZERO PUSH2 0x1D64 JUMPI DIV SWAP1 JUMP JUMPDEST PUSH2 0x1D44 JUMP JUMPDEST ISZERO PUSH2 0x1D70 JUMPI JUMP JUMPDEST PUSH1 0x40 MLOAD PUSH3 0x461BCD PUSH1 0xE5 SHL DUP2 MSTORE PUSH1 0x20 PUSH1 0x4 DUP3 ADD MSTORE PUSH1 0x36 PUSH1 0x24 DUP3 ADD MSTORE PUSH32 0x4174206C656173742032302520636F6E7472696275746F72206E65656420746F PUSH1 0x44 DUP3 ADD MSTORE PUSH32 0x20766F746520666F722074686973207265717565737400000000000000000000 PUSH1 0x64 DUP3 ADD MSTORE PUSH1 0x84 SWAP1 REVERT JUMPDEST ISZERO PUSH2 0x1DE2 JUMPI JUMP JUMPDEST PUSH1 0x40 MLOAD PUSH3 0x461BCD PUSH1 0xE5 SHL DUP2 MSTORE PUSH1 0x20 PUSH1 0x4 DUP3 ADD MSTORE PUSH1 0x39 PUSH1 0x24 DUP3 ADD MSTORE PUSH32 0x50726F6A65637420636F6E747261637420646F6573206E6F7420686176652065 PUSH1 0x44 DUP3 ADD MSTORE PUSH32 0x6E6F7567682062616C616E636520746F20646973627572736500000000000000 PUSH1 0x64 DUP3 ADD MSTORE PUSH1 0x84 SWAP1 REVERT JUMPDEST DUP2 DUP2 MUL SWAP3 SWAP2 DUP2 ISZERO SWAP2 DUP5 DIV EQ OR ISZERO PUSH2 0x117F JUMPI JUMP JUMPDEST PUSH1 0x1 PUSH1 0x1 PUSH1 0xA0 SHL SUB SWAP1 SWAP2 AND DUP2 MSTORE PUSH1 0x60 DUP2 ADD SWAP4 SWAP3 PUSH2 0x242 SWAP3 SWAP1 SWAP2 PUSH1 0x40 SWAP2 PUSH2 0x1229 SWAP1 PUSH1 0x20 DUP4 ADD SWAP1 PUSH2 0x19F2 JUMP JUMPDEST SWAP3 SWAP8 SWAP7 SWAP5 PUSH2 0x9EB SWAP1 PUSH2 0x9E4 PUSH1 0xC0 SWAP7 PUSH2 0x1ED5 PUSH2 0x1EC3 PUSH2 0x242 SWAP12 SWAP7 PUSH2 0x1A4C SWAP9 PUSH2 0x1EB6 PUSH1 0xE0 DUP13 ADD SWAP3 PUSH1 0x0 DUP14 ADD MSTORE JUMP JUMPDEST DUP11 DUP3 SUB PUSH1 0x20 DUP13 ADD MSTORE PUSH2 0x446 JUMP JUMPDEST PUSH1 0x1 PUSH1 0x1 PUSH1 0xA0 SHL SUB SWAP1 SWAP14 AND PUSH1 0x40 DUP10 ADD MSTORE JUMP JUMPDEST PUSH1 0x60 DUP8 ADD MSTORE JUMP JUMPDEST PUSH2 0x1EEA PUSH2 0x258 DUP3 PUSH1 0x15 PUSH2 0x8DE JUMP JUMPDEST SWAP1 PUSH1 0x6 DUP3 ADD SWAP3 PUSH2 0x1EF9 DUP5 PUSH2 0x902 JUMP JUMPDEST PUSH1 0x0 SWAP1 PUSH2 0x1F0F SWAP1 PUSH2 0x1F09 DUP4 PUSH2 0x10AA JUMP JUMPDEST EQ PUSH2 0x1CF8 JUMP JUMPDEST PUSH1 0x4 DUP5 ADD SWAP1 PUSH2 0x1F4A PUSH2 0x1F20 DUP4 PUSH2 0x8EF JUMP JUMPDEST PUSH2 0x1F43 PUSH2 0x1284 PUSH2 0x258 PUSH2 0x1F33 PUSH1 0xB PUSH2 0x8EF JUMP JUMPDEST PUSH2 0x1F3D PUSH1 0x5 PUSH2 0x8D1 JUMP JUMPDEST SWAP1 PUSH2 0x1D5A JUMP JUMPDEST LT ISZERO PUSH2 0x1D69 JUMP JUMPDEST PUSH1 0x3 DUP6 ADD SWAP6 PUSH2 0x1F61 PUSH2 0x1F5B DUP9 PUSH2 0x8EF JUMP JUMPDEST SWAP5 PUSH2 0x606 JUMP JUMPDEST PUSH4 0x70A08231 PUSH2 0x1F6F ADDRESS PUSH2 0x606 JUMP JUMPDEST SWAP6 PUSH2 0x1F83 PUSH2 0x1F7C PUSH1 0x40 MLOAD SWAP1 JUMP JUMPDEST SWAP3 PUSH1 0xE0 SHL SWAP1 JUMP JUMPDEST DUP3 MSTORE PUSH1 0x1 PUSH1 0x1 PUSH1 0xA0 SHL SUB DUP8 AND PUSH1 0x4 DUP4 ADD MSTORE PUSH1 0x20 DUP3 PUSH1 0x24 DUP2 DUP7 GAS STATICCALL DUP1 ISZERO PUSH2 0x13D6 JUMPI PUSH2 0x1284 PUSH2 0x1FB8 SWAP2 PUSH2 0x1FBF SWAP5 DUP9 SWAP2 PUSH2 0x152C JUMPI POP SWAP1 JUMP JUMPDEST GT ISZERO PUSH2 0x1DDB JUMP JUMPDEST PUSH4 0x23B872DD SWAP5 PUSH2 0x1FCE DUP4 PUSH2 0x918 JUMP JUMPDEST PUSH2 0x1FD7 DUP11 PUSH2 0x8EF JUMP JUMPDEST PUSH1 0x20 PUSH2 0x2010 DUP10 PUSH2 0x201C PUSH2 0x2002 PUSH2 0x1FF2 PUSH1 0x32 SWAP7 PUSH2 0x1F3D DUP9 PUSH2 0x8D1 JUMP JUMPDEST PUSH2 0x1FFC PUSH1 0x31 PUSH2 0x8D1 JUMP JUMPDEST SWAP1 PUSH2 0x1E4D JUMP JUMPDEST PUSH1 0x40 MLOAD SWAP7 DUP8 SWAP5 DUP6 SWAP5 PUSH1 0xE0 SHL SWAP1 JUMP JUMPDEST DUP5 MSTORE DUP9 PUSH1 0x4 DUP6 ADD PUSH2 0x1E60 JUMP JUMPDEST SUB DUP2 DUP10 DUP9 GAS CALL SWAP2 DUP3 ISZERO PUSH2 0x13D6 JUMPI DUP12 SWAP3 PUSH2 0x2205 JUMPI JUMPDEST POP TIMESTAMP PUSH2 0x2042 PUSH2 0x1284 PUSH2 0x258 PUSH1 0x3 PUSH2 0x8EF JUMP JUMPDEST GT PUSH2 0x21A7 JUMPI POP POP PUSH1 0x1 SLOAD PUSH1 0x1 PUSH1 0x1 PUSH1 0xA0 SHL SUB AND SWAP2 PUSH2 0x205F DUP11 PUSH2 0x8EF JUMP JUMPDEST PUSH1 0x20 PUSH2 0x2010 DUP10 PUSH2 0x2085 PUSH2 0x2077 PUSH1 0x64 SWAP6 PUSH2 0x1F3D DUP8 PUSH2 0x8D1 JUMP JUMPDEST PUSH1 0x40 MLOAD SWAP9 DUP10 SWAP5 DUP6 SWAP5 PUSH1 0xE0 SHL SWAP1 JUMP JUMPDEST SUB DUP2 DUP10 DUP7 GAS CALL SWAP1 DUP2 ISZERO PUSH2 0x13D6 JUMPI DUP12 SWAP9 PUSH2 0x20E8 PUSH2 0x20CD DUP10 SWAP4 PUSH1 0x20 SWAP9 PUSH2 0x20DD SWAP7 PUSH2 0x218C JUMPI JUMPDEST POP PUSH2 0x1F3D PUSH2 0x20C7 PUSH2 0x20C1 PUSH1 0x2 SLOAD PUSH1 0x1 PUSH1 0x1 PUSH1 0xA0 SHL SUB AND SWAP1 JUMP JUMPDEST SWAP15 PUSH2 0x8EF JUMP JUMPDEST SWAP2 PUSH2 0x8D1 JUMP JUMPDEST PUSH1 0x40 MLOAD SWAP12 DUP13 SWAP8 DUP9 SWAP7 DUP8 SWAP6 PUSH1 0xE0 SHL SWAP1 JUMP JUMPDEST DUP6 MSTORE PUSH1 0x4 DUP6 ADD PUSH2 0x1E60 JUMP JUMPDEST SUB SWAP3 GAS CALL SWAP4 DUP5 ISZERO PUSH2 0x13D6 JUMPI PUSH2 0x1B08 SWAP5 PUSH2 0x2170 JUMPI JUMPDEST POP JUMPDEST PUSH2 0x213B PUSH2 0x2135 PUSH2 0x212F PUSH2 0x2129 PUSH1 0x1 DUP1 SWAP7 PUSH2 0x2118 DUP3 DUP9 PUSH2 0x19A2 JUMP JUMPDEST DUP12 ADD SWAP11 ADD SLOAD PUSH1 0x1 PUSH1 0x1 PUSH1 0xA0 SHL SUB AND SWAP1 JUMP JUMPDEST SWAP10 PUSH2 0x8EF JUMP JUMPDEST SWAP5 PUSH2 0x8EF JUMP JUMPDEST SWAP2 PUSH2 0x918 JUMP JUMPDEST SWAP3 PUSH32 0x4B318EEFDD7BB107016B6A285AD8D255001224EDAD6FE9A0DD934EE9F3E911C5 SWAP8 PUSH2 0x2167 PUSH1 0x40 MLOAD SWAP1 JUMP JUMPDEST SWAP8 DUP9 SWAP8 DUP9 PUSH2 0x1E8A JUMP JUMPDEST PUSH2 0x2187 SWAP1 PUSH1 0x20 RETURNDATASIZE DUP2 GT PUSH2 0x13CF JUMPI PUSH2 0x13C2 DUP2 DUP4 PUSH2 0x4EA JUMP JUMPDEST PUSH2 0x20FC JUMP JUMPDEST PUSH2 0x21A2 SWAP1 DUP11 RETURNDATASIZE DUP2 GT PUSH2 0x13CF JUMPI PUSH2 0x13C2 DUP2 DUP4 PUSH2 0x4EA JUMP JUMPDEST PUSH2 0x20A8 JUMP JUMPDEST DUP6 PUSH1 0x20 SWAP5 SWAP3 SWAP9 PUSH2 0x21CF PUSH2 0x20CD PUSH2 0x20DD SWAP5 PUSH2 0x1F3D PUSH2 0x20C7 PUSH2 0x20C1 PUSH1 0x1 SLOAD PUSH1 0x1 PUSH1 0x1 PUSH1 0xA0 SHL SUB AND SWAP1 JUMP JUMPDEST SUB SWAP3 GAS CALL SWAP4 DUP5 ISZERO PUSH2 0x13D6 JUMPI PUSH2 0x1B08 SWAP5 PUSH2 0x21E9 JUMPI JUMPDEST POP PUSH2 0x20FE JUMP JUMPDEST PUSH2 0x2200 SWAP1 PUSH1 0x20 RETURNDATASIZE DUP2 GT PUSH2 0x13CF JUMPI PUSH2 0x13C2 DUP2 DUP4 PUSH2 0x4EA JUMP JUMPDEST PUSH2 0x21E3 JUMP JUMPDEST PUSH2 0x221C SWAP1 PUSH1 0x20 RETURNDATASIZE DUP2 GT PUSH2 0x13CF JUMPI PUSH2 0x13C2 DUP2 DUP4 PUSH2 0x4EA JUMP JUMPDEST PUSH2 0x2030 JUMP JUMPDEST SWAP1 PUSH2 0x242 SWAP2 PUSH2 0x1CA4 JUMP JUMPDEST PUSH2 0x258 SWAP1 PUSH2 0x511 JUMP JUMPDEST PUSH1 0x4 SLOAD PUSH1 0x1 PUSH1 0x1 PUSH1 0xA0 SHL SUB AND SWAP1 PUSH2 0x224B PUSH1 0x7 PUSH2 0x8EF JUMP JUMPDEST SWAP1 PUSH2 0x2256 PUSH1 0x8 PUSH2 0x8EF JUMP JUMPDEST SWAP2 PUSH2 0x2261 PUSH1 0x9 PUSH2 0x8EF JUMP JUMPDEST SWAP3 PUSH2 0x226C PUSH1 0xA PUSH2 0x8EF JUMP JUMPDEST SWAP3 PUSH2 0x2277 PUSH1 0xC PUSH2 0x222B JUMP JUMPDEST SWAP5 PUSH2 0x2282 PUSH1 0xD PUSH2 0x222B JUMP JUMPDEST SWAP5 PUSH2 0x228D PUSH1 0xE PUSH2 0x902 JUMP JUMPDEST SWAP7 PUSH2 0x2297 ADDRESS PUSH2 0x606 JUMP JUMPDEST BALANCE SWAP7 PUSH2 0x22A3 PUSH1 0xF PUSH2 0x222B JUMP JUMPDEST SWAP9 PUSH2 0x22AE PUSH1 0x10 PUSH2 0x222B JUMP JUMPDEST SWAP9 PUSH2 0x22B9 PUSH1 0x11 PUSH2 0x222B JUMP JUMPDEST SWAP11 PUSH2 0x22C4 PUSH1 0x12 PUSH2 0x222B JUMP JUMPDEST SWAP11 PUSH2 0x22D7 PUSH1 0x5 SLOAD PUSH1 0x1 PUSH1 0x1 PUSH1 0xA0 SHL SUB AND SWAP1 JUMP JUMPDEST SWAP13 PUSH2 0x22EA PUSH1 0x6 SLOAD PUSH1 0x1 PUSH1 0x1 PUSH1 0xA0 SHL SUB AND SWAP1 JUMP JUMPDEST SWAP13 PUSH2 0x22F5 PUSH1 0xB PUSH2 0x8EF JUMP JUMPDEST SWAP11 JUMP JUMPDEST PUSH2 0x258 PUSH2 0x230F SWAP2 PUSH2 0x2307 PUSH1 0x60 SWAP1 JUMP JUMPDEST POP PUSH1 0x15 PUSH2 0x8DE JUMP JUMPDEST PUSH2 0x2319 PUSH1 0xB PUSH2 0x8EF JUMP JUMPDEST SWAP1 PUSH2 0x2323 DUP2 PUSH2 0x222B JUMP JUMPDEST SWAP3 PUSH2 0x2330 PUSH1 0x2 DUP4 ADD PUSH2 0x222B JUMP JUMPDEST SWAP2 PUSH2 0x2345 PUSH1 0x1 DUP3 ADD SLOAD PUSH1 0x1 PUSH1 0x1 PUSH1 0xA0 SHL SUB AND SWAP1 JUMP JUMPDEST SWAP4 PUSH2 0x2352 PUSH1 0x3 DUP4 ADD PUSH2 0x8EF JUMP JUMPDEST SWAP3 PUSH1 0x6 PUSH2 0x2361 PUSH1 0x4 DUP6 ADD PUSH2 0x8EF JUMP JUMPDEST SWAP4 ADD SWAP1 PUSH2 0x258 PUSH2 0x2370 DUP4 PUSH2 0x902 JUMP JUMPDEST SWAP3 PUSH2 0x918 JUMP INVALID LOG2 PUSH5 0x6970667358 0x22 SLT KECCAK256 0xBF 0xC1 0x24 PUSH5 0x8F4C5DB7F1 SWAP10 SSTORE CALLVALUE PUSH3 0xFB7ED2 0xF8 COINBASE 0xE 0x4D 0xE8 0x21 SWAP12 PUSH1 0x1C EXTCODEHASH PUSH8 0x80ED3F877864736F PUSH13 0x63430008120033A26469706673 PC 0x22 SLT KECCAK256 0xD3 0xC0 0xDB CALLDATACOPY PUSH25 0x6A1BEAD8C97D722523A2CD7ABE87DAFBBD752DB525F4A92A1 0x1F INVALID PUSH5 0x736F6C6343 STOP ADDMOD SLT STOP CALLER "},"methodIdentifiers":{"acceptedTokens(address)":"82dc4a05","addAcceptedContributionToken(address)":"a3df7779","addRewardTokenAddress(address)":"606266f5","addRewardTokenTier(address,uint256[4])":"1ed2eb4b","contribute(address,address,uint256)":"8d472709","createProject(uint256,uint256,string,string,string,string,string,string,string,address,address)":"8e4182df","getContributedProject()":"773bbb17","owner()":"8da5cb5b","removeAcceptedContributionToken(address)":"9dd2764a","removeRewardTokenAddress(uint256)":"43746a37","renounceOwnership()":"715018a6","returnAllProjects()":"85b6e28e","rewardTokenAddresses(uint256)":"7b2d9b2c","rewardTokensTiers(address,uint256)":"25f0fc2d","rewards(address)":"0700037d","showRewardUser(address)":"bb7252d8","showTotalRewardUser(address)":"945bbdcd","totalRewards(address)":"ab7573dd","transferOwnership(address)":"f2fde38b","withdrawPooledRewards(uint256,address,address)":"eca38989","withdrawUserRewards(uint256)":"f2653b0e"}}}}}