{"contracts/Project.sol":{"Project":{"abi":[{"inputs":[{"internalType":"address","name":"_owner","type":"address"},{"internalType":"address","name":"_creator","type":"address"},{"internalType":"address","name":"_masterContract","type":"address"},{"internalType":"address","name":"_usdt","type":"address"},{"internalType":"address","name":"_usdc","type":"address"},{"internalType":"uint256","name":"_minimumContribution","type":"uint256"},{"internalType":"uint256","name":"_deadline","type":"uint256"},{"internalType":"uint256","name":"_targetContribution","type":"uint256"},{"internalType":"string","name":"_projectTitle","type":"string"},{"internalType":"string","name":"_projectDes","type":"string"},{"internalType":"string","name":"_websiteUrl","type":"string"},{"internalType":"string","name":"_socialUrl","type":"string"},{"internalType":"string","name":"_githubUrl","type":"string"},{"internalType":"string","name":"_projectCoverUrl","type":"string"},{"internalType":"string","name":"_filterTags","type":"string"}],"stateMutability":"nonpayable","type":"constructor"},{"anonymous":false,"inputs":[{"indexed":false,"internalType":"uint256","name":"requestId","type":"uint256"},{"indexed":false,"internalType":"string","name":"description","type":"string"},{"indexed":false,"internalType":"address","name":"withdrawToken","type":"address"},{"indexed":false,"internalType":"uint256","name":"amount","type":"uint256"},{"indexed":false,"internalType":"uint256","name":"noOfVotes","type":"uint256"},{"indexed":false,"internalType":"bool","name":"isCompleted","type":"bool"},{"indexed":false,"internalType":"address","name":"reciptent","type":"address"}],"name":"AmountWithdrawSuccessful","type":"event"},{"anonymous":false,"inputs":[{"indexed":false,"internalType":"address","name":"contributor","type":"address"},{"indexed":false,"internalType":"uint256","name":"amount","type":"uint256"},{"indexed":false,"internalType":"uint256","name":"currentTotal","type":"uint256"}],"name":"FundingReceived","type":"event"},{"anonymous":false,"inputs":[{"indexed":false,"internalType":"uint256","name":"requestId","type":"uint256"},{"indexed":false,"internalType":"string","name":"description","type":"string"},{"indexed":false,"internalType":"string","name":"tokenName","type":"string"},{"indexed":false,"internalType":"uint256","name":"amount","type":"uint256"},{"indexed":false,"internalType":"uint256","name":"noOfVotes","type":"uint256"},{"indexed":false,"internalType":"bool","name":"isCompleted","type":"bool"},{"indexed":false,"internalType":"address","name":"reciptent","type":"address"}],"name":"WithdrawRequestCreated","type":"event"},{"anonymous":false,"inputs":[{"indexed":false,"internalType":"address","name":"voter","type":"address"},{"indexed":false,"internalType":"uint256","name":"totalVote","type":"uint256"}],"name":"WithdrawVote","type":"event"},{"inputs":[],"name":"completeAt","outputs":[{"internalType":"uint256","name":"","type":"uint256"}],"stateMutability":"view","type":"function"},{"inputs":[{"internalType":"address","name":"_contributor","type":"address"},{"internalType":"uint256","name":"amount","type":"uint256"},{"internalType":"contract IERC20","name":"tokenAddress","type":"address"}],"name":"contribute","outputs":[],"stateMutability":"nonpayable","type":"function"},{"inputs":[{"internalType":"address","name":"","type":"address"}],"name":"contributiors","outputs":[{"internalType":"uint256","name":"","type":"uint256"}],"stateMutability":"view","type":"function"},{"inputs":[{"internalType":"string","name":"_description","type":"string"},{"internalType":"uint256","name":"_amount","type":"uint256"},{"internalType":"address payable","name":"_reciptent","type":"address"},{"internalType":"address","name":"_withdrawToken","type":"address"},{"internalType":"string","name":"_tokenName","type":"string"},{"internalType":"uint256","name":"_requestId","type":"uint256"}],"name":"createWithdrawRequest","outputs":[],"stateMutability":"nonpayable","type":"function"},{"inputs":[],"name":"creator","outputs":[{"internalType":"address payable","name":"","type":"address"}],"stateMutability":"view","type":"function"},{"inputs":[],"name":"deadline","outputs":[{"internalType":"uint256","name":"","type":"uint256"}],"stateMutability":"view","type":"function"},{"inputs":[],"name":"developer","outputs":[{"internalType":"address payable","name":"","type":"address"}],"stateMutability":"view","type":"function"},{"inputs":[],"name":"filterTags","outputs":[{"internalType":"string","name":"","type":"string"}],"stateMutability":"view","type":"function"},{"inputs":[],"name":"getContractBNBBalance","outputs":[{"internalType":"uint256","name":"","type":"uint256"}],"stateMutability":"view","type":"function"},{"inputs":[{"internalType":"contract IERC20","name":"tokenAddress","type":"address"}],"name":"getContractBalance","outputs":[{"internalType":"uint256","name":"","type":"uint256"}],"stateMutability":"view","type":"function"},{"inputs":[],"name":"getProjectDetails","outputs":[{"internalType":"address payable","name":"projectStarter","type":"address"},{"internalType":"address payable","name":"usdtA","type":"address"},{"internalType":"address payable","name":"usdcA","type":"address"},{"internalType":"uint256","name":"minContribution","type":"uint256"},{"internalType":"uint256","name":"projectDeadline","type":"uint256"},{"internalType":"uint256","name":"goalAmount","type":"uint256"},{"internalType":"uint256","name":"completedTime","type":"uint256"},{"internalType":"uint256","name":"currentAmount","type":"uint256"},{"internalType":"string","name":"title","type":"string"},{"internalType":"string","name":"desc","type":"string"},{"internalType":"enum Project.State","name":"currentState","type":"uint8"},{"internalType":"uint256","name":"balance","type":"uint256"},{"internalType":"string","name":"website","type":"string"},{"internalType":"string","name":"social","type":"string"},{"internalType":"string","name":"github","type":"string"},{"internalType":"string","name":"projectCover","type":"string"}],"stateMutability":"view","type":"function"},{"inputs":[],"name":"githubUrl","outputs":[{"internalType":"string","name":"","type":"string"}],"stateMutability":"view","type":"function"},{"inputs":[],"name":"isRevealed","outputs":[{"internalType":"bool","name":"","type":"bool"}],"stateMutability":"view","type":"function"},{"inputs":[],"name":"isVerified","outputs":[{"internalType":"bool","name":"","type":"bool"}],"stateMutability":"view","type":"function"},{"inputs":[],"name":"minimumContribution","outputs":[{"internalType":"uint256","name":"","type":"uint256"}],"stateMutability":"view","type":"function"},{"inputs":[],"name":"noOfContributers","outputs":[{"internalType":"uint256","name":"","type":"uint256"}],"stateMutability":"view","type":"function"},{"inputs":[],"name":"numOfWithdrawRequests","outputs":[{"internalType":"uint256","name":"","type":"uint256"}],"stateMutability":"view","type":"function"},{"inputs":[],"name":"projectCoverUrl","outputs":[{"internalType":"string","name":"","type":"string"}],"stateMutability":"view","type":"function"},{"inputs":[],"name":"projectDes","outputs":[{"internalType":"string","name":"","type":"string"}],"stateMutability":"view","type":"function"},{"inputs":[],"name":"projectTitle","outputs":[{"internalType":"string","name":"","type":"string"}],"stateMutability":"view","type":"function"},{"inputs":[],"name":"raisedAmount","outputs":[{"internalType":"uint256","name":"","type":"uint256"}],"stateMutability":"view","type":"function"},{"inputs":[],"name":"requestRefund","outputs":[{"internalType":"bool","name":"","type":"bool"}],"stateMutability":"nonpayable","type":"function"},{"inputs":[],"name":"royaltyGraceExpiry","outputs":[{"internalType":"uint256","name":"","type":"uint256"}],"stateMutability":"view","type":"function"},{"inputs":[{"internalType":"uint256","name":"unixTs","type":"uint256"}],"name":"setRoyaltyGracePeriod","outputs":[],"stateMutability":"nonpayable","type":"function"},{"inputs":[{"internalType":"bool","name":"verified","type":"bool"}],"name":"setVerification","outputs":[],"stateMutability":"nonpayable","type":"function"},{"inputs":[{"internalType":"bool","name":"isVisible","type":"bool"}],"name":"setVisibility","outputs":[],"stateMutability":"nonpayable","type":"function"},{"inputs":[{"internalType":"uint256","name":"_requestId","type":"uint256"}],"name":"showDetailOfWR","outputs":[{"internalType":"string","name":"description","type":"string"},{"internalType":"address","name":"withdrawToken","type":"address"},{"internalType":"string","name":"tokenName","type":"string"},{"internalType":"uint256","name":"amount","type":"uint256"},{"internalType":"uint256","name":"noOfVotes","type":"uint256"},{"internalType":"uint256","name":"contributors","type":"uint256"},{"internalType":"bool","name":"isCompleted","type":"bool"},{"internalType":"address payable","name":"reciptent","type":"address"}],"stateMutability":"view","type":"function"},{"inputs":[],"name":"socialUrl","outputs":[{"internalType":"string","name":"","type":"string"}],"stateMutability":"view","type":"function"},{"inputs":[],"name":"state","outputs":[{"internalType":"enum Project.State","name":"","type":"uint8"}],"stateMutability":"view","type":"function"},{"inputs":[],"name":"targetContribution","outputs":[{"internalType":"uint256","name":"","type":"uint256"}],"stateMutability":"view","type":"function"},{"inputs":[{"internalType":"uint256","name":"_requestId","type":"uint256"}],"name":"voteWithdrawRequest","outputs":[],"stateMutability":"nonpayable","type":"function"},{"inputs":[],"name":"websiteUrl","outputs":[{"internalType":"string","name":"","type":"string"}],"stateMutability":"view","type":"function"},{"inputs":[{"internalType":"uint256","name":"_requestId","type":"uint256"},{"internalType":"contract IERC20","name":"_withdrawToken","type":"address"}],"name":"withdrawRequestedAmount","outputs":[],"stateMutability":"nonpayable","type":"function"},{"inputs":[{"internalType":"uint256","name":"","type":"uint256"}],"name":"withdrawRequests","outputs":[{"internalType":"string","name":"description","type":"string"},{"internalType":"address","name":"withdrawToken","type":"address"},{"internalType":"string","name":"tokenName","type":"string"},{"internalType":"uint256","name":"amount","type":"uint256"},{"internalType":"uint256","name":"noOfVotes","type":"uint256"},{"internalType":"bool","name":"isCompleted","type":"bool"},{"internalType":"address payable","name":"reciptent","type":"address"}],"stateMutability":"view","type":"function"}],"evm":{"bytecode":{"linkReferences":{},"object":"60806040523462000043576200003162000018620002f5565b9d9c909c9b919b9a929a999399989498979597620006cc565b6040516123e362000a1e82396123e390f35b600080fd5b634e487b7160e01b600052604160045260246000fd5b90601f01601f191681019081106001600160401b038211176200008057604052565b62000048565b906200009d6200009560405190565b92836200005e565b565b6001600160a01b031690565b90565b6001600160a01b0381165b036200004357565b905051906200009d82620000ae565b80620000b9565b905051906200009d82620000d0565b6001600160401b0381116200008057602090601f01601f19160190565b0190565b60005b8381106200011b5750506000910152565b81810151838201526020016200010a565b90929192620001456200013f82620000e6565b62000086565b9381855260208501908284011162000043576200009d9262000107565b9080601f8301121562000043578151620000ab926020016200012c565b916101e0838303126200004357620001988284620000c1565b92620001a88360208301620000c1565b926040620001b982828501620000c1565b93620001c98360608601620000c1565b93620001d98460808301620000c1565b93620001e98160a08401620000d7565b93620001f98260c08501620000d7565b93620002098360e08601620000d7565b93610100810151600180851b0381116200004357846200022b91830162000162565b93610120820151600180861b0381116200004357816200024d91840162000162565b93610140830151600180831b0381116200004357826200026f91850162000162565b93610160840151600180841b0381116200004357836200029191860162000162565b93610180810151600180851b038111620000435784620002b391830162000162565b936101a0820151600180861b038111620000435781620002d591840162000162565b936001806101c0850151921b0381116200004357620000ab920162000162565b6200031862002e01803803806200030c8162000086565b9283398101906200017f565b909192939495969798999a9b9c9d9e565b620000ab906200009f906001600160a01b031682565b620000ab9062000329565b620000ab906200033f565b906001600160a01b03905b9181191691161790565b906200037e620000ab62000386926200034a565b825462000355565b9055565b906000199062000360565b620000ab620000ab620000ab9290565b90620003b9620000ab620003869262000395565b82546200038a565b9060ff9062000360565b634e487b7160e01b600052602160045260246000fd5b60031115620003ec57565b620003cb565b906200009d82620003e1565b620000ab90620003f2565b906200041d620000ab6200038692620003fe565b8254620003c1565b9061ff009060081b62000360565b9062000446620000ab6200038692151590565b825462000425565b9062ff00009060101b62000360565b9062000470620000ab6200038692151590565b82546200044e565b634e487b7160e01b600052602260045260246000fd5b9060016002830492168015620004b1575b6020831014620004ab57565b62000478565b91607f16916200049f565b9160001960089290920291821b911b62000360565b9190620004e6620000ab620003869362000395565b908354620004bc565b6200009d91600091620004d1565b81811062000509575050565b80620005196000600193620004ef565b01620004fd565b9190601f81116200053057505050565b620005446200009d93600052602060002090565b906020601f84018190048301931062000568575b6020601f909101040190620004fd565b909150819062000558565b906200057d815190565b906001600160401b0382116200008057620005a5826200059e85546200048e565b8562000520565b602090601f8311600114620005e45762000386929160009183620005d8575b5050600019600883021c1916906002021790565b015190503880620005c4565b601f19831691620005fa85600052602060002090565b9260005b8181106200063b5750916002939185600196941062000621575b50505002019055565b01516000196008601f8516021c1916905538808062000618565b91936020600181928787015181550195019201620005fe565b906200009d9162000573565b801515620000b9565b905051906200009d8262000660565b906020828203126200004357620000ab9162000669565b9052565b6200068f9062000395565b6001600160a01b0390911681526040810192916200009d916020019062000693565b6040513d6000823e3d90fd5b819d9a96929e99959e9c98949b9793919c730811029baf786c77f1adba0c0dc29952d012c37b620006fd906200034a565b6200070a9060026200036a565b6200071a62bc614e6003620003a5565b60009e8f926200072c84600f62000409565b6200073984600f62000433565b6200074684600f6200045d565b62000753846017620003a5565b6200075e8d620009b9565b62000769906200034a565b620007769060016200036a565b62000781906200034a565b6200078e9060046200036a565b62000799906200034a565b620007a4916200036a565b620007af906200034a565b99620007bd8b60056200036a565b620007c8906200034a565b9c620007d68e60066200036a565b620007e3906007620003a5565b620007f0906008620003a5565b620007fd906009620003a5565b6200080a90600d62000654565b6200081790600e62000654565b620008228862000395565b6200082f90600b620003a5565b6200083c90601062000654565b6200084990601162000654565b6200085690601262000654565b6200086390601462000654565b6200087090601362000654565b6200087b906200034a565b9063095ea7b360fd946200088e60405190565b936200089a8360e01b90565b85528480620008ae8987600484016200069e565b0381885a94602095f19384156200094757620008da620008f69287926020976200094d575b506200034a565b9262000902620008e960405190565b9889968795869460e01b90565b8452600484016200069e565b03925af1908115620009475750620009175750565b6200093c9060203d81116200093f575b6200093381836200005e565b81019062000678565b50565b503d62000927565b620006c0565b6200096790883d81116200093f576200093381836200005e565b620008d3565b620009926200099c602093620001039362000986815190565b80835293849260200190565b9586910162000107565b601f01601f191690565b6020808252620000ab929101906200096d565b620009ea620009fa6200009d92620009d060405190565b63104c13eb60e21b602082015292839160248301620009a6565b602082018103825203826200005e565b6000809162000a116a636f6e736f6c652e6c6f6790565b602082519201905afa5056fe60a0604052600436101561001257600080fd5b60003560e01c80630203d0021461023257806302d05d3f1461022d57806303c29d581461022857806307d94e4a146102235780630a7713701461021e57806318aa9f1e1461021957806324274ee914610214578063263a58aa1461020f57806328c30c071461020a57806329dcb0cf1461020557806343ab265f146102005780634c4cea5a146101fb5780634cbc1553146101f65780634e695a37146101f157806354214f69146101ec5780635eb32936146101e757806362d809a6146101e257806380007e83146101dd578063937e09b1146101d8578063992a7dfb146101d3578063a278a485146101ce578063abb5ca09146101c9578063b35a7dd4146101c4578063b40141bf146101bf578063b82c86d6146101ba578063c19d93fb146101b5578063c3e20c9f146101b0578063c59ee1dc146101ab578063ca4b208b146101a6578063d1707551146101a1578063d5cef1331461019c578063d688cf5314610197578063e9d1edde146101925763ff3a9c7e0361023757610e6e565b610d75565b610d5d565b610d42565b610d27565b610d00565b610cd9565b610cb2565b610c7f565b610c07565b610be0565b610bb5565b610a92565b610a6b565b610a2b565b6108ed565b6108c6565b6108a1565b610863565b61082a565b6107ec565b6107d3565b610788565b610761565b610746565b61071d565b6106d9565b6106b2565b61068b565b610664565b61059c565b610575565b6103cb565b61035a565b600080fd5b805b0361023757565b905035906102528261023c565b565b906020828203126102375761026891610245565b90565b60005b83811061027e5750506000910152565b818101518382015260200161026e565b6102af6102b86020936102c2936102a3815190565b80835293849260200190565b9586910161026b565b601f01601f191690565b0190565b6001600160a01b031690565b9052565b9398979561033b60e09661033461032c6102529b9661034b9861031f61030d8c6103429a610100820191600081840391015261028e565b6001600160a01b0390931660208d0152565b8a820360408c015261028e565b9c6060890152565b6080870152565b60a0850152565b151560c0830152565b01906001600160a01b03169052565b3461023757610391610375610370366004610254565b61232f565b9461038898969894919493929360405190565b988998896102d6565b0390f35b600091031261023757565b610268916008021c6001600160a01b031690565b9061026891546103a0565b610268600060046103b4565b34610237576103db366004610395565b6103916103e66103bf565b604051918291826001600160a01b03909116815260200190565b634e487b7160e01b600052600060045260246000fd5b634e487b7160e01b600052602260045260246000fd5b906001600283049216801561044c575b602083101461044757565b610416565b91607f169161043c565b805460009392916104736104698361042c565b8085529360200190565b91600181169081156104c5575060011461048c57505050565b61049f9192939450600052602060002090565b916000925b8184106104b15750500190565b8054848401526020909301926001016104a4565b92949550505060ff1916825215156020020190565b9061026891610456565b634e487b7160e01b600052604160045260246000fd5b90601f01601f1916810190811067ffffffffffffffff82111761051c57604052565b6104e4565b9061025261053b9261053260405190565b938480926104da565b03836104fa565b906000106105535761026890610521565b610400565b6102686000600e610542565b60208082526102689291019061028e565b3461023757610585366004610395565b610391610590610558565b60405191829182610564565b34610237576105ac366004610395565b6103916105b76114e9565b6040519182918290815260200190565b6001600160a01b03811661023e565b90503590610252826105c7565b9060208282031261023757610268916105d6565b6102c6610268610268926001600160a01b031690565b610268906105f7565b6102689061060d565b9061062990610616565b600052602052604060002090565b610268916008021c81565b906102689154610637565b6102689061065f60159160009261061f565b610642565b34610237576103916105b761067a3660046105e3565b61064d565b61026860006012610542565b346102375761069b366004610395565b61039161059061067f565b6102686000600c610642565b34610237576106c2366004610395565b6103916105b76106a6565b61026860006003610642565b34610237576106e9366004610395565b6103916105b76106cd565b80151561023e565b90503590610252826106f4565b9060208282031261023757610268916106fc565b3461023757610735610730366004610709565b610fff565b604051005b61026860006008610642565b3461023757610756366004610395565b6103916105b761073a565b34610237576103916105b76107773660046105e3565b6114f6565b6102686000600a610642565b3461023757610798366004610395565b6103916105b761077c565b9091606082840312610237576102686107bc84846105d6565b936107ca8160208601610245565b936040016105d6565b34610237576107356107e63660046107a3565b91611460565b34610237576107356107ff366004610254565b611c07565b610268916008021c5b60ff1690565b906102689154610804565b6102686001600f610813565b346102375761083a366004610395565b61039161084561081e565b60405191829182901515815260200190565b61026860006013610542565b3461023757610873366004610395565b610391610590610857565b919060408382031261023757610268906108988185610245565b936020016105d6565b34610237576107356108b436600461087e565b90612258565b6102686002600f610813565b34610237576108d6366004610395565b6103916108456108ba565b61026860006007610642565b34610237576108fd366004610395565b6103916105b76108e1565b6102686102686102689290565b9061062990610908565b6102689081565b610268905461091f565b6102689061080d565b6102689054610930565b6102689060081c6102c6565b6102689054610943565b610964906016610915565b61096d81610521565b9161098260018301546001600160a01b031690565b9161098f60028201610521565b9161099c60038301610926565b916109a960048201610926565b9161026860066109ba818501610939565b930161094f565b9260c094989795610a1b610a1361034b95610a2294610a066109f46102529d9860e08c01908c600081840391015261028e565b6001600160a01b0390931660208b0152565b88820360408a015261028e565b9a6060870152565b6080850152565b151560a0830152565b3461023757610391610a46610a41366004610254565b610959565b93610a5697959793919360405190565b978897886109c1565b61026860006014610542565b3461023757610a7b366004610395565b610391610590610a5f565b61026860006010610542565b3461023757610aa2366004610395565b610391610590610a86565b90610252610aba60405190565b92836104fa565b67ffffffffffffffff811161051c57602090601f01601f19160190565b90826000939282370152565b90929192610aff610afa82610ac1565b610aad565b938185526020850190828401116102375761025292610ade565b9080601f830112156102375781602061026893359101610aea565b909160c08284031261023757813567ffffffffffffffff81116102375783610b5d918401610b19565b92610b6b8160208501610245565b92610b7982604083016105d6565b92610b8783606084016105d6565b9260808301359067ffffffffffffffff821161023757610bac81610268938601610b19565b9360a001610245565b3461023757610735610bc8366004610b34565b94939093929192611b44565b61026860006017610642565b3461023757610bf0366004610395565b6103916105b7610bd4565b61026860006009610642565b3461023757610c17366004610395565b6103916105b7610bfb565b6102686000600f610813565b634e487b7160e01b600052602160045260246000fd5b60031115610c4e57565b610c2e565b9061025282610c44565b61026890610c53565b6102d290610c5d565b6020810192916102529190610c66565b3461023757610c8f366004610395565b610391610c9a610c22565b60405191829182610c6f565b6102686000600d610542565b3461023757610cc2366004610395565b610391610590610ca6565b6102686000600b610642565b3461023757610ce9366004610395565b6103916105b7610ccd565b610268600060026103b4565b3461023757610d10366004610395565b6103916103e6610cf4565b61026860006011610542565b3461023757610d37366004610395565b610391610590610d1b565b3461023757610d52366004610395565b61039161084561174d565b3461023757610735610d70366004610254565b610fa2565b3461023757610735610d88366004610709565b61105d565b9e9d9c9b999897959391928f9197959361020083019860008401610db8916001600160a01b03169052565b6001600160a01b031660208301526001600160a01b031660408201526060015260808d015260a08c015260c08b015260e08a01528881036101008a0152610dfe9161028e565b878103610120890152610e109161028e565b916101408701610e1f91610c66565b610160860152848103610180860152610e379161028e565b8381036101a0850152610e499161028e565b8281036101c0840152610e5b9161028e565b90808203906101e001526102689161028e565b3461023757610e7e366004610395565b610eb3610e8961226b565b9e610ea89e919e9d929d9c939c9b949b9a959a99969998979860405190565b608052608051610d8d565b6080519003608051f35b15610ec457565b60405162461bcd60e51b815260206004820152603660248201527f596f7520646f6e7420686176652061646d696e2061636365737320746f20706560448201527f72666f726d2074686973206f7065726174696f6e2021000000000000000000006064820152608490fd5b61025290610f6733610f61610f54610f4f6001546001600160a01b031690565b610616565b916001600160a01b031690565b14610ebd565b610f97565b90600019905b9181191691161790565b90610f8c610268610f9392610908565b8254610f6c565b9055565b610252906003610f7c565b61025290610f2f565b61025290610fcb33610f61610f54610f4f6001546001600160a01b031690565b610ff4565b9061ff009060081b610f72565b90610fed610268610f9392151590565b8254610fd0565b61025290600f610fdd565b61025290610fab565b6102529061102833610f61610f54610f4f6001546001600160a01b031690565b611052565b9062ff00009060101b610f72565b9061104b610268610f9392151590565b825461102d565b61025290600f61103b565b61025290611008565b6102689060101c61080d565b6102689054611066565b1561108357565b60405162461bcd60e51b815260206004820152601860248201527f50726f6a656374206d75737420626520766572696669656400000000000000006044820152606490fd5b9061025292916110ed6110db600f611072565b6110e760015b91151590565b1461107c565b611164565b156110f957565b60405162461bcd60e51b815260206004820152603c60248201527f596f7520646f206e6f74206861766520746865206d617374657220726967687460448201527f7320746f20706572666f726d2074686973206f7065726174696f6e21000000006064820152608490fd5b90610252929161118c33611186610f54610f4f6000546001600160a01b031690565b146110f2565b61128b565b634e487b7160e01b600052601160045260246000fd5b60001981146111b65760010190565b611191565b919082018092116111b657565b905051906102528261023c565b9060208282031261023757610268916111c8565b6001600160a01b0390911681526040810192916102529160209061034b565b6040513d6000823e3d90fd5b1561023757565b90505190610252826106f4565b90602082820312610237576102689161121b565b6001600160a01b039182168152911660208201526060810192916102529160400152565b0152565b6001600160a01b039091168152606081019392610252929091604091611260906020830152565b916112f96015916112e16112c9866112ab6112a6828861061f565b610926565b956000966112bf6112bb89610908565b9190565b1461143f5761061f565b6112db866112d683610926565b6111bb565b90610f7c565b610f4f6112f2856112d6600b610926565b600b610f7c565b9063dd62ed3e9161130930610616565b61131c61131560405190565b9460e01b90565b845260208480611330848a600484016111e9565b0381855afa91821561140d5761135460209387968691611412575b50861115611214565b611376846323b872dd61138261136960405190565b9889968795869460e01b90565b84528c6004850161123c565b03925af190811561140d57506113e1575b5061139e600b610926565b916113d67f5cdc4ab8d637538ead6cc1904d4160343656c8c82bd266635cfd31ac008fffe0936113cd60405190565b93849384611264565b0390a161025261148b565b6114019060203d8111611406575b6113f981836104fa565b810190611228565b611393565b503d6113ef565b611208565b6114329150853d8111611438575b61142a81836104fa565b8101906111d5565b3861134b565b503d611420565b61145b61145461144f600c610926565b6111a7565b600c610f7c565b61061f565b9061025292916110c8565b9060ff90610f72565b90611484610268610f9392610c5d565b825461146b565b611495600b610926565b6114a56112bb6102686009610926565b106114c1576114b66002600f611474565b61025242600a610f7c565b426114d26112bb6102686008610926565b11156114b6576114e46001600f611474565b6114b6565b6114f230610616565b3190565b602061150d61154d92611507600090565b50610616565b6370a082319061153661151f30610616565b9261152960405190565b9586948593849360e01b90565b83526001600160a01b031660048301526024820190565b03915afa90811561140d57600091611563575090565b610268915060203d81116114385761142a81836104fa565b1561158257565b60405162461bcd60e51b815260206004820152600d60248201527f496e76616c6964207374617465000000000000000000000000000000000000006044820152606490fd5b156115ce57565b60405162461bcd60e51b815260206004820152601560248201527f446561646c696e652068617320706173736564202100000000000000000000006044820152606490fd5b6102689061163e600161163861163261162c600f610939565b92610c53565b91610c53565b1461157b565b611658426116526112bb6102686008610926565b106115c7565b6116cf565b1561166457565b60405162461bcd60e51b815260206004820152602660248201527f596f7520646f6e74206861766520616e7920636f6e747269627574656420616d60448201527f6f756e74202100000000000000000000000000000000000000000000000000006064820152608490fd5b503360156116e06112a6838361061f565b6116f86000916116f26112bb84610908565b1161165d565b80808080611708610f4f88610616565b6117156112a6898961061f565b90828215611744575bf11561140d5761173f9261173461173a92610908565b9261061f565b610f7c565b600190565b506108fc61171e565b6102686000611613565b1561175e57565b60405162461bcd60e51b815260206004820152603860248201527f596f7520646f6e7420686176652063726561746f722061636365737320746f2060448201527f706572666f726d2074686973206f7065726174696f6e202100000000000000006064820152608490fd5b9061025295949392916117f4336117ee610f54610f4f6004546001600160a01b031690565b14611757565b906102529594939291611812600261163861163261162c600f610939565b611826426116526112bb6102686008610926565b611a8a565b91906008610f72910291611840600019841b90565b921b90565b9190611856610268610f9393610908565b90835461182b565b61025291600091611845565b818110611875575050565b80611883600060019361185e565b0161186a565b9190601f811161189857505050565b6118aa61025293600052602060002090565b906020601f8401819004830193106118cc575b6020601f90910104019061186a565b90915081906118bd565b906118df815190565b9067ffffffffffffffff821161051c57611903826118fd855461042c565b85611889565b602090601f831160011461193e57610f93929160009183611933575b5050600019600883021c1916906002021790565b01519050388061191f565b601f1983169161195385600052602060002090565b9260005b81811061199157509160029391856001969410611978575b50505002019055565b01516000196008601f8516021c1916905538808061196f565b91936020600181928787015181550195019201611957565b90610252916118d6565b906001600160a01b0390610f72565b906119d2610268610f9392610616565b82546119b3565b90611484610268610f9392151590565b9074ffffffffffffffffffffffffffffffffffffffff009060081b610f72565b90611a19610268610f9392610616565b82546119e9565b6102d290610908565b6102d290610616565b9260c094989795611a79610a13610a2293611a6b6102529b96611a8398611a5e60e08c019260008d0152565b8a820360208c015261028e565b9088820360408a015261028e565b6080850190611a20565b0190611a29565b939492611ab7611aa3610268611b3f9594966016610915565b91611aae87846119a9565b600183016119c2565b611ac486600283016119a9565b611ad18460038301610f7c565b611aff826006600093611aef611ae686610908565b60048301610f7c565b01611afa84826119d9565b611a09565b80611b0a6017610926565b947f4155121c72ca95297a55d3963daac6d430e184f4fc497ce898b36ee9a834eec197611b3660405190565b97889788611a32565b0390a1565b9061025295949392916117c9565b15611b5957565b60405162461bcd60e51b815260206004820152601b60248201527f4f6e6c7920636f6e7472696275746f722063616e20766f7465202100000000006044820152606490fd5b15611ba557565b60405162461bcd60e51b815260206004820152601360248201527f596f7520616c726561647920766f7465642021000000000000000000000000006044820152606490fd5b6001600160a01b0390911681526040810192916102529160200152565b3390611ca4906112a6611c9e6004611c9286611c8d611c4e610268611c2e8885601561061f565b98611c4760009a611c416112bb8d610908565b11611b52565b6016610915565b96611c7b6005890191611c756110e1611c6f611c6a888761061f565b610939565b92151590565b14611b9e565b611c88600193849261061f565b6119d9565b610908565b9301926112d684610926565b82610f7c565b7fa2925e4595bf873fa82c22a1a89809777347023bf2b502d32710157a5eb8199c91611b3f611cd260405190565b92839283611bea565b9061025291611cfc336117ee610f54610f4f6004546001600160a01b031690565b9061025291611d16600261163861163261162c600f610939565b611d2a426116526112bb6102686008610926565b611f13565b15611d3657565b60405162461bcd60e51b815260206004820152601960248201527f5265717565737420616c726561647920636f6d706c65746564000000000000006044820152606490fd5b634e487b7160e01b600052601260045260246000fd5b8115611d9b570490565b611d7b565b15611da757565b60405162461bcd60e51b815260206004820152603660248201527f4174206c656173742032302520636f6e7472696275746f72206e65656420746f60448201527f20766f746520666f7220746869732072657175657374000000000000000000006064820152608490fd5b15611e1957565b60405162461bcd60e51b815260206004820152603960248201527f50726f6a65637420636f6e747261637420646f6573206e6f742068617665206560448201527f6e6f7567682062616c616e636520746f206469736275727365000000000000006064820152608490fd5b818102929181159184041417156111b657565b6001600160a01b039091168152606081019392610252929091604091611260906020830190611a29565b92979694610a2290610a1b60c096611f0c611efa6102529b96611a8398611eed60e08c019260008d0152565b8a820360208c0152610456565b6001600160a01b03909d166040890152565b6060870152565b611f21610268826016610915565b906006820192611f3084610939565b600090611f4690611f40836110e1565b14611d2f565b6004840190611f81611f5783610926565b611f7a6112bb610268611f6a600c610926565b611f746005610908565b90611d91565b1015611da0565b6003850195611f98611f9288610926565b94610616565b6370a08231611fa630610616565b95611fba611fb360405190565b9260e01b90565b82526001600160a01b0387166004830152602082602481865afa801561140d576112bb611fef91611ff6948891611563575090565b1115611e12565b6323b872dd946120058361094f565b61200e8a610926565b602061204789612053612039612029603296611f7488610908565b6120336031610908565b90611e84565b604051968794859460e01b90565b84528860048501611e97565b038189885af191821561140d578b9261223c575b50426120796112bb6102686003610926565b116121de5750506001546001600160a01b0316916120968a610926565b6020612047896120bc6120ae606495611f7487610908565b604051988994859460e01b90565b038189865af190811561140d578b9861211f6121048993602098612114966121c3575b50611f746120fe6120f86002546001600160a01b031690565b9e610926565b91610908565b6040519b8c978896879560e01b90565b855260048501611e97565b03925af193841561140d57611b3f946121a7575b505b61217261216c6121666121606001809661214f82886119d9565b8b019a01546001600160a01b031690565b99610926565b94610926565b9161094f565b927f4b318eefdd7bb107016b6a285ad8d255001224edad6fe9a0dd934ee9f3e911c59761219e60405190565b97889788611ec1565b6121be9060203d8111611406576113f981836104fa565b612133565b6121d9908a3d8111611406576113f981836104fa565b6120df565b85602094929861220661210461211494611f746120fe6120f86001546001600160a01b031690565b03925af193841561140d57611b3f94612220575b50612135565b6122379060203d8111611406576113f981836104fa565b61221a565b6122539060203d8111611406576113f981836104fa565b612067565b9061025291611cdb565b61026890610521565b6004546001600160a01b0316906122826007610926565b9061228d6008610926565b916122986009610926565b926122a3600a610926565b936122ae600b610926565b946122b9600d612262565b956122c4600e612262565b966122cf600f610939565b976122d930610616565b31986122e56010612262565b996122f06011612262565b9a6122fb6012612262565b9b6123066013612262565b9c6123196005546001600160a01b031690565b9d61232c6006546001600160a01b031690565b9d565b6102686123469161233e606090565b506016610915565b612350600c610926565b9061235a81612262565b9261236760028301612262565b9161237c60018201546001600160a01b031690565b9361238960038301610926565b92600661239860048501610926565b9301906102686123a783610939565b9261094f56fea26469706673582212201bb59ba402e608945e4867ed34017d788751055eab55e4d627c7bf103cf590c064736f6c63430008120033","opcodes":"PUSH1 0x80 PUSH1 0x40 MSTORE CALLVALUE PUSH3 0x43 JUMPI PUSH3 0x31 PUSH3 0x18 PUSH3 0x2F5 JUMP JUMPDEST SWAP14 SWAP13 SWAP1 SWAP13 SWAP12 SWAP2 SWAP12 SWAP11 SWAP3 SWAP11 SWAP10 SWAP4 SWAP10 SWAP9 SWAP5 SWAP9 SWAP8 SWAP6 SWAP8 PUSH3 0x6CC JUMP JUMPDEST PUSH1 0x40 MLOAD PUSH2 0x23E3 PUSH3 0xA1E DUP3 CODECOPY PUSH2 0x23E3 SWAP1 RETURN JUMPDEST PUSH1 0x0 DUP1 REVERT JUMPDEST PUSH4 0x4E487B71 PUSH1 0xE0 SHL PUSH1 0x0 MSTORE PUSH1 0x41 PUSH1 0x4 MSTORE PUSH1 0x24 PUSH1 0x0 REVERT JUMPDEST SWAP1 PUSH1 0x1F ADD PUSH1 0x1F NOT AND DUP2 ADD SWAP1 DUP2 LT PUSH1 0x1 PUSH1 0x1 PUSH1 0x40 SHL SUB DUP3 GT OR PUSH3 0x80 JUMPI PUSH1 0x40 MSTORE JUMP JUMPDEST PUSH3 0x48 JUMP JUMPDEST SWAP1 PUSH3 0x9D PUSH3 0x95 PUSH1 0x40 MLOAD SWAP1 JUMP JUMPDEST SWAP3 DUP4 PUSH3 0x5E JUMP JUMPDEST JUMP JUMPDEST PUSH1 0x1 PUSH1 0x1 PUSH1 0xA0 SHL SUB AND SWAP1 JUMP JUMPDEST SWAP1 JUMP JUMPDEST PUSH1 0x1 PUSH1 0x1 PUSH1 0xA0 SHL SUB DUP2 AND JUMPDEST SUB PUSH3 0x43 JUMPI JUMP JUMPDEST SWAP1 POP MLOAD SWAP1 PUSH3 0x9D DUP3 PUSH3 0xAE JUMP JUMPDEST DUP1 PUSH3 0xB9 JUMP JUMPDEST SWAP1 POP MLOAD SWAP1 PUSH3 0x9D DUP3 PUSH3 0xD0 JUMP JUMPDEST PUSH1 0x1 PUSH1 0x1 PUSH1 0x40 SHL SUB DUP2 GT PUSH3 0x80 JUMPI PUSH1 0x20 SWAP1 PUSH1 0x1F ADD PUSH1 0x1F NOT AND ADD SWAP1 JUMP JUMPDEST ADD SWAP1 JUMP JUMPDEST PUSH1 0x0 JUMPDEST DUP4 DUP2 LT PUSH3 0x11B JUMPI POP POP PUSH1 0x0 SWAP2 ADD MSTORE JUMP JUMPDEST DUP2 DUP2 ADD MLOAD DUP4 DUP3 ADD MSTORE PUSH1 0x20 ADD PUSH3 0x10A JUMP JUMPDEST SWAP1 SWAP3 SWAP2 SWAP3 PUSH3 0x145 PUSH3 0x13F DUP3 PUSH3 0xE6 JUMP JUMPDEST PUSH3 0x86 JUMP JUMPDEST SWAP4 DUP2 DUP6 MSTORE PUSH1 0x20 DUP6 ADD SWAP1 DUP3 DUP5 ADD GT PUSH3 0x43 JUMPI PUSH3 0x9D SWAP3 PUSH3 0x107 JUMP JUMPDEST SWAP1 DUP1 PUSH1 0x1F DUP4 ADD SLT ISZERO PUSH3 0x43 JUMPI DUP2 MLOAD PUSH3 0xAB SWAP3 PUSH1 0x20 ADD PUSH3 0x12C JUMP JUMPDEST SWAP2 PUSH2 0x1E0 DUP4 DUP4 SUB SLT PUSH3 0x43 JUMPI PUSH3 0x198 DUP3 DUP5 PUSH3 0xC1 JUMP JUMPDEST SWAP3 PUSH3 0x1A8 DUP4 PUSH1 0x20 DUP4 ADD PUSH3 0xC1 JUMP JUMPDEST SWAP3 PUSH1 0x40 PUSH3 0x1B9 DUP3 DUP3 DUP6 ADD PUSH3 0xC1 JUMP JUMPDEST SWAP4 PUSH3 0x1C9 DUP4 PUSH1 0x60 DUP7 ADD PUSH3 0xC1 JUMP JUMPDEST SWAP4 PUSH3 0x1D9 DUP5 PUSH1 0x80 DUP4 ADD PUSH3 0xC1 JUMP JUMPDEST SWAP4 PUSH3 0x1E9 DUP2 PUSH1 0xA0 DUP5 ADD PUSH3 0xD7 JUMP JUMPDEST SWAP4 PUSH3 0x1F9 DUP3 PUSH1 0xC0 DUP6 ADD PUSH3 0xD7 JUMP JUMPDEST SWAP4 PUSH3 0x209 DUP4 PUSH1 0xE0 DUP7 ADD PUSH3 0xD7 JUMP JUMPDEST SWAP4 PUSH2 0x100 DUP2 ADD MLOAD PUSH1 0x1 DUP1 DUP6 SHL SUB DUP2 GT PUSH3 0x43 JUMPI DUP5 PUSH3 0x22B SWAP2 DUP4 ADD PUSH3 0x162 JUMP JUMPDEST SWAP4 PUSH2 0x120 DUP3 ADD MLOAD PUSH1 0x1 DUP1 DUP7 SHL SUB DUP2 GT PUSH3 0x43 JUMPI DUP2 PUSH3 0x24D SWAP2 DUP5 ADD PUSH3 0x162 JUMP JUMPDEST SWAP4 PUSH2 0x140 DUP4 ADD MLOAD PUSH1 0x1 DUP1 DUP4 SHL SUB DUP2 GT PUSH3 0x43 JUMPI DUP3 PUSH3 0x26F SWAP2 DUP6 ADD PUSH3 0x162 JUMP JUMPDEST SWAP4 PUSH2 0x160 DUP5 ADD MLOAD PUSH1 0x1 DUP1 DUP5 SHL SUB DUP2 GT PUSH3 0x43 JUMPI DUP4 PUSH3 0x291 SWAP2 DUP7 ADD PUSH3 0x162 JUMP JUMPDEST SWAP4 PUSH2 0x180 DUP2 ADD MLOAD PUSH1 0x1 DUP1 DUP6 SHL SUB DUP2 GT PUSH3 0x43 JUMPI DUP5 PUSH3 0x2B3 SWAP2 DUP4 ADD PUSH3 0x162 JUMP JUMPDEST SWAP4 PUSH2 0x1A0 DUP3 ADD MLOAD PUSH1 0x1 DUP1 DUP7 SHL SUB DUP2 GT PUSH3 0x43 JUMPI DUP2 PUSH3 0x2D5 SWAP2 DUP5 ADD PUSH3 0x162 JUMP JUMPDEST SWAP4 PUSH1 0x1 DUP1 PUSH2 0x1C0 DUP6 ADD MLOAD SWAP3 SHL SUB DUP2 GT PUSH3 0x43 JUMPI PUSH3 0xAB SWAP3 ADD PUSH3 0x162 JUMP JUMPDEST PUSH3 0x318 PUSH3 0x2E01 DUP1 CODESIZE SUB DUP1 PUSH3 0x30C DUP2 PUSH3 0x86 JUMP JUMPDEST SWAP3 DUP4 CODECOPY DUP2 ADD SWAP1 PUSH3 0x17F JUMP JUMPDEST SWAP1 SWAP2 SWAP3 SWAP4 SWAP5 SWAP6 SWAP7 SWAP8 SWAP9 SWAP10 SWAP11 SWAP12 SWAP13 SWAP14 SWAP15 JUMP JUMPDEST PUSH3 0xAB SWAP1 PUSH3 0x9F SWAP1 PUSH1 0x1 PUSH1 0x1 PUSH1 0xA0 SHL SUB AND DUP3 JUMP JUMPDEST PUSH3 0xAB SWAP1 PUSH3 0x329 JUMP JUMPDEST PUSH3 0xAB SWAP1 PUSH3 0x33F JUMP JUMPDEST SWAP1 PUSH1 0x1 PUSH1 0x1 PUSH1 0xA0 SHL SUB SWAP1 JUMPDEST SWAP2 DUP2 NOT AND SWAP2 AND OR SWAP1 JUMP JUMPDEST SWAP1 PUSH3 0x37E PUSH3 0xAB PUSH3 0x386 SWAP3 PUSH3 0x34A JUMP JUMPDEST DUP3 SLOAD PUSH3 0x355 JUMP JUMPDEST SWAP1 SSTORE JUMP JUMPDEST SWAP1 PUSH1 0x0 NOT SWAP1 PUSH3 0x360 JUMP JUMPDEST PUSH3 0xAB PUSH3 0xAB PUSH3 0xAB SWAP3 SWAP1 JUMP JUMPDEST SWAP1 PUSH3 0x3B9 PUSH3 0xAB PUSH3 0x386 SWAP3 PUSH3 0x395 JUMP JUMPDEST DUP3 SLOAD PUSH3 0x38A JUMP JUMPDEST SWAP1 PUSH1 0xFF SWAP1 PUSH3 0x360 JUMP JUMPDEST PUSH4 0x4E487B71 PUSH1 0xE0 SHL PUSH1 0x0 MSTORE PUSH1 0x21 PUSH1 0x4 MSTORE PUSH1 0x24 PUSH1 0x0 REVERT JUMPDEST PUSH1 0x3 GT ISZERO PUSH3 0x3EC JUMPI JUMP JUMPDEST PUSH3 0x3CB JUMP JUMPDEST SWAP1 PUSH3 0x9D DUP3 PUSH3 0x3E1 JUMP JUMPDEST PUSH3 0xAB SWAP1 PUSH3 0x3F2 JUMP JUMPDEST SWAP1 PUSH3 0x41D PUSH3 0xAB PUSH3 0x386 SWAP3 PUSH3 0x3FE JUMP JUMPDEST DUP3 SLOAD PUSH3 0x3C1 JUMP JUMPDEST SWAP1 PUSH2 0xFF00 SWAP1 PUSH1 0x8 SHL PUSH3 0x360 JUMP JUMPDEST SWAP1 PUSH3 0x446 PUSH3 0xAB PUSH3 0x386 SWAP3 ISZERO ISZERO SWAP1 JUMP JUMPDEST DUP3 SLOAD PUSH3 0x425 JUMP JUMPDEST SWAP1 PUSH3 0xFF0000 SWAP1 PUSH1 0x10 SHL PUSH3 0x360 JUMP JUMPDEST SWAP1 PUSH3 0x470 PUSH3 0xAB PUSH3 0x386 SWAP3 ISZERO ISZERO SWAP1 JUMP JUMPDEST DUP3 SLOAD PUSH3 0x44E JUMP JUMPDEST PUSH4 0x4E487B71 PUSH1 0xE0 SHL PUSH1 0x0 MSTORE PUSH1 0x22 PUSH1 0x4 MSTORE PUSH1 0x24 PUSH1 0x0 REVERT JUMPDEST SWAP1 PUSH1 0x1 PUSH1 0x2 DUP4 DIV SWAP3 AND DUP1 ISZERO PUSH3 0x4B1 JUMPI JUMPDEST PUSH1 0x20 DUP4 LT EQ PUSH3 0x4AB JUMPI JUMP JUMPDEST PUSH3 0x478 JUMP JUMPDEST SWAP2 PUSH1 0x7F AND SWAP2 PUSH3 0x49F JUMP JUMPDEST SWAP2 PUSH1 0x0 NOT PUSH1 0x8 SWAP3 SWAP1 SWAP3 MUL SWAP2 DUP3 SHL SWAP2 SHL PUSH3 0x360 JUMP JUMPDEST SWAP2 SWAP1 PUSH3 0x4E6 PUSH3 0xAB PUSH3 0x386 SWAP4 PUSH3 0x395 JUMP JUMPDEST SWAP1 DUP4 SLOAD PUSH3 0x4BC JUMP JUMPDEST PUSH3 0x9D SWAP2 PUSH1 0x0 SWAP2 PUSH3 0x4D1 JUMP JUMPDEST DUP2 DUP2 LT PUSH3 0x509 JUMPI POP POP JUMP JUMPDEST DUP1 PUSH3 0x519 PUSH1 0x0 PUSH1 0x1 SWAP4 PUSH3 0x4EF JUMP JUMPDEST ADD PUSH3 0x4FD JUMP JUMPDEST SWAP2 SWAP1 PUSH1 0x1F DUP2 GT PUSH3 0x530 JUMPI POP POP POP JUMP JUMPDEST PUSH3 0x544 PUSH3 0x9D SWAP4 PUSH1 0x0 MSTORE PUSH1 0x20 PUSH1 0x0 KECCAK256 SWAP1 JUMP JUMPDEST SWAP1 PUSH1 0x20 PUSH1 0x1F DUP5 ADD DUP2 SWAP1 DIV DUP4 ADD SWAP4 LT PUSH3 0x568 JUMPI JUMPDEST PUSH1 0x20 PUSH1 0x1F SWAP1 SWAP2 ADD DIV ADD SWAP1 PUSH3 0x4FD JUMP JUMPDEST SWAP1 SWAP2 POP DUP2 SWAP1 PUSH3 0x558 JUMP JUMPDEST SWAP1 PUSH3 0x57D DUP2 MLOAD SWAP1 JUMP JUMPDEST SWAP1 PUSH1 0x1 PUSH1 0x1 PUSH1 0x40 SHL SUB DUP3 GT PUSH3 0x80 JUMPI PUSH3 0x5A5 DUP3 PUSH3 0x59E DUP6 SLOAD PUSH3 0x48E JUMP JUMPDEST DUP6 PUSH3 0x520 JUMP JUMPDEST PUSH1 0x20 SWAP1 PUSH1 0x1F DUP4 GT PUSH1 0x1 EQ PUSH3 0x5E4 JUMPI PUSH3 0x386 SWAP3 SWAP2 PUSH1 0x0 SWAP2 DUP4 PUSH3 0x5D8 JUMPI JUMPDEST POP POP PUSH1 0x0 NOT PUSH1 0x8 DUP4 MUL SHR NOT AND SWAP1 PUSH1 0x2 MUL OR SWAP1 JUMP JUMPDEST ADD MLOAD SWAP1 POP CODESIZE DUP1 PUSH3 0x5C4 JUMP JUMPDEST PUSH1 0x1F NOT DUP4 AND SWAP2 PUSH3 0x5FA DUP6 PUSH1 0x0 MSTORE PUSH1 0x20 PUSH1 0x0 KECCAK256 SWAP1 JUMP JUMPDEST SWAP3 PUSH1 0x0 JUMPDEST DUP2 DUP2 LT PUSH3 0x63B JUMPI POP SWAP2 PUSH1 0x2 SWAP4 SWAP2 DUP6 PUSH1 0x1 SWAP7 SWAP5 LT PUSH3 0x621 JUMPI JUMPDEST POP POP POP MUL ADD SWAP1 SSTORE JUMP JUMPDEST ADD MLOAD PUSH1 0x0 NOT PUSH1 0x8 PUSH1 0x1F DUP6 AND MUL SHR NOT AND SWAP1 SSTORE CODESIZE DUP1 DUP1 PUSH3 0x618 JUMP JUMPDEST SWAP2 SWAP4 PUSH1 0x20 PUSH1 0x1 DUP2 SWAP3 DUP8 DUP8 ADD MLOAD DUP2 SSTORE ADD SWAP6 ADD SWAP3 ADD PUSH3 0x5FE JUMP JUMPDEST SWAP1 PUSH3 0x9D SWAP2 PUSH3 0x573 JUMP JUMPDEST DUP1 ISZERO ISZERO PUSH3 0xB9 JUMP JUMPDEST SWAP1 POP MLOAD SWAP1 PUSH3 0x9D DUP3 PUSH3 0x660 JUMP JUMPDEST SWAP1 PUSH1 0x20 DUP3 DUP3 SUB SLT PUSH3 0x43 JUMPI PUSH3 0xAB SWAP2 PUSH3 0x669 JUMP JUMPDEST SWAP1 MSTORE JUMP JUMPDEST PUSH3 0x68F SWAP1 PUSH3 0x395 JUMP JUMPDEST PUSH1 0x1 PUSH1 0x1 PUSH1 0xA0 SHL SUB SWAP1 SWAP2 AND DUP2 MSTORE PUSH1 0x40 DUP2 ADD SWAP3 SWAP2 PUSH3 0x9D SWAP2 PUSH1 0x20 ADD SWAP1 PUSH3 0x693 JUMP JUMPDEST PUSH1 0x40 MLOAD RETURNDATASIZE PUSH1 0x0 DUP3 RETURNDATACOPY RETURNDATASIZE SWAP1 REVERT JUMPDEST DUP2 SWAP14 SWAP11 SWAP7 SWAP3 SWAP15 SWAP10 SWAP6 SWAP15 SWAP13 SWAP9 SWAP5 SWAP12 SWAP8 SWAP4 SWAP2 SWAP13 PUSH20 0x811029BAF786C77F1ADBA0C0DC29952D012C37B PUSH3 0x6FD SWAP1 PUSH3 0x34A JUMP JUMPDEST PUSH3 0x70A SWAP1 PUSH1 0x2 PUSH3 0x36A JUMP JUMPDEST PUSH3 0x71A PUSH3 0xBC614E PUSH1 0x3 PUSH3 0x3A5 JUMP JUMPDEST PUSH1 0x0 SWAP15 DUP16 SWAP3 PUSH3 0x72C DUP5 PUSH1 0xF PUSH3 0x409 JUMP JUMPDEST PUSH3 0x739 DUP5 PUSH1 0xF PUSH3 0x433 JUMP JUMPDEST PUSH3 0x746 DUP5 PUSH1 0xF PUSH3 0x45D JUMP JUMPDEST PUSH3 0x753 DUP5 PUSH1 0x17 PUSH3 0x3A5 JUMP JUMPDEST PUSH3 0x75E DUP14 PUSH3 0x9B9 JUMP JUMPDEST PUSH3 0x769 SWAP1 PUSH3 0x34A JUMP JUMPDEST PUSH3 0x776 SWAP1 PUSH1 0x1 PUSH3 0x36A JUMP JUMPDEST PUSH3 0x781 SWAP1 PUSH3 0x34A JUMP JUMPDEST PUSH3 0x78E SWAP1 PUSH1 0x4 PUSH3 0x36A JUMP JUMPDEST PUSH3 0x799 SWAP1 PUSH3 0x34A JUMP JUMPDEST PUSH3 0x7A4 SWAP2 PUSH3 0x36A JUMP JUMPDEST PUSH3 0x7AF SWAP1 PUSH3 0x34A JUMP JUMPDEST SWAP10 PUSH3 0x7BD DUP12 PUSH1 0x5 PUSH3 0x36A JUMP JUMPDEST PUSH3 0x7C8 SWAP1 PUSH3 0x34A JUMP JUMPDEST SWAP13 PUSH3 0x7D6 DUP15 PUSH1 0x6 PUSH3 0x36A JUMP JUMPDEST PUSH3 0x7E3 SWAP1 PUSH1 0x7 PUSH3 0x3A5 JUMP JUMPDEST PUSH3 0x7F0 SWAP1 PUSH1 0x8 PUSH3 0x3A5 JUMP JUMPDEST PUSH3 0x7FD SWAP1 PUSH1 0x9 PUSH3 0x3A5 JUMP JUMPDEST PUSH3 0x80A SWAP1 PUSH1 0xD PUSH3 0x654 JUMP JUMPDEST PUSH3 0x817 SWAP1 PUSH1 0xE PUSH3 0x654 JUMP JUMPDEST PUSH3 0x822 DUP9 PUSH3 0x395 JUMP JUMPDEST PUSH3 0x82F SWAP1 PUSH1 0xB PUSH3 0x3A5 JUMP JUMPDEST PUSH3 0x83C SWAP1 PUSH1 0x10 PUSH3 0x654 JUMP JUMPDEST PUSH3 0x849 SWAP1 PUSH1 0x11 PUSH3 0x654 JUMP JUMPDEST PUSH3 0x856 SWAP1 PUSH1 0x12 PUSH3 0x654 JUMP JUMPDEST PUSH3 0x863 SWAP1 PUSH1 0x14 PUSH3 0x654 JUMP JUMPDEST PUSH3 0x870 SWAP1 PUSH1 0x13 PUSH3 0x654 JUMP JUMPDEST PUSH3 0x87B SWAP1 PUSH3 0x34A JUMP JUMPDEST SWAP1 PUSH4 0x95EA7B3 PUSH1 0xFD SWAP5 PUSH3 0x88E PUSH1 0x40 MLOAD SWAP1 JUMP JUMPDEST SWAP4 PUSH3 0x89A DUP4 PUSH1 0xE0 SHL SWAP1 JUMP JUMPDEST DUP6 MSTORE DUP5 DUP1 PUSH3 0x8AE DUP10 DUP8 PUSH1 0x4 DUP5 ADD PUSH3 0x69E JUMP JUMPDEST SUB DUP2 DUP9 GAS SWAP5 PUSH1 0x20 SWAP6 CALL SWAP4 DUP5 ISZERO PUSH3 0x947 JUMPI PUSH3 0x8DA PUSH3 0x8F6 SWAP3 DUP8 SWAP3 PUSH1 0x20 SWAP8 PUSH3 0x94D JUMPI JUMPDEST POP PUSH3 0x34A JUMP JUMPDEST SWAP3 PUSH3 0x902 PUSH3 0x8E9 PUSH1 0x40 MLOAD SWAP1 JUMP JUMPDEST SWAP9 DUP10 SWAP7 DUP8 SWAP6 DUP7 SWAP5 PUSH1 0xE0 SHL SWAP1 JUMP JUMPDEST DUP5 MSTORE PUSH1 0x4 DUP5 ADD PUSH3 0x69E JUMP JUMPDEST SUB SWAP3 GAS CALL SWAP1 DUP2 ISZERO PUSH3 0x947 JUMPI POP PUSH3 0x917 JUMPI POP JUMP JUMPDEST PUSH3 0x93C SWAP1 PUSH1 0x20 RETURNDATASIZE DUP2 GT PUSH3 0x93F JUMPI JUMPDEST PUSH3 0x933 DUP2 DUP4 PUSH3 0x5E JUMP JUMPDEST DUP2 ADD SWAP1 PUSH3 0x678 JUMP JUMPDEST POP JUMP JUMPDEST POP RETURNDATASIZE PUSH3 0x927 JUMP JUMPDEST PUSH3 0x6C0 JUMP JUMPDEST PUSH3 0x967 SWAP1 DUP9 RETURNDATASIZE DUP2 GT PUSH3 0x93F JUMPI PUSH3 0x933 DUP2 DUP4 PUSH3 0x5E JUMP JUMPDEST PUSH3 0x8D3 JUMP JUMPDEST PUSH3 0x992 PUSH3 0x99C PUSH1 0x20 SWAP4 PUSH3 0x103 SWAP4 PUSH3 0x986 DUP2 MLOAD SWAP1 JUMP JUMPDEST DUP1 DUP4 MSTORE SWAP4 DUP5 SWAP3 PUSH1 0x20 ADD SWAP1 JUMP JUMPDEST SWAP6 DUP7 SWAP2 ADD PUSH3 0x107 JUMP JUMPDEST PUSH1 0x1F ADD PUSH1 0x1F NOT AND SWAP1 JUMP JUMPDEST PUSH1 0x20 DUP1 DUP3 MSTORE PUSH3 0xAB SWAP3 SWAP2 ADD SWAP1 PUSH3 0x96D JUMP JUMPDEST PUSH3 0x9EA PUSH3 0x9FA PUSH3 0x9D SWAP3 PUSH3 0x9D0 PUSH1 0x40 MLOAD SWAP1 JUMP JUMPDEST PUSH4 0x104C13EB PUSH1 0xE2 SHL PUSH1 0x20 DUP3 ADD MSTORE SWAP3 DUP4 SWAP2 PUSH1 0x24 DUP4 ADD PUSH3 0x9A6 JUMP JUMPDEST PUSH1 0x20 DUP3 ADD DUP2 SUB DUP3 MSTORE SUB DUP3 PUSH3 0x5E JUMP JUMPDEST PUSH1 0x0 DUP1 SWAP2 PUSH3 0xA11 PUSH11 0x636F6E736F6C652E6C6F67 SWAP1 JUMP JUMPDEST PUSH1 0x20 DUP3 MLOAD SWAP3 ADD SWAP1 GAS STATICCALL POP JUMP INVALID PUSH1 0xA0 PUSH1 0x40 MSTORE PUSH1 0x4 CALLDATASIZE LT ISZERO PUSH2 0x12 JUMPI PUSH1 0x0 DUP1 REVERT JUMPDEST PUSH1 0x0 CALLDATALOAD PUSH1 0xE0 SHR DUP1 PUSH4 0x203D002 EQ PUSH2 0x232 JUMPI DUP1 PUSH4 0x2D05D3F EQ PUSH2 0x22D JUMPI DUP1 PUSH4 0x3C29D58 EQ PUSH2 0x228 JUMPI DUP1 PUSH4 0x7D94E4A EQ PUSH2 0x223 JUMPI DUP1 PUSH4 0xA771370 EQ PUSH2 0x21E JUMPI DUP1 PUSH4 0x18AA9F1E EQ PUSH2 0x219 JUMPI DUP1 PUSH4 0x24274EE9 EQ PUSH2 0x214 JUMPI DUP1 PUSH4 0x263A58AA EQ PUSH2 0x20F JUMPI DUP1 PUSH4 0x28C30C07 EQ PUSH2 0x20A JUMPI DUP1 PUSH4 0x29DCB0CF EQ PUSH2 0x205 JUMPI DUP1 PUSH4 0x43AB265F EQ PUSH2 0x200 JUMPI DUP1 PUSH4 0x4C4CEA5A EQ PUSH2 0x1FB JUMPI DUP1 PUSH4 0x4CBC1553 EQ PUSH2 0x1F6 JUMPI DUP1 PUSH4 0x4E695A37 EQ PUSH2 0x1F1 JUMPI DUP1 PUSH4 0x54214F69 EQ PUSH2 0x1EC JUMPI DUP1 PUSH4 0x5EB32936 EQ PUSH2 0x1E7 JUMPI DUP1 PUSH4 0x62D809A6 EQ PUSH2 0x1E2 JUMPI DUP1 PUSH4 0x80007E83 EQ PUSH2 0x1DD JUMPI DUP1 PUSH4 0x937E09B1 EQ PUSH2 0x1D8 JUMPI DUP1 PUSH4 0x992A7DFB EQ PUSH2 0x1D3 JUMPI DUP1 PUSH4 0xA278A485 EQ PUSH2 0x1CE JUMPI DUP1 PUSH4 0xABB5CA09 EQ PUSH2 0x1C9 JUMPI DUP1 PUSH4 0xB35A7DD4 EQ PUSH2 0x1C4 JUMPI DUP1 PUSH4 0xB40141BF EQ PUSH2 0x1BF JUMPI DUP1 PUSH4 0xB82C86D6 EQ PUSH2 0x1BA JUMPI DUP1 PUSH4 0xC19D93FB EQ PUSH2 0x1B5 JUMPI DUP1 PUSH4 0xC3E20C9F EQ PUSH2 0x1B0 JUMPI DUP1 PUSH4 0xC59EE1DC EQ PUSH2 0x1AB JUMPI DUP1 PUSH4 0xCA4B208B EQ PUSH2 0x1A6 JUMPI DUP1 PUSH4 0xD1707551 EQ PUSH2 0x1A1 JUMPI DUP1 PUSH4 0xD5CEF133 EQ PUSH2 0x19C JUMPI DUP1 PUSH4 0xD688CF53 EQ PUSH2 0x197 JUMPI DUP1 PUSH4 0xE9D1EDDE EQ PUSH2 0x192 JUMPI PUSH4 0xFF3A9C7E SUB PUSH2 0x237 JUMPI PUSH2 0xE6E JUMP JUMPDEST PUSH2 0xD75 JUMP JUMPDEST PUSH2 0xD5D JUMP JUMPDEST PUSH2 0xD42 JUMP JUMPDEST PUSH2 0xD27 JUMP JUMPDEST PUSH2 0xD00 JUMP JUMPDEST PUSH2 0xCD9 JUMP JUMPDEST PUSH2 0xCB2 JUMP JUMPDEST PUSH2 0xC7F JUMP JUMPDEST PUSH2 0xC07 JUMP JUMPDEST PUSH2 0xBE0 JUMP JUMPDEST PUSH2 0xBB5 JUMP JUMPDEST PUSH2 0xA92 JUMP JUMPDEST PUSH2 0xA6B JUMP JUMPDEST PUSH2 0xA2B JUMP JUMPDEST PUSH2 0x8ED JUMP JUMPDEST PUSH2 0x8C6 JUMP JUMPDEST PUSH2 0x8A1 JUMP JUMPDEST PUSH2 0x863 JUMP JUMPDEST PUSH2 0x82A JUMP JUMPDEST PUSH2 0x7EC JUMP JUMPDEST PUSH2 0x7D3 JUMP JUMPDEST PUSH2 0x788 JUMP JUMPDEST PUSH2 0x761 JUMP JUMPDEST PUSH2 0x746 JUMP JUMPDEST PUSH2 0x71D JUMP JUMPDEST PUSH2 0x6D9 JUMP JUMPDEST PUSH2 0x6B2 JUMP JUMPDEST PUSH2 0x68B JUMP JUMPDEST PUSH2 0x664 JUMP JUMPDEST PUSH2 0x59C JUMP JUMPDEST PUSH2 0x575 JUMP JUMPDEST PUSH2 0x3CB JUMP JUMPDEST PUSH2 0x35A JUMP JUMPDEST PUSH1 0x0 DUP1 REVERT JUMPDEST DUP1 JUMPDEST SUB PUSH2 0x237 JUMPI JUMP JUMPDEST SWAP1 POP CALLDATALOAD SWAP1 PUSH2 0x252 DUP3 PUSH2 0x23C JUMP JUMPDEST JUMP JUMPDEST SWAP1 PUSH1 0x20 DUP3 DUP3 SUB SLT PUSH2 0x237 JUMPI PUSH2 0x268 SWAP2 PUSH2 0x245 JUMP JUMPDEST SWAP1 JUMP JUMPDEST PUSH1 0x0 JUMPDEST DUP4 DUP2 LT PUSH2 0x27E JUMPI POP POP PUSH1 0x0 SWAP2 ADD MSTORE JUMP JUMPDEST DUP2 DUP2 ADD MLOAD DUP4 DUP3 ADD MSTORE PUSH1 0x20 ADD PUSH2 0x26E JUMP JUMPDEST PUSH2 0x2AF PUSH2 0x2B8 PUSH1 0x20 SWAP4 PUSH2 0x2C2 SWAP4 PUSH2 0x2A3 DUP2 MLOAD SWAP1 JUMP JUMPDEST DUP1 DUP4 MSTORE SWAP4 DUP5 SWAP3 PUSH1 0x20 ADD SWAP1 JUMP JUMPDEST SWAP6 DUP7 SWAP2 ADD PUSH2 0x26B JUMP JUMPDEST PUSH1 0x1F ADD PUSH1 0x1F NOT AND SWAP1 JUMP JUMPDEST ADD SWAP1 JUMP JUMPDEST PUSH1 0x1 PUSH1 0x1 PUSH1 0xA0 SHL SUB AND SWAP1 JUMP JUMPDEST SWAP1 MSTORE JUMP JUMPDEST SWAP4 SWAP9 SWAP8 SWAP6 PUSH2 0x33B PUSH1 0xE0 SWAP7 PUSH2 0x334 PUSH2 0x32C PUSH2 0x252 SWAP12 SWAP7 PUSH2 0x34B SWAP9 PUSH2 0x31F PUSH2 0x30D DUP13 PUSH2 0x342 SWAP11 PUSH2 0x100 DUP3 ADD SWAP2 PUSH1 0x0 DUP2 DUP5 SUB SWAP2 ADD MSTORE PUSH2 0x28E JUMP JUMPDEST PUSH1 0x1 PUSH1 0x1 PUSH1 0xA0 SHL SUB SWAP1 SWAP4 AND PUSH1 0x20 DUP14 ADD MSTORE JUMP JUMPDEST DUP11 DUP3 SUB PUSH1 0x40 DUP13 ADD MSTORE PUSH2 0x28E JUMP JUMPDEST SWAP13 PUSH1 0x60 DUP10 ADD MSTORE JUMP JUMPDEST PUSH1 0x80 DUP8 ADD MSTORE JUMP JUMPDEST PUSH1 0xA0 DUP6 ADD MSTORE JUMP JUMPDEST ISZERO ISZERO PUSH1 0xC0 DUP4 ADD MSTORE JUMP JUMPDEST ADD SWAP1 PUSH1 0x1 PUSH1 0x1 PUSH1 0xA0 SHL SUB AND SWAP1 MSTORE JUMP JUMPDEST CALLVALUE PUSH2 0x237 JUMPI PUSH2 0x391 PUSH2 0x375 PUSH2 0x370 CALLDATASIZE PUSH1 0x4 PUSH2 0x254 JUMP JUMPDEST PUSH2 0x232F JUMP JUMPDEST SWAP5 PUSH2 0x388 SWAP9 SWAP7 SWAP9 SWAP5 SWAP2 SWAP5 SWAP4 SWAP3 SWAP4 PUSH1 0x40 MLOAD SWAP1 JUMP JUMPDEST SWAP9 DUP10 SWAP9 DUP10 PUSH2 0x2D6 JUMP JUMPDEST SUB SWAP1 RETURN JUMPDEST PUSH1 0x0 SWAP2 SUB SLT PUSH2 0x237 JUMPI JUMP JUMPDEST PUSH2 0x268 SWAP2 PUSH1 0x8 MUL SHR PUSH1 0x1 PUSH1 0x1 PUSH1 0xA0 SHL SUB AND SWAP1 JUMP JUMPDEST SWAP1 PUSH2 0x268 SWAP2 SLOAD PUSH2 0x3A0 JUMP JUMPDEST PUSH2 0x268 PUSH1 0x0 PUSH1 0x4 PUSH2 0x3B4 JUMP JUMPDEST CALLVALUE PUSH2 0x237 JUMPI PUSH2 0x3DB CALLDATASIZE PUSH1 0x4 PUSH2 0x395 JUMP JUMPDEST PUSH2 0x391 PUSH2 0x3E6 PUSH2 0x3BF JUMP JUMPDEST PUSH1 0x40 MLOAD SWAP2 DUP3 SWAP2 DUP3 PUSH1 0x1 PUSH1 0x1 PUSH1 0xA0 SHL SUB SWAP1 SWAP2 AND DUP2 MSTORE PUSH1 0x20 ADD SWAP1 JUMP JUMPDEST PUSH4 0x4E487B71 PUSH1 0xE0 SHL PUSH1 0x0 MSTORE PUSH1 0x0 PUSH1 0x4 MSTORE PUSH1 0x24 PUSH1 0x0 REVERT JUMPDEST PUSH4 0x4E487B71 PUSH1 0xE0 SHL PUSH1 0x0 MSTORE PUSH1 0x22 PUSH1 0x4 MSTORE PUSH1 0x24 PUSH1 0x0 REVERT JUMPDEST SWAP1 PUSH1 0x1 PUSH1 0x2 DUP4 DIV SWAP3 AND DUP1 ISZERO PUSH2 0x44C JUMPI JUMPDEST PUSH1 0x20 DUP4 LT EQ PUSH2 0x447 JUMPI JUMP JUMPDEST PUSH2 0x416 JUMP JUMPDEST SWAP2 PUSH1 0x7F AND SWAP2 PUSH2 0x43C JUMP JUMPDEST DUP1 SLOAD PUSH1 0x0 SWAP4 SWAP3 SWAP2 PUSH2 0x473 PUSH2 0x469 DUP4 PUSH2 0x42C JUMP JUMPDEST DUP1 DUP6 MSTORE SWAP4 PUSH1 0x20 ADD SWAP1 JUMP JUMPDEST SWAP2 PUSH1 0x1 DUP2 AND SWAP1 DUP2 ISZERO PUSH2 0x4C5 JUMPI POP PUSH1 0x1 EQ PUSH2 0x48C JUMPI POP POP POP JUMP JUMPDEST PUSH2 0x49F SWAP2 SWAP3 SWAP4 SWAP5 POP PUSH1 0x0 MSTORE PUSH1 0x20 PUSH1 0x0 KECCAK256 SWAP1 JUMP JUMPDEST SWAP2 PUSH1 0x0 SWAP3 JUMPDEST DUP2 DUP5 LT PUSH2 0x4B1 JUMPI POP POP ADD SWAP1 JUMP JUMPDEST DUP1 SLOAD DUP5 DUP5 ADD MSTORE PUSH1 0x20 SWAP1 SWAP4 ADD SWAP3 PUSH1 0x1 ADD PUSH2 0x4A4 JUMP JUMPDEST SWAP3 SWAP5 SWAP6 POP POP POP PUSH1 0xFF NOT AND DUP3 MSTORE ISZERO ISZERO PUSH1 0x20 MUL ADD SWAP1 JUMP JUMPDEST SWAP1 PUSH2 0x268 SWAP2 PUSH2 0x456 JUMP JUMPDEST PUSH4 0x4E487B71 PUSH1 0xE0 SHL PUSH1 0x0 MSTORE PUSH1 0x41 PUSH1 0x4 MSTORE PUSH1 0x24 PUSH1 0x0 REVERT JUMPDEST SWAP1 PUSH1 0x1F ADD PUSH1 0x1F NOT AND DUP2 ADD SWAP1 DUP2 LT PUSH8 0xFFFFFFFFFFFFFFFF DUP3 GT OR PUSH2 0x51C JUMPI PUSH1 0x40 MSTORE JUMP JUMPDEST PUSH2 0x4E4 JUMP JUMPDEST SWAP1 PUSH2 0x252 PUSH2 0x53B SWAP3 PUSH2 0x532 PUSH1 0x40 MLOAD SWAP1 JUMP JUMPDEST SWAP4 DUP5 DUP1 SWAP3 PUSH2 0x4DA JUMP JUMPDEST SUB DUP4 PUSH2 0x4FA JUMP JUMPDEST SWAP1 PUSH1 0x0 LT PUSH2 0x553 JUMPI PUSH2 0x268 SWAP1 PUSH2 0x521 JUMP JUMPDEST PUSH2 0x400 JUMP JUMPDEST PUSH2 0x268 PUSH1 0x0 PUSH1 0xE PUSH2 0x542 JUMP JUMPDEST PUSH1 0x20 DUP1 DUP3 MSTORE PUSH2 0x268 SWAP3 SWAP2 ADD SWAP1 PUSH2 0x28E JUMP JUMPDEST CALLVALUE PUSH2 0x237 JUMPI PUSH2 0x585 CALLDATASIZE PUSH1 0x4 PUSH2 0x395 JUMP JUMPDEST PUSH2 0x391 PUSH2 0x590 PUSH2 0x558 JUMP JUMPDEST PUSH1 0x40 MLOAD SWAP2 DUP3 SWAP2 DUP3 PUSH2 0x564 JUMP JUMPDEST CALLVALUE PUSH2 0x237 JUMPI PUSH2 0x5AC CALLDATASIZE PUSH1 0x4 PUSH2 0x395 JUMP JUMPDEST PUSH2 0x391 PUSH2 0x5B7 PUSH2 0x14E9 JUMP JUMPDEST PUSH1 0x40 MLOAD SWAP2 DUP3 SWAP2 DUP3 SWAP1 DUP2 MSTORE PUSH1 0x20 ADD SWAP1 JUMP JUMPDEST PUSH1 0x1 PUSH1 0x1 PUSH1 0xA0 SHL SUB DUP2 AND PUSH2 0x23E JUMP JUMPDEST SWAP1 POP CALLDATALOAD SWAP1 PUSH2 0x252 DUP3 PUSH2 0x5C7 JUMP JUMPDEST SWAP1 PUSH1 0x20 DUP3 DUP3 SUB SLT PUSH2 0x237 JUMPI PUSH2 0x268 SWAP2 PUSH2 0x5D6 JUMP JUMPDEST PUSH2 0x2C6 PUSH2 0x268 PUSH2 0x268 SWAP3 PUSH1 0x1 PUSH1 0x1 PUSH1 0xA0 SHL SUB AND SWAP1 JUMP JUMPDEST PUSH2 0x268 SWAP1 PUSH2 0x5F7 JUMP JUMPDEST PUSH2 0x268 SWAP1 PUSH2 0x60D JUMP JUMPDEST SWAP1 PUSH2 0x629 SWAP1 PUSH2 0x616 JUMP JUMPDEST PUSH1 0x0 MSTORE PUSH1 0x20 MSTORE PUSH1 0x40 PUSH1 0x0 KECCAK256 SWAP1 JUMP JUMPDEST PUSH2 0x268 SWAP2 PUSH1 0x8 MUL SHR DUP2 JUMP JUMPDEST SWAP1 PUSH2 0x268 SWAP2 SLOAD PUSH2 0x637 JUMP JUMPDEST PUSH2 0x268 SWAP1 PUSH2 0x65F PUSH1 0x15 SWAP2 PUSH1 0x0 SWAP3 PUSH2 0x61F JUMP JUMPDEST PUSH2 0x642 JUMP JUMPDEST CALLVALUE PUSH2 0x237 JUMPI PUSH2 0x391 PUSH2 0x5B7 PUSH2 0x67A CALLDATASIZE PUSH1 0x4 PUSH2 0x5E3 JUMP JUMPDEST PUSH2 0x64D JUMP JUMPDEST PUSH2 0x268 PUSH1 0x0 PUSH1 0x12 PUSH2 0x542 JUMP JUMPDEST CALLVALUE PUSH2 0x237 JUMPI PUSH2 0x69B CALLDATASIZE PUSH1 0x4 PUSH2 0x395 JUMP JUMPDEST PUSH2 0x391 PUSH2 0x590 PUSH2 0x67F JUMP JUMPDEST PUSH2 0x268 PUSH1 0x0 PUSH1 0xC PUSH2 0x642 JUMP JUMPDEST CALLVALUE PUSH2 0x237 JUMPI PUSH2 0x6C2 CALLDATASIZE PUSH1 0x4 PUSH2 0x395 JUMP JUMPDEST PUSH2 0x391 PUSH2 0x5B7 PUSH2 0x6A6 JUMP JUMPDEST PUSH2 0x268 PUSH1 0x0 PUSH1 0x3 PUSH2 0x642 JUMP JUMPDEST CALLVALUE PUSH2 0x237 JUMPI PUSH2 0x6E9 CALLDATASIZE PUSH1 0x4 PUSH2 0x395 JUMP JUMPDEST PUSH2 0x391 PUSH2 0x5B7 PUSH2 0x6CD JUMP JUMPDEST DUP1 ISZERO ISZERO PUSH2 0x23E JUMP JUMPDEST SWAP1 POP CALLDATALOAD SWAP1 PUSH2 0x252 DUP3 PUSH2 0x6F4 JUMP JUMPDEST SWAP1 PUSH1 0x20 DUP3 DUP3 SUB SLT PUSH2 0x237 JUMPI PUSH2 0x268 SWAP2 PUSH2 0x6FC JUMP JUMPDEST CALLVALUE PUSH2 0x237 JUMPI PUSH2 0x735 PUSH2 0x730 CALLDATASIZE PUSH1 0x4 PUSH2 0x709 JUMP JUMPDEST PUSH2 0xFFF JUMP JUMPDEST PUSH1 0x40 MLOAD STOP JUMPDEST PUSH2 0x268 PUSH1 0x0 PUSH1 0x8 PUSH2 0x642 JUMP JUMPDEST CALLVALUE PUSH2 0x237 JUMPI PUSH2 0x756 CALLDATASIZE PUSH1 0x4 PUSH2 0x395 JUMP JUMPDEST PUSH2 0x391 PUSH2 0x5B7 PUSH2 0x73A JUMP JUMPDEST CALLVALUE PUSH2 0x237 JUMPI PUSH2 0x391 PUSH2 0x5B7 PUSH2 0x777 CALLDATASIZE PUSH1 0x4 PUSH2 0x5E3 JUMP JUMPDEST PUSH2 0x14F6 JUMP JUMPDEST PUSH2 0x268 PUSH1 0x0 PUSH1 0xA PUSH2 0x642 JUMP JUMPDEST CALLVALUE PUSH2 0x237 JUMPI PUSH2 0x798 CALLDATASIZE PUSH1 0x4 PUSH2 0x395 JUMP JUMPDEST PUSH2 0x391 PUSH2 0x5B7 PUSH2 0x77C JUMP JUMPDEST SWAP1 SWAP2 PUSH1 0x60 DUP3 DUP5 SUB SLT PUSH2 0x237 JUMPI PUSH2 0x268 PUSH2 0x7BC DUP5 DUP5 PUSH2 0x5D6 JUMP JUMPDEST SWAP4 PUSH2 0x7CA DUP2 PUSH1 0x20 DUP7 ADD PUSH2 0x245 JUMP JUMPDEST SWAP4 PUSH1 0x40 ADD PUSH2 0x5D6 JUMP JUMPDEST CALLVALUE PUSH2 0x237 JUMPI PUSH2 0x735 PUSH2 0x7E6 CALLDATASIZE PUSH1 0x4 PUSH2 0x7A3 JUMP JUMPDEST SWAP2 PUSH2 0x1460 JUMP JUMPDEST CALLVALUE PUSH2 0x237 JUMPI PUSH2 0x735 PUSH2 0x7FF CALLDATASIZE PUSH1 0x4 PUSH2 0x254 JUMP JUMPDEST PUSH2 0x1C07 JUMP JUMPDEST PUSH2 0x268 SWAP2 PUSH1 0x8 MUL SHR JUMPDEST PUSH1 0xFF AND SWAP1 JUMP JUMPDEST SWAP1 PUSH2 0x268 SWAP2 SLOAD PUSH2 0x804 JUMP JUMPDEST PUSH2 0x268 PUSH1 0x1 PUSH1 0xF PUSH2 0x813 JUMP JUMPDEST CALLVALUE PUSH2 0x237 JUMPI PUSH2 0x83A CALLDATASIZE PUSH1 0x4 PUSH2 0x395 JUMP JUMPDEST PUSH2 0x391 PUSH2 0x845 PUSH2 0x81E JUMP JUMPDEST PUSH1 0x40 MLOAD SWAP2 DUP3 SWAP2 DUP3 SWAP1 ISZERO ISZERO DUP2 MSTORE PUSH1 0x20 ADD SWAP1 JUMP JUMPDEST PUSH2 0x268 PUSH1 0x0 PUSH1 0x13 PUSH2 0x542 JUMP JUMPDEST CALLVALUE PUSH2 0x237 JUMPI PUSH2 0x873 CALLDATASIZE PUSH1 0x4 PUSH2 0x395 JUMP JUMPDEST PUSH2 0x391 PUSH2 0x590 PUSH2 0x857 JUMP JUMPDEST SWAP2 SWAP1 PUSH1 0x40 DUP4 DUP3 SUB SLT PUSH2 0x237 JUMPI PUSH2 0x268 SWAP1 PUSH2 0x898 DUP2 DUP6 PUSH2 0x245 JUMP JUMPDEST SWAP4 PUSH1 0x20 ADD PUSH2 0x5D6 JUMP JUMPDEST CALLVALUE PUSH2 0x237 JUMPI PUSH2 0x735 PUSH2 0x8B4 CALLDATASIZE PUSH1 0x4 PUSH2 0x87E JUMP JUMPDEST SWAP1 PUSH2 0x2258 JUMP JUMPDEST PUSH2 0x268 PUSH1 0x2 PUSH1 0xF PUSH2 0x813 JUMP JUMPDEST CALLVALUE PUSH2 0x237 JUMPI PUSH2 0x8D6 CALLDATASIZE PUSH1 0x4 PUSH2 0x395 JUMP JUMPDEST PUSH2 0x391 PUSH2 0x845 PUSH2 0x8BA JUMP JUMPDEST PUSH2 0x268 PUSH1 0x0 PUSH1 0x7 PUSH2 0x642 JUMP JUMPDEST CALLVALUE PUSH2 0x237 JUMPI PUSH2 0x8FD CALLDATASIZE PUSH1 0x4 PUSH2 0x395 JUMP JUMPDEST PUSH2 0x391 PUSH2 0x5B7 PUSH2 0x8E1 JUMP JUMPDEST PUSH2 0x268 PUSH2 0x268 PUSH2 0x268 SWAP3 SWAP1 JUMP JUMPDEST SWAP1 PUSH2 0x629 SWAP1 PUSH2 0x908 JUMP JUMPDEST PUSH2 0x268 SWAP1 DUP2 JUMP JUMPDEST PUSH2 0x268 SWAP1 SLOAD PUSH2 0x91F JUMP JUMPDEST PUSH2 0x268 SWAP1 PUSH2 0x80D JUMP JUMPDEST PUSH2 0x268 SWAP1 SLOAD PUSH2 0x930 JUMP JUMPDEST PUSH2 0x268 SWAP1 PUSH1 0x8 SHR PUSH2 0x2C6 JUMP JUMPDEST PUSH2 0x268 SWAP1 SLOAD PUSH2 0x943 JUMP JUMPDEST PUSH2 0x964 SWAP1 PUSH1 0x16 PUSH2 0x915 JUMP JUMPDEST PUSH2 0x96D DUP2 PUSH2 0x521 JUMP JUMPDEST SWAP2 PUSH2 0x982 PUSH1 0x1 DUP4 ADD SLOAD PUSH1 0x1 PUSH1 0x1 PUSH1 0xA0 SHL SUB AND SWAP1 JUMP JUMPDEST SWAP2 PUSH2 0x98F PUSH1 0x2 DUP3 ADD PUSH2 0x521 JUMP JUMPDEST SWAP2 PUSH2 0x99C PUSH1 0x3 DUP4 ADD PUSH2 0x926 JUMP JUMPDEST SWAP2 PUSH2 0x9A9 PUSH1 0x4 DUP3 ADD PUSH2 0x926 JUMP JUMPDEST SWAP2 PUSH2 0x268 PUSH1 0x6 PUSH2 0x9BA DUP2 DUP6 ADD PUSH2 0x939 JUMP JUMPDEST SWAP4 ADD PUSH2 0x94F JUMP JUMPDEST SWAP3 PUSH1 0xC0 SWAP5 SWAP9 SWAP8 SWAP6 PUSH2 0xA1B PUSH2 0xA13 PUSH2 0x34B SWAP6 PUSH2 0xA22 SWAP5 PUSH2 0xA06 PUSH2 0x9F4 PUSH2 0x252 SWAP14 SWAP9 PUSH1 0xE0 DUP13 ADD SWAP1 DUP13 PUSH1 0x0 DUP2 DUP5 SUB SWAP2 ADD MSTORE PUSH2 0x28E JUMP JUMPDEST PUSH1 0x1 PUSH1 0x1 PUSH1 0xA0 SHL SUB SWAP1 SWAP4 AND PUSH1 0x20 DUP12 ADD MSTORE JUMP JUMPDEST DUP9 DUP3 SUB PUSH1 0x40 DUP11 ADD MSTORE PUSH2 0x28E JUMP JUMPDEST SWAP11 PUSH1 0x60 DUP8 ADD MSTORE JUMP JUMPDEST PUSH1 0x80 DUP6 ADD MSTORE JUMP JUMPDEST ISZERO ISZERO PUSH1 0xA0 DUP4 ADD MSTORE JUMP JUMPDEST CALLVALUE PUSH2 0x237 JUMPI PUSH2 0x391 PUSH2 0xA46 PUSH2 0xA41 CALLDATASIZE PUSH1 0x4 PUSH2 0x254 JUMP JUMPDEST PUSH2 0x959 JUMP JUMPDEST SWAP4 PUSH2 0xA56 SWAP8 SWAP6 SWAP8 SWAP4 SWAP2 SWAP4 PUSH1 0x40 MLOAD SWAP1 JUMP JUMPDEST SWAP8 DUP9 SWAP8 DUP9 PUSH2 0x9C1 JUMP JUMPDEST PUSH2 0x268 PUSH1 0x0 PUSH1 0x14 PUSH2 0x542 JUMP JUMPDEST CALLVALUE PUSH2 0x237 JUMPI PUSH2 0xA7B CALLDATASIZE PUSH1 0x4 PUSH2 0x395 JUMP JUMPDEST PUSH2 0x391 PUSH2 0x590 PUSH2 0xA5F JUMP JUMPDEST PUSH2 0x268 PUSH1 0x0 PUSH1 0x10 PUSH2 0x542 JUMP JUMPDEST CALLVALUE PUSH2 0x237 JUMPI PUSH2 0xAA2 CALLDATASIZE PUSH1 0x4 PUSH2 0x395 JUMP JUMPDEST PUSH2 0x391 PUSH2 0x590 PUSH2 0xA86 JUMP JUMPDEST SWAP1 PUSH2 0x252 PUSH2 0xABA PUSH1 0x40 MLOAD SWAP1 JUMP JUMPDEST SWAP3 DUP4 PUSH2 0x4FA JUMP JUMPDEST PUSH8 0xFFFFFFFFFFFFFFFF DUP2 GT PUSH2 0x51C JUMPI PUSH1 0x20 SWAP1 PUSH1 0x1F ADD PUSH1 0x1F NOT AND ADD SWAP1 JUMP JUMPDEST SWAP1 DUP3 PUSH1 0x0 SWAP4 SWAP3 DUP3 CALLDATACOPY ADD MSTORE JUMP JUMPDEST SWAP1 SWAP3 SWAP2 SWAP3 PUSH2 0xAFF PUSH2 0xAFA DUP3 PUSH2 0xAC1 JUMP JUMPDEST PUSH2 0xAAD JUMP JUMPDEST SWAP4 DUP2 DUP6 MSTORE PUSH1 0x20 DUP6 ADD SWAP1 DUP3 DUP5 ADD GT PUSH2 0x237 JUMPI PUSH2 0x252 SWAP3 PUSH2 0xADE JUMP JUMPDEST SWAP1 DUP1 PUSH1 0x1F DUP4 ADD SLT ISZERO PUSH2 0x237 JUMPI DUP2 PUSH1 0x20 PUSH2 0x268 SWAP4 CALLDATALOAD SWAP2 ADD PUSH2 0xAEA JUMP JUMPDEST SWAP1 SWAP2 PUSH1 0xC0 DUP3 DUP5 SUB SLT PUSH2 0x237 JUMPI DUP2 CALLDATALOAD PUSH8 0xFFFFFFFFFFFFFFFF DUP2 GT PUSH2 0x237 JUMPI DUP4 PUSH2 0xB5D SWAP2 DUP5 ADD PUSH2 0xB19 JUMP JUMPDEST SWAP3 PUSH2 0xB6B DUP2 PUSH1 0x20 DUP6 ADD PUSH2 0x245 JUMP JUMPDEST SWAP3 PUSH2 0xB79 DUP3 PUSH1 0x40 DUP4 ADD PUSH2 0x5D6 JUMP JUMPDEST SWAP3 PUSH2 0xB87 DUP4 PUSH1 0x60 DUP5 ADD PUSH2 0x5D6 JUMP JUMPDEST SWAP3 PUSH1 0x80 DUP4 ADD CALLDATALOAD SWAP1 PUSH8 0xFFFFFFFFFFFFFFFF DUP3 GT PUSH2 0x237 JUMPI PUSH2 0xBAC DUP2 PUSH2 0x268 SWAP4 DUP7 ADD PUSH2 0xB19 JUMP JUMPDEST SWAP4 PUSH1 0xA0 ADD PUSH2 0x245 JUMP JUMPDEST CALLVALUE PUSH2 0x237 JUMPI PUSH2 0x735 PUSH2 0xBC8 CALLDATASIZE PUSH1 0x4 PUSH2 0xB34 JUMP JUMPDEST SWAP5 SWAP4 SWAP1 SWAP4 SWAP3 SWAP2 SWAP3 PUSH2 0x1B44 JUMP JUMPDEST PUSH2 0x268 PUSH1 0x0 PUSH1 0x17 PUSH2 0x642 JUMP JUMPDEST CALLVALUE PUSH2 0x237 JUMPI PUSH2 0xBF0 CALLDATASIZE PUSH1 0x4 PUSH2 0x395 JUMP JUMPDEST PUSH2 0x391 PUSH2 0x5B7 PUSH2 0xBD4 JUMP JUMPDEST PUSH2 0x268 PUSH1 0x0 PUSH1 0x9 PUSH2 0x642 JUMP JUMPDEST CALLVALUE PUSH2 0x237 JUMPI PUSH2 0xC17 CALLDATASIZE PUSH1 0x4 PUSH2 0x395 JUMP JUMPDEST PUSH2 0x391 PUSH2 0x5B7 PUSH2 0xBFB JUMP JUMPDEST PUSH2 0x268 PUSH1 0x0 PUSH1 0xF PUSH2 0x813 JUMP JUMPDEST PUSH4 0x4E487B71 PUSH1 0xE0 SHL PUSH1 0x0 MSTORE PUSH1 0x21 PUSH1 0x4 MSTORE PUSH1 0x24 PUSH1 0x0 REVERT JUMPDEST PUSH1 0x3 GT ISZERO PUSH2 0xC4E JUMPI JUMP JUMPDEST PUSH2 0xC2E JUMP JUMPDEST SWAP1 PUSH2 0x252 DUP3 PUSH2 0xC44 JUMP JUMPDEST PUSH2 0x268 SWAP1 PUSH2 0xC53 JUMP JUMPDEST PUSH2 0x2D2 SWAP1 PUSH2 0xC5D JUMP JUMPDEST PUSH1 0x20 DUP2 ADD SWAP3 SWAP2 PUSH2 0x252 SWAP2 SWAP1 PUSH2 0xC66 JUMP JUMPDEST CALLVALUE PUSH2 0x237 JUMPI PUSH2 0xC8F CALLDATASIZE PUSH1 0x4 PUSH2 0x395 JUMP JUMPDEST PUSH2 0x391 PUSH2 0xC9A PUSH2 0xC22 JUMP JUMPDEST PUSH1 0x40 MLOAD SWAP2 DUP3 SWAP2 DUP3 PUSH2 0xC6F JUMP JUMPDEST PUSH2 0x268 PUSH1 0x0 PUSH1 0xD PUSH2 0x542 JUMP JUMPDEST CALLVALUE PUSH2 0x237 JUMPI PUSH2 0xCC2 CALLDATASIZE PUSH1 0x4 PUSH2 0x395 JUMP JUMPDEST PUSH2 0x391 PUSH2 0x590 PUSH2 0xCA6 JUMP JUMPDEST PUSH2 0x268 PUSH1 0x0 PUSH1 0xB PUSH2 0x642 JUMP JUMPDEST CALLVALUE PUSH2 0x237 JUMPI PUSH2 0xCE9 CALLDATASIZE PUSH1 0x4 PUSH2 0x395 JUMP JUMPDEST PUSH2 0x391 PUSH2 0x5B7 PUSH2 0xCCD JUMP JUMPDEST PUSH2 0x268 PUSH1 0x0 PUSH1 0x2 PUSH2 0x3B4 JUMP JUMPDEST CALLVALUE PUSH2 0x237 JUMPI PUSH2 0xD10 CALLDATASIZE PUSH1 0x4 PUSH2 0x395 JUMP JUMPDEST PUSH2 0x391 PUSH2 0x3E6 PUSH2 0xCF4 JUMP JUMPDEST PUSH2 0x268 PUSH1 0x0 PUSH1 0x11 PUSH2 0x542 JUMP JUMPDEST CALLVALUE PUSH2 0x237 JUMPI PUSH2 0xD37 CALLDATASIZE PUSH1 0x4 PUSH2 0x395 JUMP JUMPDEST PUSH2 0x391 PUSH2 0x590 PUSH2 0xD1B JUMP JUMPDEST CALLVALUE PUSH2 0x237 JUMPI PUSH2 0xD52 CALLDATASIZE PUSH1 0x4 PUSH2 0x395 JUMP JUMPDEST PUSH2 0x391 PUSH2 0x845 PUSH2 0x174D JUMP JUMPDEST CALLVALUE PUSH2 0x237 JUMPI PUSH2 0x735 PUSH2 0xD70 CALLDATASIZE PUSH1 0x4 PUSH2 0x254 JUMP JUMPDEST PUSH2 0xFA2 JUMP JUMPDEST CALLVALUE PUSH2 0x237 JUMPI PUSH2 0x735 PUSH2 0xD88 CALLDATASIZE PUSH1 0x4 PUSH2 0x709 JUMP JUMPDEST PUSH2 0x105D JUMP JUMPDEST SWAP15 SWAP14 SWAP13 SWAP12 SWAP10 SWAP9 SWAP8 SWAP6 SWAP4 SWAP2 SWAP3 DUP16 SWAP2 SWAP8 SWAP6 SWAP4 PUSH2 0x200 DUP4 ADD SWAP9 PUSH1 0x0 DUP5 ADD PUSH2 0xDB8 SWAP2 PUSH1 0x1 PUSH1 0x1 PUSH1 0xA0 SHL SUB AND SWAP1 MSTORE JUMP JUMPDEST PUSH1 0x1 PUSH1 0x1 PUSH1 0xA0 SHL SUB AND PUSH1 0x20 DUP4 ADD MSTORE PUSH1 0x1 PUSH1 0x1 PUSH1 0xA0 SHL SUB AND PUSH1 0x40 DUP3 ADD MSTORE PUSH1 0x60 ADD MSTORE PUSH1 0x80 DUP14 ADD MSTORE PUSH1 0xA0 DUP13 ADD MSTORE PUSH1 0xC0 DUP12 ADD MSTORE PUSH1 0xE0 DUP11 ADD MSTORE DUP9 DUP2 SUB PUSH2 0x100 DUP11 ADD MSTORE PUSH2 0xDFE SWAP2 PUSH2 0x28E JUMP JUMPDEST DUP8 DUP2 SUB PUSH2 0x120 DUP10 ADD MSTORE PUSH2 0xE10 SWAP2 PUSH2 0x28E JUMP JUMPDEST SWAP2 PUSH2 0x140 DUP8 ADD PUSH2 0xE1F SWAP2 PUSH2 0xC66 JUMP JUMPDEST PUSH2 0x160 DUP7 ADD MSTORE DUP5 DUP2 SUB PUSH2 0x180 DUP7 ADD MSTORE PUSH2 0xE37 SWAP2 PUSH2 0x28E JUMP JUMPDEST DUP4 DUP2 SUB PUSH2 0x1A0 DUP6 ADD MSTORE PUSH2 0xE49 SWAP2 PUSH2 0x28E JUMP JUMPDEST DUP3 DUP2 SUB PUSH2 0x1C0 DUP5 ADD MSTORE PUSH2 0xE5B SWAP2 PUSH2 0x28E JUMP JUMPDEST SWAP1 DUP1 DUP3 SUB SWAP1 PUSH2 0x1E0 ADD MSTORE PUSH2 0x268 SWAP2 PUSH2 0x28E JUMP JUMPDEST CALLVALUE PUSH2 0x237 JUMPI PUSH2 0xE7E CALLDATASIZE PUSH1 0x4 PUSH2 0x395 JUMP JUMPDEST PUSH2 0xEB3 PUSH2 0xE89 PUSH2 0x226B JUMP JUMPDEST SWAP15 PUSH2 0xEA8 SWAP15 SWAP2 SWAP15 SWAP14 SWAP3 SWAP14 SWAP13 SWAP4 SWAP13 SWAP12 SWAP5 SWAP12 SWAP11 SWAP6 SWAP11 SWAP10 SWAP7 SWAP10 SWAP9 SWAP8 SWAP9 PUSH1 0x40 MLOAD SWAP1 JUMP JUMPDEST PUSH1 0x80 MSTORE PUSH1 0x80 MLOAD PUSH2 0xD8D JUMP JUMPDEST PUSH1 0x80 MLOAD SWAP1 SUB PUSH1 0x80 MLOAD RETURN JUMPDEST ISZERO PUSH2 0xEC4 JUMPI JUMP JUMPDEST PUSH1 0x40 MLOAD PUSH3 0x461BCD PUSH1 0xE5 SHL DUP2 MSTORE PUSH1 0x20 PUSH1 0x4 DUP3 ADD MSTORE PUSH1 0x36 PUSH1 0x24 DUP3 ADD MSTORE PUSH32 0x596F7520646F6E7420686176652061646D696E2061636365737320746F207065 PUSH1 0x44 DUP3 ADD MSTORE PUSH32 0x72666F726D2074686973206F7065726174696F6E202100000000000000000000 PUSH1 0x64 DUP3 ADD MSTORE PUSH1 0x84 SWAP1 REVERT JUMPDEST PUSH2 0x252 SWAP1 PUSH2 0xF67 CALLER PUSH2 0xF61 PUSH2 0xF54 PUSH2 0xF4F PUSH1 0x1 SLOAD PUSH1 0x1 PUSH1 0x1 PUSH1 0xA0 SHL SUB AND SWAP1 JUMP JUMPDEST PUSH2 0x616 JUMP JUMPDEST SWAP2 PUSH1 0x1 PUSH1 0x1 PUSH1 0xA0 SHL SUB AND SWAP1 JUMP JUMPDEST EQ PUSH2 0xEBD JUMP JUMPDEST PUSH2 0xF97 JUMP JUMPDEST SWAP1 PUSH1 0x0 NOT SWAP1 JUMPDEST SWAP2 DUP2 NOT AND SWAP2 AND OR SWAP1 JUMP JUMPDEST SWAP1 PUSH2 0xF8C PUSH2 0x268 PUSH2 0xF93 SWAP3 PUSH2 0x908 JUMP JUMPDEST DUP3 SLOAD PUSH2 0xF6C JUMP JUMPDEST SWAP1 SSTORE JUMP JUMPDEST PUSH2 0x252 SWAP1 PUSH1 0x3 PUSH2 0xF7C JUMP JUMPDEST PUSH2 0x252 SWAP1 PUSH2 0xF2F JUMP JUMPDEST PUSH2 0x252 SWAP1 PUSH2 0xFCB CALLER PUSH2 0xF61 PUSH2 0xF54 PUSH2 0xF4F PUSH1 0x1 SLOAD PUSH1 0x1 PUSH1 0x1 PUSH1 0xA0 SHL SUB AND SWAP1 JUMP JUMPDEST PUSH2 0xFF4 JUMP JUMPDEST SWAP1 PUSH2 0xFF00 SWAP1 PUSH1 0x8 SHL PUSH2 0xF72 JUMP JUMPDEST SWAP1 PUSH2 0xFED PUSH2 0x268 PUSH2 0xF93 SWAP3 ISZERO ISZERO SWAP1 JUMP JUMPDEST DUP3 SLOAD PUSH2 0xFD0 JUMP JUMPDEST PUSH2 0x252 SWAP1 PUSH1 0xF PUSH2 0xFDD JUMP JUMPDEST PUSH2 0x252 SWAP1 PUSH2 0xFAB JUMP JUMPDEST PUSH2 0x252 SWAP1 PUSH2 0x1028 CALLER PUSH2 0xF61 PUSH2 0xF54 PUSH2 0xF4F PUSH1 0x1 SLOAD PUSH1 0x1 PUSH1 0x1 PUSH1 0xA0 SHL SUB AND SWAP1 JUMP JUMPDEST PUSH2 0x1052 JUMP JUMPDEST SWAP1 PUSH3 0xFF0000 SWAP1 PUSH1 0x10 SHL PUSH2 0xF72 JUMP JUMPDEST SWAP1 PUSH2 0x104B PUSH2 0x268 PUSH2 0xF93 SWAP3 ISZERO ISZERO SWAP1 JUMP JUMPDEST DUP3 SLOAD PUSH2 0x102D JUMP JUMPDEST PUSH2 0x252 SWAP1 PUSH1 0xF PUSH2 0x103B JUMP JUMPDEST PUSH2 0x252 SWAP1 PUSH2 0x1008 JUMP JUMPDEST PUSH2 0x268 SWAP1 PUSH1 0x10 SHR PUSH2 0x80D JUMP JUMPDEST PUSH2 0x268 SWAP1 SLOAD PUSH2 0x1066 JUMP JUMPDEST ISZERO PUSH2 0x1083 JUMPI JUMP JUMPDEST PUSH1 0x40 MLOAD PUSH3 0x461BCD PUSH1 0xE5 SHL DUP2 MSTORE PUSH1 0x20 PUSH1 0x4 DUP3 ADD MSTORE PUSH1 0x18 PUSH1 0x24 DUP3 ADD MSTORE PUSH32 0x50726F6A656374206D7573742062652076657269666965640000000000000000 PUSH1 0x44 DUP3 ADD MSTORE PUSH1 0x64 SWAP1 REVERT JUMPDEST SWAP1 PUSH2 0x252 SWAP3 SWAP2 PUSH2 0x10ED PUSH2 0x10DB PUSH1 0xF PUSH2 0x1072 JUMP JUMPDEST PUSH2 0x10E7 PUSH1 0x1 JUMPDEST SWAP2 ISZERO ISZERO SWAP1 JUMP JUMPDEST EQ PUSH2 0x107C JUMP JUMPDEST PUSH2 0x1164 JUMP JUMPDEST ISZERO PUSH2 0x10F9 JUMPI JUMP JUMPDEST PUSH1 0x40 MLOAD PUSH3 0x461BCD PUSH1 0xE5 SHL DUP2 MSTORE PUSH1 0x20 PUSH1 0x4 DUP3 ADD MSTORE PUSH1 0x3C PUSH1 0x24 DUP3 ADD MSTORE PUSH32 0x596F7520646F206E6F74206861766520746865206D6173746572207269676874 PUSH1 0x44 DUP3 ADD MSTORE PUSH32 0x7320746F20706572666F726D2074686973206F7065726174696F6E2100000000 PUSH1 0x64 DUP3 ADD MSTORE PUSH1 0x84 SWAP1 REVERT JUMPDEST SWAP1 PUSH2 0x252 SWAP3 SWAP2 PUSH2 0x118C CALLER PUSH2 0x1186 PUSH2 0xF54 PUSH2 0xF4F PUSH1 0x0 SLOAD PUSH1 0x1 PUSH1 0x1 PUSH1 0xA0 SHL SUB AND SWAP1 JUMP JUMPDEST EQ PUSH2 0x10F2 JUMP JUMPDEST PUSH2 0x128B JUMP JUMPDEST PUSH4 0x4E487B71 PUSH1 0xE0 SHL PUSH1 0x0 MSTORE PUSH1 0x11 PUSH1 0x4 MSTORE PUSH1 0x24 PUSH1 0x0 REVERT JUMPDEST PUSH1 0x0 NOT DUP2 EQ PUSH2 0x11B6 JUMPI PUSH1 0x1 ADD SWAP1 JUMP JUMPDEST PUSH2 0x1191 JUMP JUMPDEST SWAP2 SWAP1 DUP3 ADD DUP1 SWAP3 GT PUSH2 0x11B6 JUMPI JUMP JUMPDEST SWAP1 POP MLOAD SWAP1 PUSH2 0x252 DUP3 PUSH2 0x23C JUMP JUMPDEST SWAP1 PUSH1 0x20 DUP3 DUP3 SUB SLT PUSH2 0x237 JUMPI PUSH2 0x268 SWAP2 PUSH2 0x11C8 JUMP JUMPDEST PUSH1 0x1 PUSH1 0x1 PUSH1 0xA0 SHL SUB SWAP1 SWAP2 AND DUP2 MSTORE PUSH1 0x40 DUP2 ADD SWAP3 SWAP2 PUSH2 0x252 SWAP2 PUSH1 0x20 SWAP1 PUSH2 0x34B JUMP JUMPDEST PUSH1 0x40 MLOAD RETURNDATASIZE PUSH1 0x0 DUP3 RETURNDATACOPY RETURNDATASIZE SWAP1 REVERT JUMPDEST ISZERO PUSH2 0x237 JUMPI JUMP JUMPDEST SWAP1 POP MLOAD SWAP1 PUSH2 0x252 DUP3 PUSH2 0x6F4 JUMP JUMPDEST SWAP1 PUSH1 0x20 DUP3 DUP3 SUB SLT PUSH2 0x237 JUMPI PUSH2 0x268 SWAP2 PUSH2 0x121B JUMP JUMPDEST PUSH1 0x1 PUSH1 0x1 PUSH1 0xA0 SHL SUB SWAP2 DUP3 AND DUP2 MSTORE SWAP2 AND PUSH1 0x20 DUP3 ADD MSTORE PUSH1 0x60 DUP2 ADD SWAP3 SWAP2 PUSH2 0x252 SWAP2 PUSH1 0x40 ADD MSTORE JUMP JUMPDEST ADD MSTORE JUMP JUMPDEST PUSH1 0x1 PUSH1 0x1 PUSH1 0xA0 SHL SUB SWAP1 SWAP2 AND DUP2 MSTORE PUSH1 0x60 DUP2 ADD SWAP4 SWAP3 PUSH2 0x252 SWAP3 SWAP1 SWAP2 PUSH1 0x40 SWAP2 PUSH2 0x1260 SWAP1 PUSH1 0x20 DUP4 ADD MSTORE JUMP JUMPDEST SWAP2 PUSH2 0x12F9 PUSH1 0x15 SWAP2 PUSH2 0x12E1 PUSH2 0x12C9 DUP7 PUSH2 0x12AB PUSH2 0x12A6 DUP3 DUP9 PUSH2 0x61F JUMP JUMPDEST PUSH2 0x926 JUMP JUMPDEST SWAP6 PUSH1 0x0 SWAP7 PUSH2 0x12BF PUSH2 0x12BB DUP10 PUSH2 0x908 JUMP JUMPDEST SWAP2 SWAP1 JUMP JUMPDEST EQ PUSH2 0x143F JUMPI PUSH2 0x61F JUMP JUMPDEST PUSH2 0x12DB DUP7 PUSH2 0x12D6 DUP4 PUSH2 0x926 JUMP JUMPDEST PUSH2 0x11BB JUMP JUMPDEST SWAP1 PUSH2 0xF7C JUMP JUMPDEST PUSH2 0xF4F PUSH2 0x12F2 DUP6 PUSH2 0x12D6 PUSH1 0xB PUSH2 0x926 JUMP JUMPDEST PUSH1 0xB PUSH2 0xF7C JUMP JUMPDEST SWAP1 PUSH4 0xDD62ED3E SWAP2 PUSH2 0x1309 ADDRESS PUSH2 0x616 JUMP JUMPDEST PUSH2 0x131C PUSH2 0x1315 PUSH1 0x40 MLOAD SWAP1 JUMP JUMPDEST SWAP5 PUSH1 0xE0 SHL SWAP1 JUMP JUMPDEST DUP5 MSTORE PUSH1 0x20 DUP5 DUP1 PUSH2 0x1330 DUP5 DUP11 PUSH1 0x4 DUP5 ADD PUSH2 0x11E9 JUMP JUMPDEST SUB DUP2 DUP6 GAS STATICCALL SWAP2 DUP3 ISZERO PUSH2 0x140D JUMPI PUSH2 0x1354 PUSH1 0x20 SWAP4 DUP8 SWAP7 DUP7 SWAP2 PUSH2 0x1412 JUMPI JUMPDEST POP DUP7 GT ISZERO PUSH2 0x1214 JUMP JUMPDEST PUSH2 0x1376 DUP5 PUSH4 0x23B872DD PUSH2 0x1382 PUSH2 0x1369 PUSH1 0x40 MLOAD SWAP1 JUMP JUMPDEST SWAP9 DUP10 SWAP7 DUP8 SWAP6 DUP7 SWAP5 PUSH1 0xE0 SHL SWAP1 JUMP JUMPDEST DUP5 MSTORE DUP13 PUSH1 0x4 DUP6 ADD PUSH2 0x123C JUMP JUMPDEST SUB SWAP3 GAS CALL SWAP1 DUP2 ISZERO PUSH2 0x140D JUMPI POP PUSH2 0x13E1 JUMPI JUMPDEST POP PUSH2 0x139E PUSH1 0xB PUSH2 0x926 JUMP JUMPDEST SWAP2 PUSH2 0x13D6 PUSH32 0x5CDC4AB8D637538EAD6CC1904D4160343656C8C82BD266635CFD31AC008FFFE0 SWAP4 PUSH2 0x13CD PUSH1 0x40 MLOAD SWAP1 JUMP JUMPDEST SWAP4 DUP5 SWAP4 DUP5 PUSH2 0x1264 JUMP JUMPDEST SUB SWAP1 LOG1 PUSH2 0x252 PUSH2 0x148B JUMP JUMPDEST PUSH2 0x1401 SWAP1 PUSH1 0x20 RETURNDATASIZE DUP2 GT PUSH2 0x1406 JUMPI JUMPDEST PUSH2 0x13F9 DUP2 DUP4 PUSH2 0x4FA JUMP JUMPDEST DUP2 ADD SWAP1 PUSH2 0x1228 JUMP JUMPDEST PUSH2 0x1393 JUMP JUMPDEST POP RETURNDATASIZE PUSH2 0x13EF JUMP JUMPDEST PUSH2 0x1208 JUMP JUMPDEST PUSH2 0x1432 SWAP2 POP DUP6 RETURNDATASIZE DUP2 GT PUSH2 0x1438 JUMPI JUMPDEST PUSH2 0x142A DUP2 DUP4 PUSH2 0x4FA JUMP JUMPDEST DUP2 ADD SWAP1 PUSH2 0x11D5 JUMP JUMPDEST CODESIZE PUSH2 0x134B JUMP JUMPDEST POP RETURNDATASIZE PUSH2 0x1420 JUMP JUMPDEST PUSH2 0x145B PUSH2 0x1454 PUSH2 0x144F PUSH1 0xC PUSH2 0x926 JUMP JUMPDEST PUSH2 0x11A7 JUMP JUMPDEST PUSH1 0xC PUSH2 0xF7C JUMP JUMPDEST PUSH2 0x61F JUMP JUMPDEST SWAP1 PUSH2 0x252 SWAP3 SWAP2 PUSH2 0x10C8 JUMP JUMPDEST SWAP1 PUSH1 0xFF SWAP1 PUSH2 0xF72 JUMP JUMPDEST SWAP1 PUSH2 0x1484 PUSH2 0x268 PUSH2 0xF93 SWAP3 PUSH2 0xC5D JUMP JUMPDEST DUP3 SLOAD PUSH2 0x146B JUMP JUMPDEST PUSH2 0x1495 PUSH1 0xB PUSH2 0x926 JUMP JUMPDEST PUSH2 0x14A5 PUSH2 0x12BB PUSH2 0x268 PUSH1 0x9 PUSH2 0x926 JUMP JUMPDEST LT PUSH2 0x14C1 JUMPI PUSH2 0x14B6 PUSH1 0x2 PUSH1 0xF PUSH2 0x1474 JUMP JUMPDEST PUSH2 0x252 TIMESTAMP PUSH1 0xA PUSH2 0xF7C JUMP JUMPDEST TIMESTAMP PUSH2 0x14D2 PUSH2 0x12BB PUSH2 0x268 PUSH1 0x8 PUSH2 0x926 JUMP JUMPDEST GT ISZERO PUSH2 0x14B6 JUMPI PUSH2 0x14E4 PUSH1 0x1 PUSH1 0xF PUSH2 0x1474 JUMP JUMPDEST PUSH2 0x14B6 JUMP JUMPDEST PUSH2 0x14F2 ADDRESS PUSH2 0x616 JUMP JUMPDEST BALANCE SWAP1 JUMP JUMPDEST PUSH1 0x20 PUSH2 0x150D PUSH2 0x154D SWAP3 PUSH2 0x1507 PUSH1 0x0 SWAP1 JUMP JUMPDEST POP PUSH2 0x616 JUMP JUMPDEST PUSH4 0x70A08231 SWAP1 PUSH2 0x1536 PUSH2 0x151F ADDRESS PUSH2 0x616 JUMP JUMPDEST SWAP3 PUSH2 0x1529 PUSH1 0x40 MLOAD SWAP1 JUMP JUMPDEST SWAP6 DUP7 SWAP5 DUP6 SWAP4 DUP5 SWAP4 PUSH1 0xE0 SHL SWAP1 JUMP JUMPDEST DUP4 MSTORE PUSH1 0x1 PUSH1 0x1 PUSH1 0xA0 SHL SUB AND PUSH1 0x4 DUP4 ADD MSTORE PUSH1 0x24 DUP3 ADD SWAP1 JUMP JUMPDEST SUB SWAP2 GAS STATICCALL SWAP1 DUP2 ISZERO PUSH2 0x140D JUMPI PUSH1 0x0 SWAP2 PUSH2 0x1563 JUMPI POP SWAP1 JUMP JUMPDEST PUSH2 0x268 SWAP2 POP PUSH1 0x20 RETURNDATASIZE DUP2 GT PUSH2 0x1438 JUMPI PUSH2 0x142A DUP2 DUP4 PUSH2 0x4FA JUMP JUMPDEST ISZERO PUSH2 0x1582 JUMPI JUMP JUMPDEST PUSH1 0x40 MLOAD PUSH3 0x461BCD PUSH1 0xE5 SHL DUP2 MSTORE PUSH1 0x20 PUSH1 0x4 DUP3 ADD MSTORE PUSH1 0xD PUSH1 0x24 DUP3 ADD MSTORE PUSH32 0x496E76616C696420737461746500000000000000000000000000000000000000 PUSH1 0x44 DUP3 ADD MSTORE PUSH1 0x64 SWAP1 REVERT JUMPDEST ISZERO PUSH2 0x15CE JUMPI JUMP JUMPDEST PUSH1 0x40 MLOAD PUSH3 0x461BCD PUSH1 0xE5 SHL DUP2 MSTORE PUSH1 0x20 PUSH1 0x4 DUP3 ADD MSTORE PUSH1 0x15 PUSH1 0x24 DUP3 ADD MSTORE PUSH32 0x446561646C696E65206861732070617373656420210000000000000000000000 PUSH1 0x44 DUP3 ADD MSTORE PUSH1 0x64 SWAP1 REVERT JUMPDEST PUSH2 0x268 SWAP1 PUSH2 0x163E PUSH1 0x1 PUSH2 0x1638 PUSH2 0x1632 PUSH2 0x162C PUSH1 0xF PUSH2 0x939 JUMP JUMPDEST SWAP3 PUSH2 0xC53 JUMP JUMPDEST SWAP2 PUSH2 0xC53 JUMP JUMPDEST EQ PUSH2 0x157B JUMP JUMPDEST PUSH2 0x1658 TIMESTAMP PUSH2 0x1652 PUSH2 0x12BB PUSH2 0x268 PUSH1 0x8 PUSH2 0x926 JUMP JUMPDEST LT PUSH2 0x15C7 JUMP JUMPDEST PUSH2 0x16CF JUMP JUMPDEST ISZERO PUSH2 0x1664 JUMPI JUMP JUMPDEST PUSH1 0x40 MLOAD PUSH3 0x461BCD PUSH1 0xE5 SHL DUP2 MSTORE PUSH1 0x20 PUSH1 0x4 DUP3 ADD MSTORE PUSH1 0x26 PUSH1 0x24 DUP3 ADD MSTORE PUSH32 0x596F7520646F6E74206861766520616E7920636F6E747269627574656420616D PUSH1 0x44 DUP3 ADD MSTORE PUSH32 0x6F756E7420210000000000000000000000000000000000000000000000000000 PUSH1 0x64 DUP3 ADD MSTORE PUSH1 0x84 SWAP1 REVERT JUMPDEST POP CALLER PUSH1 0x15 PUSH2 0x16E0 PUSH2 0x12A6 DUP4 DUP4 PUSH2 0x61F JUMP JUMPDEST PUSH2 0x16F8 PUSH1 0x0 SWAP2 PUSH2 0x16F2 PUSH2 0x12BB DUP5 PUSH2 0x908 JUMP JUMPDEST GT PUSH2 0x165D JUMP JUMPDEST DUP1 DUP1 DUP1 DUP1 PUSH2 0x1708 PUSH2 0xF4F DUP9 PUSH2 0x616 JUMP JUMPDEST PUSH2 0x1715 PUSH2 0x12A6 DUP10 DUP10 PUSH2 0x61F JUMP JUMPDEST SWAP1 DUP3 DUP3 ISZERO PUSH2 0x1744 JUMPI JUMPDEST CALL ISZERO PUSH2 0x140D JUMPI PUSH2 0x173F SWAP3 PUSH2 0x1734 PUSH2 0x173A SWAP3 PUSH2 0x908 JUMP JUMPDEST SWAP3 PUSH2 0x61F JUMP JUMPDEST PUSH2 0xF7C JUMP JUMPDEST PUSH1 0x1 SWAP1 JUMP JUMPDEST POP PUSH2 0x8FC PUSH2 0x171E JUMP JUMPDEST PUSH2 0x268 PUSH1 0x0 PUSH2 0x1613 JUMP JUMPDEST ISZERO PUSH2 0x175E JUMPI JUMP JUMPDEST PUSH1 0x40 MLOAD PUSH3 0x461BCD PUSH1 0xE5 SHL DUP2 MSTORE PUSH1 0x20 PUSH1 0x4 DUP3 ADD MSTORE PUSH1 0x38 PUSH1 0x24 DUP3 ADD MSTORE PUSH32 0x596F7520646F6E7420686176652063726561746F722061636365737320746F20 PUSH1 0x44 DUP3 ADD MSTORE PUSH32 0x706572666F726D2074686973206F7065726174696F6E20210000000000000000 PUSH1 0x64 DUP3 ADD MSTORE PUSH1 0x84 SWAP1 REVERT JUMPDEST SWAP1 PUSH2 0x252 SWAP6 SWAP5 SWAP4 SWAP3 SWAP2 PUSH2 0x17F4 CALLER PUSH2 0x17EE PUSH2 0xF54 PUSH2 0xF4F PUSH1 0x4 SLOAD PUSH1 0x1 PUSH1 0x1 PUSH1 0xA0 SHL SUB AND SWAP1 JUMP JUMPDEST EQ PUSH2 0x1757 JUMP JUMPDEST SWAP1 PUSH2 0x252 SWAP6 SWAP5 SWAP4 SWAP3 SWAP2 PUSH2 0x1812 PUSH1 0x2 PUSH2 0x1638 PUSH2 0x1632 PUSH2 0x162C PUSH1 0xF PUSH2 0x939 JUMP JUMPDEST PUSH2 0x1826 TIMESTAMP PUSH2 0x1652 PUSH2 0x12BB PUSH2 0x268 PUSH1 0x8 PUSH2 0x926 JUMP JUMPDEST PUSH2 0x1A8A JUMP JUMPDEST SWAP2 SWAP1 PUSH1 0x8 PUSH2 0xF72 SWAP2 MUL SWAP2 PUSH2 0x1840 PUSH1 0x0 NOT DUP5 SHL SWAP1 JUMP JUMPDEST SWAP3 SHL SWAP1 JUMP JUMPDEST SWAP2 SWAP1 PUSH2 0x1856 PUSH2 0x268 PUSH2 0xF93 SWAP4 PUSH2 0x908 JUMP JUMPDEST SWAP1 DUP4 SLOAD PUSH2 0x182B JUMP JUMPDEST PUSH2 0x252 SWAP2 PUSH1 0x0 SWAP2 PUSH2 0x1845 JUMP JUMPDEST DUP2 DUP2 LT PUSH2 0x1875 JUMPI POP POP JUMP JUMPDEST DUP1 PUSH2 0x1883 PUSH1 0x0 PUSH1 0x1 SWAP4 PUSH2 0x185E JUMP JUMPDEST ADD PUSH2 0x186A JUMP JUMPDEST SWAP2 SWAP1 PUSH1 0x1F DUP2 GT PUSH2 0x1898 JUMPI POP POP POP JUMP JUMPDEST PUSH2 0x18AA PUSH2 0x252 SWAP4 PUSH1 0x0 MSTORE PUSH1 0x20 PUSH1 0x0 KECCAK256 SWAP1 JUMP JUMPDEST SWAP1 PUSH1 0x20 PUSH1 0x1F DUP5 ADD DUP2 SWAP1 DIV DUP4 ADD SWAP4 LT PUSH2 0x18CC JUMPI JUMPDEST PUSH1 0x20 PUSH1 0x1F SWAP1 SWAP2 ADD DIV ADD SWAP1 PUSH2 0x186A JUMP JUMPDEST SWAP1 SWAP2 POP DUP2 SWAP1 PUSH2 0x18BD JUMP JUMPDEST SWAP1 PUSH2 0x18DF DUP2 MLOAD SWAP1 JUMP JUMPDEST SWAP1 PUSH8 0xFFFFFFFFFFFFFFFF DUP3 GT PUSH2 0x51C JUMPI PUSH2 0x1903 DUP3 PUSH2 0x18FD DUP6 SLOAD PUSH2 0x42C JUMP JUMPDEST DUP6 PUSH2 0x1889 JUMP JUMPDEST PUSH1 0x20 SWAP1 PUSH1 0x1F DUP4 GT PUSH1 0x1 EQ PUSH2 0x193E JUMPI PUSH2 0xF93 SWAP3 SWAP2 PUSH1 0x0 SWAP2 DUP4 PUSH2 0x1933 JUMPI JUMPDEST POP POP PUSH1 0x0 NOT PUSH1 0x8 DUP4 MUL SHR NOT AND SWAP1 PUSH1 0x2 MUL OR SWAP1 JUMP JUMPDEST ADD MLOAD SWAP1 POP CODESIZE DUP1 PUSH2 0x191F JUMP JUMPDEST PUSH1 0x1F NOT DUP4 AND SWAP2 PUSH2 0x1953 DUP6 PUSH1 0x0 MSTORE PUSH1 0x20 PUSH1 0x0 KECCAK256 SWAP1 JUMP JUMPDEST SWAP3 PUSH1 0x0 JUMPDEST DUP2 DUP2 LT PUSH2 0x1991 JUMPI POP SWAP2 PUSH1 0x2 SWAP4 SWAP2 DUP6 PUSH1 0x1 SWAP7 SWAP5 LT PUSH2 0x1978 JUMPI JUMPDEST POP POP POP MUL ADD SWAP1 SSTORE JUMP JUMPDEST ADD MLOAD PUSH1 0x0 NOT PUSH1 0x8 PUSH1 0x1F DUP6 AND MUL SHR NOT AND SWAP1 SSTORE CODESIZE DUP1 DUP1 PUSH2 0x196F JUMP JUMPDEST SWAP2 SWAP4 PUSH1 0x20 PUSH1 0x1 DUP2 SWAP3 DUP8 DUP8 ADD MLOAD DUP2 SSTORE ADD SWAP6 ADD SWAP3 ADD PUSH2 0x1957 JUMP JUMPDEST SWAP1 PUSH2 0x252 SWAP2 PUSH2 0x18D6 JUMP JUMPDEST SWAP1 PUSH1 0x1 PUSH1 0x1 PUSH1 0xA0 SHL SUB SWAP1 PUSH2 0xF72 JUMP JUMPDEST SWAP1 PUSH2 0x19D2 PUSH2 0x268 PUSH2 0xF93 SWAP3 PUSH2 0x616 JUMP JUMPDEST DUP3 SLOAD PUSH2 0x19B3 JUMP JUMPDEST SWAP1 PUSH2 0x1484 PUSH2 0x268 PUSH2 0xF93 SWAP3 ISZERO ISZERO SWAP1 JUMP JUMPDEST SWAP1 PUSH21 0xFFFFFFFFFFFFFFFFFFFFFFFFFFFFFFFFFFFFFFFF00 SWAP1 PUSH1 0x8 SHL PUSH2 0xF72 JUMP JUMPDEST SWAP1 PUSH2 0x1A19 PUSH2 0x268 PUSH2 0xF93 SWAP3 PUSH2 0x616 JUMP JUMPDEST DUP3 SLOAD PUSH2 0x19E9 JUMP JUMPDEST PUSH2 0x2D2 SWAP1 PUSH2 0x908 JUMP JUMPDEST PUSH2 0x2D2 SWAP1 PUSH2 0x616 JUMP JUMPDEST SWAP3 PUSH1 0xC0 SWAP5 SWAP9 SWAP8 SWAP6 PUSH2 0x1A79 PUSH2 0xA13 PUSH2 0xA22 SWAP4 PUSH2 0x1A6B PUSH2 0x252 SWAP12 SWAP7 PUSH2 0x1A83 SWAP9 PUSH2 0x1A5E PUSH1 0xE0 DUP13 ADD SWAP3 PUSH1 0x0 DUP14 ADD MSTORE JUMP JUMPDEST DUP11 DUP3 SUB PUSH1 0x20 DUP13 ADD MSTORE PUSH2 0x28E JUMP JUMPDEST SWAP1 DUP9 DUP3 SUB PUSH1 0x40 DUP11 ADD MSTORE PUSH2 0x28E JUMP JUMPDEST PUSH1 0x80 DUP6 ADD SWAP1 PUSH2 0x1A20 JUMP JUMPDEST ADD SWAP1 PUSH2 0x1A29 JUMP JUMPDEST SWAP4 SWAP5 SWAP3 PUSH2 0x1AB7 PUSH2 0x1AA3 PUSH2 0x268 PUSH2 0x1B3F SWAP6 SWAP5 SWAP7 PUSH1 0x16 PUSH2 0x915 JUMP JUMPDEST SWAP2 PUSH2 0x1AAE DUP8 DUP5 PUSH2 0x19A9 JUMP JUMPDEST PUSH1 0x1 DUP4 ADD PUSH2 0x19C2 JUMP JUMPDEST PUSH2 0x1AC4 DUP7 PUSH1 0x2 DUP4 ADD PUSH2 0x19A9 JUMP JUMPDEST PUSH2 0x1AD1 DUP5 PUSH1 0x3 DUP4 ADD PUSH2 0xF7C JUMP JUMPDEST PUSH2 0x1AFF DUP3 PUSH1 0x6 PUSH1 0x0 SWAP4 PUSH2 0x1AEF PUSH2 0x1AE6 DUP7 PUSH2 0x908 JUMP JUMPDEST PUSH1 0x4 DUP4 ADD PUSH2 0xF7C JUMP JUMPDEST ADD PUSH2 0x1AFA DUP5 DUP3 PUSH2 0x19D9 JUMP JUMPDEST PUSH2 0x1A09 JUMP JUMPDEST DUP1 PUSH2 0x1B0A PUSH1 0x17 PUSH2 0x926 JUMP JUMPDEST SWAP5 PUSH32 0x4155121C72CA95297A55D3963DAAC6D430E184F4FC497CE898B36EE9A834EEC1 SWAP8 PUSH2 0x1B36 PUSH1 0x40 MLOAD SWAP1 JUMP JUMPDEST SWAP8 DUP9 SWAP8 DUP9 PUSH2 0x1A32 JUMP JUMPDEST SUB SWAP1 LOG1 JUMP JUMPDEST SWAP1 PUSH2 0x252 SWAP6 SWAP5 SWAP4 SWAP3 SWAP2 PUSH2 0x17C9 JUMP JUMPDEST ISZERO PUSH2 0x1B59 JUMPI JUMP JUMPDEST PUSH1 0x40 MLOAD PUSH3 0x461BCD PUSH1 0xE5 SHL DUP2 MSTORE PUSH1 0x20 PUSH1 0x4 DUP3 ADD MSTORE PUSH1 0x1B PUSH1 0x24 DUP3 ADD MSTORE PUSH32 0x4F6E6C7920636F6E7472696275746F722063616E20766F746520210000000000 PUSH1 0x44 DUP3 ADD MSTORE PUSH1 0x64 SWAP1 REVERT JUMPDEST ISZERO PUSH2 0x1BA5 JUMPI JUMP JUMPDEST PUSH1 0x40 MLOAD PUSH3 0x461BCD PUSH1 0xE5 SHL DUP2 MSTORE PUSH1 0x20 PUSH1 0x4 DUP3 ADD MSTORE PUSH1 0x13 PUSH1 0x24 DUP3 ADD MSTORE PUSH32 0x596F7520616C726561647920766F746564202100000000000000000000000000 PUSH1 0x44 DUP3 ADD MSTORE PUSH1 0x64 SWAP1 REVERT JUMPDEST PUSH1 0x1 PUSH1 0x1 PUSH1 0xA0 SHL SUB SWAP1 SWAP2 AND DUP2 MSTORE PUSH1 0x40 DUP2 ADD SWAP3 SWAP2 PUSH2 0x252 SWAP2 PUSH1 0x20 ADD MSTORE JUMP JUMPDEST CALLER SWAP1 PUSH2 0x1CA4 SWAP1 PUSH2 0x12A6 PUSH2 0x1C9E PUSH1 0x4 PUSH2 0x1C92 DUP7 PUSH2 0x1C8D PUSH2 0x1C4E PUSH2 0x268 PUSH2 0x1C2E DUP9 DUP6 PUSH1 0x15 PUSH2 0x61F JUMP JUMPDEST SWAP9 PUSH2 0x1C47 PUSH1 0x0 SWAP11 PUSH2 0x1C41 PUSH2 0x12BB DUP14 PUSH2 0x908 JUMP JUMPDEST GT PUSH2 0x1B52 JUMP JUMPDEST PUSH1 0x16 PUSH2 0x915 JUMP JUMPDEST SWAP7 PUSH2 0x1C7B PUSH1 0x5 DUP10 ADD SWAP2 PUSH2 0x1C75 PUSH2 0x10E1 PUSH2 0x1C6F PUSH2 0x1C6A DUP9 DUP8 PUSH2 0x61F JUMP JUMPDEST PUSH2 0x939 JUMP JUMPDEST SWAP3 ISZERO ISZERO SWAP1 JUMP JUMPDEST EQ PUSH2 0x1B9E JUMP JUMPDEST PUSH2 0x1C88 PUSH1 0x1 SWAP4 DUP5 SWAP3 PUSH2 0x61F JUMP JUMPDEST PUSH2 0x19D9 JUMP JUMPDEST PUSH2 0x908 JUMP JUMPDEST SWAP4 ADD SWAP3 PUSH2 0x12D6 DUP5 PUSH2 0x926 JUMP JUMPDEST DUP3 PUSH2 0xF7C JUMP JUMPDEST PUSH32 0xA2925E4595BF873FA82C22A1A89809777347023BF2B502D32710157A5EB8199C SWAP2 PUSH2 0x1B3F PUSH2 0x1CD2 PUSH1 0x40 MLOAD SWAP1 JUMP JUMPDEST SWAP3 DUP4 SWAP3 DUP4 PUSH2 0x1BEA JUMP JUMPDEST SWAP1 PUSH2 0x252 SWAP2 PUSH2 0x1CFC CALLER PUSH2 0x17EE PUSH2 0xF54 PUSH2 0xF4F PUSH1 0x4 SLOAD PUSH1 0x1 PUSH1 0x1 PUSH1 0xA0 SHL SUB AND SWAP1 JUMP JUMPDEST SWAP1 PUSH2 0x252 SWAP2 PUSH2 0x1D16 PUSH1 0x2 PUSH2 0x1638 PUSH2 0x1632 PUSH2 0x162C PUSH1 0xF PUSH2 0x939 JUMP JUMPDEST PUSH2 0x1D2A TIMESTAMP PUSH2 0x1652 PUSH2 0x12BB PUSH2 0x268 PUSH1 0x8 PUSH2 0x926 JUMP JUMPDEST PUSH2 0x1F13 JUMP JUMPDEST ISZERO PUSH2 0x1D36 JUMPI JUMP JUMPDEST PUSH1 0x40 MLOAD PUSH3 0x461BCD PUSH1 0xE5 SHL DUP2 MSTORE PUSH1 0x20 PUSH1 0x4 DUP3 ADD MSTORE PUSH1 0x19 PUSH1 0x24 DUP3 ADD MSTORE PUSH32 0x5265717565737420616C726561647920636F6D706C6574656400000000000000 PUSH1 0x44 DUP3 ADD MSTORE PUSH1 0x64 SWAP1 REVERT JUMPDEST PUSH4 0x4E487B71 PUSH1 0xE0 SHL PUSH1 0x0 MSTORE PUSH1 0x12 PUSH1 0x4 MSTORE PUSH1 0x24 PUSH1 0x0 REVERT JUMPDEST DUP2 ISZERO PUSH2 0x1D9B JUMPI DIV SWAP1 JUMP JUMPDEST PUSH2 0x1D7B JUMP JUMPDEST ISZERO PUSH2 0x1DA7 JUMPI JUMP JUMPDEST PUSH1 0x40 MLOAD PUSH3 0x461BCD PUSH1 0xE5 SHL DUP2 MSTORE PUSH1 0x20 PUSH1 0x4 DUP3 ADD MSTORE PUSH1 0x36 PUSH1 0x24 DUP3 ADD MSTORE PUSH32 0x4174206C656173742032302520636F6E7472696275746F72206E65656420746F PUSH1 0x44 DUP3 ADD MSTORE PUSH32 0x20766F746520666F722074686973207265717565737400000000000000000000 PUSH1 0x64 DUP3 ADD MSTORE PUSH1 0x84 SWAP1 REVERT JUMPDEST ISZERO PUSH2 0x1E19 JUMPI JUMP JUMPDEST PUSH1 0x40 MLOAD PUSH3 0x461BCD PUSH1 0xE5 SHL DUP2 MSTORE PUSH1 0x20 PUSH1 0x4 DUP3 ADD MSTORE PUSH1 0x39 PUSH1 0x24 DUP3 ADD MSTORE PUSH32 0x50726F6A65637420636F6E747261637420646F6573206E6F7420686176652065 PUSH1 0x44 DUP3 ADD MSTORE PUSH32 0x6E6F7567682062616C616E636520746F20646973627572736500000000000000 PUSH1 0x64 DUP3 ADD MSTORE PUSH1 0x84 SWAP1 REVERT JUMPDEST DUP2 DUP2 MUL SWAP3 SWAP2 DUP2 ISZERO SWAP2 DUP5 DIV EQ OR ISZERO PUSH2 0x11B6 JUMPI JUMP JUMPDEST PUSH1 0x1 PUSH1 0x1 PUSH1 0xA0 SHL SUB SWAP1 SWAP2 AND DUP2 MSTORE PUSH1 0x60 DUP2 ADD SWAP4 SWAP3 PUSH2 0x252 SWAP3 SWAP1 SWAP2 PUSH1 0x40 SWAP2 PUSH2 0x1260 SWAP1 PUSH1 0x20 DUP4 ADD SWAP1 PUSH2 0x1A29 JUMP JUMPDEST SWAP3 SWAP8 SWAP7 SWAP5 PUSH2 0xA22 SWAP1 PUSH2 0xA1B PUSH1 0xC0 SWAP7 PUSH2 0x1F0C PUSH2 0x1EFA PUSH2 0x252 SWAP12 SWAP7 PUSH2 0x1A83 SWAP9 PUSH2 0x1EED PUSH1 0xE0 DUP13 ADD SWAP3 PUSH1 0x0 DUP14 ADD MSTORE JUMP JUMPDEST DUP11 DUP3 SUB PUSH1 0x20 DUP13 ADD MSTORE PUSH2 0x456 JUMP JUMPDEST PUSH1 0x1 PUSH1 0x1 PUSH1 0xA0 SHL SUB SWAP1 SWAP14 AND PUSH1 0x40 DUP10 ADD MSTORE JUMP JUMPDEST PUSH1 0x60 DUP8 ADD MSTORE JUMP JUMPDEST PUSH2 0x1F21 PUSH2 0x268 DUP3 PUSH1 0x16 PUSH2 0x915 JUMP JUMPDEST SWAP1 PUSH1 0x6 DUP3 ADD SWAP3 PUSH2 0x1F30 DUP5 PUSH2 0x939 JUMP JUMPDEST PUSH1 0x0 SWAP1 PUSH2 0x1F46 SWAP1 PUSH2 0x1F40 DUP4 PUSH2 0x10E1 JUMP JUMPDEST EQ PUSH2 0x1D2F JUMP JUMPDEST PUSH1 0x4 DUP5 ADD SWAP1 PUSH2 0x1F81 PUSH2 0x1F57 DUP4 PUSH2 0x926 JUMP JUMPDEST PUSH2 0x1F7A PUSH2 0x12BB PUSH2 0x268 PUSH2 0x1F6A PUSH1 0xC PUSH2 0x926 JUMP JUMPDEST PUSH2 0x1F74 PUSH1 0x5 PUSH2 0x908 JUMP JUMPDEST SWAP1 PUSH2 0x1D91 JUMP JUMPDEST LT ISZERO PUSH2 0x1DA0 JUMP JUMPDEST PUSH1 0x3 DUP6 ADD SWAP6 PUSH2 0x1F98 PUSH2 0x1F92 DUP9 PUSH2 0x926 JUMP JUMPDEST SWAP5 PUSH2 0x616 JUMP JUMPDEST PUSH4 0x70A08231 PUSH2 0x1FA6 ADDRESS PUSH2 0x616 JUMP JUMPDEST SWAP6 PUSH2 0x1FBA PUSH2 0x1FB3 PUSH1 0x40 MLOAD SWAP1 JUMP JUMPDEST SWAP3 PUSH1 0xE0 SHL SWAP1 JUMP JUMPDEST DUP3 MSTORE PUSH1 0x1 PUSH1 0x1 PUSH1 0xA0 SHL SUB DUP8 AND PUSH1 0x4 DUP4 ADD MSTORE PUSH1 0x20 DUP3 PUSH1 0x24 DUP2 DUP7 GAS STATICCALL DUP1 ISZERO PUSH2 0x140D JUMPI PUSH2 0x12BB PUSH2 0x1FEF SWAP2 PUSH2 0x1FF6 SWAP5 DUP9 SWAP2 PUSH2 0x1563 JUMPI POP SWAP1 JUMP JUMPDEST GT ISZERO PUSH2 0x1E12 JUMP JUMPDEST PUSH4 0x23B872DD SWAP5 PUSH2 0x2005 DUP4 PUSH2 0x94F JUMP JUMPDEST PUSH2 0x200E DUP11 PUSH2 0x926 JUMP JUMPDEST PUSH1 0x20 PUSH2 0x2047 DUP10 PUSH2 0x2053 PUSH2 0x2039 PUSH2 0x2029 PUSH1 0x32 SWAP7 PUSH2 0x1F74 DUP9 PUSH2 0x908 JUMP JUMPDEST PUSH2 0x2033 PUSH1 0x31 PUSH2 0x908 JUMP JUMPDEST SWAP1 PUSH2 0x1E84 JUMP JUMPDEST PUSH1 0x40 MLOAD SWAP7 DUP8 SWAP5 DUP6 SWAP5 PUSH1 0xE0 SHL SWAP1 JUMP JUMPDEST DUP5 MSTORE DUP9 PUSH1 0x4 DUP6 ADD PUSH2 0x1E97 JUMP JUMPDEST SUB DUP2 DUP10 DUP9 GAS CALL SWAP2 DUP3 ISZERO PUSH2 0x140D JUMPI DUP12 SWAP3 PUSH2 0x223C JUMPI JUMPDEST POP TIMESTAMP PUSH2 0x2079 PUSH2 0x12BB PUSH2 0x268 PUSH1 0x3 PUSH2 0x926 JUMP JUMPDEST GT PUSH2 0x21DE JUMPI POP POP PUSH1 0x1 SLOAD PUSH1 0x1 PUSH1 0x1 PUSH1 0xA0 SHL SUB AND SWAP2 PUSH2 0x2096 DUP11 PUSH2 0x926 JUMP JUMPDEST PUSH1 0x20 PUSH2 0x2047 DUP10 PUSH2 0x20BC PUSH2 0x20AE PUSH1 0x64 SWAP6 PUSH2 0x1F74 DUP8 PUSH2 0x908 JUMP JUMPDEST PUSH1 0x40 MLOAD SWAP9 DUP10 SWAP5 DUP6 SWAP5 PUSH1 0xE0 SHL SWAP1 JUMP JUMPDEST SUB DUP2 DUP10 DUP7 GAS CALL SWAP1 DUP2 ISZERO PUSH2 0x140D JUMPI DUP12 SWAP9 PUSH2 0x211F PUSH2 0x2104 DUP10 SWAP4 PUSH1 0x20 SWAP9 PUSH2 0x2114 SWAP7 PUSH2 0x21C3 JUMPI JUMPDEST POP PUSH2 0x1F74 PUSH2 0x20FE PUSH2 0x20F8 PUSH1 0x2 SLOAD PUSH1 0x1 PUSH1 0x1 PUSH1 0xA0 SHL SUB AND SWAP1 JUMP JUMPDEST SWAP15 PUSH2 0x926 JUMP JUMPDEST SWAP2 PUSH2 0x908 JUMP JUMPDEST PUSH1 0x40 MLOAD SWAP12 DUP13 SWAP8 DUP9 SWAP7 DUP8 SWAP6 PUSH1 0xE0 SHL SWAP1 JUMP JUMPDEST DUP6 MSTORE PUSH1 0x4 DUP6 ADD PUSH2 0x1E97 JUMP JUMPDEST SUB SWAP3 GAS CALL SWAP4 DUP5 ISZERO PUSH2 0x140D JUMPI PUSH2 0x1B3F SWAP5 PUSH2 0x21A7 JUMPI JUMPDEST POP JUMPDEST PUSH2 0x2172 PUSH2 0x216C PUSH2 0x2166 PUSH2 0x2160 PUSH1 0x1 DUP1 SWAP7 PUSH2 0x214F DUP3 DUP9 PUSH2 0x19D9 JUMP JUMPDEST DUP12 ADD SWAP11 ADD SLOAD PUSH1 0x1 PUSH1 0x1 PUSH1 0xA0 SHL SUB AND SWAP1 JUMP JUMPDEST SWAP10 PUSH2 0x926 JUMP JUMPDEST SWAP5 PUSH2 0x926 JUMP JUMPDEST SWAP2 PUSH2 0x94F JUMP JUMPDEST SWAP3 PUSH32 0x4B318EEFDD7BB107016B6A285AD8D255001224EDAD6FE9A0DD934EE9F3E911C5 SWAP8 PUSH2 0x219E PUSH1 0x40 MLOAD SWAP1 JUMP JUMPDEST SWAP8 DUP9 SWAP8 DUP9 PUSH2 0x1EC1 JUMP JUMPDEST PUSH2 0x21BE SWAP1 PUSH1 0x20 RETURNDATASIZE DUP2 GT PUSH2 0x1406 JUMPI PUSH2 0x13F9 DUP2 DUP4 PUSH2 0x4FA JUMP JUMPDEST PUSH2 0x2133 JUMP JUMPDEST PUSH2 0x21D9 SWAP1 DUP11 RETURNDATASIZE DUP2 GT PUSH2 0x1406 JUMPI PUSH2 0x13F9 DUP2 DUP4 PUSH2 0x4FA JUMP JUMPDEST PUSH2 0x20DF JUMP JUMPDEST DUP6 PUSH1 0x20 SWAP5 SWAP3 SWAP9 PUSH2 0x2206 PUSH2 0x2104 PUSH2 0x2114 SWAP5 PUSH2 0x1F74 PUSH2 0x20FE PUSH2 0x20F8 PUSH1 0x1 SLOAD PUSH1 0x1 PUSH1 0x1 PUSH1 0xA0 SHL SUB AND SWAP1 JUMP JUMPDEST SUB SWAP3 GAS CALL SWAP4 DUP5 ISZERO PUSH2 0x140D JUMPI PUSH2 0x1B3F SWAP5 PUSH2 0x2220 JUMPI JUMPDEST POP PUSH2 0x2135 JUMP JUMPDEST PUSH2 0x2237 SWAP1 PUSH1 0x20 RETURNDATASIZE DUP2 GT PUSH2 0x1406 JUMPI PUSH2 0x13F9 DUP2 DUP4 PUSH2 0x4FA JUMP JUMPDEST PUSH2 0x221A JUMP JUMPDEST PUSH2 0x2253 SWAP1 PUSH1 0x20 RETURNDATASIZE DUP2 GT PUSH2 0x1406 JUMPI PUSH2 0x13F9 DUP2 DUP4 PUSH2 0x4FA JUMP JUMPDEST PUSH2 0x2067 JUMP JUMPDEST SWAP1 PUSH2 0x252 SWAP2 PUSH2 0x1CDB JUMP JUMPDEST PUSH2 0x268 SWAP1 PUSH2 0x521 JUMP JUMPDEST PUSH1 0x4 SLOAD PUSH1 0x1 PUSH1 0x1 PUSH1 0xA0 SHL SUB AND SWAP1 PUSH2 0x2282 PUSH1 0x7 PUSH2 0x926 JUMP JUMPDEST SWAP1 PUSH2 0x228D PUSH1 0x8 PUSH2 0x926 JUMP JUMPDEST SWAP2 PUSH2 0x2298 PUSH1 0x9 PUSH2 0x926 JUMP JUMPDEST SWAP3 PUSH2 0x22A3 PUSH1 0xA PUSH2 0x926 JUMP JUMPDEST SWAP4 PUSH2 0x22AE PUSH1 0xB PUSH2 0x926 JUMP JUMPDEST SWAP5 PUSH2 0x22B9 PUSH1 0xD PUSH2 0x2262 JUMP JUMPDEST SWAP6 PUSH2 0x22C4 PUSH1 0xE PUSH2 0x2262 JUMP JUMPDEST SWAP7 PUSH2 0x22CF PUSH1 0xF PUSH2 0x939 JUMP JUMPDEST SWAP8 PUSH2 0x22D9 ADDRESS PUSH2 0x616 JUMP JUMPDEST BALANCE SWAP9 PUSH2 0x22E5 PUSH1 0x10 PUSH2 0x2262 JUMP JUMPDEST SWAP10 PUSH2 0x22F0 PUSH1 0x11 PUSH2 0x2262 JUMP JUMPDEST SWAP11 PUSH2 0x22FB PUSH1 0x12 PUSH2 0x2262 JUMP JUMPDEST SWAP12 PUSH2 0x2306 PUSH1 0x13 PUSH2 0x2262 JUMP JUMPDEST SWAP13 PUSH2 0x2319 PUSH1 0x5 SLOAD PUSH1 0x1 PUSH1 0x1 PUSH1 0xA0 SHL SUB AND SWAP1 JUMP JUMPDEST SWAP14 PUSH2 0x232C PUSH1 0x6 SLOAD PUSH1 0x1 PUSH1 0x1 PUSH1 0xA0 SHL SUB AND SWAP1 JUMP JUMPDEST SWAP14 JUMP JUMPDEST PUSH2 0x268 PUSH2 0x2346 SWAP2 PUSH2 0x233E PUSH1 0x60 SWAP1 JUMP JUMPDEST POP PUSH1 0x16 PUSH2 0x915 JUMP JUMPDEST PUSH2 0x2350 PUSH1 0xC PUSH2 0x926 JUMP JUMPDEST SWAP1 PUSH2 0x235A DUP2 PUSH2 0x2262 JUMP JUMPDEST SWAP3 PUSH2 0x2367 PUSH1 0x2 DUP4 ADD PUSH2 0x2262 JUMP JUMPDEST SWAP2 PUSH2 0x237C PUSH1 0x1 DUP3 ADD SLOAD PUSH1 0x1 PUSH1 0x1 PUSH1 0xA0 SHL SUB AND SWAP1 JUMP JUMPDEST SWAP4 PUSH2 0x2389 PUSH1 0x3 DUP4 ADD PUSH2 0x926 JUMP JUMPDEST SWAP3 PUSH1 0x6 PUSH2 0x2398 PUSH1 0x4 DUP6 ADD PUSH2 0x926 JUMP JUMPDEST SWAP4 ADD SWAP1 PUSH2 0x268 PUSH2 0x23A7 DUP4 PUSH2 0x939 JUMP JUMPDEST SWAP3 PUSH2 0x94F JUMP INVALID LOG2 PUSH5 0x6970667358 0x22 SLT KECCAK256 SHL 0xB5 SWAP12 LOG4 MUL 0xE6 ADDMOD SWAP5 0x5E BASEFEE PUSH8 0xED34017D78875105 0x5E 0xAB SSTORE 0xE4 0xD6 0x27 0xC7 0xBF LT EXTCODECOPY CREATE2 SWAP1 0xC0 PUSH5 0x736F6C6343 STOP ADDMOD SLT STOP CALLER "},"methodIdentifiers":{"completeAt()":"4c4cea5a","contribute(address,uint256,address)":"4cbc1553","contributiors(address)":"0a771370","createWithdrawRequest(string,uint256,address,address,string,uint256)":"b35a7dd4","creator()":"02d05d3f","deadline()":"29dcb0cf","developer()":"ca4b208b","filterTags()":"a278a485","getContractBNBBalance()":"07d94e4a","getContractBalance(address)":"43ab265f","getProjectDetails()":"ff3a9c7e","githubUrl()":"18aa9f1e","isRevealed()":"54214f69","isVerified()":"80007e83","minimumContribution()":"937e09b1","noOfContributers()":"24274ee9","numOfWithdrawRequests()":"b40141bf","projectCoverUrl()":"5eb32936","projectDes()":"03c29d58","projectTitle()":"c3e20c9f","raisedAmount()":"c59ee1dc","requestRefund()":"d5cef133","royaltyGraceExpiry()":"263a58aa","setRoyaltyGracePeriod(uint256)":"d688cf53","setVerification(bool)":"e9d1edde","setVisibility(bool)":"28c30c07","showDetailOfWR(uint256)":"0203d002","socialUrl()":"d1707551","state()":"c19d93fb","targetContribution()":"b82c86d6","voteWithdrawRequest(uint256)":"4e695a37","websiteUrl()":"abb5ca09","withdrawRequestedAmount(uint256,address)":"62d809a6","withdrawRequests(uint256)":"992a7dfb"}}}}}