{"contracts/Project.sol":{"Project":{"abi":[{"inputs":[{"internalType":"address","name":"_owner","type":"address"},{"internalType":"address","name":"_creator","type":"address"},{"internalType":"address","name":"_masterContract","type":"address"},{"internalType":"address","name":"_usdt","type":"address"},{"internalType":"address","name":"_usdc","type":"address"},{"internalType":"uint256","name":"_deadline","type":"uint256"},{"internalType":"uint256","name":"_targetContribution","type":"uint256"},{"internalType":"string","name":"_projectTitle","type":"string"},{"internalType":"string","name":"_projectDes","type":"string"},{"internalType":"string","name":"_websiteUrl","type":"string"},{"internalType":"string","name":"_socialUrl","type":"string"},{"internalType":"string","name":"_githubUrl","type":"string"},{"internalType":"string","name":"_projectCoverUrl","type":"string"},{"internalType":"string","name":"_filterTags","type":"string"}],"stateMutability":"nonpayable","type":"constructor"},{"anonymous":false,"inputs":[{"indexed":false,"internalType":"uint256","name":"requestId","type":"uint256"},{"indexed":false,"internalType":"string","name":"description","type":"string"},{"indexed":false,"internalType":"uint256","name":"amountUSDT","type":"uint256"},{"indexed":false,"internalType":"uint256","name":"amountUSDC","type":"uint256"},{"indexed":false,"internalType":"uint256","name":"noOfVotes","type":"uint256"},{"indexed":false,"internalType":"bool","name":"isCompleted","type":"bool"},{"indexed":false,"internalType":"address","name":"reciptent","type":"address"}],"name":"AmountWithdrawSuccessful","type":"event"},{"anonymous":false,"inputs":[{"indexed":false,"internalType":"address","name":"contributor","type":"address"},{"indexed":false,"internalType":"uint256","name":"amount","type":"uint256"},{"indexed":false,"internalType":"uint256","name":"currentTotal","type":"uint256"}],"name":"FundingReceived","type":"event"},{"anonymous":false,"inputs":[{"indexed":false,"internalType":"uint256","name":"requestId","type":"uint256"},{"indexed":false,"internalType":"string","name":"description","type":"string"},{"indexed":false,"internalType":"uint256","name":"amountUSDT","type":"uint256"},{"indexed":false,"internalType":"uint256","name":"amountUSDC","type":"uint256"},{"indexed":false,"internalType":"uint256","name":"noOfVotes","type":"uint256"},{"indexed":false,"internalType":"bool","name":"isCompleted","type":"bool"},{"indexed":false,"internalType":"address","name":"reciptent","type":"address"}],"name":"WithdrawRequestCreated","type":"event"},{"anonymous":false,"inputs":[{"indexed":false,"internalType":"address","name":"voter","type":"address"},{"indexed":false,"internalType":"uint256","name":"totalVote","type":"uint256"}],"name":"WithdrawVote","type":"event"},{"inputs":[],"name":"completeAt","outputs":[{"internalType":"uint256","name":"","type":"uint256"}],"stateMutability":"view","type":"function"},{"inputs":[{"internalType":"address","name":"_contributor","type":"address"},{"internalType":"uint256","name":"amount","type":"uint256"},{"internalType":"contract IERC20","name":"tokenAddress","type":"address"}],"name":"contribute","outputs":[],"stateMutability":"nonpayable","type":"function"},{"inputs":[{"internalType":"address","name":"","type":"address"}],"name":"contributiors","outputs":[{"internalType":"uint256","name":"","type":"uint256"}],"stateMutability":"view","type":"function"},{"inputs":[{"internalType":"string","name":"_description","type":"string"},{"internalType":"address payable","name":"_reciptent","type":"address"},{"internalType":"uint256","name":"_amountUSDT","type":"uint256"},{"internalType":"uint256","name":"_amountUSDC","type":"uint256"},{"internalType":"uint256","name":"_requestId","type":"uint256"}],"name":"createWithdrawRequest","outputs":[],"stateMutability":"nonpayable","type":"function"},{"inputs":[],"name":"creator","outputs":[{"internalType":"address payable","name":"","type":"address"}],"stateMutability":"view","type":"function"},{"inputs":[],"name":"deadline","outputs":[{"internalType":"uint256","name":"","type":"uint256"}],"stateMutability":"view","type":"function"},{"inputs":[],"name":"developer","outputs":[{"internalType":"address payable","name":"","type":"address"}],"stateMutability":"view","type":"function"},{"inputs":[],"name":"filterTags","outputs":[{"internalType":"string","name":"","type":"string"}],"stateMutability":"view","type":"function"},{"inputs":[],"name":"getContractBNBBalance","outputs":[{"internalType":"uint256","name":"","type":"uint256"}],"stateMutability":"view","type":"function"},{"inputs":[{"internalType":"contract IERC20","name":"tokenAddress","type":"address"}],"name":"getContractBalance","outputs":[{"internalType":"uint256","name":"","type":"uint256"}],"stateMutability":"view","type":"function"},{"inputs":[],"name":"getProjectDetails","outputs":[{"internalType":"address payable","name":"projectStarter","type":"address"},{"internalType":"address payable","name":"usdtA","type":"address"},{"internalType":"address payable","name":"usdcA","type":"address"},{"internalType":"uint256","name":"projectDeadline","type":"uint256"},{"internalType":"uint256","name":"goalAmount","type":"uint256"},{"internalType":"uint256","name":"noOfContri","type":"uint256"},{"internalType":"uint256","name":"completedTime","type":"uint256"},{"internalType":"uint256","name":"currentAmount","type":"uint256"},{"internalType":"string","name":"title","type":"string"},{"internalType":"string","name":"desc","type":"string"},{"internalType":"enum Project.State","name":"currentState","type":"uint8"},{"internalType":"uint256","name":"balance","type":"uint256"},{"internalType":"string","name":"website","type":"string"},{"internalType":"string","name":"social","type":"string"},{"internalType":"string","name":"github","type":"string"},{"internalType":"string","name":"projectCover","type":"string"}],"stateMutability":"view","type":"function"},{"inputs":[],"name":"githubUrl","outputs":[{"internalType":"string","name":"","type":"string"}],"stateMutability":"view","type":"function"},{"inputs":[],"name":"isRevealed","outputs":[{"internalType":"bool","name":"","type":"bool"}],"stateMutability":"view","type":"function"},{"inputs":[],"name":"isVerified","outputs":[{"internalType":"bool","name":"","type":"bool"}],"stateMutability":"view","type":"function"},{"inputs":[],"name":"noOfContributers","outputs":[{"internalType":"uint256","name":"","type":"uint256"}],"stateMutability":"view","type":"function"},{"inputs":[],"name":"numOfWithdrawRequests","outputs":[{"internalType":"uint256","name":"","type":"uint256"}],"stateMutability":"view","type":"function"},{"inputs":[],"name":"projectCoverUrl","outputs":[{"internalType":"string","name":"","type":"string"}],"stateMutability":"view","type":"function"},{"inputs":[],"name":"projectDes","outputs":[{"internalType":"string","name":"","type":"string"}],"stateMutability":"view","type":"function"},{"inputs":[],"name":"projectTitle","outputs":[{"internalType":"string","name":"","type":"string"}],"stateMutability":"view","type":"function"},{"inputs":[],"name":"raisedAmount","outputs":[{"internalType":"uint256","name":"","type":"uint256"}],"stateMutability":"view","type":"function"},{"inputs":[],"name":"requestRefund","outputs":[{"internalType":"bool","name":"","type":"bool"}],"stateMutability":"nonpayable","type":"function"},{"inputs":[],"name":"royaltyGraceExpiry","outputs":[{"internalType":"uint256","name":"","type":"uint256"}],"stateMutability":"view","type":"function"},{"inputs":[{"internalType":"uint256","name":"unixTs","type":"uint256"}],"name":"setRoyaltyGracePeriod","outputs":[],"stateMutability":"nonpayable","type":"function"},{"inputs":[{"internalType":"bool","name":"verified","type":"bool"}],"name":"setVerification","outputs":[],"stateMutability":"nonpayable","type":"function"},{"inputs":[{"internalType":"bool","name":"isVisible","type":"bool"}],"name":"setVisibility","outputs":[],"stateMutability":"nonpayable","type":"function"},{"inputs":[{"internalType":"uint256","name":"_requestId","type":"uint256"}],"name":"showDetailOfWR","outputs":[{"internalType":"string","name":"description","type":"string"},{"internalType":"uint256","name":"amountUSDT","type":"uint256"},{"internalType":"uint256","name":"amountUSDC","type":"uint256"},{"internalType":"uint256","name":"noOfVotes","type":"uint256"},{"internalType":"uint256","name":"contributors","type":"uint256"},{"internalType":"bool","name":"isCompleted","type":"bool"},{"internalType":"address payable","name":"reciptent","type":"address"}],"stateMutability":"view","type":"function"},{"inputs":[],"name":"socialUrl","outputs":[{"internalType":"string","name":"","type":"string"}],"stateMutability":"view","type":"function"},{"inputs":[],"name":"state","outputs":[{"internalType":"enum Project.State","name":"","type":"uint8"}],"stateMutability":"view","type":"function"},{"inputs":[],"name":"targetContribution","outputs":[{"internalType":"uint256","name":"","type":"uint256"}],"stateMutability":"view","type":"function"},{"inputs":[{"internalType":"uint256","name":"_requestId","type":"uint256"}],"name":"voteWithdrawRequest","outputs":[],"stateMutability":"nonpayable","type":"function"},{"inputs":[],"name":"websiteUrl","outputs":[{"internalType":"string","name":"","type":"string"}],"stateMutability":"view","type":"function"},{"inputs":[{"internalType":"uint256","name":"_requestId","type":"uint256"},{"internalType":"contract IERC20","name":"_usdt","type":"address"},{"internalType":"contract IERC20","name":"_usdc","type":"address"}],"name":"withdrawRequestedAmount","outputs":[],"stateMutability":"nonpayable","type":"function"},{"inputs":[{"internalType":"uint256","name":"","type":"uint256"}],"name":"withdrawRequests","outputs":[{"internalType":"string","name":"description","type":"string"},{"internalType":"uint256","name":"amountUSDT","type":"uint256"},{"internalType":"uint256","name":"amountUSDC","type":"uint256"},{"internalType":"uint256","name":"noOfVotes","type":"uint256"},{"internalType":"bool","name":"isCompleted","type":"bool"},{"internalType":"address payable","name":"reciptent","type":"address"}],"stateMutability":"view","type":"function"}],"evm":{"bytecode":{"linkReferences":{},"object":"60806040523462000043576200003162000018620002e7565b9c9b909b9a919a999299989398979497969596620006ff565b60405161253d62000c64823961253d90f35b600080fd5b634e487b7160e01b600052604160045260246000fd5b90601f01601f191681019081106001600160401b038211176200008057604052565b62000048565b906200009d6200009560405190565b92836200005e565b565b6001600160a01b031690565b90565b6001600160a01b0381165b036200004357565b905051906200009d82620000ae565b80620000b9565b905051906200009d82620000d0565b6001600160401b0381116200008057602090601f01601f19160190565b0190565b60005b8381106200011b5750506000910152565b81810151838201526020016200010a565b90929192620001456200013f82620000e6565b62000086565b9381855260208501908284011162000043576200009d9262000107565b9080601f8301121562000043578151620000ab926020016200012c565b9190916101c08184031262000043576200019a8382620000c1565b92620001aa8160208401620000c1565b92604090620001bc83838601620000c1565b93620001cc8460608301620000c1565b93620001dc8160808401620000c1565b93620001ec8260a08501620000d7565b93620001fc8360c08601620000d7565b9360e0810151600180851b0381116200004357846200021d91830162000162565b93610100820151600180861b0381116200004357816200023f91840162000162565b93610120830151600180831b0381116200004357826200026191850162000162565b93610140840151600180841b0381116200004357836200028391860162000162565b93610160810151600180851b038111620000435784620002a591830162000162565b93610180820151600180861b038111620000435781620002c791840162000162565b936001806101a0850151921b0381116200004357620000ab920162000162565b6200030a620031a180380380620002fe8162000086565b9283398101906200017f565b909192939495969798999a9b9c9d565b620000ab906200009f906001600160a01b031682565b620000ab906200031a565b620000ab9062000330565b906001600160a01b03905b9181191691161790565b906200036f620000ab62000377926200033b565b825462000346565b9055565b906000199062000351565b620000ab620000ab620000ab9290565b90620003aa620000ab620003779262000386565b82546200037b565b9060ff9062000351565b634e487b7160e01b600052602160045260246000fd5b60031115620003dd57565b620003bc565b906200009d82620003d2565b620000ab90620003e3565b906200040e620000ab6200037792620003ef565b8254620003b2565b9061ff009060081b62000351565b9062000437620000ab6200037792151590565b825462000416565b9062ff00009060101b62000351565b9062000461620000ab6200037792151590565b82546200043f565b634e487b7160e01b600052602260045260246000fd5b9060016002830492168015620004a2575b60208310146200049c57565b62000469565b91607f169162000490565b9160001960089290920291821b911b62000351565b9190620004d7620000ab620003779362000386565b908354620004ad565b6200009d91600091620004c2565b818110620004fa575050565b806200050a6000600193620004e0565b01620004ee565b9190601f81116200052157505050565b620005356200009d93600052602060002090565b906020601f84018190048301931062000559575b6020601f909101040190620004ee565b909150819062000549565b906200056e815190565b906001600160401b038211620000805762000596826200058f85546200047f565b8562000511565b602090601f8311600114620005d55762000377929160009183620005c9575b5050600019600883021c1916906002021790565b015190503880620005b5565b601f19831691620005eb85600052602060002090565b9260005b8181106200062c5750916002939185600196941062000612575b50505002019055565b01516000196008601f8516021c1916905538808062000609565b91936020600181928787015181550195019201620005ef565b906200009d9162000564565b801515620000b9565b905051906200009d8262000651565b906020828203126200004357620000ab916200065a565b9052565b620006809062000386565b6001600160a01b0390911681526040810192916200009d916020905b019062000684565b6040513d6000823e3d90fd5b620000ab906200009f565b620000ab9054620006bf565b62000680906200033b565b9160206200009d929493620006ab60408201966000830190620006d6565b9a959099949c96919b97929893987375bf6c63f2941ed31a908b976b5e39954561517b6200072d906200033b565b6200073a9060026200035b565b6200074a62bc614e600362000396565b6000809d6200075b82600e620003fa565b6200076882600e62000424565b6200077582600e6200044e565b6200078282601662000396565b8d6200078e8b62000bff565b62000799906200033b565b620007a69060016200035b565b620007b18d6200033b565b620007be9060046200035b565b620007c9906200033b565b620007d4916200035b565b620007df906200033b565b98620007ed8a60056200035b565b620007f8906200033b565b9c620008068e60066200035b565b6200081390600762000396565b6200082090600862000396565b6200082d90600c62000645565b6200083a90600d62000645565b620008458962000386565b6200085290600a62000396565b6200085f90600f62000645565b6200086c90601062000645565b6200087990601162000645565b6200088690601362000645565b6200089390601262000645565b6200089e906200033b565b9063095ea7b392600160811b95620008b560405190565b90620008c18660e01b90565b8252848280620008d68b88600484016200068f565b03818a5a94602095f191821562000ac957620009026020928a92620009299562000b93575b506200033b565b946200090d60405190565b93849283926200091d8b60e01b90565b8452600484016200068f565b038189875af1801562000ac95762000b72575b506040516200094b8560e01b90565b815260208180620009618a86600484016200068f565b038189885af1801562000ac9576200099292602092899262000b52575b5060405193849283926200091d8a60e01b90565b038188865af1801562000ac95762000b31575b50620009d8602086620009b96002620006ca565b6040519384928392620009cc8a60e01b90565b845260048401620006e1565b038188875af1801562000ac95762000b10575b50620009ff602086620009b96002620006ca565b038188865af1801562000ac95762000aef575b5062000a1e306200033b565b91602062000a2b60405190565b809262000a388760e01b90565b825281888162000a4d8c8a600484016200068f565b03925af1801562000ac9576020946200091d92879262000acf575b5062000a8462000a7760405190565b9889968795869460e01b90565b03925af190811562000ac9575062000a995750565b62000abe9060203d811162000ac1575b62000ab581836200005e565b81019062000669565b50565b503d62000aa9565b620006b3565b62000ae990873d811162000ac15762000ab581836200005e565b62000a68565b62000b0a9060203d811162000ac15762000ab581836200005e565b62000a12565b62000b2b9060203d811162000ac15762000ab581836200005e565b620009eb565b62000b4c9060203d811162000ac15762000ab581836200005e565b620009a5565b62000b6c90843d811162000ac15762000ab581836200005e565b6200097e565b62000b8d9060203d811162000ac15762000ab581836200005e565b6200093c565b62000bad90853d811162000ac15762000ab581836200005e565b620008fb565b62000bd862000be2602093620001039362000bcc815190565b80835293849260200190565b9586910162000107565b601f01601f191690565b6020808252620000ab9291019062000bb3565b62000c3062000c406200009d9262000c1660405190565b63104c13eb60e21b60208201529283916024830162000bec565b602082018103825203826200005e565b6000809162000c576a636f6e736f6c652e6c6f6790565b602082519201905afa5056fe60a0604052600436101561001257600080fd5b60003560e01c80630203d0021461022257806302d05d3f1461021d57806303c29d581461021857806307d94e4a146102135780630a7713701461020e5780630add6b731461020957806318aa9f1e1461020457806324274ee9146101ff578063263a58aa146101fa57806328c30c07146101f557806329dcb0cf146101f057806343ab265f146101eb5780634c4cea5a146101e65780634cbc1553146101e15780634e695a37146101dc57806354214f69146101d75780635eb32936146101d257806380007e83146101cd578063992a7dfb146101c8578063a278a485146101c3578063abb5ca09146101be578063b40141bf146101b9578063b82c86d6146101b4578063c19d93fb146101af578063c3e20c9f146101aa578063c59ee1dc146101a5578063ca4b208b146101a0578063d17075511461019b578063d5cef13314610196578063d688cf5314610191578063d8abe8be1461018c578063e9d1edde146101875763ff3a9c7e0361022757610dc6565b610ccd565b610cb1565b610bb3565b610b98565b610b7d565b610b56565b610b2f565b610b08565b610ad5565b610a5d565b610a36565b610a0f565b6109e8565b6109a8565b61089b565b610874565b61083b565b6107fd565b6107e4565b6107a2565b61077b565b610760565b61073c565b6106f8565b6106d1565b6106aa565b610680565b610635565b61056d565b610546565b61039c565b61032e565b600080fd5b805b0361022757565b905035906102428261022c565b565b906020828203126102275761025891610235565b90565b60005b83811061026e5750506000910152565b818101518382015260200161025e565b61029f6102a86020936102b293610293815190565b80835293849260200190565b9586910161025b565b601f01601f191690565b0190565b9052565b6001600160a01b031690565b9261031f9298979561030f60c096610308610316946103016102f96102429d9860e08c01908c600081840391015261027e565b9e60208b0152565b6040890152565b6060870152565b6080850152565b151560a0830152565b01906001600160a01b03169052565b3461022757610362610349610344366004610244565b61249d565b9361035997959793919360405190565b978897886102c6565b0390f35b600091031261022757565b610258916008021c6001600160a01b031690565b906102589154610371565b61025860006004610385565b34610227576103ac366004610366565b6103626103b7610390565b604051918291826001600160a01b03909116815260200190565b634e487b7160e01b600052600060045260246000fd5b634e487b7160e01b600052602260045260246000fd5b906001600283049216801561041d575b602083101461041857565b6103e7565b91607f169161040d565b8054600093929161044461043a836103fd565b8085529360200190565b9160018116908115610496575060011461045d57505050565b6104709192939450600052602060002090565b916000925b8184106104825750500190565b805484840152602090930192600101610475565b92949550505060ff1916825215156020020190565b9061025891610427565b634e487b7160e01b600052604160045260246000fd5b90601f01601f1916810190811067ffffffffffffffff8211176104ed57604052565b6104b5565b9061024261050c9261050360405190565b938480926104ab565b03836104cb565b9060001061052457610258906104f2565b6103d1565b6102586000600d610513565b60208082526102589291019061027e565b3461022757610556366004610366565b610362610561610529565b60405191829182610535565b346102275761057d366004610366565b610362610588611441565b6040519182918290815260200190565b6001600160a01b03811661022e565b9050359061024282610598565b9060208282031261022757610258916105a7565b6102ba610258610258926001600160a01b031690565b610258906105c8565b610258906105de565b906105fa906105e7565b600052602052604060002090565b610258916008021c81565b906102589154610608565b610258906106306014916000926105f0565b610613565b346102275761036261058861064b3660046105b4565b61061e565b9091606082840312610227576102586106698484610235565b9361067781602086016105a7565b936040016105a7565b3461022757610699610693366004610650565b916123c5565b604051005b61025860006011610513565b34610227576106ba366004610366565b61036261056161069e565b6102586000600b610613565b34610227576106e1366004610366565b6103626105886106c5565b61025860006003610613565b3461022757610708366004610366565b6103626105886106ec565b80151561022e565b9050359061024282610713565b90602082820312610227576102589161071b565b346102275761069961074f366004610728565b610f57565b61025860006007610613565b3461022757610770366004610366565b610362610588610754565b34610227576103626105886107913660046105b4565b61144e565b61025860006009610613565b34610227576107b2366004610366565b610362610588610796565b9091606082840312610227576102586107d684846105a7565b936106778160208601610235565b34610227576106996107f73660046107bd565b916113b8565b3461022757610699610810366004610244565b611b1b565b610258916008021c5b60ff1690565b906102589154610815565b6102586001600e610824565b346102275761084b366004610366565b61036261085661082f565b60405191829182901515815260200190565b61025860006012610513565b3461022757610884366004610366565b610362610561610868565b6102586002600e610824565b34610227576108ab366004610366565b61036261085661088f565b6102586102586102589290565b906105fa906108b6565b6102589081565b61025890546108cd565b6102589061081e565b61025890546108de565b6102589060081c6102ba565b61025890546108f1565b6109129060156108c3565b9061091c826104f2565b91610929600182016108d4565b91610936600283016108d4565b91610943600382016108d4565b9161025860056109548185016108e7565b93016108fd565b919695939461099f6102429661099860a09661099161098961031f9760c08a01908a820360008c015261027e565b9c6020890152565b6040870152565b6060850152565b15156080830152565b34610227576103626109c36109be366004610244565b610907565b926109d396949692919260405190565b9687968761095b565b61025860006013610513565b34610227576109f8366004610366565b6103626105616109dc565b6102586000600f610513565b3461022757610a1f366004610366565b610362610561610a03565b61025860006016610613565b3461022757610a46366004610366565b610362610588610a2a565b61025860006008610613565b3461022757610a6d366004610366565b610362610588610a51565b6102586000600e610824565b634e487b7160e01b600052602160045260246000fd5b60031115610aa457565b610a84565b9061024282610a9a565b61025890610aa9565b6102b690610ab3565b6020810192916102429190610abc565b3461022757610ae5366004610366565b610362610af0610a78565b60405191829182610ac5565b6102586000600c610513565b3461022757610b18366004610366565b610362610561610afc565b6102586000600a610613565b3461022757610b3f366004610366565b610362610588610b23565b61025860006002610385565b3461022757610b66366004610366565b6103626103b7610b4a565b61025860006010610513565b3461022757610b8d366004610366565b610362610561610b71565b3461022757610ba8366004610366565b6103626108566116a5565b3461022757610699610bc6366004610244565b610efa565b90610242610bd860405190565b92836104cb565b67ffffffffffffffff81116104ed57602090601f01601f19160190565b90826000939282370152565b90929192610c1d610c1882610bdf565b610bcb565b938185526020850190828401116102275761024292610bfc565b9080601f830112156102275781602061025893359101610c08565b919060a08382031261022757823567ffffffffffffffff81116102275781610c7b918501610c37565b92610c8982602083016105a7565b92610258610c9a8460408501610235565b93610ca88160608601610235565b93608001610235565b3461022757610699610cc4366004610c52565b93929092611a59565b3461022757610699610ce0366004610728565b610fb5565b9e9d9c9b999897959391928f9197959361020083019860008401610d10916001600160a01b03169052565b6001600160a01b031660208301526001600160a01b031660408201526060015260808d015260a08c015260c08b015260e08a01528881036101008a0152610d569161027e565b878103610120890152610d689161027e565b916101408701610d7791610abc565b610160860152848103610180860152610d8f9161027e565b8381036101a0850152610da19161027e565b8281036101c0840152610db39161027e565b90808203906101e001526102589161027e565b3461022757610dd6366004610366565b610e0b610de16123d9565b9e610e009e919e9d929d9c939c9b949b9a959a99969998979860405190565b608052608051610ce5565b6080519003608051f35b15610e1c57565b60405162461bcd60e51b815260206004820152603660248201527f596f7520646f6e7420686176652061646d696e2061636365737320746f20706560448201527f72666f726d2074686973206f7065726174696f6e2021000000000000000000006064820152608490fd5b61024290610ebf33610eb9610eac610ea76001546001600160a01b031690565b6105e7565b916001600160a01b031690565b14610e15565b610eef565b90600019905b9181191691161790565b90610ee4610258610eeb926108b6565b8254610ec4565b9055565b610242906003610ed4565b61024290610e87565b61024290610f2333610eb9610eac610ea76001546001600160a01b031690565b610f4c565b9061ff009060081b610eca565b90610f45610258610eeb92151590565b8254610f28565b61024290600e610f35565b61024290610f03565b61024290610f8033610eb9610eac610ea76001546001600160a01b031690565b610faa565b9062ff00009060101b610eca565b90610fa3610258610eeb92151590565b8254610f85565b61024290600e610f93565b61024290610f60565b6102589060101c61081e565b6102589054610fbe565b15610fdb57565b60405162461bcd60e51b815260206004820152601860248201527f50726f6a656374206d75737420626520766572696669656400000000000000006044820152606490fd5b906102429291611045611033600e610fca565b61103f60015b91151590565b14610fd4565b6110bc565b1561105157565b60405162461bcd60e51b815260206004820152603c60248201527f596f7520646f206e6f74206861766520746865206d617374657220726967687460448201527f7320746f20706572666f726d2074686973206f7065726174696f6e21000000006064820152608490fd5b9061024292916110e4336110de610eac610ea76000546001600160a01b031690565b1461104a565b6111e3565b634e487b7160e01b600052601160045260246000fd5b600019811461110e5760010190565b6110e9565b9190820180921161110e57565b905051906102428261022c565b906020828203126102275761025891611120565b6001600160a01b0390911681526040810192916102429160209061031f565b6040513d6000823e3d90fd5b1561022757565b9050519061024282610713565b906020828203126102275761025891611173565b6001600160a01b039182168152911660208201526060810192916102429160400152565b0152565b6001600160a01b0390911681526060810193926102429290916040916111b8906020830152565b91611251601491611239611221866112036111fe82886105f0565b6108d4565b95600096611217611213896108b6565b9190565b14611397576105f0565b6112338661122e836108d4565b611113565b90610ed4565b610ea761124a8561122e600a6108d4565b600a610ed4565b9063dd62ed3e91611261306105e7565b61127461126d60405190565b9460e01b90565b845260208480611288848a60048401611141565b0381855afa918215611365576112ac6020938796869161136a575b5086111561116c565b6112ce846323b872dd6112da6112c160405190565b9889968795869460e01b90565b84528c60048501611194565b03925af19081156113655750611339575b506112f6600a6108d4565b9161132e7f5cdc4ab8d637538ead6cc1904d4160343656c8c82bd266635cfd31ac008fffe09361132560405190565b938493846111bc565b0390a16102426113e3565b6113599060203d811161135e575b61135181836104cb565b810190611180565b6112eb565b503d611347565b611160565b61138a9150853d8111611390575b61138281836104cb565b81019061112d565b386112a3565b503d611378565b6113b36113ac6113a7600b6108d4565b6110ff565b600b610ed4565b6105f0565b906102429291611020565b9060ff90610eca565b906113dc610258610eeb92610ab3565b82546113c3565b6113ed600a6108d4565b6113fd61121361025860086108d4565b106114195761140e6002600e6113cc565b610242426009610ed4565b4261142a61121361025860076108d4565b111561140e5761143c6001600e6113cc565b61140e565b61144a306105e7565b3190565b60206114656114a59261145f600090565b506105e7565b6370a082319061148e611477306105e7565b9261148160405190565b9586948593849360e01b90565b83526001600160a01b031660048301526024820190565b03915afa908115611365576000916114bb575090565b610258915060203d81116113905761138281836104cb565b156114da57565b60405162461bcd60e51b815260206004820152600d60248201527f496e76616c6964207374617465000000000000000000000000000000000000006044820152606490fd5b1561152657565b60405162461bcd60e51b815260206004820152601560248201527f446561646c696e652068617320706173736564202100000000000000000000006044820152606490fd5b61025890611596600161159061158a611584600e6108e7565b92610aa9565b91610aa9565b146114d3565b6115b0426115aa61121361025860076108d4565b1061151f565b611627565b156115bc57565b60405162461bcd60e51b815260206004820152602660248201527f596f7520646f6e74206861766520616e7920636f6e747269627574656420616d60448201527f6f756e74202100000000000000000000000000000000000000000000000000006064820152608490fd5b503360146116386111fe83836105f0565b61165060009161164a611213846108b6565b116115b5565b80808080611660610ea7886105e7565b61166d6111fe89896105f0565b9082821561169c575bf115611365576116979261168c611692926108b6565b926105f0565b610ed4565b600190565b506108fc611676565b610258600061156b565b156116b657565b60405162461bcd60e51b815260206004820152603860248201527f596f7520646f6e7420686176652063726561746f722061636365737320746f2060448201527f706572666f726d2074686973206f7065726174696f6e202100000000000000006064820152608490fd5b906102429493929161174b33611745610eac610ea76004546001600160a01b031690565b146116af565b9061024294939291611768600261159061158a611584600e6108e7565b61177c426115aa61121361025860076108d4565b6119b4565b91906008610eca910291611796600019841b90565b921b90565b91906117ac610258610eeb936108b6565b908354611781565b6102429160009161179b565b8181106117cb575050565b806117d960006001936117b4565b016117c0565b9190601f81116117ee57505050565b61180061024293600052602060002090565b906020601f840181900483019310611822575b6020601f9091010401906117c0565b9091508190611813565b90611835815190565b9067ffffffffffffffff82116104ed576118598261185385546103fd565b856117df565b602090601f831160011461189457610eeb929160009183611889575b5050600019600883021c1916906002021790565b015190503880611875565b601f198316916118a985600052602060002090565b9260005b8181106118e7575091600293918560019694106118ce575b50505002019055565b01516000196008601f8516021c191690553880806118c5565b919360206001819287870151815501950192016118ad565b906102429161182c565b906113dc610258610eeb92151590565b9074ffffffffffffffffffffffffffffffffffffffff009060081b610eca565b90611949610258610eeb926105e7565b8254611919565b6102b6906108b6565b6102b6906105e7565b92979694610316906119a360c09661030861199b6102429b966119ad9861198e60e08c019260008d0152565b8a820360208c015261027e565b9c6040890152565b6080850190611950565b0190611959565b92906005611a54929593956119cd6102588660156108c3565b906119d887836118ff565b6119e58860018401610ed4565b6119f28160028401610ed4565b611a20846000948594611a10611a07876108b6565b60038301610ed4565b01611a1b8582611909565b611939565b7f3009567e0613f3581563a052fea56298aca1363831103cf6f1cbb8bf5ae122f397611a4b60405190565b97889788611962565b0390a1565b9061024294939291611721565b15611a6d57565b60405162461bcd60e51b815260206004820152601b60248201527f4f6e6c7920636f6e7472696275746f722063616e20766f7465202100000000006044820152606490fd5b15611ab957565b60405162461bcd60e51b815260206004820152601360248201527f596f7520616c726561647920766f7465642021000000000000000000000000006044820152606490fd5b6001600160a01b0390911681526040810192916102429160200152565b3390611bb8906111fe611bb26003611ba686611ba1611b62610258611b42888560146105f0565b98611b5b60009a611b556112138d6108b6565b11611a66565b60156108c3565b96611b8f6004890191611b89611039611b83611b7e88876105f0565b6108e7565b92151590565b14611ab2565b611b9c60019384926105f0565b611909565b6108b6565b93019261122e846108d4565b82610ed4565b7fa2925e4595bf873fa82c22a1a89809777347023bf2b502d32710157a5eb8199c91611a54611be660405190565b92839283611afe565b906102429291611c1133611745610eac610ea76004546001600160a01b031690565b906102429291611c2c600261159061158a611584600e6108e7565b611c40426115aa61121361025860076108d4565b611e82565b15611c4c57565b60405162461bcd60e51b815260206004820152601960248201527f5265717565737420616c726561647920636f6d706c65746564000000000000006044820152606490fd5b634e487b7160e01b600052601260045260246000fd5b8115611cb1570490565b611c91565b15611cbd57565b60405162461bcd60e51b815260206004820152603660248201527f4174206c656173742032302520636f6e7472696275746f72206e65656420746f60448201527f20766f746520666f7220746869732072657175657374000000000000000000006064820152608490fd5b15611d2f57565b60405162461bcd60e51b815260206004820152603e60248201527f50726f6a65637420636f6e747261637420646f6573206e6f742068617665206560448201527f6e6f75676820555344542062616c616e636520746f20646973627572736500006064820152608490fd5b15611da157565b60405162461bcd60e51b815260206004820152603e60248201527f50726f6a65637420636f6e747261637420646f6573206e6f742068617665206560448201527f6e6f75676820555344432062616c616e636520746f20646973627572736500006064820152608490fd5b8181029291811591840414171561110e57565b6001600160a01b0390911681526060810193926102429290916040916111b8906020830190611959565b929796946103169061030f60c09661030861199b6102429b966119ad98611e7560e08c019260008d0152565b8a820360208c0152610427565b919091611e936102588260156108c3565b91611eb3611ea3600585016108e7565b611ead6000611039565b14611c45565b611ebf600384016108d4565b90611ef0611ecd600b6108d4565b92611ee9611213610258600596611ee3886108b6565b90611ca7565b1015611cb6565b611f05611eff600186016108d4565b956105e7565b916370a08231611f14306105e7565b96611f1e60405190565b90611f298360e01b90565b82526001600160a01b0389166004830152602082602481895afa801561136557611213611f5f91611f66946000916114bb575090565b1115611d28565b611f7b611f75600288016108d4565b936105e7565b92611f8f611f8860405190565b9260e01b90565b82526001600160a01b0388166004830152602082602481875afa801561136557611213611fc591611fcc946000916114bb575090565b1115611d9a565b84019461202d6020611fdd886108fd565b612009611ff9611fef60018b016108d4565b611ee360326108b6565b61200360316108b6565b90611e0c565b9061201360405190565b93849283926323b872dd60e01b5b84528760048501611e1f565b03816000885af18015611365576123a9575b50612060602061204e886108fd565b612009611ff9611fef60028b016108d4565b03816000875af180156113655761238d575b504261208461121361025860036108d4565b116122e4576120d69260206120a16001546001600160a01b031690565b6120ba6120b060018a016108d4565b611ee360646108b6565b906120c460405190565b96879283926323b872dd60e01b612021565b03816000855af190811561136557612139946020926122c9575b506002546001600160a01b03169061210d6120b060018a016108d4565b91600061211960405190565b80988195829461212d6323b872dd60e01b90565b84528960048501611e1f565b03925af192831561136557612194936122ad575b5060206121626001546001600160a01b031690565b6121716120b0600289016108d4565b9061217b60405190565b95869283926323b872dd60e01b84528660048501611e1f565b03816000865af1918215611365576121f093602093612292575b506002546001600160a01b031660006121cc6120b060028a016108d4565b936121d660405190565b968795869485936323b872dd60e01b855260048501611e1f565b03925af1801561136557612276575b505b611a546001926122118486611909565b60008101938082019561224161223b600361223461222e8b6108d4565b9a6108d4565b95016108d4565b916108fd565b927f7a5218350187d3ab901ae3c2001a4348ce5a2089ac30ce35d2fc55b53feac2a59761226d60405190565b97889788611e49565b61228d9060203d811161135e5761135181836104cb565b6121ff565b6122a890843d811161135e5761135181836104cb565b6121ae565b6122c49060203d811161135e5761135181836104cb565b61214d565b6122df90833d811161135e5761135181836104cb565b6120f0565b602061230c936122fc6001546001600160a01b031690565b9061210d611fef60018a016108d4565b03925af19182156113655761234193602093612372575b506001546001600160a01b031660006121cc611fef60028a016108d4565b03925af1801561136557612356575b50612201565b61236d9060203d811161135e5761135181836104cb565b612350565b61238890843d811161135e5761135181836104cb565b612323565b6123a49060203d811161135e5761135181836104cb565b612072565b6123c09060203d811161135e5761135181836104cb565b61203f565b906102429291611bef565b610258906104f2565b6004546001600160a01b0316906123f060076108d4565b906123fb60086108d4565b9161240660096108d4565b92612411600a6108d4565b9261241c600c6123d0565b94612427600d6123d0565b94612432600e6108e7565b9661243c306105e7565b3196612448600f6123d0565b9861245360106123d0565b9861245e60116123d0565b9a61246960126123d0565b9a61247c6005546001600160a01b031690565b9c61248f6006546001600160a01b031690565b9c61249a600b6108d4565b9a565b6102586124b4916124ac606090565b5060156108c3565b906124bf600b6108d4565b906124c9836123d0565b926124d6600182016108d4565b926124e3600283016108d4565b9260056124f2600385016108d4565b930190610258612501836108e7565b926108fd56fea26469706673582212206dfc673c5602b7f8f01a684dbf2faa8dd2239c8ba71d24c1c31840e3d25c347e64736f6c63430008120033","opcodes":"PUSH1 0x80 PUSH1 0x40 MSTORE CALLVALUE PUSH3 0x43 JUMPI PUSH3 0x31 PUSH3 0x18 PUSH3 0x2E7 JUMP JUMPDEST SWAP13 SWAP12 SWAP1 SWAP12 SWAP11 SWAP2 SWAP11 SWAP10 SWAP3 SWAP10 SWAP9 SWAP4 SWAP9 SWAP8 SWAP5 SWAP8 SWAP7 SWAP6 SWAP7 PUSH3 0x6FF JUMP JUMPDEST PUSH1 0x40 MLOAD PUSH2 0x253D PUSH3 0xC64 DUP3 CODECOPY PUSH2 0x253D SWAP1 RETURN JUMPDEST PUSH1 0x0 DUP1 REVERT JUMPDEST PUSH4 0x4E487B71 PUSH1 0xE0 SHL PUSH1 0x0 MSTORE PUSH1 0x41 PUSH1 0x4 MSTORE PUSH1 0x24 PUSH1 0x0 REVERT JUMPDEST SWAP1 PUSH1 0x1F ADD PUSH1 0x1F NOT AND DUP2 ADD SWAP1 DUP2 LT PUSH1 0x1 PUSH1 0x1 PUSH1 0x40 SHL SUB DUP3 GT OR PUSH3 0x80 JUMPI PUSH1 0x40 MSTORE JUMP JUMPDEST PUSH3 0x48 JUMP JUMPDEST SWAP1 PUSH3 0x9D PUSH3 0x95 PUSH1 0x40 MLOAD SWAP1 JUMP JUMPDEST SWAP3 DUP4 PUSH3 0x5E JUMP JUMPDEST JUMP JUMPDEST PUSH1 0x1 PUSH1 0x1 PUSH1 0xA0 SHL SUB AND SWAP1 JUMP JUMPDEST SWAP1 JUMP JUMPDEST PUSH1 0x1 PUSH1 0x1 PUSH1 0xA0 SHL SUB DUP2 AND JUMPDEST SUB PUSH3 0x43 JUMPI JUMP JUMPDEST SWAP1 POP MLOAD SWAP1 PUSH3 0x9D DUP3 PUSH3 0xAE JUMP JUMPDEST DUP1 PUSH3 0xB9 JUMP JUMPDEST SWAP1 POP MLOAD SWAP1 PUSH3 0x9D DUP3 PUSH3 0xD0 JUMP JUMPDEST PUSH1 0x1 PUSH1 0x1 PUSH1 0x40 SHL SUB DUP2 GT PUSH3 0x80 JUMPI PUSH1 0x20 SWAP1 PUSH1 0x1F ADD PUSH1 0x1F NOT AND ADD SWAP1 JUMP JUMPDEST ADD SWAP1 JUMP JUMPDEST PUSH1 0x0 JUMPDEST DUP4 DUP2 LT PUSH3 0x11B JUMPI POP POP PUSH1 0x0 SWAP2 ADD MSTORE JUMP JUMPDEST DUP2 DUP2 ADD MLOAD DUP4 DUP3 ADD MSTORE PUSH1 0x20 ADD PUSH3 0x10A JUMP JUMPDEST SWAP1 SWAP3 SWAP2 SWAP3 PUSH3 0x145 PUSH3 0x13F DUP3 PUSH3 0xE6 JUMP JUMPDEST PUSH3 0x86 JUMP JUMPDEST SWAP4 DUP2 DUP6 MSTORE PUSH1 0x20 DUP6 ADD SWAP1 DUP3 DUP5 ADD GT PUSH3 0x43 JUMPI PUSH3 0x9D SWAP3 PUSH3 0x107 JUMP JUMPDEST SWAP1 DUP1 PUSH1 0x1F DUP4 ADD SLT ISZERO PUSH3 0x43 JUMPI DUP2 MLOAD PUSH3 0xAB SWAP3 PUSH1 0x20 ADD PUSH3 0x12C JUMP JUMPDEST SWAP2 SWAP1 SWAP2 PUSH2 0x1C0 DUP2 DUP5 SUB SLT PUSH3 0x43 JUMPI PUSH3 0x19A DUP4 DUP3 PUSH3 0xC1 JUMP JUMPDEST SWAP3 PUSH3 0x1AA DUP2 PUSH1 0x20 DUP5 ADD PUSH3 0xC1 JUMP JUMPDEST SWAP3 PUSH1 0x40 SWAP1 PUSH3 0x1BC DUP4 DUP4 DUP7 ADD PUSH3 0xC1 JUMP JUMPDEST SWAP4 PUSH3 0x1CC DUP5 PUSH1 0x60 DUP4 ADD PUSH3 0xC1 JUMP JUMPDEST SWAP4 PUSH3 0x1DC DUP2 PUSH1 0x80 DUP5 ADD PUSH3 0xC1 JUMP JUMPDEST SWAP4 PUSH3 0x1EC DUP3 PUSH1 0xA0 DUP6 ADD PUSH3 0xD7 JUMP JUMPDEST SWAP4 PUSH3 0x1FC DUP4 PUSH1 0xC0 DUP7 ADD PUSH3 0xD7 JUMP JUMPDEST SWAP4 PUSH1 0xE0 DUP2 ADD MLOAD PUSH1 0x1 DUP1 DUP6 SHL SUB DUP2 GT PUSH3 0x43 JUMPI DUP5 PUSH3 0x21D SWAP2 DUP4 ADD PUSH3 0x162 JUMP JUMPDEST SWAP4 PUSH2 0x100 DUP3 ADD MLOAD PUSH1 0x1 DUP1 DUP7 SHL SUB DUP2 GT PUSH3 0x43 JUMPI DUP2 PUSH3 0x23F SWAP2 DUP5 ADD PUSH3 0x162 JUMP JUMPDEST SWAP4 PUSH2 0x120 DUP4 ADD MLOAD PUSH1 0x1 DUP1 DUP4 SHL SUB DUP2 GT PUSH3 0x43 JUMPI DUP3 PUSH3 0x261 SWAP2 DUP6 ADD PUSH3 0x162 JUMP JUMPDEST SWAP4 PUSH2 0x140 DUP5 ADD MLOAD PUSH1 0x1 DUP1 DUP5 SHL SUB DUP2 GT PUSH3 0x43 JUMPI DUP4 PUSH3 0x283 SWAP2 DUP7 ADD PUSH3 0x162 JUMP JUMPDEST SWAP4 PUSH2 0x160 DUP2 ADD MLOAD PUSH1 0x1 DUP1 DUP6 SHL SUB DUP2 GT PUSH3 0x43 JUMPI DUP5 PUSH3 0x2A5 SWAP2 DUP4 ADD PUSH3 0x162 JUMP JUMPDEST SWAP4 PUSH2 0x180 DUP3 ADD MLOAD PUSH1 0x1 DUP1 DUP7 SHL SUB DUP2 GT PUSH3 0x43 JUMPI DUP2 PUSH3 0x2C7 SWAP2 DUP5 ADD PUSH3 0x162 JUMP JUMPDEST SWAP4 PUSH1 0x1 DUP1 PUSH2 0x1A0 DUP6 ADD MLOAD SWAP3 SHL SUB DUP2 GT PUSH3 0x43 JUMPI PUSH3 0xAB SWAP3 ADD PUSH3 0x162 JUMP JUMPDEST PUSH3 0x30A PUSH3 0x31A1 DUP1 CODESIZE SUB DUP1 PUSH3 0x2FE DUP2 PUSH3 0x86 JUMP JUMPDEST SWAP3 DUP4 CODECOPY DUP2 ADD SWAP1 PUSH3 0x17F JUMP JUMPDEST SWAP1 SWAP2 SWAP3 SWAP4 SWAP5 SWAP6 SWAP7 SWAP8 SWAP9 SWAP10 SWAP11 SWAP12 SWAP13 SWAP14 JUMP JUMPDEST PUSH3 0xAB SWAP1 PUSH3 0x9F SWAP1 PUSH1 0x1 PUSH1 0x1 PUSH1 0xA0 SHL SUB AND DUP3 JUMP JUMPDEST PUSH3 0xAB SWAP1 PUSH3 0x31A JUMP JUMPDEST PUSH3 0xAB SWAP1 PUSH3 0x330 JUMP JUMPDEST SWAP1 PUSH1 0x1 PUSH1 0x1 PUSH1 0xA0 SHL SUB SWAP1 JUMPDEST SWAP2 DUP2 NOT AND SWAP2 AND OR SWAP1 JUMP JUMPDEST SWAP1 PUSH3 0x36F PUSH3 0xAB PUSH3 0x377 SWAP3 PUSH3 0x33B JUMP JUMPDEST DUP3 SLOAD PUSH3 0x346 JUMP JUMPDEST SWAP1 SSTORE JUMP JUMPDEST SWAP1 PUSH1 0x0 NOT SWAP1 PUSH3 0x351 JUMP JUMPDEST PUSH3 0xAB PUSH3 0xAB PUSH3 0xAB SWAP3 SWAP1 JUMP JUMPDEST SWAP1 PUSH3 0x3AA PUSH3 0xAB PUSH3 0x377 SWAP3 PUSH3 0x386 JUMP JUMPDEST DUP3 SLOAD PUSH3 0x37B JUMP JUMPDEST SWAP1 PUSH1 0xFF SWAP1 PUSH3 0x351 JUMP JUMPDEST PUSH4 0x4E487B71 PUSH1 0xE0 SHL PUSH1 0x0 MSTORE PUSH1 0x21 PUSH1 0x4 MSTORE PUSH1 0x24 PUSH1 0x0 REVERT JUMPDEST PUSH1 0x3 GT ISZERO PUSH3 0x3DD JUMPI JUMP JUMPDEST PUSH3 0x3BC JUMP JUMPDEST SWAP1 PUSH3 0x9D DUP3 PUSH3 0x3D2 JUMP JUMPDEST PUSH3 0xAB SWAP1 PUSH3 0x3E3 JUMP JUMPDEST SWAP1 PUSH3 0x40E PUSH3 0xAB PUSH3 0x377 SWAP3 PUSH3 0x3EF JUMP JUMPDEST DUP3 SLOAD PUSH3 0x3B2 JUMP JUMPDEST SWAP1 PUSH2 0xFF00 SWAP1 PUSH1 0x8 SHL PUSH3 0x351 JUMP JUMPDEST SWAP1 PUSH3 0x437 PUSH3 0xAB PUSH3 0x377 SWAP3 ISZERO ISZERO SWAP1 JUMP JUMPDEST DUP3 SLOAD PUSH3 0x416 JUMP JUMPDEST SWAP1 PUSH3 0xFF0000 SWAP1 PUSH1 0x10 SHL PUSH3 0x351 JUMP JUMPDEST SWAP1 PUSH3 0x461 PUSH3 0xAB PUSH3 0x377 SWAP3 ISZERO ISZERO SWAP1 JUMP JUMPDEST DUP3 SLOAD PUSH3 0x43F JUMP JUMPDEST PUSH4 0x4E487B71 PUSH1 0xE0 SHL PUSH1 0x0 MSTORE PUSH1 0x22 PUSH1 0x4 MSTORE PUSH1 0x24 PUSH1 0x0 REVERT JUMPDEST SWAP1 PUSH1 0x1 PUSH1 0x2 DUP4 DIV SWAP3 AND DUP1 ISZERO PUSH3 0x4A2 JUMPI JUMPDEST PUSH1 0x20 DUP4 LT EQ PUSH3 0x49C JUMPI JUMP JUMPDEST PUSH3 0x469 JUMP JUMPDEST SWAP2 PUSH1 0x7F AND SWAP2 PUSH3 0x490 JUMP JUMPDEST SWAP2 PUSH1 0x0 NOT PUSH1 0x8 SWAP3 SWAP1 SWAP3 MUL SWAP2 DUP3 SHL SWAP2 SHL PUSH3 0x351 JUMP JUMPDEST SWAP2 SWAP1 PUSH3 0x4D7 PUSH3 0xAB PUSH3 0x377 SWAP4 PUSH3 0x386 JUMP JUMPDEST SWAP1 DUP4 SLOAD PUSH3 0x4AD JUMP JUMPDEST PUSH3 0x9D SWAP2 PUSH1 0x0 SWAP2 PUSH3 0x4C2 JUMP JUMPDEST DUP2 DUP2 LT PUSH3 0x4FA JUMPI POP POP JUMP JUMPDEST DUP1 PUSH3 0x50A PUSH1 0x0 PUSH1 0x1 SWAP4 PUSH3 0x4E0 JUMP JUMPDEST ADD PUSH3 0x4EE JUMP JUMPDEST SWAP2 SWAP1 PUSH1 0x1F DUP2 GT PUSH3 0x521 JUMPI POP POP POP JUMP JUMPDEST PUSH3 0x535 PUSH3 0x9D SWAP4 PUSH1 0x0 MSTORE PUSH1 0x20 PUSH1 0x0 KECCAK256 SWAP1 JUMP JUMPDEST SWAP1 PUSH1 0x20 PUSH1 0x1F DUP5 ADD DUP2 SWAP1 DIV DUP4 ADD SWAP4 LT PUSH3 0x559 JUMPI JUMPDEST PUSH1 0x20 PUSH1 0x1F SWAP1 SWAP2 ADD DIV ADD SWAP1 PUSH3 0x4EE JUMP JUMPDEST SWAP1 SWAP2 POP DUP2 SWAP1 PUSH3 0x549 JUMP JUMPDEST SWAP1 PUSH3 0x56E DUP2 MLOAD SWAP1 JUMP JUMPDEST SWAP1 PUSH1 0x1 PUSH1 0x1 PUSH1 0x40 SHL SUB DUP3 GT PUSH3 0x80 JUMPI PUSH3 0x596 DUP3 PUSH3 0x58F DUP6 SLOAD PUSH3 0x47F JUMP JUMPDEST DUP6 PUSH3 0x511 JUMP JUMPDEST PUSH1 0x20 SWAP1 PUSH1 0x1F DUP4 GT PUSH1 0x1 EQ PUSH3 0x5D5 JUMPI PUSH3 0x377 SWAP3 SWAP2 PUSH1 0x0 SWAP2 DUP4 PUSH3 0x5C9 JUMPI JUMPDEST POP POP PUSH1 0x0 NOT PUSH1 0x8 DUP4 MUL SHR NOT AND SWAP1 PUSH1 0x2 MUL OR SWAP1 JUMP JUMPDEST ADD MLOAD SWAP1 POP CODESIZE DUP1 PUSH3 0x5B5 JUMP JUMPDEST PUSH1 0x1F NOT DUP4 AND SWAP2 PUSH3 0x5EB DUP6 PUSH1 0x0 MSTORE PUSH1 0x20 PUSH1 0x0 KECCAK256 SWAP1 JUMP JUMPDEST SWAP3 PUSH1 0x0 JUMPDEST DUP2 DUP2 LT PUSH3 0x62C JUMPI POP SWAP2 PUSH1 0x2 SWAP4 SWAP2 DUP6 PUSH1 0x1 SWAP7 SWAP5 LT PUSH3 0x612 JUMPI JUMPDEST POP POP POP MUL ADD SWAP1 SSTORE JUMP JUMPDEST ADD MLOAD PUSH1 0x0 NOT PUSH1 0x8 PUSH1 0x1F DUP6 AND MUL SHR NOT AND SWAP1 SSTORE CODESIZE DUP1 DUP1 PUSH3 0x609 JUMP JUMPDEST SWAP2 SWAP4 PUSH1 0x20 PUSH1 0x1 DUP2 SWAP3 DUP8 DUP8 ADD MLOAD DUP2 SSTORE ADD SWAP6 ADD SWAP3 ADD PUSH3 0x5EF JUMP JUMPDEST SWAP1 PUSH3 0x9D SWAP2 PUSH3 0x564 JUMP JUMPDEST DUP1 ISZERO ISZERO PUSH3 0xB9 JUMP JUMPDEST SWAP1 POP MLOAD SWAP1 PUSH3 0x9D DUP3 PUSH3 0x651 JUMP JUMPDEST SWAP1 PUSH1 0x20 DUP3 DUP3 SUB SLT PUSH3 0x43 JUMPI PUSH3 0xAB SWAP2 PUSH3 0x65A JUMP JUMPDEST SWAP1 MSTORE JUMP JUMPDEST PUSH3 0x680 SWAP1 PUSH3 0x386 JUMP JUMPDEST PUSH1 0x1 PUSH1 0x1 PUSH1 0xA0 SHL SUB SWAP1 SWAP2 AND DUP2 MSTORE PUSH1 0x40 DUP2 ADD SWAP3 SWAP2 PUSH3 0x9D SWAP2 PUSH1 0x20 SWAP1 JUMPDEST ADD SWAP1 PUSH3 0x684 JUMP JUMPDEST PUSH1 0x40 MLOAD RETURNDATASIZE PUSH1 0x0 DUP3 RETURNDATACOPY RETURNDATASIZE SWAP1 REVERT JUMPDEST PUSH3 0xAB SWAP1 PUSH3 0x9F JUMP JUMPDEST PUSH3 0xAB SWAP1 SLOAD PUSH3 0x6BF JUMP JUMPDEST PUSH3 0x680 SWAP1 PUSH3 0x33B JUMP JUMPDEST SWAP2 PUSH1 0x20 PUSH3 0x9D SWAP3 SWAP5 SWAP4 PUSH3 0x6AB PUSH1 0x40 DUP3 ADD SWAP7 PUSH1 0x0 DUP4 ADD SWAP1 PUSH3 0x6D6 JUMP JUMPDEST SWAP11 SWAP6 SWAP1 SWAP10 SWAP5 SWAP13 SWAP7 SWAP2 SWAP12 SWAP8 SWAP3 SWAP9 SWAP4 SWAP9 PUSH20 0x75BF6C63F2941ED31A908B976B5E39954561517B PUSH3 0x72D SWAP1 PUSH3 0x33B JUMP JUMPDEST PUSH3 0x73A SWAP1 PUSH1 0x2 PUSH3 0x35B JUMP JUMPDEST PUSH3 0x74A PUSH3 0xBC614E PUSH1 0x3 PUSH3 0x396 JUMP JUMPDEST PUSH1 0x0 DUP1 SWAP14 PUSH3 0x75B DUP3 PUSH1 0xE PUSH3 0x3FA JUMP JUMPDEST PUSH3 0x768 DUP3 PUSH1 0xE PUSH3 0x424 JUMP JUMPDEST PUSH3 0x775 DUP3 PUSH1 0xE PUSH3 0x44E JUMP JUMPDEST PUSH3 0x782 DUP3 PUSH1 0x16 PUSH3 0x396 JUMP JUMPDEST DUP14 PUSH3 0x78E DUP12 PUSH3 0xBFF JUMP JUMPDEST PUSH3 0x799 SWAP1 PUSH3 0x33B JUMP JUMPDEST PUSH3 0x7A6 SWAP1 PUSH1 0x1 PUSH3 0x35B JUMP JUMPDEST PUSH3 0x7B1 DUP14 PUSH3 0x33B JUMP JUMPDEST PUSH3 0x7BE SWAP1 PUSH1 0x4 PUSH3 0x35B JUMP JUMPDEST PUSH3 0x7C9 SWAP1 PUSH3 0x33B JUMP JUMPDEST PUSH3 0x7D4 SWAP2 PUSH3 0x35B JUMP JUMPDEST PUSH3 0x7DF SWAP1 PUSH3 0x33B JUMP JUMPDEST SWAP9 PUSH3 0x7ED DUP11 PUSH1 0x5 PUSH3 0x35B JUMP JUMPDEST PUSH3 0x7F8 SWAP1 PUSH3 0x33B JUMP JUMPDEST SWAP13 PUSH3 0x806 DUP15 PUSH1 0x6 PUSH3 0x35B JUMP JUMPDEST PUSH3 0x813 SWAP1 PUSH1 0x7 PUSH3 0x396 JUMP JUMPDEST PUSH3 0x820 SWAP1 PUSH1 0x8 PUSH3 0x396 JUMP JUMPDEST PUSH3 0x82D SWAP1 PUSH1 0xC PUSH3 0x645 JUMP JUMPDEST PUSH3 0x83A SWAP1 PUSH1 0xD PUSH3 0x645 JUMP JUMPDEST PUSH3 0x845 DUP10 PUSH3 0x386 JUMP JUMPDEST PUSH3 0x852 SWAP1 PUSH1 0xA PUSH3 0x396 JUMP JUMPDEST PUSH3 0x85F SWAP1 PUSH1 0xF PUSH3 0x645 JUMP JUMPDEST PUSH3 0x86C SWAP1 PUSH1 0x10 PUSH3 0x645 JUMP JUMPDEST PUSH3 0x879 SWAP1 PUSH1 0x11 PUSH3 0x645 JUMP JUMPDEST PUSH3 0x886 SWAP1 PUSH1 0x13 PUSH3 0x645 JUMP JUMPDEST PUSH3 0x893 SWAP1 PUSH1 0x12 PUSH3 0x645 JUMP JUMPDEST PUSH3 0x89E SWAP1 PUSH3 0x33B JUMP JUMPDEST SWAP1 PUSH4 0x95EA7B3 SWAP3 PUSH1 0x1 PUSH1 0x81 SHL SWAP6 PUSH3 0x8B5 PUSH1 0x40 MLOAD SWAP1 JUMP JUMPDEST SWAP1 PUSH3 0x8C1 DUP7 PUSH1 0xE0 SHL SWAP1 JUMP JUMPDEST DUP3 MSTORE DUP5 DUP3 DUP1 PUSH3 0x8D6 DUP12 DUP9 PUSH1 0x4 DUP5 ADD PUSH3 0x68F JUMP JUMPDEST SUB DUP2 DUP11 GAS SWAP5 PUSH1 0x20 SWAP6 CALL SWAP2 DUP3 ISZERO PUSH3 0xAC9 JUMPI PUSH3 0x902 PUSH1 0x20 SWAP3 DUP11 SWAP3 PUSH3 0x929 SWAP6 PUSH3 0xB93 JUMPI JUMPDEST POP PUSH3 0x33B JUMP JUMPDEST SWAP5 PUSH3 0x90D PUSH1 0x40 MLOAD SWAP1 JUMP JUMPDEST SWAP4 DUP5 SWAP3 DUP4 SWAP3 PUSH3 0x91D DUP12 PUSH1 0xE0 SHL SWAP1 JUMP JUMPDEST DUP5 MSTORE PUSH1 0x4 DUP5 ADD PUSH3 0x68F JUMP JUMPDEST SUB DUP2 DUP10 DUP8 GAS CALL DUP1 ISZERO PUSH3 0xAC9 JUMPI PUSH3 0xB72 JUMPI JUMPDEST POP PUSH1 0x40 MLOAD PUSH3 0x94B DUP6 PUSH1 0xE0 SHL SWAP1 JUMP JUMPDEST DUP2 MSTORE PUSH1 0x20 DUP2 DUP1 PUSH3 0x961 DUP11 DUP7 PUSH1 0x4 DUP5 ADD PUSH3 0x68F JUMP JUMPDEST SUB DUP2 DUP10 DUP9 GAS CALL DUP1 ISZERO PUSH3 0xAC9 JUMPI PUSH3 0x992 SWAP3 PUSH1 0x20 SWAP3 DUP10 SWAP3 PUSH3 0xB52 JUMPI JUMPDEST POP PUSH1 0x40 MLOAD SWAP4 DUP5 SWAP3 DUP4 SWAP3 PUSH3 0x91D DUP11 PUSH1 0xE0 SHL SWAP1 JUMP JUMPDEST SUB DUP2 DUP9 DUP7 GAS CALL DUP1 ISZERO PUSH3 0xAC9 JUMPI PUSH3 0xB31 JUMPI JUMPDEST POP PUSH3 0x9D8 PUSH1 0x20 DUP7 PUSH3 0x9B9 PUSH1 0x2 PUSH3 0x6CA JUMP JUMPDEST PUSH1 0x40 MLOAD SWAP4 DUP5 SWAP3 DUP4 SWAP3 PUSH3 0x9CC DUP11 PUSH1 0xE0 SHL SWAP1 JUMP JUMPDEST DUP5 MSTORE PUSH1 0x4 DUP5 ADD PUSH3 0x6E1 JUMP JUMPDEST SUB DUP2 DUP9 DUP8 GAS CALL DUP1 ISZERO PUSH3 0xAC9 JUMPI PUSH3 0xB10 JUMPI JUMPDEST POP PUSH3 0x9FF PUSH1 0x20 DUP7 PUSH3 0x9B9 PUSH1 0x2 PUSH3 0x6CA JUMP JUMPDEST SUB DUP2 DUP9 DUP7 GAS CALL DUP1 ISZERO PUSH3 0xAC9 JUMPI PUSH3 0xAEF JUMPI JUMPDEST POP PUSH3 0xA1E ADDRESS PUSH3 0x33B JUMP JUMPDEST SWAP2 PUSH1 0x20 PUSH3 0xA2B PUSH1 0x40 MLOAD SWAP1 JUMP JUMPDEST DUP1 SWAP3 PUSH3 0xA38 DUP8 PUSH1 0xE0 SHL SWAP1 JUMP JUMPDEST DUP3 MSTORE DUP2 DUP9 DUP2 PUSH3 0xA4D DUP13 DUP11 PUSH1 0x4 DUP5 ADD PUSH3 0x68F JUMP JUMPDEST SUB SWAP3 GAS CALL DUP1 ISZERO PUSH3 0xAC9 JUMPI PUSH1 0x20 SWAP5 PUSH3 0x91D SWAP3 DUP8 SWAP3 PUSH3 0xACF JUMPI JUMPDEST POP PUSH3 0xA84 PUSH3 0xA77 PUSH1 0x40 MLOAD SWAP1 JUMP JUMPDEST SWAP9 DUP10 SWAP7 DUP8 SWAP6 DUP7 SWAP5 PUSH1 0xE0 SHL SWAP1 JUMP JUMPDEST SUB SWAP3 GAS CALL SWAP1 DUP2 ISZERO PUSH3 0xAC9 JUMPI POP PUSH3 0xA99 JUMPI POP JUMP JUMPDEST PUSH3 0xABE SWAP1 PUSH1 0x20 RETURNDATASIZE DUP2 GT PUSH3 0xAC1 JUMPI JUMPDEST PUSH3 0xAB5 DUP2 DUP4 PUSH3 0x5E JUMP JUMPDEST DUP2 ADD SWAP1 PUSH3 0x669 JUMP JUMPDEST POP JUMP JUMPDEST POP RETURNDATASIZE PUSH3 0xAA9 JUMP JUMPDEST PUSH3 0x6B3 JUMP JUMPDEST PUSH3 0xAE9 SWAP1 DUP8 RETURNDATASIZE DUP2 GT PUSH3 0xAC1 JUMPI PUSH3 0xAB5 DUP2 DUP4 PUSH3 0x5E JUMP JUMPDEST PUSH3 0xA68 JUMP JUMPDEST PUSH3 0xB0A SWAP1 PUSH1 0x20 RETURNDATASIZE DUP2 GT PUSH3 0xAC1 JUMPI PUSH3 0xAB5 DUP2 DUP4 PUSH3 0x5E JUMP JUMPDEST PUSH3 0xA12 JUMP JUMPDEST PUSH3 0xB2B SWAP1 PUSH1 0x20 RETURNDATASIZE DUP2 GT PUSH3 0xAC1 JUMPI PUSH3 0xAB5 DUP2 DUP4 PUSH3 0x5E JUMP JUMPDEST PUSH3 0x9EB JUMP JUMPDEST PUSH3 0xB4C SWAP1 PUSH1 0x20 RETURNDATASIZE DUP2 GT PUSH3 0xAC1 JUMPI PUSH3 0xAB5 DUP2 DUP4 PUSH3 0x5E JUMP JUMPDEST PUSH3 0x9A5 JUMP JUMPDEST PUSH3 0xB6C SWAP1 DUP5 RETURNDATASIZE DUP2 GT PUSH3 0xAC1 JUMPI PUSH3 0xAB5 DUP2 DUP4 PUSH3 0x5E JUMP JUMPDEST PUSH3 0x97E JUMP JUMPDEST PUSH3 0xB8D SWAP1 PUSH1 0x20 RETURNDATASIZE DUP2 GT PUSH3 0xAC1 JUMPI PUSH3 0xAB5 DUP2 DUP4 PUSH3 0x5E JUMP JUMPDEST PUSH3 0x93C JUMP JUMPDEST PUSH3 0xBAD SWAP1 DUP6 RETURNDATASIZE DUP2 GT PUSH3 0xAC1 JUMPI PUSH3 0xAB5 DUP2 DUP4 PUSH3 0x5E JUMP JUMPDEST PUSH3 0x8FB JUMP JUMPDEST PUSH3 0xBD8 PUSH3 0xBE2 PUSH1 0x20 SWAP4 PUSH3 0x103 SWAP4 PUSH3 0xBCC DUP2 MLOAD SWAP1 JUMP JUMPDEST DUP1 DUP4 MSTORE SWAP4 DUP5 SWAP3 PUSH1 0x20 ADD SWAP1 JUMP JUMPDEST SWAP6 DUP7 SWAP2 ADD PUSH3 0x107 JUMP JUMPDEST PUSH1 0x1F ADD PUSH1 0x1F NOT AND SWAP1 JUMP JUMPDEST PUSH1 0x20 DUP1 DUP3 MSTORE PUSH3 0xAB SWAP3 SWAP2 ADD SWAP1 PUSH3 0xBB3 JUMP JUMPDEST PUSH3 0xC30 PUSH3 0xC40 PUSH3 0x9D SWAP3 PUSH3 0xC16 PUSH1 0x40 MLOAD SWAP1 JUMP JUMPDEST PUSH4 0x104C13EB PUSH1 0xE2 SHL PUSH1 0x20 DUP3 ADD MSTORE SWAP3 DUP4 SWAP2 PUSH1 0x24 DUP4 ADD PUSH3 0xBEC JUMP JUMPDEST PUSH1 0x20 DUP3 ADD DUP2 SUB DUP3 MSTORE SUB DUP3 PUSH3 0x5E JUMP JUMPDEST PUSH1 0x0 DUP1 SWAP2 PUSH3 0xC57 PUSH11 0x636F6E736F6C652E6C6F67 SWAP1 JUMP JUMPDEST PUSH1 0x20 DUP3 MLOAD SWAP3 ADD SWAP1 GAS STATICCALL POP JUMP INVALID PUSH1 0xA0 PUSH1 0x40 MSTORE PUSH1 0x4 CALLDATASIZE LT ISZERO PUSH2 0x12 JUMPI PUSH1 0x0 DUP1 REVERT JUMPDEST PUSH1 0x0 CALLDATALOAD PUSH1 0xE0 SHR DUP1 PUSH4 0x203D002 EQ PUSH2 0x222 JUMPI DUP1 PUSH4 0x2D05D3F EQ PUSH2 0x21D JUMPI DUP1 PUSH4 0x3C29D58 EQ PUSH2 0x218 JUMPI DUP1 PUSH4 0x7D94E4A EQ PUSH2 0x213 JUMPI DUP1 PUSH4 0xA771370 EQ PUSH2 0x20E JUMPI DUP1 PUSH4 0xADD6B73 EQ PUSH2 0x209 JUMPI DUP1 PUSH4 0x18AA9F1E EQ PUSH2 0x204 JUMPI DUP1 PUSH4 0x24274EE9 EQ PUSH2 0x1FF JUMPI DUP1 PUSH4 0x263A58AA EQ PUSH2 0x1FA JUMPI DUP1 PUSH4 0x28C30C07 EQ PUSH2 0x1F5 JUMPI DUP1 PUSH4 0x29DCB0CF EQ PUSH2 0x1F0 JUMPI DUP1 PUSH4 0x43AB265F EQ PUSH2 0x1EB JUMPI DUP1 PUSH4 0x4C4CEA5A EQ PUSH2 0x1E6 JUMPI DUP1 PUSH4 0x4CBC1553 EQ PUSH2 0x1E1 JUMPI DUP1 PUSH4 0x4E695A37 EQ PUSH2 0x1DC JUMPI DUP1 PUSH4 0x54214F69 EQ PUSH2 0x1D7 JUMPI DUP1 PUSH4 0x5EB32936 EQ PUSH2 0x1D2 JUMPI DUP1 PUSH4 0x80007E83 EQ PUSH2 0x1CD JUMPI DUP1 PUSH4 0x992A7DFB EQ PUSH2 0x1C8 JUMPI DUP1 PUSH4 0xA278A485 EQ PUSH2 0x1C3 JUMPI DUP1 PUSH4 0xABB5CA09 EQ PUSH2 0x1BE JUMPI DUP1 PUSH4 0xB40141BF EQ PUSH2 0x1B9 JUMPI DUP1 PUSH4 0xB82C86D6 EQ PUSH2 0x1B4 JUMPI DUP1 PUSH4 0xC19D93FB EQ PUSH2 0x1AF JUMPI DUP1 PUSH4 0xC3E20C9F EQ PUSH2 0x1AA JUMPI DUP1 PUSH4 0xC59EE1DC EQ PUSH2 0x1A5 JUMPI DUP1 PUSH4 0xCA4B208B EQ PUSH2 0x1A0 JUMPI DUP1 PUSH4 0xD1707551 EQ PUSH2 0x19B JUMPI DUP1 PUSH4 0xD5CEF133 EQ PUSH2 0x196 JUMPI DUP1 PUSH4 0xD688CF53 EQ PUSH2 0x191 JUMPI DUP1 PUSH4 0xD8ABE8BE EQ PUSH2 0x18C JUMPI DUP1 PUSH4 0xE9D1EDDE EQ PUSH2 0x187 JUMPI PUSH4 0xFF3A9C7E SUB PUSH2 0x227 JUMPI PUSH2 0xDC6 JUMP JUMPDEST PUSH2 0xCCD JUMP JUMPDEST PUSH2 0xCB1 JUMP JUMPDEST PUSH2 0xBB3 JUMP JUMPDEST PUSH2 0xB98 JUMP JUMPDEST PUSH2 0xB7D JUMP JUMPDEST PUSH2 0xB56 JUMP JUMPDEST PUSH2 0xB2F JUMP JUMPDEST PUSH2 0xB08 JUMP JUMPDEST PUSH2 0xAD5 JUMP JUMPDEST PUSH2 0xA5D JUMP JUMPDEST PUSH2 0xA36 JUMP JUMPDEST PUSH2 0xA0F JUMP JUMPDEST PUSH2 0x9E8 JUMP JUMPDEST PUSH2 0x9A8 JUMP JUMPDEST PUSH2 0x89B JUMP JUMPDEST PUSH2 0x874 JUMP JUMPDEST PUSH2 0x83B JUMP JUMPDEST PUSH2 0x7FD JUMP JUMPDEST PUSH2 0x7E4 JUMP JUMPDEST PUSH2 0x7A2 JUMP JUMPDEST PUSH2 0x77B JUMP JUMPDEST PUSH2 0x760 JUMP JUMPDEST PUSH2 0x73C JUMP JUMPDEST PUSH2 0x6F8 JUMP JUMPDEST PUSH2 0x6D1 JUMP JUMPDEST PUSH2 0x6AA JUMP JUMPDEST PUSH2 0x680 JUMP JUMPDEST PUSH2 0x635 JUMP JUMPDEST PUSH2 0x56D JUMP JUMPDEST PUSH2 0x546 JUMP JUMPDEST PUSH2 0x39C JUMP JUMPDEST PUSH2 0x32E JUMP JUMPDEST PUSH1 0x0 DUP1 REVERT JUMPDEST DUP1 JUMPDEST SUB PUSH2 0x227 JUMPI JUMP JUMPDEST SWAP1 POP CALLDATALOAD SWAP1 PUSH2 0x242 DUP3 PUSH2 0x22C JUMP JUMPDEST JUMP JUMPDEST SWAP1 PUSH1 0x20 DUP3 DUP3 SUB SLT PUSH2 0x227 JUMPI PUSH2 0x258 SWAP2 PUSH2 0x235 JUMP JUMPDEST SWAP1 JUMP JUMPDEST PUSH1 0x0 JUMPDEST DUP4 DUP2 LT PUSH2 0x26E JUMPI POP POP PUSH1 0x0 SWAP2 ADD MSTORE JUMP JUMPDEST DUP2 DUP2 ADD MLOAD DUP4 DUP3 ADD MSTORE PUSH1 0x20 ADD PUSH2 0x25E JUMP JUMPDEST PUSH2 0x29F PUSH2 0x2A8 PUSH1 0x20 SWAP4 PUSH2 0x2B2 SWAP4 PUSH2 0x293 DUP2 MLOAD SWAP1 JUMP JUMPDEST DUP1 DUP4 MSTORE SWAP4 DUP5 SWAP3 PUSH1 0x20 ADD SWAP1 JUMP JUMPDEST SWAP6 DUP7 SWAP2 ADD PUSH2 0x25B JUMP JUMPDEST PUSH1 0x1F ADD PUSH1 0x1F NOT AND SWAP1 JUMP JUMPDEST ADD SWAP1 JUMP JUMPDEST SWAP1 MSTORE JUMP JUMPDEST PUSH1 0x1 PUSH1 0x1 PUSH1 0xA0 SHL SUB AND SWAP1 JUMP JUMPDEST SWAP3 PUSH2 0x31F SWAP3 SWAP9 SWAP8 SWAP6 PUSH2 0x30F PUSH1 0xC0 SWAP7 PUSH2 0x308 PUSH2 0x316 SWAP5 PUSH2 0x301 PUSH2 0x2F9 PUSH2 0x242 SWAP14 SWAP9 PUSH1 0xE0 DUP13 ADD SWAP1 DUP13 PUSH1 0x0 DUP2 DUP5 SUB SWAP2 ADD MSTORE PUSH2 0x27E JUMP JUMPDEST SWAP15 PUSH1 0x20 DUP12 ADD MSTORE JUMP JUMPDEST PUSH1 0x40 DUP10 ADD MSTORE JUMP JUMPDEST PUSH1 0x60 DUP8 ADD MSTORE JUMP JUMPDEST PUSH1 0x80 DUP6 ADD MSTORE JUMP JUMPDEST ISZERO ISZERO PUSH1 0xA0 DUP4 ADD MSTORE JUMP JUMPDEST ADD SWAP1 PUSH1 0x1 PUSH1 0x1 PUSH1 0xA0 SHL SUB AND SWAP1 MSTORE JUMP JUMPDEST CALLVALUE PUSH2 0x227 JUMPI PUSH2 0x362 PUSH2 0x349 PUSH2 0x344 CALLDATASIZE PUSH1 0x4 PUSH2 0x244 JUMP JUMPDEST PUSH2 0x249D JUMP JUMPDEST SWAP4 PUSH2 0x359 SWAP8 SWAP6 SWAP8 SWAP4 SWAP2 SWAP4 PUSH1 0x40 MLOAD SWAP1 JUMP JUMPDEST SWAP8 DUP9 SWAP8 DUP9 PUSH2 0x2C6 JUMP JUMPDEST SUB SWAP1 RETURN JUMPDEST PUSH1 0x0 SWAP2 SUB SLT PUSH2 0x227 JUMPI JUMP JUMPDEST PUSH2 0x258 SWAP2 PUSH1 0x8 MUL SHR PUSH1 0x1 PUSH1 0x1 PUSH1 0xA0 SHL SUB AND SWAP1 JUMP JUMPDEST SWAP1 PUSH2 0x258 SWAP2 SLOAD PUSH2 0x371 JUMP JUMPDEST PUSH2 0x258 PUSH1 0x0 PUSH1 0x4 PUSH2 0x385 JUMP JUMPDEST CALLVALUE PUSH2 0x227 JUMPI PUSH2 0x3AC CALLDATASIZE PUSH1 0x4 PUSH2 0x366 JUMP JUMPDEST PUSH2 0x362 PUSH2 0x3B7 PUSH2 0x390 JUMP JUMPDEST PUSH1 0x40 MLOAD SWAP2 DUP3 SWAP2 DUP3 PUSH1 0x1 PUSH1 0x1 PUSH1 0xA0 SHL SUB SWAP1 SWAP2 AND DUP2 MSTORE PUSH1 0x20 ADD SWAP1 JUMP JUMPDEST PUSH4 0x4E487B71 PUSH1 0xE0 SHL PUSH1 0x0 MSTORE PUSH1 0x0 PUSH1 0x4 MSTORE PUSH1 0x24 PUSH1 0x0 REVERT JUMPDEST PUSH4 0x4E487B71 PUSH1 0xE0 SHL PUSH1 0x0 MSTORE PUSH1 0x22 PUSH1 0x4 MSTORE PUSH1 0x24 PUSH1 0x0 REVERT JUMPDEST SWAP1 PUSH1 0x1 PUSH1 0x2 DUP4 DIV SWAP3 AND DUP1 ISZERO PUSH2 0x41D JUMPI JUMPDEST PUSH1 0x20 DUP4 LT EQ PUSH2 0x418 JUMPI JUMP JUMPDEST PUSH2 0x3E7 JUMP JUMPDEST SWAP2 PUSH1 0x7F AND SWAP2 PUSH2 0x40D JUMP JUMPDEST DUP1 SLOAD PUSH1 0x0 SWAP4 SWAP3 SWAP2 PUSH2 0x444 PUSH2 0x43A DUP4 PUSH2 0x3FD JUMP JUMPDEST DUP1 DUP6 MSTORE SWAP4 PUSH1 0x20 ADD SWAP1 JUMP JUMPDEST SWAP2 PUSH1 0x1 DUP2 AND SWAP1 DUP2 ISZERO PUSH2 0x496 JUMPI POP PUSH1 0x1 EQ PUSH2 0x45D JUMPI POP POP POP JUMP JUMPDEST PUSH2 0x470 SWAP2 SWAP3 SWAP4 SWAP5 POP PUSH1 0x0 MSTORE PUSH1 0x20 PUSH1 0x0 KECCAK256 SWAP1 JUMP JUMPDEST SWAP2 PUSH1 0x0 SWAP3 JUMPDEST DUP2 DUP5 LT PUSH2 0x482 JUMPI POP POP ADD SWAP1 JUMP JUMPDEST DUP1 SLOAD DUP5 DUP5 ADD MSTORE PUSH1 0x20 SWAP1 SWAP4 ADD SWAP3 PUSH1 0x1 ADD PUSH2 0x475 JUMP JUMPDEST SWAP3 SWAP5 SWAP6 POP POP POP PUSH1 0xFF NOT AND DUP3 MSTORE ISZERO ISZERO PUSH1 0x20 MUL ADD SWAP1 JUMP JUMPDEST SWAP1 PUSH2 0x258 SWAP2 PUSH2 0x427 JUMP JUMPDEST PUSH4 0x4E487B71 PUSH1 0xE0 SHL PUSH1 0x0 MSTORE PUSH1 0x41 PUSH1 0x4 MSTORE PUSH1 0x24 PUSH1 0x0 REVERT JUMPDEST SWAP1 PUSH1 0x1F ADD PUSH1 0x1F NOT AND DUP2 ADD SWAP1 DUP2 LT PUSH8 0xFFFFFFFFFFFFFFFF DUP3 GT OR PUSH2 0x4ED JUMPI PUSH1 0x40 MSTORE JUMP JUMPDEST PUSH2 0x4B5 JUMP JUMPDEST SWAP1 PUSH2 0x242 PUSH2 0x50C SWAP3 PUSH2 0x503 PUSH1 0x40 MLOAD SWAP1 JUMP JUMPDEST SWAP4 DUP5 DUP1 SWAP3 PUSH2 0x4AB JUMP JUMPDEST SUB DUP4 PUSH2 0x4CB JUMP JUMPDEST SWAP1 PUSH1 0x0 LT PUSH2 0x524 JUMPI PUSH2 0x258 SWAP1 PUSH2 0x4F2 JUMP JUMPDEST PUSH2 0x3D1 JUMP JUMPDEST PUSH2 0x258 PUSH1 0x0 PUSH1 0xD PUSH2 0x513 JUMP JUMPDEST PUSH1 0x20 DUP1 DUP3 MSTORE PUSH2 0x258 SWAP3 SWAP2 ADD SWAP1 PUSH2 0x27E JUMP JUMPDEST CALLVALUE PUSH2 0x227 JUMPI PUSH2 0x556 CALLDATASIZE PUSH1 0x4 PUSH2 0x366 JUMP JUMPDEST PUSH2 0x362 PUSH2 0x561 PUSH2 0x529 JUMP JUMPDEST PUSH1 0x40 MLOAD SWAP2 DUP3 SWAP2 DUP3 PUSH2 0x535 JUMP JUMPDEST CALLVALUE PUSH2 0x227 JUMPI PUSH2 0x57D CALLDATASIZE PUSH1 0x4 PUSH2 0x366 JUMP JUMPDEST PUSH2 0x362 PUSH2 0x588 PUSH2 0x1441 JUMP JUMPDEST PUSH1 0x40 MLOAD SWAP2 DUP3 SWAP2 DUP3 SWAP1 DUP2 MSTORE PUSH1 0x20 ADD SWAP1 JUMP JUMPDEST PUSH1 0x1 PUSH1 0x1 PUSH1 0xA0 SHL SUB DUP2 AND PUSH2 0x22E JUMP JUMPDEST SWAP1 POP CALLDATALOAD SWAP1 PUSH2 0x242 DUP3 PUSH2 0x598 JUMP JUMPDEST SWAP1 PUSH1 0x20 DUP3 DUP3 SUB SLT PUSH2 0x227 JUMPI PUSH2 0x258 SWAP2 PUSH2 0x5A7 JUMP JUMPDEST PUSH2 0x2BA PUSH2 0x258 PUSH2 0x258 SWAP3 PUSH1 0x1 PUSH1 0x1 PUSH1 0xA0 SHL SUB AND SWAP1 JUMP JUMPDEST PUSH2 0x258 SWAP1 PUSH2 0x5C8 JUMP JUMPDEST PUSH2 0x258 SWAP1 PUSH2 0x5DE JUMP JUMPDEST SWAP1 PUSH2 0x5FA SWAP1 PUSH2 0x5E7 JUMP JUMPDEST PUSH1 0x0 MSTORE PUSH1 0x20 MSTORE PUSH1 0x40 PUSH1 0x0 KECCAK256 SWAP1 JUMP JUMPDEST PUSH2 0x258 SWAP2 PUSH1 0x8 MUL SHR DUP2 JUMP JUMPDEST SWAP1 PUSH2 0x258 SWAP2 SLOAD PUSH2 0x608 JUMP JUMPDEST PUSH2 0x258 SWAP1 PUSH2 0x630 PUSH1 0x14 SWAP2 PUSH1 0x0 SWAP3 PUSH2 0x5F0 JUMP JUMPDEST PUSH2 0x613 JUMP JUMPDEST CALLVALUE PUSH2 0x227 JUMPI PUSH2 0x362 PUSH2 0x588 PUSH2 0x64B CALLDATASIZE PUSH1 0x4 PUSH2 0x5B4 JUMP JUMPDEST PUSH2 0x61E JUMP JUMPDEST SWAP1 SWAP2 PUSH1 0x60 DUP3 DUP5 SUB SLT PUSH2 0x227 JUMPI PUSH2 0x258 PUSH2 0x669 DUP5 DUP5 PUSH2 0x235 JUMP JUMPDEST SWAP4 PUSH2 0x677 DUP2 PUSH1 0x20 DUP7 ADD PUSH2 0x5A7 JUMP JUMPDEST SWAP4 PUSH1 0x40 ADD PUSH2 0x5A7 JUMP JUMPDEST CALLVALUE PUSH2 0x227 JUMPI PUSH2 0x699 PUSH2 0x693 CALLDATASIZE PUSH1 0x4 PUSH2 0x650 JUMP JUMPDEST SWAP2 PUSH2 0x23C5 JUMP JUMPDEST PUSH1 0x40 MLOAD STOP JUMPDEST PUSH2 0x258 PUSH1 0x0 PUSH1 0x11 PUSH2 0x513 JUMP JUMPDEST CALLVALUE PUSH2 0x227 JUMPI PUSH2 0x6BA CALLDATASIZE PUSH1 0x4 PUSH2 0x366 JUMP JUMPDEST PUSH2 0x362 PUSH2 0x561 PUSH2 0x69E JUMP JUMPDEST PUSH2 0x258 PUSH1 0x0 PUSH1 0xB PUSH2 0x613 JUMP JUMPDEST CALLVALUE PUSH2 0x227 JUMPI PUSH2 0x6E1 CALLDATASIZE PUSH1 0x4 PUSH2 0x366 JUMP JUMPDEST PUSH2 0x362 PUSH2 0x588 PUSH2 0x6C5 JUMP JUMPDEST PUSH2 0x258 PUSH1 0x0 PUSH1 0x3 PUSH2 0x613 JUMP JUMPDEST CALLVALUE PUSH2 0x227 JUMPI PUSH2 0x708 CALLDATASIZE PUSH1 0x4 PUSH2 0x366 JUMP JUMPDEST PUSH2 0x362 PUSH2 0x588 PUSH2 0x6EC JUMP JUMPDEST DUP1 ISZERO ISZERO PUSH2 0x22E JUMP JUMPDEST SWAP1 POP CALLDATALOAD SWAP1 PUSH2 0x242 DUP3 PUSH2 0x713 JUMP JUMPDEST SWAP1 PUSH1 0x20 DUP3 DUP3 SUB SLT PUSH2 0x227 JUMPI PUSH2 0x258 SWAP2 PUSH2 0x71B JUMP JUMPDEST CALLVALUE PUSH2 0x227 JUMPI PUSH2 0x699 PUSH2 0x74F CALLDATASIZE PUSH1 0x4 PUSH2 0x728 JUMP JUMPDEST PUSH2 0xF57 JUMP JUMPDEST PUSH2 0x258 PUSH1 0x0 PUSH1 0x7 PUSH2 0x613 JUMP JUMPDEST CALLVALUE PUSH2 0x227 JUMPI PUSH2 0x770 CALLDATASIZE PUSH1 0x4 PUSH2 0x366 JUMP JUMPDEST PUSH2 0x362 PUSH2 0x588 PUSH2 0x754 JUMP JUMPDEST CALLVALUE PUSH2 0x227 JUMPI PUSH2 0x362 PUSH2 0x588 PUSH2 0x791 CALLDATASIZE PUSH1 0x4 PUSH2 0x5B4 JUMP JUMPDEST PUSH2 0x144E JUMP JUMPDEST PUSH2 0x258 PUSH1 0x0 PUSH1 0x9 PUSH2 0x613 JUMP JUMPDEST CALLVALUE PUSH2 0x227 JUMPI PUSH2 0x7B2 CALLDATASIZE PUSH1 0x4 PUSH2 0x366 JUMP JUMPDEST PUSH2 0x362 PUSH2 0x588 PUSH2 0x796 JUMP JUMPDEST SWAP1 SWAP2 PUSH1 0x60 DUP3 DUP5 SUB SLT PUSH2 0x227 JUMPI PUSH2 0x258 PUSH2 0x7D6 DUP5 DUP5 PUSH2 0x5A7 JUMP JUMPDEST SWAP4 PUSH2 0x677 DUP2 PUSH1 0x20 DUP7 ADD PUSH2 0x235 JUMP JUMPDEST CALLVALUE PUSH2 0x227 JUMPI PUSH2 0x699 PUSH2 0x7F7 CALLDATASIZE PUSH1 0x4 PUSH2 0x7BD JUMP JUMPDEST SWAP2 PUSH2 0x13B8 JUMP JUMPDEST CALLVALUE PUSH2 0x227 JUMPI PUSH2 0x699 PUSH2 0x810 CALLDATASIZE PUSH1 0x4 PUSH2 0x244 JUMP JUMPDEST PUSH2 0x1B1B JUMP JUMPDEST PUSH2 0x258 SWAP2 PUSH1 0x8 MUL SHR JUMPDEST PUSH1 0xFF AND SWAP1 JUMP JUMPDEST SWAP1 PUSH2 0x258 SWAP2 SLOAD PUSH2 0x815 JUMP JUMPDEST PUSH2 0x258 PUSH1 0x1 PUSH1 0xE PUSH2 0x824 JUMP JUMPDEST CALLVALUE PUSH2 0x227 JUMPI PUSH2 0x84B CALLDATASIZE PUSH1 0x4 PUSH2 0x366 JUMP JUMPDEST PUSH2 0x362 PUSH2 0x856 PUSH2 0x82F JUMP JUMPDEST PUSH1 0x40 MLOAD SWAP2 DUP3 SWAP2 DUP3 SWAP1 ISZERO ISZERO DUP2 MSTORE PUSH1 0x20 ADD SWAP1 JUMP JUMPDEST PUSH2 0x258 PUSH1 0x0 PUSH1 0x12 PUSH2 0x513 JUMP JUMPDEST CALLVALUE PUSH2 0x227 JUMPI PUSH2 0x884 CALLDATASIZE PUSH1 0x4 PUSH2 0x366 JUMP JUMPDEST PUSH2 0x362 PUSH2 0x561 PUSH2 0x868 JUMP JUMPDEST PUSH2 0x258 PUSH1 0x2 PUSH1 0xE PUSH2 0x824 JUMP JUMPDEST CALLVALUE PUSH2 0x227 JUMPI PUSH2 0x8AB CALLDATASIZE PUSH1 0x4 PUSH2 0x366 JUMP JUMPDEST PUSH2 0x362 PUSH2 0x856 PUSH2 0x88F JUMP JUMPDEST PUSH2 0x258 PUSH2 0x258 PUSH2 0x258 SWAP3 SWAP1 JUMP JUMPDEST SWAP1 PUSH2 0x5FA SWAP1 PUSH2 0x8B6 JUMP JUMPDEST PUSH2 0x258 SWAP1 DUP2 JUMP JUMPDEST PUSH2 0x258 SWAP1 SLOAD PUSH2 0x8CD JUMP JUMPDEST PUSH2 0x258 SWAP1 PUSH2 0x81E JUMP JUMPDEST PUSH2 0x258 SWAP1 SLOAD PUSH2 0x8DE JUMP JUMPDEST PUSH2 0x258 SWAP1 PUSH1 0x8 SHR PUSH2 0x2BA JUMP JUMPDEST PUSH2 0x258 SWAP1 SLOAD PUSH2 0x8F1 JUMP JUMPDEST PUSH2 0x912 SWAP1 PUSH1 0x15 PUSH2 0x8C3 JUMP JUMPDEST SWAP1 PUSH2 0x91C DUP3 PUSH2 0x4F2 JUMP JUMPDEST SWAP2 PUSH2 0x929 PUSH1 0x1 DUP3 ADD PUSH2 0x8D4 JUMP JUMPDEST SWAP2 PUSH2 0x936 PUSH1 0x2 DUP4 ADD PUSH2 0x8D4 JUMP JUMPDEST SWAP2 PUSH2 0x943 PUSH1 0x3 DUP3 ADD PUSH2 0x8D4 JUMP JUMPDEST SWAP2 PUSH2 0x258 PUSH1 0x5 PUSH2 0x954 DUP2 DUP6 ADD PUSH2 0x8E7 JUMP JUMPDEST SWAP4 ADD PUSH2 0x8FD JUMP JUMPDEST SWAP2 SWAP7 SWAP6 SWAP4 SWAP5 PUSH2 0x99F PUSH2 0x242 SWAP7 PUSH2 0x998 PUSH1 0xA0 SWAP7 PUSH2 0x991 PUSH2 0x989 PUSH2 0x31F SWAP8 PUSH1 0xC0 DUP11 ADD SWAP1 DUP11 DUP3 SUB PUSH1 0x0 DUP13 ADD MSTORE PUSH2 0x27E JUMP JUMPDEST SWAP13 PUSH1 0x20 DUP10 ADD MSTORE JUMP JUMPDEST PUSH1 0x40 DUP8 ADD MSTORE JUMP JUMPDEST PUSH1 0x60 DUP6 ADD MSTORE JUMP JUMPDEST ISZERO ISZERO PUSH1 0x80 DUP4 ADD MSTORE JUMP JUMPDEST CALLVALUE PUSH2 0x227 JUMPI PUSH2 0x362 PUSH2 0x9C3 PUSH2 0x9BE CALLDATASIZE PUSH1 0x4 PUSH2 0x244 JUMP JUMPDEST PUSH2 0x907 JUMP JUMPDEST SWAP3 PUSH2 0x9D3 SWAP7 SWAP5 SWAP7 SWAP3 SWAP2 SWAP3 PUSH1 0x40 MLOAD SWAP1 JUMP JUMPDEST SWAP7 DUP8 SWAP7 DUP8 PUSH2 0x95B JUMP JUMPDEST PUSH2 0x258 PUSH1 0x0 PUSH1 0x13 PUSH2 0x513 JUMP JUMPDEST CALLVALUE PUSH2 0x227 JUMPI PUSH2 0x9F8 CALLDATASIZE PUSH1 0x4 PUSH2 0x366 JUMP JUMPDEST PUSH2 0x362 PUSH2 0x561 PUSH2 0x9DC JUMP JUMPDEST PUSH2 0x258 PUSH1 0x0 PUSH1 0xF PUSH2 0x513 JUMP JUMPDEST CALLVALUE PUSH2 0x227 JUMPI PUSH2 0xA1F CALLDATASIZE PUSH1 0x4 PUSH2 0x366 JUMP JUMPDEST PUSH2 0x362 PUSH2 0x561 PUSH2 0xA03 JUMP JUMPDEST PUSH2 0x258 PUSH1 0x0 PUSH1 0x16 PUSH2 0x613 JUMP JUMPDEST CALLVALUE PUSH2 0x227 JUMPI PUSH2 0xA46 CALLDATASIZE PUSH1 0x4 PUSH2 0x366 JUMP JUMPDEST PUSH2 0x362 PUSH2 0x588 PUSH2 0xA2A JUMP JUMPDEST PUSH2 0x258 PUSH1 0x0 PUSH1 0x8 PUSH2 0x613 JUMP JUMPDEST CALLVALUE PUSH2 0x227 JUMPI PUSH2 0xA6D CALLDATASIZE PUSH1 0x4 PUSH2 0x366 JUMP JUMPDEST PUSH2 0x362 PUSH2 0x588 PUSH2 0xA51 JUMP JUMPDEST PUSH2 0x258 PUSH1 0x0 PUSH1 0xE PUSH2 0x824 JUMP JUMPDEST PUSH4 0x4E487B71 PUSH1 0xE0 SHL PUSH1 0x0 MSTORE PUSH1 0x21 PUSH1 0x4 MSTORE PUSH1 0x24 PUSH1 0x0 REVERT JUMPDEST PUSH1 0x3 GT ISZERO PUSH2 0xAA4 JUMPI JUMP JUMPDEST PUSH2 0xA84 JUMP JUMPDEST SWAP1 PUSH2 0x242 DUP3 PUSH2 0xA9A JUMP JUMPDEST PUSH2 0x258 SWAP1 PUSH2 0xAA9 JUMP JUMPDEST PUSH2 0x2B6 SWAP1 PUSH2 0xAB3 JUMP JUMPDEST PUSH1 0x20 DUP2 ADD SWAP3 SWAP2 PUSH2 0x242 SWAP2 SWAP1 PUSH2 0xABC JUMP JUMPDEST CALLVALUE PUSH2 0x227 JUMPI PUSH2 0xAE5 CALLDATASIZE PUSH1 0x4 PUSH2 0x366 JUMP JUMPDEST PUSH2 0x362 PUSH2 0xAF0 PUSH2 0xA78 JUMP JUMPDEST PUSH1 0x40 MLOAD SWAP2 DUP3 SWAP2 DUP3 PUSH2 0xAC5 JUMP JUMPDEST PUSH2 0x258 PUSH1 0x0 PUSH1 0xC PUSH2 0x513 JUMP JUMPDEST CALLVALUE PUSH2 0x227 JUMPI PUSH2 0xB18 CALLDATASIZE PUSH1 0x4 PUSH2 0x366 JUMP JUMPDEST PUSH2 0x362 PUSH2 0x561 PUSH2 0xAFC JUMP JUMPDEST PUSH2 0x258 PUSH1 0x0 PUSH1 0xA PUSH2 0x613 JUMP JUMPDEST CALLVALUE PUSH2 0x227 JUMPI PUSH2 0xB3F CALLDATASIZE PUSH1 0x4 PUSH2 0x366 JUMP JUMPDEST PUSH2 0x362 PUSH2 0x588 PUSH2 0xB23 JUMP JUMPDEST PUSH2 0x258 PUSH1 0x0 PUSH1 0x2 PUSH2 0x385 JUMP JUMPDEST CALLVALUE PUSH2 0x227 JUMPI PUSH2 0xB66 CALLDATASIZE PUSH1 0x4 PUSH2 0x366 JUMP JUMPDEST PUSH2 0x362 PUSH2 0x3B7 PUSH2 0xB4A JUMP JUMPDEST PUSH2 0x258 PUSH1 0x0 PUSH1 0x10 PUSH2 0x513 JUMP JUMPDEST CALLVALUE PUSH2 0x227 JUMPI PUSH2 0xB8D CALLDATASIZE PUSH1 0x4 PUSH2 0x366 JUMP JUMPDEST PUSH2 0x362 PUSH2 0x561 PUSH2 0xB71 JUMP JUMPDEST CALLVALUE PUSH2 0x227 JUMPI PUSH2 0xBA8 CALLDATASIZE PUSH1 0x4 PUSH2 0x366 JUMP JUMPDEST PUSH2 0x362 PUSH2 0x856 PUSH2 0x16A5 JUMP JUMPDEST CALLVALUE PUSH2 0x227 JUMPI PUSH2 0x699 PUSH2 0xBC6 CALLDATASIZE PUSH1 0x4 PUSH2 0x244 JUMP JUMPDEST PUSH2 0xEFA JUMP JUMPDEST SWAP1 PUSH2 0x242 PUSH2 0xBD8 PUSH1 0x40 MLOAD SWAP1 JUMP JUMPDEST SWAP3 DUP4 PUSH2 0x4CB JUMP JUMPDEST PUSH8 0xFFFFFFFFFFFFFFFF DUP2 GT PUSH2 0x4ED JUMPI PUSH1 0x20 SWAP1 PUSH1 0x1F ADD PUSH1 0x1F NOT AND ADD SWAP1 JUMP JUMPDEST SWAP1 DUP3 PUSH1 0x0 SWAP4 SWAP3 DUP3 CALLDATACOPY ADD MSTORE JUMP JUMPDEST SWAP1 SWAP3 SWAP2 SWAP3 PUSH2 0xC1D PUSH2 0xC18 DUP3 PUSH2 0xBDF JUMP JUMPDEST PUSH2 0xBCB JUMP JUMPDEST SWAP4 DUP2 DUP6 MSTORE PUSH1 0x20 DUP6 ADD SWAP1 DUP3 DUP5 ADD GT PUSH2 0x227 JUMPI PUSH2 0x242 SWAP3 PUSH2 0xBFC JUMP JUMPDEST SWAP1 DUP1 PUSH1 0x1F DUP4 ADD SLT ISZERO PUSH2 0x227 JUMPI DUP2 PUSH1 0x20 PUSH2 0x258 SWAP4 CALLDATALOAD SWAP2 ADD PUSH2 0xC08 JUMP JUMPDEST SWAP2 SWAP1 PUSH1 0xA0 DUP4 DUP3 SUB SLT PUSH2 0x227 JUMPI DUP3 CALLDATALOAD PUSH8 0xFFFFFFFFFFFFFFFF DUP2 GT PUSH2 0x227 JUMPI DUP2 PUSH2 0xC7B SWAP2 DUP6 ADD PUSH2 0xC37 JUMP JUMPDEST SWAP3 PUSH2 0xC89 DUP3 PUSH1 0x20 DUP4 ADD PUSH2 0x5A7 JUMP JUMPDEST SWAP3 PUSH2 0x258 PUSH2 0xC9A DUP5 PUSH1 0x40 DUP6 ADD PUSH2 0x235 JUMP JUMPDEST SWAP4 PUSH2 0xCA8 DUP2 PUSH1 0x60 DUP7 ADD PUSH2 0x235 JUMP JUMPDEST SWAP4 PUSH1 0x80 ADD PUSH2 0x235 JUMP JUMPDEST CALLVALUE PUSH2 0x227 JUMPI PUSH2 0x699 PUSH2 0xCC4 CALLDATASIZE PUSH1 0x4 PUSH2 0xC52 JUMP JUMPDEST SWAP4 SWAP3 SWAP1 SWAP3 PUSH2 0x1A59 JUMP JUMPDEST CALLVALUE PUSH2 0x227 JUMPI PUSH2 0x699 PUSH2 0xCE0 CALLDATASIZE PUSH1 0x4 PUSH2 0x728 JUMP JUMPDEST PUSH2 0xFB5 JUMP JUMPDEST SWAP15 SWAP14 SWAP13 SWAP12 SWAP10 SWAP9 SWAP8 SWAP6 SWAP4 SWAP2 SWAP3 DUP16 SWAP2 SWAP8 SWAP6 SWAP4 PUSH2 0x200 DUP4 ADD SWAP9 PUSH1 0x0 DUP5 ADD PUSH2 0xD10 SWAP2 PUSH1 0x1 PUSH1 0x1 PUSH1 0xA0 SHL SUB AND SWAP1 MSTORE JUMP JUMPDEST PUSH1 0x1 PUSH1 0x1 PUSH1 0xA0 SHL SUB AND PUSH1 0x20 DUP4 ADD MSTORE PUSH1 0x1 PUSH1 0x1 PUSH1 0xA0 SHL SUB AND PUSH1 0x40 DUP3 ADD MSTORE PUSH1 0x60 ADD MSTORE PUSH1 0x80 DUP14 ADD MSTORE PUSH1 0xA0 DUP13 ADD MSTORE PUSH1 0xC0 DUP12 ADD MSTORE PUSH1 0xE0 DUP11 ADD MSTORE DUP9 DUP2 SUB PUSH2 0x100 DUP11 ADD MSTORE PUSH2 0xD56 SWAP2 PUSH2 0x27E JUMP JUMPDEST DUP8 DUP2 SUB PUSH2 0x120 DUP10 ADD MSTORE PUSH2 0xD68 SWAP2 PUSH2 0x27E JUMP JUMPDEST SWAP2 PUSH2 0x140 DUP8 ADD PUSH2 0xD77 SWAP2 PUSH2 0xABC JUMP JUMPDEST PUSH2 0x160 DUP7 ADD MSTORE DUP5 DUP2 SUB PUSH2 0x180 DUP7 ADD MSTORE PUSH2 0xD8F SWAP2 PUSH2 0x27E JUMP JUMPDEST DUP4 DUP2 SUB PUSH2 0x1A0 DUP6 ADD MSTORE PUSH2 0xDA1 SWAP2 PUSH2 0x27E JUMP JUMPDEST DUP3 DUP2 SUB PUSH2 0x1C0 DUP5 ADD MSTORE PUSH2 0xDB3 SWAP2 PUSH2 0x27E JUMP JUMPDEST SWAP1 DUP1 DUP3 SUB SWAP1 PUSH2 0x1E0 ADD MSTORE PUSH2 0x258 SWAP2 PUSH2 0x27E JUMP JUMPDEST CALLVALUE PUSH2 0x227 JUMPI PUSH2 0xDD6 CALLDATASIZE PUSH1 0x4 PUSH2 0x366 JUMP JUMPDEST PUSH2 0xE0B PUSH2 0xDE1 PUSH2 0x23D9 JUMP JUMPDEST SWAP15 PUSH2 0xE00 SWAP15 SWAP2 SWAP15 SWAP14 SWAP3 SWAP14 SWAP13 SWAP4 SWAP13 SWAP12 SWAP5 SWAP12 SWAP11 SWAP6 SWAP11 SWAP10 SWAP7 SWAP10 SWAP9 SWAP8 SWAP9 PUSH1 0x40 MLOAD SWAP1 JUMP JUMPDEST PUSH1 0x80 MSTORE PUSH1 0x80 MLOAD PUSH2 0xCE5 JUMP JUMPDEST PUSH1 0x80 MLOAD SWAP1 SUB PUSH1 0x80 MLOAD RETURN JUMPDEST ISZERO PUSH2 0xE1C JUMPI JUMP JUMPDEST PUSH1 0x40 MLOAD PUSH3 0x461BCD PUSH1 0xE5 SHL DUP2 MSTORE PUSH1 0x20 PUSH1 0x4 DUP3 ADD MSTORE PUSH1 0x36 PUSH1 0x24 DUP3 ADD MSTORE PUSH32 0x596F7520646F6E7420686176652061646D696E2061636365737320746F207065 PUSH1 0x44 DUP3 ADD MSTORE PUSH32 0x72666F726D2074686973206F7065726174696F6E202100000000000000000000 PUSH1 0x64 DUP3 ADD MSTORE PUSH1 0x84 SWAP1 REVERT JUMPDEST PUSH2 0x242 SWAP1 PUSH2 0xEBF CALLER PUSH2 0xEB9 PUSH2 0xEAC PUSH2 0xEA7 PUSH1 0x1 SLOAD PUSH1 0x1 PUSH1 0x1 PUSH1 0xA0 SHL SUB AND SWAP1 JUMP JUMPDEST PUSH2 0x5E7 JUMP JUMPDEST SWAP2 PUSH1 0x1 PUSH1 0x1 PUSH1 0xA0 SHL SUB AND SWAP1 JUMP JUMPDEST EQ PUSH2 0xE15 JUMP JUMPDEST PUSH2 0xEEF JUMP JUMPDEST SWAP1 PUSH1 0x0 NOT SWAP1 JUMPDEST SWAP2 DUP2 NOT AND SWAP2 AND OR SWAP1 JUMP JUMPDEST SWAP1 PUSH2 0xEE4 PUSH2 0x258 PUSH2 0xEEB SWAP3 PUSH2 0x8B6 JUMP JUMPDEST DUP3 SLOAD PUSH2 0xEC4 JUMP JUMPDEST SWAP1 SSTORE JUMP JUMPDEST PUSH2 0x242 SWAP1 PUSH1 0x3 PUSH2 0xED4 JUMP JUMPDEST PUSH2 0x242 SWAP1 PUSH2 0xE87 JUMP JUMPDEST PUSH2 0x242 SWAP1 PUSH2 0xF23 CALLER PUSH2 0xEB9 PUSH2 0xEAC PUSH2 0xEA7 PUSH1 0x1 SLOAD PUSH1 0x1 PUSH1 0x1 PUSH1 0xA0 SHL SUB AND SWAP1 JUMP JUMPDEST PUSH2 0xF4C JUMP JUMPDEST SWAP1 PUSH2 0xFF00 SWAP1 PUSH1 0x8 SHL PUSH2 0xECA JUMP JUMPDEST SWAP1 PUSH2 0xF45 PUSH2 0x258 PUSH2 0xEEB SWAP3 ISZERO ISZERO SWAP1 JUMP JUMPDEST DUP3 SLOAD PUSH2 0xF28 JUMP JUMPDEST PUSH2 0x242 SWAP1 PUSH1 0xE PUSH2 0xF35 JUMP JUMPDEST PUSH2 0x242 SWAP1 PUSH2 0xF03 JUMP JUMPDEST PUSH2 0x242 SWAP1 PUSH2 0xF80 CALLER PUSH2 0xEB9 PUSH2 0xEAC PUSH2 0xEA7 PUSH1 0x1 SLOAD PUSH1 0x1 PUSH1 0x1 PUSH1 0xA0 SHL SUB AND SWAP1 JUMP JUMPDEST PUSH2 0xFAA JUMP JUMPDEST SWAP1 PUSH3 0xFF0000 SWAP1 PUSH1 0x10 SHL PUSH2 0xECA JUMP JUMPDEST SWAP1 PUSH2 0xFA3 PUSH2 0x258 PUSH2 0xEEB SWAP3 ISZERO ISZERO SWAP1 JUMP JUMPDEST DUP3 SLOAD PUSH2 0xF85 JUMP JUMPDEST PUSH2 0x242 SWAP1 PUSH1 0xE PUSH2 0xF93 JUMP JUMPDEST PUSH2 0x242 SWAP1 PUSH2 0xF60 JUMP JUMPDEST PUSH2 0x258 SWAP1 PUSH1 0x10 SHR PUSH2 0x81E JUMP JUMPDEST PUSH2 0x258 SWAP1 SLOAD PUSH2 0xFBE JUMP JUMPDEST ISZERO PUSH2 0xFDB JUMPI JUMP JUMPDEST PUSH1 0x40 MLOAD PUSH3 0x461BCD PUSH1 0xE5 SHL DUP2 MSTORE PUSH1 0x20 PUSH1 0x4 DUP3 ADD MSTORE PUSH1 0x18 PUSH1 0x24 DUP3 ADD MSTORE PUSH32 0x50726F6A656374206D7573742062652076657269666965640000000000000000 PUSH1 0x44 DUP3 ADD MSTORE PUSH1 0x64 SWAP1 REVERT JUMPDEST SWAP1 PUSH2 0x242 SWAP3 SWAP2 PUSH2 0x1045 PUSH2 0x1033 PUSH1 0xE PUSH2 0xFCA JUMP JUMPDEST PUSH2 0x103F PUSH1 0x1 JUMPDEST SWAP2 ISZERO ISZERO SWAP1 JUMP JUMPDEST EQ PUSH2 0xFD4 JUMP JUMPDEST PUSH2 0x10BC JUMP JUMPDEST ISZERO PUSH2 0x1051 JUMPI JUMP JUMPDEST PUSH1 0x40 MLOAD PUSH3 0x461BCD PUSH1 0xE5 SHL DUP2 MSTORE PUSH1 0x20 PUSH1 0x4 DUP3 ADD MSTORE PUSH1 0x3C PUSH1 0x24 DUP3 ADD MSTORE PUSH32 0x596F7520646F206E6F74206861766520746865206D6173746572207269676874 PUSH1 0x44 DUP3 ADD MSTORE PUSH32 0x7320746F20706572666F726D2074686973206F7065726174696F6E2100000000 PUSH1 0x64 DUP3 ADD MSTORE PUSH1 0x84 SWAP1 REVERT JUMPDEST SWAP1 PUSH2 0x242 SWAP3 SWAP2 PUSH2 0x10E4 CALLER PUSH2 0x10DE PUSH2 0xEAC PUSH2 0xEA7 PUSH1 0x0 SLOAD PUSH1 0x1 PUSH1 0x1 PUSH1 0xA0 SHL SUB AND SWAP1 JUMP JUMPDEST EQ PUSH2 0x104A JUMP JUMPDEST PUSH2 0x11E3 JUMP JUMPDEST PUSH4 0x4E487B71 PUSH1 0xE0 SHL PUSH1 0x0 MSTORE PUSH1 0x11 PUSH1 0x4 MSTORE PUSH1 0x24 PUSH1 0x0 REVERT JUMPDEST PUSH1 0x0 NOT DUP2 EQ PUSH2 0x110E JUMPI PUSH1 0x1 ADD SWAP1 JUMP JUMPDEST PUSH2 0x10E9 JUMP JUMPDEST SWAP2 SWAP1 DUP3 ADD DUP1 SWAP3 GT PUSH2 0x110E JUMPI JUMP JUMPDEST SWAP1 POP MLOAD SWAP1 PUSH2 0x242 DUP3 PUSH2 0x22C JUMP JUMPDEST SWAP1 PUSH1 0x20 DUP3 DUP3 SUB SLT PUSH2 0x227 JUMPI PUSH2 0x258 SWAP2 PUSH2 0x1120 JUMP JUMPDEST PUSH1 0x1 PUSH1 0x1 PUSH1 0xA0 SHL SUB SWAP1 SWAP2 AND DUP2 MSTORE PUSH1 0x40 DUP2 ADD SWAP3 SWAP2 PUSH2 0x242 SWAP2 PUSH1 0x20 SWAP1 PUSH2 0x31F JUMP JUMPDEST PUSH1 0x40 MLOAD RETURNDATASIZE PUSH1 0x0 DUP3 RETURNDATACOPY RETURNDATASIZE SWAP1 REVERT JUMPDEST ISZERO PUSH2 0x227 JUMPI JUMP JUMPDEST SWAP1 POP MLOAD SWAP1 PUSH2 0x242 DUP3 PUSH2 0x713 JUMP JUMPDEST SWAP1 PUSH1 0x20 DUP3 DUP3 SUB SLT PUSH2 0x227 JUMPI PUSH2 0x258 SWAP2 PUSH2 0x1173 JUMP JUMPDEST PUSH1 0x1 PUSH1 0x1 PUSH1 0xA0 SHL SUB SWAP2 DUP3 AND DUP2 MSTORE SWAP2 AND PUSH1 0x20 DUP3 ADD MSTORE PUSH1 0x60 DUP2 ADD SWAP3 SWAP2 PUSH2 0x242 SWAP2 PUSH1 0x40 ADD MSTORE JUMP JUMPDEST ADD MSTORE JUMP JUMPDEST PUSH1 0x1 PUSH1 0x1 PUSH1 0xA0 SHL SUB SWAP1 SWAP2 AND DUP2 MSTORE PUSH1 0x60 DUP2 ADD SWAP4 SWAP3 PUSH2 0x242 SWAP3 SWAP1 SWAP2 PUSH1 0x40 SWAP2 PUSH2 0x11B8 SWAP1 PUSH1 0x20 DUP4 ADD MSTORE JUMP JUMPDEST SWAP2 PUSH2 0x1251 PUSH1 0x14 SWAP2 PUSH2 0x1239 PUSH2 0x1221 DUP7 PUSH2 0x1203 PUSH2 0x11FE DUP3 DUP9 PUSH2 0x5F0 JUMP JUMPDEST PUSH2 0x8D4 JUMP JUMPDEST SWAP6 PUSH1 0x0 SWAP7 PUSH2 0x1217 PUSH2 0x1213 DUP10 PUSH2 0x8B6 JUMP JUMPDEST SWAP2 SWAP1 JUMP JUMPDEST EQ PUSH2 0x1397 JUMPI PUSH2 0x5F0 JUMP JUMPDEST PUSH2 0x1233 DUP7 PUSH2 0x122E DUP4 PUSH2 0x8D4 JUMP JUMPDEST PUSH2 0x1113 JUMP JUMPDEST SWAP1 PUSH2 0xED4 JUMP JUMPDEST PUSH2 0xEA7 PUSH2 0x124A DUP6 PUSH2 0x122E PUSH1 0xA PUSH2 0x8D4 JUMP JUMPDEST PUSH1 0xA PUSH2 0xED4 JUMP JUMPDEST SWAP1 PUSH4 0xDD62ED3E SWAP2 PUSH2 0x1261 ADDRESS PUSH2 0x5E7 JUMP JUMPDEST PUSH2 0x1274 PUSH2 0x126D PUSH1 0x40 MLOAD SWAP1 JUMP JUMPDEST SWAP5 PUSH1 0xE0 SHL SWAP1 JUMP JUMPDEST DUP5 MSTORE PUSH1 0x20 DUP5 DUP1 PUSH2 0x1288 DUP5 DUP11 PUSH1 0x4 DUP5 ADD PUSH2 0x1141 JUMP JUMPDEST SUB DUP2 DUP6 GAS STATICCALL SWAP2 DUP3 ISZERO PUSH2 0x1365 JUMPI PUSH2 0x12AC PUSH1 0x20 SWAP4 DUP8 SWAP7 DUP7 SWAP2 PUSH2 0x136A JUMPI JUMPDEST POP DUP7 GT ISZERO PUSH2 0x116C JUMP JUMPDEST PUSH2 0x12CE DUP5 PUSH4 0x23B872DD PUSH2 0x12DA PUSH2 0x12C1 PUSH1 0x40 MLOAD SWAP1 JUMP JUMPDEST SWAP9 DUP10 SWAP7 DUP8 SWAP6 DUP7 SWAP5 PUSH1 0xE0 SHL SWAP1 JUMP JUMPDEST DUP5 MSTORE DUP13 PUSH1 0x4 DUP6 ADD PUSH2 0x1194 JUMP JUMPDEST SUB SWAP3 GAS CALL SWAP1 DUP2 ISZERO PUSH2 0x1365 JUMPI POP PUSH2 0x1339 JUMPI JUMPDEST POP PUSH2 0x12F6 PUSH1 0xA PUSH2 0x8D4 JUMP JUMPDEST SWAP2 PUSH2 0x132E PUSH32 0x5CDC4AB8D637538EAD6CC1904D4160343656C8C82BD266635CFD31AC008FFFE0 SWAP4 PUSH2 0x1325 PUSH1 0x40 MLOAD SWAP1 JUMP JUMPDEST SWAP4 DUP5 SWAP4 DUP5 PUSH2 0x11BC JUMP JUMPDEST SUB SWAP1 LOG1 PUSH2 0x242 PUSH2 0x13E3 JUMP JUMPDEST PUSH2 0x1359 SWAP1 PUSH1 0x20 RETURNDATASIZE DUP2 GT PUSH2 0x135E JUMPI JUMPDEST PUSH2 0x1351 DUP2 DUP4 PUSH2 0x4CB JUMP JUMPDEST DUP2 ADD SWAP1 PUSH2 0x1180 JUMP JUMPDEST PUSH2 0x12EB JUMP JUMPDEST POP RETURNDATASIZE PUSH2 0x1347 JUMP JUMPDEST PUSH2 0x1160 JUMP JUMPDEST PUSH2 0x138A SWAP2 POP DUP6 RETURNDATASIZE DUP2 GT PUSH2 0x1390 JUMPI JUMPDEST PUSH2 0x1382 DUP2 DUP4 PUSH2 0x4CB JUMP JUMPDEST DUP2 ADD SWAP1 PUSH2 0x112D JUMP JUMPDEST CODESIZE PUSH2 0x12A3 JUMP JUMPDEST POP RETURNDATASIZE PUSH2 0x1378 JUMP JUMPDEST PUSH2 0x13B3 PUSH2 0x13AC PUSH2 0x13A7 PUSH1 0xB PUSH2 0x8D4 JUMP JUMPDEST PUSH2 0x10FF JUMP JUMPDEST PUSH1 0xB PUSH2 0xED4 JUMP JUMPDEST PUSH2 0x5F0 JUMP JUMPDEST SWAP1 PUSH2 0x242 SWAP3 SWAP2 PUSH2 0x1020 JUMP JUMPDEST SWAP1 PUSH1 0xFF SWAP1 PUSH2 0xECA JUMP JUMPDEST SWAP1 PUSH2 0x13DC PUSH2 0x258 PUSH2 0xEEB SWAP3 PUSH2 0xAB3 JUMP JUMPDEST DUP3 SLOAD PUSH2 0x13C3 JUMP JUMPDEST PUSH2 0x13ED PUSH1 0xA PUSH2 0x8D4 JUMP JUMPDEST PUSH2 0x13FD PUSH2 0x1213 PUSH2 0x258 PUSH1 0x8 PUSH2 0x8D4 JUMP JUMPDEST LT PUSH2 0x1419 JUMPI PUSH2 0x140E PUSH1 0x2 PUSH1 0xE PUSH2 0x13CC JUMP JUMPDEST PUSH2 0x242 TIMESTAMP PUSH1 0x9 PUSH2 0xED4 JUMP JUMPDEST TIMESTAMP PUSH2 0x142A PUSH2 0x1213 PUSH2 0x258 PUSH1 0x7 PUSH2 0x8D4 JUMP JUMPDEST GT ISZERO PUSH2 0x140E JUMPI PUSH2 0x143C PUSH1 0x1 PUSH1 0xE PUSH2 0x13CC JUMP JUMPDEST PUSH2 0x140E JUMP JUMPDEST PUSH2 0x144A ADDRESS PUSH2 0x5E7 JUMP JUMPDEST BALANCE SWAP1 JUMP JUMPDEST PUSH1 0x20 PUSH2 0x1465 PUSH2 0x14A5 SWAP3 PUSH2 0x145F PUSH1 0x0 SWAP1 JUMP JUMPDEST POP PUSH2 0x5E7 JUMP JUMPDEST PUSH4 0x70A08231 SWAP1 PUSH2 0x148E PUSH2 0x1477 ADDRESS PUSH2 0x5E7 JUMP JUMPDEST SWAP3 PUSH2 0x1481 PUSH1 0x40 MLOAD SWAP1 JUMP JUMPDEST SWAP6 DUP7 SWAP5 DUP6 SWAP4 DUP5 SWAP4 PUSH1 0xE0 SHL SWAP1 JUMP JUMPDEST DUP4 MSTORE PUSH1 0x1 PUSH1 0x1 PUSH1 0xA0 SHL SUB AND PUSH1 0x4 DUP4 ADD MSTORE PUSH1 0x24 DUP3 ADD SWAP1 JUMP JUMPDEST SUB SWAP2 GAS STATICCALL SWAP1 DUP2 ISZERO PUSH2 0x1365 JUMPI PUSH1 0x0 SWAP2 PUSH2 0x14BB JUMPI POP SWAP1 JUMP JUMPDEST PUSH2 0x258 SWAP2 POP PUSH1 0x20 RETURNDATASIZE DUP2 GT PUSH2 0x1390 JUMPI PUSH2 0x1382 DUP2 DUP4 PUSH2 0x4CB JUMP JUMPDEST ISZERO PUSH2 0x14DA JUMPI JUMP JUMPDEST PUSH1 0x40 MLOAD PUSH3 0x461BCD PUSH1 0xE5 SHL DUP2 MSTORE PUSH1 0x20 PUSH1 0x4 DUP3 ADD MSTORE PUSH1 0xD PUSH1 0x24 DUP3 ADD MSTORE PUSH32 0x496E76616C696420737461746500000000000000000000000000000000000000 PUSH1 0x44 DUP3 ADD MSTORE PUSH1 0x64 SWAP1 REVERT JUMPDEST ISZERO PUSH2 0x1526 JUMPI JUMP JUMPDEST PUSH1 0x40 MLOAD PUSH3 0x461BCD PUSH1 0xE5 SHL DUP2 MSTORE PUSH1 0x20 PUSH1 0x4 DUP3 ADD MSTORE PUSH1 0x15 PUSH1 0x24 DUP3 ADD MSTORE PUSH32 0x446561646C696E65206861732070617373656420210000000000000000000000 PUSH1 0x44 DUP3 ADD MSTORE PUSH1 0x64 SWAP1 REVERT JUMPDEST PUSH2 0x258 SWAP1 PUSH2 0x1596 PUSH1 0x1 PUSH2 0x1590 PUSH2 0x158A PUSH2 0x1584 PUSH1 0xE PUSH2 0x8E7 JUMP JUMPDEST SWAP3 PUSH2 0xAA9 JUMP JUMPDEST SWAP2 PUSH2 0xAA9 JUMP JUMPDEST EQ PUSH2 0x14D3 JUMP JUMPDEST PUSH2 0x15B0 TIMESTAMP PUSH2 0x15AA PUSH2 0x1213 PUSH2 0x258 PUSH1 0x7 PUSH2 0x8D4 JUMP JUMPDEST LT PUSH2 0x151F JUMP JUMPDEST PUSH2 0x1627 JUMP JUMPDEST ISZERO PUSH2 0x15BC JUMPI JUMP JUMPDEST PUSH1 0x40 MLOAD PUSH3 0x461BCD PUSH1 0xE5 SHL DUP2 MSTORE PUSH1 0x20 PUSH1 0x4 DUP3 ADD MSTORE PUSH1 0x26 PUSH1 0x24 DUP3 ADD MSTORE PUSH32 0x596F7520646F6E74206861766520616E7920636F6E747269627574656420616D PUSH1 0x44 DUP3 ADD MSTORE PUSH32 0x6F756E7420210000000000000000000000000000000000000000000000000000 PUSH1 0x64 DUP3 ADD MSTORE PUSH1 0x84 SWAP1 REVERT JUMPDEST POP CALLER PUSH1 0x14 PUSH2 0x1638 PUSH2 0x11FE DUP4 DUP4 PUSH2 0x5F0 JUMP JUMPDEST PUSH2 0x1650 PUSH1 0x0 SWAP2 PUSH2 0x164A PUSH2 0x1213 DUP5 PUSH2 0x8B6 JUMP JUMPDEST GT PUSH2 0x15B5 JUMP JUMPDEST DUP1 DUP1 DUP1 DUP1 PUSH2 0x1660 PUSH2 0xEA7 DUP9 PUSH2 0x5E7 JUMP JUMPDEST PUSH2 0x166D PUSH2 0x11FE DUP10 DUP10 PUSH2 0x5F0 JUMP JUMPDEST SWAP1 DUP3 DUP3 ISZERO PUSH2 0x169C JUMPI JUMPDEST CALL ISZERO PUSH2 0x1365 JUMPI PUSH2 0x1697 SWAP3 PUSH2 0x168C PUSH2 0x1692 SWAP3 PUSH2 0x8B6 JUMP JUMPDEST SWAP3 PUSH2 0x5F0 JUMP JUMPDEST PUSH2 0xED4 JUMP JUMPDEST PUSH1 0x1 SWAP1 JUMP JUMPDEST POP PUSH2 0x8FC PUSH2 0x1676 JUMP JUMPDEST PUSH2 0x258 PUSH1 0x0 PUSH2 0x156B JUMP JUMPDEST ISZERO PUSH2 0x16B6 JUMPI JUMP JUMPDEST PUSH1 0x40 MLOAD PUSH3 0x461BCD PUSH1 0xE5 SHL DUP2 MSTORE PUSH1 0x20 PUSH1 0x4 DUP3 ADD MSTORE PUSH1 0x38 PUSH1 0x24 DUP3 ADD MSTORE PUSH32 0x596F7520646F6E7420686176652063726561746F722061636365737320746F20 PUSH1 0x44 DUP3 ADD MSTORE PUSH32 0x706572666F726D2074686973206F7065726174696F6E20210000000000000000 PUSH1 0x64 DUP3 ADD MSTORE PUSH1 0x84 SWAP1 REVERT JUMPDEST SWAP1 PUSH2 0x242 SWAP5 SWAP4 SWAP3 SWAP2 PUSH2 0x174B CALLER PUSH2 0x1745 PUSH2 0xEAC PUSH2 0xEA7 PUSH1 0x4 SLOAD PUSH1 0x1 PUSH1 0x1 PUSH1 0xA0 SHL SUB AND SWAP1 JUMP JUMPDEST EQ PUSH2 0x16AF JUMP JUMPDEST SWAP1 PUSH2 0x242 SWAP5 SWAP4 SWAP3 SWAP2 PUSH2 0x1768 PUSH1 0x2 PUSH2 0x1590 PUSH2 0x158A PUSH2 0x1584 PUSH1 0xE PUSH2 0x8E7 JUMP JUMPDEST PUSH2 0x177C TIMESTAMP PUSH2 0x15AA PUSH2 0x1213 PUSH2 0x258 PUSH1 0x7 PUSH2 0x8D4 JUMP JUMPDEST PUSH2 0x19B4 JUMP JUMPDEST SWAP2 SWAP1 PUSH1 0x8 PUSH2 0xECA SWAP2 MUL SWAP2 PUSH2 0x1796 PUSH1 0x0 NOT DUP5 SHL SWAP1 JUMP JUMPDEST SWAP3 SHL SWAP1 JUMP JUMPDEST SWAP2 SWAP1 PUSH2 0x17AC PUSH2 0x258 PUSH2 0xEEB SWAP4 PUSH2 0x8B6 JUMP JUMPDEST SWAP1 DUP4 SLOAD PUSH2 0x1781 JUMP JUMPDEST PUSH2 0x242 SWAP2 PUSH1 0x0 SWAP2 PUSH2 0x179B JUMP JUMPDEST DUP2 DUP2 LT PUSH2 0x17CB JUMPI POP POP JUMP JUMPDEST DUP1 PUSH2 0x17D9 PUSH1 0x0 PUSH1 0x1 SWAP4 PUSH2 0x17B4 JUMP JUMPDEST ADD PUSH2 0x17C0 JUMP JUMPDEST SWAP2 SWAP1 PUSH1 0x1F DUP2 GT PUSH2 0x17EE JUMPI POP POP POP JUMP JUMPDEST PUSH2 0x1800 PUSH2 0x242 SWAP4 PUSH1 0x0 MSTORE PUSH1 0x20 PUSH1 0x0 KECCAK256 SWAP1 JUMP JUMPDEST SWAP1 PUSH1 0x20 PUSH1 0x1F DUP5 ADD DUP2 SWAP1 DIV DUP4 ADD SWAP4 LT PUSH2 0x1822 JUMPI JUMPDEST PUSH1 0x20 PUSH1 0x1F SWAP1 SWAP2 ADD DIV ADD SWAP1 PUSH2 0x17C0 JUMP JUMPDEST SWAP1 SWAP2 POP DUP2 SWAP1 PUSH2 0x1813 JUMP JUMPDEST SWAP1 PUSH2 0x1835 DUP2 MLOAD SWAP1 JUMP JUMPDEST SWAP1 PUSH8 0xFFFFFFFFFFFFFFFF DUP3 GT PUSH2 0x4ED JUMPI PUSH2 0x1859 DUP3 PUSH2 0x1853 DUP6 SLOAD PUSH2 0x3FD JUMP JUMPDEST DUP6 PUSH2 0x17DF JUMP JUMPDEST PUSH1 0x20 SWAP1 PUSH1 0x1F DUP4 GT PUSH1 0x1 EQ PUSH2 0x1894 JUMPI PUSH2 0xEEB SWAP3 SWAP2 PUSH1 0x0 SWAP2 DUP4 PUSH2 0x1889 JUMPI JUMPDEST POP POP PUSH1 0x0 NOT PUSH1 0x8 DUP4 MUL SHR NOT AND SWAP1 PUSH1 0x2 MUL OR SWAP1 JUMP JUMPDEST ADD MLOAD SWAP1 POP CODESIZE DUP1 PUSH2 0x1875 JUMP JUMPDEST PUSH1 0x1F NOT DUP4 AND SWAP2 PUSH2 0x18A9 DUP6 PUSH1 0x0 MSTORE PUSH1 0x20 PUSH1 0x0 KECCAK256 SWAP1 JUMP JUMPDEST SWAP3 PUSH1 0x0 JUMPDEST DUP2 DUP2 LT PUSH2 0x18E7 JUMPI POP SWAP2 PUSH1 0x2 SWAP4 SWAP2 DUP6 PUSH1 0x1 SWAP7 SWAP5 LT PUSH2 0x18CE JUMPI JUMPDEST POP POP POP MUL ADD SWAP1 SSTORE JUMP JUMPDEST ADD MLOAD PUSH1 0x0 NOT PUSH1 0x8 PUSH1 0x1F DUP6 AND MUL SHR NOT AND SWAP1 SSTORE CODESIZE DUP1 DUP1 PUSH2 0x18C5 JUMP JUMPDEST SWAP2 SWAP4 PUSH1 0x20 PUSH1 0x1 DUP2 SWAP3 DUP8 DUP8 ADD MLOAD DUP2 SSTORE ADD SWAP6 ADD SWAP3 ADD PUSH2 0x18AD JUMP JUMPDEST SWAP1 PUSH2 0x242 SWAP2 PUSH2 0x182C JUMP JUMPDEST SWAP1 PUSH2 0x13DC PUSH2 0x258 PUSH2 0xEEB SWAP3 ISZERO ISZERO SWAP1 JUMP JUMPDEST SWAP1 PUSH21 0xFFFFFFFFFFFFFFFFFFFFFFFFFFFFFFFFFFFFFFFF00 SWAP1 PUSH1 0x8 SHL PUSH2 0xECA JUMP JUMPDEST SWAP1 PUSH2 0x1949 PUSH2 0x258 PUSH2 0xEEB SWAP3 PUSH2 0x5E7 JUMP JUMPDEST DUP3 SLOAD PUSH2 0x1919 JUMP JUMPDEST PUSH2 0x2B6 SWAP1 PUSH2 0x8B6 JUMP JUMPDEST PUSH2 0x2B6 SWAP1 PUSH2 0x5E7 JUMP JUMPDEST SWAP3 SWAP8 SWAP7 SWAP5 PUSH2 0x316 SWAP1 PUSH2 0x19A3 PUSH1 0xC0 SWAP7 PUSH2 0x308 PUSH2 0x199B PUSH2 0x242 SWAP12 SWAP7 PUSH2 0x19AD SWAP9 PUSH2 0x198E PUSH1 0xE0 DUP13 ADD SWAP3 PUSH1 0x0 DUP14 ADD MSTORE JUMP JUMPDEST DUP11 DUP3 SUB PUSH1 0x20 DUP13 ADD MSTORE PUSH2 0x27E JUMP JUMPDEST SWAP13 PUSH1 0x40 DUP10 ADD MSTORE JUMP JUMPDEST PUSH1 0x80 DUP6 ADD SWAP1 PUSH2 0x1950 JUMP JUMPDEST ADD SWAP1 PUSH2 0x1959 JUMP JUMPDEST SWAP3 SWAP1 PUSH1 0x5 PUSH2 0x1A54 SWAP3 SWAP6 SWAP4 SWAP6 PUSH2 0x19CD PUSH2 0x258 DUP7 PUSH1 0x15 PUSH2 0x8C3 JUMP JUMPDEST SWAP1 PUSH2 0x19D8 DUP8 DUP4 PUSH2 0x18FF JUMP JUMPDEST PUSH2 0x19E5 DUP9 PUSH1 0x1 DUP5 ADD PUSH2 0xED4 JUMP JUMPDEST PUSH2 0x19F2 DUP2 PUSH1 0x2 DUP5 ADD PUSH2 0xED4 JUMP JUMPDEST PUSH2 0x1A20 DUP5 PUSH1 0x0 SWAP5 DUP6 SWAP5 PUSH2 0x1A10 PUSH2 0x1A07 DUP8 PUSH2 0x8B6 JUMP JUMPDEST PUSH1 0x3 DUP4 ADD PUSH2 0xED4 JUMP JUMPDEST ADD PUSH2 0x1A1B DUP6 DUP3 PUSH2 0x1909 JUMP JUMPDEST PUSH2 0x1939 JUMP JUMPDEST PUSH32 0x3009567E0613F3581563A052FEA56298ACA1363831103CF6F1CBB8BF5AE122F3 SWAP8 PUSH2 0x1A4B PUSH1 0x40 MLOAD SWAP1 JUMP JUMPDEST SWAP8 DUP9 SWAP8 DUP9 PUSH2 0x1962 JUMP JUMPDEST SUB SWAP1 LOG1 JUMP JUMPDEST SWAP1 PUSH2 0x242 SWAP5 SWAP4 SWAP3 SWAP2 PUSH2 0x1721 JUMP JUMPDEST ISZERO PUSH2 0x1A6D JUMPI JUMP JUMPDEST PUSH1 0x40 MLOAD PUSH3 0x461BCD PUSH1 0xE5 SHL DUP2 MSTORE PUSH1 0x20 PUSH1 0x4 DUP3 ADD MSTORE PUSH1 0x1B PUSH1 0x24 DUP3 ADD MSTORE PUSH32 0x4F6E6C7920636F6E7472696275746F722063616E20766F746520210000000000 PUSH1 0x44 DUP3 ADD MSTORE PUSH1 0x64 SWAP1 REVERT JUMPDEST ISZERO PUSH2 0x1AB9 JUMPI JUMP JUMPDEST PUSH1 0x40 MLOAD PUSH3 0x461BCD PUSH1 0xE5 SHL DUP2 MSTORE PUSH1 0x20 PUSH1 0x4 DUP3 ADD MSTORE PUSH1 0x13 PUSH1 0x24 DUP3 ADD MSTORE PUSH32 0x596F7520616C726561647920766F746564202100000000000000000000000000 PUSH1 0x44 DUP3 ADD MSTORE PUSH1 0x64 SWAP1 REVERT JUMPDEST PUSH1 0x1 PUSH1 0x1 PUSH1 0xA0 SHL SUB SWAP1 SWAP2 AND DUP2 MSTORE PUSH1 0x40 DUP2 ADD SWAP3 SWAP2 PUSH2 0x242 SWAP2 PUSH1 0x20 ADD MSTORE JUMP JUMPDEST CALLER SWAP1 PUSH2 0x1BB8 SWAP1 PUSH2 0x11FE PUSH2 0x1BB2 PUSH1 0x3 PUSH2 0x1BA6 DUP7 PUSH2 0x1BA1 PUSH2 0x1B62 PUSH2 0x258 PUSH2 0x1B42 DUP9 DUP6 PUSH1 0x14 PUSH2 0x5F0 JUMP JUMPDEST SWAP9 PUSH2 0x1B5B PUSH1 0x0 SWAP11 PUSH2 0x1B55 PUSH2 0x1213 DUP14 PUSH2 0x8B6 JUMP JUMPDEST GT PUSH2 0x1A66 JUMP JUMPDEST PUSH1 0x15 PUSH2 0x8C3 JUMP JUMPDEST SWAP7 PUSH2 0x1B8F PUSH1 0x4 DUP10 ADD SWAP2 PUSH2 0x1B89 PUSH2 0x1039 PUSH2 0x1B83 PUSH2 0x1B7E DUP9 DUP8 PUSH2 0x5F0 JUMP JUMPDEST PUSH2 0x8E7 JUMP JUMPDEST SWAP3 ISZERO ISZERO SWAP1 JUMP JUMPDEST EQ PUSH2 0x1AB2 JUMP JUMPDEST PUSH2 0x1B9C PUSH1 0x1 SWAP4 DUP5 SWAP3 PUSH2 0x5F0 JUMP JUMPDEST PUSH2 0x1909 JUMP JUMPDEST PUSH2 0x8B6 JUMP JUMPDEST SWAP4 ADD SWAP3 PUSH2 0x122E DUP5 PUSH2 0x8D4 JUMP JUMPDEST DUP3 PUSH2 0xED4 JUMP JUMPDEST PUSH32 0xA2925E4595BF873FA82C22A1A89809777347023BF2B502D32710157A5EB8199C SWAP2 PUSH2 0x1A54 PUSH2 0x1BE6 PUSH1 0x40 MLOAD SWAP1 JUMP JUMPDEST SWAP3 DUP4 SWAP3 DUP4 PUSH2 0x1AFE JUMP JUMPDEST SWAP1 PUSH2 0x242 SWAP3 SWAP2 PUSH2 0x1C11 CALLER PUSH2 0x1745 PUSH2 0xEAC PUSH2 0xEA7 PUSH1 0x4 SLOAD PUSH1 0x1 PUSH1 0x1 PUSH1 0xA0 SHL SUB AND SWAP1 JUMP JUMPDEST SWAP1 PUSH2 0x242 SWAP3 SWAP2 PUSH2 0x1C2C PUSH1 0x2 PUSH2 0x1590 PUSH2 0x158A PUSH2 0x1584 PUSH1 0xE PUSH2 0x8E7 JUMP JUMPDEST PUSH2 0x1C40 TIMESTAMP PUSH2 0x15AA PUSH2 0x1213 PUSH2 0x258 PUSH1 0x7 PUSH2 0x8D4 JUMP JUMPDEST PUSH2 0x1E82 JUMP JUMPDEST ISZERO PUSH2 0x1C4C JUMPI JUMP JUMPDEST PUSH1 0x40 MLOAD PUSH3 0x461BCD PUSH1 0xE5 SHL DUP2 MSTORE PUSH1 0x20 PUSH1 0x4 DUP3 ADD MSTORE PUSH1 0x19 PUSH1 0x24 DUP3 ADD MSTORE PUSH32 0x5265717565737420616C726561647920636F6D706C6574656400000000000000 PUSH1 0x44 DUP3 ADD MSTORE PUSH1 0x64 SWAP1 REVERT JUMPDEST PUSH4 0x4E487B71 PUSH1 0xE0 SHL PUSH1 0x0 MSTORE PUSH1 0x12 PUSH1 0x4 MSTORE PUSH1 0x24 PUSH1 0x0 REVERT JUMPDEST DUP2 ISZERO PUSH2 0x1CB1 JUMPI DIV SWAP1 JUMP JUMPDEST PUSH2 0x1C91 JUMP JUMPDEST ISZERO PUSH2 0x1CBD JUMPI JUMP JUMPDEST PUSH1 0x40 MLOAD PUSH3 0x461BCD PUSH1 0xE5 SHL DUP2 MSTORE PUSH1 0x20 PUSH1 0x4 DUP3 ADD MSTORE PUSH1 0x36 PUSH1 0x24 DUP3 ADD MSTORE PUSH32 0x4174206C656173742032302520636F6E7472696275746F72206E65656420746F PUSH1 0x44 DUP3 ADD MSTORE PUSH32 0x20766F746520666F722074686973207265717565737400000000000000000000 PUSH1 0x64 DUP3 ADD MSTORE PUSH1 0x84 SWAP1 REVERT JUMPDEST ISZERO PUSH2 0x1D2F JUMPI JUMP JUMPDEST PUSH1 0x40 MLOAD PUSH3 0x461BCD PUSH1 0xE5 SHL DUP2 MSTORE PUSH1 0x20 PUSH1 0x4 DUP3 ADD MSTORE PUSH1 0x3E PUSH1 0x24 DUP3 ADD MSTORE PUSH32 0x50726F6A65637420636F6E747261637420646F6573206E6F7420686176652065 PUSH1 0x44 DUP3 ADD MSTORE PUSH32 0x6E6F75676820555344542062616C616E636520746F2064697362757273650000 PUSH1 0x64 DUP3 ADD MSTORE PUSH1 0x84 SWAP1 REVERT JUMPDEST ISZERO PUSH2 0x1DA1 JUMPI JUMP JUMPDEST PUSH1 0x40 MLOAD PUSH3 0x461BCD PUSH1 0xE5 SHL DUP2 MSTORE PUSH1 0x20 PUSH1 0x4 DUP3 ADD MSTORE PUSH1 0x3E PUSH1 0x24 DUP3 ADD MSTORE PUSH32 0x50726F6A65637420636F6E747261637420646F6573206E6F7420686176652065 PUSH1 0x44 DUP3 ADD MSTORE PUSH32 0x6E6F75676820555344432062616C616E636520746F2064697362757273650000 PUSH1 0x64 DUP3 ADD MSTORE PUSH1 0x84 SWAP1 REVERT JUMPDEST DUP2 DUP2 MUL SWAP3 SWAP2 DUP2 ISZERO SWAP2 DUP5 DIV EQ OR ISZERO PUSH2 0x110E JUMPI JUMP JUMPDEST PUSH1 0x1 PUSH1 0x1 PUSH1 0xA0 SHL SUB SWAP1 SWAP2 AND DUP2 MSTORE PUSH1 0x60 DUP2 ADD SWAP4 SWAP3 PUSH2 0x242 SWAP3 SWAP1 SWAP2 PUSH1 0x40 SWAP2 PUSH2 0x11B8 SWAP1 PUSH1 0x20 DUP4 ADD SWAP1 PUSH2 0x1959 JUMP JUMPDEST SWAP3 SWAP8 SWAP7 SWAP5 PUSH2 0x316 SWAP1 PUSH2 0x30F PUSH1 0xC0 SWAP7 PUSH2 0x308 PUSH2 0x199B PUSH2 0x242 SWAP12 SWAP7 PUSH2 0x19AD SWAP9 PUSH2 0x1E75 PUSH1 0xE0 DUP13 ADD SWAP3 PUSH1 0x0 DUP14 ADD MSTORE JUMP JUMPDEST DUP11 DUP3 SUB PUSH1 0x20 DUP13 ADD MSTORE PUSH2 0x427 JUMP JUMPDEST SWAP2 SWAP1 SWAP2 PUSH2 0x1E93 PUSH2 0x258 DUP3 PUSH1 0x15 PUSH2 0x8C3 JUMP JUMPDEST SWAP2 PUSH2 0x1EB3 PUSH2 0x1EA3 PUSH1 0x5 DUP6 ADD PUSH2 0x8E7 JUMP JUMPDEST PUSH2 0x1EAD PUSH1 0x0 PUSH2 0x1039 JUMP JUMPDEST EQ PUSH2 0x1C45 JUMP JUMPDEST PUSH2 0x1EBF PUSH1 0x3 DUP5 ADD PUSH2 0x8D4 JUMP JUMPDEST SWAP1 PUSH2 0x1EF0 PUSH2 0x1ECD PUSH1 0xB PUSH2 0x8D4 JUMP JUMPDEST SWAP3 PUSH2 0x1EE9 PUSH2 0x1213 PUSH2 0x258 PUSH1 0x5 SWAP7 PUSH2 0x1EE3 DUP9 PUSH2 0x8B6 JUMP JUMPDEST SWAP1 PUSH2 0x1CA7 JUMP JUMPDEST LT ISZERO PUSH2 0x1CB6 JUMP JUMPDEST PUSH2 0x1F05 PUSH2 0x1EFF PUSH1 0x1 DUP7 ADD PUSH2 0x8D4 JUMP JUMPDEST SWAP6 PUSH2 0x5E7 JUMP JUMPDEST SWAP2 PUSH4 0x70A08231 PUSH2 0x1F14 ADDRESS PUSH2 0x5E7 JUMP JUMPDEST SWAP7 PUSH2 0x1F1E PUSH1 0x40 MLOAD SWAP1 JUMP JUMPDEST SWAP1 PUSH2 0x1F29 DUP4 PUSH1 0xE0 SHL SWAP1 JUMP JUMPDEST DUP3 MSTORE PUSH1 0x1 PUSH1 0x1 PUSH1 0xA0 SHL SUB DUP10 AND PUSH1 0x4 DUP4 ADD MSTORE PUSH1 0x20 DUP3 PUSH1 0x24 DUP2 DUP10 GAS STATICCALL DUP1 ISZERO PUSH2 0x1365 JUMPI PUSH2 0x1213 PUSH2 0x1F5F SWAP2 PUSH2 0x1F66 SWAP5 PUSH1 0x0 SWAP2 PUSH2 0x14BB JUMPI POP SWAP1 JUMP JUMPDEST GT ISZERO PUSH2 0x1D28 JUMP JUMPDEST PUSH2 0x1F7B PUSH2 0x1F75 PUSH1 0x2 DUP9 ADD PUSH2 0x8D4 JUMP JUMPDEST SWAP4 PUSH2 0x5E7 JUMP JUMPDEST SWAP3 PUSH2 0x1F8F PUSH2 0x1F88 PUSH1 0x40 MLOAD SWAP1 JUMP JUMPDEST SWAP3 PUSH1 0xE0 SHL SWAP1 JUMP JUMPDEST DUP3 MSTORE PUSH1 0x1 PUSH1 0x1 PUSH1 0xA0 SHL SUB DUP9 AND PUSH1 0x4 DUP4 ADD MSTORE PUSH1 0x20 DUP3 PUSH1 0x24 DUP2 DUP8 GAS STATICCALL DUP1 ISZERO PUSH2 0x1365 JUMPI PUSH2 0x1213 PUSH2 0x1FC5 SWAP2 PUSH2 0x1FCC SWAP5 PUSH1 0x0 SWAP2 PUSH2 0x14BB JUMPI POP SWAP1 JUMP JUMPDEST GT ISZERO PUSH2 0x1D9A JUMP JUMPDEST DUP5 ADD SWAP5 PUSH2 0x202D PUSH1 0x20 PUSH2 0x1FDD DUP9 PUSH2 0x8FD JUMP JUMPDEST PUSH2 0x2009 PUSH2 0x1FF9 PUSH2 0x1FEF PUSH1 0x1 DUP12 ADD PUSH2 0x8D4 JUMP JUMPDEST PUSH2 0x1EE3 PUSH1 0x32 PUSH2 0x8B6 JUMP JUMPDEST PUSH2 0x2003 PUSH1 0x31 PUSH2 0x8B6 JUMP JUMPDEST SWAP1 PUSH2 0x1E0C JUMP JUMPDEST SWAP1 PUSH2 0x2013 PUSH1 0x40 MLOAD SWAP1 JUMP JUMPDEST SWAP4 DUP5 SWAP3 DUP4 SWAP3 PUSH4 0x23B872DD PUSH1 0xE0 SHL JUMPDEST DUP5 MSTORE DUP8 PUSH1 0x4 DUP6 ADD PUSH2 0x1E1F JUMP JUMPDEST SUB DUP2 PUSH1 0x0 DUP9 GAS CALL DUP1 ISZERO PUSH2 0x1365 JUMPI PUSH2 0x23A9 JUMPI JUMPDEST POP PUSH2 0x2060 PUSH1 0x20 PUSH2 0x204E DUP9 PUSH2 0x8FD JUMP JUMPDEST PUSH2 0x2009 PUSH2 0x1FF9 PUSH2 0x1FEF PUSH1 0x2 DUP12 ADD PUSH2 0x8D4 JUMP JUMPDEST SUB DUP2 PUSH1 0x0 DUP8 GAS CALL DUP1 ISZERO PUSH2 0x1365 JUMPI PUSH2 0x238D JUMPI JUMPDEST POP TIMESTAMP PUSH2 0x2084 PUSH2 0x1213 PUSH2 0x258 PUSH1 0x3 PUSH2 0x8D4 JUMP JUMPDEST GT PUSH2 0x22E4 JUMPI PUSH2 0x20D6 SWAP3 PUSH1 0x20 PUSH2 0x20A1 PUSH1 0x1 SLOAD PUSH1 0x1 PUSH1 0x1 PUSH1 0xA0 SHL SUB AND SWAP1 JUMP JUMPDEST PUSH2 0x20BA PUSH2 0x20B0 PUSH1 0x1 DUP11 ADD PUSH2 0x8D4 JUMP JUMPDEST PUSH2 0x1EE3 PUSH1 0x64 PUSH2 0x8B6 JUMP JUMPDEST SWAP1 PUSH2 0x20C4 PUSH1 0x40 MLOAD SWAP1 JUMP JUMPDEST SWAP7 DUP8 SWAP3 DUP4 SWAP3 PUSH4 0x23B872DD PUSH1 0xE0 SHL PUSH2 0x2021 JUMP JUMPDEST SUB DUP2 PUSH1 0x0 DUP6 GAS CALL SWAP1 DUP2 ISZERO PUSH2 0x1365 JUMPI PUSH2 0x2139 SWAP5 PUSH1 0x20 SWAP3 PUSH2 0x22C9 JUMPI JUMPDEST POP PUSH1 0x2 SLOAD PUSH1 0x1 PUSH1 0x1 PUSH1 0xA0 SHL SUB AND SWAP1 PUSH2 0x210D PUSH2 0x20B0 PUSH1 0x1 DUP11 ADD PUSH2 0x8D4 JUMP JUMPDEST SWAP2 PUSH1 0x0 PUSH2 0x2119 PUSH1 0x40 MLOAD SWAP1 JUMP JUMPDEST DUP1 SWAP9 DUP2 SWAP6 DUP3 SWAP5 PUSH2 0x212D PUSH4 0x23B872DD PUSH1 0xE0 SHL SWAP1 JUMP JUMPDEST DUP5 MSTORE DUP10 PUSH1 0x4 DUP6 ADD PUSH2 0x1E1F JUMP JUMPDEST SUB SWAP3 GAS CALL SWAP3 DUP4 ISZERO PUSH2 0x1365 JUMPI PUSH2 0x2194 SWAP4 PUSH2 0x22AD JUMPI JUMPDEST POP PUSH1 0x20 PUSH2 0x2162 PUSH1 0x1 SLOAD PUSH1 0x1 PUSH1 0x1 PUSH1 0xA0 SHL SUB AND SWAP1 JUMP JUMPDEST PUSH2 0x2171 PUSH2 0x20B0 PUSH1 0x2 DUP10 ADD PUSH2 0x8D4 JUMP JUMPDEST SWAP1 PUSH2 0x217B PUSH1 0x40 MLOAD SWAP1 JUMP JUMPDEST SWAP6 DUP7 SWAP3 DUP4 SWAP3 PUSH4 0x23B872DD PUSH1 0xE0 SHL DUP5 MSTORE DUP7 PUSH1 0x4 DUP6 ADD PUSH2 0x1E1F JUMP JUMPDEST SUB DUP2 PUSH1 0x0 DUP7 GAS CALL SWAP2 DUP3 ISZERO PUSH2 0x1365 JUMPI PUSH2 0x21F0 SWAP4 PUSH1 0x20 SWAP4 PUSH2 0x2292 JUMPI JUMPDEST POP PUSH1 0x2 SLOAD PUSH1 0x1 PUSH1 0x1 PUSH1 0xA0 SHL SUB AND PUSH1 0x0 PUSH2 0x21CC PUSH2 0x20B0 PUSH1 0x2 DUP11 ADD PUSH2 0x8D4 JUMP JUMPDEST SWAP4 PUSH2 0x21D6 PUSH1 0x40 MLOAD SWAP1 JUMP JUMPDEST SWAP7 DUP8 SWAP6 DUP7 SWAP5 DUP6 SWAP4 PUSH4 0x23B872DD PUSH1 0xE0 SHL DUP6 MSTORE PUSH1 0x4 DUP6 ADD PUSH2 0x1E1F JUMP JUMPDEST SUB SWAP3 GAS CALL DUP1 ISZERO PUSH2 0x1365 JUMPI PUSH2 0x2276 JUMPI JUMPDEST POP JUMPDEST PUSH2 0x1A54 PUSH1 0x1 SWAP3 PUSH2 0x2211 DUP5 DUP7 PUSH2 0x1909 JUMP JUMPDEST PUSH1 0x0 DUP2 ADD SWAP4 DUP1 DUP3 ADD SWAP6 PUSH2 0x2241 PUSH2 0x223B PUSH1 0x3 PUSH2 0x2234 PUSH2 0x222E DUP12 PUSH2 0x8D4 JUMP JUMPDEST SWAP11 PUSH2 0x8D4 JUMP JUMPDEST SWAP6 ADD PUSH2 0x8D4 JUMP JUMPDEST SWAP2 PUSH2 0x8FD JUMP JUMPDEST SWAP3 PUSH32 0x7A5218350187D3AB901AE3C2001A4348CE5A2089AC30CE35D2FC55B53FEAC2A5 SWAP8 PUSH2 0x226D PUSH1 0x40 MLOAD SWAP1 JUMP JUMPDEST SWAP8 DUP9 SWAP8 DUP9 PUSH2 0x1E49 JUMP JUMPDEST PUSH2 0x228D SWAP1 PUSH1 0x20 RETURNDATASIZE DUP2 GT PUSH2 0x135E JUMPI PUSH2 0x1351 DUP2 DUP4 PUSH2 0x4CB JUMP JUMPDEST PUSH2 0x21FF JUMP JUMPDEST PUSH2 0x22A8 SWAP1 DUP5 RETURNDATASIZE DUP2 GT PUSH2 0x135E JUMPI PUSH2 0x1351 DUP2 DUP4 PUSH2 0x4CB JUMP JUMPDEST PUSH2 0x21AE JUMP JUMPDEST PUSH2 0x22C4 SWAP1 PUSH1 0x20 RETURNDATASIZE DUP2 GT PUSH2 0x135E JUMPI PUSH2 0x1351 DUP2 DUP4 PUSH2 0x4CB JUMP JUMPDEST PUSH2 0x214D JUMP JUMPDEST PUSH2 0x22DF SWAP1 DUP4 RETURNDATASIZE DUP2 GT PUSH2 0x135E JUMPI PUSH2 0x1351 DUP2 DUP4 PUSH2 0x4CB JUMP JUMPDEST PUSH2 0x20F0 JUMP JUMPDEST PUSH1 0x20 PUSH2 0x230C SWAP4 PUSH2 0x22FC PUSH1 0x1 SLOAD PUSH1 0x1 PUSH1 0x1 PUSH1 0xA0 SHL SUB AND SWAP1 JUMP JUMPDEST SWAP1 PUSH2 0x210D PUSH2 0x1FEF PUSH1 0x1 DUP11 ADD PUSH2 0x8D4 JUMP JUMPDEST SUB SWAP3 GAS CALL SWAP2 DUP3 ISZERO PUSH2 0x1365 JUMPI PUSH2 0x2341 SWAP4 PUSH1 0x20 SWAP4 PUSH2 0x2372 JUMPI JUMPDEST POP PUSH1 0x1 SLOAD PUSH1 0x1 PUSH1 0x1 PUSH1 0xA0 SHL SUB AND PUSH1 0x0 PUSH2 0x21CC PUSH2 0x1FEF PUSH1 0x2 DUP11 ADD PUSH2 0x8D4 JUMP JUMPDEST SUB SWAP3 GAS CALL DUP1 ISZERO PUSH2 0x1365 JUMPI PUSH2 0x2356 JUMPI JUMPDEST POP PUSH2 0x2201 JUMP JUMPDEST PUSH2 0x236D SWAP1 PUSH1 0x20 RETURNDATASIZE DUP2 GT PUSH2 0x135E JUMPI PUSH2 0x1351 DUP2 DUP4 PUSH2 0x4CB JUMP JUMPDEST PUSH2 0x2350 JUMP JUMPDEST PUSH2 0x2388 SWAP1 DUP5 RETURNDATASIZE DUP2 GT PUSH2 0x135E JUMPI PUSH2 0x1351 DUP2 DUP4 PUSH2 0x4CB JUMP JUMPDEST PUSH2 0x2323 JUMP JUMPDEST PUSH2 0x23A4 SWAP1 PUSH1 0x20 RETURNDATASIZE DUP2 GT PUSH2 0x135E JUMPI PUSH2 0x1351 DUP2 DUP4 PUSH2 0x4CB JUMP JUMPDEST PUSH2 0x2072 JUMP JUMPDEST PUSH2 0x23C0 SWAP1 PUSH1 0x20 RETURNDATASIZE DUP2 GT PUSH2 0x135E JUMPI PUSH2 0x1351 DUP2 DUP4 PUSH2 0x4CB JUMP JUMPDEST PUSH2 0x203F JUMP JUMPDEST SWAP1 PUSH2 0x242 SWAP3 SWAP2 PUSH2 0x1BEF JUMP JUMPDEST PUSH2 0x258 SWAP1 PUSH2 0x4F2 JUMP JUMPDEST PUSH1 0x4 SLOAD PUSH1 0x1 PUSH1 0x1 PUSH1 0xA0 SHL SUB AND SWAP1 PUSH2 0x23F0 PUSH1 0x7 PUSH2 0x8D4 JUMP JUMPDEST SWAP1 PUSH2 0x23FB PUSH1 0x8 PUSH2 0x8D4 JUMP JUMPDEST SWAP2 PUSH2 0x2406 PUSH1 0x9 PUSH2 0x8D4 JUMP JUMPDEST SWAP3 PUSH2 0x2411 PUSH1 0xA PUSH2 0x8D4 JUMP JUMPDEST SWAP3 PUSH2 0x241C PUSH1 0xC PUSH2 0x23D0 JUMP JUMPDEST SWAP5 PUSH2 0x2427 PUSH1 0xD PUSH2 0x23D0 JUMP JUMPDEST SWAP5 PUSH2 0x2432 PUSH1 0xE PUSH2 0x8E7 JUMP JUMPDEST SWAP7 PUSH2 0x243C ADDRESS PUSH2 0x5E7 JUMP JUMPDEST BALANCE SWAP7 PUSH2 0x2448 PUSH1 0xF PUSH2 0x23D0 JUMP JUMPDEST SWAP9 PUSH2 0x2453 PUSH1 0x10 PUSH2 0x23D0 JUMP JUMPDEST SWAP9 PUSH2 0x245E PUSH1 0x11 PUSH2 0x23D0 JUMP JUMPDEST SWAP11 PUSH2 0x2469 PUSH1 0x12 PUSH2 0x23D0 JUMP JUMPDEST SWAP11 PUSH2 0x247C PUSH1 0x5 SLOAD PUSH1 0x1 PUSH1 0x1 PUSH1 0xA0 SHL SUB AND SWAP1 JUMP JUMPDEST SWAP13 PUSH2 0x248F PUSH1 0x6 SLOAD PUSH1 0x1 PUSH1 0x1 PUSH1 0xA0 SHL SUB AND SWAP1 JUMP JUMPDEST SWAP13 PUSH2 0x249A PUSH1 0xB PUSH2 0x8D4 JUMP JUMPDEST SWAP11 JUMP JUMPDEST PUSH2 0x258 PUSH2 0x24B4 SWAP2 PUSH2 0x24AC PUSH1 0x60 SWAP1 JUMP JUMPDEST POP PUSH1 0x15 PUSH2 0x8C3 JUMP JUMPDEST SWAP1 PUSH2 0x24BF PUSH1 0xB PUSH2 0x8D4 JUMP JUMPDEST SWAP1 PUSH2 0x24C9 DUP4 PUSH2 0x23D0 JUMP JUMPDEST SWAP3 PUSH2 0x24D6 PUSH1 0x1 DUP3 ADD PUSH2 0x8D4 JUMP JUMPDEST SWAP3 PUSH2 0x24E3 PUSH1 0x2 DUP4 ADD PUSH2 0x8D4 JUMP JUMPDEST SWAP3 PUSH1 0x5 PUSH2 0x24F2 PUSH1 0x3 DUP6 ADD PUSH2 0x8D4 JUMP JUMPDEST SWAP4 ADD SWAP1 PUSH2 0x258 PUSH2 0x2501 DUP4 PUSH2 0x8E7 JUMP JUMPDEST SWAP3 PUSH2 0x8FD JUMP INVALID LOG2 PUSH5 0x6970667358 0x22 SLT KECCAK256 PUSH14 0xFC673C5602B7F8F01A684DBF2FAA DUP14 0xD2 0x23 SWAP13 DUP12 0xA7 SAR 0x24 0xC1 0xC3 XOR BLOCKHASH 0xE3 0xD2 0x5C CALLVALUE PUSH31 0x64736F6C634300081200330000000000000000000000000000000000000000 "},"methodIdentifiers":{"completeAt()":"4c4cea5a","contribute(address,uint256,address)":"4cbc1553","contributiors(address)":"0a771370","createWithdrawRequest(string,address,uint256,uint256,uint256)":"d8abe8be","creator()":"02d05d3f","deadline()":"29dcb0cf","developer()":"ca4b208b","filterTags()":"a278a485","getContractBNBBalance()":"07d94e4a","getContractBalance(address)":"43ab265f","getProjectDetails()":"ff3a9c7e","githubUrl()":"18aa9f1e","isRevealed()":"54214f69","isVerified()":"80007e83","noOfContributers()":"24274ee9","numOfWithdrawRequests()":"b40141bf","projectCoverUrl()":"5eb32936","projectDes()":"03c29d58","projectTitle()":"c3e20c9f","raisedAmount()":"c59ee1dc","requestRefund()":"d5cef133","royaltyGraceExpiry()":"263a58aa","setRoyaltyGracePeriod(uint256)":"d688cf53","setVerification(bool)":"e9d1edde","setVisibility(bool)":"28c30c07","showDetailOfWR(uint256)":"0203d002","socialUrl()":"d1707551","state()":"c19d93fb","targetContribution()":"b82c86d6","voteWithdrawRequest(uint256)":"4e695a37","websiteUrl()":"abb5ca09","withdrawRequestedAmount(uint256,address,address)":"0add6b73","withdrawRequests(uint256)":"992a7dfb"}}}}}