{
  "_format": "hh-sol-artifact-1",
  "contractName": "Project",
  "sourceName": "contracts/Project.sol",
  "abi": [
    {
      "inputs": [
        {
          "internalType": "address",
          "name": "_owner",
          "type": "address"
        },
        {
          "internalType": "address",
          "name": "_creator",
          "type": "address"
        },
        {
          "internalType": "address",
          "name": "_masterContract",
          "type": "address"
        },
        {
          "internalType": "address",
          "name": "_usdt",
          "type": "address"
        },
        {
          "internalType": "address",
          "name": "_usdc",
          "type": "address"
        },
        {
          "internalType": "uint256",
          "name": "_minimumContribution",
          "type": "uint256"
        },
        {
          "internalType": "uint256",
          "name": "_deadline",
          "type": "uint256"
        },
        {
          "internalType": "uint256",
          "name": "_targetContribution",
          "type": "uint256"
        },
        {
          "internalType": "string",
          "name": "_projectTitle",
          "type": "string"
        },
        {
          "internalType": "string",
          "name": "_projectDes",
          "type": "string"
        },
        {
          "internalType": "string",
          "name": "_websiteUrl",
          "type": "string"
        },
        {
          "internalType": "string",
          "name": "_socialUrl",
          "type": "string"
        },
        {
          "internalType": "string",
          "name": "_githubUrl",
          "type": "string"
        },
        {
          "internalType": "string",
          "name": "_projectCoverUrl",
          "type": "string"
        },
        {
          "internalType": "string",
          "name": "_filterTags",
          "type": "string"
        }
      ],
      "stateMutability": "nonpayable",
      "type": "constructor"
    },
    {
      "anonymous": false,
      "inputs": [
        {
          "indexed": false,
          "internalType": "uint256",
          "name": "requestId",
          "type": "uint256"
        },
        {
          "indexed": false,
          "internalType": "string",
          "name": "description",
          "type": "string"
        },
        {
          "indexed": false,
          "internalType": "address",
          "name": "withdrawToken",
          "type": "address"
        },
        {
          "indexed": false,
          "internalType": "uint256",
          "name": "amount",
          "type": "uint256"
        },
        {
          "indexed": false,
          "internalType": "uint256",
          "name": "noOfVotes",
          "type": "uint256"
        },
        {
          "indexed": false,
          "internalType": "bool",
          "name": "isCompleted",
          "type": "bool"
        },
        {
          "indexed": false,
          "internalType": "address",
          "name": "reciptent",
          "type": "address"
        }
      ],
      "name": "AmountWithdrawSuccessful",
      "type": "event"
    },
    {
      "anonymous": false,
      "inputs": [
        {
          "indexed": false,
          "internalType": "address",
          "name": "contributor",
          "type": "address"
        },
        {
          "indexed": false,
          "internalType": "uint256",
          "name": "amount",
          "type": "uint256"
        },
        {
          "indexed": false,
          "internalType": "uint256",
          "name": "currentTotal",
          "type": "uint256"
        }
      ],
      "name": "FundingReceived",
      "type": "event"
    },
    {
      "anonymous": false,
      "inputs": [
        {
          "indexed": false,
          "internalType": "uint256",
          "name": "requestId",
          "type": "uint256"
        },
        {
          "indexed": false,
          "internalType": "string",
          "name": "description",
          "type": "string"
        },
        {
          "indexed": false,
          "internalType": "string",
          "name": "tokenName",
          "type": "string"
        },
        {
          "indexed": false,
          "internalType": "uint256",
          "name": "amount",
          "type": "uint256"
        },
        {
          "indexed": false,
          "internalType": "uint256",
          "name": "noOfVotes",
          "type": "uint256"
        },
        {
          "indexed": false,
          "internalType": "bool",
          "name": "isCompleted",
          "type": "bool"
        },
        {
          "indexed": false,
          "internalType": "address",
          "name": "reciptent",
          "type": "address"
        }
      ],
      "name": "WithdrawRequestCreated",
      "type": "event"
    },
    {
      "anonymous": false,
      "inputs": [
        {
          "indexed": false,
          "internalType": "address",
          "name": "voter",
          "type": "address"
        },
        {
          "indexed": false,
          "internalType": "uint256",
          "name": "totalVote",
          "type": "uint256"
        }
      ],
      "name": "WithdrawVote",
      "type": "event"
    },
    {
      "inputs": [],
      "name": "completeAt",
      "outputs": [
        {
          "internalType": "uint256",
          "name": "",
          "type": "uint256"
        }
      ],
      "stateMutability": "view",
      "type": "function"
    },
    {
      "inputs": [
        {
          "internalType": "address",
          "name": "_contributor",
          "type": "address"
        },
        {
          "internalType": "uint256",
          "name": "amount",
          "type": "uint256"
        },
        {
          "internalType": "contract IERC20",
          "name": "tokenAddress",
          "type": "address"
        }
      ],
      "name": "contribute",
      "outputs": [],
      "stateMutability": "nonpayable",
      "type": "function"
    },
    {
      "inputs": [
        {
          "internalType": "address",
          "name": "",
          "type": "address"
        }
      ],
      "name": "contributiors",
      "outputs": [
        {
          "internalType": "uint256",
          "name": "",
          "type": "uint256"
        }
      ],
      "stateMutability": "view",
      "type": "function"
    },
    {
      "inputs": [
        {
          "internalType": "string",
          "name": "_description",
          "type": "string"
        },
        {
          "internalType": "uint256",
          "name": "_amount",
          "type": "uint256"
        },
        {
          "internalType": "address payable",
          "name": "_reciptent",
          "type": "address"
        },
        {
          "internalType": "address",
          "name": "_withdrawToken",
          "type": "address"
        },
        {
          "internalType": "string",
          "name": "_tokenName",
          "type": "string"
        },
        {
          "internalType": "uint256",
          "name": "_requestId",
          "type": "uint256"
        }
      ],
      "name": "createWithdrawRequest",
      "outputs": [],
      "stateMutability": "nonpayable",
      "type": "function"
    },
    {
      "inputs": [],
      "name": "creator",
      "outputs": [
        {
          "internalType": "address payable",
          "name": "",
          "type": "address"
        }
      ],
      "stateMutability": "view",
      "type": "function"
    },
    {
      "inputs": [],
      "name": "deadline",
      "outputs": [
        {
          "internalType": "uint256",
          "name": "",
          "type": "uint256"
        }
      ],
      "stateMutability": "view",
      "type": "function"
    },
    {
      "inputs": [],
      "name": "developer",
      "outputs": [
        {
          "internalType": "address payable",
          "name": "",
          "type": "address"
        }
      ],
      "stateMutability": "view",
      "type": "function"
    },
    {
      "inputs": [],
      "name": "filterTags",
      "outputs": [
        {
          "internalType": "string",
          "name": "",
          "type": "string"
        }
      ],
      "stateMutability": "view",
      "type": "function"
    },
    {
      "inputs": [],
      "name": "getContractBNBBalance",
      "outputs": [
        {
          "internalType": "uint256",
          "name": "",
          "type": "uint256"
        }
      ],
      "stateMutability": "view",
      "type": "function"
    },
    {
      "inputs": [
        {
          "internalType": "contract IERC20",
          "name": "tokenAddress",
          "type": "address"
        }
      ],
      "name": "getContractBalance",
      "outputs": [
        {
          "internalType": "uint256",
          "name": "",
          "type": "uint256"
        }
      ],
      "stateMutability": "view",
      "type": "function"
    },
    {
      "inputs": [],
      "name": "getProjectDetails",
      "outputs": [
        {
          "internalType": "address payable",
          "name": "projectStarter",
          "type": "address"
        },
        {
          "internalType": "address payable",
          "name": "usdtA",
          "type": "address"
        },
        {
          "internalType": "address payable",
          "name": "usdcA",
          "type": "address"
        },
        {
          "internalType": "uint256",
          "name": "minContribution",
          "type": "uint256"
        },
        {
          "internalType": "uint256",
          "name": "projectDeadline",
          "type": "uint256"
        },
        {
          "internalType": "uint256",
          "name": "goalAmount",
          "type": "uint256"
        },
        {
          "internalType": "uint256",
          "name": "completedTime",
          "type": "uint256"
        },
        {
          "internalType": "uint256",
          "name": "currentAmount",
          "type": "uint256"
        },
        {
          "internalType": "string",
          "name": "title",
          "type": "string"
        },
        {
          "internalType": "string",
          "name": "desc",
          "type": "string"
        },
        {
          "internalType": "enum Project.State",
          "name": "currentState",
          "type": "uint8"
        },
        {
          "internalType": "uint256",
          "name": "balance",
          "type": "uint256"
        },
        {
          "internalType": "string",
          "name": "website",
          "type": "string"
        },
        {
          "internalType": "string",
          "name": "social",
          "type": "string"
        },
        {
          "internalType": "string",
          "name": "github",
          "type": "string"
        },
        {
          "internalType": "string",
          "name": "projectCover",
          "type": "string"
        }
      ],
      "stateMutability": "view",
      "type": "function"
    },
    {
      "inputs": [],
      "name": "githubUrl",
      "outputs": [
        {
          "internalType": "string",
          "name": "",
          "type": "string"
        }
      ],
      "stateMutability": "view",
      "type": "function"
    },
    {
      "inputs": [],
      "name": "isRevealed",
      "outputs": [
        {
          "internalType": "bool",
          "name": "",
          "type": "bool"
        }
      ],
      "stateMutability": "view",
      "type": "function"
    },
    {
      "inputs": [],
      "name": "isVerified",
      "outputs": [
        {
          "internalType": "bool",
          "name": "",
          "type": "bool"
        }
      ],
      "stateMutability": "view",
      "type": "function"
    },
    {
      "inputs": [],
      "name": "minimumContribution",
      "outputs": [
        {
          "internalType": "uint256",
          "name": "",
          "type": "uint256"
        }
      ],
      "stateMutability": "view",
      "type": "function"
    },
    {
      "inputs": [],
      "name": "noOfContributers",
      "outputs": [
        {
          "internalType": "uint256",
          "name": "",
          "type": "uint256"
        }
      ],
      "stateMutability": "view",
      "type": "function"
    },
    {
      "inputs": [],
      "name": "numOfWithdrawRequests",
      "outputs": [
        {
          "internalType": "uint256",
          "name": "",
          "type": "uint256"
        }
      ],
      "stateMutability": "view",
      "type": "function"
    },
    {
      "inputs": [],
      "name": "projectCoverUrl",
      "outputs": [
        {
          "internalType": "string",
          "name": "",
          "type": "string"
        }
      ],
      "stateMutability": "view",
      "type": "function"
    },
    {
      "inputs": [],
      "name": "projectDes",
      "outputs": [
        {
          "internalType": "string",
          "name": "",
          "type": "string"
        }
      ],
      "stateMutability": "view",
      "type": "function"
    },
    {
      "inputs": [],
      "name": "projectTitle",
      "outputs": [
        {
          "internalType": "string",
          "name": "",
          "type": "string"
        }
      ],
      "stateMutability": "view",
      "type": "function"
    },
    {
      "inputs": [],
      "name": "raisedAmount",
      "outputs": [
        {
          "internalType": "uint256",
          "name": "",
          "type": "uint256"
        }
      ],
      "stateMutability": "view",
      "type": "function"
    },
    {
      "inputs": [],
      "name": "requestRefund",
      "outputs": [
        {
          "internalType": "bool",
          "name": "",
          "type": "bool"
        }
      ],
      "stateMutability": "nonpayable",
      "type": "function"
    },
    {
      "inputs": [],
      "name": "royaltyGraceExpiry",
      "outputs": [
        {
          "internalType": "uint256",
          "name": "",
          "type": "uint256"
        }
      ],
      "stateMutability": "view",
      "type": "function"
    },
    {
      "inputs": [
        {
          "internalType": "uint256",
          "name": "unixTs",
          "type": "uint256"
        }
      ],
      "name": "setRoyaltyGracePeriod",
      "outputs": [],
      "stateMutability": "nonpayable",
      "type": "function"
    },
    {
      "inputs": [
        {
          "internalType": "bool",
          "name": "verified",
          "type": "bool"
        }
      ],
      "name": "setVerification",
      "outputs": [],
      "stateMutability": "nonpayable",
      "type": "function"
    },
    {
      "inputs": [
        {
          "internalType": "bool",
          "name": "isVisible",
          "type": "bool"
        }
      ],
      "name": "setVisibility",
      "outputs": [],
      "stateMutability": "nonpayable",
      "type": "function"
    },
    {
      "inputs": [
        {
          "internalType": "uint256",
          "name": "_requestId",
          "type": "uint256"
        }
      ],
      "name": "showDetailOfWR",
      "outputs": [
        {
          "internalType": "string",
          "name": "description",
          "type": "string"
        },
        {
          "internalType": "address",
          "name": "withdrawToken",
          "type": "address"
        },
        {
          "internalType": "string",
          "name": "tokenName",
          "type": "string"
        },
        {
          "internalType": "uint256",
          "name": "amount",
          "type": "uint256"
        },
        {
          "internalType": "uint256",
          "name": "noOfVotes",
          "type": "uint256"
        },
        {
          "internalType": "uint256",
          "name": "contributors",
          "type": "uint256"
        },
        {
          "internalType": "bool",
          "name": "isCompleted",
          "type": "bool"
        },
        {
          "internalType": "address payable",
          "name": "reciptent",
          "type": "address"
        }
      ],
      "stateMutability": "view",
      "type": "function"
    },
    {
      "inputs": [],
      "name": "socialUrl",
      "outputs": [
        {
          "internalType": "string",
          "name": "",
          "type": "string"
        }
      ],
      "stateMutability": "view",
      "type": "function"
    },
    {
      "inputs": [],
      "name": "state",
      "outputs": [
        {
          "internalType": "enum Project.State",
          "name": "",
          "type": "uint8"
        }
      ],
      "stateMutability": "view",
      "type": "function"
    },
    {
      "inputs": [],
      "name": "targetContribution",
      "outputs": [
        {
          "internalType": "uint256",
          "name": "",
          "type": "uint256"
        }
      ],
      "stateMutability": "view",
      "type": "function"
    },
    {
      "inputs": [
        {
          "internalType": "uint256",
          "name": "_requestId",
          "type": "uint256"
        }
      ],
      "name": "voteWithdrawRequest",
      "outputs": [],
      "stateMutability": "nonpayable",
      "type": "function"
    },
    {
      "inputs": [],
      "name": "websiteUrl",
      "outputs": [
        {
          "internalType": "string",
          "name": "",
          "type": "string"
        }
      ],
      "stateMutability": "view",
      "type": "function"
    },
    {
      "inputs": [
        {
          "internalType": "uint256",
          "name": "_requestId",
          "type": "uint256"
        },
        {
          "internalType": "contract IERC20",
          "name": "_withdrawToken",
          "type": "address"
        }
      ],
      "name": "withdrawRequestedAmount",
      "outputs": [],
      "stateMutability": "nonpayable",
      "type": "function"
    },
    {
      "inputs": [
        {
          "internalType": "uint256",
          "name": "",
          "type": "uint256"
        }
      ],
      "name": "withdrawRequests",
      "outputs": [
        {
          "internalType": "string",
          "name": "description",
          "type": "string"
        },
        {
          "internalType": "address",
          "name": "withdrawToken",
          "type": "address"
        },
        {
          "internalType": "string",
          "name": "tokenName",
          "type": "string"
        },
        {
          "internalType": "uint256",
          "name": "amount",
          "type": "uint256"
        },
        {
          "internalType": "uint256",
          "name": "noOfVotes",
          "type": "uint256"
        },
        {
          "internalType": "bool",
          "name": "isCompleted",
          "type": "bool"
        },
        {
          "internalType": "address payable",
          "name": "reciptent",
          "type": "address"
        }
      ],
      "stateMutability": "view",
      "type": "function"
    }
  ],
  "bytecode": "0x60806040523462000043576200003162000018620002f5565b9d9c909c9b919b9a929a999399989498979597620006cc565b6040516123e362000a1e82396123e390f35b600080fd5b634e487b7160e01b600052604160045260246000fd5b90601f01601f191681019081106001600160401b038211176200008057604052565b62000048565b906200009d6200009560405190565b92836200005e565b565b6001600160a01b031690565b90565b6001600160a01b0381165b036200004357565b905051906200009d82620000ae565b80620000b9565b905051906200009d82620000d0565b6001600160401b0381116200008057602090601f01601f19160190565b0190565b60005b8381106200011b5750506000910152565b81810151838201526020016200010a565b90929192620001456200013f82620000e6565b62000086565b9381855260208501908284011162000043576200009d9262000107565b9080601f8301121562000043578151620000ab926020016200012c565b916101e0838303126200004357620001988284620000c1565b92620001a88360208301620000c1565b926040620001b982828501620000c1565b93620001c98360608601620000c1565b93620001d98460808301620000c1565b93620001e98160a08401620000d7565b93620001f98260c08501620000d7565b93620002098360e08601620000d7565b93610100810151600180851b0381116200004357846200022b91830162000162565b93610120820151600180861b0381116200004357816200024d91840162000162565b93610140830151600180831b0381116200004357826200026f91850162000162565b93610160840151600180841b0381116200004357836200029191860162000162565b93610180810151600180851b038111620000435784620002b391830162000162565b936101a0820151600180861b038111620000435781620002d591840162000162565b936001806101c0850151921b0381116200004357620000ab920162000162565b6200031862002e01803803806200030c8162000086565b9283398101906200017f565b909192939495969798999a9b9c9d9e565b620000ab906200009f906001600160a01b031682565b620000ab9062000329565b620000ab906200033f565b906001600160a01b03905b9181191691161790565b906200037e620000ab62000386926200034a565b825462000355565b9055565b906000199062000360565b620000ab620000ab620000ab9290565b90620003b9620000ab620003869262000395565b82546200038a565b9060ff9062000360565b634e487b7160e01b600052602160045260246000fd5b60031115620003ec57565b620003cb565b906200009d82620003e1565b620000ab90620003f2565b906200041d620000ab6200038692620003fe565b8254620003c1565b9061ff009060081b62000360565b9062000446620000ab6200038692151590565b825462000425565b9062ff00009060101b62000360565b9062000470620000ab6200038692151590565b82546200044e565b634e487b7160e01b600052602260045260246000fd5b9060016002830492168015620004b1575b6020831014620004ab57565b62000478565b91607f16916200049f565b9160001960089290920291821b911b62000360565b9190620004e6620000ab620003869362000395565b908354620004bc565b6200009d91600091620004d1565b81811062000509575050565b80620005196000600193620004ef565b01620004fd565b9190601f81116200053057505050565b620005446200009d93600052602060002090565b906020601f84018190048301931062000568575b6020601f909101040190620004fd565b909150819062000558565b906200057d815190565b906001600160401b0382116200008057620005a5826200059e85546200048e565b8562000520565b602090601f8311600114620005e45762000386929160009183620005d8575b5050600019600883021c1916906002021790565b015190503880620005c4565b601f19831691620005fa85600052602060002090565b9260005b8181106200063b5750916002939185600196941062000621575b50505002019055565b01516000196008601f8516021c1916905538808062000618565b91936020600181928787015181550195019201620005fe565b906200009d9162000573565b801515620000b9565b905051906200009d8262000660565b906020828203126200004357620000ab9162000669565b9052565b6200068f9062000395565b6001600160a01b0390911681526040810192916200009d916020019062000693565b6040513d6000823e3d90fd5b819d9a96929e99959e9c98949b9793919c730811029baf786c77f1adba0c0dc29952d012c37b620006fd906200034a565b6200070a9060026200036a565b6200071a62bc614e6003620003a5565b60009e8f926200072c84600f62000409565b6200073984600f62000433565b6200074684600f6200045d565b62000753846017620003a5565b6200075e8d620009b9565b62000769906200034a565b620007769060016200036a565b62000781906200034a565b6200078e9060046200036a565b62000799906200034a565b620007a4916200036a565b620007af906200034a565b99620007bd8b60056200036a565b620007c8906200034a565b9c620007d68e60066200036a565b620007e3906007620003a5565b620007f0906008620003a5565b620007fd906009620003a5565b6200080a90600d62000654565b6200081790600e62000654565b620008228862000395565b6200082f90600b620003a5565b6200083c90601062000654565b6200084990601162000654565b6200085690601262000654565b6200086390601462000654565b6200087090601362000654565b6200087b906200034a565b9063095ea7b360fd946200088e60405190565b936200089a8360e01b90565b85528480620008ae8987600484016200069e565b0381885a94602095f19384156200094757620008da620008f69287926020976200094d575b506200034a565b9262000902620008e960405190565b9889968795869460e01b90565b8452600484016200069e565b03925af1908115620009475750620009175750565b6200093c9060203d81116200093f575b6200093381836200005e565b81019062000678565b50565b503d62000927565b620006c0565b6200096790883d81116200093f576200093381836200005e565b620008d3565b620009926200099c602093620001039362000986815190565b80835293849260200190565b9586910162000107565b601f01601f191690565b6020808252620000ab929101906200096d565b620009ea620009fa6200009d92620009d060405190565b63104c13eb60e21b602082015292839160248301620009a6565b602082018103825203826200005e565b6000809162000a116a636f6e736f6c652e6c6f6790565b602082519201905afa5056fe60a0604052600436101561001257600080fd5b60003560e01c80630203d0021461023257806302d05d3f1461022d57806303c29d581461022857806307d94e4a146102235780630a7713701461021e57806318aa9f1e1461021957806324274ee914610214578063263a58aa1461020f57806328c30c071461020a57806329dcb0cf1461020557806343ab265f146102005780634c4cea5a146101fb5780634cbc1553146101f65780634e695a37146101f157806354214f69146101ec5780635eb32936146101e757806362d809a6146101e257806380007e83146101dd578063937e09b1146101d8578063992a7dfb146101d3578063a278a485146101ce578063abb5ca09146101c9578063b35a7dd4146101c4578063b40141bf146101bf578063b82c86d6146101ba578063c19d93fb146101b5578063c3e20c9f146101b0578063c59ee1dc146101ab578063ca4b208b146101a6578063d1707551146101a1578063d5cef1331461019c578063d688cf5314610197578063e9d1edde146101925763ff3a9c7e0361023757610e6e565b610d75565b610d5d565b610d42565b610d27565b610d00565b610cd9565b610cb2565b610c7f565b610c07565b610be0565b610bb5565b610a92565b610a6b565b610a2b565b6108ed565b6108c6565b6108a1565b610863565b61082a565b6107ec565b6107d3565b610788565b610761565b610746565b61071d565b6106d9565b6106b2565b61068b565b610664565b61059c565b610575565b6103cb565b61035a565b600080fd5b805b0361023757565b905035906102528261023c565b565b906020828203126102375761026891610245565b90565b60005b83811061027e5750506000910152565b818101518382015260200161026e565b6102af6102b86020936102c2936102a3815190565b80835293849260200190565b9586910161026b565b601f01601f191690565b0190565b6001600160a01b031690565b9052565b9398979561033b60e09661033461032c6102529b9661034b9861031f61030d8c6103429a610100820191600081840391015261028e565b6001600160a01b0390931660208d0152565b8a820360408c015261028e565b9c6060890152565b6080870152565b60a0850152565b151560c0830152565b01906001600160a01b03169052565b3461023757610391610375610370366004610254565b61232f565b9461038898969894919493929360405190565b988998896102d6565b0390f35b600091031261023757565b610268916008021c6001600160a01b031690565b9061026891546103a0565b610268600060046103b4565b34610237576103db366004610395565b6103916103e66103bf565b604051918291826001600160a01b03909116815260200190565b634e487b7160e01b600052600060045260246000fd5b634e487b7160e01b600052602260045260246000fd5b906001600283049216801561044c575b602083101461044757565b610416565b91607f169161043c565b805460009392916104736104698361042c565b8085529360200190565b91600181169081156104c5575060011461048c57505050565b61049f9192939450600052602060002090565b916000925b8184106104b15750500190565b8054848401526020909301926001016104a4565b92949550505060ff1916825215156020020190565b9061026891610456565b634e487b7160e01b600052604160045260246000fd5b90601f01601f1916810190811067ffffffffffffffff82111761051c57604052565b6104e4565b9061025261053b9261053260405190565b938480926104da565b03836104fa565b906000106105535761026890610521565b610400565b6102686000600e610542565b60208082526102689291019061028e565b3461023757610585366004610395565b610391610590610558565b60405191829182610564565b34610237576105ac366004610395565b6103916105b76114e9565b6040519182918290815260200190565b6001600160a01b03811661023e565b90503590610252826105c7565b9060208282031261023757610268916105d6565b6102c6610268610268926001600160a01b031690565b610268906105f7565b6102689061060d565b9061062990610616565b600052602052604060002090565b610268916008021c81565b906102689154610637565b6102689061065f60159160009261061f565b610642565b34610237576103916105b761067a3660046105e3565b61064d565b61026860006012610542565b346102375761069b366004610395565b61039161059061067f565b6102686000600c610642565b34610237576106c2366004610395565b6103916105b76106a6565b61026860006003610642565b34610237576106e9366004610395565b6103916105b76106cd565b80151561023e565b90503590610252826106f4565b9060208282031261023757610268916106fc565b3461023757610735610730366004610709565b610fff565b604051005b61026860006008610642565b3461023757610756366004610395565b6103916105b761073a565b34610237576103916105b76107773660046105e3565b6114f6565b6102686000600a610642565b3461023757610798366004610395565b6103916105b761077c565b9091606082840312610237576102686107bc84846105d6565b936107ca8160208601610245565b936040016105d6565b34610237576107356107e63660046107a3565b91611460565b34610237576107356107ff366004610254565b611c07565b610268916008021c5b60ff1690565b906102689154610804565b6102686001600f610813565b346102375761083a366004610395565b61039161084561081e565b60405191829182901515815260200190565b61026860006013610542565b3461023757610873366004610395565b610391610590610857565b919060408382031261023757610268906108988185610245565b936020016105d6565b34610237576107356108b436600461087e565b90612258565b6102686002600f610813565b34610237576108d6366004610395565b6103916108456108ba565b61026860006007610642565b34610237576108fd366004610395565b6103916105b76108e1565b6102686102686102689290565b9061062990610908565b6102689081565b610268905461091f565b6102689061080d565b6102689054610930565b6102689060081c6102c6565b6102689054610943565b610964906016610915565b61096d81610521565b9161098260018301546001600160a01b031690565b9161098f60028201610521565b9161099c60038301610926565b916109a960048201610926565b9161026860066109ba818501610939565b930161094f565b9260c094989795610a1b610a1361034b95610a2294610a066109f46102529d9860e08c01908c600081840391015261028e565b6001600160a01b0390931660208b0152565b88820360408a015261028e565b9a6060870152565b6080850152565b151560a0830152565b3461023757610391610a46610a41366004610254565b610959565b93610a5697959793919360405190565b978897886109c1565b61026860006014610542565b3461023757610a7b366004610395565b610391610590610a5f565b61026860006010610542565b3461023757610aa2366004610395565b610391610590610a86565b90610252610aba60405190565b92836104fa565b67ffffffffffffffff811161051c57602090601f01601f19160190565b90826000939282370152565b90929192610aff610afa82610ac1565b610aad565b938185526020850190828401116102375761025292610ade565b9080601f830112156102375781602061026893359101610aea565b909160c08284031261023757813567ffffffffffffffff81116102375783610b5d918401610b19565b92610b6b8160208501610245565b92610b7982604083016105d6565b92610b8783606084016105d6565b9260808301359067ffffffffffffffff821161023757610bac81610268938601610b19565b9360a001610245565b3461023757610735610bc8366004610b34565b94939093929192611b44565b61026860006017610642565b3461023757610bf0366004610395565b6103916105b7610bd4565b61026860006009610642565b3461023757610c17366004610395565b6103916105b7610bfb565b6102686000600f610813565b634e487b7160e01b600052602160045260246000fd5b60031115610c4e57565b610c2e565b9061025282610c44565b61026890610c53565b6102d290610c5d565b6020810192916102529190610c66565b3461023757610c8f366004610395565b610391610c9a610c22565b60405191829182610c6f565b6102686000600d610542565b3461023757610cc2366004610395565b610391610590610ca6565b6102686000600b610642565b3461023757610ce9366004610395565b6103916105b7610ccd565b610268600060026103b4565b3461023757610d10366004610395565b6103916103e6610cf4565b61026860006011610542565b3461023757610d37366004610395565b610391610590610d1b565b3461023757610d52366004610395565b61039161084561174d565b3461023757610735610d70366004610254565b610fa2565b3461023757610735610d88366004610709565b61105d565b9e9d9c9b999897959391928f9197959361020083019860008401610db8916001600160a01b03169052565b6001600160a01b031660208301526001600160a01b031660408201526060015260808d015260a08c015260c08b015260e08a01528881036101008a0152610dfe9161028e565b878103610120890152610e109161028e565b916101408701610e1f91610c66565b610160860152848103610180860152610e379161028e565b8381036101a0850152610e499161028e565b8281036101c0840152610e5b9161028e565b90808203906101e001526102689161028e565b3461023757610e7e366004610395565b610eb3610e8961226b565b9e610ea89e919e9d929d9c939c9b949b9a959a99969998979860405190565b608052608051610d8d565b6080519003608051f35b15610ec457565b60405162461bcd60e51b815260206004820152603660248201527f596f7520646f6e7420686176652061646d696e2061636365737320746f20706560448201527f72666f726d2074686973206f7065726174696f6e2021000000000000000000006064820152608490fd5b61025290610f6733610f61610f54610f4f6001546001600160a01b031690565b610616565b916001600160a01b031690565b14610ebd565b610f97565b90600019905b9181191691161790565b90610f8c610268610f9392610908565b8254610f6c565b9055565b610252906003610f7c565b61025290610f2f565b61025290610fcb33610f61610f54610f4f6001546001600160a01b031690565b610ff4565b9061ff009060081b610f72565b90610fed610268610f9392151590565b8254610fd0565b61025290600f610fdd565b61025290610fab565b6102529061102833610f61610f54610f4f6001546001600160a01b031690565b611052565b9062ff00009060101b610f72565b9061104b610268610f9392151590565b825461102d565b61025290600f61103b565b61025290611008565b6102689060101c61080d565b6102689054611066565b1561108357565b60405162461bcd60e51b815260206004820152601860248201527f50726f6a656374206d75737420626520766572696669656400000000000000006044820152606490fd5b9061025292916110ed6110db600f611072565b6110e760015b91151590565b1461107c565b611164565b156110f957565b60405162461bcd60e51b815260206004820152603c60248201527f596f7520646f206e6f74206861766520746865206d617374657220726967687460448201527f7320746f20706572666f726d2074686973206f7065726174696f6e21000000006064820152608490fd5b90610252929161118c33611186610f54610f4f6000546001600160a01b031690565b146110f2565b61128b565b634e487b7160e01b600052601160045260246000fd5b60001981146111b65760010190565b611191565b919082018092116111b657565b905051906102528261023c565b9060208282031261023757610268916111c8565b6001600160a01b0390911681526040810192916102529160209061034b565b6040513d6000823e3d90fd5b1561023757565b90505190610252826106f4565b90602082820312610237576102689161121b565b6001600160a01b039182168152911660208201526060810192916102529160400152565b0152565b6001600160a01b039091168152606081019392610252929091604091611260906020830152565b916112f96015916112e16112c9866112ab6112a6828861061f565b610926565b956000966112bf6112bb89610908565b9190565b1461143f5761061f565b6112db866112d683610926565b6111bb565b90610f7c565b610f4f6112f2856112d6600b610926565b600b610f7c565b9063dd62ed3e9161130930610616565b61131c61131560405190565b9460e01b90565b845260208480611330848a600484016111e9565b0381855afa91821561140d5761135460209387968691611412575b50861115611214565b611376846323b872dd61138261136960405190565b9889968795869460e01b90565b84528c6004850161123c565b03925af190811561140d57506113e1575b5061139e600b610926565b916113d67f5cdc4ab8d637538ead6cc1904d4160343656c8c82bd266635cfd31ac008fffe0936113cd60405190565b93849384611264565b0390a161025261148b565b6114019060203d8111611406575b6113f981836104fa565b810190611228565b611393565b503d6113ef565b611208565b6114329150853d8111611438575b61142a81836104fa565b8101906111d5565b3861134b565b503d611420565b61145b61145461144f600c610926565b6111a7565b600c610f7c565b61061f565b9061025292916110c8565b9060ff90610f72565b90611484610268610f9392610c5d565b825461146b565b611495600b610926565b6114a56112bb6102686009610926565b106114c1576114b66002600f611474565b61025242600a610f7c565b426114d26112bb6102686008610926565b11156114b6576114e46001600f611474565b6114b6565b6114f230610616565b3190565b602061150d61154d92611507600090565b50610616565b6370a082319061153661151f30610616565b9261152960405190565b9586948593849360e01b90565b83526001600160a01b031660048301526024820190565b03915afa90811561140d57600091611563575090565b610268915060203d81116114385761142a81836104fa565b1561158257565b60405162461bcd60e51b815260206004820152600d60248201527f496e76616c6964207374617465000000000000000000000000000000000000006044820152606490fd5b156115ce57565b60405162461bcd60e51b815260206004820152601560248201527f446561646c696e652068617320706173736564202100000000000000000000006044820152606490fd5b6102689061163e600161163861163261162c600f610939565b92610c53565b91610c53565b1461157b565b611658426116526112bb6102686008610926565b106115c7565b6116cf565b1561166457565b60405162461bcd60e51b815260206004820152602660248201527f596f7520646f6e74206861766520616e7920636f6e747269627574656420616d60448201527f6f756e74202100000000000000000000000000000000000000000000000000006064820152608490fd5b503360156116e06112a6838361061f565b6116f86000916116f26112bb84610908565b1161165d565b80808080611708610f4f88610616565b6117156112a6898961061f565b90828215611744575bf11561140d5761173f9261173461173a92610908565b9261061f565b610f7c565b600190565b506108fc61171e565b6102686000611613565b1561175e57565b60405162461bcd60e51b815260206004820152603860248201527f596f7520646f6e7420686176652063726561746f722061636365737320746f2060448201527f706572666f726d2074686973206f7065726174696f6e202100000000000000006064820152608490fd5b9061025295949392916117f4336117ee610f54610f4f6004546001600160a01b031690565b14611757565b906102529594939291611812600261163861163261162c600f610939565b611826426116526112bb6102686008610926565b611a8a565b91906008610f72910291611840600019841b90565b921b90565b9190611856610268610f9393610908565b90835461182b565b61025291600091611845565b818110611875575050565b80611883600060019361185e565b0161186a565b9190601f811161189857505050565b6118aa61025293600052602060002090565b906020601f8401819004830193106118cc575b6020601f90910104019061186a565b90915081906118bd565b906118df815190565b9067ffffffffffffffff821161051c57611903826118fd855461042c565b85611889565b602090601f831160011461193e57610f93929160009183611933575b5050600019600883021c1916906002021790565b01519050388061191f565b601f1983169161195385600052602060002090565b9260005b81811061199157509160029391856001969410611978575b50505002019055565b01516000196008601f8516021c1916905538808061196f565b91936020600181928787015181550195019201611957565b90610252916118d6565b906001600160a01b0390610f72565b906119d2610268610f9392610616565b82546119b3565b90611484610268610f9392151590565b9074ffffffffffffffffffffffffffffffffffffffff009060081b610f72565b90611a19610268610f9392610616565b82546119e9565b6102d290610908565b6102d290610616565b9260c094989795611a79610a13610a2293611a6b6102529b96611a8398611a5e60e08c019260008d0152565b8a820360208c015261028e565b9088820360408a015261028e565b6080850190611a20565b0190611a29565b939492611ab7611aa3610268611b3f9594966016610915565b91611aae87846119a9565b600183016119c2565b611ac486600283016119a9565b611ad18460038301610f7c565b611aff826006600093611aef611ae686610908565b60048301610f7c565b01611afa84826119d9565b611a09565b80611b0a6017610926565b947f4155121c72ca95297a55d3963daac6d430e184f4fc497ce898b36ee9a834eec197611b3660405190565b97889788611a32565b0390a1565b9061025295949392916117c9565b15611b5957565b60405162461bcd60e51b815260206004820152601b60248201527f4f6e6c7920636f6e7472696275746f722063616e20766f7465202100000000006044820152606490fd5b15611ba557565b60405162461bcd60e51b815260206004820152601360248201527f596f7520616c726561647920766f7465642021000000000000000000000000006044820152606490fd5b6001600160a01b0390911681526040810192916102529160200152565b3390611ca4906112a6611c9e6004611c9286611c8d611c4e610268611c2e8885601561061f565b98611c4760009a611c416112bb8d610908565b11611b52565b6016610915565b96611c7b6005890191611c756110e1611c6f611c6a888761061f565b610939565b92151590565b14611b9e565b611c88600193849261061f565b6119d9565b610908565b9301926112d684610926565b82610f7c565b7fa2925e4595bf873fa82c22a1a89809777347023bf2b502d32710157a5eb8199c91611b3f611cd260405190565b92839283611bea565b9061025291611cfc336117ee610f54610f4f6004546001600160a01b031690565b9061025291611d16600261163861163261162c600f610939565b611d2a426116526112bb6102686008610926565b611f13565b15611d3657565b60405162461bcd60e51b815260206004820152601960248201527f5265717565737420616c726561647920636f6d706c65746564000000000000006044820152606490fd5b634e487b7160e01b600052601260045260246000fd5b8115611d9b570490565b611d7b565b15611da757565b60405162461bcd60e51b815260206004820152603660248201527f4174206c656173742032302520636f6e7472696275746f72206e65656420746f60448201527f20766f746520666f7220746869732072657175657374000000000000000000006064820152608490fd5b15611e1957565b60405162461bcd60e51b815260206004820152603960248201527f50726f6a65637420636f6e747261637420646f6573206e6f742068617665206560448201527f6e6f7567682062616c616e636520746f206469736275727365000000000000006064820152608490fd5b818102929181159184041417156111b657565b6001600160a01b039091168152606081019392610252929091604091611260906020830190611a29565b92979694610a2290610a1b60c096611f0c611efa6102529b96611a8398611eed60e08c019260008d0152565b8a820360208c0152610456565b6001600160a01b03909d166040890152565b6060870152565b611f21610268826016610915565b906006820192611f3084610939565b600090611f4690611f40836110e1565b14611d2f565b6004840190611f81611f5783610926565b611f7a6112bb610268611f6a600c610926565b611f746005610908565b90611d91565b1015611da0565b6003850195611f98611f9288610926565b94610616565b6370a08231611fa630610616565b95611fba611fb360405190565b9260e01b90565b82526001600160a01b0387166004830152602082602481865afa801561140d576112bb611fef91611ff6948891611563575090565b1115611e12565b6323b872dd946120058361094f565b61200e8a610926565b602061204789612053612039612029603296611f7488610908565b6120336031610908565b90611e84565b604051968794859460e01b90565b84528860048501611e97565b038189885af191821561140d578b9261223c575b50426120796112bb6102686003610926565b116121de5750506001546001600160a01b0316916120968a610926565b6020612047896120bc6120ae606495611f7487610908565b604051988994859460e01b90565b038189865af190811561140d578b9861211f6121048993602098612114966121c3575b50611f746120fe6120f86002546001600160a01b031690565b9e610926565b91610908565b6040519b8c978896879560e01b90565b855260048501611e97565b03925af193841561140d57611b3f946121a7575b505b61217261216c6121666121606001809661214f82886119d9565b8b019a01546001600160a01b031690565b99610926565b94610926565b9161094f565b927f4b318eefdd7bb107016b6a285ad8d255001224edad6fe9a0dd934ee9f3e911c59761219e60405190565b97889788611ec1565b6121be9060203d8111611406576113f981836104fa565b612133565b6121d9908a3d8111611406576113f981836104fa565b6120df565b85602094929861220661210461211494611f746120fe6120f86001546001600160a01b031690565b03925af193841561140d57611b3f94612220575b50612135565b6122379060203d8111611406576113f981836104fa565b61221a565b6122539060203d8111611406576113f981836104fa565b612067565b9061025291611cdb565b61026890610521565b6004546001600160a01b0316906122826007610926565b9061228d6008610926565b916122986009610926565b926122a3600a610926565b936122ae600b610926565b946122b9600d612262565b956122c4600e612262565b966122cf600f610939565b976122d930610616565b31986122e56010612262565b996122f06011612262565b9a6122fb6012612262565b9b6123066013612262565b9c6123196005546001600160a01b031690565b9d61232c6006546001600160a01b031690565b9d565b6102686123469161233e606090565b506016610915565b612350600c610926565b9061235a81612262565b9261236760028301612262565b9161237c60018201546001600160a01b031690565b9361238960038301610926565b92600661239860048501610926565b9301906102686123a783610939565b9261094f56fea26469706673582212201bb59ba402e608945e4867ed34017d788751055eab55e4d627c7bf103cf590c064736f6c63430008120033",
  "linkReferences": {},
  "deployedLinkReferences": {}
}