{
  "_format": "hh-sol-artifact-1",
  "contractName": "Project",
  "sourceName": "contracts/Project.sol",
  "abi": [
    {
      "inputs": [
        {
          "internalType": "address",
          "name": "_owner",
          "type": "address"
        },
        {
          "internalType": "address",
          "name": "_creator",
          "type": "address"
        },
        {
          "internalType": "address",
          "name": "_masterContract",
          "type": "address"
        },
        {
          "internalType": "address",
          "name": "_usdt",
          "type": "address"
        },
        {
          "internalType": "address",
          "name": "_usdc",
          "type": "address"
        },
        {
          "internalType": "uint256",
          "name": "_deadline",
          "type": "uint256"
        },
        {
          "internalType": "uint256",
          "name": "_targetContribution",
          "type": "uint256"
        },
        {
          "internalType": "string",
          "name": "_projectTitle",
          "type": "string"
        },
        {
          "internalType": "string",
          "name": "_projectDes",
          "type": "string"
        },
        {
          "internalType": "string",
          "name": "_websiteUrl",
          "type": "string"
        },
        {
          "internalType": "string",
          "name": "_socialUrl",
          "type": "string"
        },
        {
          "internalType": "string",
          "name": "_githubUrl",
          "type": "string"
        },
        {
          "internalType": "string",
          "name": "_projectCoverUrl",
          "type": "string"
        },
        {
          "internalType": "string",
          "name": "_filterTags",
          "type": "string"
        }
      ],
      "stateMutability": "nonpayable",
      "type": "constructor"
    },
    {
      "anonymous": false,
      "inputs": [
        {
          "indexed": false,
          "internalType": "uint256",
          "name": "requestId",
          "type": "uint256"
        },
        {
          "indexed": false,
          "internalType": "string",
          "name": "description",
          "type": "string"
        },
        {
          "indexed": false,
          "internalType": "address",
          "name": "withdrawToken",
          "type": "address"
        },
        {
          "indexed": false,
          "internalType": "uint256",
          "name": "amount",
          "type": "uint256"
        },
        {
          "indexed": false,
          "internalType": "uint256",
          "name": "noOfVotes",
          "type": "uint256"
        },
        {
          "indexed": false,
          "internalType": "bool",
          "name": "isCompleted",
          "type": "bool"
        },
        {
          "indexed": false,
          "internalType": "address",
          "name": "reciptent",
          "type": "address"
        }
      ],
      "name": "AmountWithdrawSuccessful",
      "type": "event"
    },
    {
      "anonymous": false,
      "inputs": [
        {
          "indexed": false,
          "internalType": "address",
          "name": "contributor",
          "type": "address"
        },
        {
          "indexed": false,
          "internalType": "uint256",
          "name": "amount",
          "type": "uint256"
        },
        {
          "indexed": false,
          "internalType": "uint256",
          "name": "currentTotal",
          "type": "uint256"
        }
      ],
      "name": "FundingReceived",
      "type": "event"
    },
    {
      "anonymous": false,
      "inputs": [
        {
          "indexed": false,
          "internalType": "uint256",
          "name": "requestId",
          "type": "uint256"
        },
        {
          "indexed": false,
          "internalType": "string",
          "name": "description",
          "type": "string"
        },
        {
          "indexed": false,
          "internalType": "string",
          "name": "tokenName",
          "type": "string"
        },
        {
          "indexed": false,
          "internalType": "uint256",
          "name": "amount",
          "type": "uint256"
        },
        {
          "indexed": false,
          "internalType": "uint256",
          "name": "noOfVotes",
          "type": "uint256"
        },
        {
          "indexed": false,
          "internalType": "bool",
          "name": "isCompleted",
          "type": "bool"
        },
        {
          "indexed": false,
          "internalType": "address",
          "name": "reciptent",
          "type": "address"
        }
      ],
      "name": "WithdrawRequestCreated",
      "type": "event"
    },
    {
      "anonymous": false,
      "inputs": [
        {
          "indexed": false,
          "internalType": "address",
          "name": "voter",
          "type": "address"
        },
        {
          "indexed": false,
          "internalType": "uint256",
          "name": "totalVote",
          "type": "uint256"
        }
      ],
      "name": "WithdrawVote",
      "type": "event"
    },
    {
      "inputs": [],
      "name": "completeAt",
      "outputs": [
        {
          "internalType": "uint256",
          "name": "",
          "type": "uint256"
        }
      ],
      "stateMutability": "view",
      "type": "function"
    },
    {
      "inputs": [
        {
          "internalType": "address",
          "name": "_contributor",
          "type": "address"
        },
        {
          "internalType": "uint256",
          "name": "amount",
          "type": "uint256"
        },
        {
          "internalType": "contract IERC20",
          "name": "tokenAddress",
          "type": "address"
        }
      ],
      "name": "contribute",
      "outputs": [],
      "stateMutability": "nonpayable",
      "type": "function"
    },
    {
      "inputs": [
        {
          "internalType": "address",
          "name": "",
          "type": "address"
        }
      ],
      "name": "contributiors",
      "outputs": [
        {
          "internalType": "uint256",
          "name": "",
          "type": "uint256"
        }
      ],
      "stateMutability": "view",
      "type": "function"
    },
    {
      "inputs": [
        {
          "internalType": "string",
          "name": "_description",
          "type": "string"
        },
        {
          "internalType": "uint256",
          "name": "_amount",
          "type": "uint256"
        },
        {
          "internalType": "address payable",
          "name": "_reciptent",
          "type": "address"
        },
        {
          "internalType": "address",
          "name": "_withdrawToken",
          "type": "address"
        },
        {
          "internalType": "string",
          "name": "_tokenName",
          "type": "string"
        },
        {
          "internalType": "uint256",
          "name": "_requestId",
          "type": "uint256"
        }
      ],
      "name": "createWithdrawRequest",
      "outputs": [],
      "stateMutability": "nonpayable",
      "type": "function"
    },
    {
      "inputs": [],
      "name": "creator",
      "outputs": [
        {
          "internalType": "address payable",
          "name": "",
          "type": "address"
        }
      ],
      "stateMutability": "view",
      "type": "function"
    },
    {
      "inputs": [],
      "name": "deadline",
      "outputs": [
        {
          "internalType": "uint256",
          "name": "",
          "type": "uint256"
        }
      ],
      "stateMutability": "view",
      "type": "function"
    },
    {
      "inputs": [],
      "name": "developer",
      "outputs": [
        {
          "internalType": "address payable",
          "name": "",
          "type": "address"
        }
      ],
      "stateMutability": "view",
      "type": "function"
    },
    {
      "inputs": [],
      "name": "filterTags",
      "outputs": [
        {
          "internalType": "string",
          "name": "",
          "type": "string"
        }
      ],
      "stateMutability": "view",
      "type": "function"
    },
    {
      "inputs": [],
      "name": "getContractBNBBalance",
      "outputs": [
        {
          "internalType": "uint256",
          "name": "",
          "type": "uint256"
        }
      ],
      "stateMutability": "view",
      "type": "function"
    },
    {
      "inputs": [
        {
          "internalType": "contract IERC20",
          "name": "tokenAddress",
          "type": "address"
        }
      ],
      "name": "getContractBalance",
      "outputs": [
        {
          "internalType": "uint256",
          "name": "",
          "type": "uint256"
        }
      ],
      "stateMutability": "view",
      "type": "function"
    },
    {
      "inputs": [],
      "name": "getProjectDetails",
      "outputs": [
        {
          "internalType": "address payable",
          "name": "projectStarter",
          "type": "address"
        },
        {
          "internalType": "address payable",
          "name": "usdtA",
          "type": "address"
        },
        {
          "internalType": "address payable",
          "name": "usdcA",
          "type": "address"
        },
        {
          "internalType": "uint256",
          "name": "projectDeadline",
          "type": "uint256"
        },
        {
          "internalType": "uint256",
          "name": "goalAmount",
          "type": "uint256"
        },
        {
          "internalType": "uint256",
          "name": "noOfContri",
          "type": "uint256"
        },
        {
          "internalType": "uint256",
          "name": "completedTime",
          "type": "uint256"
        },
        {
          "internalType": "uint256",
          "name": "currentAmount",
          "type": "uint256"
        },
        {
          "internalType": "string",
          "name": "title",
          "type": "string"
        },
        {
          "internalType": "string",
          "name": "desc",
          "type": "string"
        },
        {
          "internalType": "enum Project.State",
          "name": "currentState",
          "type": "uint8"
        },
        {
          "internalType": "uint256",
          "name": "balance",
          "type": "uint256"
        },
        {
          "internalType": "string",
          "name": "website",
          "type": "string"
        },
        {
          "internalType": "string",
          "name": "social",
          "type": "string"
        },
        {
          "internalType": "string",
          "name": "github",
          "type": "string"
        },
        {
          "internalType": "string",
          "name": "projectCover",
          "type": "string"
        }
      ],
      "stateMutability": "view",
      "type": "function"
    },
    {
      "inputs": [],
      "name": "githubUrl",
      "outputs": [
        {
          "internalType": "string",
          "name": "",
          "type": "string"
        }
      ],
      "stateMutability": "view",
      "type": "function"
    },
    {
      "inputs": [],
      "name": "isRevealed",
      "outputs": [
        {
          "internalType": "bool",
          "name": "",
          "type": "bool"
        }
      ],
      "stateMutability": "view",
      "type": "function"
    },
    {
      "inputs": [],
      "name": "isVerified",
      "outputs": [
        {
          "internalType": "bool",
          "name": "",
          "type": "bool"
        }
      ],
      "stateMutability": "view",
      "type": "function"
    },
    {
      "inputs": [],
      "name": "noOfContributers",
      "outputs": [
        {
          "internalType": "uint256",
          "name": "",
          "type": "uint256"
        }
      ],
      "stateMutability": "view",
      "type": "function"
    },
    {
      "inputs": [],
      "name": "numOfWithdrawRequests",
      "outputs": [
        {
          "internalType": "uint256",
          "name": "",
          "type": "uint256"
        }
      ],
      "stateMutability": "view",
      "type": "function"
    },
    {
      "inputs": [],
      "name": "projectCoverUrl",
      "outputs": [
        {
          "internalType": "string",
          "name": "",
          "type": "string"
        }
      ],
      "stateMutability": "view",
      "type": "function"
    },
    {
      "inputs": [],
      "name": "projectDes",
      "outputs": [
        {
          "internalType": "string",
          "name": "",
          "type": "string"
        }
      ],
      "stateMutability": "view",
      "type": "function"
    },
    {
      "inputs": [],
      "name": "projectTitle",
      "outputs": [
        {
          "internalType": "string",
          "name": "",
          "type": "string"
        }
      ],
      "stateMutability": "view",
      "type": "function"
    },
    {
      "inputs": [],
      "name": "raisedAmount",
      "outputs": [
        {
          "internalType": "uint256",
          "name": "",
          "type": "uint256"
        }
      ],
      "stateMutability": "view",
      "type": "function"
    },
    {
      "inputs": [],
      "name": "requestRefund",
      "outputs": [
        {
          "internalType": "bool",
          "name": "",
          "type": "bool"
        }
      ],
      "stateMutability": "nonpayable",
      "type": "function"
    },
    {
      "inputs": [],
      "name": "royaltyGraceExpiry",
      "outputs": [
        {
          "internalType": "uint256",
          "name": "",
          "type": "uint256"
        }
      ],
      "stateMutability": "view",
      "type": "function"
    },
    {
      "inputs": [
        {
          "internalType": "uint256",
          "name": "unixTs",
          "type": "uint256"
        }
      ],
      "name": "setRoyaltyGracePeriod",
      "outputs": [],
      "stateMutability": "nonpayable",
      "type": "function"
    },
    {
      "inputs": [
        {
          "internalType": "bool",
          "name": "verified",
          "type": "bool"
        }
      ],
      "name": "setVerification",
      "outputs": [],
      "stateMutability": "nonpayable",
      "type": "function"
    },
    {
      "inputs": [
        {
          "internalType": "bool",
          "name": "isVisible",
          "type": "bool"
        }
      ],
      "name": "setVisibility",
      "outputs": [],
      "stateMutability": "nonpayable",
      "type": "function"
    },
    {
      "inputs": [
        {
          "internalType": "uint256",
          "name": "_requestId",
          "type": "uint256"
        }
      ],
      "name": "showDetailOfWR",
      "outputs": [
        {
          "internalType": "string",
          "name": "description",
          "type": "string"
        },
        {
          "internalType": "address",
          "name": "withdrawToken",
          "type": "address"
        },
        {
          "internalType": "string",
          "name": "tokenName",
          "type": "string"
        },
        {
          "internalType": "uint256",
          "name": "amount",
          "type": "uint256"
        },
        {
          "internalType": "uint256",
          "name": "noOfVotes",
          "type": "uint256"
        },
        {
          "internalType": "uint256",
          "name": "contributors",
          "type": "uint256"
        },
        {
          "internalType": "bool",
          "name": "isCompleted",
          "type": "bool"
        },
        {
          "internalType": "address payable",
          "name": "reciptent",
          "type": "address"
        }
      ],
      "stateMutability": "view",
      "type": "function"
    },
    {
      "inputs": [],
      "name": "socialUrl",
      "outputs": [
        {
          "internalType": "string",
          "name": "",
          "type": "string"
        }
      ],
      "stateMutability": "view",
      "type": "function"
    },
    {
      "inputs": [],
      "name": "state",
      "outputs": [
        {
          "internalType": "enum Project.State",
          "name": "",
          "type": "uint8"
        }
      ],
      "stateMutability": "view",
      "type": "function"
    },
    {
      "inputs": [],
      "name": "targetContribution",
      "outputs": [
        {
          "internalType": "uint256",
          "name": "",
          "type": "uint256"
        }
      ],
      "stateMutability": "view",
      "type": "function"
    },
    {
      "inputs": [
        {
          "internalType": "uint256",
          "name": "_requestId",
          "type": "uint256"
        }
      ],
      "name": "voteWithdrawRequest",
      "outputs": [],
      "stateMutability": "nonpayable",
      "type": "function"
    },
    {
      "inputs": [],
      "name": "websiteUrl",
      "outputs": [
        {
          "internalType": "string",
          "name": "",
          "type": "string"
        }
      ],
      "stateMutability": "view",
      "type": "function"
    },
    {
      "inputs": [
        {
          "internalType": "uint256",
          "name": "_requestId",
          "type": "uint256"
        },
        {
          "internalType": "contract IERC20",
          "name": "_withdrawToken",
          "type": "address"
        }
      ],
      "name": "withdrawRequestedAmount",
      "outputs": [],
      "stateMutability": "nonpayable",
      "type": "function"
    },
    {
      "inputs": [
        {
          "internalType": "uint256",
          "name": "",
          "type": "uint256"
        }
      ],
      "name": "withdrawRequests",
      "outputs": [
        {
          "internalType": "string",
          "name": "description",
          "type": "string"
        },
        {
          "internalType": "address",
          "name": "withdrawToken",
          "type": "address"
        },
        {
          "internalType": "string",
          "name": "tokenName",
          "type": "string"
        },
        {
          "internalType": "uint256",
          "name": "amount",
          "type": "uint256"
        },
        {
          "internalType": "uint256",
          "name": "noOfVotes",
          "type": "uint256"
        },
        {
          "internalType": "bool",
          "name": "isCompleted",
          "type": "bool"
        },
        {
          "internalType": "address payable",
          "name": "reciptent",
          "type": "address"
        }
      ],
      "stateMutability": "view",
      "type": "function"
    }
  ],
  "bytecode": "0x60806040523462000043576200003162000018620002e7565b9c9b909b9a919a999299989398979497969596620006bd565b6040516123ac62000a0382396123ac90f35b600080fd5b634e487b7160e01b600052604160045260246000fd5b90601f01601f191681019081106001600160401b038211176200008057604052565b62000048565b906200009d6200009560405190565b92836200005e565b565b6001600160a01b031690565b90565b6001600160a01b0381165b036200004357565b905051906200009d82620000ae565b80620000b9565b905051906200009d82620000d0565b6001600160401b0381116200008057602090601f01601f19160190565b0190565b60005b8381106200011b5750506000910152565b81810151838201526020016200010a565b90929192620001456200013f82620000e6565b62000086565b9381855260208501908284011162000043576200009d9262000107565b9080601f8301121562000043578151620000ab926020016200012c565b9190916101c08184031262000043576200019a8382620000c1565b92620001aa8160208401620000c1565b92604090620001bc83838601620000c1565b93620001cc8460608301620000c1565b93620001dc8160808401620000c1565b93620001ec8260a08501620000d7565b93620001fc8360c08601620000d7565b9360e0810151600180851b0381116200004357846200021d91830162000162565b93610100820151600180861b0381116200004357816200023f91840162000162565b93610120830151600180831b0381116200004357826200026191850162000162565b93610140840151600180841b0381116200004357836200028391860162000162565b93610160810151600180851b038111620000435784620002a591830162000162565b93610180820151600180861b038111620000435781620002c791840162000162565b936001806101a0850151921b0381116200004357620000ab920162000162565b6200030a62002daf80380380620002fe8162000086565b9283398101906200017f565b909192939495969798999a9b9c9d565b620000ab906200009f906001600160a01b031682565b620000ab906200031a565b620000ab9062000330565b906001600160a01b03905b9181191691161790565b906200036f620000ab62000377926200033b565b825462000346565b9055565b906000199062000351565b620000ab620000ab620000ab9290565b90620003aa620000ab620003779262000386565b82546200037b565b9060ff9062000351565b634e487b7160e01b600052602160045260246000fd5b60031115620003dd57565b620003bc565b906200009d82620003d2565b620000ab90620003e3565b906200040e620000ab6200037792620003ef565b8254620003b2565b9061ff009060081b62000351565b9062000437620000ab6200037792151590565b825462000416565b9062ff00009060101b62000351565b9062000461620000ab6200037792151590565b82546200043f565b634e487b7160e01b600052602260045260246000fd5b9060016002830492168015620004a2575b60208310146200049c57565b62000469565b91607f169162000490565b9160001960089290920291821b911b62000351565b9190620004d7620000ab620003779362000386565b908354620004ad565b6200009d91600091620004c2565b818110620004fa575050565b806200050a6000600193620004e0565b01620004ee565b9190601f81116200052157505050565b620005356200009d93600052602060002090565b906020601f84018190048301931062000559575b6020601f909101040190620004ee565b909150819062000549565b906200056e815190565b906001600160401b038211620000805762000596826200058f85546200047f565b8562000511565b602090601f8311600114620005d55762000377929160009183620005c9575b5050600019600883021c1916906002021790565b015190503880620005b5565b601f19831691620005eb85600052602060002090565b9260005b8181106200062c5750916002939185600196941062000612575b50505002019055565b01516000196008601f8516021c1916905538808062000609565b91936020600181928787015181550195019201620005ef565b906200009d9162000564565b801515620000b9565b905051906200009d8262000651565b906020828203126200004357620000ab916200065a565b9052565b620006809062000386565b6001600160a01b0390911681526040810192916200009d916020019062000684565b6040513d6000823e3d90fd5b9b98949c97939995919a9692909a730811029baf786c77f1adba0c0dc29952d012c37b620006eb906200033b565b620006f89060026200035b565b6200070862bc614e600362000396565b60009c8d6200071981600e620003fa565b6200072690600e62000424565b8d6200073481600e6200044e565b6200074190601662000396565b6200074c8a6200099e565b62000757906200033b565b620007649060016200035b565b6200076f8c6200033b565b6200077c9060046200035b565b62000787906200033b565b62000793908d6200035b565b6200079e906200033b565b98620007ac8a60056200035b565b620007b7906200033b565b9b620007c58d60066200035b565b620007d290600762000396565b620007df90600862000396565b620007ec90600c62000645565b620007f990600d62000645565b620008048862000386565b6200081190600a62000396565b6200081e90600f62000645565b6200082b90601062000645565b6200083890601162000645565b6200084590601362000645565b6200085290601262000645565b6200085d906200033b565b9063095ea7b3600160ff1b946200087360405190565b936200087f8360e01b90565b85528480620008938987600484016200068f565b0381885a94602095f19384156200092c57620008bf620008db92879260209762000932575b506200033b565b92620008e7620008ce60405190565b9889968795869460e01b90565b8452600484016200068f565b03925af19081156200092c5750620008fc5750565b620009219060203d811162000924575b6200091881836200005e565b81019062000669565b50565b503d6200090c565b620006b1565b6200094c90883d811162000924576200091881836200005e565b620008b8565b620009776200098160209362000103936200096b815190565b80835293849260200190565b9586910162000107565b601f01601f191690565b6020808252620000ab9291019062000952565b620009cf620009df6200009d92620009b560405190565b63104c13eb60e21b6020820152928391602483016200098b565b602082018103825203826200005e565b60008091620009f66a636f6e736f6c652e6c6f6790565b602082519201905afa5056fe60a0604052600436101561001257600080fd5b60003560e01c80630203d0021461022257806302d05d3f1461021d57806303c29d581461021857806307d94e4a146102135780630a7713701461020e57806318aa9f1e1461020957806324274ee914610204578063263a58aa146101ff57806328c30c07146101fa57806329dcb0cf146101f557806343ab265f146101f05780634c4cea5a146101eb5780634cbc1553146101e65780634e695a37146101e157806354214f69146101dc5780635eb32936146101d757806362d809a6146101d257806380007e83146101cd578063992a7dfb146101c8578063a278a485146101c3578063abb5ca09146101be578063b35a7dd4146101b9578063b40141bf146101b4578063b82c86d6146101af578063c19d93fb146101aa578063c3e20c9f146101a5578063c59ee1dc146101a0578063ca4b208b1461019b578063d170755114610196578063d5cef13314610191578063d688cf531461018c578063e9d1edde146101875763ff3a9c7e0361022757610e37565b610d3e565b610d26565b610d0b565b610cf0565b610cc9565b610ca2565b610c7b565b610c48565b610bd0565b610ba9565b610b7e565b610a5b565b610a34565b6109f4565b6108b6565b610891565b610853565b61081a565b6107dc565b6107c3565b610778565b610751565b610736565b61070d565b6106c9565b6106a2565b61067b565b610654565b61058c565b610565565b6103bb565b61034a565b600080fd5b805b0361022757565b905035906102428261022c565b565b906020828203126102275761025891610235565b90565b60005b83811061026e5750506000910152565b818101518382015260200161025e565b61029f6102a86020936102b293610293815190565b80835293849260200190565b9586910161025b565b601f01601f191690565b0190565b6001600160a01b031690565b9052565b9398979561032b60e09661032461031c6102429b9661033b9861030f6102fd8c6103329a610100820191600081840391015261027e565b6001600160a01b0390931660208d0152565b8a820360408c015261027e565b9c6060890152565b6080870152565b60a0850152565b151560c0830152565b01906001600160a01b03169052565b3461022757610381610365610360366004610244565b6122f8565b9461037898969894919493929360405190565b988998896102c6565b0390f35b600091031261022757565b610258916008021c6001600160a01b031690565b906102589154610390565b610258600060046103a4565b34610227576103cb366004610385565b6103816103d66103af565b604051918291826001600160a01b03909116815260200190565b634e487b7160e01b600052600060045260246000fd5b634e487b7160e01b600052602260045260246000fd5b906001600283049216801561043c575b602083101461043757565b610406565b91607f169161042c565b805460009392916104636104598361041c565b8085529360200190565b91600181169081156104b5575060011461047c57505050565b61048f9192939450600052602060002090565b916000925b8184106104a15750500190565b805484840152602090930192600101610494565b92949550505060ff1916825215156020020190565b9061025891610446565b634e487b7160e01b600052604160045260246000fd5b90601f01601f1916810190811067ffffffffffffffff82111761050c57604052565b6104d4565b9061024261052b9261052260405190565b938480926104ca565b03836104ea565b906000106105435761025890610511565b6103f0565b6102586000600d610532565b60208082526102589291019061027e565b3461022757610575366004610385565b610381610580610548565b60405191829182610554565b346102275761059c366004610385565b6103816105a76114b2565b6040519182918290815260200190565b6001600160a01b03811661022e565b90503590610242826105b7565b9060208282031261022757610258916105c6565b6102b6610258610258926001600160a01b031690565b610258906105e7565b610258906105fd565b9061061990610606565b600052602052604060002090565b610258916008021c81565b906102589154610627565b6102589061064f60149160009261060f565b610632565b34610227576103816105a761066a3660046105d3565b61063d565b61025860006011610532565b346102275761068b366004610385565b61038161058061066f565b6102586000600b610632565b34610227576106b2366004610385565b6103816105a7610696565b61025860006003610632565b34610227576106d9366004610385565b6103816105a76106bd565b80151561022e565b90503590610242826106e4565b9060208282031261022757610258916106ec565b34610227576107256107203660046106f9565b610fc8565b604051005b61025860006007610632565b3461022757610746366004610385565b6103816105a761072a565b34610227576103816105a76107673660046105d3565b6114bf565b61025860006009610632565b3461022757610788366004610385565b6103816105a761076c565b9091606082840312610227576102586107ac84846105c6565b936107ba8160208601610235565b936040016105c6565b34610227576107256107d6366004610793565b91611429565b34610227576107256107ef366004610244565b611bd0565b610258916008021c5b60ff1690565b9061025891546107f4565b6102586001600e610803565b346102275761082a366004610385565b61038161083561080e565b60405191829182901515815260200190565b61025860006012610532565b3461022757610863366004610385565b610381610580610847565b919060408382031261022757610258906108888185610235565b936020016105c6565b34610227576107256108a436600461086e565b90612221565b6102586002600e610803565b34610227576108c6366004610385565b6103816108356108aa565b6102586102586102589290565b90610619906108d1565b6102589081565b61025890546108e8565b610258906107fd565b61025890546108f9565b6102589060081c6102b6565b610258905461090c565b61092d9060156108de565b61093681610511565b9161094b60018301546001600160a01b031690565b9161095860028201610511565b91610965600383016108ef565b91610972600482016108ef565b916102586006610983818501610902565b9301610918565b9260c0949897956109e46109dc61033b956109eb946109cf6109bd6102429d9860e08c01908c600081840391015261027e565b6001600160a01b0390931660208b0152565b88820360408a015261027e565b9a6060870152565b6080850152565b151560a0830152565b3461022757610381610a0f610a0a366004610244565b610922565b93610a1f97959793919360405190565b9788978861098a565b61025860006013610532565b3461022757610a44366004610385565b610381610580610a28565b6102586000600f610532565b3461022757610a6b366004610385565b610381610580610a4f565b90610242610a8360405190565b92836104ea565b67ffffffffffffffff811161050c57602090601f01601f19160190565b90826000939282370152565b90929192610ac8610ac382610a8a565b610a76565b938185526020850190828401116102275761024292610aa7565b9080601f830112156102275781602061025893359101610ab3565b909160c08284031261022757813567ffffffffffffffff81116102275783610b26918401610ae2565b92610b348160208501610235565b92610b4282604083016105c6565b92610b5083606084016105c6565b9260808301359067ffffffffffffffff821161022757610b7581610258938601610ae2565b9360a001610235565b3461022757610725610b91366004610afd565b94939093929192611b0d565b61025860006016610632565b3461022757610bb9366004610385565b6103816105a7610b9d565b61025860006008610632565b3461022757610be0366004610385565b6103816105a7610bc4565b6102586000600e610803565b634e487b7160e01b600052602160045260246000fd5b60031115610c1757565b610bf7565b9061024282610c0d565b61025890610c1c565b6102c290610c26565b6020810192916102429190610c2f565b3461022757610c58366004610385565b610381610c63610beb565b60405191829182610c38565b6102586000600c610532565b3461022757610c8b366004610385565b610381610580610c6f565b6102586000600a610632565b3461022757610cb2366004610385565b6103816105a7610c96565b610258600060026103a4565b3461022757610cd9366004610385565b6103816103d6610cbd565b61025860006010610532565b3461022757610d00366004610385565b610381610580610ce4565b3461022757610d1b366004610385565b610381610835611716565b3461022757610725610d39366004610244565b610f6b565b3461022757610725610d513660046106f9565b611026565b9e9d9c9b999897959391928f9197959361020083019860008401610d81916001600160a01b03169052565b6001600160a01b031660208301526001600160a01b031660408201526060015260808d015260a08c015260c08b015260e08a01528881036101008a0152610dc79161027e565b878103610120890152610dd99161027e565b916101408701610de891610c2f565b610160860152848103610180860152610e009161027e565b8381036101a0850152610e129161027e565b8281036101c0840152610e249161027e565b90808203906101e001526102589161027e565b3461022757610e47366004610385565b610e7c610e52612234565b9e610e719e919e9d929d9c939c9b949b9a959a99969998979860405190565b608052608051610d56565b6080519003608051f35b15610e8d57565b60405162461bcd60e51b815260206004820152603660248201527f596f7520646f6e7420686176652061646d696e2061636365737320746f20706560448201527f72666f726d2074686973206f7065726174696f6e2021000000000000000000006064820152608490fd5b61024290610f3033610f2a610f1d610f186001546001600160a01b031690565b610606565b916001600160a01b031690565b14610e86565b610f60565b90600019905b9181191691161790565b90610f55610258610f5c926108d1565b8254610f35565b9055565b610242906003610f45565b61024290610ef8565b61024290610f9433610f2a610f1d610f186001546001600160a01b031690565b610fbd565b9061ff009060081b610f3b565b90610fb6610258610f5c92151590565b8254610f99565b61024290600e610fa6565b61024290610f74565b61024290610ff133610f2a610f1d610f186001546001600160a01b031690565b61101b565b9062ff00009060101b610f3b565b90611014610258610f5c92151590565b8254610ff6565b61024290600e611004565b61024290610fd1565b6102589060101c6107fd565b610258905461102f565b1561104c57565b60405162461bcd60e51b815260206004820152601860248201527f50726f6a656374206d75737420626520766572696669656400000000000000006044820152606490fd5b9061024292916110b66110a4600e61103b565b6110b060015b91151590565b14611045565b61112d565b156110c257565b60405162461bcd60e51b815260206004820152603c60248201527f596f7520646f206e6f74206861766520746865206d617374657220726967687460448201527f7320746f20706572666f726d2074686973206f7065726174696f6e21000000006064820152608490fd5b9061024292916111553361114f610f1d610f186000546001600160a01b031690565b146110bb565b611254565b634e487b7160e01b600052601160045260246000fd5b600019811461117f5760010190565b61115a565b9190820180921161117f57565b905051906102428261022c565b906020828203126102275761025891611191565b6001600160a01b0390911681526040810192916102429160209061033b565b6040513d6000823e3d90fd5b1561022757565b90505190610242826106e4565b9060208282031261022757610258916111e4565b6001600160a01b039182168152911660208201526060810192916102429160400152565b0152565b6001600160a01b039091168152606081019392610242929091604091611229906020830152565b916112c26014916112aa6112928661127461126f828861060f565b6108ef565b95600096611288611284896108d1565b9190565b146114085761060f565b6112a48661129f836108ef565b611184565b90610f45565b610f186112bb8561129f600a6108ef565b600a610f45565b9063dd62ed3e916112d230610606565b6112e56112de60405190565b9460e01b90565b8452602084806112f9848a600484016111b2565b0381855afa9182156113d65761131d602093879686916113db575b508611156111dd565b61133f846323b872dd61134b61133260405190565b9889968795869460e01b90565b84528c60048501611205565b03925af19081156113d657506113aa575b50611367600a6108ef565b9161139f7f5cdc4ab8d637538ead6cc1904d4160343656c8c82bd266635cfd31ac008fffe09361139660405190565b9384938461122d565b0390a1610242611454565b6113ca9060203d81116113cf575b6113c281836104ea565b8101906111f1565b61135c565b503d6113b8565b6111d1565b6113fb9150853d8111611401575b6113f381836104ea565b81019061119e565b38611314565b503d6113e9565b61142461141d611418600b6108ef565b611170565b600b610f45565b61060f565b906102429291611091565b9060ff90610f3b565b9061144d610258610f5c92610c26565b8254611434565b61145e600a6108ef565b61146e61128461025860086108ef565b1061148a5761147f6002600e61143d565b610242426009610f45565b4261149b61128461025860076108ef565b111561147f576114ad6001600e61143d565b61147f565b6114bb30610606565b3190565b60206114d6611516926114d0600090565b50610606565b6370a08231906114ff6114e830610606565b926114f260405190565b9586948593849360e01b90565b83526001600160a01b031660048301526024820190565b03915afa9081156113d65760009161152c575090565b610258915060203d8111611401576113f381836104ea565b1561154b57565b60405162461bcd60e51b815260206004820152600d60248201527f496e76616c6964207374617465000000000000000000000000000000000000006044820152606490fd5b1561159757565b60405162461bcd60e51b815260206004820152601560248201527f446561646c696e652068617320706173736564202100000000000000000000006044820152606490fd5b6102589061160760016116016115fb6115f5600e610902565b92610c1c565b91610c1c565b14611544565b6116214261161b61128461025860076108ef565b10611590565b611698565b1561162d57565b60405162461bcd60e51b815260206004820152602660248201527f596f7520646f6e74206861766520616e7920636f6e747269627574656420616d60448201527f6f756e74202100000000000000000000000000000000000000000000000000006064820152608490fd5b503360146116a961126f838361060f565b6116c16000916116bb611284846108d1565b11611626565b808080806116d1610f1888610606565b6116de61126f898961060f565b9082821561170d575bf1156113d657611708926116fd611703926108d1565b9261060f565b610f45565b600190565b506108fc6116e7565b61025860006115dc565b1561172757565b60405162461bcd60e51b815260206004820152603860248201527f596f7520646f6e7420686176652063726561746f722061636365737320746f2060448201527f706572666f726d2074686973206f7065726174696f6e202100000000000000006064820152608490fd5b9061024295949392916117bd336117b7610f1d610f186004546001600160a01b031690565b14611720565b9061024295949392916117db60026116016115fb6115f5600e610902565b6117ef4261161b61128461025860076108ef565b611a53565b91906008610f3b910291611809600019841b90565b921b90565b919061181f610258610f5c936108d1565b9083546117f4565b6102429160009161180e565b81811061183e575050565b8061184c6000600193611827565b01611833565b9190601f811161186157505050565b61187361024293600052602060002090565b906020601f840181900483019310611895575b6020601f909101040190611833565b9091508190611886565b906118a8815190565b9067ffffffffffffffff821161050c576118cc826118c6855461041c565b85611852565b602090601f831160011461190757610f5c9291600091836118fc575b5050600019600883021c1916906002021790565b0151905038806118e8565b601f1983169161191c85600052602060002090565b9260005b81811061195a57509160029391856001969410611941575b50505002019055565b01516000196008601f8516021c19169055388080611938565b91936020600181928787015181550195019201611920565b906102429161189f565b906001600160a01b0390610f3b565b9061199b610258610f5c92610606565b825461197c565b9061144d610258610f5c92151590565b9074ffffffffffffffffffffffffffffffffffffffff009060081b610f3b565b906119e2610258610f5c92610606565b82546119b2565b6102c2906108d1565b6102c290610606565b9260c094989795611a426109dc6109eb93611a346102429b96611a4c98611a2760e08c019260008d0152565b8a820360208c015261027e565b9088820360408a015261027e565b60808501906119e9565b01906119f2565b939492611a80611a6c610258611b0895949660156108de565b91611a778784611972565b6001830161198b565b611a8d8660028301611972565b611a9a8460038301610f45565b611ac8826006600093611ab8611aaf866108d1565b60048301610f45565b01611ac384826119a2565b6119d2565b80611ad360166108ef565b947f4155121c72ca95297a55d3963daac6d430e184f4fc497ce898b36ee9a834eec197611aff60405190565b978897886119fb565b0390a1565b906102429594939291611792565b15611b2257565b60405162461bcd60e51b815260206004820152601b60248201527f4f6e6c7920636f6e7472696275746f722063616e20766f7465202100000000006044820152606490fd5b15611b6e57565b60405162461bcd60e51b815260206004820152601360248201527f596f7520616c726561647920766f7465642021000000000000000000000000006044820152606490fd5b6001600160a01b0390911681526040810192916102429160200152565b3390611c6d9061126f611c676004611c5b86611c56611c17610258611bf78885601461060f565b98611c1060009a611c0a6112848d6108d1565b11611b1b565b60156108de565b96611c446005890191611c3e6110aa611c38611c33888761060f565b610902565b92151590565b14611b67565b611c51600193849261060f565b6119a2565b6108d1565b93019261129f846108ef565b82610f45565b7fa2925e4595bf873fa82c22a1a89809777347023bf2b502d32710157a5eb8199c91611b08611c9b60405190565b92839283611bb3565b9061024291611cc5336117b7610f1d610f186004546001600160a01b031690565b9061024291611cdf60026116016115fb6115f5600e610902565b611cf34261161b61128461025860076108ef565b611edc565b15611cff57565b60405162461bcd60e51b815260206004820152601960248201527f5265717565737420616c726561647920636f6d706c65746564000000000000006044820152606490fd5b634e487b7160e01b600052601260045260246000fd5b8115611d64570490565b611d44565b15611d7057565b60405162461bcd60e51b815260206004820152603660248201527f4174206c656173742032302520636f6e7472696275746f72206e65656420746f60448201527f20766f746520666f7220746869732072657175657374000000000000000000006064820152608490fd5b15611de257565b60405162461bcd60e51b815260206004820152603960248201527f50726f6a65637420636f6e747261637420646f6573206e6f742068617665206560448201527f6e6f7567682062616c616e636520746f206469736275727365000000000000006064820152608490fd5b8181029291811591840414171561117f57565b6001600160a01b0390911681526060810193926102429290916040916112299060208301906119f2565b929796946109eb906109e460c096611ed5611ec36102429b96611a4c98611eb660e08c019260008d0152565b8a820360208c0152610446565b6001600160a01b03909d166040890152565b6060870152565b611eea6102588260156108de565b906006820192611ef984610902565b600090611f0f90611f09836110aa565b14611cf8565b6004840190611f4a611f20836108ef565b611f43611284610258611f33600b6108ef565b611f3d60056108d1565b90611d5a565b1015611d69565b6003850195611f61611f5b886108ef565b94610606565b6370a08231611f6f30610606565b95611f83611f7c60405190565b9260e01b90565b82526001600160a01b0387166004830152602082602481865afa80156113d657611284611fb891611fbf94889161152c575090565b1115611ddb565b6323b872dd94611fce83610918565b611fd78a6108ef565b60206120108961201c612002611ff2603296611f3d886108d1565b611ffc60316108d1565b90611e4d565b604051968794859460e01b90565b84528860048501611e60565b038189885af19182156113d6578b92612205575b504261204261128461025860036108ef565b116121a75750506001546001600160a01b03169161205f8a6108ef565b602061201089612085612077606495611f3d876108d1565b604051988994859460e01b90565b038189865af19081156113d6578b986120e86120cd89936020986120dd9661218c575b50611f3d6120c76120c16002546001600160a01b031690565b9e6108ef565b916108d1565b6040519b8c978896879560e01b90565b855260048501611e60565b03925af19384156113d657611b0894612170575b505b61213b61213561212f6121296001809661211882886119a2565b8b019a01546001600160a01b031690565b996108ef565b946108ef565b91610918565b927f4b318eefdd7bb107016b6a285ad8d255001224edad6fe9a0dd934ee9f3e911c59761216760405190565b97889788611e8a565b6121879060203d81116113cf576113c281836104ea565b6120fc565b6121a2908a3d81116113cf576113c281836104ea565b6120a8565b8560209492986121cf6120cd6120dd94611f3d6120c76120c16001546001600160a01b031690565b03925af19384156113d657611b08946121e9575b506120fe565b6122009060203d81116113cf576113c281836104ea565b6121e3565b61221c9060203d81116113cf576113c281836104ea565b612030565b9061024291611ca4565b61025890610511565b6004546001600160a01b03169061224b60076108ef565b9061225660086108ef565b9161226160096108ef565b9261226c600a6108ef565b92612277600c61222b565b94612282600d61222b565b9461228d600e610902565b9661229730610606565b31966122a3600f61222b565b986122ae601061222b565b986122b9601161222b565b9a6122c4601261222b565b9a6122d76005546001600160a01b031690565b9c6122ea6006546001600160a01b031690565b9c6122f5600b6108ef565b9a565b61025861230f91612307606090565b5060156108de565b612319600b6108ef565b906123238161222b565b926123306002830161222b565b9161234560018201546001600160a01b031690565b93612352600383016108ef565b926006612361600485016108ef565b93019061025861237083610902565b9261091856fea2646970667358221220bfc124648f4c5db7f199553462fb7ed2f8410e4de8219b601c3f6780ed3f877864736f6c63430008120033",
  "linkReferences": {},
  "deployedLinkReferences": {}
}